:1000000000800020BD01000045870100018701003C
:1000100001870100018701000187010001870100BC
:100020000187010001870100018701004587010068
:100030004587010001870100E9B10100EDB1010030
:10004000458701004587010045870100458701007C
:10005000458701004587010045870100458701006C
:10006000458701004587010045870100458701005C
:10007000458701004587010045870100458701004C
:10008000458701004587010045870100458701003C
:10009000458701004587010045870100458701002C
:1000A000458701004587010045870100458701001C
:1000B000458701004587010045870100458701000C
:1000C00045870100458701004587010045870100FC
:1000D00045870100458701004587010045870100EC
:1000E00045870100458701004587010045870100DC
:1000F00045870100F595010045870100659F0100D6
:1001000045870100D5A10100458701004587010011
:1001100045870100458701004587010045870100AB
:10012000458701004587010045870100458701009B
:10013000458701004587010045870100458701008B
:10014000458701004587010045870100458701007B
:10015000DD800100F980010015810100318101007D
:10016000458701007DA40100458701004587010006
:10017000458701004587010045870100458701004B
:10018000458701004587010045870100458701003B
:10019000458701004587010045870100458701002B
:1001A000458701004587010045870100458701001B
:1001B000458701004587010045870100574B4CF2F8
:1001C000205210B5DA814DF62812DA8100BF00BF47
:1001D00018F0BCFA524B4FF010621A63514A9A63FE
:1001E000514ADA63514A136913F4807303D153619E
:1001F0004FF4A85313614E4B9A78110703D59A78A0
:1002000042F008029A704B4B4B482A221A704B4B13
:10021000DA1C121AC11E22F00302994288BF002282
:10022000474918F099F9474B4748DA1C121AC11E82
:1002300022F00302994288BF0022002122F022F816
:10024000424943484FF4DE7218F086F9414B424A66
:10025000802103F8011B9342FBD14FF0E0233C4A7D
:10026000C3F8082D3D4B8A221A70A3F5805324222F
:100270005A70A0221A709A799207FCD59A79D406FE
:10028000FCD4374B9A7902F00C02082AFAD10522E5
:100290001A7143225A719A799006FCD5304A9379A3
:1002A0005906FCD51E4B4FF08171596405219964A4
:1002B00020211170917901F00C010C29FAD1294A01
:1002C0005A604FF0E023284A5A6100229A610722BF
:1002D0001A61264AC3F8202D62B618F08BFC134B26
:1002E0005B69DA0705D5224818F078FC214B224AD1
:1002F000DA61224B1B785B0609D51E4C1E4BE26966
:100300009A4204D11A4818F069FC0023E36118F0FE
:1003100023FA22F017F918F017F9FEE7002005403C
:1003200000800440823F04000100002B00D0034005
:1003300000D0074000E007402087FF1FC88FFF1F45
:100340002496020078A1FF1FC88FFF1F0000000045
:100350000082FF1F00E400E05FE400E00050064080
:1003600000400640C01005003F1901000000202099
:100370007BCB916900E00340A5C3945A00F007408D
:10038000FFFFFFFFFFFFFFFFFFFFFFFFFFFFFFFF7D
:10039000FFFFFFFFFFFFFFFFFFFFFFFFFFFFFFFF6D
:1003A000FFFFFFFFFFFFFFFFFFFFFFFFFFFFFFFF5D
:1003B000FFFFFFFFFFFFFFFFFFFFFFFFFFFFFFFF4D
:1003C000FFFFFFFFFFFFFFFFFFFFFFFFFFFFFFFF3D
:1003D000FFFFFFFFFFFFFFFFFFFFFFFFFFFFFFFF2D
:1003E000FFFFFFFFFFFFFFFFFFFFFFFFFFFFFFFF1D
:1003F000FFFFFFFFFFFFFFFFFFFFFFFFFFFFFFFF0D
:10040000FFFFFFFFFFFFFFFFFFFFFFFFDEF9FFFF23
:100410000548064B1B1AD90F01EBA301491002D066
:10042000034B03B118477047C88FFF1FC88FFF1FCA
:100430000000000008B5054B1BB105490548AFF3A6
:100440000080BDE80840FFF7E3BF00BF00000000E8
:10045000C88FFF1F1C96020008B518F0B9FB0021D9
:1004600008BD00BF10B50121212018F049FC14245B
:100470000121212018F010FC0A2018F09DFC2120F9
:10048000002118F009FC322018F096FC013CEFD155
:10049000BDE810400121212018F0FEBBFFFFFFFF47
:1004A0002DE9F04FD64BD749D3E9042385B0C1E9F4
:1004B0000C2318F08DFB0021044612F03DFD0021B5
:1004C0000646204612F0CAFC00210546204612F0DE
:1004D0001DFD6B1E012B98BF06F1FF360746304607
:1004E00098BF0C351FF0B2FCC74906461FF0B6FD99
:1004F0001BF07CFFC549814630461FF0AFFD1BF065
:1005000075FFC349804630461FF0F4FC1BF06EFFB8
:10051000064628461FF09AFC4FF07E511FF0E2FB82
:10052000BC491FF0E7FC1BF061FF494605464FF050
:1005300080401FF0D5FB41461FF0D4FB1FF02CF884
:100540008046304689461FF027F802460B46404653
:1005500049461EF0C3FE8046284689461FF01CF817
:1005600002460B46404649461EF0B8FE80463846D5
:1005700089461EF0FFFF02460B46404649461EF0E4
:10058000ADFE8BA3D3E900231EF0A8FE024617465A
:10059000884620460021CDE9027812F0A1FC002116
:1005A0000646204612F070FC1FF050FC9A491FF0DE
:1005B00055FD054630461FF049FC014628461FF010
:1005C00091FB0021034620461C4612F073FC1FF0ED
:1005D0003DFC92491FF042FD21461FF083FB1EF0B7
:1005E000DBFF8F4BCDE900010022384641461EF06B
:1005F00075FE1BF02DFE70A3D3E9002304460D46C3
:100600001FF0B2FA58B36EA3D3E90023204629465F
:100610001EF062FE6CA3D3E900231FF03FF91FF028
:10062000C3FA1EF0A7FF7F4B002206460F461FF0BD
:100630000BF81BF00DFE02460B46204629461446D9
:100640001D460022784B1EF049FE32463B461EF006
:1006500045FE22462B461EF03FFE04460D465CA397
:10066000D3E90023204629461EF038FE5AA3D3E9D9
:10067000002304460D461EF02FFE59A3D3E90023A4
:100680001FF00CF91BF0E4FD55A3D3E900238246CB
:100690008B461EF0D9FF1BF0DBFD02460B462046C1
:1006A00029461EF019FE50A3D3E90023804689464F
:1006B0001FF0F4F81BF0CCFD4BA3D3E90023044654
:1006C0000D461EF0C1FF1BF0C3FD002206460F467B
:1006D0000023404649461EF001FE32463B461EF0CE
:1006E000FBFD1BF0B5FD1FF05FFA504B06460022E4
:1006F000204629461FF01AFA002800F0B6824A4B1D
:100700002946002220461EF0E7FD1FF04DFA05465F
:1007100028461FF09BFB464904461FF0A7FD002812
:1007200000F0988232A3D3E90023504659461EF0C8
:10073000D3FD1FF039FA07466B1E012B05D805F1D2
:100740000C001FF083FB013F044638461FF07EFB80
:100750002D4905461FF082FC1BF048FE2B498246BE
:1007600028461FF07BFC1BF041FE2949074628461E
:100770001FF0C0FB1BF03AFE4FF07E5105462046AD
:100780001FF0B0FA23491FF0B5FB1BF02FFE1AA390
:10079000D3E900230446DDE902011EF09DFD254B4F
:1007A000804689460022DDE9000145E0AFF3008084
:1007B00000000080A2423A41000000008C8A4141C2
:1007C00000000040D07D3C410000000088D5E140A1
:1007D0000000000000D097400000006066865E4088
:1007E0000000000000D4764000000020A0993E40A8
:1007F00000000000006CB240000000802CB44241B8
:100800005091FF1FB890FF1F0000C8420000C8436E
:1008100000A0B64301CDF4410000704200006145E4
:100820000000E03F0000D03F0000F03F00002B4000
:1008300000002040000038401FF030F802460B4610
:10084000404649461EF04AFD02460B46CDE90223CA
:10085000D1A3D3E900231FF021F802460B464FF045
:10086000804051469B4692461FF03AFA39461FF0A7
:1008700039FA1EF091FE8046284689461EF08CFE0D
:1008800002460B46404649461EF028FD804620465B
:1008900089461EF081FE02460B46404649461EF040
:1008A0001DFD044630460D461EF064FE02460B4612
:1008B000204629461EF012FDB9A3D3E900231EF0FD
:1008C0000DFDB9A3D3E900231EF006FDB8A3D3E9BB
:1008D00000231EF0B9FEB8A3D3E900231EF0FEFCEE
:1008E000CD4B0022804689461FF034F978B1CA4DBD
:1008F000002422462B46404649461EF0EDFC224687
:100900002B46804689461FF025F90028F1D10022A8
:100910000023404649461FF009F988B1BE4F002622
:10092000002400254046494632463B461EF0D6FC90
:1009300022462B46804689461FF0F8F80028F1D160
:100940009FA3D3E90023DDE900011EF07DFE4246AE
:100950004B461EF0C3FC9CA3D3E9002304460D467E
:10096000504659461EF070FE52465B461EF06CFE25
:1009700002460B46204629461EF0B0FCA64B00223C
:1009800004460D461FF0E6F878B1A34F0026324624
:100990003B46204629461EF09FFC32463B46044615
:1009A0000D461FF0D7F80028F1D100220023204681
:1009B00029461FF0BBF898B1974F00264FF000086A
:1009C0004FF0000932463B46204629461EF086FC81
:1009D00042464B4604460D461FF0A8F80028F1D1C8
:1009E000DDE902AB7AA3D3E90023504659461EF055
:1009F0002BFE02460B4678A1D1E900011EF06CFCEB
:100A000077A3D3E900231EF049FF1BF037F976A343
:100A1000D3E9002306460F46504659461EF014FE01
:100A200073A3D3E900231EF059FC02460B461EF0C7
:100A300055FC6BA3D3E900231EF030FF1BF01EF919
:100A40006DA3D3E9002380468946504659461EF0DF
:100A5000FBFD02460B466AA1D1E900011EF03CFCF9
:100A60005FA3D3E900231EF019FF1BF07BF866A3F8
:100A7000D3E9002382468B46304639461EF0E4FD1A
:100A800063A3D3E9002306460F46404649461EF0BD
:100A9000DBFD02460B46304639461EF01DFC524631
:100AA0005B461EF0D1FD22462B461EF017FC5A4B2A
:100AB0000022804689461FF04DF878B1564D00243B
:100AC00022462B46404649461EF006FC22462B464F
:100AD000804689461FF03EF80028F1D1002200230D
:100AE000404649461FF022F888B14B4F00260024AB
:100AF000002532463B46404649461EF0EFFB224663
:100B00002B46804689461FF011F80028F1D1434951
:100B1000434B0022D1E90C011EF0C0FE02460B46F9
:100B2000404649461EF0D8FB3B4B00228046894692
:100B30001FF010F878B1384D002422462B4640466D
:100B400049461EF0C9FB22462B46804689461FF0C7
:100B500001F80028F1D100220023404649461EF04A
:100B6000E5FF88B12C4F00260024002532463B4685
:100B7000404649461EF0B2FB22462B468046894637
:100B80001EF0D4FF0028F1D1234B002240464946F5
:100B90001EF084FE46E000BF00000000A0D5E1404A
:100BA00000000080A2423A41000000802CB4424183
:100BB000000000E05BD2B03F000000801CCA1A4079
:100BC000000000E0360BF03F000000605243FB3EA7
:100BD00000000060C91CAB3F000000608F425F4016
:100BE00000000020DCA54C40000000E0718AEF3FCF
:100BF0000000002085877140000000A0F2D79A3ED7
:100C00000000000076703740000000A0EEE734BF1F
:100C100000000080732AF93E00003840B890FF1FA2
:100C200000002E4018A3D3E900231EF00DFD1EF096
:100C3000BBFF72B6184B186062B618480CF0D8FAB1
:100C4000E8B116480CF026FB0A2005B0BDE8F04FCD
:100C500018F0B2B80EA3D3E90023504659461EF04F
:100C60003BFB1EF0A1FF074666E50D4B294600221F
:100C700020461EF031FB1EF097FF054648E5074869
:100C80000CF0CEFADDE700BF00000000C07A604142
:100C900000000000006BB240B890FF1F9891FF1F4A
:100CA00000002A4070B50C4682B072B6294B1A6813
:100CB00062B659688A4226D1274E284D18F05CF852
:100CC000274B9A68D9681860821A8A42C8BFDA60CE
:100CD0005A60326801929860019AD5F8983342F2CE
:100CE0000F71D31A8B4294BF01210021217004D9C6
:100CF00002F51C521032C5F89823184802B0BDE81E
:100D0000704010F0A3BA18681649134E5A60134D7C
:100D100081FB003233680093D5F89813009B42F2B0
:100D20000F7C591A61454FEAE071C1EB62114FF037
:100D3000640202FB110194BF01220022227004D937
:100D400003F51C531033C5F89833044810F04CFBDE
:100D5000B4E700BFB890FF1F749BFF1F9891FF1F5F
:100D6000E88FFF1F1F85EB5170B51F4C1F4E94F885
:100D7000B03394F868233270054613B994F8683498
:100D80003BBB19480FF0AAFC98B128461849FFF759
:100D900089FF357800F042F902F06EFC94F8683370
:100DA000AB4200D170BDBDE870400F4821210CF06E
:100DB00003BB104B10491A68104B0B4801FB023360
:100DC0000F4AB2EB730F94BF0121002110F020FCF9
:100DD000DBE720460CF0ECF9204610F021FE20461F
:100DE0000CF0EAF9CDE700BF9891FF1FE18FFF1FDC
:100DF000E08FFF1FB890FF1FCDCCCCCC98999919EC
:100E00009999991908B517F029FBBDE8084017F022
:100E100025BB00BF38B51A20124C134D18F066FEE2
:100E200000211F2018F024FE20464DF6C02116F0A8
:100E3000C9FF0A23A3600D48042118F043FF18F0EE
:100E4000C9FFFA2017F0B8FF012406E018F0FAFFF6
:100E5000C0B23F2808BF85F8374018F0DFFF0028F0
:100E6000F4DC38BDB887FF1F9891FF1F5087020040
:100E70002DE9F8431B4D1C4C2E681C4FDFF8709079
:100E800040F2EE281AF0C8F82378EBB13B78DB0784
:100E90001AD52B68D9F800209B1A0E2B14D90122E1
:100EA0001449154800F0D6F914484FF4614116F082
:100EB00011FF12491248022200F0CCF9BDE8F843B4
:100EC0000021212017F0E8BE2B6822789B1B2AB155
:100ED000B3F5FA6FE3D81AF09FF8D3E74345FAD990
:100EE000DDE700BF749BFF1F109EFF1F349EFF1F96
:100EF000389EFF1F0C88FF1F4490FF1FA487FF1F11
:100F00002090FF1F70B5234C0546FFF7ABFA0BF09E
:100F1000EDFD20460CF0BCF91F4812F0A5F90026A3
:100F20000021012012F0AEF917F052FE314612F006
:100F300079F920460CF038F920460CF03BFA31469E
:100F400004F5A7600CF07EFA20460EF0B5FC2046B2
:100F50000CF002FA2846FFF7A3FA72B60F4B196895
:100F60001A6859609A6062B64FF4FA6017F024FF6D
:100F700019F01CF9B042D8BF00232846C8BF01238E
:100F800084F83830FFF746FF2846BDE87040FFF789
:100F90006FBF00BF9891FF1F59040000B890FF1F5A
:100FA000F8B51D4E04461D2700253A4631462E3021
:100FB00017F0D2FA3A463146E564A4F8505004F1ED
:100FC000520017F0C9FA4FF4E13323604FF416438F
:100FD00001214DF67C52A3604FF4964384F8BE1075
:100FE00062604FF4E1414FF4615223614FF41653B4
:100FF000E16062614FF49651A3614FF416624FF4C1
:10100000966384F8705084F8A250A585E16122624D
:101010006362A5622046F8BD6087020030B5594C76
:1010200083B004F14C0000258DF8075000F016F94C
:1010300004F1280000F012F904F1A20104F12800E3
:101040000DF1070200F070F90DF1070204F1A201A1
:1010500004F14C0000F068F99DF80730002B55D0E2
:101060003222294604F1700021F00CF994F8A230E4
:10107000063B622B46D8DFE803F0814545454545F0
:101080004545454545454545454545454545454510
:1010900045454545454545457E45454545454545C7
:1010A00045454545454545454545454545454545F0
:1010B00045454545457B7875726F6C6945454545A5
:1010C000456645454563605B585545524545454530
:1010D00045454545454545454545454F320009F09F
:1010E0006BFF94F870306BB127499DF80720A1F190
:1010F000240000F02DF924499DF80720A1F14800B3
:1011000000F026F9214B93F830350BB903B030BD10
:1011100011F018F803B030BD02F036FEE1E709F037
:10112000E3FADEE709F0F0F8DBE708F02DFAD8E79C
:101130000DF1070005F094FBD3E704F0B3FFD0E70F
:1011400004F054FFCDE704F01FFBCAE701F034FAC6
:10115000C7E701F03BF9C4E700F00AFEC1E700F081
:10116000D9FDBEE700F080FBBBE700F067FBB8E706
:1011700000F00AF9B5E709F0E7FEB2E700F038FB46
:10118000AFE700BFF88FFF1F6890FF1F9891FF1F08
:10119000024B3122A3F87020704700BFF88FFF1F69
:1011A000044B054A1B68A2F870301B0C82F87230A1
:1011B000704700BF58870200F88FFF1F024B302294
:1011C000A3F87020704700BFF88FFF1F044B054A3B
:1011D0001B68A2F870301B0C82F87230704700BF99
:1011E0005C870200F88FFF1F024B2322A3F87020B8
:1011F000704700BFF88FFF1F044B18B13122A3F8CE
:10120000702070473022A3F870207047F88FFF1FBE
:10121000024B002283F87020704700BFF88FFF1F39
:1012200008B517F01BF917F019F90848FFF7B8FED1
:10123000074B002000210022C3E90601C3E9080191
:10124000C3E90A011A605A609A6008BDF88FFF1F4F
:10125000B890FF1F01600271704700BF38B50446A7
:10126000006803681B699847002826DD657925BB5F
:10127000206803685B699847C0B2062824D0821FA3
:10128000D2B21A2A28D8274BD34013F0010218D122
:1012900094F82230E1180133DBB28871E118162B83
:1012A0008A710BD8232884F822300AD1012B23D845
:1012B000002384F82230A371637138BD162384F8AB
:1012C00022300023637138BD94F82230002BF8D10E
:1012D0000123E080637138BD94F82220A318013205
:1012E0009871D3B254FA82F2162B9571DAD916237B
:1012F000232884F82230E4D1A2793A2AD8D1013BBC
:1013000023449A79232AD3D10022E51D9A712846D5
:1013100021F0B6F92946421CA01D20F037FF012319
:10132000637138BD91000004437983B170B51678BC
:10133000154606B170BD04460846A11D21F02EF9E0
:10134000237984F82260A67166712B7070BD704796
:101350000379934200D0704770B504680D4651B1CF
:10136000084621F08DF923680246294620465B682D
:10137000BDE87040184770BD08B517F06FF8BDE8BC
:10138000084017F06BB800BF2DE9D04F704C94F8AF
:10139000A3302A3BBAB02D2B2FD8DFE813F0EB0097
:1013A0002E002E002E002E002E0086012E0048005A
:1013B0002E002E002E002E002E002E002E002E00BD
:1013C0002E002E002E002E002E002E0033002E00A8
:1013D00033002E009E012E002E002E002E002E0027
:1013E0002E002E002E002E002E002E002E002E008D
:1013F0002E002E002E002E00BE013AB0BDE8D04FC8
:10140000FFF706BF534E012009F07EFF30460BF078
:1014100007FF94F8A330A3F14103B3FA83F35B0908
:1014200086F82A333AB0BDE8D04FFFF7B1BE72B6A6
:10143000494B186862B6494B984205DDA0F5030098
:10144000A0F556409842F9DC1EF000FD4449414C9D
:101450001EF004FE43491EF04DFD1EF09DF8424B68
:1014600000221EF0F1F8D4E9D4231DF035FF14F06A
:101470002FFC3E4BD3E9028933A3D3E900231EF0AE
:10148000E3F8CDE9020130A3D3E90023D4E9D20186
:101490001EF0DAF80022CDE90001002314A813F0B1
:1014A0001DFD21460EA80BF0D3FE27A3D3E9002390
:1014B000404649461EF0C8F80EAE82468B460FCE17
:1014C0006F460FC796E803005B4687E80300524665
:1014D00014A92CA813F054FD94F81833002B00F035
:1014E00041811C4920A80CF037FD2CA813F0D4FE34
:1014F00082462CA88B4613F0BBFE02460B4620A862
:10150000CDE9062313F06CFF064620A80F4613F022
:101510005DFFDDE90623CDE90401CDE90023CDE936
:1015200002675B461248524616F052FB94F8193394
:10153000002B40F00081002384F83630FFF728FEAE
:101540003AB0BDE8D08F00BF000000A046DF913F59
:10155000F88FFF1F9891FF1FB890FF1F00D68300E0
:1015600000D6034B0000C04100002E405091FF1FE9
:10157000E092FF1F904C012009F0C6FE04F5A76021
:1015800001210BF05FFF0A2017F016FC94F8683475
:10159000002B40F0CC8088480FF0ACF894F8303342
:1015A00007461BB1002284F830231F4672B6834BD6
:1015B000186862B6824B984205DDA0F50300A0F5DD
:1015C00056409842F9DC1EF041FC7E491EF046FD73
:1015D0007D491EF08FFC1DF0DFFF7C4B00221EF0CA
:1015E00033F8D4E9D4231DF077FE14F071FB784B67
:1015F000D3E9028968A3D3E900231EF025F8CDE9D9
:10160000020165A3D3E90023D4E9D2011EF01CF83E
:101610000022CDE90001002314A813F05FFC08A804
:1016200065490BF015FE5CA3D3E90023404649460B
:101630001EF00AF808AC804689460FCC6E460FC6ED
:1016400094E803004B4686E80300424614A92CA800
:1016500013F096FC3A462CA957480CF01DFB20A825
:1016600055490CF079FC2CA813F016FE80462CA8E6
:10167000894613F0FDFD064620A80F4613F0B0FE84
:10168000824620A88B4613F0A1FE4246CDE9040114
:101690004B465048CDE902ABCDE9006716F098FA09
:1016A000FFF776FD3AB0BDE8D08F434C012009F03A
:1016B0002BFE20460BF0B4FD012104F5A7600BF0D2
:1016C000C1FE0A2017F078FB94F86834002B3FF431
:1016D000A9AE204610F088F9A4E6374991F81933ED
:1016E00013B32FA3D3E90023D1E9C8011DF0ACFF48
:1016F000394C0123CDE92C0100932CA9002220466E
:1017000014F076F9204620F0BBFF34490222204431
:101710003AB0BDE8D04F16F01FBF0AF00DF93AB04D
:10172000BDE8D04FFFF734BD00200021E0E72046A0
:1017300010F05AF92FE7274816F02AF9A37D012B5C
:1017400019D000220023234816F0C6F81A480EF0DC
:10175000D1FF2CA9024618480CF09EFA012384F808
:101760002833E8E620460EF0C5FF2CA902462046A5
:101770000CF092FAB5E640464946002200231EF0DE
:10178000E9F918B108A3D3E90023DCE708A3D3E9FA
:101790000023D8E7AFF30080000000A046DF913FB0
:1017A00000000020DCA54C4000000060FB21F93F58
:1017B00000000060FB21F9BF9891FF1FB890FF1F48
:1017C00000D6830000D6034B0000C04100002E402D
:1017D0005091FF1FE092FF1F6890FF1F808702005B
:1017E00008B516F03BFEBDE8084016F037BE00BF56
:1017F0000C4B9B7D022B0DD005D8012B0ED10A4B33
:1018000047221A807047033B012B07D8064B412221
:101810001A807047044B50221A807047024B4C22AA
:101820001A8070479891FF1F6890FF1F08B516F047
:1018300015FEBDE8084016F011BE00BF044B93F83A
:10184000A3302B2B02D02D2B00D07047FFF7E0BC2C
:10185000F88FFF1F08B516F001FEBDE8084016F02E
:10186000FDBD00BFFFFFFFFF2DE9F04FBC4CB3B043
:1018700020460EF029FF10B133B0BDE8F08F2046AE
:101880000EF02CFF0028F7D1B64D95F8A330412B70
:1018900009D04D3BDBB2082BEED840F2411222FAC0
:1018A00003F3DB07E8D5AE480EF024FF94F830339D
:1018B00080461BB1002284F83023984695F8A33067
:1018C000413B142BD8D801A252F823F08D1B000005
:1018D00079180000791800007918000079180000C4
:1018E00079180000791800007918000079180000B4
:1018F00079180000791800007918000021190000FB
:101900007918000079180000791800007918000093
:10191000791800002119000079180000411A000010
:1019200094F82A33002B00F0508172B68E4B186861
:1019300062B68E4B984205DDA0F50300A0F5564037
:101940009842F9DC1EF082FA89491EF087FB89492A
:101950001EF0D0FA1DF020FE874B00221DF074FE11
:10196000D4E9D4231DF0B8FC14F0B2F97AA3D3E97A
:1019700000231DF069FE78A3D3E90023CDE902011D
:10198000D4E9D2011DF060FE0022CDE90001002360
:101990000CA813F0A3FA79496FA3D3E90023D1E986
:1019A00002011DF051FE06460F4606A86C490BF0D9
:1019B0004FFC0DF1180CBCE80F00EE46AEE80F002E
:1019C0009CE803003B468EE8030032460CA924A89D
:1019D00013F0D6FA94F81833002B00F05D816049BB
:1019E00018A80CF0B9FA24A813F056FC064624A84F
:1019F0000F4613F03DFC824618A88B4613F0F0FC0E
:101A0000804618A8894613F0E1FC3B46CDE9040165
:101A1000CDE90289CDE900AB5948324616F0D8F835
:101A200094F81933002B40F01D8195F8A3304D2B0D
:101A300000F011814A4833B0BDE8F04F0FF0D4BF39
:101A40000E2009F015FC064616F03EFD002560F359
:101A50000705701C16F038FD60F30F25B01C16F05A
:101A600033FD0346F01C63F3174516F02DFD60F3BC
:101A70001F6528461DF090FD02460B461220C4E962
:101A8000D42309F0F5FB064616F01EFD002560F391
:101A90000705701C16F018FD60F30F25B01C16F03A
:101AA00013FD0346F01C63F3174516F00DFD60F3BC
:101AB0001F6528461DF070FDC4E9D20172B62A4B9D
:101AC000186862B6294B984205DDA0F50300A0F521
:101AD00056409842F9DC1EF0B9F925491EF0BEFACD
:101AE00024491EF007FA1DF057FD234B00221DF07C
:101AF000ABFDD4E9D4231DF0EFFB14F0E9F816A3F5
:101B0000D3E900231DF0A0FD13A3D3E90023CDE901
:101B10000201D4E9D2011DF097FD0022CDE90001B8
:101B2000002324A813F0DAF914490BA3D3E9002306
:101B3000D1E902011DF088FD4246CDE900010848C7
:101B400024A90CF085F80F4A0F4B92E803001860A7
:101B5000197191E6AFF30080000000A046DF913FCD
:101B60009891FF1FF88FFF1FB890FF1F00D68300CA
:101B700000D6034B0000C04100002E405091FF1FD3
:101B8000E092FF1F848702006890FF1F01210491EB
:101B90004DA3D3E90023D4E9D0011DF055FD4AA39C
:101BA000D3E90023CDE90201D4E9CE011DF04CFDBB
:101BB0000022CDE90001002324A813F0A1FA424637
:101BC00024A947480CF068F8BDE772B6454B186881
:101BD00062B6454A904205DDA0F50300A0F55640E7
:101BE0009042F9DC1EF032F940491EF037FA4049C4
:101BF0001EF080F91DF0D0FC3E4B00221DF024FDAC
:101C0000D4E9D4231DF068FB14F062F82EA3D3E9C5
:101C100000231DF019FD2CA3D3E90023CDE9020117
:101C2000D4E9D2011DF010FD0022CDE9000100230E
:101C300024A813F053F9304923A3D3E90023D1E9B1
:101C400002011DF001FD4246CDE9000124A924480E
:101C50000BF0FEFFE9E6294B93E80300286785F8BF
:101C60007410E7E6264815F093FEA37D012B19D0EA
:101C700000220023224815F02FFE19480EF03AFDED
:101C800024A9024616480CF007F80122002384F824
:101C9000282384F82A33C8E6424624A910480BF0CA
:101CA000FBFF9CE6144B0022D3E9020100231DF048
:101CB00051FF18B106A3D3E90023DBE706A3D3E95C
:101CC0000023D7E7AFF30080000000A046DF913F7C
:101CD00000000060FB21F93F00000060FB21F9BF1C
:101CE0009891FF1FB890FF1F00D6830000D6034BCA
:101CF0000000C04100002E405091FF1F8487020069
:101D0000E092FF1F08B516F0A9FBBDE8084016F0E9
:101D1000A5BB00BF0E4B93F8A320BAB90D4A92F8A9
:101D2000B02310B502F0FF0162B983F870100A4CBD
:101D3000204620F0A5FC094920440222BDE81040BD
:101D400016F00ABC7F22A3F87020F0E7704700BFAE
:101D5000F88FFF1F9891FF1F6890FF1F8087020078
:101D600008B516F07BFBBDE8084016F077BB00BF56
:101D70002DE9F041B04A92F8A330413BA0B00C2BC2
:101D800013D8DFE803F007127F2C1212121212127E
:101D90001212170092F8A430512B00F06881532BD7
:101DA00000F07781452B00F0678120B0BDE8F0415D
:101DB000FFF72EBA92F8A430532B7BD0412B00F0C2
:101DC000F381552B00F04282512BEED19B4B002228
:101DD00083F8362020B0BDE8F041FFF7D9B9974C21
:101DE00094F83630012B00F0C780022B5AD1D4E989
:101DF000D0018FA3D3E90023012504951DF024FC15
:101E0000CDE902018AA3D3E90023D4E9CE011DF074
:101E10001BFC12ADCDE9000100220023284613F07F
:101E20006FF920460EF066FC10AA0EAB0C920B93D5
:101E30000A900DF1580CBCE80F006C460FC4BCE8CA
:101E40000F000FC49CE8030084E8030095E80F002E
:101E500010F0A6F87A4904460E981EF04BF81EF0D2
:101E600025FA7749054610981EF044F81EF01EFA30
:101E7000744900902B467448224620F021F920B086
:101E8000BDE8F08192F8A430532B00F01281542B5E
:101E900000F0EA80452B00F0F88020B0BDE8F0416A
:101EA000FFF7A2B90023674900931A46664820F05D
:101EB00007F9E4E772B6654B186862B6644B98425E
:101EC00005DDA0F50300A0F556409842F9DC1DF0B1
:101ED000BDFF6049594E1EF0C1F85F491EF00AF877
:101EE0001DF05AFB5D4B00221DF0AEFBD6E9D4235A
:101EF0001DF0F2F913F0ECFE4DA3D3E900231DF021
:101F0000A3FBCDE902014AA3D3E90023D6E9D2011C
:101F10001DF09AFB12ADCDE90001002200232846F6
:101F200012F0DCFF30460EF0E5FB10AB0D934C4990
:101F30000EAB0C9307463EA3D3E90023D1E902017F
:101F40001DF082FBCDE90A0108970DF1580CBCE8A1
:101F50000F006C460FC49CE80F0084E80F0095E862
:101F60000F0010F0A9F83F490246374820F0A8F8C2
:101F7000012386F8363082E772B6344B186862B6B1
:101F8000334B984205DDA0F50300A0F5564098427A
:101F9000F9DC1DF05BFF2F491EF060F82E491DF0A3
:101FA000A9FF1DF0F9FA2D4B00221DF04DFBD4E9DD
:101FB000D4231DF091F913F08BFE1DA3D3E9002368
:101FC0001DF042FB02460B46D4E9D201CDE90223C3
:101FD00017A3D3E900231DF037FB12ADCDE90001B3
:101FE00000220023284612F079FF14480EF082FBED
:101FF00010AC1B490D9406460EACD1E902010CA3AE
:10200000D3E900230C941DF01FFBCDE90A010896CB
:102010000DF1580CBCE80F006C460FC49CE80F0093
:1020200084E80F0095E80F0010F046F812E700BFB3
:10203000000000A046DF913FF88FFF1F9891FF1F1F
:10204000000070428C8702006890FF1FB890FF1F4D
:1020500000D6830000D6034B0000C04100002E4094
:102060005091FF1F9C8702006F480BF025FE20B0A7
:10207000BDE8F041FFF794B86B4812AB10AA0EA967
:102080000BF064FFFFF7A2F8F9E667480BF03CFE9F
:10209000EDE7654C0023204684F8ED340BF034FE68
:1020A00012AB10AA0EA920460BF050FFFFF778F8EC
:1020B000E5E65D4C94F83630012B25D0022BD6D1C5
:1020C000D4E9D00156A3D3E90023012504951DF0DE
:1020D000BBFACDE9020152A3D3E90023D4E9CE0132
:1020E0001DF0B2FA0023CDE90001002212A813F07E
:1020F00007F820460EF0FEFA12A9024620460BF021
:10210000CBFDFFF74DF8BAE672B6484B186862B6D9
:10211000474B984205DDA0F50300A0F556409842D4
:10212000F9DC1DF093FE43491DF098FF42491DF074
:10213000E1FE1DF031FA414B00221DF085FAD4E991
:10214000D4231DF0C9F813F0C3FD35A3D3E9002350
:102150001DF07AFA02460B46D4E9D201CDE90223FA
:102160002FA3D3E900231DF06FFA0022CDE900016F
:10217000002312A812F0B2FE2B480EF0BBFA304931
:1021800027A3D3E900230446D1E902011DF05CFA3C
:1021900006460F46224612A9CDE9006722480BF0F9
:1021A00057FDFEF7FDFF6AE61F4F1DA3D3E900238D
:1021B000D7E9D001012404941DF046FACDE90201CB
:1021C00017A3D3E90023D7E9CE011DF03DFA12AEE3
:1021D000CDE9000100220023304612F091FF38467D
:1021E0000EF088FA10AB0C930EAB0B930A9016AD61
:1021F0000FCD6C460FC40FCD0FC495E8030084E8E3
:10220000030096E80F000FF0CBFE0E4902460E4881
:102210001FF056FF022387F8363030E6AFF3008018
:10222000000000A046DF913F9891FF1FB890FF1F6C
:1022300000D6830000D6034B0000C04100002E40B2
:102240005091FF1F9C8702006890FF1F0E2009F02D
:102250000FF8044616F038F900250346601C63F3B6
:10226000070516F031F90346A01C63F30F2516F09D
:102270002BF90346E01C63F3174516F025F960F3CC
:102280001F6528461DF088F9434C02460B46122074
:10229000C4E9D42308F0ECFF064616F015F9002532
:1022A0000346701C63F3070516F00EF960F30F2563
:1022B000B01C16F009F90346F01C63F3174516F03D
:1022C00003F960F31F6528461DF066F9C4E9D201E1
:1022D00072B6324B186862B6314B984205DDA0F5F4
:1022E0000300A0F556409842F9DC1DF0AFFD2D49E2
:1022F0001DF0B4FE2C491DF0FDFD1DF04DF92B4BDA
:1023000000221DF0A1F9D4E9D4231CF0E5FF13F05D
:10231000DFFC1FA3D3E900231DF096F9CDE90201EC
:102320001BA3D3E90023D4E9D2011DF08DF912AF2C
:10233000CDE9000100220023384612F0CFFD1648F7
:102340000EF0D8F910AB0D9319490EAB0C938046E3
:102350000FA3D3E90023D1E902011DF075F9CDE9FE
:102360000A01CDF8208016AE0FCE6D460FC596E857
:102370000F0085E80F0097E80F000FF09DFE0D4954
:1023800002460D481FF09CFE012384F8363076E5A6
:10239000000000A046DF913F9891FF1FB890FF1FFB
:1023A00000D6830000D6034B0000C04100002E4041
:1023B0005091FF1F9C8702006890FF1F08B516F020
:1023C0004DF8BDE8084016F049B800BF2DE9F041CE
:1023D000594B93F8374088B054B9584B93F8A33011
:1023E0003F2B00F0938008B0BDE8F041FEF710BF2E
:1023F00000233A22CDE9002302930393049305932B
:102400000693ADF81C3017F0E5FC01E017F01AFD5B
:1024100017F004FD0028F9DC6F46384620F030F94B
:102420004749464D38441FF0F7FF46490222C61B74
:1024300016F092F895F8A330572B4ED83E2B12D8B1
:10244000213BDBB2172B09D83F49012202FA03F3E3
:102450001940B1B941F20942134250D1FEF7D8FEFA
:1024600008B0BDE8F0813F3B3849DBB2012202FAF7
:1024700003F3194029B9364C1C4040D1354A134268
:10248000ECD0711C384617F01DFC002617F0A2FC9A
:10249000142016F091FC304FB04608E00136322E81
:1024A00007F8010B14D087F80080002C3AD117F000
:1024B000B5FC00280CDD17F0C5FCC0B22328EDD117
:1024C0009CB3AB19312E06F1010283F8700022D1C2
:1024D000FEF774FE08B0BDE8F081633BDBB21B2B56
:1024E000BCD8012202FA03F349F241421A40C8D192
:1024F00013F0026F14D1194A1A40002AAED0711C91
:10250000384617F0DFFB17F065FCA7E708B0BDE819
:10251000F041FEF75BBE2A44002382F87030D7E713
:102520001446AEE731289BD0D2E72E4486F87000DF
:1025300086F8714094E700BF9891FF1FF88FFF1F46
:102540009A90FF1F808702000080FF0010040101A5
:1025500000011600014080006890FF1F100001007C
:1025600008B515F07BFFBDE8084015F077BF00BF48
:1025700070B5044682B0D0E9000113F0AFFB0B4DFB
:1025800095F84E600122C4E900010023214600961F
:10259000284613F02DFA284620F072F8044902224A
:1025A000284402B0BDE8704015F0D6BF6890FF1F08
:1025B00080870200FFFFFFFF2DE9F047924C94F85F
:1025C000A320A2F1280392B04C2B00F29980DFE8FF
:1025D00013F0EB00D9009700970097009700970041
:1025E0009700970097009700970097009700970033
:1025F0009700970097009700970097009700970023
:1026000097009700D90097004202EB0097009700CF
:10261000A00297009700970097004D009C009C0037
:102620009C0097009700EB00B102FB0197002F017F
:102630001202D8029700D9009700970097009700E0
:10264000970097004D009700C201B201A8019701C1
:10265000C601E90297009700970097007E02AD023D
:10266000F50197009700E0019700DD0216F0B0FA3F
:10267000664B67490446D86A1DF03CFC1DF016FE07
:102680000346DB17201A634C63EB4301C4E90401E2
:1026900010F026FC0646D4E9040110F0F5FB1DF00D
:1026A000D5FB5D491DF0DAFC054630461DF0CEFB3A
:1026B000014628461DF016FB0546D4E9040110F03A
:1026C000F9FB1DF0C3FB52491DF0C8FC29461DF063
:1026D00009FB1CF061FF514D02460B462146E1E922
:1026E00008230122284613F0E7F828461FF0C8FF08
:1026F0004B490222284412B0BDE8F04715F02CBF28
:1027000012B0BDE8F047FEF76FBDA2F14D05454F91
:1027100005EB45086FF0590608EBC808361B07F1B2
:102720000F094644BA4606EB0A0015F0CDFE0AF83A
:10273000010F002800F0BD82D145F4D13A49374855
:102740002A461FF0BDFC35481FF09AFF0E2817D807
:10275000324E002508F1150808EB0504204615F057
:10276000B3FE17F8019F814505F101054946204652
:1027700001D015F0C3FE30461FF082FF8542EBDD2D
:10278000264DB5E7294904A80BF08EFC94F8A33038
:10279000412B00F01D835A2B00F04083292B00F0C1
:1027A000638312B0BDE8F087184913A3D3E900236F
:1027B000D1E902011CF048FF0B4602461B4904A860
:1027C0000BF0FEFB94F8A330522B00F09882442BC0
:1027D00000F02F83282BE4D104A812F059FC08A3A1
:1027E000D3E900231CF030FF02460B4602A8CDE9D6
:1027F0000223FFF7BDFED4E7000000A046DF913FB3
:1028000000000020DCA54C40F88FFF1F5091FF1FF7
:1028100000006145B890FF1F000070426890FF1FE4
:10282000808702006790FF1FE08702009891FF1FDA
:1028300094F8A430423B2E2B3FF662AF01A252F82F
:1028400023F000BF8D2C000001270000732C000036
:1028500001270000012700000127000001270000D8
:1028600001270000012700000127000001270000C8
:10287000012700005F2C0000012700005B2C0000F6
:10288000012700000127000001270000492C00005B
:102890000127000001270000012700000127000098
:1028A0000127000001270000012700000127000088
:1028B0000127000001270000012700000127000078
:1028C00001270000C52B00000127000001270000A0
:1028D0000127000001270000012700000127000058
:1028E0000127000001270000012700000127000048
:1028F000012700000127000001270000B12B000084
:10290000B54BD3E9DC011DF097F904AB002200219F
:1029100015F0AEFF04A9B1481FF07EFDB0490222B8
:10292000E9E6B04BB049B3F91820AC4812B0BDE8A5
:10293000F0471FF0C5BB94F8A4304C2B00F01D826B
:10294000A64D94F8BE000090A84900220123284615
:1029500013F04EF8C9E6A14BA54A1A6021E794F896
:10296000A400A4499D4CA0F166000123B0FA80F0B8
:1029700040091A460090204613F03AF820461FF00E
:102980007FFE97490222204412B0BDE8F04715F0BF
:10299000E3BD94F8A4304C2B00F0EA818E49964BAD
:1029A0008E4D0022D1E9D4011CF078FF0F46064677
:1029B000CDE9046794F8BE2004A993E6864B8F49BD
:1029C000D3F82C218548B1E7834991F87A33002B5D
:1029D00000F06D8191F8B033002B40F068817CA34A
:1029E000D3E90023D1E9E0011CF02EFE1DF024F90B
:1029F000052204AB8BE7784EB47D022C00F0C28137
:102A000000F24881012C40F0C781744D28461FF028
:102A100037FE7B490222284415F09EFD96F87A3352
:102A20006E48002B00F04F811FF02AFE75490222EC
:102A3000284415F091FD68480DF04EFE002800F086
:102A40004A8166481FF01CFE6F490222284415F097
:102A500083FD62484AE616F0BBF8624B6B496C4D49
:102A60000446D86A1DF046FA1DF020FC0346DB1729
:102A7000201A63EB4301C5E9040110F05DFA044636
:102A8000D5E9040110F0EAF90646D5E9040110F091
:102A90003DFA0746D5E9040110F022FAD5E9040110
:102AA00010F0F2F9D5E9040110F004FA594A4B4844
:102AB00082FB0412E317C3EB6213642202FB13448C
:102AC000554900943B4632461FF0FAFA69E64248FF
:102AD000424D0DF00FFE514B1B682B801A0C012844
:102AE000AA7000F063810228B3D13B480DF016FEB6
:102AF000002840F0EC813B490023D1E9020100228B
:102B00001DF028F8002814BF5723452384F870309F
:102B10009FE7344BD86A1CF03FFD0B464049024604
:102B20002E4812B0BDE8F0471FF0CABA3D4A3E49F0
:102B30002A48FBE672B6364B186862B63B4B9842A1
:102B400005DDA0F50300A0F556409842F9DC1DF024
:102B50007DF937491DF082FA36491DF0CBF91CF09A
:102B60001BFD94F8A44002460B464C2CCDE90423EF
:102B700000F0F980194C012204A9204612F09CFEB5
:102B8000FCE612B0BDE8F04701F0CABB94F8A4001F
:102B90002949124CA0F16600B0FA80F040090022E9
:102BA0000123E7E60C4B2549D3F828210B48BDE665
:102BB000234A0A4B07CA03C31846094900F8012BE8
:102BC000022298E51F4905480122AFE6AFF30080D5
:102BD000000000E006154E409891FF1F6890FF1F0F
:102BE000808702005091FF1FC4870200E094FF1FFE
:102BF000323423006091FF1F00002E40F087020056
:102C00004888020050880200588802000000614590
:102C1000B890FF1F1F85EB51A0870200E8870200D4
:102C2000CC8702006A91FF1FEC87020000D6830068
:102C300000D6034B0000C0415891FF1FD887020007
:102C4000248802003C880200AB4AAC4B92E80300A7
:102C5000232283E803001A81A3E5A94AA9E7A94A28
:102C6000A64B92E80300022218601971581DA6496C
:102C700041E5A64AA14B07CA03C323F8022B184615
:102C8000140CA14900F8014B022234E5A0499B48ED
:102C9000DC224BE6033C012C7ED8984D28461FF0E1
:102CA000EFFC9C490222284415F056FCB6E60020B1
:102CB0009EE694F87030002B3FF440AD8F4D2846CF
:102CC0001FF0DEFC14E51FF0DBFC934902222844D0
:102CD00015F042FCAFE691480DF0F6FC002840F0FC
:102CE000948096F828338548002B00F086801FF0EA
:102CF000C7FC8B490222284415F02EFCA9E694F863
:102D0000A4304C2B00F0B48072B6864B186862B6C3
:102D1000854B984205DDA0F50300A0F5564098428A
:102D2000F9DC1DF093F88149744D1DF097F9804945
:102D30001DF0E0F81CF030FC69A3D3E900231CF07F
:102D400083FC02460B4604A812F0B6F966A3D3E949
:102D500000231CF079FC0F460646CDE9026794F883
:102D6000BE2002A9BEE4734964481FF0A9F918E522
:102D70006A4B7149D3E9D423D2E6684B6E49D3E953
:102D8000D223CDE65D4D28461FF07AFC6B492246E2
:102D9000284415F0E1FB41E6584D28461FF070FC31
:102DA00067490222284415F0D7FB37E65B480DF04F
:102DB000B5FC002840F0898062490023D1E9020176
:102DC00000221CF0C7FE002814BF452357239DE6B0
:102DD00004A812F04DFA46A3D3E900231CF034FCFA
:102DE000464D94F8BE400094CDE902010022012333
:102DF00002A9284612F0FCFD77E41FF041FC52497D
:102E00000222284415F0A8FB23E63C481FF038FCBA
:102E10004A490222284415F09FFB1AE604A812F042
:102E20002BFA33A3D3E900231CF00EFC12F070FF41
:102E3000DAE404A812F030F92DA3D3E900231CF042
:102E400003FC94F8A45002460B464C2DCDE9022316
:102E50003FD02A4D94F8BE000090002202A9012321
:102E6000284612F0C5FD40E404A812F0FDF9B6E4CE
:102E700072B62C4B186862B62B4B984205DDA0F554
:102E80000300A0F556409842F9DC1CF0DFFF27490B
:102E90001DF0E4F826491DF02DF81CF07DFB10A371
:102EA000D3E900231CF0D0FB02460B4604A812F025
:102EB00003F90FA3D3E900231CF0C6FB02460B461F
:102EC0000E4822491FF0FCF86BE445231EE6572309
:102ED0001CE6194909481FF0F3F862E4AFF30080DB
:102EE0000000004052C1D03F000000A0C88E0E403C
:102EF00000000020DCA54C40308802006890FF1FD5
:102F000018880200108802008087020004880200EE
:102F10003C88020040880200548802009891FF1FFC
:102F20005C880200B890FF1F00D6830000D6034BD8
:102F30000000C041F8870200B88702004488020000
:102F40004C8802005091FF1F60880200B087020089
:102F500008B515F083FABDE8084015F07FBA00BF48
:102F60002DE9F04F87B015F033FE002104460FF035
:102F7000E3FF0021064620460FF070FF00210546C2
:102F800020460FF0C3FF6B1E012B98BF06F1FF36E2
:102F90008046304698BF0C351CF058FFD64906468F
:102FA0001DF05CF819F022FAD449074630461DF0AE
:102FB00055F819F01BFAD249034630461E461CF05C
:102FC00099FF19F013FA814628461CF03FFF4FF095
:102FD0007E511CF087FECB491CF08CFF19F006FADD
:102FE000394605464FF080401CF07AFE31461CF011
:102FF00079FE1CF0D1FA064648460F461CF0CCFA82
:1030000002460B46304639461CF068F9064628460B
:103010000F461CF0C1FA02460B46304639461CF0FA
:103020005DF9064640460F461CF0A4FA02460B46E0
:10303000304639461CF052F999A3D3E900231CF01D
:103040004DF982468B46204600210FF049FF0021B2
:10305000064620460FF018FF1CF0F8FEAA491CF0A7
:10306000FDFF054630461CF0F1FE014628461CF0E7
:1030700039FE0021034620461C460FF01BFF1CF0C2
:10308000E5FEA2491CF0EAFF21461CF02BFE1CF0D5
:1030900083FA9F4BCDE900010022504659461CF0AF
:1030A0001DF919F0D5F880A3D3E9002304460D4695
:1030B0001CF05AFD58B37EA3D3E9002320462946CD
:1030C0001CF00AF97CA3D3E900231CF0E7FB1CF0F9
:1030D0006BFD1CF04FFA8F4B002206460F461CF08A
:1030E000B3FA19F0B5F802460B46204629461446B5
:1030F0001D460022884B1CF0F1F832463B461CF07E
:10310000EDF822462B461CF0E7F804460D466CA36A
:10311000D3E90023204629461CF0E0F86AA3D3E94E
:10312000002304460D461CF0D7F869A3D3E9002319
:103130001CF0B4FB19F08CF802460B46CDE90223D3
:1031400063A3D3E900231CF07FFA19F081F802464B
:103150000B46204629461CF0BFF85FA3D3E90023A5
:10316000804689461CF09AFB19F072F85AA3D3E9FD
:10317000002304460D461CF067FA19F069F8002296
:1031800006460F460023404649461CF0A7F8324643
:103190003B461CF0A1F819F05BF81CF005FD5F4BF5
:1031A00006460022204629461CF0C0FC002800F0FC
:1031B0001482594B2046002229461CF08DF81CF041
:1031C000F3FC044620461CF041FE554980461DF0A4
:1031D0004DF8002800F0F68141A3D3E90023DDE992
:1031E00002011CF079F81CF0DFFC0546631E012B80
:1031F00005D804F10C001CF029FE013D804628464C
:103200001CF024FE3C4904461CF028FF19F0EEF89F
:103210003A49074620461CF021FF19F0E7F83849E3
:10322000054620461CF066FE19F0E0F84FF07E518E
:10323000044640461CF056FD32491CF05BFE19F076
:10324000D5F8034659465046059327A3D3E90023F2
:103250001CF042F8334B804689460022DDE900012C
:103260001CF01CFB02460B46404649461CF036F853
:103270001FA3D3E9002382468B461CF00FFB0246B6
:103280000B464FF080403946CDE902231CF028FD63
:1032900029461CF027FD1CF07FF9804644E000BF62
:1032A00000000080A2423A41000000008C8A4141A7
:1032B00000000040D07D3C410000000088D5E14086
:1032C0000000000000D097400000006066865E406D
:1032D0000000000000D4764000000020A0993E408D
:1032E00000000000006CB240000000802CB442419D
:1032F00000000000A0D5E1400000C8420000C84323
:1033000000A0B64301CDF4410000704200006145C9
:103310000000E03F0000D03F0000F03F00002B40E5
:103320000000204000003840204689461CF034F957
:1033300002460B46404649461BF0D0FF044605981E
:103340000D461CF029F902460B46204629461BF083
:10335000C5FF044630460D461CF00CF902460B46EC
:10336000204629461BF0BAFFA1A3D3E900231BF096
:10337000B5FFA1A3D3E900231BF0AEFFA0A3D3E9BF
:1033800000231CF061F9A0A3D3E900231BF0A6FFE2
:10339000B74B0022804689461CF0DCFB78B1B44D67
:1033A000002422462B46404649461BF095FF224604
:1033B0002B46804689461CF0CDFB0028F1D1002227
:1033C0000023404649461CF0B1FB88B1A84F0026B7
:1033D000002400254046494632463B461BF07EFF0E
:1033E00022462B46804689461CF0A0FB0028F1D1DE
:1033F00087A3D3E90023DDE900011CF025F942464B
:103400004B461BF06BFFDDE9026783A3D3E9002382
:1034100004460D46304639461CF016F932463B4606
:103420001CF012F902460B46204629461BF056FFB7
:103430008F4B0022804689461CF08CFB78B18C4D66
:10344000002422462B46404649461BF045FF2246B3
:103450002B46804689461CF07DFB0028F1D10022D6
:103460000023404649461CF061FB88B1804F00268E
:103470000024002532463B46404649461BF02EFFBD
:1034800022462B46804689461CF050FB0028F1D18D
:1034900063A3D3E90023504659461CF0D5F80246F1
:1034A0000B4661A1D1E900011BF016FF60A3D3E92F
:1034B00000231CF0F3F918F0E1FB5FA3D3E900232C
:1034C00004460D46504659461CF0BEF85CA3D3E9AD
:1034D00000231BF003FF02460B461BF0FFFE54A324
:1034E000D3E900231CF0DAF918F0C8FB56A3D3E99E
:1034F000002306460F46504659461CF0A5F80246E2
:103500000B4653A1D1E900011BF0E6FE48A3D3E925
:1035100000231CF0C3F918F025FB4FA3D3E90023C7
:1035200082468B46204629461CF08EF84CA3D3E9F0
:10353000002304460D46304639461CF085F8024605
:103540000B46204629461BF0C7FE52465B461CF040
:103550007BF842464B461BF0C1FE454B002280469D
:1035600089461CF0F7FA78B1414D002422462B46DB
:10357000404649461BF0B0FE22462B46804689460F
:103580001CF0E8FA0028F1D1002200234046494609
:103590001CF0CCFA88B1364F0026002400253246B4
:1035A0003B46404649461BF099FE22462B46804644
:1035B00089461CF0BBFA0028F1D14046494607B0C5
:1035C000BDE8F08F28A3D3E90023DDE902011BF059
:1035D00083FE1CF0E9FA054608E6264B2046002249
:1035E00029461BF079FE1CF0DFFA0446EAE500BF2D
:1035F00000000080A2423A41000000802CB4424109
:10360000000000E05BD2B03F000000801CCA1A40FE
:10361000000000E0360BF03F000000605243FB3E2C
:1036200000000060C91CAB3F000000608F425F409B
:1036300000000020DCA54C40000000E0718AEF3F54
:103640000000002085877140000000A0F2D79A3E5C
:103650000000000076703740000000A0EEE734BFA5
:1036600000000080732AF93E00000000006BB240A9
:103670000000384000002A40704700BF224B93F8FA
:10368000380000B9704710B493F8842085B03AB977
:10369000002093F83C20EAB9002005B010BC704728
:1036A0001A48D3F8904002680092009A41F287319C
:1036B000121B8A42ECD893F87420002AE8D00268E2
:1036C00001920198D3F88020801A88428CBF002094
:1036D0000120DEE70D4C196F22680292029A521AFD
:1036E00041F287318A42D7D893F8B420002AD3D048
:1036F00022680392D3F8B820039B9B1A8B428CBF9D
:10370000002000F00100C8E79891FF1F749BFF1F85
:10371000124B93F884200AB90020704710B4104867
:10372000D3F89040026883B041F287310092009A4A
:10373000121B8A420DD893F8742052B1026801928C
:103740000198D3F88030C01A88428CBF0020012035
:1037500000E0002003B010BC704700BF9891FF1F2D
:10376000749BFF1F114B93F83C200AB9002070474F
:1037700010B40F481C6F026883B041F28731009289
:10378000009A121B8A420DD893F8B42052B10268F5
:103790000192D3F8B8300198C01A88428CBF00203B
:1037A000012000E0002003B010BC70479891FF1F7B
:1037B000749BFF1F154B93F8D4200AB90020704763
:1037C00000B5134AD3F8D800126883B041F28731AC
:1037D0000192019A121A8A4203D9002003B05DF8BF
:1037E00004FB0022D3F8DC0083F8D5201CF02EFB6C
:1037F00008491CF033FC4FF080411CF019FD0038E3
:1038000018BF012003B05DF804FB00BF9891FF1FB3
:10381000749BFF1F0000C8422DE9F0472F4F304D29
:103820003B6829688CB041F288320193019B5B1A96
:10383000934204D82B4B18780CB0BDE8F0872A4B84
:1038400003F1100C0FCB04AE86E80F009CE80F00CC
:1038500008AC84E80F00304612F0FCFA804630468F
:1038600012F008FB8246304612F016FB81462046D5
:1038700012F01EFB0646204612F026FB03462046A9
:103880001C4612F037FB08F14E08034602A88DF8DB
:1038900008308DF809408DF80DA08DF80C908DF84A
:1038A0000A608DF80E800FF05FFB044615F090F96A
:1038B0003A680292041B029A2A60002C0B4A0346C3
:1038C000B8BF6442042C1361064BCCBF002001201A
:1038D0000021516118700CB0BDE8F087749BFF1F88
:1038E0003891FF1F3C91FF1F0C92FF1FB890FF1FE4
:1038F0002DE9F04F094BDFF828B01B68DBF800100A
:103900009DB041F288320C930C9B5B1A93420BD80A
:10391000044B18781DB0BDE8F08F00BF749BFF1FEB
:103920004491FF1F4891FF1FD34BD44CD3F8BC5098
:10393000DFF84C93DFF84CA3DFF84C8303F13C0E27
:10394000BEE80F000DF1380CACE80F00BEE80F0028
:10395000ACE80F00BEE80F00ACE80F009EE80300E3
:103960008CE803000EA8D4E9046712F053FA02466B
:103970000B46304639461BF0B1FC12F0A9F921F094
:1039800000431946BAA3D3E900231BF05DFED9F822
:1039900000600AEBC606C6E900010EA8D4E902677A
:1039A00012F018FA02460B46304639461BF094FCDA
:1039B00021F00043D9F8007008971946ACA3D3E969
:1039C00000231BF041FE08EBC7030A460146C3E98A
:1039D0000012B4F91800CDE904121BF0CBFD024629
:1039E000284614460D461CF031FAA8491CF036FB57
:1039F0001BF0D2FD02460B46204629461BF06CFC0C
:103A000021F00043A2490A93FE0002463144C1E975
:103A10000023DAE900340B902146184600220023E7
:103A20000996CDE900011BF059FCDAE9026732463C
:103A30003B461BF053FCDAE90423CDE902231BF0DB
:103A40004DFC944B00221BF029FF04460D462246F4
:103A50002B46DDE900011BF03FFC02460B461BF044
:103A6000F3FD002200231BF039FC02460B463046D2
:103A7000394616461F4622462B461BF02DFC0246B1
:103A80000B461BF0E1FD32463B461BF027FC22466D
:103A900006460F462B46DDE902011BF01DFC0246DF
:103AA0000B461BF0D1FD32463B461BF017FC7A4B10
:103AB00000221BF0C9FD17F095FED8E90067CDE99B
:103AC000020100220023304639461BF007FCD8E9EA
:103AD000024522462B461BF001FCD8E90423CDE920
:103AE00000231BF0FBFB6B4B00221BF0D7FE804634
:103AF000894642464B46304639461BF0EDFB0246AE
:103B00000B461BF0A1FD002200231BF0E7FB024641
:103B10000B462046294614461D4642464B461BF09E
:103B2000DBFB02460B461BF08FFD22462B461BF0AB
:103B3000D5FB424604460D464B46DDE900011BF02D
:103B4000CBFB02460B461BF07FFD22462B461BF0AB
:103B5000C5FB4F4C504B00221BF076FD17F042FE88
:103B6000D4E90089CDE900010022002349464046FE
:103B70001BF0B4FBD4E9026732463B461BF0AEFBB8
:103B8000D4E9044502460B4620462946CDE90645C0
:103B90001BF0A4FB3F4B00221BF080FE04460D46A9
:103BA00022462B46494640461BF096FB02460B46F2
:103BB0001BF04AFD002200231BF090FB02460B463F
:103BC0003046394616461F4622462B461BF084FBDC
:103BD00002460B461BF038FD32463B461BF07EFB8F
:103BE000224606460F462B46DDE906011BF074FB14
:103BF00002460B461BF028FD32463B461BF06EFB8F
:103C0000254B00221BF020FD17F0ECFD099E0AEB6E
:103C100006030022D3E900678146204B8A46DDE98E
:103C200002011BF011FD00224FF0804304460D46B7
:103C30001BF090FF002800F09680224639462B4664
:103C400030461BF073FF154B041E4FF00002DDE9F8
:103C5000000118BF01241BF0F7FC00224FF0804345
:103C600006460F461BF076FF002878D018E000BF0C
:103C7000000000000020AC409891FF1F5091FF1FF2
:103C80004091FF1F2091FF1F0891FF1F0000C842B5
:103C9000F090FF1F000008400000E03F00001440CB
:103CA00032463B46DDE904011BF040FF304BB0F1EA
:103CB00000084FF000024846514618BF4FF0010877
:103CC0001BF0C2FC2B4B002206460F461BF042FFA6
:103CD000002841D0DDE9020100224FF080431BF0B3
:103CE00025FF0022051E4FF08043DDE9000118BFCB
:103CF00001251BF01BFF514600280CBF002505F0D5
:103D000001051C4B484600221BF010FF32460028DC
:103D10000CBF002505F001053B460B980A991BF0E6
:103D200005FF2C40089A144B08EA040400280CBF35
:103D3000002004F001001870022A02F101030F4A6A
:103D400008BF002313600E4B1B680D930D9BCBF82F
:103D500000301DB0BDE8F08F064F0026BAE7002600
:103D60004FF080479CE700244FF0804565E700BF97
:103D700000001440000034404891FF1F4091FF1F95
:103D8000749BFF1FFFFFFFFF2DE9F04F6A4EDFF826
:103D9000ACC106F174030FCB9BB00DF1100888E89D
:103DA0000F0006F184030FCB08AF06F13C0587E84E
:103DB0000F000FCD0CAC0FC40FCD0FC40FCD0FC42F
:103DC00095E803009CF8A330732B84E80300D6F831
:103DD000BC4006D0742B0ED0FDF71AFA1BB0BDE81C
:103DE000F08F96F83830002B40F0B280FDF7E6F9FE
:103DF0001BB0BDE8F08F96F83830002BF6D0FFF7F7
:103E000087FC0446FFF7AEFC002CEFD00028EDD075
:103E1000404612F01FF80446404612F02BF8814647
:103E2000404612F039F88046384612F041F806460E
:103E3000384612F049F80546384612F05BF803465A
:103E40008DF808303E4BDFF8FCA08DF80950D3E91F
:103E500004234E3402A8CAE90C238DF80E408DF8D5
:103E60000D908DF80C808DF80A600FF07DF80546F6
:103E70000C4614F0B3FE284621460FF0D3F9FFF7A5
:103E80006FF8314B04460D460022DAE90C011BF0B5
:103E900005FD02460B46204629461BF01DFA2B4B1A
:103EA000002204460D461BF055FE78B1274F002630
:103EB0002046294632463B461BF00EFA32463B4628
:103EC00004460D461BF046FE0028F1D100220023D7
:103ED000204629461BF02AFE98B1DFF870904FF07B
:103EE0000008002600272046294642464B461BF084
:103EF000F5F932463B4604460D461BF017FE0028F6
:103F0000F1D1124B0022204629461BF0C7FC08A322
:103F1000D3E900231BF098FB1BF046FE72B6CAF8EB
:103F2000000062B6FDF734F958E700BFAFF3008038
:103F300000000000C07A60419891FF1FF88FFF1FBA
:103F40005091FF1FB890FF1F00002E400000384026
:103F5000FFF7DEFB0546FFF705FC002D3FF446AFFB
:103F600000283FF443AF0CA811F034FF82460CA8A0
:103F70008B4611F04FFF064620460C461BF066FFAD
:103F8000CB491CF06BF8CB4B05462146304600224E
:103F90001BF0EAFD002840F0B681C74B30462146B1
:103FA00000221BF0C3FD002840F0AD8132463046B0
:103FB000C24E04F10044234621463478C6E9042366
:103FC0001BF03AFE04EB440404EBC40404F10E03BA
:103FD000C1B2814618460091019314F075FA009918
:103FE000814203D0019B184614F088FA04F10F03B4
:103FF000C9F3072118460091019314F065FA00995E
:10400000814203D0019B184614F078FA04F11003A2
:10401000C9F3074118460091019314F055FA00992D
:10402000814203D0019B184614F068FA11342046EF
:1040300014F04AFA4FEA1969814503D049462046EF
:1040400014F05CFA9E4B0022504659461BF06EFD60
:10405000002859D19B4B0022504659461BF084FD45
:10406000002851D13478C6E902AB594650461BF0BE
:10407000E3FD04EB440404EBC40404F10A0B5FFA0F
:1040800080FA8146584614F01FFA824503D0514603
:10409000584614F033FA04F10B0B584614F014FA96
:1040A000C9F3072A824503D05146584614F026FA30
:1040B00004F10C0B584614F007FAC9F3074A82457D
:1040C00003D05146584614F019FA0D34204614F026
:1040D000FBF94FEA1969814503D04946204614F09F
:1040E0000DFA6FA3D3E90023D6E902011BF0D6FB3A
:1040F00082468B4617F036FDC6E90C0150465946FC
:1041000017F0BCFDC6E90E0128461CF0CFF884B2BA
:1041100004F1C8039BB242F208018B4202B21DD8DF
:104120003578328305EB450505EBC50505F1120A27
:1041300050465FFA82F914F0C7F9814503D0494629
:10414000504614F0DBF91335284614F0BDF9240A63
:10415000844203D02146284614F0D0F907F028FE07
:1041600059480AF0E9FD594809F05EF8574809F046
:1041700057F8012007F0C8F8404611F06BFE0446DE
:10418000404611F077FE8246404611F085FE81469A
:10419000384611F08DFE8046384611F095FE0546F2
:1041A000384611F0A7FE03468DF80830D6E90423FF
:1041B0008DF80DA0DFF818A18DF809504E3402A833
:1041C000CAE90C238DF80E408DF80C908DF80A800A
:1041D0000EF0CAFE05460C4614F000FD28462146A6
:1041E0000FF020F8FEF7BCFE3A4B04460D460022C5
:1041F000DAE90C011BF052FB02460B462046294629
:104200001BF06AF8344B002204460D461BF0A2FC5A
:1042100078B1314F00262046294632463B461BF0F6
:104220005BF832463B4604460D461BF093FC0028E3
:10423000F1D100220023204629461BF077FC98B1DB
:10424000DFF894904FF0000800260027204629460A
:1042500042464B461BF042F832463B4604460D466A
:104260001BF064FC0028F1D11B4B0022204629469C
:104270001BF014FB0CA3D3E900231BF0E5F91BF0A2
:1042800093FC72B6CAF8000062B614481449154A85
:104290000023C0E90033C0E90233C0E9043323E05E
:1042A00000000020DCA54C4000000000C07A604106
:1042B0000000C84200807640008076C05091FF1F09
:1042C000008056C000805640C092FF1F9891FF1F8B
:1042D000B890FF1F00002E40000038400891FF1FDB
:1042E0002091FF1FF090FF1FC1E90033C1E90233A5
:1042F000C1E90433C2E90033C2E90233C2E904333D
:10430000FCF746FF6AE5014E9CE600BF5091FF1F97
:1043100008B514F0A3F8BDE8084014F09FB800BF3A
:104320002DE9F04F954C94F8A430413BB1B0312BBE
:104330003ED8DFE813F042003D003D0063009700E7
:104340003D003D003D002701DF013D003F027702B7
:104350003D00DF020F033D00BA033D004B043D006A
:104360003D003D003D003D003D003D003D003D0065
:104370003D003D003D003D003D003D003D003D0055
:104380003D003D003D003D003D003D0057043D0027
:104390003D003D003D003D00320094F8A530702BFB
:1043A00001F02181742B00F04D84672B00F03F84D5
:1043B00031B0BDE8F04FFCF717BF714890F82823E3
:1043C000002309930A930B930C930D930E93109370
:1043D00016932293002A40F0158494F8A530303BC0
:1043E000082B01F2B581DFE813F0FE041605140571
:1043F000120510050E050C050A05080594F8A530F0
:10440000423B152BD4D801A252F823F0D54E000020
:10441000B1430000B1430000B1430000B1430000CC
:10442000B1430000B1430000B1430000B1430000BC
:10443000B1430000B1430000B1430000B1430000AC
:10444000B1430000B54E0000B1430000994E00009A
:10445000B1430000B1430000B1430000B14300008C
:104460006D4E000094F8A530313B412BA0D801A23D
:1044700052F823F0DB500000DB500000B143000095
:10448000B1430000B1430000B1430000B14300005C
:10449000B1430000B1430000B1430000B14300004C
:1044A000B1430000B1430000B1430000B14300003C
:1044B000B143000073500000B1430000B14300005D
:1044C000DB4F0000B1430000B1430000B1430000E6
:1044D000B1430000B1430000B1430000B14300000C
:1044E000B1430000B1430000B1430000615300003C
:1044F00085530000B1430000DB4F0000B1430000D2
:10450000B1430000B1430000B1430000B1430000DB
:10451000B1430000B143000073500000B1430000FC
:10452000B1430000B1430000B1430000B1430000BB
:10453000B1430000B1430000B1430000B1430000AB
:10454000B1430000B1430000B1430000B14300009B
:10455000B1430000B1430000B1430000B14300008B
:10456000B1430000B1430000B1430000B14300007B
:10457000B1430000B14300006B530000F88FFF1FF0
:104580009891FF1FD84D28460CF0B4F83222202114
:104590000646D6481DF076FE95F8B03395F87A2396
:1045A000183302EB430295F87B3384F870203033E4
:1045B000CF4A84F871302B78D35C84F87230284667
:1045C0000CF08AF810B1482384F8733095F8E93379
:1045D00095F8A123303384F87430002A40F00E831C
:1045E00095F8B83313B1472384F87530BE4808F006
:1045F000E7FD002800F086872A2384F8763095F8B6
:104600000834022B00F0CC8795F80834FE2B00F01C
:10461000FF8795F80834FF2B00F0F28795F80834EF
:10462000012B00F0ED87022E95F8383400F0AC87AE
:10463000022B00F0758795F83834FE2B00F0AB871D
:1046400095F83834FF2B00F0D68795F83834012BD5
:1046500000F0D18795F8D93513B995F8613613B1C3
:10466000662384F8793095F8283395F87823303329
:1046700084F87B30AB7D3032012B84F87A2000F057
:104680005487022B00F0C187042B00F0F187032B25
:1046900014BF55234123012E84F87C3000F0D087CD
:1046A000022E00F0BA8795F83860FEF7E7FF002881
:1046B00040F07B8795F8682395F8361095F8EC3430
:1046C0004136303284F87E6084F87F2009B143F0AF
:1046D000040395F868240AB143F008034133232109
:1046E000002284F8803084F8811084F8822031B070
:1046F000BDE8F08F94F8A530423B2B2BF7D801A2F0
:1047000052F823F05751000021510000EF460000FD
:10471000EF460000EF460000EF460000EF460000C5
:10472000EF460000EF460000EF460000EF460000B5
:104730002B510000EF460000EF4600008B510000B7
:10474000EF460000EF4600006F510000635100008B
:10475000EF460000EF460000EF460000EF46000085
:10476000EF460000EF460000EF460000EF46000075
:10477000EF460000EF460000EF460000EF46000065
:10478000EF460000EF460000EF460000EF46000055
:10479000EF460000EF460000EF460000EF46000045
:1047A000EF460000EF460000EF460000EF46000035
:1047B0001951000094F8A530413B162B3FF6F8AD97
:1047C00001A252F823F000BF3F4F00003B4F000012
:1047D000374F0000154F0000CF4F0000B1430000DD
:1047E000B1430000C54F0000B1430000B1430000D9
:1047F000B1430000B1430000B1430000B1430000E9
:10480000BB4F0000B1430000B1430000B1430000C2
:10481000B14F0000B1430000F94E0000B143000069
:10482000ED4E000094F8A530423B2B2B3FF6C0AD77
:1048300001A252F823F000BFB151000097510000CF
:10484000B1430000B1430000B14300000953000030
:10485000B143000091520000B1430000B143000099
:10486000CD520000FF510000B1430000B1430000F1
:10487000B1430000B1430000EF52000019520000A4
:10488000B1430000B1430000B1430000B143000058
:10489000B1430000B1430000B1430000B143000048
:1048A000B1430000B1430000B1430000B143000038
:1048B000B1430000B1430000B3520000E5510000D5
:1048C000B1430000B1430000B1430000B143000018
:1048D000B1430000B1430000B1430000B143000008
:1048E000B1430000CB5100009891FF1F6890FF1F5B
:1048F0009488020094F8A530413B122B3FF6F7AEA6
:1049000001A252F823F000BF574E0000514E0000A4
:104910004B4E0000EF460000EF460000EF4600005F
:10492000EF460000EF460000434E0000EF46000057
:10493000EF460000EF460000EF460000EF460000A3
:10494000EF460000EF460000EF460000EF46000093
:10495000374E000094F8A530322B00F03A8626D866
:10496000312B7FF425AD72B6C34DD5F8E8051AF0AA
:1049700001FE05F5AA6555E902231AF08FFFCDE97E
:10498000220162B60123BD4D94F8BE001A4622A949
:104990000090284611F02CF828461DF071FEB84909
:1049A0000222284431B0BDE8F04F13F0D5BD333BAF
:1049B000012B3FF6FDACB34DB34FABA3D3E90023BE
:1049C000D5E902011AF040FE02460B4622A8A7F5DF
:1049D000D87109F0F5FAD5E90201A3A3D3E90023C0
:1049E0001AF032FE8046894610A8A7F5D87108F063
:1049F0002FFC10AD06970FCD6E460FC695E803004D
:104A000042464B4686E8030022A916A810F020FB78
:104A100016A810F0DFFC96A3D3E900231AF014FEC9
:104A2000CDE90E0116A810F0D1FC91A3D3E9002323
:104A30001AF00AFE89468046A7F5D870DDE90EAB6C
:104A4000CDE922890BF056FE0DA904910CA952461E
:104A50005B4602900391A7F5D870CDE9008909F073
:104A600065F80C98854D1AF085FDD7E9E6231AF014
:104A700015FFCDE90E010D981AF07CFDD7E9FA2358
:104A80001AF00CFF94F8A53094F8BE200092332B56
:104A90004FF00103CDE922011A460CBF0EA922A94D
:104AA000284610F0A5FF754877E794F8A520A2F1F5
:104AB0003003422B3FF67CAC01A151F823F000BF3C
:104AC0001B4E00001B4E00001B4E00001B4E000042
:104AD000B1430000B1430000B1430000B143000006
:104AE000B1430000B1430000B1430000B1430000F6
:104AF000B1430000B1430000B1430000B1430000E6
:104B0000B14300003754000023540000B1430000BB
:104B10001F540000B1430000B1430000B143000046
:104B2000B1430000B1430000B1430000B1430000B5
:104B3000B1430000B1430000B1430000B1430000A5
:104B4000B1430000B1430000B1430000B143000095
:104B5000B1430000B1430000B1430000B143000085
:104B6000FD530000B1430000B1430000B143000019
:104B7000B1430000B1430000B1430000B143000065
:104B8000B1430000B1430000B1430000B143000055
:104B9000E3530000D9530000CF530000B14300009D
:104BA0004F540000B1430000B1430000B143000086
:104BB000B1430000B1430000B1430000B143000025
:104BC000B1430000B1430000AF53000094F8A5309A
:104BD000303B032B3FF68BADDFE813F0940064000D
:104BE000EF00C80094F8A530413B032B3FF6E0AB43
:104BF000DFE813F052002F00F300ED00402384F8AB
:104C00007530F3E416AB22AA04930EAB10A90592FB
:104C100002930DAA0CAB0391019200930AAA0BAB6D
:104C200009A900F5A47012F0EBFCFFF7D6BB124BFC
:104C300093F815315BB1154B104A1B6813801B0CA0
:104C4000937054E50C4B93F81631002BF3D1104BB5
:104C5000F2E7094BD3F87C051BF028FB02460D490F
:104C6000AFE000BFAFF30080000000A046DF913F3F
:104C700000000020DCA54C409891FF1F6890FF1FAA
:104C8000808702005091FF1F4893FF1F8C8802000D
:104C9000908802003C880200AF4BD3F878051BF0E7
:104CA00005FBDBE713F094FFAC4D0021C5E90401DF
:104CB0000EF042F90446D5E904010EF0CFF806469D
:104CC000D5E904010EF022F90746D5E904010EF0FA
:104CD00007F9D5E904010EF0D7F8D5E904010EF083
:104CE000E9F89F4A9F4882FB0412E317C3EB621363
:104CF000642202FB13449C4900943B4632461DF05B
:104D0000DFF9F4E413F064FF944C0021C4E90401DA
:104D10000EF0E6F80646D4E904010EF0B5F81BF0F3
:104D200095F892491BF09AF9054630461BF08EF82B
:104D3000014628461AF0D6FF0546D4E904010EF0D4
:104D4000B9F81BF083F88A491BF088F929461AF054
:104D5000C9FF1AF021FC834D02460B462146E1E9CA
:104D600006232846012210F0A7FD15E6814B7D4C55
:104D7000D3E9020174A3D3E900231AF065FC0246CB
:104D80000B4622A8744909F01BF922A810F088F9F3
:104D90006FA3D3E900231AF057FC012206460F4601
:104DA000204616A9CDE9166710F086FD20461DF0B5
:104DB00067FC714902222044F4E513F009FF6F49B2
:104DC0000246684831B0BDE8F04F1DF079B9624B3A
:104DD000D3F8CC051BF06AFA40E75F4BD3F8C8055F
:104DE0001BF064FA3AE709981AF0D6FB02460B4624
:104DF0005C4863491DF064F979E42298F4E7169859
:104E0000F2E71098F0E70E98EEE70D98ECE70C98B3
:104E1000EAE70B98E8E70A98E6E74F4B514C03EBBB
:104E2000C203D3E990011AF007FF0222234611467C
:104E300013F01EFDBAE7412006F01AFA13F044FB06
:104E40000CE7504B50491A78BBE7504A5049B8E735
:104E5000504A4F49B5E74B4B3F4A187817210F236B
:104E600013FB00131A444A493E48ABE794F8A640A6
:104E7000002C7FF49DAA484D484AEB6839486421CC
:104E800001FB03F382FB0312DB174549C3EB22321C
:104E90001DF016F9EC602AE494F8A630313B052B9E
:104EA0003FF686AADFE813F04C0247024F023D02AC
:104EB0005902540294F8A630303B072B3FF678AAEB
:104EC000DFE813F011030A030003F602E402D20242
:104ED0001B03180394F8A630303B032B3FF668AA57
:104EE000DFE813F0150110010B0106012D4809F050
:104EF0005DFD2D49024664E717492C4B0022D1E99C
:104F00004E011AF0A1FB17F027FA1AF04DFE2649C0
:104F1000024656E72A2006F0ABF9054613F0D4FA0C
:104F20000446681C13F0D0FAE4B260F30F2416496B
:104F30000C4822B246E72820EDE72620EBE72420A4
:104F4000E9E700BFAFF30080000000A046DF913F1B
:104F5000000000A0C88E0E409891FF1FB890FF1F60
:104F60001F85EB516890FF1FA08702000000704270
:104F7000000061455091FF1F808702006C8802008D
:104F8000648802009091FF1F3C880200BE91FF1FC1
:104F9000EC870200AF91FF1FE88FFF1F8D512C6936
:104FA00084880200C092FF1F748802000000244021
:104FB000A94BAA49D3F8402103E7A74BA849D3F846
:104FC0002C21FEE6A44BA649D3F82821F9E6A548F2
:104FD00009F0EAFCA4490246F3E69F4E96F8EC3449
:104FE000002B00F04C83A14BD3E9020192A3D3E93B
:104FF00000231AF029FB22AD02460B462846314613
:1050000009F002F894F8A530522B40F04B8372B6A9
:10501000974B186862B6974B984205DDA0F50300E0
:10502000A0F556409842F9DC1AF010FF92491BF0A7
:1050300015F892491AF05EFF1AF0AEFA80A3D3E990
:1050400000231AF001FB02460B46284610F034F804
:105050007DA3D3E900231AF0F7FA894D94F8BE2016
:1050600006460F46284616A9CDE9166710F024FC1F
:1050700092E4794991F8EC3422A8002B00F00F83D8
:1050800009F032F822A810F0F7F871A3D3E9002351
:105090001AF0DAFA10F03CFE02460B4622A8CDE9DF
:1050A000102310F0E5F86AA3D3E900231AF0CCFA34
:1050B00094F8A530724D412BCDE9160100F005831F
:1050C000DDE9100110F00AFE94F8BE400094CDE92D
:1050D00010010122002310A95BE401230026002710
:1050E000CDE92267664D94F8BE001A4622A94FE426
:1050F000594B6449D3F8D42663E6574B6149D3F83A
:105100004C265EE6544B5F4993F8D02659E6524B45
:105110005C4993F8482654E64F4B93F86834ABB19A
:1051200031B0BDE8F04FFCF73BB894F8A630312B16
:1051300000F0D282322B7FF43BA9474B93F8B8237F
:10514000042A03D193F83834002BE9D131B0BDE8FB
:10515000F04FFCF73BB8404B93F97833022BF5D175
:10516000DEE73D4B93F87A33002BD9D1EEE73A4B8B
:1051700093F8B823032AD3D093F8B823042ACFD0C6
:1051800093F8B033002BCBD1E0E7334808F018F8A0
:105190000028C5D1DAE794F8A630522B00F0BC8283
:1051A000442B7FF405A9384B1B6838495A6908E637
:1051B00094F8A630522B00F0AD82442B7FF4F8A86F
:1051C000314B1B682F495A6AFBE594F8A630522BE5
:1051D00000F0A482442B7FF4EBA82B4B1B682B49D7
:1051E0005A7CEEE594F8A630522B00F09D82442BB9
:1051F0007FF4DEA8244B1B682449DA69E1E594F8C2
:10520000A630522B00F08C82442B7FF4D1A81E4B89
:105210001B681E495A7BD4E594F8A630522B00F047
:105220008782442B7FF4C4A8174B1B6817499A68E0
:10523000C7E500BFAFF30080000000A046DF913F4C
:105240000000004052C1D03F000000A0C88E0E40B8
:1052500000000020DCA54C409891FF1FF087020061
:10526000D8870200C092FF1F748802005091FF1F70
:10527000B890FF1F00D6830000D6034B0000C0414A
:105280006890FF1F3C8802002487FF1F6888020087
:1052900094F8A630442B00F02F82522B7FF488A87C
:1052A000A54B93F9D824012A00F04C820022A3498F
:1052B00087E594F8A630522B00F03882442B7FF417
:1052C00077A89F4B1B689F499A6A7AE594F8A630A5
:1052D000522B00F02782442B7FF46AA8984B1B685E
:1052E00093F92C20012A00F027820022B7E494F8D9
:1052F000A630522B00F01E82442B7FF459A8904B0D
:105300001B688E49DA7B5CE594F8A630522B00F0DE
:10531000FF81442B7FF44CA8894B1B688A491A688B
:105320004FE58A4B8A4953E902238A4831B0BDE8E8
:10533000F04F1CF0C5BE854B8549D3E90023F4E747
:10534000854B8349EFE7854B8149D3E90023ECE79F
:10535000834B7F49D3E90023E7E7824B7C49E2E7AF
:10536000754B764993F8ED242BE594F8A630522B33
:1053700000F0C081442B7FF41BA8714B5B686F4920
:105380005A7A1EE594F8A630522B00F0B181442BD6
:105390007FF40EA86A4B5968734B0022D1E90001D3
:1053A0001AF052F91AF028FC6749024609E56249E9
:1053B0005FA3D3E90023D1E9E0011AF045F91AF01F
:1053C000F3FBC0F51C52694962481032FAE45A4BAB
:1053D0006649D3F89423F4E4574B6449D3F89023F7
:1053E000EFE4554952A3D3E90023D1E9E2011AF0D1
:1053F0002BF91AF0D9FB5D490246E2E41A2005F0C8
:1054000037FF054613F060F80446681C13F05CF89B
:10541000E4B260F30F244B494E48A2B2D2E41C2000
:105420000AE5534B53E9020116F096FF1AF0BCFB54
:105430004E490246C5E44F4B464C53E902011AF06F
:10544000FBFB23460122022113F012FAAEE43A4993
:1054500037A3D3E90023D1E9E0011AF0F5F81AF0F7
:10546000A3FB42490246ACE472B6334C04F5D06368
:1054700053E902011AF098FBD4F87056401BC4F8A7
:10548000800662B63949D4F880269AE472B62A4C6E
:1054900004F5BE63D3E900011AF086FBD4F8E855A1
:1054A000401BC4F8F80562B63049D4F8F82588E402
:1054B00072B6314B53E9020162B61AF075FB2B4903
:1054C00002467EE472B62D4BD3E9000162B61AF0B3
:1054D0006BFB2649024674E472B6174BD3F870266C
:1054E00062B622496DE472B6134BD3F8E82562B672
:1054F0001E4966E4224B234915E71A4B2149D3E99B
:10550000002312E795F8B833032B00F0A98095F833
:10551000B833042B04BF2D2384F87630FFF76FB81F
:105520005E2384F87830FFF795B84523FFF7B3B8CA
:10553000000000000088C3409891FF1F68880200A7
:105540002487FF1F3C8802006C8802005898FF1FC8
:10555000648802006890FF1FD897FF1FC897FF1F3D
:105560002898FF1FA897FF1F000059407488020069
:10557000B897FF1FF895FF1F1898FF1F8897FF1F08
:105580003898FF1F7C880200FE2BC9D095F838346C
:10559000022B7FF455A85F2384F87830FFF75AB8C0
:1055A0003E2384F87730FFF73EB8FEF735F9002840
:1055B0005BD146F00206FEF79BF908B146F00806FB
:1055C000FEF7F8F800283FF475A846F01006FFF73C
:1055D00071B872B6644DD5F8700619F0CBFF05F5B9
:1055E000B465FFF7C8B9604B93F81431002B3FF452
:1055F0002EABFFF720BB622384F87830FFF72AB880
:10560000622384F87730FFF70EB84B23FFF743B8D7
:105610003C2384F87730FFF706B853480BF07EF848
:1056200048BB52490023D1E9020100221AF092FA44
:10563000002814BF5723452384F87D30FFF733B883
:1056400049480BF06BF8C0B948490023D1E9020181
:1056500000221AF07FFA002814BF45235723EBE7F6
:105660002B2384F87630FEF7CABF46F00606A2E781
:105670006B23FFF710B85723DEE74523DCE73B49F0
:1056800035A3D3E90023D1E9020119F0DDFF22ADF2
:1056900002460B462846314608F092FCB2E408F078
:1056A00003FDEFE428460FF0F7FC2DA3D3E9002318
:1056B00019F0CAFF94F8BE402D4D0094CDE91601B3
:1056C0000022012316A9FFF764B994F8BE00002256
:1056D00016A90123FFF75CB9234B93F8B823042ADA
:1056E0007FF434AD93F80834002B3FF42FAD17E569
:1056F000204B50E61F4B41E61B4B93F99824012A9F
:105700007FF4D4ADD3F89C0411F0A2FB0246CEE5A1
:10571000184B02E6174B54E5164B45E5154B5DE576
:10572000144B75E5134BDAE5124B64E5114BC9E5F3
:10573000104B7AE50F4BE3E5186B11F0B3FA024614
:10574000FFF78DBAD3F8DC0411F082FB0246AEE518
:10575000FBF74AFDFEF7CBBF000000A046DF913FFC
:1057600000000020DCA54C409891FF1F5091FF1FC6
:105770006890FF1F6087FF1F08B512F06FFEBDE83D
:10578000084012F06BBE00BF2DE9F043984C94F82E
:10579000A330313BCDB0462B00F2F180DFE813F0AF
:1057A000F400F400EF00EF00EF00EF00EF00EF0077
:1057B000EF00EF00EF00EF00EF00EF003A012202F0
:1057C0004302EF00EF00EF00EF007D02EF00EF007B
:1057D000EF00EF00EF00EF00EF00EF00EF00EC0054
:1057E000EF00EF00AC02EF004700EF00EF00EF002A
:1057F000EF00EF00EF00EF00EF00EF00EF00EF0031
:10580000EF00EF00EF00EF000F03EF001703EF00D2
:10581000EF00EF00EF00EF00EF006F03EF00EF008D
:10582000EF00EF007C03EF00EF00EF008503714D08
:1058300028460AF05FFF07460E2005F019FD804656
:1058400012F042FE002660F3070608F1010012F094
:105850003BFE60F30F2608F1020012F035FE60F304
:10586000174608F1030012F02FFE60F31F66304662
:1058700019F092FEC5E9D401122005F0F9FC80462A
:1058800012F022FE002660F3070608F1010012F074
:105890001BFE60F30F2608F1020012F015FE60F304
:1058A000174608F1030012F00FFE60F31F66304642
:1058B00019F072FEC5E9D20172B64F4B186862B694
:1058C0004E4B984205DDA0F50300A0F556409842E6
:1058D000F9DC1AF0BBFA4A491AF0C0FB49491AF040
:1058E00009FB19F059FE484B002219F0ADFED5E92D
:1058F000D42319F0F1FC10F0EBF93BA3D3E900231A
:1059000019F0A2FECDE9020137A3D3E90023D5E9BE
:10591000D20119F099FE3EAECDE90001002200232C
:1059200030460FF0DBFA39492FA3D3E90023D1E940
:10593000020119F089FECDE90C010A970DF5807E70
:10594000BEE80F00EC46ACE80F00BEE80F00ACE884
:105950000F009EE803008CE80300264896E80C0040
:1059600008F0FEFC0546002800F0A8823035002330
:1059700084F8705084F871304DB0BDE8F0834DB0BC
:10598000BDE8F043FBF744BC214F3EA938461CF06C
:1059900037F93E9BBB4206460D4600F0A782DFF872
:1059A0005480024621F00043D8E9F8011AF0BEF80D
:1059B000002840F0878298F8B033002B40F09282A4
:1059C00098F86833002B40F0958298F8B833002B94
:1059D00000F07C8298F8B833042B00F077826723BC
:1059E00027F8343CC8E700BF000000A046DF913F25
:1059F000F88FFF1F9891FF1FB890FF1F00D68300FC
:105A000000D6034B0000C04100002E405091FF1F04
:105A10009C90FF1F0025AC498DF83E5008221AA823
:105A20001CF0C8FCA9498DF8705009221DA81CF073
:105A3000C1FC94F8BE208DF87D501AA912A80FF071
:105A4000F9FD002800F0CA8094F8BE3001221DA99B
:105A500014A80FF02DFE002800F0C08072B69C4BF9
:105A6000186862B69B4B984205DDA0F50300A0F5CF
:105A700056409842F9DC1AF0E9F99749974E1AF026
:105A8000EDFA97491AF036FA19F086FD954B002287
:105A900019F0DAFD934B04460D460022DDE91201B0
:105AA00019F0D2FD02460B462046294619F014FC97
:105AB00010F00EF980A3D3E9002319F0C5FD7EA3F1
:105AC000D3E90023CDE90201DDE9140119F0BCFDA1
:105AD0000022CDE90001002326A80FF0FFF982493A
