:1000000000800020BD0100006198010019980100E6
:100010001998010019980100199801001998010018
:1000200019980100199801001998010061980100C0
:100030006198010019980100418D0100458D010072
:1000400061980100619801006198010061980100C8
:1000500061980100619801006198010061980100B8
:1000600061980100619801006198010061980100A8
:100070006198010061980100619801006198010098
:100080006198010061980100619801006198010088
:100090006198010061980100619801006198010078
:1000A0006198010061980100619801006198010068
:1000B0006198010061980100619801006198010058
:1000C0006198010061980100619801006198010048
:1000D0006198010061980100619801006198010038
:1000E0006198010061980100619801006198010028
:1000F0006198010029A901006198010069B201001D
:10010000619801007DB901006198010061980100CA
:1001100061980100619801006198010061980100F7
:1001200061980100619801006198010061980100E7
:1001300061980100619801006198010061980100D7
:1001400061980100619801006198010061980100C7
:100150002192010035920100499201005D92010057
:100160006198010079BC010061980100619801006B
:100170006198010061980100619801006198010097
:100180006198010061980100619801006198010087
:100190006198010061980100619801006198010077
:1001A0006198010061980100619801006198010067
:1001B000619801006198010061980100564B4CF272
:1001C000205210B51A804DF628121A8000BF00BFC9
:1001D00019F04AFB514B4FF010621A60504A9A6076
:1001E000504ADA60504A136813F4807304D14F49BF
:1001F0000B604FF4A85313604D4B1A78110703D5C9
:100200001A7842F008021A704A4B4B492A221A7097
:100210004A4A4B4B8B4204D252F8040F43F8040B6A
:10022000F8E7484B484900228B4202D243F8042B9E
:10023000FAE74649464A002352F8230041F82300D2
:1002400001336F2BF8D1434B434A802103F8011B44
:100250009342FBD1414B3D4A1A60414B8A221A70AE
:10026000A3F5805324225A70A0221A709A7992071B
:10027000FCD59A79D406FCD43A4A937903F00C035E
:10028000082B384BF9D103221A7140225A719A79FE
:100290009006FCD5334A9179324B4906FBD5324A58
:1002A000324911600221516020221A709A7902F0BD
:1002B0000C020C2AFAD12E4B2E4A1A602E4B2F4AD2
:1002C0001A6000225A60072243F8042C2C4AC3F813
:1002D0000C2D62B619F066FD144B1B68DA0705D5C4
:1002E000284819F04BFD284B284A1A60284B1B78E8
:1002F0005B0609D5244C254B22689A4204D121483B
:1003000019F03CFD0023236019F0B4FA21F064FCDD
:1003100019F0A6F9FEE700BF0E200540308004402A
:10032000823F04000100002B10D0034014D0034092
:1003300002D0074000E007403093FF1FE089020031
:100340002087FF1F3093FF1F94A0FF1F0082FF1F15
:100350000000000000E400E05FE400E008ED00E0E1
:100360000050064000400640448004400000030165
:1003700004800440C010050014E000E0FF76010096
:100380000000202089CF34661CE00340A5C3945AA6
:1003900000F00740FFFFFFFFFFFFFFFFFFFFFFFF32
:1003A000FFFFFFFFFFFFFFFFFFFFFFFFFFFFFFFF5D
:1003B000FFFFFFFFFFFFFFFFFFFFFFFFFFFFFFFF4D
:1003C000FFFFFFFFFFFFFFFFFFFFFFFFFFFFFFFF3D
:1003D000FFFFFFFFFFFFFFFFFFFFFFFFFFFFFFFF2D
:1003E000FFFFFFFFFFFFFFFFFFFFFFFFFFFFFFFF1D
:1003F000FFFFFFFFFFFFFFFFFFFFFFFFFFFFFFFF0D
:10040000FFFFFFFFFFFFFFFFFFFFFFFFDEF9FFFF23
:1004100010B5054C237833B9044B13B10448AFF33E
:1004200000800123237010BD3093FF1F00000000E7
:10043000DC890200084B10B51BB108490848AFF32E
:1004400000800848036803B910BD074B002BFBD0A0
:10045000BDE81040184700BF000000003493FF1FA4
:10046000DC8902003093FF1F0000000019F080BCFF
:1004700010B5044618F0B2FE204610BD10B582B08B
:10048000044619F0ABF88DF80600601C19F0A6F8C8
:100490008DF80700BDF9060002B010BD38B50C4656
:1004A000054619F09BF82070681C19F097F86070E9
:1004B000A81C19F093F8A070E81C19F08FF8E070F0
:1004C00038BD00BF2DE9F04791F8784082B02CB1DB
:1004D000D1E920670124C2E900671C70274C247809
:1004E000002C3ED0264C2478002C3AD191F878404C
:1004F000002C36D11C78002C33D0007C002830D161
:100500001C4692460D4672B6D1E9060120F0F0FD78
:100510002B69C01A286262B62B6A0193019B002BDB
:1005200029DD019820F0CEFA8046A86E894620F099
:10053000C9FAD5E9182320F02BFB0022114B0646FF
:100540000F4620F0ABFD08B90E4F002632463B4661
:100550004046494620F08EFD30B172B6002323702C
:1005600062B602B0BDE8F08772B6D5E91223CAE9D7
:10057000002362B6F5E701984042D3E7D899FF1F00
:100580007095FF1F0000F03F0A4B1B782BB1037CD6
:10059000022B03D0037CFE2B00D07047037C022B80
:1005A00005D0037CFE2BF8D1FF2303747047012391
:1005B0000374F6E78C97FF1F024B1878003018BFC2
:1005C000012070470C94FF1F014B31221A807047A5
:1005D0008C9CFF1F0B4B1B7810B573B10A4C7F220C
:1005E000002322706370084822F0CAFA02222044D5
:1005F0000649BDE8104019F03BB8034C03F0FF0278
:100600002270F0E77095FF1F8C9CFF1F787C020022
:10061000F8B572B61F4A204B10691D6962B620F00A
:1006200051FA1E4BD3E9042320F0DCFB1C4BDC69A0
:1006300074B15A7A064632BB0F46D3E900233046DE
:10064000394620F0A5FA20F053FD72B6E06062B69C
:10065000284620F037FA134BD3E9042320F0C2FBDD
:10066000114BDC6974B15A7A06467AB90F46D3E960
:1006700000233046394620F08BFA20F039FD72B65F
:10068000E06062B6F8BD01F10047D6E701F100472E
:10069000EDE700BFD894FF1F6893FF1F1897FF1F57
:1006A000F09BFF1F309CFF1F109CFF1F3E4A70B540
:1006B00002233E4D13602A78002A43D03C4E00238B
:1006C000337072B63B4CD4E9060120F011FD23696A
:1006D000C01A206262B6236A002B3BD0236A364AD6
:1006E0003449D27B002BD4BF0023012384F8283067
:1006F000002A34D091F82830002B34D02F4B01221F
:100700001A602F4B1A78012A4BD01A78023A18BF78
:10071000012294F82810274B00292FD0D86FD3F846
:100720008810884200DA12BBD4F88830E3670023CF
:1007300084F8783023690133236101233370002367
:100740002B7070BD1A4A12780AB11E4A1360012339
:100750002B7070BD94F87830002BBFD1EFE791F883
:100760002830002BCAD0184B01221A60C9E7DA6F73
:1007700001210A44DA6783F87810DEE7D96F00298F
:1007800007DD32B1DA6F0121013ADA6783F87810B8
:10079000D3E70023E36784F878302369013B2361C2
:1007A000CBE70022B5E700BF88F00F402487FF1F8A
:1007B000B194FF1FD894FF1F9897FF1FC4F00F40FC
:1007C0000C94FF1F84F00F40C8F00F4010B4064B8C
:1007D000064A1878C8246F21002304FB001019462C
:1007E00010BC137018F014BF9C95FF1FB894FF1F26
:1007F00060492DE9F0470D78002D6DD05E4E5F4CBD
:100800005F49DFF88CA196F800E0267809789AF81D
:100810000040BEF1000F08BF002E0CBF4FF0010ECC
:100820004FF0000EC9B2002C52D18E4554D91E464D
:1008300017460446194610460023002220F010FCFB
:10084000002840F081809AF80030042B04D04D4BF2
:100850004D4A197811701870237C5BB2002B3DDD76
:10086000D4E90289002200234046494620F016FCC4
:100870004FF00105002840D0EDB2237C73B1002376
:1008800038463146002220F013FC4FF0010300B936
:10089000034683F00103DBB29D424CD0384631461B
:1008A0000022002320F004FC002852D038463146B4
:1008B00042464B4620F0D4FB08B304238AF80030AC
:1008C00002232374314A002313702360BDE8F087AC
:1008D0009AF80040042CA8D0BDE8F087237C1B06C2
:1008E000D4E90289C9D5002200234046494620F0B8
:1008F000CBFB4FF001050028BED10546BCE73546CD
:100900003A462B46C4E9022372B6216AD4E902238F
:10091000D1E9000120F03CF9C4E9060162B60425E2
:1009200038463146002200238AF8005020F0C0FBF0
:100930000028C5D11AE000224FF0804340464946C6
:1009400020F0B6FB0028A9D02046BDE8F047FFF70D
:100950001BBE06F100453846294642464B4620F06C
:100960007FFB0028CCD004238AF80030FE232374B8
:10097000A8E700BF8C97FF1F7897FF1F8094FF1F89
:100980007095FF1FD899FF1FB994FF1FF487FF1FB1
:100990000C94FF1F3F4A70B520233F4D13602A7807
:1009A000002A44D03D4E0023337072B63C4CD4E94B
:1009B000060120F09DFB2369C01A206262B6236AFB
:1009C000002B3CD0236A374A3549D27B002BD4BF59
:1009D0000023012384F82830002A35D091F82830EC
:1009E000002B35D0304B4FF400521A602F4B1A7841
:1009F000012A4CD01A78023A18BF012294F8281024
:100A0000274B002930D0D86FD3F88810884200DAFD
:100A10001ABBD4F88830E367002384F87830236960
:100A2000013323610123337000232B7070BD1B4AF7
:100A300012780AB11E4A136001232B7070BD94F81E
:100A40007830002BBED1EFE791F82830002BC9D0C9
:100A5000184B4FF400521A60C8E7DA6F01210A44BC
:100A6000DA6783F87810DDE7D96F002907DD32B146
:100A7000DA6F0121013ADA6783F87810D2E70023B0
:100A8000E36784F878302369013B2361CAE70022D9
:100A9000B4E700BFC8F00F404887FF1F0C9DFF1F41
:100AA0006893FF1FD897FF1F04F00F400C94FF1F9F
:100AB000C4F00F4008F00F4030B583B0CCB2ADF8B1
:100AC0000610054618F08AFD844203D021462846C8
:100AD00018F09EFD0135284618F080FD9DF807406E
:100AE000844203D02146284618F092FD03B030BD61
:100AF00030B583B0CCB2ADF80610054618F06EFDE7
:100B0000844203D02146284618F082FD013528464C
:100B100018F064FD9DF80740844203D02146284622
:100B200018F076FD03B030BDF8B50D460E780446DA
:100B300018F054FD864203D03146204618F068FD77
:100B4000661C304618F04AFD6F78874203D039465C
:100B5000304618F05DFDA61C304618F03FFDAF781A
:100B6000874203D03946304618F052FD0334204600
:100B700018F034FDED78854205D029462046BDE8C1
:100B8000F84018F045BDF8BD10B5494C494994F9F5
:100B90002C30013BDAB20020032A087006D84649FF
:100BA000606951F82220904228BF1046032B10D8CC
:100BB000DFE803F0740266581FF074FF3AA3D3E92C
:100BC000002320F00FF920F0BBFA81B2606B17F020
:100BD000E5FB3A4C94F92C30013BDAB2032A0CD8ED
:100BE0003549606951F82220904228BF1046032BF6
:100BF00059D8DFE803F0312213040020F7E71FF093
:100C000051FF29A3D3E9002320F0ECF820F098FA53
:100C100081B2E06BBDE8104017F0A0B81FF042FFB2
:100C200021A3D3E9002320F0DDF820F089FA81B276
:100C3000A06BBDE8104016F087BF1FF033FF1AA36A
:100C4000D3E9002320F0CEF820F07AFA81B2606B6D
:100C5000BDE8104017F0A2BB0146206BBDE8104074
:100C600015F082BF1FF01EFF0FA3D3E9002320F071
:100C7000B9F820F065FA81B2E06B17F06FF8A8E7D9
:100C80001FF010FF08A3D3E9002320F0ABF820F0F9
:100C900057FA81B2A06B16F057FF9AE70146206B16
:100CA00015F062FF95E710BDCD3B7F669EA0F63F35
:100CB0009897FF1F0D94FF1F687C0200D897FF1FB5
:100CC00010B54B4C4B4994F92C30013BDAB2012062
:100CD000032A08702DD84849E06951F82220904233
:100CE00028BF1046032B10D8DFE803F07602685ABD
:100CF0001FF0D8FE3CA3D3E9002320F073F820F0C6
:100D00001FFA81B2606B17F049FB3C4C94F92C3010
:100D1000013BDAB2032A0ED83749E06951F82220A4
:100D2000904228BF1046032B5BD8DFE803F0332442
:100D300015060020D6E70020F5E71FF0B3FE2AA332
:100D4000D3E9002320F04EF820F0FAF981B2E06BED
:100D5000BDE8104017F002B81FF0A4FE22A3D3E9AB
:100D6000002320F03FF820F0EBF981B2A06BBDE842
:100D7000104016F0E9BE1FF095FE1BA3D3E9002337
:100D800020F030F820F0DCF981B2606BBDE8104053
:100D900017F004BB0146206BBDE8104015F0E4BE1F
:100DA0001FF080FE10A3D3E9002320F01BF820F0F1
:100DB000C7F981B2E06B16F0D1FFA6E71FF072FE13
:100DC00009A3D3E9002320F00DF820F0B9F981B28E
:100DD000A06B16F0B9FE98E70146206B15F0C4FE33
:100DE00093E710BDAFF30080CD3B7F669EA0F63F3A
:100DF0009897FF1F0D94FF1F687C0200D897FF1F74
:100E00002DE9F0434C4A4D4E4D4D83B00021012356
:100E10000A20117033702B7019F07AF9494B1C7845
:100E200004EB840404EB8404E40004F1650018F08E
:100E3000D5FB8DF8040004F1660018F0CFFB8DF8A7
:100E4000050004F1670018F0C9FB8DF8060004F1F5
:100E5000680018F0C3FB8DF8070004F1690018F072
:100E6000BDFB019F8DF8040004F16A0018F0B6FB89
:100E70008DF8050004F16B0018F0B0FB8DF806004A
:100E800004F16C0018F0AAFB2F4B8DF80700587B7B
:100E9000019C1FF007FE02460B4600204FF08041E8
:100EA0001CF0DCF88046894638461FF00BFE4246AF
:100EB0004B461FF06DFE20F01BF9244B0746587B74
:100EC0001FF0F0FD02460B4600204FF080411CF061
:100ED000C5F88046894620461FF0F4FD42464B4641
:100EE0001FF056FE20F004F9044672B638467761CA
:100EF0006C6137612C611FF0E5FDC6E906012046F3
:100F00001FF0E0FDC5E9060162B6114A114B1178E8
:100F10001B78114A01290CBF02210021117043B92D
:100F20000E4B1B780BB9FFF7CBFE012003B0BDE8D9
:100F3000F083FFF76DFBF3E7F487FF1FD894FF1FE3
:100F40006893FF1F9C95FF1F9897FF1FD897FF1F5F
:100F50008187FF1F0A94FF1FA89BFF1F0D94FF1F8F
:100F60002DE9F04FD1E910678BB0CDE904670C464D
:100F700091F87810149D21B91F46037C0646002B7A
:100F800039D1B14B1B78D5E90001002B00F04C8121
:100F9000D4E916231FF04AFC024621F00043CDE9B4
:100FA0000623DDE90667002200233046394620F09B
:100FB00057F8002840F06C8132463B46D4E90E01D8
:100FC0001FF010FF06460F4602460B46DDE91801EA
:100FD00020F06EF8002800F02E8132463B46DDE915
:100FE000160120F051F8002800F02281C4E91467AE
:100FF0000BB0BDE8F08FD0E9028992464046DDE9AA
:101000000423494620F036F8002840F027818F4B12
:101010001B78002B40F0B781337CDFF83CB2190617
:101020004CBF8B4B8B4B0022CBE90023337CFF2B37
:1010300000F03581337C012B00F03181D4E90223AB
:10104000104619461FF0F2FBDBE900897CA3D3E9C7
:1010500000231FF09DFD42464B461FF099FDD5E948
:101060000089DAE900231FF0BDFE42464B461FF01F
:10107000DDFBC5E90001D5E90001002200231FF0D6
:10108000F9FF002840F08781DDE90401D5E900235C
:1010900020F004F8002800F0748104ABD3E90023A9
:1010A000C5E90023337C5BB2002B40F3BB81D6E95A
:1010B0000289D5E9000142464B461FF0F9FF08B905
:1010C000D5E90089C5E90089337CFF2B03D0337C47
:1010D000012B7FF456AFD5E90023CDE90823DDE9E4
:1010E0000801002200231FF0E3FF002800F00C811C
:1010F000DDE90823DDE904011FF0BCFF002800F052
:10110000098172B6D4E906011FF0F2FF2369C01A03
:10111000206262B6D4E91423D4E91C011FF062FEF8
:1011200002460B461FF034FDD4E902AB80468946E7
:1011300052465B46504659461FF078FB0B46024626
:10114000494640461FF04EFE1FF0D2FF236A002B97
:101150008046C0F2138172B6206940441FF0B2FC91
:10116000C4E90601C4F8208062B6236A0293029B98
:101170000298002BD8BF40421FF0A4FC8046A06E0E
:1011800089461FF09FFCD4E918231FF001FD0022BF
:10119000304B82468B461FF081FF002800F0F6801E
:1011A00052465B46404649461FF064FF00283FF424
:1011B000E8AE0021002200233174C5E9002372B695
:1011C000D7E906011FF094FF3B69C01A386262B686
:1011D0003B6A0193019B0198002BD8BF40421FF04E
:1011E00071FC8046B86E89461FF06CFCD7E9182365
:1011F0001FF0CEFC0022174B06460F461FF04EFF95
:10120000002800F01D8132463B46404649461FF00B
:1012100031FF00283FF4B5AE0C4B1B78002B7FF458
:10122000B0AEFFF74DFDACE6024621F00043B6E656
:10123000DDE91667DAE6DDE91867CEE6AFF3008090
:1012400000000040E17A843FD899FF1F0D94FF1FF2
:101250000000F0BF0000F03F809CFF1FD5E9002395
:10126000104623F00041DDE904231FF003FF0028AE
:101270003FF4CDAE337C5BB2002B3FF723AF337C22
:10128000180600F1C9804FF000084FF0000919E777
:10129000DDE91823C4E914230BB0BDE8F08FD4E9CD
:1012A0000223104619461FF0C1FADBE9008966A344
:1012B000D3E900231FF06CFC42464B461FF068FC4C
:1012C000DAE900231FF08EFDD5E9008902460B46BE
:1012D000404649461FF0A8FAC5E900010022DBE9B3
:1012E00000015B4B1FF0BCFE002872D0D5E9000165
:1012F000DDE904231FF0D2FE00287ED104ABD3E940
:101300000023C5E90023B6E6DDE90801024601F144
:101310000043EFE672B6D4E906011FF0E9FE236947
:10132000C01A206262B6D4E91423D4E91C011FF06C
:1013300059FD02460B46D4E902AB1FF029FC524688
:10134000804689465B46504659461FF06FFA0B4669
:101350000246494640461FF045FD1FF0C9FE236A7C
:101360000393039B002B039BD8BF5B4298428046AC
:10137000BFF6FBAE236A002BBFF6EDAEC8F1000846
:10138000E9E62B468AE6FFF7FFFB45E64FF0000A49
:10139000DFF8BCB004E7DDE9042303F1004990461F
:1013A00010464946D5E900231FF064FE10B3C5E995
:1013B0000089337C5BB2002B21DDD6E90289D5E9B7
:1013C000000142464B461FF05FFE00287FF47AAED4
:1013D00076E6DDE9042303F10049904610464946CC
:1013E000D5E900231FF064FE08B1D5E90089C5E9FD
:1013F000008940E6D5E90089D9E72B467FE7337CB1
:101400001A064FF000084FF00009D8D5F368D6F857
:10141000088003F10049D2E7414609F100438846BC
:1014200099464FE6337C1B064FF000084FF0000949
:101430007FF53FAEF368D6F8088003F1004938E63F
:101440000026034FDFE600BF00000040E17A843F42
:101450000000F03F584A59491368F0B50133136052
:101460000B788BB0002B69D05549564C564B5748DA
:10147000D1E914670AAA62E90267FFF723F8DDE9F8
:101480000801D4E900231FF0EBFD08BB0022504BFC
:10149000DDE908011FF07CFB1FF072FE002105460C
:1014A00020F074F980B94B49284620F083F958B9E7
:1014B000494928461FF0C2FF4FF07C511FF0B4FE8F
:1014C00020F0BEF923286BD8DDE90823C4E9002306
:1014D0004249434C434B4448D1E914670AAA62E9A4
:1014E0000467FEF7EFFFDDE90601D4E900231FF0F2
:1014F000B7FD08BB0022364BDDE906011FF048FBB3
:101500001FF03EFE0021054620F040F980B9314928
:10151000284620F04FF958B92F4928461FF08EFF72
:101520004FF07C511FF080FE20F08AF923283DD82F
:10153000DDE90623C4E900230BB0F0BD2B4A2C499A
:101540002C4B0091D2E90001D3E900231F4C264D1A
:10155000CDE90401CDE902232046204B264A184953
:10156000FFF7FEFC254A2649264B0091D2E90001EF
:10157000D3E90023CDE90401CDE902232846104B2D
:10158000214A1649FFF7ECFC237C002B7FF46CAF5B
:101590002B7C5BB2002B7FF467AF1C4A137063E7B0
:1015A0001B4B1B68002B8FD018608DE7194B1B68F5
:1015B000002BBDD01860BBE71096FF1F7095FF1F72
:1015C000D894FF1FB09BFF1F0994FF1F1894FF1FA3
:1015D0000000E03FABAAAA4C000040426893FF1F06
:1015E000B89BFF1F7194FF1F8894FF1FD087FF1FB8
:1015F000C894FF1F4087FF1F3897FF1FD887FF1F22
:10160000F89CFF1FC087FF1F509CFF1F0C94FF1FFB
:101610005893FF1F6093FF1FF8B57B4CE369002BC5
:1016200000F0BE801A7C012A4BD972B6D86862B627
:101630001FF048FAD4E900231FF0D4FB627A034676
:101640000AB101F10041714A714D1846D2E90423F3
:101650001FF09EFA1FF04CFDEB690446002B00F0D2
:10166000A1801A7C012A63D972B6D86862B61FF0CD
:1016700029FAD5E900231FF0B5FB6A7A03460AB1BF
:1016800001F10041634A1846D2E904231FF080FAB1
:101690001FF02EFD064672B65F4F604D7C612046FE
:1016A0006E613C612E611FF00DFAC7E906013046FC
:1016B0001FF008FAC5E9060162B6594B00221A70FC
:1016C000F8BD72B61A68586811780578587A1A7A8F
:1016D000054201EA02016FD09A7A02F0030209B1D1
:1016E00042F0040242F008029110013A99720D2A68
:1016F0009CD801A151F822F001180000F917000050
:10170000F1170000F91700002D160000E91700007E
:101710000118000001180000E91700002D16000054
:10172000F9170000F1170000F91700000118000078
:1017300072B61A68586811780678587A1A7A06428A
:1017400001EA020130D09A7A02F0030209B142F0B4
:10175000040242F008029110013A99720D2A84D8CD
:1017600001A151F822F000BFE1170000D9170000D5
:10177000D1170000D91700006B160000C917000030
:10178000E1170000E1170000C91700006B16000008
:10179000D9170000D1170000D9170000E117000089
:1017A000194650E719466DE79A7A02F003020029BC
:1017B000D1D042F00402CEE79A7A02F00302002967
:1017C00092D042F004028FE7D8680238D8604DE723
:1017D000D8680230D86049E7D8680138D86045E752
:1017E000D8680130D86041E7D8680238D8601EE771
:1017F000D8680230D8601AE7D8680138D86016E790
:10180000D8680130D86012E7F09BFF1F1897FF1FC0
:10181000109CFF1F309CFF1FD894FF1F6893FF1F71
:10182000F487FF1F30B583B005469DF8181000916E
:1018300017F072FD0446284617F01AFD204403B045
:1018400030BD00BFFFFFFFFF2DE9F04F8FB00EAF9F
:10185000DDE91C451A9E07F8086DC0E90A45189E87
:1018600003904E318DF835203846199A8DF8312085
:101870008DF834308DF836108DF8326015F004F89C
:10188000D94904461E981FF0D9FD1FF0B3FF044448
:10189000204618F073FA204615F026F918F068FA79
:1018A000044614F0E1FF0646204614F0CFFF05463B
:1018B000204614F0BDFF6B1E012B98BF06F1FF36CA
:1018C0008246304698BF0C351FF064FDC7498346F9
:1018D0001FF068FE1FF008F91BF0E6F98046894604
:1018E0005846C3491FF05EFE1FF0FEF81BF0DCF9FE
:1018F00006460F465846BF491FF0A0FD1FF0F4F8FA
:101900001BF0D2F9CDE9000128461FF043FD4FF04E
:101910007E511FF08BFCB8491FF090FD1FF0E4F8DA
:101920001BF0C2F94246CDE904014B4600204FF0BE
:1019300080411EF079FF32463B461EF077FFDDE91D
:1019400000231EF073FFDDE904231EF06FFF06463F
:1019500050460F461FF0B6F802460B463046394651
:101960001EF064FF8CA3D3E900231EF05FFF8246C4
:1019700020468B4614F032FF0646204614F03CFF0A
:101980001FF008FD9D491FF00DFE054630461FF073
:1019900001FD014628461FF049FC0546204614F08B
:1019A00039FF1FF0F7FC90491FF0FCFD29461FF09E
:1019B0003DFC1FF099F80022CDE90001904B504604
:1019C00059461EF033FF1BF06FF975A3D3E90023CE
:1019D00004460D461FF06CFB68B373A3D3E90023E4
:1019E000204629461EF020FF71A3D3E900231FF0F3
:1019F000F9F91FF07DFB1FF065F8002206460F463F
:101A0000804B204629461EF011FF32463B461EF011
:101A10000DFF002204460D467B4B304639461FF031
:101A2000B7F81BF041F902460B46204629461EF046
:101A3000FBFE04460D46204629465FA3D3E900235A
:101A40001EF0F4FE5EA3D3E9002304460D461EF00B
:101A5000EBFE5DA3D3E900231FF0C4F91BF024F9CA
:101A600059A3D3E90023CDE904011FF091F81BF03D
:101A70001BF902460B46204629461EF0D5FE54A30C
:101A8000D3E90023804689461FF0ACF91BF00CF91E
:101A90004FA3D3E9002304460D461FF079F81BF04D
:101AA00003F9002206460F460023404649461EF031
:101AB000BDFE32463B461EF0B7FE1BF0F5F81FF0A8
:101AC00017FB00220646514B204629461FF0D2FA4A
:101AD000002800F0608200224A4B204629461EF072
:101AE000A3FE1BF0E1F81FF003FB044620461FF0A5
:101AF00051FC474905461FF05DFE002840F0578223
:101B000035A3D3E90023DDE904011EF08DFE1BF0AF
:101B1000CBF81FF0EDFA0746631E012B05D804F140
:101B20000C001FF037FC013F054638461FF032FC21
:101B30002E4904461FF036FD1EF0D6FF1BF0B4F808
:101B4000CDE9040120462A491FF02CFD1EF0CCFFF0
:101B50001BF0AAF8CDE90601204626491FF06EFCCD
:101B60001EF0C2FF1BF0A0F8CDE9080128464FF097
:101B70007E511FF05BFB20491FF060FC1EF0B4FF9C
:101B80001BF092F816A3D3E90023CDE90A015046D1
:101B900059463FE0AFF3008000000080A2423A4186
:101BA000000000008C8A414100000040D07D3C4193
:101BB0000000000088D5E1400000000000D0974000
:101BC0000000006066865E400000000000D47640A1
:101BD00000000020A0993E4000000000006BB240D1
:101BE000000000802CB44241000061450000C84262
:101BF0000000C84300A0B64301CDF441000070428C
:101C00000000E03F0000F03F0000D03F00002B400C
:101C1000000020401EF008FE002204460D46C04B86
:101C2000DDE900011FF0DEF802460B46204629469A
:101C30001EF0FCFD9AA3D3E9002382468B461FF0D9
:101C4000D1F8DDE904238046894600204FF0804129
:101C50001EF0EAFDDDE906231EF0E8FDDDE90823BC
:101C60001EF0E4FDDDE90A231EF0E0FD04463046E7
:101C70000D461EF027FF02460B46204629461EF061
:101C8000D5FD89A3D3E900231EF0D0FD88A3D3E9B5
:101C900000231EF0C9FD88A3D3E900231EF078FFBE
:101CA00087A3D3E900231EF0C1FD05E020462946A5
:101CB00000229B4B1EF0B8FD0022994B04460D46B6
:101CC0001FF0ECF90028F1D100220023204629461C
:101CD0001FF0D0F968B1204629460022904B1EF033
:101CE000A5FD0022002304460D461FF0C3F900287D
:101CF000F1D175A3D3E90023DDE900011EF048FF0F
:101D000022462B461EF092FD71A3D3E90023044620
:101D10000D46404649461EF03BFF42464B461EF0EC
:101D200037FF22462B461EF081FD05E0204629465E
:101D300000227B4B1EF078FD0022794B04460D46B5
:101D40001FF0ACF90028F1D10022002320462946DB
:101D50001FF090F968B1204629460022704B1EF012
:101D600065FD0022002304460D461FF083F900287C
:101D7000F1D159A3D3E90023504659461EF008FF7C
:101D800002460B4656A1D1E900011EF04DFD56A3B7
:101D9000D3E900231FF026F81BF00EF854A3D3E973
:101DA000002306460F46504659461EF0F1FE52A348
:101DB000D3E900231EF03AFD02460B461EF036FD25
:101DC00049A3D3E900231FF00DF81AF0F5FF4CA347
:101DD000D3E9002380468946504659461EF0D8FE76
:101DE00002460B4648A1D1E900011EF01DFD3EA3AD
:101DF000D3E900231EF0F6FF1AF00CFF44A3D3E949
:101E0000002382468B46304639461EF0C1FE42A36F
:101E1000D3E9002306460F46404649461EF0B8FE69
:101E200002460B46304639461EF0FEFC52465B46E3
:101E30001EF0AEFE22462B461EF0F8FC05E02046C2
:101E400029460022364B1EF0EFFC0022344B04469C
:101E50000D461FF023F90028F1D10022002320466F
:101E600029461FF007F968B12046294600222C4B6D
:101E70001EF0DCFC0022002304460D461FF0FAF899
:101E80000028F1D10399274B0022D1E90A011EF065
:101E9000A9FF02460B462046294649E0AFF30080E1
:101EA00000000000A0D5E14000000080A2423A41BD
:101EB000000000802CB44241000000E05BD2B03F43
:101EC000000000801CCA1A40000000E0360BF03F02
:101ED000000000605243FB3E00000060C91CAB3FA5
:101EE000000000608F425F4000000020DCA54C40F5
:101EF000000000E0718AEF3F0000002085877140FC
:101F0000000000A0F2D79A3E000000007670374033
:101F1000000000A0EEE734BF00000080732AF93E05
:101F20000000384000002E402B4B2046294600225E
:101F30001EF07AFC0022284B04460D461FF0AEF836
:101F40000028F1D100220023204629461FF092F8F4
:101F500068B12046294600221F4B1EF067FC002274
:101F6000002304460D461FF085F80028F1D12046D5
:101F700029460022184B1EF035FF13A3D3E9002396
:101F80001EF006FE1FF0B4F872B6039B186062B62E
:101F90000FB0BDE8F08F0022104B204629461EF0FE
:101FA00043FC1AF081FE1FF0A3F804469EE508A347
:101FB000D3E90023DDE904011EF036FC1AF074FEBB
:101FC0001FF096F80746A7E500000000C07A6041C0
:101FD00000000000006CB2400000384000002A40C1
:101FE0002DE9F04F8DB0039017F0C2FE044614F0B7
:101FF0003BFC0646204614F029FC0546204614F01A
:1020000017FC6B1E012B98BF06F1FF368246304647
:1020100098BF0C351FF0BEF9D74983461FF0C2FAAE
:102020001EF062FD1AF040FE804689465846D349AC
:102030001FF0B8FA1EF058FD1AF036FE06460F469D
:102040005846CF491FF0FAF91EF04EFD1AF02CFE4B
:10205000CDE9000128461FF09DF94FF07E511FF099
:10206000E5F8C8491FF0EAF91EF03EFD1AF01CFE23
:102070004246CDE904014B4600204FF080411EF05E
:10208000D3FB32463B461EF0D1FBDDE900231EF0B8
:10209000CDFBDDE904231EF0C9FB064650460F4682
:1020A0001EF010FD02460B46304639461EF0BEFBC0
:1020B0009BA3D3E900231EF0B9FB824620468B4642
:1020C00014F08CFB0646204614F096FB1FF062F9D4
:1020D000AD491FF067FA054630461FF05BF901462F
:1020E00028461FF0A3F80546204614F093FB1FF086
:1020F00051F9A6491FF056FA29461FF097F81EF02D
:10210000F3FC0022CDE90001A14B504659461EF0D8
:102110008DFB1AF0C9FD84A3D3E9002304460D46C4
:102120001EF0C6FF68B382A3D3E9002320462946E8
:102130001EF07AFB80A3D3E900231EF053FE1EF0AD
:10214000D7FF1EF0BFFC002206460F46914B2046EB
:1021500029461EF06BFB32463B461EF067FB002211
:1021600004460D468C4B304639461EF011FD1AF0E0
:102170009BFD02460B46204629461EF055FB0446B1
:102180000D46204629466EA3D3E900231EF04EFBE0
:102190006DA3D3E9002304460D461EF045FB6CA356
:1021A000D3E900231EF01EFE1AF07EFD68A3D3E9DA
:1021B0000023CDE904011EF0EBFC1AF075FD024688
:1021C0000B46204629461EF02FFB63A3D3E90023CC
:1021D000804689461EF006FE1AF066FD5EA3D3E92E
:1021E000002304460D461EF0D3FC1AF05DFD0022CC
:1021F00006460F460023404649461EF017FB32466E
:102200003B461EF011FB1AF04FFD1EF071FF00223D
:102210008046624B204629461EF02CFF002800F025
:10222000208200225B4B204629461EF0FDFA1AF060
:102230003BFD1EF05DFF044620461FF0ABF85849F9
:1022400005461FF0B7FA002840F0178244A3D3E9EF
:102250000023DDE904011EF0E7FA1AF025FD1EF067
:1022600047FF0646631E012B05D804F10C001FF042
:1022700091F8013E054630461FF08CF83E49044671
:102280001FF090F91EF030FC1AF00EFDCDE90401AC
:1022900020463A491FF086F91EF026FC1AF004FD8C
:1022A000CDE90601204636491FF0C8F81EF01CFC97
:1022B0001AF0FAFCCDE9080128464FF07E511EF0D5
:1022C000B5FF30491FF0BAF81EF00EFC1AF0ECFC16
:1022D00025A3D3E90023CDE90A01504659461EF053
:1022E000A3FA002204460D462E4BDDE900011EF044
:1022F00079FD02460B46204629461EF097FA1CA39C
:10230000D3E9002382468B461EF06CFDDDE90423F1
:1023100006460F4600204FF0804145E0AFF30080B5
:1023200000000080A2423A41000000008C8A414136
:1023300000000040D07D3C410000000088D5E14015
:102340000000000000D097400000006066865E40FC
:102350000000000000D4764000000020A0993E401C
:1023600000000000006BB240000000802CB442412D
:1023700000000000A0D5E1400000C8420000C843B2
:1023800000A0B64301CDF441000070420000614559
:102390000000E03F0000F03F0000D03F00002B4075
:1023A00000002040000038401EF03EFADDE9062320
:1023B0001EF03CFADDE908231EF038FADDE90A23B5
:1023C0001EF034FA044640460D461EF07BFB0246E2
:1023D0000B46204629461EF029FAAFA3D3E9002375
:1023E0001EF024FAAEA3D3E900231EF01DFAAEA31B
:1023F000D3E900231EF0CCFBADA3D3E900231EF0EC
:1024000015FA05E0204629460022C54B1EF00CFABD
:102410000022C34B04460D461EF040FE0028F1D1B9
:1024200000220023204629461EF024FE68B12046E3
:1024300029460022BA4B1EF0F9F900220023044677
:102440000D461EF017FE0028F1D19BA3D3E900230F
:10245000DDE900011EF09CFB22462B461EF0E6F94A
:1024600097A3D3E9002304460D46304639461EF0B3
:102470008FFB32463B461EF08BFB22462B461EF05E
:10248000D5F905E0204629460022A54B1EF0CCF9DF
:102490000022A34B04460D461EF000FE0028F1D199
:1024A00000220023204629461EF0E4FD68B12046A4
:1024B000294600229A4B1EF0B9F900220023044657
:1024C0000D461EF0D7FD0028F1D17FA3D3E90023EC
:1024D000504659461EF05CFB02460B467CA1D1E9F2
:1024E00000011EF0A1F97CA3D3E900231EF07AFCC1
:1024F0001AF062FC7AA3D3E9002306460F46504641
:1025000059461EF045FB78A3D3E900231EF08EF94F
:1025100002460B461EF08AF96FA3D3E900231EF092
:1025200061FC1AF049FC72A3D3E900238046894676
:10253000504659461EF02CFB02460B466EA1D1E9CF
:1025400000011EF071F964A3D3E900231EF04AFCD8
:102550001AF060FB6AA3D3E9002382468B4630461B
:1025600039461EF015FB68A3D3E9002306460F4643
:10257000404649461EF00CFB02460B4630463946A3
:102580001EF052F952465B461EF002FB22462B46D5
:102590001EF04CF905E0204629460022604B1EF053
:1025A00043F900225E4B04460D461EF077FD0028DD
:1025B000F1D100220023204629461EF05BFD68B1C0
:1025C000204629460022564B1EF030F900220023F7
:1025D00004460D461EF04EFD0028F1D10399514BE3
:1025E0000022D1E90A011EF0FDFB02460B462046FF
:1025F000294603E04A4B2046294600221EF014F9E2
:102600000022474B04460D461EF048FD0028F1D13C
:1026100000220023204629461EF02CFD68B12046EA
:10262000294600223E4B1EF001F9002200230446F9
:102630000D461EF01FFD0028F1D12046294600223C
:10264000374B1EF0CFFB32A3D3E900231EF0A0FAD4
:102650001EF04EFD72B6039B186062B60DB0BDE869
:10266000F08F0022304B204629461EF0DDF81AF08C
:102670001BFB1EF03DFD0446DEE527A3D3E9002346
:10268000DDE904011EF0D0F81AF00EFB1EF030FD5B
:102690000646E7E5AFF3008000000080A2423A4121
:1026A000000000802CB44241000000E05BD2B03F4B
:1026B000000000801CCA1A40000000E0360BF03F0A
:1026C000000000605243FB3E00000060C91CAB3FAD
:1026D000000000608F425F4000000020DCA54C40FD
:1026E000000000E0718AEF3F000000208587714004
:1026F000000000A0F2D79A3E00000000767037403C
:10270000000000A0EEE734BF00000080732AF93E0D
:1027100000000000C07A604100000000006CB24080
:102720000000384000002E4000002A4070B50568C7
:10273000044628460E4616F051FF864203D0314625
:10274000284616F065FF204670BD00BFFFFFFFFF63
:10275000032900D970472DE9F04301EB410505EB52
:10276000C50505F10A0487B001700646204616F03B
:1027700035FF8DF80C0005F10B0016F02FFF8DF8DA
:102780000D0005F10C0016F029FF8DF80E0005F183
:102790000D0016F023FF8DF80F0003981EF0A4F92A
:1027A0000022914B804689461EF064FC40B900220D
:1027B0008E4B404649461EF07BFC002800F0CA8044
:1027C00006A9002341F8143D002200232046C6E953
:1027D0000223FEF7A9F982A3D3E90023D6E9020177
:1027E0001EF000FB804689461AF014FAC6E90C0177
:1027F000404649461AF0E0FAC6E90E0105F10E001E
:1028000016F0ECFE8DF80C0005F10F0016F0E6FE58
:102810008DF80D0005F1100016F0E0FE8DF80E00A9
:1028200005F1110016F0DAFE8DF80F0003981EF086
:102830005BF900226E4B804689461EF025FC38B9B4
:1028400000226C4B404649461EF028FC00287ED0F2
:1028500006A90023307841F8103D1B270E240022E2
:10286000002307FB0040C6E90423FEF75DF905F1EC
:10287000120016F0B3FE8DF80C0005F1130016F0EF
:10288000ADFE8DF80D00BDF80C2002F1C8039BB21F
:1028900042F208018B4260D8328305F1140016F031
:1028A0009DFE1EF073FD54491EF07CFE53491EF040
:1028B000BBFC5349F06204461EF05EFF002835D190
:1028C00005F1150406F11A08243506F1190720460A
:1028D00016F084FE013407F8010F18B3A542F6D1B3
:1028E0003278484903A81FF031FF03A820F048F9C7
:1028F000421C0F2A05464ED939A3D3E90023D6E955
:1029000002011EF06FFA04460D461AF083F9C6E97B
:102910000C01204629461AF04FFAC6E90E0107B00D
:10292000BDE8F083B37E002BDAD0E5E720463349DB
:102930001EF040FF0028C3D032780023F3621B2032
:10294000142300FB0230782116F062FEB8E7C6E9D6
:1029500004898CE7C6E9028950E7347804EB440423
:1029600004EBC40404F112074FF000083846A6F83F
:10297000188016F033FE18B14146384616F048FE6E
:102980001334204616F02AFE002886D02046002167
:1029900016F03EFE81E703A9404616F069FE96F860
:1029A000009009EB490909EBC90909F1150900244F
:1029B0000EE016F013FE18F80450854229463846FA
:1029C00001D016F025FE404620F0DAF80134054625
:1029D00009EB0407A5423846EBDA8DE7AFF3008038
:1029E00000000020DCA54C40008056C0008056400E
:1029F000008076C000807640000020410000404109
:102A0000000040C17C7C020038B5437805780BB1EA
:102A100045F0020583780BB145F00405084B1C789E
:102A20007122C82313FB0424204616F0D7FD8542EB
:102A300005D029462046BDE8384016F0E9BD38BD2E
:102A40009C95FF1FFFFFFFFF90F90030013BDAB2BA
:102A5000032A10B504460CD8234850F8222091428E
:102A600028BF11460846032B38D8DFE803F031228F
:102A700013040020F7E71EF015F819A3D3E900238B
:102A80001EF0B0F91EF05CFB81B22069BDE8104079
:102A900015F064B91EF006F811A3D3E900231EF067
:102AA000A1F91EF04DFB81B2E068BDE8104015F0C1
:102AB0004BB81DF0F7FF0AA3D3E900231EF092F9EB
:102AC0001EF03EFB81B2A068BDE8104015F066BC68
:102AD00001466068BDE8104014F046B810BD00BF64
:102AE000CD3B7F669EA0F63F687C020010B5044691
:102AF00008461DF0E7FF0B4602464FF080410020DC
:102B00001AF0ACFA1EF0F4FA94F90030013B032BF2
:102B10001BD8DFE803F0140E080281B22069BDE87B
:102B2000104015F05FB981B2E068BDE8104015F0C3
:102B30008FBC81B2A068BDE8104015F089BC014689
:102B40006068BDE8104014F0A5B910BD10B403686A
:102B500041681A780C78417A037A0C4202EA03023F
:102B60001AD0837A03F003030AB143F0040343F05D
:102B700008039A10013B82720D2B0BD8DFE803F09B
:102B80001E0719070A141E1E140A0719071EC36818
:102B9000013BC36010BC7047837A03F00303002A33
:102BA000E7D043F00403E4E7C36810BC023BC36012
:102BB0007047C36810BC0233C3607047C36810BC61
:102BC0000133C360704700BF2DE9F04F9E4B1A7868
:102BD00082428BB011D0421E062A0DD8DFE812F0D7
:102BE000E300EA00F100F800000108010700974A3D
:102BF00000240025C2E90045187010B90BB0BDE8EB
:102C0000F08F72B6924CDFF864A223690893DAF869
:102C10001030099362B68F4EF569002D00F00381E4
:102C20002B7C012B40F2F78072B6E86862B61DF08B
:102C300049FFD6E900231EF0D5F8737A0BB101F1F4
:102C40000041DFF82C82844DD8E904BC0B460246D3
:102C500061465846CDE900BC1DF09AFF1EF048FAC7
:102C6000EB698146002B00F0DB801A7C012A40F2E0
:102C7000CB8072B6D86862B61DF024FFD5E9002378
:102C80001EF0B0F86B7A0BB101F10041D8E90423D2
:102C9000CDE90023714FDFF8B481D7E904BC0246C7
:102CA0000B4658466146CDE902BC1DF071FF1EF08F
:102CB0001FFAD6E900238346694900201EF092F8E6
:102CC000D8E9002316461F46CDE90401CDE9066781
:102CD0001EF0DAF918B132463B46CDE90423089BD1
:102CE000C9EB03000028B8BF40421DF0EBFEDDE950
:102CF000002306460F46DDE904011DF049FF0246A8
:102D00000B46304639461EF0C9F9002837D1044633
:102D1000D5E90023002052491EF064F8DDE9068958
:102D200042464B4606460F461EF0AEF908B14646EF
:102D30004F46099BCBEB03000028B8BF40421DF073
:102D4000C1FEDDE9022380468946304639461DF042
:102D50001FFF02460B46404649461EF09FF90028D9
:102D60004ED072B6CAF810B0DAF810001DF0AAFE04
:102D7000CAE9060162B601200BB0BDE8F08F72B659
:102D8000C4F8109020691DF09DFEC4E9060162B6EA
:102D9000D8E90023CDE90623304BD3E904230124ED
:102DA000CDE90223B4E7294A2D4D18700024C2E969
:102DB000004522E7254A2B4D18700024C2E9004542
:102DC0001BE7224A284D18700024C2E9004514E789
:102DD00017A5D5E900451D4A1870C2E900450CE762
:102DE00015A5D5E90045194A1870C2E9004504E760
:102DF00013A5D5E90045154A1870C2E90045FCE65F
:102E000020460BB0BDE8F08F72B618460093FFF76E
:102E10009DFE009B2EE772B62846FFF797FE04E75B
:102E20001846194636E7284629460AE7AFF30080D8
:102E3000000000201111C13F000000201111B13F1E
:102E4000000000201111A13FA99BFF1FC095FF1F8B
:102E5000D894FF1FF09BFF1F109CFF1F309CFF1F8B
:102E60000000F03F0000E03F0000D03F6893FF1FEC
:102E70001897FF1F38B5C369002B4BD01A7C012A65
:102E800011D972B6DA68044662B610461DF01AFE11
:102E9000D4E900231DF0A6FF627A03460AB101F1CE
:102EA0000041184638BD72B693E8140011782578B1
:102EB0005C7A1A7A254201EA02012ED09A7A02F04F
:102EC000030209B142F0040242F008029110013AF3
:102ED00099720D2AD6D801A151F822F0432F000093
:102EE0003B2F0000332F00003B2F0000852E0000F9
:102EF0002B2F0000432F0000432F00002B2F00003A
:102F0000852E00003B2F0000332F00003B2F0000D8
:102F1000432F00001946184638BD9A7A02F0030282
:102F20000029D3D042F00402D0E7DA68023ADA602E
:102F3000A9E7DA680232DA60A5E7DA68013ADA600E
:102F4000A1E7DA680132DA609DE700BF08B517F043
:102F500061FA17F09BFE18F07FFB4FF47A7017F0C0
:102F6000D7F8024B024A1A6008BD00BF0CED00E022
:102F70000400FA0510B572B6094CD4E906011EF03A
:102F8000B7F82369C01A206262B672B6054CD4E95C
:102F900006011EF0ADF82369C01A206262B610BDAA
:102FA000D894FF1F6893FF1F70B572B60E4D0F4C7B
:102FB0000F4ED5E91801D4E91823C5E91601C4E973
:102FC0001623D6E90A01D5E916231DF0E1FD094EC5
:102FD000C5E90C01D4E91623D6E90A011DF0D8FD94
:102FE000C4E90C0162B670BDD894FF1F6893FF1F3F
:102FF0001897FF1F309CFF1F2DE9F843264B24A193
:10300000D1E90001D3E900231DF0ECFE234B064675
:103010000F46D3E900231EA1D1E900011DF0E2FE15
:1030200004460D4672B61E491E4B0022D1E900012E
:103030001DF0AEFD1C4BD3E90423804689461DF0EC
:10304000A7FD02460B46304639461DF0CBFE324600
:103050003B461DF09DFD154A154BC2E90201D3E91F
:103060000423404649461DF093FD02460B46204688
:1030700029461DF0B7FE2B4622461DF089FD0D4B5B
:10308000C3E9020162B6BDE8F88300BFAFF3008078
:103090000000000080842E414087FF1FC087FF1F73
:1030A0003887FF1F000010401897FF1FD894FF1F9C
:1030B000309CFF1F6893FF1F0028F8B52FDB042802
:1030C000A8BF04201F4A1378984225D01E4C1F4DDC
:1030D00004EBC004D4E90067C3B21370304639462C
:1030E000D5E902231DF0BCFFD8B1194C32463B464E
:1030F000D4E902011DF0B4FF00B1F8BDC4E90267D4
:1031000072B6216AD4E90223D1E900011DF040FD25
:10311000C4E9060162B6F8BD0029D7D1F8BD002088
:10312000D0E7C5E9026772B6296AD5E90223D1E979
:1031300000011DF02DFDC5E9060162B6D4E9006766
:10314000D3E700BFE087FF1F8887FF1F1894FF1F8A
:103150008894FF1F2DE9F843394B1B7853B1032A9C
:103160000AD0384B1B783BB1374A384B12781A7863
:10317000002A56D1BDE8F883354B334C334E1B78CB
:1031800024783578B3FA83F35B09E4B2002D32D1A9
:10319000A342EFD9D0E9028915460F460446002222
:1031A0000023404649461DF05BFF68B1237C5BB1BC
:1031B00072B6237C022B3AD0237CFE2B04BFFF2364
:1031C000237462B6BDE8F883227C237CC3B9022D48
:1031D00030D0032D0CBF1F4B1F4B00211878FFF779
:1031E0006BFF357007B3FE2323741C4A0023137052
:1031F0002360BDE8F8833578AA42C9D0BDE8F883DA
:10320000B7EBD21FE3D04046494600224FF080433F
:103210001DF04EFF0028DAD02046BDE8F843FDF748
:10322000B3B91B78BDE8F88302232374DDE70123DB
:103230002374C1E700210846FFF73EFFD1E700BF36
:103240008C97FF1F8094FF1F7095FF1F0C94FF1F2A
:103250007897FF1F509DFF1FE087FF1FF487FF1F18
:103260002DE9F04F6A4B87B0D3E9082382468B469D
:1032700065A1D1E900011DF0B5FD664BCDE9000166
:10328000D3E9082360A1D1E900011DF0ABFD52464E
:10329000CDE902015B46DDE900011DF0A3FD00223E
:1032A0005D4B06460F461DF0F9FE08B95A4F002641
:1032B000DFF8789152465B46DDE90201C9E9006713
:1032C0001DF090FD0022544B04460D461DF0E6FE15
:1032D00008B9514D0024DFF8588132463B46DDE9FC
:1032E0000001C8E900451DF07DFD22462B4606463B
:1032F0000F46DDE902011DF075FD04460D4602464C
:103300000B46304639461DF0B5FE08B134463D4601
:1033100022462B46504659461DF086FA07460E4671
:1033200038463146002200231DF0C2FE002867D037
:103330003846314600224FF080431DF0B9FE002888
:1033400036D122462B46DDE900011DF04BFD224619
:103350002B46C9E90001DDE902011DF043FD2F4EB6
:10336000C8E90001D6E9062320462946C6E90845F2
:103370001DF08AFE90B100222046294B29461DF0FF
:1033800007FC284BC6E906011C781DF0D9FEC822AF
:103390007D23C1B202FB043016F03AF9224B012121
:1033A0001878FFF789FE07B0BDE8F04FFFF724BE9D
:1033B0001C4B1E78294606EB860620461DF098FE1B
:1033C00006EB8606F60006F17E07014638465FFAF0
:1033D00081FAADF8161016F001F9824503D0514676
:1033E000384616F015F97F36304616F0F7F89DF896
:1033F00017708742A5D03946304616F009F9A0E784
:1034000006F1004694E700BF0000000080842E41D2
:103410001897FF1F309CFF1F000028408887FF1F60
:103420000000E03F9C95FF1FE087FF1F4087FF1FC4
:10343000C087FF1F10B50E4B1C7804EB840404EB0F
:103440008404E40082B004F17E0016F0C7F88DF821
:10345000060004F17F0016F0C1F88DF80700BDF8F2
:1034600006001DF01FFB02B0BDE81040FFF7F8BEDC
:103470009C95FF1F18B9034B30221A807047FDF747
:10348000A3B800BF8C9CFF1F564B1B783BB9564A14
:1034900052783F2A00F09380544A137070472DE908
:1034A000F04188B000233A220293019303930493DE
:1034B00005930693ADF81C30009217F011FE01E061
:1034C00017F046FE17F030FE0028F9DC68461FF0C2
:1034D00057FB454D684429461FF05EF96C460222B1
:1034E0004349071B16F0C4F86B78213B5D2B36D897
:1034F000DFE803F02F35352F3535353535352F35A8
:103500002F353563636363636363636335353535D3
:1035100035353B353535633535352F3563353535FF
:103520003B35632F2F352F35353B633535353535F5
:10353000353535353535633535352F3563353535E5
:103540006335633535632F353535353B35353535A1
:10355000353B791C684617F033FD17F0C1FD234B4E
:1035600000221A7008B0BDE8F0810026791C2046C0
:10357000DFF8788017F024FD002517F0B1FD142046
:10358000444616F0C5FD2F4606E00135322D207069
:103590000FD004F8017F16BB17F0C6FD002808DD28
:1035A00017F0D6FDC0B22328EFD196B1312D20708F
:1035B0000CD13023A8F80030D4E70126D6E70D4B14
:1035C0000A4A1B6813801B0C9370704700236370BA
:1035D000EFE708EB050308F805005E70C2E7312845
:1035E000C0D0E6E75493FF1FA095FF1F8C9CFF1FE0
:1035F000787C0200887C020030B5054683B0D0E9B3
:10360000000112F021FC0B4B0B4C1B7800930122A4
:10361000C5E9000100232946204610F0A9F82046FC
:103620001FF0AEFA05490222204403B0BDE8304045
:1036300016F01EB84987FF1F8C9CFF1F787C020084
:1036400010B50B4B0B4C1B7882B001460093002247
:103650000123204610F08CF820461FF091FA06490D
:103660000222204402B0BDE8104016F001B800BFAD
:103670004987FF1F8C9CFF1F787C020010B5084B08
:10368000084C1A78014620460FF016FF20461FF01E
:1036900077FA022220440449BDE8104015F0E8BF43
:1036A0004987FF1F8C9CFF1F787C0200124B93F808
:1036B0004820D2B110B411485C6D026883B041F269
:1036C00087310092009A121B8A4210D893F8382052
:1036D0006AB102680192586C019B1B1A8B428CBF25
:1036E0000020012003B010BC70470020704700206C
:1036F00003B010BC704700BF4096FF1F909DFF1F96
:10370000114B1A78D2B110B410485C6B026883B0C8
:1037100041F287310092009A121B8A4210D893F826
:1037200078206AB102680192D86F019B1B1A8B4204
:103730008CBF0020012003B010BC704700207047F0
:10374000002003B010BC70474096FF1F909DFF1FE4
:1037500010B5FFF7ABFF0446FFF7D2FF2040C0B221
:1037600010BD00BF154B93F898200AB300B5144A5A
:10377000D3F89C00126883B041F287310192019A1C
:10378000121A8A4218D80022D3F8A00083F8992090
:103790001DF000FE0B491DF005FF4FF080411DF0AC
:1037A000EBFF4FF0010328B1D8B203B05DF804FB82
:1037B000002070470346F7E70020F6E74096FF1F1A
:1037C000909DFF1F0000C8422DE9F04F2D4E2E4D59
:1037D000336829688DB041F288320193019B5B1AEE
:1037E000934204D8294B18780DB0BDE8F08F284CCF
:1037F00094E80F0004AF103487E80F0094E80F003E
:1038000008AC84E80F00384612F09EFE8046384629
:1038100012F0AAFE8346384612F0BAFE82462046CF
:1038200012F0C2FE8146204612F0CAFE074620462C
:1038300012F0DCFE0CAB08F14E0803F8280D184618
:103840008DF80DB08DF80E808DF80CA08DF80A90D3
:103850008DF8097013F018F8044616F089FA041B65
:1038600033680293002CB8BF64420A49074A029B9E
:10387000C860042CCCBF0020012010702B600DB05C
:10388000BDE8F08F909DFF1FC895FF1F0D9DFF1F86
:103890007896FF1F1096FF1F2DE9F047B1F1000A3F
:1038A0003EDD044600EBCA05804600260027F8E806
:1038B0000223304639461CF0B9FFA84506460F469C
:1038C000F5D150461DF0FEF802460B46304639460B
:1038D0001DF088FA002680468946002742464B465E
:1038E000F4E802011CF0A0FF02460B461DF050F95F
:1038F00002460B46304639461CF098FFA542064664
:103900000F46EBD10AF1FF301DF0DCF802460B4602
:10391000304639461DF066FABDE8F04719F06CBD37
:1039200000260027EEE700BF2DE9F04FA44BDFF89B
:10393000BCA21B68DAF8001099B041F288320893F3
:10394000089B5B1A934204D89E4B187819B0BDE8C7
:10395000F08F9D4B9D49D3F88020D1F800B00092A4
:103960009E46BEE80F000DF1280CACE80F00BEE843
:103970000F00ACE80F00BEE80F00ACE80F009EE8B7
:103980000300934E934D944C944F0AAB8CE8030084
:103990001846D6E9048912F0BBFD02460B464046A4
:1039A00049461CF043FF12F02FFA21F0004319465C
:1039B00081A3D3E900231DF0EBF805EBCB0B0AAB99
:1039C000CBE900011846814BD6E90289D3F800B053
:1039D00012F082FD02460B46404649461CF024FF89
:1039E00021F00043194674A3D3E900231DF0D0F859
:1039F00004EBCB0B754BCBE90001B6F91800D3F8FB
:103A000000B01DF05FF88046009889461DF0C2FCAA
:103A100073491DF0C7FD1DF067F802460B4640468E
:103A200049461CF001FF4FEACB0807EB080321F0E1
:103A3000004247F83B00032128465A60FFF72CFF5D
:103A4000CDE9000120460321FFF726FFCDE9020161
:103A500038460321FFF720FF4544D5E90056CDE95C
:103A6000040100225F4BDDE90001CDE906561DF09F
:103A70008FF800224FF0804305460E461DF00EFBE6
:103A8000002800F0928033462A46DDE906011DF049
:103A9000F1FA4FF00106002800F085804444D4E993
:103AA000004500224F4BDDE90201CDE906451DF03E
:103AB0006FF800224FF0804304460D46F6B21DF029
:103AC000EDFA00286BD022462B46DDE906011DF0F9
:103AD000D1FA4FF0010400285FD0B844D8E900784B
:103AE0000022404BDDE90401CDE906781DF050F8D5
:103AF00000223D4B80468946E4B21DF0CFFA0028F3
:103B000046D0DDE9000100224FF080431DF0B2FAFB
:103B10004FF00107002839D0DDE9020100224FF003
:103B200080431DF0A7FA4FF0010568B32E4BDDE985
:103B3000040100221DF09EFA3D404FF0010308B33E
:103B40002B401E404046DDE9062349461DF0B0FAF1
:103B500034404FF0010398B11A4A04EA03000BF114
:103B600001031070032B194A08BF00231360144B84
:103B70001B680993099BCAF8003019B0BDE8F08FA3
:103B80000346E9E70346DBE70546CFE70746C3E719
:103B90004FF00008DFF85090B3E704469DE700249B
:103BA0004FF080458FE7064678E700254FF08046C6
:103BB00069E700BFAFF30080000000000020AC40C8
:103BC000909DFF1FBC95FF1F4096FF1F9895FF1FFC
:103BD000109DFF1FD89CFF1FF095FF1F4894FF1FEB
:103BE0000000C8420000144000003440F893FF1F5A
:103BF0000C4B1B78013B032B0FD8DFE803F00A06C0
:103C00000202094B41221A807047074B50221A804A
:103C10007047054B47221A807047034B4C221A808D
:103C2000704700BF8187FF1F8C9CFF1F10B51C4B86
:103C30005B782B2B02D02D2B00D010BD194C2068A7
:103C4000FF2811DDFF202D2B206013D02B2B1ED041
:103C50001E28DCBF1F2020600146062016F01EF93A
:103C6000114B00221A7010BD1E28DCBF1F202060DF
:103C70002D2BEBD11DF08EFB0C491DF093FC1DF09C
:103C8000B9FD2060FF28E3DDFF202060E4E71DF0A0
:103C900081FB06491DF0D2FB1DF0ACFD2060F1E771
:103CA000A095FF1FF087FF1F8C9CFF1F3333B33F8E
:103CB00008B51E4B5B786E2B23D01AD863B91C4A0B
:103CC0001C4912780B70022A1ED01B4B1B782BB399
:103CD0001A4B01221A7008BD652B0ED1144B1B78AC
:103CE00093B9154B1B787BB91548BDE80840FCF724
:103CF0004BBC732B05D0772BF0D0124B00221A70DF
:103D000008BD0B4B1B7803B108BD0B4B1B78002B78
:103D1000FAD10D48BDE80840FCF736BC0848FCF76E
:103D200033FC0948BDE80840FCF72EBCA095FF1FF6
:103D30007897FF1F8497FF1F7095FF1F0094FF1F48
:103D40001894FF1F8C9CFF1F8894FF1F1D4B5B78EE
:103D5000303B232B30D8DFE803F02D2D2D2D2D2FD8
:103D60002F2F2F2F2F2F2F2F2F2F2F2F2F292F2F69
:103D70002F2B2F2F2F2F2F122F2F2F2F2F170222C6
:103D8000114B1B782BB170470F4B1B780322002B74
:103D9000F9D110B5FCF710FC014688B90B4CD3B231
:103DA00023702078BDE81040FFF786B90122E7E7CD
:103DB0000022E5E71A46E3E7054B00221A70704738
:103DC00010BD00BFA095FF1F7095FF1F509DFF1FE6
:103DD0008C9CFF1F2DE9F041164F1749C0EB0013D3
:103DE0001F44024638461EF0B1FC38461EF0C8FE9D
:103DF0000E281CDC114A92F80080F121C8220346EB
:103E000012FB081800240DE015F0E8FB3E5D864229
:103E10003146284601D015F0FBFB38461EF0B0FEB7
:103E20000134034608EB0405A3422846ECDABDE85A
:103E3000F08100BFC89BFF1F8C7C02009C95FF1F78
:103E40002DE9F04FA84CA94EA94DE1B000234FF049
:103E500000080593049303930293019300931A4679
:103E60001946814686F8008020460FF07DFD2B78AC
:103E700084F8B18103EB830303EB83034FEAC30AA6
:103E80000AF5947B04F5DC71002200235846C1E951
:103E9000002315F0A3FB012800F03A81954F97F815
:103EA0000090A9F10303012B40F2A681924BD3F8B5
:103EB0000C809E68414684A3D3E9002330461CF061
:103EC00067FE60AC02460B4664E9542306900D463B
:103ED00030464146002200231DF0E0F84FF0000A72
:103EE000002800F03382DFF824B2844B1B78002BCB
:103EF00040D030464146002200231DF0D9F800286A
:103F000000F02A823046414600227D4B1DF0D0F859
:103F100000282FD006982946002200231DF0C8F85B
:103F2000002800F01682774B7749DDF81880D3E936
:103F30000023D1E90001CDE91023CDE9120110AB36
:103F40000FCB8DE80F0001230DF1380EA9468DF837
:103F500038309EE80C002046C4E9008911F070FD5D
:103F6000D4E9000152465B461CF012FEC4E9000190
:103F700097F80090B9F1010F00F0708154A3D3E9D4
:103F8000002355A7D7E900670025CDE90223049552
:103F900000220023CDE9006744A814F0A9FCD4E96D
:103FA000002344A914A814F0CBFC14A814F06EFC50
:103FB00002460B46504659461CF0EAFD804614A8BE
:103FC000894614F067FC02460B46504659461CF0E1
:103FD000DFFD0022CDE902010023CDE9008920A800
:103FE00014F056FD3EA3D3E900230495CDE9022346
:103FF000CDE900670022002352A814F079FCD4E92F
:10400000002352A92CA814F09BFC2CA814F03EFC11
:1040100002460B46504659461CF0BAFD04462CA8F1
:104020000D4614F037FC02460B46504659461CF02C
:10403000AFFDCDE90045CDE902010022002338A8FB
:1040400014F026FD44A814F01FFD044644A80D46B4
:1040500014F004FD804620A8894614F0B1FD064600
:1040600020A80F4614F0A0FD22462B46CDE900897A
:10407000CDE90401CDE902671B480FF0A7FD52A866
:1040800014F002FD044652A80D4614F0E7FC8046E9
:1040900038A8894614F094FD064638A80F4614F057
:1040A00083FD2246CDE904012B46CDE90089CDE907
:1040B00002670D480FF08AFD0B480FF07BFD61B0E1
:1040C000BDE8F08FAFF30080000000A046DF913F15
:1040D00000000060FB21F93F00000060FB21E93F88
:1040E000000000807CD912401898FF1FD194FF1F58
:1040F0009C95FF1F8187FF1F109DFF1F4C93FF1F83
:10410000000024403087FF1FE887FF1F0000F03FBA
:10411000B9F1000F40F01581074652A90AF58270E7
:10412000FCF7BCF92878DDF848914FF0C8084FF447
:10413000847308FB003052A9FCF7B0F9529B287831
:1041400009934FF4867308FB003052A9FCF7A6F9D7
:104150002878529906914FF4887308FB003052A9D1
:10416000FCF79CF92878DDF848A14FF48A7308FB26
:10417000003052A9FCF792F92878DDF848B14FF4E5
:104180008C7308FB003052A9FCF788F92878529B01
:104190000B934FF48E7208FB002052A9FCF77EF9B6
:1041A0002878529A0A924FF4907108FB001052A995
:1041B000FCF774F995F800E0529D4FF4927008FBFB
:1041C0000E0052A9FCF76AF952980A9A0B9B0392C7
:1041D0000293099A069B0590494620460495CDF81E
:1041E00004B0CDF800A00FF0BFFB20460FF0F4FBA9
:1041F000377061B0BDE8F08F614900220023D1E93A
:1042000002011CF04BFF002800F0978000260027D9
:104210000024002522462B46CDE90267CDE904455E
:10422000CDE9004557480FF0D1FC304639464CA344
:10423000D3E90023CDE904451CF0F8FA48A3D3E9FB
:104240000023CDE90201CDE900454E480FF0BEFC48
:104250004C480FF0AFFC61B0BDE8F08F40A7D7E944
:1042600000670FF20419D9E900890025049500229E
:104270000023CDE90267CDE9008944A814F038FB9A
:10428000D4E9002344A914A814F05AFB14A814F08C
:10429000FDFA02460B46504659461CF079FC14AB19
:1042A000CDE90601184614F0F5FA02460B465046D1
:1042B00059461CF06DFC32463B461CF0B5FADDE970
:1042C0000623CDE90201CDE9002320A80022002326
:1042D00014F0DEFB26A3D3E900230495CDE90223E5
:1042E000CDE900890022002352A814F001FBD4E993
:1042F000002352A92CA814F023FB2CA814F0C6FA12
:1043000002460B46504659461CF042FC04462CA877
:104310000D4614F0BFFA02460B46504659461CF0B3
:1043200037FC32463B461CF07FFACDE90045CDE92B
:104330000201002238A8002382E60FA7D7E9006710
:1043400066E74146584615F063F9A7E5DFF838B04F
:10435000CBE505F10045E6E508F10048D2E500BFF0
:1043600000000060FB21F93F00000060FB21E93FF5
:10437000000000807CD9124000000060FB21094051
:10438000109DFF1F1898FF1F0000F0BF0C4A0D4B37
:1043900012780D49586B30B4033A012A18604FF077
:1043A00000000860094D0A4C99BF0A480A4A0B48A8
:1043B0000B4A0D644C6418645A6430BC704700BFEB
:1043C0008187FF1F309CFF1F1897FF1F000034C319
:1043D000000034430000A0C10000B4420000B4C299
:1043E000000087432DE9F8435D4F5E4E3C7804EBB7
:1043F000840404EB8404E40004F1D008404615F082
:10440000EDF896F82C50013DEDB2032D98BF564BB8
:1044100000B200EB800000EB800098BF53F825301D
:104420004FEA800088BF00239842F06100F2858047
:10443000C72840F2828004F1D1094FF000084846B5
:1044400086F8208015F0CAF8032D98BF464B00B2BD
:1044500000EB800000EB800098BF53F825304FEA56
:10446000800088BF43469842706158D8C72856D903
:104470004FF0000886F8188004F1DE093B4E4846EC
:1044800015F0ACF896F82C50013DEDB2032D98BF15
:10449000354B00B200EB800000EB800098BF53F872
:1044A00025304FEA800088BF43469842F06124D807
:1044B000C72822D9DF340027204686F8207015F05F
:1044C0008DF8032D98BF284B00B200EB800000EB65
:1044D000800098BF53F825708000B842706101D801
:1044E000C72806D84FF47A7320460A21736115F065
:1044F0008FF800233376BDE8F8834FF47A7348468B
:104500000A21F36115F084F83C7896F82C5004EBFE
:10451000840404EB8404013DE400EDB2CAE74FF4E7
:104520007A7348460A21736115F072F83C7804EBFF
:10453000840404EB8404E4009AE74FF47A73404661
:104540000A21F36115F064F83C7896F82C5004EBDE
:10455000840404EB8404013DE400EDB26BE700BF8A
:104560009C95FF1F9897FF1F687C0200D897FF1F3C
:104570002DE9F043DFF8B882AB4E98F8004004EB29
:10458000840404EB8404E40004F1D20783B03846C9
:1045900015F024F804F1D3058DF80400284615F031
:1045A0001DF88DF80500BDF80430B3F57A7F80F072
:1045B0002181736204F1E009484615F00FF804F117
:1045C000E1078DF80400384615F008F88DF805006D
:1045D000BDF80430954DB3F57A7F80F0F1806B62C1
:1045E00004F1D50014F0FAFFA0F11003302B00F213
:1045F000D880B06204F1E30014F0F0FFA0F11003E2
:10460000302B00F2BF80A86204F1C80014F0E6FF6E
:104610008DF8040004F1C90014F0E0FF8DF80500E6
:1046200004F1CA0014F0DAFF8DF8060004F1CB00A3
:1046300014F0D4FF8DF80700019B3360002704F1CC
:10464000CC00377114F0CAFF8DF8040004F1CD00DE
:1046500014F0C4FF04F1CE098DF80500BDF8043054
:10466000B3604846377314F0B9FF431EDBB2072B23
:104670006D4A74D85073002704F1CF00B77314F05B
:10468000ADFFC31B18BF012304F1D400F3733774CB
:1046900014F0A4FFC31B18BF012304F1D6007374E8
:1046A000B77414F09BFF8DF8040004F1D70014F0E8
:1046B00095FF8DF8050004F1D80014F08FFF8DF8F8
:1046C000060004F1D90014F089FF8DF80700019B62
:1046D0002B6004F1DA002F7114F080FF8DF80400D4
:1046E00004F1DB0014F07AFF04F1DC068DF805001C
:1046F000BDF80430AB6030462F7314F06FFF431EDB
:10470000DBB2072B494A17D85073002604F1DD00AD
:10471000AE7314F063FF831B18BF012304F1E200A2
:10472000EB732E7414F05AFF801B18BF01206874BD
:10473000AE7403B0BDE8F08304273046577314F01D
:104740004DFFB842E1D03946304614F061FF98F889
:10475000004004EB840404EB8404E400D5E7042760
:104760004846577314F03AFFB84284D03946484659
:1047700014F04EFF98F8004004EB840404EB84042A
:10478000E40078E7102304F1E0001946AB6214F06E
:104790003FFF98F8004004EB840404EB8404E40039
:1047A00032E7102304F1D2001946B36214F030FF4F
:1047B00098F8004004EB840404EB8404E40019E757
:1047C000002448466C6214F009FF18B1214648469F
:1047D00014F01EFF384614F001FF18B138460021CE
:1047E00014F016FF98F8004004EB840404EB8404F2
:1047F000E400F5E600243846746214F0EFFE18B1C8
:104800002146384614F004FF284614F0E7FE18B19C
:104810002846002114F0FCFE98F8004004EB8404C4
:1048200004EB8404E400C5E69897FF1FD897FF1FA8
:104830009C95FF1FF0B56A4C257805EB850505EBC7
:104840008505ED0005F1D20683B0304614F0C6FEB2
:1048500018B13046002114F0DBFED335284614F0A1
:10486000BDFE18B12846002114F0D2FE2078C826DB
:10487000D52306FB0030102114F0CAFE02A92078CF
:10488000584B41F8043D06FB0060FCF74DF92578D4
:1048900005EB850505EB8505ED0005F1CC073846F0
:1048A00014F09CFEB04203D03146384614F0B0FEFE
:1048B000CD35284614F092FE18B12846002114F098
:1048C000A7FE2078C825CE2305FB0030042114F074
:1048D0009FFE2078CF2305FB0030002114F098FEC6
:1048E0002078D12305FB00300A2114F091FE2078B6
:1048F000D02305FB00300A2114F08AFE2078D4234F
:1049000005FB0030002114F083FE257805EB8505BA
:1049100005EB8505ED0005F1D206304614F05EFE8C
:1049200018B13046002114F073FED335284614F038
:1049300055FE18B12846002114F06AFE2078C826DA
:10494000E32306FB0030102114F062FE02A9254B80
:10495000207841F8083DD62306FB0030FCF7E4F848
:10496000257805EB850505EB8505ED0005F1DA07F2
:10497000384614F033FEB04203D03146384614F0C6
:1049800047FEDB35284614F029FE18B128460021E1
:1049900014F03EFE2078C825DC2305FB00300421FE
:1049A00014F036FE2078DD2305FB0030002114F0E2
:1049B0002FFE2078DF2305FB00300A2114F028FEAB
:1049C0002078DE2305FB00300A2114F021FE207838
:1049D000E22305FB0030002114F01AFE03B0F0BD05
:1049E0009C95FF1F40771B002DE9F843194E356851
:1049F0008D420C469146984622DB6A42914216DB74
:104A0000089A154F012313701CF05CF8D7E90423B2
:104A10001CF0E8F9C9E9000120461CF053F8D6E97A
:104A200004231CF0DFF9C8E90001BDE8F8830A4F50
:104A30003B6B2C44C01A089B141B02221A70E3E73C
:104A4000054F3A6B801A089A0223C1EB4504137094
:104A5000DAE700BF309CFF1F1897FF1F2DE9F843CE
:104A60001C4C099D1C4F90469946D4E904231CF028
:104A70008FF81CF03DFBD7E90423286049464046E7
:104A80001CF086F81CF034FB9DF820800A9EB8F1DB
:104A9000010F30601AD93B68C0EB430030602A68D0
:104AA000236B13442B60226B51428B4206DAA268BF
:104AB00013442B60226B51429942F8DC9A4207DA88
:104AC000A2689B1A2B60226B9A42F9DBBDE8F8833F
:104AD000BDE8F8831897FF1F309CFF1FFFFFFFFF03
:104AE0002DE9F04F9B46AFB09F4B0B9105469F4C75
:104AF000DFF8A092A478D3E902019D4B92460022F0
:104B00000026CDE912234FF0000891A3D3E900233A
:104B10001096CDE914890D968DF840400F961196A8
:104B20001CF036F810AC06460F460FCCEE46089443
:104B3000904C0694AEE80F00089A92E803003B46BA
:104B40008EE803003246294616A813F07DFE16A80B
:104B500014F02EF8804616A8894614F025F87EA396
:104B6000D3E900231CF014F87BA3D3E90023064605
:104B70000F46404649461CF00BF80DF130099BF8F2
:104B8000003000930EAD32463B460295CDF80490BE
:104B9000FFF764FF744BD3E902016DA3D3E900234F
:104BA0001BF0F6FF0DF1400E06460F46BEE80F0063
:104BB000EE460694AEE80F00089B93E803008EE8EB
:104BC000030032463B460B9922A813F03DFE22A873
:104BD00013F0EEFF22ABCDE90801184613F0E4FF15
:104BE0005DA3D3E900231BF0D3FF5BA3D3E900232C
:104BF00006460F46DDE908011BF0CAFF0DF1340837
:104C00009BF8003000930FAC32463B460294CDF83F
:104C10000480FFF723FF4146484611F017F91BF0C7
:104C200051FF554BD3E904231CF0DCF805E0304676
:104C300039460022514B1BF0F9FD0022504B06462D
:104C40000F461CF017FA0028F1D100224D4B3046D8
:104C500039461CF023FA68B1304639460022474BEA
:104C60001BF0E2FD0022474B06460F461CF016FAE9
:104C70000028F1D12146284611F0ECF81BF022FF64
:104C8000414BD3E904231CF0ADF805E0204629464A
:104C900000223A4B1BF0CAFD0022394B04460D4658
:104CA0001CF0E8F90028F1D10022364B20462946B5
:104CB0001CF0F4F968B12046294600222F4B1BF066
:104CC000B3FD00222F4B04460D461CF0E7F90028E7
:104CD000F1D1DAE9000100222C4B1BF059FF02460A
:104CE0000B461FA1D1E900011CF07CF80022804690
:104CF0008946274B304639461BF04AFF02460B4691
:104D0000404649461BF044FF399BC3E9000100229D
:104D1000DAE900011D4B1BF03BFF02460B4610A1D8
:104D2000D1E900011CF05EF8002206460F46184B40
:104D3000204629461BF02CFF02460B4630463946DA
:104D40001BF026FF3A9BC3E900012FB0BDE8F08FAE
:104D5000000000A046DF913F00000020DCA54C4091
:104D6000000000000020AC40109DFF1F4C93FF1F6F
:104D7000000024406098FF1F1897FF1F00807640B6
:104D8000008066C000806640309CFF1F00002E40FF
:104D90000000E03F004059402DE9F04786B006ACE6
:104DA000002344F8043D05468A4613F001FF80467F
:104DB0002846894613F0F8FE1BA3D3E900231BF015
:104DC000E7FE04AD06460F4617A3D3E9002340468D
:104DD00049461BF0DDFECDF800A0029432463B466A
:104DE0000195FFF73BFE72B6114E049B114C059DD9
:104DF000736118466561336125611BF063FEC6E986
:104E0000060128461BF05EFEC4E9060162B60A4BA5
:104E10001B780BB1FBF7FCFB084B002201201A703A
:104E200006B0BDE8F08700BF00000020DCA54C40C4
:104E3000D894FF1F6893FF1F0A94FF1FF487FF1F7A
:104E40002DE9F047144D154C6D78154E9AB08646F5
:104E50008DF82050D4E90045CDE90A45069608AD05
:104E60008A46904699460F4C0FCDD4E900676C46B0
:104E7000CDE90C670FC495E80300424684E80300BF
:104E80004B4671460EA813F0DFFC51460EA8FFF703
:104E900083FF1AB0BDE8F0874C93FF1F3087FF1FD8
:104EA0006098FF1FE887FF1F10B58CB00C46054ABD
:104EB0000146684613F094FD21466846FFF76CFFF3
:104EC0000CB010BD6098FF1F30B5044685B072B6B7
:104ED000174A184B10691D6962B61BF0F3FD164B9B
:104EE000D3E904231BF07EFF0FA3D3E900231BF0BB
:104EF0004FFECDE9020128461BF0E4FD0F4BD3E93C
:104F000004231BF06FFF08A3D3E900231BF040FE2E
:104F10000022CDE900010023204613F0B9FD204610
:104F200005B030BDAFF30080000000A046DF913F28
:104F3000D894FF1F6893FF1F1897FF1F309CFF1F17
:104F4000F0B5814CE36985B00546002B00F0BC80CC
:104F50001A7C012A47D972B6D86862B61BF0B2FD36
:104F6000D4E900231BF03EFF637A002B32D00246C7
:104F700001F1004310461946744C71A3D3E9002394
:104F80001BF006FEE36906460F46002B00F0A380E7
:104F90001A7C012A5ED972B6D86862B61BF092FDFF
:104FA000D4E900231BF01EFF637AB3B101F1004383
:104FB000194663A3D3E900231BF0EAFDCDE9020102
:104FC000CDE9006700220023284613F061FD284642
:104FD00005B0F0BD02460B46CCE759A3D3E9002348
:104FE0001BF0D6FDEAE772B61A68586811780678A1
:104FF000587A1A7A064201EA020177D09A7A02F0C8
:10500000030209B142F0040242F008029110013A91
:1050100099720D2AA0D801A151F822F03551000053
:105020002D510000255100002D510000594F000066
:105030001D51000035510000355100001D51000088
:10504000594F00002D510000255100002D51000046
:105050003551000072B61A685868117890F800E06F
:10506000587A1A7A1EEA000F01EA020136D09A7ABB
:1050700002F0030209B142F0040242F0080291106A
:10508000013A99720D2A87D801A151F822F000BF88
:10509000155100000D510000055100000D51000098
:1050A000994F0000FD5000001551000015510000FF
:1050B000FD500000994F00000D5100000551000007
:1050C0000D51000015510000204CE3690026002717
:1050D000002B7FF45DAF002000216FE79A7A02F089
:1050E00003020029CBD042F00402C8E79A7A02F00A
:1050F000030200298AD042F0040287E7D868023808
:10510000D8604AE7D8680230D86046E7D8680138E6
:10511000D86042E7D8680130D8603EE7D8680238E6
:10512000D8601AE7D8680230D86016E7D868013826
:10513000D86012E7D8680130D8600EE7AFF300807E
:10514000000000A046DF913F109CFF1FF09BFF1F57
:105150002DE9F0419AB080460EA816461F46FFF78B
:10516000B3FE104A104B52788DF82020D3E900236B
:10517000CDE90A2308AD0FCDCDE906670B4CD4E984
:1051800000676C46CDE90C670FC495E80300084A38
:1051900084E8030040460EA913F0E6FC40461AB02E
:1051A000BDE8F0814C93FF1F3087FF1FE887FF1F8A
:1051B0001898FF1F2DE9F0419AB080460EA81646B8
:1051C0001F46FFF7BDFE104A104B52788DF8202085
:1051D000D3E90023CDE90A2308AD0FCDCDE9066759
:1051E0000B4CD4E900676C46CDE90C670FC495E819
:1051F0000300084A84E8030040460EA913F0B4FCFB
:1052000040461AB0BDE8F0814C93FF1F3087FF1F66
:10521000E887FF1F1898FF1F70B50E4D98B006461F
:105220000CA8FFF751FE0FCD06AC0FC495E80300A4
:1052300006AD84E803000FCD6C460FC495E803006B
:10524000054A84E8030030460CA913F039FC3046C7
:1052500018B070BD387C02001898FF1F70B5124B53
:105260001B7898B0064623B9FFF7D6FF304618B032
:1052700070BD0E4D0CA8FFF763FE0FCD06AC0FC43A
:1052800095E8030006AD84E803000FCD6D460FC519
:1052900094E80300064A85E8030030460CA913F0A1
:1052A0000FFC304618B070BD0A94FF1F387C020016
:1052B0001898FF1FFFFFFFFF2DE9F047674CA37809
:1052C000413BB0B0312B00F2D882DFE813F0400050
:1052D000D602D6025F007C00D602D602D602CD00EE
:1052E0009901D602CC018A02D602BD02EA01D60299
:1052F0002B02D6027502D602D602D602D602D602FA
:10530000D602D602D602D602D602D602D602D602DD
:10531000D602D602D602D602D602D602D602D602CD
:10532000D602D6027F02D602D602D602D602D60214
:105330003200E378702B01F0A481742B00F0848399
:10534000672B01F0DD81464B23221A8098E2454A03
:105350001278002309930A930B930C930D930E93E9
:10536000109316932293002A41F09881E378303B02
:10537000082B01F2F981DFE813F04B0641063706EE
:105380002D06230619060F060506FB05E378423BAA
:10539000152B00F2E985DFE813F07504E705E70552
:1053A000E705E705E705E705E705E705E705E7059D
:1053B000E705E705E7056804E7055D04E705E70598
:1053C000E705E7054804E278A2F13103412B01F239
:1053D0005A80DFE813F08E048E04580858085808E5
:1053E00058085808580858085808580858085808BD
:1053F0005808580858085D0558085808D204580835
:10540000580858085808580858085808580858089C
:105410005808CB04B6045808D2045808580858084D
:1054200058085808580858085D055808580858087A
:10543000580858085808580858085808580858086C
:10544000580858085808580858085808580858085C
:105450005808580858085808AB0400BFA095FF1F0B
:105460008C9CFF1FD194FF1F72B6934D934E2B69F6
:10547000306962B6924B1B685A42904280F20382B6
:105480000220904B202103F1320203F8011F9A42BF
:10549000FBD18D4A8D4F8E498E4B12788E4C0978F8
:1054A00097F800C01B78DFF878E227788B4C183229
:1054B00001EB420230331CF80E1022706370A170B1
:1054C0000FB14823E370864B864A1B7812788349D4
:1054D00030332371002A01F0C78040234B71824B87
:1054E0001A78814B012A01F0C8801A78022A01F04B
:1054F000C4801A78032A01F030811B78042B04BF82
:105500002D23A371794B1A7C022A01F0DB801A7CCF
:10551000FE2A01F014811A7CFF2A01F0E9801B7C2D
:10552000012B01F0E580724B02281A7C01F0D28039
:10553000022A01F0CB801A7CFE2A01F0D1801A7C6D
:10554000FF2A01F0D9801B7C012B01F0D5806B78FC
:105550000BB973780BB166236372664A664B117898
:10556000664A1B7812785D4D00290CBF302131212D
:105570003033012AE172A37201F0B680022A01F0F1
:10558000DA80042A01F0D080032A01F0F28055234A
:105590002B735B4901284FF000024FF00003D1E963
:1055A000020101F0BB801BF079FD002814BF5723D6
:1055B00045236373534B1B78002B41F03E804122FF
:1055C000514B52491B785248C97AA2733033E37366
:1055D000037821B14F4AD27A0AB143F002034E4A0E
:1055E00012780AB143F004034C4A12780AB143F02E
:1055F000080341332321002223746174A2743FE124
:10560000E378423B2B2B00F23B81DFE813F0A70449
:105610009004390139013901390139013901390160
:10562000390139019704390139017104390139010E
:1056300084047F0439013901390139013901390103
:10564000390139013901390139013901390139018A
:10565000390139013901390139013901390139017A
:10566000390139016704E378413B162B00F2898741
:10567000DFE813F03C062D064B06F405E00587072E
:105680008707D8058707870787078707870787075B
:10569000D005870787078707C8058707EB048707B3
:1056A000D804E378313B032B01F23080DFE813F0BC
:1056B0008A01AB01F000F000D894FF1F6893FF1F30
:1056C000309CFF1F8B9CFF1F7095FF1F7897FF1F5B
:1056D000D899FF1FD09CFF1FF487FF1F8C9CFF1FD2
:1056E000509DFF1F8497FF1F0C94FF1F1894FF1FEE
:1056F0008894FF1FD194FF1F7487FF1F8187FF1FAE
:10570000109DFF1FC887FF1F8094FF1FF09BFF1F86
:105710000A94FF1F109CFF1FEC9BFF1F8C97FF1F1D
:10572000E47C0200E378303B422B00F22587DFE87F
:1057300013F0B705B705B705B705230723072307F8
:105740002307230723072307230723072307230709
:10575000230723073305E6042307D704230723077A
:1057600023072307230723072307230723072307E9
:1057700023072307230723072307230723072307D9
:105780002307BC0423072307230723072307230733
:10579000230723072307230723075005480561052F
:1057A0002307AB0423072307230723072307230724
:1057B000230723072307A405E378303B032B5FD897
:1057C000DFE813F0F101C80193016C01E378413B7C
:1057D000032B00F2B887DFE813F057014D011E02DA
:1057E0004301E378423B2B2B00F2D086DFE813F035
:1057F000E2051E06CE06CE06CE060006CE06B00593
:10580000CE06CE069C053C06CE06CE06CE06CE06BD
:105810000F06D305CE06CE06CE06CE06CE06CE06A3
:10582000CE06CE06CE06CE06CE06CE06CE06CE06D8
:10583000C4052D06CE06CE06CE06CE06CE06CE0674
:10584000CE06CE06CE06F105E378413B122B17D8E3
:10585000DFE813F037023102490216001600160085
:10586000160016004202160016001600160016005A
:1058700016001600160016002302A74B23221A80DA
:1058800030B0BDE8F0879842CCBF02200120F8E597
:10589000A24D9BA3D3E90023D5E902011BF078F9BF
:1058A0000DF1880A02460B465046FFF751FCD5E938
:1058B000020193A3D3E900231BF06AF9984A994B9C
:1058C00052788DF84020D3E90023CDE91223894690
:1058D000954906910DF1400E8046944DBEE80F00AB
:1058E000D5E900676D46CDE914670FC59EE8030052
:1058F00042464B4685E80300514616A812F0A4FF25
:1059000016A813F055F980A3D3E900231BF040F942
:10591000CDE90E0116A813F047F97BA3D3E90023C4
:105920001BF036F906460F46CDE92267DDE90E0188
:1059300072B67F4A7F4B12691B6962B67E4D2A6838
:10594000C2F1000E7345C0F20C879342CCBF022314
:1059500001230DF1340C0DF1300ECDF808C0CDF857
:1059600004E0324600933B46FFF778F80C981BF0B2
:10597000A9F8724BD3E904231BF034FACDE90E01E8
:105980000D981BF09FF8D5E904231BF02BFAE37860
:10599000614C332B6A4B1B7800934FF00103CDE928
:1059A000220107BF1A460EA951461A465A480DF061
:1059B000DFFE20461DF0E4F802222044614913F086
:1059C00057FE5DE772B65A4B18691BF07BF85B4BCC
:1059D000D3E904231BF006FA30AA62E90E0162B68D
:1059E000574B4D4C1B7800930123114620461A4615
:1059F0000DF0BEFE20461DF0C3F80222204451499E
:105A000013F036FE3CE772B64A4B18691BF05AF8A1
:105A1000494BD3E904231BF0E5F930AA62E90E01F2
:105A200062B6474B3C4C1B7800930123114620463D
:105A30001A460DF09DFE20461DF0A2F802222044D9
:105A4000404913F015FE1BE7354B9B78002B00F007
:105A50001D863D4B304A1B6813801B0C93700FE76B
:105A6000354B586C1BF0C6FE384902462A481CF0DC
:105A70006DFE05E7314B586C1BF0BCFE3349024606
:105A800025481CF063FEFBE62C4B186C1BF0B2FEA5
:105A90002E49024620481CF059FEF1E61F4B1E4CD1
:105AA000D3E9020116A3D3E900231BF071F80246E3
:105AB0000B4622A8FFF74CFB22A812F0EBFE14A322
:105AC000D3E900231BF064F830AB63E91A0101222B
:105AD000194620460DF0F0FC20461DF051F8022238
