:1000000000800020BD010000999A0100519A010072
:10001000519A0100519A0100519A0100519A010030
:10002000519A0100519A0100519A0100999A0100D8
:10003000999A0100519A0100798F01007D8F01008A
:10004000999A0100999A0100999A0100999A0100E0
:10005000999A0100999A0100999A0100999A0100D0
:10006000999A0100999A0100999A0100999A0100C0
:10007000999A0100999A0100999A0100999A0100B0
:10008000999A0100999A0100999A0100999A0100A0
:10009000999A0100999A0100999A0100999A010090
:1000A000999A0100999A0100999A0100999A010080
:1000B000999A0100999A0100999A0100999A010070
:1000C000999A0100999A0100999A0100999A010060
:1000D000999A0100999A0100999A0100999A010050
:1000E000999A0100999A0100999A0100999A010040
:1000F000999A010065A90100999A0100A5B2010031
:10010000999A0100B9B90100999A0100999A0100E0
:10011000999A0100999A0100999A0100999A01000F
:10012000999A0100999A0100999A0100999A0100FF
:10013000999A0100999A0100999A0100999A0100EF
:10014000999A0100999A0100999A0100999A0100DF
:10015000599401006D94010081940100959401006F
:10016000999A0100B5BC0100999A0100999A010081
:10017000999A0100999A0100999A0100999A0100AF
:10018000999A0100999A0100999A0100999A01009F
:10019000999A0100999A0100999A0100999A01008F
:1001A000999A0100999A0100999A0100999A01007F
:1001B000999A0100999A0100999A0100564B4CF2C4
:1001C000205210B51A804DF628121A8000BF00BFC9
:1001D00019F066FC514B4FF010621A60504A9A6059
:1001E000504ADA60504A136813F4807304D14F49BF
:1001F0000B604FF4A85313604D4B1A78110703D5C9
:100200001A7842F008021A704A4B4B492A221A7097
:100210004A4A4B4B8B4204D252F8040F43F8040B6A
:10022000F8E7484B484900228B4202D243F8042B9E
:10023000FAE74649464A002352F8230041F82300D2
:1002400001336F2BF8D1434B434A802103F8011B44
:100250009342FBD1414B3D4A1A60414B8A221A70AE
:10026000A3F5805324225A70A0221A709A7992071B
:10027000FCD59A79D406FCD43A4A937903F00C035E
:10028000082B384BF9D103221A7140225A719A79FE
:100290009006FCD5334A9179324B4906FBD5324A58
:1002A000324911600221516020221A709A7902F0BD
:1002B0000C020C2AFAD12E4B2E4A1A602E4B2F4AD2
:1002C0001A6000225A60072243F8042C2C4AC3F813
:1002D0000C2D62B619F082FE144B1B68DA0705D5A7
:1002E000284819F067FE284B284A1A60284B1B78CB
:1002F0005B0609D5244C254B22689A4204D121483B
:1003000019F058FE0023236019F0D0FB21F064FCA3
:1003100019F0C2FAFEE700BF0E200540308004400D
:10032000823F04000100002B10D0034014D0034092
:1003300002D0074000E007402893FF1F20890200F9
:100340002087FF1F2893FF1FD0A0FF1F0082FF1FE1
:100350000000000000E400E05FE400E008ED00E0E1
:100360000050064000400640448004400000030165
:1003700004800440C010050014E000E0FF76010096
:1003800000002020AAE73C661CE00340A5C3945A65
:1003900000F00740FFFFFFFFFFFFFFFFFFFFFFFF32
:1003A000FFFFFFFFFFFFFFFFFFFFFFFFFFFFFFFF5D
:1003B000FFFFFFFFFFFFFFFFFFFFFFFFFFFFFFFF4D
:1003C000FFFFFFFFFFFFFFFFFFFFFFFFFFFFFFFF3D
:1003D000FFFFFFFFFFFFFFFFFFFFFFFFFFFFFFFF2D
:1003E000FFFFFFFFFFFFFFFFFFFFFFFFFFFFFFFF1D
:1003F000FFFFFFFFFFFFFFFFFFFFFFFFFFFFFFFF0D
:10040000FFFFFFFFFFFFFFFFFFFFFFFFDEF9FFFF23
:1004100010B5054C237833B9044B13B10448AFF33E
:1004200000800123237010BD2893FF1F00000000EF
:100430001C890200084B10B51BB108490848AFF3EE
:1004400000800848036803B910BD074B002BFBD0A0
:10045000BDE81040184700BF000000002C93FF1FAC
:100460001C8902002893FF1F0000000019F09CBDAA
:1004700010B5044618F0CEFF204610BD10B582B06E
:10048000044619F0C7F98DF80600601C19F0C2F98E
:100490008DF80700BDF9060002B010BD38B50C4656
:1004A000054619F0B7F92070681C19F0B3F96070AF
:1004B000A81C19F0AFF9A070E81C19F0ABF9E070B6
:1004C00038BD00BF2DE9F04791F8784082B02CB1DB
:1004D000D1E920670124C2E900671C70274C247809
:1004E000002C3ED0264C2478002C3AD191F878404C
:1004F000002C36D11C78002C33D0007C002830D161
:100500001C4692460D4672B6D1E9060120F0F0FD78
:100510002B69C01A286262B62B6A0193019B002BDB
:1005200029DD019820F0CEFA8046A86E894620F099
:10053000C9FAD5E9182320F02BFB0022114B0646FF
:100540000F4620F0ABFD08B90E4F002632463B4661
:100550004046494620F08EFD30B172B6002323702C
:1005600062B602B0BDE8F08772B6D5E91223CAE9D7
:10057000002362B6F5E701984042D3E7F999FF1FDF
:100580004897FF1F0000F03F0A4B1B782BB1037CFC
:10059000022B03D0037CFE2B00D07047037C022B80
:1005A00005D0037CFE2BF8D1FF2303747047012391
:1005B0000374F6E76C99FF1F024B1878003018BFE0
:1005C000012070470494FF1F014B31221A807047AD
:1005D000CC9CFF1F0B4B1B7810B573B10A4C7F22CC
:1005E000002322706370084822F0CAFA02222044D5
:1005F0000649BDE8104019F057B9034C03F0FF025B
:100600002270F0E74897FF1FCC9CFF1F787C020008
:10061000F8B572B61F4A204B10691D6962B620F00A
:1006200051FA1E4BD3E9042320F0DCFB1C4BDC69A0
:1006300074B15A7A064632BB0F46D3E900233046DE
:10064000394620F0A5FA20F053FD72B6E06062B69C
:10065000284620F037FA134BD3E9042320F0C2FBDD
:10066000114BDC6974B15A7A06467AB90F46D3E960
:1006700000233046394620F08BFA20F039FD72B65F
:10068000E06062B6F8BD01F10047D6E701F100472E
:10069000EDE700BFB096FF1F6093FF1FF098FF1FAC
:1006A000309CFF1F709CFF1F509CFF1F3F4A70B57E
:1006B00040233F4D13602A78002A44D03D4E00234A
:1006C000337072B63C4CD4E9060120F011FD236969
:1006D000C01A206262B6236A002B3CD0236A374AD4
:1006E0003549D27B002BD4BF0023012384F8283066
:1006F000002A35D191F82830002B35D0304B4FF4FB
:1007000080521A602F4B1A78012A4CD01A78023A7C
:1007100018BF012294F82810274B002930D0D86F39
:10072000D3F88810884200DA1ABBD4F88830E3671F
:10073000002384F878302369013323610123337067
:1007400000232B7070BD1B4A12780AB11E4A136039
:1007500001232B7070BD94F87830002BBED1EFE7E9
:1007600091F82830002BC9D0184B4FF480521A60F2
:10077000C8E7DA6F01210A44DA6783F87810DDE709
:10078000D96F002907DD32B1DA6F0121013ADA674A
:1007900083F87810D2E70023E36784F87830236980
:1007A000013B2361CAE70022B4E700BFC8F00F4055
:1007B0002487FF1F8996FF1FB096FF1F7899FF1FA0
:1007C00004F00F400494FF1FC4F00F4008F00F40E6
:1007D00010B4064B064A1878C8246F21002304FB86
:1007E0000010194610BC137019F02EB87497FF1F33
:1007F0009096FF1F60492DE9F0470D78002D6DD0D0
:100800005E4E5F4C5F49DFF88CA196F800E02678D9
:1008100009789AF80040BEF1000F08BF002E0CBF07
:100820004FF0010E4FF0000EC9B2002C52D18E4590
:1008300054D91E4617460446194610460023002286
:1008400020F00EFC002840F081809AF80030042B44
:1008500004D04D4B4D4A197811701870237C5BB24F
:10086000002B3DDDD4E902890022002340464946A1
:1008700020F014FC4FF00105002840D0EDB2237C9D
:1008800073B1002338463146002220F011FC4FF0AE
:10089000010300B9034683F00103DBB29D424CD053
:1008A000384631460022002320F002FC002852D0B6
:1008B0003846314642464B4620F0D2FB08B304236B
:1008C0008AF8003002232374314A00231370236016
:1008D000BDE8F0879AF80040042CA8D0BDE8F08766
:1008E000237C1B06D4E90289C9D500220023404697
:1008F000494620F0C9FB4FF001050028BED105464E
:10090000BCE735463A462B46C4E9022372B6216A53
:10091000D4E90223D1E9000120F03AF9C4E9060143
:1009200062B6042538463146002200238AF800507A
:1009300020F0BEFB0028C5D11AE000224FF0804312
:100940004046494620F0B4FB0028A9D02046BDE827
:10095000F047FFF719BE06F10045384629464246E2
:100960004B4620F07DFB0028CCD004238AF80030D1
:10097000FE232374A8E700BF6C99FF1F5899FF1F3F
:100980005896FF1F4897FF1FF999FF1F9196FF1F69
:10099000F087FF1F0494FF1F3E4A70B510233E4DA1
:1009A00013602A78002A43D03C4E0023337072B67D
:1009B0003B4CD4E9060120F09BFB2369C01A20625E
:1009C00062B6236A002B3BD0236A364A3449D27B75
:1009D000002BD4BF0023012384F82830002A34D10F
:1009E00091F82830002B34D02F4B04221A602F4B63
:1009F0001A78012A4BD01A78023A18BF012294F8CB
:100A00002810274B00292FD0D86FD3F888108842A0
:100A100000DA12BBD4F88830E367002384F878301A
:100A20002369013323610123337000232B7070BDD0
:100A30001A4A12780AB11E4A136001232B7070BD46
:100A400094F87830002BBFD1EFE791F82830002BD5
:100A5000CAD0184B04221A60C9E7DA6F01210A4490
:100A6000DA6783F87810DEE7D96F002907DD32B145
:100A7000DA6F0121013ADA6783F87810D3E70023AF
:100A8000E36784F878302369013B2361CBE70022D8
:100A9000B5E700BFC8F00F404887FF1F4C9DFF1F00
:100AA0006093FF1FB899FF1F44F00F400494FF1F8D
:100AB000C4F00F4048F00F4030B583B0CCB2ADF871
:100AC0000610054618F0A6FE844203D021462846AB
:100AD00018F0BAFE0135284618F09CFE9DF8074034
:100AE000844203D02146284618F0AEFE03B030BD44
:100AF00030B583B0CCB2ADF80610054618F08AFECA
:100B0000844203D02146284618F09EFE013528462F
:100B100018F080FE9DF80740844203D02146284605
:100B200018F092FE03B030BDF8B50D460E780446BD
:100B300018F070FE864203D03146204618F084FE3D
:100B4000661C304618F066FE6F78874203D039463F
:100B5000304618F079FEA61C304618F05BFEAF78E0
:100B6000874203D03946304618F06EFE03342046E3
:100B700018F050FEED78854205D029462046BDE8A4
:100B8000F84018F061BEF8BD10B54B4C4B4994F9D4
:100B90002C30013BDAB20120032A08702DD84849D5
:100BA000E06951F82220904228BF1046032B10D84C
:100BB000DFE803F07602685A1FF074FF3CA3D3E924
:100BC000002320F00FF920F0BBFA81B2606B17F020
:100BD000C9FC3C4C94F92C30013BDAB2032A0ED804
:100BE0003749E06951F82220904228BF1046032B74
:100BF0005BD8DFE803F0332415060020D6E7002099
:100C0000F5E71FF04FFF2AA3D3E9002320F0EAF80D
:100C100020F096FA81B2E06BBDE8104017F02ABCD4
:100C20001FF040FF22A3D3E9002320F0DBF820F0DF
:100C300087FA81B2A06BBDE8104017F019BB1FF016
:100C400031FF1BA3D3E9002320F0CCF820F078FA81
:100C500081B2606BBDE8104017F084BC0146206B88
:100C6000BDE8104016F0B0BB1FF01CFF10A3D3E985
:100C7000002320F0B7F820F063FA81B2E06B17F0A0
:100C8000F9FBA6E71FF00EFF09A3D3E9002320F02C
:100C9000A9F820F055FA81B2A06B17F0E9FA98E7AD
:100CA0000146206B16F090FB93E710BDAFF3008078
:100CB000CD3B7F669EA0F63F7899FF1F0594FF1FEE
:100CC000687C0200B899FF1F2DE9F0434C4A4D4E55
:100CD0004D4D83B0002101230A20117033702B7019
:100CE00019F034FA494B1C7804EB840404EB8404B7
:100CF000E40004F1650018F08DFD8DF8040004F1A6
:100D0000660018F087FD8DF8050004F1670018F003
:100D100081FD8DF8060004F1680018F07BFD8DF868
:100D2000070004F1690018F075FD019F8DF80400BB
:100D300004F16A0018F06EFD8DF8050004F16B00F7
:100D400018F068FD8DF8060004F16C0018F062FDE3
:100D50002F4B8DF80700587B019C1FF0A3FE024625
:100D60000B4600204FF080411CF078F98046894600
:100D700038461FF0A7FE42464B461FF009FF20F001
:100D8000B7F9244B0746587B1FF08CFE02460B46F2
:100D900000204FF080411CF061F9804689462046D2
:100DA0001FF090FE42464B461FF0F2FE20F0A0F9E5
:100DB000044672B6384677616C6137612C611FF06A
:100DC00081FEC6E9060120461FF07CFEC5E906014A
:100DD00062B6114A114B11781B78114A01290CBFD8
:100DE00002210021117043B90E4B1B780BB9FFF79C
:100DF000CBFE012003B0BDE8F083FFF709FCF3E769
:100E0000F087FF1FB096FF1F6093FF1F7497FF1FAF
:100E10007899FF1FB899FF1F8187FF1F0294FF1F5A
:100E2000E89BFF1F0594FF1F10B5494C494994F9F1
:100E30002C30013BDAB20020032A087006D846495C
:100E4000606951F82220904228BF1046032B10D829
:100E5000DFE803F0740266581FF024FE3AA3D3E9DA
:100E600000231FF0BFFF20F06BF981B2606B17F019
:100E700079FB3A4C94F92C30013BDAB2032A0CD8B6
:100E80003549606951F82220904228BF1046032B53
:100E900059D8DFE803F0312213040020F7E71FF0F0
:100EA00001FE29A3D3E900231FF09CFF20F048F99D
:100EB00081B2E06BBDE8104017F0DCBA1FF0F2FD24
:100EC00021A3D3E900231FF08DFF20F039F981B26F
:100ED000A06BBDE8104017F0CBB91FF0E3FD1AA3DB
:100EE000D3E900231FF07EFF20F02AF981B2606B66
:100EF000BDE8104017F036BB0146206BBDE810403E
:100F000016F062BA1FF0CEFD0FA3D3E900231FF045
:100F100069FF20F015F981B2E06B17F0ABFAA8E792
:100F20001FF0C0FD08A3D3E900231FF05BFF20F0F2
:100F300007F981B2A06B17F09BF99AE70146206B85
:100F400016F042FA95E710BDCD3B7F669EA0F63FB6
:100F50007899FF1F0594FF1F687C0200B899FF1F56
:100F60002DE9F04FD1E910678BB0CDE904670C464D
:100F700091F87810149D21B91F46037C0646002B7A
:100F800039D1B14B1B78D5E90001002B00F04C8121
:100F9000D4E916231FF04AFC024621F00043CDE9B4
:100FA0000623DDE90667002200233046394620F09B
:100FB00057F8002840F06C8132463B46D4E90E01D8
:100FC0001FF010FF06460F4602460B46DDE91801EA
:100FD00020F06EF8002800F02E8132463B46DDE915
:100FE000160120F051F8002800F02281C4E91467AE
:100FF0000BB0BDE8F08FD0E9028992464046DDE9AA
:101000000423494620F036F8002840F027818F4B12
:101010001B78002B40F0B781337CDFF83CB2190617
:101020004CBF8B4B8B4B0022CBE90023337CFF2B37
:1010300000F03581337C012B00F03181D4E90223AB
:10104000104619461FF0F2FBDBE900897CA3D3E9C7
:1010500000231FF09DFD42464B461FF099FDD5E948
:101060000089DAE900231FF0BDFE42464B461FF01F
:10107000DDFBC5E90001D5E90001002200231FF0D6
:10108000F9FF002840F08781DDE90401D5E900235C
:1010900020F004F8002800F0748104ABD3E90023A9
:1010A000C5E90023337C5BB2002B40F3BB81D6E95A
:1010B0000289D5E9000142464B461FF0F9FF08B905
:1010C000D5E90089C5E90089337CFF2B03D0337C47
:1010D000012B7FF456AFD5E90023CDE90823DDE9E4
:1010E0000801002200231FF0E3FF002800F00C811C
:1010F000DDE90823DDE904011FF0BCFF002800F052
:10110000098172B6D4E906011FF0F2FF2369C01A03
:10111000206262B6D4E91423D4E91C011FF062FEF8
:1011200002460B461FF034FDD4E902AB80468946E7
:1011300052465B46504659461FF078FB0B46024626
:10114000494640461FF04EFE1FF0D2FF236A002B97
:101150008046C0F2138172B6206940441FF0B2FC91
:10116000C4E90601C4F8208062B6236A0293029B98
:101170000298002BD8BF40421FF0A4FC8046A06E0E
:1011800089461FF09FFCD4E918231FF001FD0022BF
:10119000304B82468B461FF081FF002800F0F6801E
:1011A00052465B46404649461FF064FF00283FF424
:1011B000E8AE0021002200233174C5E9002372B695
:1011C000D7E906011FF094FF3B69C01A386262B686
:1011D0003B6A0193019B0198002BD8BF40421FF04E
:1011E00071FC8046B86E89461FF06CFCD7E9182365
:1011F0001FF0CEFC0022174B06460F461FF04EFF95
:10120000002800F01D8132463B46404649461FF00B
:1012100031FF00283FF4B5AE0C4B1B78002B7FF458
:10122000B0AEFFF7B1FCACE6024621F00043B6E6F3
:10123000DDE91667DAE6DDE91867CEE6AFF3008090
:1012400000000040E17A843FF999FF1F0594FF1FD9
:101250000000F0BF0000F03FC09CFF1FD5E9002355
:10126000104623F00041DDE904231FF003FF0028AE
:101270003FF4CDAE337C5BB2002B3FF723AF337C22
:10128000180600F1C9804FF000084FF0000919E777
:10129000DDE91823C4E914230BB0BDE8F08FD4E9CD
:1012A0000223104619461FF0C1FADBE9008966A344
:1012B000D3E900231FF06CFC42464B461FF068FC4C
:1012C000DAE900231FF08EFDD5E9008902460B46BE
:1012D000404649461FF0A8FAC5E900010022DBE9B3
:1012E00000015B4B1FF0BCFE002872D0D5E9000165
:1012F000DDE904231FF0D2FE00287ED104ABD3E940
:101300000023C5E90023B6E6DDE90801024601F144
:101310000043EFE672B6D4E906011FF0E9FE236947
:10132000C01A206262B6D4E91423D4E91C011FF06C
:1013300059FD02460B46D4E902AB1FF029FC524688
:10134000804689465B46504659461FF06FFA0B4669
:101350000246494640461FF045FD1FF0C9FE236A7C
:101360000393039B002B039BD8BF5B4298428046AC
:10137000BFF6FBAE236A002BBFF6EDAEC8F1000846
:10138000E9E62B468AE6FFF74FFD45E64FF0000AF7
:10139000DFF8BCB004E7DDE9042303F1004990461F
:1013A00010464946D5E900231FF064FE10B3C5E995
:1013B0000089337C5BB2002B21DDD6E90289D5E9B7
:1013C000000142464B461FF05FFE00287FF47AAED4
:1013D00076E6DDE9042303F10049904610464946CC
:1013E000D5E900231FF064FE08B1D5E90089C5E9FD
:1013F000008940E6D5E90089D9E72B467FE7337CB1
:101400001A064FF000084FF00009D8D5F368D6F857
:10141000088003F10049D2E7414609F100438846BC
:1014200099464FE6337C1B064FF000084FF0000949
:101430007FF53FAEF368D6F8088003F1004938E63F
:101440000026034FDFE600BF00000040E17A843F42
:101450000000F03F584A59491368F0B50133136052
:101460000B788BB0002B69D05549564C564B5748DA
:10147000D1E914670AAA62E90267FFF723F8DDE9F8
:101480000801D4E900231FF0EBFD08BB0022504BFC
:10149000DDE908011FF07CFB1FF072FE002105460C
:1014A00020F074F980B94B49284620F083F958B9E7
:1014B000494928461FF0C2FF4FF07C511FF0B4FE8F
:1014C00020F0BEF923286BD8DDE90823C4E9002306
:1014D0004249434C434B4448D1E914670AAA62E9A4
:1014E0000467FEF7EFFFDDE90601D4E900231FF0F2
:1014F000B7FD08BB0022364BDDE906011FF048FBB3
:101500001FF03EFE0021054620F040F980B9314928
:10151000284620F04FF958B92F4928461FF08EFF72
:101520004FF07C511FF080FE20F08AF923283DD82F
:10153000DDE90623C4E900230BB0F0BD2B4A2C499A
:101540002C4B0091D2E90001D3E900231F4C264D1A
:10155000CDE90401CDE902232046204B264A184953
:10156000FFF7FEFC254A2649264B0091D2E90001EF
:10157000D3E90023CDE90401CDE902232846104B2D
:10158000214A1649FFF7ECFC237C002B7FF46CAF5B
:101590002B7C5BB2002B7FF467AF1C4A137063E7B0
:1015A0001B4B1B68002B8FD018608DE7194B1B68F5
:1015B000002BBDD01860BBE7E897FF1F4897FF1FBF
:1015C000B096FF1FF09BFF1F0194FF1F1094FF1F99
:1015D0000000E03FABAAAA4C000040426093FF1F0E
:1015E000F89BFF1F4896FF1F6096FF1FD087FF1FC5
:1015F000A096FF1F4087FF1F1099FF1FD887FF1F6E
:10160000389DFF1FC087FF1F909CFF1F0494FF1F82
:101610005093FF1F5893FF1FF8B57B4CE369002BD5
:1016200000F0BE801A7C012A4BD972B6D86862B627
:101630001FF048FAD4E900231FF0D4FB627A034676
:101640000AB101F10041714A714D1846D2E90423F3
:101650001FF09EFA1FF04CFDEB690446002B00F0D2
:10166000A1801A7C012A63D972B6D86862B61FF0CD
:1016700029FAD5E900231FF0B5FB6A7A03460AB1BF
:1016800001F10041634A1846D2E904231FF080FAB1
:101690001FF02EFD064672B65F4F604D7C612046FE
:1016A0006E613C612E611FF00DFAC7E906013046FC
:1016B0001FF008FAC5E9060162B6594B00221A70FC
:1016C000F8BD72B61A68586811780578587A1A7A8F
:1016D000054201EA02016FD09A7A02F0030209B1D1
:1016E00042F0040242F008029110013A99720D2A68
:1016F0009CD801A151F822F001180000F917000050
:10170000F1170000F91700002D160000E91700007E
:101710000118000001180000E91700002D16000054
:10172000F9170000F1170000F91700000118000078
:1017300072B61A68586811780678587A1A7A06428A
:1017400001EA020130D09A7A02F0030209B142F0B4
:10175000040242F008029110013A99720D2A84D8CD
:1017600001A151F822F000BFE1170000D9170000D5
:10177000D1170000D91700006B160000C917000030
:10178000E1170000E1170000C91700006B16000008
:10179000D9170000D1170000D9170000E117000089
:1017A000194650E719466DE79A7A02F003020029BC
:1017B000D1D042F00402CEE79A7A02F00302002967
:1017C00092D042F004028FE7D8680238D8604DE723
:1017D000D8680230D86049E7D8680138D86045E752
:1017E000D8680130D86041E7D8680238D8601EE771
:1017F000D8680230D8601AE7D8680138D86016E790
:10180000D8680130D86012E7309CFF1FF098FF1FA6
:10181000509CFF1F709CFF1FB096FF1F6093FF1F1F
:10182000F087FF1F30B583B005469DF81810009172
:1018300017F08EFE0446284617F036FE204403B00B
:1018400030BD00BFFFFFFFFF2DE9F04F8FB00EAF9F
:10185000DDE91C451A9E07F8086DC0E90A45189E87
:1018600003904E318DF835203846199A8DF8312085
:101870008DF834308DF836108DF8326015F010FA8E
:10188000D94904461E981FF0D9FD1FF0B3FF044448
:10189000204618F08FFB204615F032FB18F084FB31
:1018A000044615F0EDF90646204615F0DBF905462D
:1018B000204615F0C9F96B1E012B98BF06F1FF36C3
:1018C0008246304698BF0C351FF064FDC7498346F9
:1018D0001FF068FE1FF008F91BF0E6F98046894604
:1018E0005846C3491FF05EFE1FF0FEF81BF0DCF9FE
:1018F00006460F465846BF491FF0A0FD1FF0F4F8FA
:101900001BF0D2F9CDE9000128461FF043FD4FF04E
:101910007E511FF08BFCB8491FF090FD1FF0E4F8DA
:101920001BF0C2F94246CDE904014B4600204FF0BE
:1019300080411EF079FF32463B461EF077FFDDE91D
:1019400000231EF073FFDDE904231EF06FFF06463F
:1019500050460F461FF0B6F802460B463046394651
:101960001EF064FF8CA3D3E900231EF05FFF8246C4
:1019700020468B4615F03EF90646204615F048F9FC
:101980001FF008FD9D491FF00DFE054630461FF073
:1019900001FD014628461FF049FC0546204615F08A
:1019A00045F91FF0F7FC90491FF0FCFD29461FF098
:1019B0003DFC1FF099F80022CDE90001904B504604
:1019C00059461EF033FF1BF06FF975A3D3E90023CE
:1019D00004460D461FF06CFB68B373A3D3E90023E4
:1019E000204629461EF020FF71A3D3E900231FF0F3
:1019F000F9F91FF07DFB1FF065F8002206460F463F
:101A0000804B204629461EF011FF32463B461EF011
:101A10000DFF002204460D467B4B304639461FF031
:101A2000B7F81BF041F902460B46204629461EF046
:101A3000FBFE04460D46204629465FA3D3E900235A
:101A40001EF0F4FE5EA3D3E9002304460D461EF00B
:101A5000EBFE5DA3D3E900231FF0C4F91BF024F9CA
:101A600059A3D3E90023CDE904011FF091F81BF03D
:101A70001BF902460B46204629461EF0D5FE54A30C
:101A8000D3E90023804689461FF0ACF91BF00CF91E
:101A90004FA3D3E9002304460D461FF079F81BF04D
:101AA00003F9002206460F460023404649461EF031
:101AB000BDFE32463B461EF0B7FE1BF0F5F81FF0A8
:101AC00017FB00220646514B204629461FF0D2FA4A
:101AD000002800F0608200224A4B204629461EF072
:101AE000A3FE1BF0E1F81FF003FB044620461FF0A5
:101AF00051FC474905461FF05DFE002840F0578223
:101B000035A3D3E90023DDE904011EF08DFE1BF0AF
:101B1000CBF81FF0EDFA0746631E012B05D804F140
:101B20000C001FF037FC013F054638461FF032FC21
:101B30002E4904461FF036FD1EF0D6FF1BF0B4F808
:101B4000CDE9040120462A491FF02CFD1EF0CCFFF0
:101B50001BF0AAF8CDE90601204626491FF06EFCCD
:101B60001EF0C2FF1BF0A0F8CDE9080128464FF097
:101B70007E511FF05BFB20491FF060FC1EF0B4FF9C
:101B80001BF092F816A3D3E90023CDE90A015046D1
:101B900059463FE0AFF3008000000080A2423A4186
:101BA000000000008C8A414100000040D07D3C4193
:101BB0000000000088D5E1400000000000D0974000
:101BC0000000006066865E400000000000D47640A1
:101BD00000000020A0993E4000000000006BB240D1
:101BE000000000802CB44241000061450000C84262
:101BF0000000C84300A0B64301CDF441000070428C
:101C00000000E03F0000F03F0000D03F00002B400C
:101C1000000020401EF008FE002204460D46C04B86
:101C2000DDE900011FF0DEF802460B46204629469A
:101C30001EF0FCFD9AA3D3E9002382468B461FF0D9
:101C4000D1F8DDE904238046894600204FF0804129
:101C50001EF0EAFDDDE906231EF0E8FDDDE90823BC
:101C60001EF0E4FDDDE90A231EF0E0FD04463046E7
:101C70000D461EF027FF02460B46204629461EF061
:101C8000D5FD89A3D3E900231EF0D0FD88A3D3E9B5
:101C900000231EF0C9FD88A3D3E900231EF078FFBE
:101CA00087A3D3E900231EF0C1FD05E020462946A5
:101CB00000229B4B1EF0B8FD0022994B04460D46B6
:101CC0001FF0ECF90028F1D100220023204629461C
:101CD0001FF0D0F968B1204629460022904B1EF033
:101CE000A5FD0022002304460D461FF0C3F900287D
:101CF000F1D175A3D3E90023DDE900011EF048FF0F
:101D000022462B461EF092FD71A3D3E90023044620
:101D10000D46404649461EF03BFF42464B461EF0EC
:101D200037FF22462B461EF081FD05E0204629465E
:101D300000227B4B1EF078FD0022794B04460D46B5
:101D40001FF0ACF90028F1D10022002320462946DB
:101D50001FF090F968B1204629460022704B1EF012
:101D600065FD0022002304460D461FF083F900287C
:101D7000F1D159A3D3E90023504659461EF008FF7C
:101D800002460B4656A1D1E900011EF04DFD56A3B7
:101D9000D3E900231FF026F81BF00EF854A3D3E973
:101DA000002306460F46504659461EF0F1FE52A348
:101DB000D3E900231EF03AFD02460B461EF036FD25
:101DC00049A3D3E900231FF00DF81AF0F5FF4CA347
:101DD000D3E9002380468946504659461EF0D8FE76
:101DE00002460B4648A1D1E900011EF01DFD3EA3AD
:101DF000D3E900231EF0F6FF1AF00CFF44A3D3E949
:101E0000002382468B46304639461EF0C1FE42A36F
:101E1000D3E9002306460F46404649461EF0B8FE69
:101E200002460B46304639461EF0FEFC52465B46E3
:101E30001EF0AEFE22462B461EF0F8FC05E02046C2
:101E400029460022364B1EF0EFFC0022344B04469C
:101E50000D461FF023F90028F1D10022002320466F
:101E600029461FF007F968B12046294600222C4B6D
:101E70001EF0DCFC0022002304460D461FF0FAF899
:101E80000028F1D10399274B0022D1E90A011EF065
:101E9000A9FF02460B462046294649E0AFF30080E1
:101EA00000000000A0D5E14000000080A2423A41BD
:101EB000000000802CB44241000000E05BD2B03F43
:101EC000000000801CCA1A40000000E0360BF03F02
:101ED000000000605243FB3E00000060C91CAB3FA5
:101EE000000000608F425F4000000020DCA54C40F5
:101EF000000000E0718AEF3F0000002085877140FC
:101F0000000000A0F2D79A3E000000007670374033
:101F1000000000A0EEE734BF00000080732AF93E05
:101F20000000384000002E402B4B2046294600225E
:101F30001EF07AFC0022284B04460D461FF0AEF836
:101F40000028F1D100220023204629461FF092F8F4
:101F500068B12046294600221F4B1EF067FC002274
:101F6000002304460D461FF085F80028F1D12046D5
:101F700029460022184B1EF035FF13A3D3E9002396
:101F80001EF006FE1FF0B4F872B6039B186062B62E
:101F90000FB0BDE8F08F0022104B204629461EF0FE
:101FA00043FC1AF081FE1FF0A3F804469EE508A347
:101FB000D3E90023DDE904011EF036FC1AF074FEBB
:101FC0001FF096F80746A7E500000000C07A6041C0
:101FD00000000000006CB2400000384000002A40C1
:101FE0002DE9F04F8DB0039017F0DEFF044614F09A
:101FF00047FE0646204614F035FE0546204614F0FE
:1020000023FE6B1E012B98BF06F1FF368246304639
:1020100098BF0C351FF0BEF9D74983461FF0C2FAAE
:102020001EF062FD1AF040FE804689465846D349AC
:102030001FF0B8FA1EF058FD1AF036FE06460F469D
:102040005846CF491FF0FAF91EF04EFD1AF02CFE4B
:10205000CDE9000128461FF09DF94FF07E511FF099
:10206000E5F8C8491FF0EAF91EF03EFD1AF01CFE23
:102070004246CDE904014B4600204FF080411EF05E
:10208000D3FB32463B461EF0D1FBDDE900231EF0B8
:10209000CDFBDDE904231EF0C9FB064650460F4682
:1020A0001EF010FD02460B46304639461EF0BEFBC0
:1020B0009BA3D3E900231EF0B9FB824620468B4642
:1020C00014F098FD0646204614F0A2FD1FF062F9B8
:1020D000AD491FF067FA054630461FF05BF901462F
:1020E00028461FF0A3F80546204614F09FFD1FF078
:1020F00051F9A6491FF056FA29461FF097F81EF02D
:10210000F3FC0022CDE90001A14B504659461EF0D8
:102110008DFB1AF0C9FD84A3D3E9002304460D46C4
:102120001EF0C6FF68B382A3D3E9002320462946E8
:102130001EF07AFB80A3D3E900231EF053FE1EF0AD
:10214000D7FF1EF0BFFC002206460F46914B2046EB
:1021500029461EF06BFB32463B461EF067FB002211
:1021600004460D468C4B304639461EF011FD1AF0E0
:102170009BFD02460B46204629461EF055FB0446B1
:102180000D46204629466EA3D3E900231EF04EFBE0
:102190006DA3D3E9002304460D461EF045FB6CA356
:1021A000D3E900231EF01EFE1AF07EFD68A3D3E9DA
:1021B0000023CDE904011EF0EBFC1AF075FD024688
:1021C0000B46204629461EF02FFB63A3D3E90023CC
:1021D000804689461EF006FE1AF066FD5EA3D3E92E
:1021E000002304460D461EF0D3FC1AF05DFD0022CC
:1021F00006460F460023404649461EF017FB32466E
:102200003B461EF011FB1AF04FFD1EF071FF00223D
:102210008046624B204629461EF02CFF002800F025
:10222000208200225B4B204629461EF0FDFA1AF060
:102230003BFD1EF05DFF044620461FF0ABF85849F9
:1022400005461FF0B7FA002840F0178244A3D3E9EF
:102250000023DDE904011EF0E7FA1AF025FD1EF067
:1022600047FF0646631E012B05D804F10C001FF042
:1022700091F8013E054630461FF08CF83E49044671
:102280001FF090F91EF030FC1AF00EFDCDE90401AC
:1022900020463A491FF086F91EF026FC1AF004FD8C
:1022A000CDE90601204636491FF0C8F81EF01CFC97
:1022B0001AF0FAFCCDE9080128464FF07E511EF0D5
:1022C000B5FF30491FF0BAF81EF00EFC1AF0ECFC16
:1022D00025A3D3E90023CDE90A01504659461EF053
:1022E000A3FA002204460D462E4BDDE900011EF044
:1022F00079FD02460B46204629461EF097FA1CA39C
:10230000D3E9002382468B461EF06CFDDDE90423F1
:1023100006460F4600204FF0804145E0AFF30080B5
:1023200000000080A2423A41000000008C8A414136
:1023300000000040D07D3C410000000088D5E14015
:102340000000000000D097400000006066865E40FC
:102350000000000000D4764000000020A0993E401C
:1023600000000000006BB240000000802CB442412D
:1023700000000000A0D5E1400000C8420000C843B2
:1023800000A0B64301CDF441000070420000614559
:102390000000E03F0000F03F0000D03F00002B4075
:1023A00000002040000038401EF03EFADDE9062320
:1023B0001EF03CFADDE908231EF038FADDE90A23B5
:1023C0001EF034FA044640460D461EF07BFB0246E2
:1023D0000B46204629461EF029FAAFA3D3E9002375
:1023E0001EF024FAAEA3D3E900231EF01DFAAEA31B
:1023F000D3E900231EF0CCFBADA3D3E900231EF0EC
:1024000015FA05E0204629460022C54B1EF00CFABD
:102410000022C34B04460D461EF040FE0028F1D1B9
:1024200000220023204629461EF024FE68B12046E3
:1024300029460022BA4B1EF0F9F900220023044677
:102440000D461EF017FE0028F1D19BA3D3E900230F
:10245000DDE900011EF09CFB22462B461EF0E6F94A
:1024600097A3D3E9002304460D46304639461EF0B3
:102470008FFB32463B461EF08BFB22462B461EF05E
:10248000D5F905E0204629460022A54B1EF0CCF9DF
:102490000022A34B04460D461EF000FE0028F1D199
:1024A00000220023204629461EF0E4FD68B12046A4
:1024B000294600229A4B1EF0B9F900220023044657
:1024C0000D461EF0D7FD0028F1D17FA3D3E90023EC
:1024D000504659461EF05CFB02460B467CA1D1E9F2
:1024E00000011EF0A1F97CA3D3E900231EF07AFCC1
:1024F0001AF062FC7AA3D3E9002306460F46504641
:1025000059461EF045FB78A3D3E900231EF08EF94F
:1025100002460B461EF08AF96FA3D3E900231EF092
:1025200061FC1AF049FC72A3D3E900238046894676
:10253000504659461EF02CFB02460B466EA1D1E9CF
:1025400000011EF071F964A3D3E900231EF04AFCD8
:102550001AF060FB6AA3D3E9002382468B4630461B
:1025600039461EF015FB68A3D3E9002306460F4643
:10257000404649461EF00CFB02460B4630463946A3
:102580001EF052F952465B461EF002FB22462B46D5
:102590001EF04CF905E0204629460022604B1EF053
:1025A00043F900225E4B04460D461EF077FD0028DD
:1025B000F1D100220023204629461EF05BFD68B1C0
:1025C000204629460022564B1EF030F900220023F7
:1025D00004460D461EF04EFD0028F1D10399514BE3
:1025E0000022D1E90A011EF0FDFB02460B462046FF
:1025F000294603E04A4B2046294600221EF014F9E2
:102600000022474B04460D461EF048FD0028F1D13C
:1026100000220023204629461EF02CFD68B12046EA
:10262000294600223E4B1EF001F9002200230446F9
:102630000D461EF01FFD0028F1D12046294600223C
:10264000374B1EF0CFFB32A3D3E900231EF0A0FAD4
:102650001EF04EFD72B6039B186062B60DB0BDE869
:10266000F08F0022304B204629461EF0DDF81AF08C
:102670001BFB1EF03DFD0446DEE527A3D3E9002346
:10268000DDE904011EF0D0F81AF00EFB1EF030FD5B
:102690000646E7E5AFF3008000000080A2423A4121
:1026A000000000802CB44241000000E05BD2B03F4B
:1026B000000000801CCA1A40000000E0360BF03F0A
:1026C000000000605243FB3E00000060C91CAB3FAD
:1026D000000000608F425F4000000020DCA54C40FD
:1026E000000000E0718AEF3F000000208587714004
:1026F000000000A0F2D79A3E00000000767037403C
:10270000000000A0EEE734BF00000080732AF93E0D
:1027100000000000C07A604100000000006CB24080
:102720000000384000002E4000002A4070B50568C7
:10273000044628460E4617F06DF8864203D031460F
:10274000284617F081F8204670BD00BFFFFFFFFF4D
:10275000032900D970472DE9F04301EB410505EB52
:10276000C50505F10A0487B001700646204617F03A
:1027700051F88DF80C0005F10B0017F04BF88DF8AF
:102780000D0005F10C0017F045F88DF80E0005F16D
:102790000D0017F03FF88DF80F0003981EF0A4F914
:1027A0000022914B804689461EF064FC40B900220D
:1027B0008E4B404649461EF07BFC002800F0CA8044
:1027C00006A9002341F8143D002200232046C6E953
:1027D0000223FEF7A9F982A3D3E90023D6E9020177
:1027E0001EF000FB804689461AF014FAC6E90C0177
:1027F000404649461AF0E0FAC6E90E0105F10E001E
:1028000017F008F88DF80C0005F10F0017F002F82A
:102810008DF80D0005F1100016F0FCFF8DF80E008C
:1028200005F1110016F0F6FF8DF80F0003981EF069
:102830005BF900226E4B804689461EF025FC38B9B4
:1028400000226C4B404649461EF028FC00287ED0F2
:1028500006A90023307841F8103D1B270E240022E2
:10286000002307FB0040C6E90423FEF75DF905F1EC
:10287000120016F0CFFF8DF80C0005F1130016F0D2
:10288000C9FF8DF80D00BDF80C2002F1C8039BB202
:1028900042F208018B4260D8328305F1140016F031
:1028A000B9FF1EF073FD54491EF07CFE53491EF023
:1028B000BBFC5349F06204461EF05EFF002835D190
:1028C00005F1150406F11A08243506F1190720460A
:1028D00016F0A0FF013407F8010F18B3A542F6D196
:1028E0003278484903A81FF031FF03A820F048F9C7
:1028F000421C0F2A05464ED939A3D3E90023D6E955
:1029000002011EF06FFA04460D461AF083F9C6E97B
:102910000C01204629461AF04FFAC6E90E0107B00D
:10292000BDE8F083B37E002BDAD0E5E720463349DB
:102930001EF040FF0028C3D032780023F3621B2032
:10294000142300FB0230782116F07EFFB8E7C6E9B9
:1029500004898CE7C6E9028950E7347804EB440423
:1029600004EBC40404F112074FF000083846A6F83F
:10297000188016F04FFF18B14146384616F064FF34
:102980001334204616F046FF002886D0204600214A
:1029900016F05AFF81E703A9404616F085FF96F826
:1029A000009009EB490909EBC90909F1150900244F
:1029B0000EE016F02FFF18F80450854229463846DD
:1029C00001D016F041FF404620F0DAF80134054608
:1029D00009EB0407A5423846EBDA8DE7AFF3008038
:1029E00000000020DCA54C40008056C0008056400E
:1029F000008076C000807640000020410000404109
:102A0000000040C17C7C020038B5437805780BB1EA
:102A100045F0020583780BB145F00405084B1C789E
:102A20007122C82313FB0424204616F0F3FE8542CE
:102A300005D029462046BDE8384016F005BF38BD10
:102A40007497FF1FFFFFFFFF90F90030013BDAB2E0
:102A5000032A10B504460CD8234850F8222091428E
:102A600028BF11460846032B38D8DFE803F031228F
:102A700013040020F7E71EF015F819A3D3E900238B
:102A80001EF0B0F91EF05CFB81B22069BDE8104079
:102A900015F0F0BC1EF006F811A3D3E900231EF0D8
:102AA000A1F91EF04DFB81B2E068BDE8104015F0C1
:102AB000DFBB1DF0F7FF0AA3D3E900231EF092F954
:102AC0001EF03EFB81B2A068BDE8104015F04ABD83
:102AD00001466068BDE8104014F076BC10BD00BF30
:102AE000CD3B7F669EA0F63F687C020010B5044691
:102AF00008461DF0E7FF0B4602464FF080410020DC
:102B00001AF0ACFA1EF0F4FA94F90030013B032BF2
:102B10001BD8DFE803F0140E080281B22069BDE87B
:102B2000104015F0EBBC81B2E068BDE8104015F034
:102B300073BD81B2A068BDE8104015F06DBD0146BF
:102B40006068BDE8104014F0D5BD10BD10B4036836
:102B500041681A780C78417A037A0C4202EA03023F
:102B60001AD0837A03F003030AB143F0040343F05D
:102B700008039A10013B82720D2B0BD8DFE803F09B
:102B80001E0719070A141E1E140A0719071EC36818
:102B9000013BC36010BC7047837A03F00303002A33
:102BA000E7D043F00403E4E7C36810BC023BC36012
:102BB0007047C36810BC0233C3607047C36810BC61
:102BC0000133C360704700BF2DE9F04F9E4B1A7868
:102BD00082428BB011D0421E062A0DD8DFE812F0D7
:102BE000E300EA00F100F800000108010700974A3D
:102BF00000240025C2E90045187010B90BB0BDE8EB
:102C0000F08F72B6924CDFF864A223690893DAF869
:102C10001030099362B68F4EF569002D00F00381E4
:102C20002B7C012B40F2F78072B6E86862B61DF08B
:102C300049FFD6E900231EF0D5F8737A0BB101F1F4
:102C40000041DFF82C82844DD8E904BC0B460246D3
:102C500061465846CDE900BC1DF09AFF1EF048FAC7
:102C6000EB698146002B00F0DB801A7C012A40F2E0
:102C7000CB8072B6D86862B61DF024FFD5E9002378
:102C80001EF0B0F86B7A0BB101F10041D8E90423D2
:102C9000CDE90023714FDFF8B481D7E904BC0246C7
:102CA0000B4658466146CDE902BC1DF071FF1EF08F
:102CB0001FFAD6E900238346694900201EF092F8E6
:102CC000D8E9002316461F46CDE90401CDE9066781
:102CD0001EF0DAF918B132463B46CDE90423089BD1
:102CE000C9EB03000028B8BF40421DF0EBFEDDE950
:102CF000002306460F46DDE904011DF049FF0246A8
:102D00000B46304639461EF0C9F9002837D1044633
:102D1000D5E90023002052491EF064F8DDE9068958
:102D200042464B4606460F461EF0AEF908B14646EF
:102D30004F46099BCBEB03000028B8BF40421DF073
:102D4000C1FEDDE9022380468946304639461DF042
:102D50001FFF02460B46404649461EF09FF90028D9
:102D60004ED072B6CAF810B0DAF810001DF0AAFE04
:102D7000CAE9060162B601200BB0BDE8F08F72B659
:102D8000C4F8109020691DF09DFEC4E9060162B6EA
:102D9000D8E90023CDE90623304BD3E904230124ED
:102DA000CDE90223B4E7294A2D4D18700024C2E969
:102DB000004522E7254A2B4D18700024C2E9004542
:102DC0001BE7224A284D18700024C2E9004514E789
:102DD00017A5D5E900451D4A1870C2E900450CE762
:102DE00015A5D5E90045194A1870C2E9004504E760
:102DF00013A5D5E90045154A1870C2E90045FCE65F
:102E000020460BB0BDE8F08F72B618460093FFF76E
:102E10009DFE009B2EE772B62846FFF797FE04E75B
:102E20001846194636E7284629460AE7AFF30080D8
:102E3000000000201111C13F000000201111B13F1E
:102E4000000000201111A13FE99BFF1F9897FF1F71
:102E5000B096FF1F309CFF1F509CFF1F709CFF1FF0
:102E60000000F03F0000E03F0000D03F6093FF1FF4
:102E7000F098FF1F38B5C369002B4BD01A7C012A8C
:102E800011D972B6DA68044662B610461DF01AFE11
:102E9000D4E900231DF0A6FF627A03460AB101F1CE
:102EA0000041184638BD72B693E8140011782578B1
:102EB0005C7A1A7A254201EA02012ED09A7A02F04F
:102EC000030209B142F0040242F008029110013AF3
:102ED00099720D2AD6D801A151F822F0432F000093
:102EE0003B2F0000332F00003B2F0000852E0000F9
:102EF0002B2F0000432F0000432F00002B2F00003A
:102F0000852E00003B2F0000332F00003B2F0000D8
:102F1000432F00001946184638BD9A7A02F0030282
:102F20000029D3D042F00402D0E7DA68023ADA602E
:102F3000A9E7DA680232DA60A5E7DA68013ADA600E
:102F4000A1E7DA680132DA609DE700BF08B517F043
:102F50007FFA17F0B9FE18F09DFB4FF47A7017F066
:102F6000F5F8024B024A1A6008BD00BF0CED00E004
:102F70000400FA0510B572B6094CD4E906011EF03A
:102F8000B7F82369C01A206262B672B6054CD4E95C
:102F900006011EF0ADF82369C01A206262B610BDAA
:102FA000B096FF1F6093FF1F70B572B60E4D0F4CA9
:102FB0000F4ED5E91801D4E91823C5E91601C4E973
:102FC0001623D6E90A01D5E916231DF0E1FD094EC5
:102FD000C5E90C01D4E91623D6E90A011DF0D8FD94
:102FE000C4E90C0162B670BDB096FF1F6093FF1F6D
:102FF000F098FF1F709CFF1F2DE9F843264B24A17A
:10300000D1E90001D3E900231DF0ECFE234B064675
:103010000F46D3E900231EA1D1E900011DF0E2FE15
:1030200004460D4672B61E491E4B0022D1E900012E
:103030001DF0AEFD1C4BD3E90423804689461DF0EC
:10304000A7FD02460B46304639461DF0CBFE324600
:103050003B461DF09DFD154A154BC2E90201D3E91F
:103060000423404649461DF093FD02460B46204688
:1030700029461DF0B7FE2B4622461DF089FD0D4B5B
:10308000C3E9020162B6BDE8F88300BFAFF3008078
:103090000000000080842E414087FF1FC087FF1F73
:1030A0003887FF1F00001040F098FF1FB096FF1FE9
:1030B000709CFF1F6093FF1F0028F8B52FDB0428CA
:1030C000A8BF04201F4A1378984225D01E4C1F4DDC
:1030D00004EBC004D4E90067C3B21370304639462C
:1030E000D5E902231DF0BCFFD8B1194C32463B464E
:1030F000D4E902011DF0B4FF00B1F8BDC4E90267D4
:1031000072B6216AD4E90223D1E900011DF040FD25
:10311000C4E9060162B6F8BD0029D7D1F8BD002088
:10312000D0E7C5E9026772B6296AD5E90223D1E979
:1031300000011DF02DFDC5E9060162B6D4E9006766
:10314000D3E700BFE087FF1F8887FF1F1094FF1F92
:103150006096FF1F2DE9F843394B1B7853B1032AC2
:103160000AD0384B1B783BB1374A384B12781A7863
:10317000002A56D1BDE8F883354B334C334E1B78CB
:1031800024783578B3FA83F35B09E4B2002D32D1A9
:10319000A342EFD9D0E9028915460F460446002222
:1031A0000023404649461DF05BFF68B1237C5BB1BC
:1031B00072B6237C022B3AD0237CFE2B04BFFF2364
:1031C000237462B6BDE8F883227C237CC3B9022D48
:1031D00030D0032D0CBF1F4B1F4B00211878FFF779
:1031E0006BFF357007B3FE2323741C4A0023137052
:1031F0002360BDE8F8833578AA42C9D0BDE8F883DA
:10320000B7EBD21FE3D04046494600224FF080433F
:103210001DF04EFF0028DAD02046BDE8F843FDF748
:10322000B3B91B78BDE8F88302232374DDE70123DB
:103230002374C1E700210846FFF73EFFD1E700BF36
:103240006C99FF1F5896FF1F4897FF1F0494FF1F9C
:103250005899FF1F909DFF1FE087FF1FF087FF1FFA
:103260002DE9F04F6A4B87B0D3E9082382468B469D
:1032700065A1D1E900011DF0B5FD664BCDE9000166
:10328000D3E9082360A1D1E900011DF0ABFD52464E
:10329000CDE902015B46DDE900011DF0A3FD00223E
:1032A0005D4B06460F461DF0F9FE08B95A4F002641
:1032B000DFF8789152465B46DDE90201C9E9006713
:1032C0001DF090FD0022544B04460D461DF0E6FE15
:1032D00008B9514D0024DFF8588132463B46DDE9FC
:1032E0000001C8E900451DF07DFD22462B4606463B
:1032F0000F46DDE902011DF075FD04460D4602464C
:103300000B46304639461DF0B5FE08B134463D4601
:1033100022462B46504659461DF086FA07460E4671
:1033200038463146002200231DF0C2FE002867D037
:103330003846314600224FF080431DF0B9FE002888
:1033400036D122462B46DDE900011DF04BFD224619
:103350002B46C9E90001DDE902011DF043FD2F4EB6
:10336000C8E90001D6E9062320462946C6E90845F2
:103370001DF08AFE90B100222046294B29461DF0FF
:1033800007FC284BC6E906011C781DF0D9FEC822AF
:103390007D23C1B202FB043016F056FA224B012104
:1033A0001878FFF789FE07B0BDE8F04FFFF724BE9D
:1033B0001C4B1E78294606EB860620461DF098FE1B
:1033C00006EB8606F60006F17E07014638465FFAF0
:1033D00081FAADF8161016F01DFA824503D0514659
:1033E000384616F031FA7F36304616F013FA9DF85B
:1033F00017708742A5D03946304616F025FAA0E767
:1034000006F1004694E700BF0000000080842E41D2
:10341000F098FF1F709CFF1F000028408887FF1F47
:103420000000E03F7497FF1FE087FF1F4087FF1FEA
:10343000C087FF1F10B50E4B1C7804EB840404EB0F
:103440008404E40082B004F17E0016F0E3F98DF804
:10345000060004F17F0016F0DDF98DF80700BDF8D5
:1034600006001DF01FFB02B0BDE81040FFF7F8BEDC
:103470007497FF1F18B9034B30221A807047FDF76D
:10348000A3B800BFCC9CFF1F564B1B783BB9564AD4
:1034900052783F2A00F09380544A137070472DE908
:1034A000F04188B000233A220293019303930493DE
:1034B00005930693ADF81C30009217F02FFE01E043
:1034C00017F064FE17F04EFE0028F9DC68461FF086
:1034D00057FB454D684429461FF05EF96C460222B1
:1034E0004349071B16F0E0F96B78213B5D2B36D87A
:1034F000DFE803F02F35352F3535353535352F35A8
:103500002F353563636363636363636335353535D3
:1035100035353B353535633535352F3563353535FF
:103520003B35632F2F352F35353B633535353535F5
:10353000353535353535633535352F3563353535E5
:103540006335633535632F353535353B35353535A1
:10355000353B791C684617F051FD17F0DFFD234B12
:1035600000221A7008B0BDE8F0810026791C2046C0
:10357000DFF8788017F042FD002517F0CFFD14200A
:10358000444616F0E3FD2F4606E00135322D20704B
:103590000FD004F8017F16BB17F0E4FD002808DD0A
:1035A00017F0F4FDC0B22328EFD196B1312D207071
:1035B0000CD13023A8F80030D4E70126D6E70D4B14
:1035C0000A4A1B6813801B0C9370704700236370BA
:1035D000EFE708EB050308F805005E70C2E7312845
:1035E000C0D0E6E74C93FF1F7897FF1FCC9CFF1FCE
:1035F000787C0200887C020030B5054683B0D0E9B3
:10360000000112F02DFE0B4B0B4C1B780093012296
:10361000C5E9000100232946204610F02DF9204677
:103620001FF0AEFA05490222204403B0BDE8304045
:1036300016F03AB94987FF1FCC9CFF1F787C020027
:1036400010B50B4B0B4C1B7882B001460093002247
:103650000123204610F010F920461FF091FA064988
:103660000222204402B0BDE8104016F01DB900BF90
:103670004987FF1FCC9CFF1F787C020010B5084BC8
:10368000084C1A78014620460FF09AFF20461FF09A
:1036900077FA022220440449BDE8104016F004B92C
:1036A0004987FF1FCC9CFF1F787C0200124B93F8C8
:1036B0004820D2B110B411485C6D026883B041F269
:1036C00087310092009A121B8A4210D893F8382052
:1036D0006AB102680192586C019B1B1A8B428CBF25
:1036E0000020012003B010BC70470020704700206C
:1036F00003B010BC704700BF1898FF1FCC9DFF1F80
:10370000114B1A78D2B110B410485C6B026883B0C8
:1037100041F287310092009A121B8A4210D893F826
:1037200078206AB102680192D86F019B1B1A8B4204
:103730008CBF0020012003B010BC704700207047F0
:10374000002003B010BC70471898FF1FCC9DFF1FCE
:1037500010B5FFF7ABFF0446FFF7D2FF2040C0B221
:1037600010BD00BF154B93F898200AB300B5144A5A
:10377000D3F89C00126883B041F287310192019A1C
:10378000121A8A4218D80022D3F8A00083F8992090
:103790001DF000FE0B491DF005FF4FF080411DF0AC
:1037A000EBFF4FF0010328B1D8B203B05DF804FB82
:1037B000002070470346F7E70020F6E71898FF1F40
:1037C000CC9DFF1F0000C8422DE9F04F2D4E2E4D1D
:1037D000336829688DB041F288320193019B5B1AEE
:1037E000934204D8294B18780DB0BDE8F08F284CCF
:1037F00094E80F0004AF103487E80F0094E80F003E
:1038000008AC84E80F00384613F0AAF88046384622
:1038100013F0B6F88346384613F0C6F882462046C1
:1038200013F0CEF88146204613F0D6F8074620461E
:1038300013F0E8F80CAB08F14E0803F8280D184611
:103840008DF80DB08DF80E808DF80CA08DF80A90D3
:103850008DF8097013F024FA044616F0A5FB041B3A
:1038600033680293002CB8BF64420A49074A029B9E
:10387000C860042CCCBF0020012010702B600DB05C
:10388000BDE8F08FCC9DFF1FA097FF1F4D9DFF1F30
:103890005098FF1FE897FF1F2DE9F047B1F1000A8C
:1038A0003EDD044600EBCA05804600260027F8E806
:1038B0000223304639461CF0B9FFA84506460F469C
:1038C000F5D150461DF0FEF802460B46304639460B
:1038D0001DF088FA002680468946002742464B465E
:1038E000F4E802011CF0A0FF02460B461DF050F95F
:1038F00002460B46304639461CF098FFA542064664
:103900000F46EBD10AF1FF301DF0DCF802460B4602
:10391000304639461DF066FABDE8F04719F06CBD37
:1039200000260027EEE700BF2DE9F04FA44BDFF89B
:10393000BCA21B68DAF8001099B041F288320893F3
:10394000089B5B1A934204D89E4B187819B0BDE8C7
:10395000F08F9D4B9D49D3F88020D1F800B00092A4
:103960009E46BEE80F000DF1280CACE80F00BEE843
:103970000F00ACE80F00BEE80F00ACE80F009EE8B7
:103980000300934E934D944C944F0AAB8CE8030084
:103990001846D6E9048912F0C7FF02460B46404696
:1039A00049461CF043FF12F03BFC21F0004319464E
:1039B00081A3D3E900231DF0EBF805EBCB0B0AAB99
:1039C000CBE900011846814BD6E90289D3F800B053
:1039D00012F08EFF02460B46404649461CF024FF7B
:1039E00021F00043194674A3D3E900231DF0D0F859
:1039F00004EBCB0B754BCBE90001B6F91800D3F8FB
:103A000000B01DF05FF88046009889461DF0C2FCAA
:103A100073491DF0C7FD1DF067F802460B4640468E
:103A200049461CF001FF4FEACB0807EB080321F0E1
:103A3000004247F83B00032128465A60FFF72CFF5D
:103A4000CDE9000120460321FFF726FFCDE9020161
:103A500038460321FFF720FF4544D5E90056CDE95C
:103A6000040100225F4BDDE90001CDE906561DF09F
:103A70008FF800224FF0804305460E461DF00EFBE6
:103A8000002800F0928033462A46DDE906011DF049
:103A9000F1FA4FF00106002800F085804444D4E993
:103AA000004500224F4BDDE90201CDE906451DF03E
:103AB0006FF800224FF0804304460D46F6B21DF029
:103AC000EDFA00286BD022462B46DDE906011DF0F9
:103AD000D1FA4FF0010400285FD0B844D8E900784B
:103AE0000022404BDDE90401CDE906781DF050F8D5
:103AF00000223D4B80468946E4B21DF0CFFA0028F3
:103B000046D0DDE9000100224FF080431DF0B2FAFB
:103B10004FF00107002839D0DDE9020100224FF003
:103B200080431DF0A7FA4FF0010568B32E4BDDE985
:103B3000040100221DF09EFA3D404FF0010308B33E
:103B40002B401E404046DDE9062349461DF0B0FAF1
:103B500034404FF0010398B11A4A04EA03000BF114
:103B600001031070032B194A08BF00231360144B84
:103B70001B680993099BCAF8003019B0BDE8F08FA3
:103B80000346E9E70346DBE70546CFE70746C3E719
:103B90004FF00008DFF85090B3E704469DE700249B
:103BA0004FF080458FE7064678E700254FF08046C6
:103BB00069E700BFAFF30080000000000020AC40C8
:103BC000CC9DFF1F9497FF1F1898FF1F7097FF1F32
:103BD000509DFF1F189DFF1FC897FF1F4094FF1F98
:103BE0000000C8420000144000003440F093FF1F62
:103BF0000C4B1B78013B032B0FD8DFE803F00A06C0
:103C00000202094B41221A807047074B50221A804A
:103C10007047054B47221A807047034B4C221A808D
:103C2000704700BF8187FF1FCC9CFF1F08B51E4B4C
:103C30005B786E2B23D01AD863B91C4A1C491278C2
:103C40000B70022A1ED01B4B1B782BB31A4B012280
:103C50001A7008BD652B0ED1144B1B7893B9154B08
:103C60001B787BB91548BDE80840FCF78DBC732B69
:103C700005D0772BF0D0124B00221A7008BD0B4BE9
:103C80001B7803B108BD0B4B1B78002BFAD10D48F4
:103C9000BDE80840FCF778BC0848FCF775FC09480B
:103CA000BDE80840FCF770BC7897FF1F5899FF1FCC
:103CB0006499FF1F4897FF1FF893FF1F1094FF1F81
:103CC000CC9CFF1F6096FF1F1D4B5B78303B232B66
:103CD00030D8DFE803F02D2D2D2D2D2F2F2F2F2F56
:103CE0002F2F2F2F2F2F2F2F2F292F2F2F2B2F2FEE
:103CF0002F2F2F122F2F2F2F2F170222114B1B7810
:103D00002BB170470F4B1B780322002BF9D110B554
:103D1000FCF752FC014688B90B4CD3B223702078D3
:103D2000BDE81040FFF7C8B90122E7E70022E5E748
:103D30001A46E3E7054B00221A70704710BD00BF1A
:103D40007897FF1F4897FF1F909DFF1FCC9CFF1F78
:103D50002DE9F041164F1749C0EB00131F440246EE
:103D600038461EF0F3FC38461EF00AFF0E281CDC15
:103D7000114A92F80080F121C822034612FB08186C
:103D800000240DE015F046FD3E5D86423146284692
:103D900001D015F059FD38461EF0F2FE01340346FD
:103DA00008EB0405A3422846ECDABDE8F08100BF29
:103DB000089CFF1F8C7C02007497FF1FFFFFFFFF12
:103DC0002DE9F04FA84CA94EA94DE1B000234FF0CA
:103DD00000080593049303930293019300931A46FA
:103DE0001946814686F8008020460FF041FE2B7868
:103DF00084F8D18103EB830303EB83034FEAC30A07
:103E00000AF5947B04F5EC71002200235846C1E9C1
:103E1000002315F0FFFC012800F03A81954F97F838
:103E20000090A9F10303012B40F2A681924BD3F835
:103E30000C809E68414684A3D3E9002330461CF0E1
:103E4000A7FE60AC02460B4664E9542306900D467B
:103E500030464146002200231DF020F94FF0000AB1
:103E6000002800F03382DFF824B2844B1B78002B4B
:103E700040D030464146002200231DF019F90028A9
:103E800000F02A823046414600227D4B1DF010F999
:103E900000282FD006982946002200231DF008F99B
:103EA000002800F01682774B7749DDF81880D3E9B7
:103EB0000023D1E90001CDE91023CDE9120110ABB7
:103EC0000FCB8DE80F0001230DF1380EA9468DF8B8
:103ED00038309EE80C002046C4E9008911F0BCFF90
:103EE000D4E9000152465B461CF052FEC4E90001D1
:103EF00097F80090B9F1010F00F0708154A3D3E955
:103F0000002355A7D7E900670025CDE902230495D2
:103F100000220023CDE9006744A814F005FED4E98F
:103F2000002344A914A814F027FE14A814F0C6FD19
:103F300002460B46504659461CF02AFE804614A8FD
:103F4000894614F0BFFD02460B46504659461CF008
:103F50001FFE0022CDE902010023CDE9008920A83F
:103F600014F0B2FE3EA3D3E900230495CDE9022369
:103F7000CDE900670022002352A814F0D5FDD4E952
:103F8000002352A92CA814F0F7FD2CA814F096FDDC
:103F900002460B46504659461CF0FAFD04462CA832
:103FA0000D4614F08FFD02460B46504659461CF054
:103FB000EFFDCDE90045CDE902010022002338A83C
:103FC00014F082FE44A814F07BFE044644A80D467B
:103FD00014F060FE804620A8894614F00DFF0646C6
:103FE00020A80F4614F0FCFE22462B46CDE900899E
:103FF000CDE90401CDE902671B480FF06FFE52A81E
:1040000014F05EFE044652A80D4614F043FE8046AE
:1040100038A8894614F0F0FE064638A80F4614F07A
:10402000DFFE2246CDE904012B46CDE90089CDE92A
:1040300002670D480FF052FE0B480FF043FE61B0CF
:10404000BDE8F08FAFF30080000000A046DF913F95
:1040500000000060FB21F93F00000060FB21E93F08
:10406000000000807CD912406894FF1FA996FF1FB2
:104070007497FF1F8187FF1F509DFF1F4493FF1FF1
:10408000000024403087FF1FE887FF1F0000F03F3B
:10409000B9F1000F40F01581074652A90AF5827068
:1040A000FCF7FCF92878DDF848914FF0C8084FF488
:1040B000847308FB003052A9FCF7F0F9529B287872
:1040C00009934FF4867308FB003052A9FCF7E6F918
:1040D0002878529906914FF4887308FB003052A952
:1040E000FCF7DCF92878DDF848A14FF48A7308FB67
:1040F000003052A9FCF7D2F92878DDF848B14FF426
:104100008C7308FB003052A9FCF7C8F92878529B41
:104110000B934FF48E7208FB002052A9FCF7BEF9F6
:104120002878529A0A924FF4907108FB001052A915
:10413000FCF7B4F995F800E0529D4FF4927008FB3B
:104140000E0052A9FCF7AAF952980A9A0B9B039207
:104150000293099A069B0590494620460495CDF89E
:1041600004B0CDF800A00FF083FC20460FF0B8FC9F
:10417000377061B0BDE8F08F614900220023D1E9BA
:1041800002011CF08BFF002800F09780002600271A
:104190000024002522462B46CDE90267CDE90445DF
:1041A000CDE9004557480FF099FD304639464CA3FC
:1041B000D3E90023CDE904451CF038FB48A3D3E93B
:1041C0000023CDE90201CDE900454E480FF086FD00
:1041D0004C480FF077FD61B0BDE8F08F40A7D7E9FC
:1041E00000670FF20419D9E900890025049500221F
:1041F0000023CDE90267CDE9008944A814F094FCBE
:10420000D4E9002344A914A814F0B6FC14A814F0AF
:1042100055FC02460B46504659461CF0B9FC14ABFF
:10422000CDE90601184614F04DFC02460B465046F7
:1042300059461CF0ADFC32463B461CF0F5FADDE970
:104240000623CDE90201CDE9002320A800220023A6
:1042500014F03AFD26A3D3E900230495CDE9022307
:10426000CDE900890022002352A814F05DFCD4E9B6
:10427000002352A92CA814F07FFC2CA814F01EFCDB
:1042800002460B46504659461CF082FC04462CA8B8
:104290000D4614F017FC02460B46504659461CF0DA
:1042A00077FC32463B461CF0BFFACDE90045CDE92C
:1042B0000201002238A8002382E60FA7D7E9006791
:1042C00066E74146584615F0BFFAA7E5DFF838B073
:1042D000CBE505F10045E6E508F10048D2E500BF71
:1042E00000000060FB21F93F00000060FB21E93F76
:1042F000000000807CD9124000000060FB210940D2
:10430000509DFF1F6894FF1F0000F0BF0C4A0D4B2B
:1043100012780D49586B30B4033A012A18604FF0F7
:1043200000000860094D0A4C99BF0A480A4A0B4828
:104330000B4A0D644C6418645A6430BC704700BF6B
:104340008187FF1F709CFF1FF098FF1F000034C380
:10435000000034430000A0C10000B4420000B4C219
:10436000000087432DE9F8435D4F5E4E3C7804EB37
:10437000840404EB8404E40004F1D008404615F002
:1043800049FA96F82C50013DEDB2032D98BF564BDB
:1043900000B200EB800000EB800098BF53F825309E
:1043A0004FEA800088BF00239842F06100F28580C8
:1043B000C72840F2828004F1D1094FF00008484636
:1043C00086F8208015F026FA032D98BF464B00B2E0
:1043D00000EB800000EB800098BF53F825304FEAD7
:1043E000800088BF43469842706158D8C72856D984
:1043F0004FF0000886F8188004F1DE093B4E48466D
:1044000015F008FA96F82C50013DEDB2032D98BF37
:10441000354B00B200EB800000EB800098BF53F8F2
:1044200025304FEA800088BF43469842F06124D887
:10443000C72822D9DF340027204686F8207015F0DF
:10444000E9F9032D98BF284B00B200EB800000EB88
:10445000800098BF53F825708000B842706101D881
:10446000C72806D84FF47A7320460A21736115F0E5
:10447000EBF900233376BDE8F8834FF47A734846AE
:104480000A21F36115F0E0F93C7896F82C5004EB22
:10449000840404EB8404013DE400EDB2CAE74FF468
:1044A0007A7348460A21736115F0CEF93C7804EB23
:1044B000840404EB8404E4009AE74FF47A734046E2
:1044C0000A21F36115F0C0F93C7896F82C5004EB02
:1044D000840404EB8404013DE400EDB26BE700BF0B
:1044E0007497FF1F7899FF1F687C0200B899FF1F1F
:1044F0002DE9F043DFF8B882AB4E98F8004004EBAA
:10450000840404EB8404E40004F1D20783B0384649
:1045100015F080F904F1D3058DF80400284615F054
:1045200079F98DF80500BDF80430B3F57A7F80F095
:104530002181736204F1E009484615F06BF904F13A
:10454000E1078DF80400384615F064F98DF8050090
:10455000BDF80430954DB3F57A7F80F0F1806B6241
:1045600004F1D50015F056F9A0F11003302B00F23C
:10457000D880B06204F1E30015F04CF9A0F110030B
:10458000302B00F2BF80A86204F1C80015F042F998
:104590008DF8040004F1C90015F03CF98DF8050010
:1045A00004F1CA0015F036F98DF8060004F1CB00CD
:1045B00015F030F98DF80700019B3360002704F1F6
:1045C000CC00377115F026F98DF8040004F1CD0008
:1045D00015F020F904F1CE098DF80500BDF804307E
:1045E000B3604846377315F015F9431EDBB2072B4D
:1045F0006D4A74D85073002704F1CF00B77315F0DB
:1046000009F9C31B18BF012304F1D400F3733774F5
:1046100015F000F9C31B18BF012304F1D600737411
:10462000B77415F0F7F88DF8040004F1D70015F011
:10463000F1F88DF8050004F1D80015F0EBF88DF8CD
:10464000060004F1D90015F0E5F88DF80700019B8C
:104650002B6004F1DA002F7115F0DCF88DF80400FE
:1046600004F1DB0015F0D6F804F1DC068DF8050046
:10467000BDF80430AB6030462F7315F0CBF8431E05
:10468000DBB2072B494A17D85073002604F1DD002E
:10469000AE7315F0BFF8831B18BF012304F1E200CD
:1046A000EB732E7415F0B6F8801B18BF01206874E8
:1046B000AE7403B0BDE8F08304273046577315F09D
:1046C000A9F8B842E1D03946304615F0BDF898F85F
:1046D000004004EB840404EB8404E400D5E70427E1
:1046E0004846577315F096F8B84284D03946484684
:1046F00015F0AAF898F8004004EB840404EB840455
:10470000E40078E7102304F1E0001946AB6215F0ED
:104710009BF898F8004004EB840404EB8404E40064
:1047200032E7102304F1D2001946B36215F08CF879
:1047300098F8004004EB840404EB8404E40019E7D7
:10474000002448466C6215F065F818B121464846C9
:1047500015F07AF8384615F05DF818B138460021A2
:1047600015F072F898F8004004EB840404EB84041C
:10477000E400F5E600243846746215F04BF818B1F1
:104780002146384615F060F8284615F043F818B170
:104790002846002115F058F898F8004004EB8404EE
:1047A00004EB8404E400C5E67899FF1FB899FF1F65
:1047B0007497FF1FF0B56A4C257805EB850505EB6E
:1047C0008505ED0005F1D20683B0304615F022F8DC
:1047D00018B13046002115F037F8D335284615F0CA
:1047E00019F818B12846002115F02EF82078C826AF
:1047F000D52306FB0030102115F026F802A92078F9
:10480000584B41F8043D06FB0060FCF78DF9257814
:1048100005EB850505EB8505ED0005F1CC07384670
:1048200014F0F8FFB04203D03146384615F00CF8CA
:10483000CD35284614F0EEFF18B12846002115F0BA
:1048400003F82078C825CE2305FB0030042114F09E
:10485000FBFF2078CF2305FB0030002114F0F4FF8C
:104860002078D12305FB00300A2114F0EDFF2078D9
:10487000D02305FB00300A2114F0E6FF2078D42372
:1048800005FB0030002114F0DFFF257805EB8505DE
:1048900005EB8505ED0005F1D206304614F0BAFFB0
:1048A00018B13046002114F0CFFFD335284614F05C
:1048B000B1FF18B12846002114F0C6FF2078C826A1
:1048C000E32306FB0030102114F0BEFF02A9254BA4
:1048D000207841F8083DD62306FB0030FCF724F988
:1048E000257805EB850505EB8505ED0005F1DA0773
:1048F000384614F08FFFB04203D03146384614F0EA
:10490000A3FFDB35284614F085FF18B128460021A7
:1049100014F09AFF2078C825DC2305FB0030042121
:1049200014F092FF2078DD2305FB0030002114F005
:104930008BFF2078DF2305FB00300A2114F084FF71
:104940002078DE2305FB00300A2114F07DFF20785B
:10495000E22305FB0030002114F076FF03B0F0BD28
:104960007497FF1F40771B002DE9F843194E3568F7
:104970008D420C469146984622DB6A42914216DBF4
:10498000089A154F012313701CF09CF8D7E90423F3
:104990001CF028FAC9E9000120461CF093F8D6E97A
:1049A00004231CF01FFAC8E90001BDE8F8830A4F90
:1049B0003B6B2C44C01A089B141B02221A70E3E7BD
:1049C000054F3A6B801A089A0223C1EB4504137015
:1049D000DAE700BF709CFF1FF098FF1F2DE9F84336
:1049E0001C4C099D1C4F90469946D4E904231CF0A9
:1049F000CFF81CF07DFBD7E90423286049464046E8
:104A00001CF0C6F81CF074FB9DF820800A9EB8F1DB
:104A1000010F30601AD93B68C0EB430030602A6850
:104A2000236B13442B60226B51428B4206DAA2683F
:104A300013442B60226B51429942F8DC9A4207DA08
:104A4000A2689B1A2B60226B9A42F9DBBDE8F883BF
:104A5000BDE8F883F098FF1F709CFF1FFFFFFFFF6A
:104A60002DE9F04F9B46AFB09F4B0B9105469F4CF5
:104A7000DFF8A092A478D3E902019D4B9246002270
:104A80000026CDE912234FF0000891A3D3E90023BB
:104A90001096CDE914890D968DF840400F96119629
:104AA0001CF076F810AC06460F460FCCEE46089484
:104AB000904C0694AEE80F00089A92E803003B463B
:104AC0008EE803003246294616A813F0D5FF16A833
:104AD00014F08AF9804616A8894614F081F97EA35D
:104AE000D3E900231CF054F87BA3D3E90023064646
:104AF0000F46404649461CF04BF80DF130099BF833
:104B0000003000930EAD32463B460295CDF804903E
:104B1000FFF764FF744BD3E902016DA3D3E90023CF
:104B20001CF036F80DF1400E06460F46BEE80F00A9
:104B3000EE460694AEE80F00089B93E803008EE86B
:104B4000030032463B460B9922A813F095FF22A89A
:104B500014F04AF922ABCDE90801184614F040F9E7
:104B60005DA3D3E900231CF013F85BA3D3E9002372
:104B700006460F46DDE908011CF00AF80DF134087D
:104B80009BF8003000930FAC32463B460294CDF8C0
:104B90000480FFF723FF4146484611F063FB1BF0FA
:104BA00091FF554BD3E904231CF01CF905E0304676
:104BB00039460022514B1BF039FE0022504B06466D
:104BC0000F461CF057FA0028F1D100224D4B304619
:104BD00039461CF063FA68B1304639460022474B2B
:104BE0001BF022FE0022474B06460F461CF056FAE9
:104BF0000028F1D12146284611F038FB1BF062FF56
:104C0000414BD3E904231CF0EDF805E0204629468A
:104C100000223A4B1BF00AFE0022394B04460D4697
:104C20001CF028FA0028F1D10022364B20462946F4
:104C30001CF034FA68B12046294600222F4B1BF0A5
:104C4000F3FD00222F4B04460D461CF027FA0028E6
:104C5000F1D1DAE9000100222C4B1BF099FF02464A
:104C60000B461FA1D1E900011CF0BCF800228046D0
:104C70008946274B304639461BF08AFF02460B46D1
:104C8000404649461BF084FF399BC3E900010022DE
:104C9000DAE900011D4B1BF07BFF02460B4610A119
:104CA000D1E900011CF09EF8002206460F46184B81
:104CB000204629461BF06CFF02460B46304639461B
:104CC0001BF066FF3A9BC3E900012FB0BDE8F08FEF
:104CD000000000A046DF913F00000020DCA54C4012
:104CE000000000000020AC40509DFF1F4493FF1FB8
:104CF00000002440D094FF1FF098FF1F00807640F2
:104D0000008066C000806640709CFF1F00002E403F
:104D10000000E03F004059402DE9F04786B006AC66
:104D2000002344F8043D05468A4614F05DF88046A9
:104D30002846894614F054F81BA3D3E900231BF03E
:104D400027FF04AD06460F4617A3D3E900234046CC
:104D500049461BF01DFFCDF800A0029432463B46A9
:104D60000195FFF73BFE72B6114E049B114C059D59
:104D7000736118466561336125611BF0A3FEC6E9C6
:104D8000060128461BF09EFEC4E9060162B60A4BE6
:104D90001B780BB1FBF73CFC084B002201201A707A
:104DA00006B0BDE8F08700BF00000020DCA54C4045
:104DB000B096FF1F6093FF1F0294FF1FF087FF1F35
:104DC0002DE9F047144D154C6D78154E9AB0864676
:104DD0008DF82050D4E90045CDE90A45069608AD86
:104DE0008A46904699460F4C0FCDD4E900676C4631
:104DF000CDE90C670FC495E80300424684E8030040
:104E00004B4671460EA813F037FE51460EA8FFF729
:104E100083FF1AB0BDE8F0874493FF1F3087FF1F60
:104E2000D094FF1FE887FF1F10B58CB00C46054AD1
:104E30000146684613F0F0FE21466846FFF76CFF16
:104E40000CB010BDD094FF1F30B5044685B072B6CB
:104E5000174A184B10691D6962B61BF033FE164BDA
:104E6000D3E904231BF0BEFF0FA3D3E900231BF0FB
:104E70008FFECDE9020128461BF024FE0F4BD3E93B
:104E800004231BF0AFFF08A3D3E900231BF080FE2F
:104E90000022CDE900010023204613F015FF204633
:104EA00005B030BDAFF30080000000A046DF913FA9
:104EB000B096FF1F6093FF1FF098FF1F709CFF1FAD
:104EC000F0B5814CE36985B00546002B00F0BC804D
:104ED0001A7C012A47D972B6D86862B61BF0F2FD77
:104EE000D4E900231BF07EFF637A002B32D0024608
:104EF00001F1004310461946744C71A3D3E9002315
:104F00001BF046FEE36906460F46002B00F0A38027
:104F10001A7C012A5ED972B6D86862B61BF0D2FD3F
:104F2000D4E900231BF05EFF637AB3B101F10043C3
:104F3000194663A3D3E900231BF02AFECDE9020141
:104F4000CDE9006700220023284613F0BDFE284665
:104F500005B0F0BD02460B46CCE759A3D3E90023C8
:104F60001BF016FEEAE772B61A68586811780678E0
:104F7000587A1A7A064201EA020177D09A7A02F048
:104F8000030209B142F0040242F008029110013A12
:104F900099720D2AA0D801A151F822F0B550000055
:104FA000AD500000A5500000AD500000D94E0000EB
:104FB0009D500000B5500000B55000009D5000000D
:104FC000D94E0000AD500000A5500000AD500000CB
:104FD000B550000072B61A685868117890F800E071
:104FE000587A1A7A1EEA000F01EA020136D09A7A3C
:104FF00002F0030209B142F0040242F008029110EB
:10500000013A99720D2A87D801A151F822F000BF08
:10501000955000008D500000855000008D5000001C
:10502000194F00007D500000955000009550000081
:105030007D500000194F00008D5000008550000089
:105040008D50000095500000204CE3690026002799
:10505000002B7FF45DAF002000216FE79A7A02F009
:1050600003020029CBD042F00402C8E79A7A02F08A
:10507000030200298AD042F0040287E7D868023888
:10508000D8604AE7D8680230D86046E7D868013867
:10509000D86042E7D8680130D8603EE7D868023867
:1050A000D8601AE7D8680230D86016E7D8680138A7
:1050B000D86012E7D8680130D8600EE7AFF30080FF
:1050C000000000A046DF913F509CFF1F309CFF1F57
:1050D0002DE9F0419AB080460EA816461F46FFF70C
:1050E000B3FE104A104B52788DF82020D3E90023EC
:1050F000CDE90A2308AD0FCDCDE906670B4CD4E905
:1051000000676C46CDE90C670FC495E80300084AB8
:1051100084E8030040460EA913F042FE40461AB050
:10512000BDE8F0814493FF1F3087FF1FE887FF1F12
:105130008894FF1F2DE9F0419AB080460EA81646CC
:105140001F46FFF7BDFE104A104B52788DF8202005
:10515000D3E90023CDE90A2308AD0FCDCDE90667D9
:105160000B4CD4E900676C46CDE90C670FC495E899
:105170000300084A84E8030040460EA913F010FE1D
:1051800040461AB0BDE8F0814493FF1F3087FF1FEF
:10519000E887FF1F8894FF1F70B50E4D98B0064634
:1051A0000CA8FFF751FE0FCD06AC0FC495E8030025
:1051B00006AD84E803000FCD6C460FC495E80300EC
:1051C000054A84E8030030460CA913F095FD3046EB
:1051D00018B070BD387C02008894FF1F70B5124B68
:1051E0001B7898B0064623B9FFF7D6FF304618B0B3
:1051F00070BD0E4D0CA8FFF763FE0FCD06AC0FC4BB
:1052000095E8030006AD84E803000FCD6D460FC599
:1052100094E80300064A85E8030030460CA913F021
:105220006BFD304618B070BD0294FF1F387C020041
:105230008894FF1FFFFFFFFF2DE9F047674CA3781D
:10524000413BB0B0312B00F2D882DFE813F04000D0
:10525000D602D6025F007C00D602D602D602CD006E
:105260009901D602CC018A02D602BD02EA01D60219
:105270002B02D6027502D602D602D602D602D6027A
:10528000D602D602D602D602D602D602D602D6025E
:10529000D602D602D602D602D602D602D602D6024E
:1052A000D602D6027F02D602D602D602D602D60295
:1052B0003200E378702B01F0A481742B00F084831A
:1052C000672B01F0DD81464B23221A8098E2454A84
:1052D0001278002309930A930B930C930D930E936A
:1052E000109316932293002A41F09881E378303B83
:1052F000082B01F2F981DFE813F04B06410637066F
:105300002D06230619060F060506FB05E378423B2A
:10531000152B00F2E985DFE813F07504E705E705D2
:10532000E705E705E705E705E705E705E705E7051D
:10533000E705E705E7056804E7055D04E705E70518
:10534000E705E7054804E278A2F13103412B01F2B9
:105350005A80DFE813F08E048E0458085808580865
:10536000580858085808580858085808580858083D
:105370005808580858085D0558085808D2045808B5
:10538000580858085808580858085808580858081D
:105390005808CB04B6045808D204580858085808CE
:1053A00058085808580858085D05580858085808FB
:1053B00058085808580858085808580858085808ED
:1053C00058085808580858085808580858085808DD
:1053D0005808580858085808AB0400BF7897FF1FB2
:1053E000CC9CFF1FA996FF1F72B6934D934E2B695D
:1053F000306962B6924B1B685A42904280F2038237
:105400000220904B202103F1320203F8011F9A423F
:10541000FBD18D4A8D4F8E498E4B12788E4C097878
:1054200097F800C01B78DFF878E227788B4C1832A9
:1054300001EB420230331CF80E1022706370A17031
:105440000FB14823E370864B864A1B781278834954
:1054500030332371002A01F0C78040234B71824B07
:105460001A78814B012A01F0C8801A78022A01F0CB
:10547000C4801A78032A01F030811B78042B04BF02
:105480002D23A371794B1A7C022A01F0DB801A7C50
:10549000FE2A01F014811A7CFF2A01F0E9801B7CAE
:1054A000012B01F0E580724B02281A7C01F0D280BA
:1054B000022A01F0CB801A7CFE2A01F0D1801A7CEE
:1054C000FF2A01F0D9801B7C012B01F0D5806B787D
:1054D0000BB973780BB166236372664A664B117819
:1054E000664A1B7812785D4D00290CBF30213121AE
:1054F0003033012AE172A37201F0B680022A01F072
:10550000DA80042A01F0D080032A01F0F2805523CA
:105510002B735B4901284FF000024FF00003D1E9E3
:10552000020101F0BB801BF0B9FD002814BF572316
:1055300045236373534B1B78002B41F03E8041227F
:10554000514B52491B785248C97AA2733033E373E6
:10555000037821B14F4AD27A0AB143F002034E4A8E
:1055600012780AB143F004034C4A12780AB143F0AE
:10557000080341332321002223746174A2743FE1A4
:10558000E378423B2B2B00F23B81DFE813F0A704CA
:1055900090043901390139013901390139013901E1
:1055A000390139019704390139017104390139018F
:1055B00084047F0439013901390139013901390184
:1055C000390139013901390139013901390139010B
:1055D00039013901390139013901390139013901FB
:1055E000390139016704E378413B162B00F28987C2
:1055F000DFE813F03C062D064B06F405E0058707AF
:105600008707D805870787078707870787078707DB
:10561000D005870787078707C8058707EB04870733
:10562000D804E378313B032B01F23080DFE813F03C
:105630008A01AB01F000F000B096FF1F6093FF1FDE
:10564000709CFF1FCB9CFF1F4897FF1F5899FF1F9F
:10565000F999FF1F109DFF1FF087FF1FCC9CFF1FB4
:10566000909DFF1F6499FF1F0494FF1F1094FF1F5C
:105670006096FF1FA996FF1F7487FF1F8187FF1F7A
:10568000509DFF1FC887FF1F5896FF1F309CFF1FAC
:105690000294FF1F509CFF1F2C9CFF1F6C99FF1F43
:1056A000E47C0200E378303B422B00F22587DFE800
:1056B00013F0B705B705B705B70523072307230779
:1056C000230723072307230723072307230723078A
:1056D000230723073305E6042307D70423072307FB
:1056E000230723072307230723072307230723076A
:1056F000230723072307230723072307230723075A
:105700002307BC04230723072307230723072307B3
:1057100023072307230723072307500548056105AF
:105720002307AB04230723072307230723072307A4
:10573000230723072307A405E378303B032B5FD817
:10574000DFE813F0F101C80193016C01E378413BFC
:10575000032B00F2B887DFE813F057014D011E025A
:105760004301E378423B2B2B00F2D086DFE813F0B5
:10577000E2051E06CE06CE06CE060006CE06B00513
:10578000CE06CE069C053C06CE06CE06CE06CE063E
:105790000F06D305CE06CE06CE06CE06CE06CE0624
:1057A000CE06CE06CE06CE06CE06CE06CE06CE0659
:1057B000C4052D06CE06CE06CE06CE06CE06CE06F5
:1057C000CE06CE06CE06F105E378413B122B17D864
:1057D000DFE813F037023102490216001600160006
:1057E00016001600420216001600160016001600DB
:1057F00016001600160016002302A74B23221A805B
:1058000030B0BDE8F0879842CCBF02200120F8E517
:10581000A24D9BA3D3E90023D5E902011BF0B8F9FF
:105820000DF1880A02460B465046FFF751FCD5E9B8
:10583000020193A3D3E900231BF0AAF9984A994BDC
:1058400052788DF84020D3E90023CDE91223894610
:10585000954906910DF1400E8046944DBEE80F002B
:10586000D5E900676D46CDE914670FC59EE80300D2
:1058700042464B4685E80300514616A813F0FCF853
:1058800016A813F0B1FA80A3D3E900231BF080F926
:10589000CDE90E0116A813F0A3FA7BA3D3E90023E8
:1058A0001BF076F906460F46CDE92267DDE90E01C9
:1058B00072B67F4A7F4B12691B6962B67E4D2A68B9
:1058C000C2F1000E7345C0F20C879342CCBF022395
:1058D00001230DF1340C0DF1300ECDF808C0CDF8D8
:1058E00004E0324600933B46FFF778F80C981BF033
:1058F000E9F8724BD3E904231BF074FACDE90E01E9
:105900000D981BF0DFF8D5E904231BF06BFAE37860
:10591000614C332B6A4B1B7800934FF00103CDE9A8
:10592000220107BF1A460EA951461A465A480DF0E1
:10593000A3FF20461DF024F902222044614913F000
:10594000B3FF5DE772B65A4B18691BF0BBF85B4BAF
:10595000D3E904231BF046FA30AA62E90E0162B6CD
:10596000574B4D4C1B7800930123114620461A4695
:105970000DF082FF20461DF003F902222044514918
:1059800013F092FF3CE772B64A4B18691BF09AF885
:10599000494BD3E904231BF025FA30AA62E90E0132
:1059A00062B6474B3C4C1B780093012311462046BE
:1059B0001A460DF061FF20461DF0E2F80222204455
:1059C000404913F071FF1BE7354B9B78002B00F02B
:1059D0001D863D4B304A1B6813801B0C93700FE7EC
:1059E000354B586C1BF006FF384902462A481CF01C
:1059F000ADFE05E7314B586C1BF0FCFE3349024607
:105A000025481CF0A3FEFBE62C4B186C1BF0F2FEA5
:105A10002E49024620481CF099FEF1E61F4B1E4C11
:105A2000D3E9020116A3D3E900231BF0B1F8024623
:105A30000B4622A8FFF74CFB22A813F043F814A34F
:105A4000D3E900231BF0A4F830AB63E91A0101226B
:105A5000194620460DF0B4FD20461DF091F80222B3
:105A60002044184913F020FFCAE614F09DFA1849A3
:105A7000024609481CF06AFEC2E600BFAFF3008090
:105A8000000000A046DF913F00000020DCA54C4054
:105A9000000000A0C88E0E40CC9CFF1F509DFF1F31
:105AA0004493FF1F3087FF1FD094FF1FE887FF1F1D
:105AB000B096FF1F6093FF1F709CFF1FF098FF1FA1
:105AC0004987FF1F787C0200BC7C0200A87C020092
:105AD000A07C020014F068FAB14CE06011F0D0F83C
