:1000000000800020BD010000F9970100B1970100B8
:10001000B1970100B1970100B1970100B1970100BC
:10002000B1970100B1970100B1970100F997010064
:10003000F9970100B1970100D98C0100DD8C010016
:10004000F9970100F9970100F9970100F99701006C
:10005000F9970100F9970100F9970100F99701005C
:10006000F9970100F9970100F9970100F99701004C
:10007000F9970100F9970100F9970100F99701003C
:10008000F9970100F9970100F9970100F99701002C
:10009000F9970100F9970100F9970100F99701001C
:1000A000F9970100F9970100F9970100F99701000C
:1000B000F9970100F9970100F9970100F9970100FC
:1000C000F9970100F9970100F9970100F9970100EC
:1000D000F9970100F9970100F9970100F9970100DC
:1000E000F9970100F9970100F9970100F9970100CC
:1000F000F9970100C1A80100F997010001B20100C0
:10010000F997010015B90100F9970100F99701006D
:10011000F9970100F9970100F9970100F99701009B
:10012000F9970100F9970100F9970100F99701008B
:10013000F9970100F9970100F9970100F99701007B
:10014000F9970100F9970100F9970100F99701006B
:10015000B9910100CD910100E1910100F5910100FB
:10016000F997010011BC0100F9970100F99701000E
:10017000F9970100F9970100F9970100F99701003B
:10018000F9970100F9970100F9970100F99701002B
:10019000F9970100F9970100F9970100F99701001B
:1001A000F9970100F9970100F9970100F99701000B
:1001B000F9970100F9970100F9970100564B4CF2AD
:1001C000205210B51A804DF628121A8000BF00BFC9
:1001D00019F016FB514B4FF010621A60504A9A60AA
:1001E000504ADA60504A136813F4807304D14F49BF
:1001F0000B604FF4A85313604D4B1A78110703D5C9
:100200001A7842F008021A704A4B4B492A221A7097
:100210004A4A4B4B8B4204D252F8040F43F8040B6A
:10022000F8E7484B484900228B4202D243F8042B9E
:10023000FAE74649464A002352F8230041F82300D2
:1002400001336F2BF8D1434B434A802103F8011B44
:100250009342FBD1414B3D4A1A60414B8A221A70AE
:10026000A3F5805324225A70A0221A709A7992071B
:10027000FCD59A79D406FCD43A4A937903F00C035E
:10028000082B384BF9D103221A7140225A719A79FE
:100290009006FCD5334A9179324B4906FBD5324A58
:1002A000324911600221516020221A709A7902F0BD
:1002B0000C020C2AFAD12E4B2E4A1A602E4B2F4AD2
:1002C0001A6000225A60072243F8042C2C4AC3F813
:1002D0000C2D62B619F032FD144B1B68DA0705D5F8
:1002E000284819F017FD284B284A1A60284B1B781C
:1002F0005B0609D5244C254B22689A4204D121483B
:1003000019F008FD0023236019F080FA21F030FC79
:1003100019F072F9FEE700BF0E200540308004405E
:10032000823F04000100002B10D0034014D0034092
:1003300002D0074000E007403093FF1F18890200F9
:100340002087FF1F3093FF1FD4A0FF1F0082FF1FD5
:100350000000000000E400E05FE400E008ED00E0E1
:100360000050064000400640448004400000030165
:1003700004800440C010050014E000E0FF76010096
:1003800000002020EBE53C661CE00340A5C3945A26
:1003900000F00740FFFFFFFFFFFFFFFFFFFFFFFF32
:1003A000FFFFFFFFFFFFFFFFFFFFFFFFFFFFFFFF5D
:1003B000FFFFFFFFFFFFFFFFFFFFFFFFFFFFFFFF4D
:1003C000FFFFFFFFFFFFFFFFFFFFFFFFFFFFFFFF3D
:1003D000FFFFFFFFFFFFFFFFFFFFFFFFFFFFFFFF2D
:1003E000FFFFFFFFFFFFFFFFFFFFFFFFFFFFFFFF1D
:1003F000FFFFFFFFFFFFFFFFFFFFFFFFFFFFFFFF0D
:10040000FFFFFFFFFFFFFFFFFFFFFFFFDEF9FFFF23
:1004100010B5054C237833B9044B13B10448AFF33E
:1004200000800123237010BD3093FF1F00000000E7
:1004300014890200084B10B51BB108490848AFF3F6
:1004400000800848036803B910BD074B002BFBD0A0
:10045000BDE81040184700BF000000003493FF1FA4
:10046000148902003093FF1F0000000019F04CBCFB
:1004700010B5044618F07EFE204610BD10B582B0BF
:10048000044619F077F88DF80600601C19F072F830
:100490008DF80700BDF9060002B010BD38B50C4656
:1004A000054619F067F82070681C19F063F8607051
:1004B000A81C19F05FF8A070E81C19F05BF8E07058
:1004C00038BD00BF2DE9F04791F8784082B02CB1DB
:1004D000D1E920670124C2E900671C70274C247809
:1004E000002C3ED0264C2478002C3AD191F878404C
:1004F000002C36D11C78002C33D0007C002830D161
:100500001C4692460D4672B6D1E9060120F0BCFDAC
:100510002B69C01A286262B62B6A0193019B002BDB
:1005200029DD019820F09AFA8046A86E894620F0CD
:1005300095FAD5E9182320F0F7FA0022114B064668
:100540000F4620F077FD08B90E4F002632463B4695
:100550004046494620F05AFD30B172B60023237060
:1005600062B602B0BDE8F08772B6D5E91223CAE9D7
:10057000002362B6F5E701984042D3E7C899FF1F10
:100580009095FF1F0000F03F0A4B1B782BB1037CB6
:10059000022B03D0037CFE2B00D07047037C022B80
:1005A00005D0037CFE2BF8D1FF2303747047012391
:1005B0000374F6E75C97FF1F024B1878003018BFF2
:1005C000012070470C94FF1F014B31221A807047A5
:1005D000CC9CFF1F0B4B1B7810B573B10A4C7F22CC
:1005E000002322706370084822F0AAFA02222044F5
:1005F0000649BDE8104019F007B8034C03F0FF02AC
:100600002270F0E79095FF1FCC9CFF1F387C020002
:10061000F8B572B61F4A204B10691D6962B620F00A
:100620001DFA1E4BD3E9042320F0A8FB1C4BDC6908
:1006300074B15A7A064632BB0F46D3E900233046DE
:10064000394620F071FA20F01FFD72B6E06062B604
:10065000284620F003FA134BD3E9042320F08EFB45
:10066000114BDC6974B15A7A06467AB90F46D3E960
:1006700000233046394620F057FA20F005FD72B6C7
:10068000E06062B6F8BD01F10047D6E701F100472E
:10069000EDE700BFF894FF1F6893FF1F209CFF1F2A
:1006A000009CFF1F709CFF1F1894FF1F3E4A70B5EF
:1006B00002233E4D13602A78002A43D03C4E00238B
:1006C000337072B63B4CD4E9060120F0DDFC23699F
:1006D000C01A206262B6236A002B3BD0236A364AD6
:1006E0003449D27B002BD4BF0023012384F8283067
:1006F000002A34D091F82830002B34D02F4B01221F
:100700001A602F4B1A78012A4BD01A78023A18BF78
:10071000012294F82810274B00292FD0D86FD3F846
:100720008810884200DA12BBD4F88830E3670023CF
:1007300084F8783023690133236101233370002367
:100740002B7070BD1A4A12780AB11E4A1360012339
:100750002B7070BD94F87830002BBFD1EFE791F883
:100760002830002BCAD0184B01221A60C9E7DA6F73
:1007700001210A44DA6783F87810DEE7D96F00298F
:1007800007DD32B1DA6F0121013ADA6783F87810B8
:10079000D3E70023E36784F878302369013B2361C2
:1007A000CBE70022B5E700BF88F00F402487FF1F8A
:1007B000D194FF1FF894FF1F6897FF1FC4F00F40EC
:1007C0000C94FF1F84F00F40C8F00F4010B4064B8C
:1007D000064A1878C8246F21002304FB001019462C
:1007E00010BC137018F0E0BEBC95FF1FD894FF1F1B
:1007F00060492DE9F0470D78002D6DD05E4E5F4CBD
:100800005F49DFF88CA196F800E0267809789AF81D
:100810000040BEF1000F08BF002E0CBF4FF0010ECC
:100820004FF0000EC9B2002C52D18E4554D91E464D
:1008300017460446194610460023002220F0DCFB30
:10084000002840F081809AF80030042B04D04D4BF2
:100850004D4A197811701870237C5BB2002B3DDD76
:10086000D4E90289002200234046494620F0E2FBF9
:100870004FF00105002840D0EDB2237C73B1002376
:1008800038463146002220F0DFFB4FF0010300B96B
:10089000034683F00103DBB29D424CD0384631461B
:1008A0000022002320F0D0FB002852D038463146E9
:1008B00042464B4620F0A0FB08B304238AF80030E0
:1008C00002232374314A002313702360BDE8F087AC
:1008D0009AF80040042CA8D0BDE8F087237C1B06C2
:1008E000D4E90289C9D5002200234046494620F0B8
:1008F00097FB4FF001050028BED10546BCE7354601
:100900003A462B46C4E9022372B6216AD4E902238F
:10091000D1E9000120F008F9C4E9060162B6042516
:1009200038463146002200238AF8005020F08CFB24
:100930000028C5D11AE000224FF0804340464946C6
:1009400020F082FB0028A9D02046BDE8F047FFF741
:100950001BBE06F100453846294642464B4620F06C
:100960004BFB0028CCD004238AF80030FE232374EC
:10097000A8E700BF5C97FF1F4897FF1FA094FF1FC9
:100980009095FF1FC899FF1FD994FF1FF487FF1F81
:100990000C94FF1F3F4A70B520233F4D13602A7807
:1009A000002A44D03D4E0023337072B63C4CD4E94B
:1009B000060120F069FB2369C01A206262B6236A2F
:1009C000002B3CD0236A374A3549D27B002BD4BF59
:1009D0000023012384F82830002A35D091F82830EC
:1009E000002B35D0304B4FF400521A602F4B1A7841
:1009F000012A4CD01A78023A18BF012294F8281024
:100A0000274B002930D0D86FD3F88810884200DAFD
:100A10001ABBD4F88830E367002384F87830236960
:100A2000013323610123337000232B7070BD1B4AF7
:100A300012780AB11E4A136001232B7070BD94F81E
:100A40007830002BBED1EFE791F82830002BC9D0C9
:100A5000184B4FF400521A60C8E7DA6F01210A44BC
:100A6000DA6783F87810DDE7D96F002907DD32B146
:100A7000DA6F0121013ADA6783F87810D2E70023B0
:100A8000E36784F878302369013B2361CAE70022D9
:100A9000B4E700BFC8F00F404887FF1F4C9DFF1F01
:100AA0006893FF1FA897FF1F04F00F400C94FF1FCF
:100AB000C4F00F4008F00F4030B583B0CCB2ADF8B1
:100AC0000610054618F056FD844203D021462846FC
:100AD00018F06AFD0135284618F04CFD9DF80740D6
:100AE000844203D02146284618F05EFD03B030BD95
:100AF00030B583B0CCB2ADF80610054618F03AFD1B
:100B0000844203D02146284618F04EFD0135284680
:100B100018F030FD9DF80740844203D02146284656
:100B200018F042FD03B030BDF8B50D460E7804460E
:100B300018F020FD864203D03146204618F034FDDF
:100B4000661C304618F016FD6F78874203D0394690
:100B5000304618F029FDA61C304618F00BFDAF7882
:100B6000874203D03946304618F01EFD0334204634
:100B700018F000FDED78854205D029462046BDE8F5
:100B8000F84018F011BDF8BD10B5494C494994F929
:100B90002C30013BDAB20020032A087006D84649FF
:100BA000606951F82220904228BF1046032B10D8CC
:100BB000DFE803F0740266581FF040FF3AA3D3E960
:100BC000002320F0DBF820F087FA81B2606B17F089
:100BD000ADFB3A4C94F92C30013BDAB2032A0CD825
:100BE0003549606951F82220904228BF1046032BF6
:100BF00059D8DFE803F0312213040020F7E71FF093
:100C00001DFF29A3D3E9002320F0B8F820F064FAEF
:100C100081B2E06BBDE8104017F010BB1FF00EFF73
:100C200021A3D3E9002320F0A9F820F055FA81B2DE
:100C3000A06BBDE8104017F0FFB91FF0FFFE1AA32C
:100C4000D3E9002320F09AF820F046FA81B2606BD5
:100C5000BDE8104017F06ABB0146206BBDE81040AC
:100C600016F03EBA1FF0EAFE0FA3D3E9002320F0EE
:100C700085F820F031FA81B2E06B17F0DFFAA8E7CF
:100C80001FF0DCFE08A3D3E9002320F077F820F062
:100C900023FA81B2A06B17F0CFF99AE70146206BD7
:100CA00016F01EFA95E710BDCD3B7F669EA0F63F7D
:100CB0006897FF1F0D94FF1F287C0200A897FF1F55
:100CC00010B54B4C4B4994F92C30013BDAB2012062
:100CD000032A08702DD84849E06951F82220904233
:100CE00028BF1046032B10D8DFE803F07602685ABD
:100CF0001FF0A4FE3CA3D3E9002320F03FF820F02E
:100D0000EBF981B2606B17F011FB3C4C94F92C307D
:100D1000013BDAB2032A0ED83749E06951F82220A4
:100D2000904228BF1046032B5BD8DFE803F0332442
:100D300015060020D6E70020F5E71FF07FFE2AA366
:100D4000D3E9002320F01AF820F0C6F981B2E06B55
:100D5000BDE8104017F072BA1FF070FE22A3D3E96D
:100D6000002320F00BF820F0B7F981B2A06BBDE8AA
:100D7000104017F061B91FF061FE1BA3D3E90023F7
:100D80001FF0FCFF20F0A8F981B2606BBDE81040B5
:100D900017F0CCBA0146206BBDE8104016F0A0B9A0
:100DA0001FF04CFE10A3D3E900231FF0E7FF20F053
:100DB00093F981B2E06B17F041FAA6E71FF03EFE0F
:100DC00009A3D3E900231FF0D9FF20F085F981B2F0
:100DD000A06B17F031F998E70146206B16F080F907
:100DE00093E710BDAFF30080CD3B7F669EA0F63F3A
:100DF0006897FF1F0D94FF1F287C0200A897FF1F14
:100E00002DE9F0434C4A4D4E4D4D83B00021012356
:100E10000A20117033702B7019F046F9494B1C7879
:100E200004EB840404EB8404E40004F1650018F08E
:100E3000A1FB8DF8040004F1660018F09BFB8DF80F
:100E4000050004F1670018F095FB8DF8060004F129
:100E5000680018F08FFB8DF8070004F1690018F0A6
:100E600089FB019F8DF8040004F16A0018F082FBF1
:100E70008DF8050004F16B0018F07CFB8DF806007E
:100E800004F16C0018F076FB2F4B8DF80700587BAF
:100E9000019C1FF0D3FD02460B4600204FF080411D
:100EA0001CF0A8F88046894638461FF0D7FD424618
:100EB0004B461FF039FE20F0E7F8244B0746587BDD
:100EC0001FF0BCFD02460B4600204FF080411CF095
:100ED00091F88046894620461FF0C0FD42464B46A9
:100EE0001FF022FE20F0D0F8044672B63846776133
:100EF0006C6137612C611FF0B1FDC6E90601204627
:100F00001FF0ACFDC5E9060162B6114A114B11781C
:100F10001B78114A01290CBF02210021117043B92D
:100F20000E4B1B780BB9FFF7CBFE012003B0BDE8D9
:100F3000F083FFF76DFBF3E7F487FF1FF894FF1FC3
:100F40006893FF1FBC95FF1F6897FF1FA897FF1F9F
:100F50008187FF1F0A94FF1FB89BFF1F0D94FF1F7F
:100F60002DE9F04FD1E910678BB0CDE904670C464D
:100F700091F87810149D21B91F46037C0646002B7A
:100F800039D1B14B1B78D5E90001002B00F04C8121
:100F9000D4E916231FF016FC024621F00043CDE9E8
:100FA0000623DDE90667002200233046394620F09B
:100FB00023F8002840F06C8132463B46D4E90E010C
:100FC0001FF0DCFE06460F4602460B46DDE918011F
:100FD00020F03AF8002800F02E8132463B46DDE949
:100FE000160120F01DF8002800F02281C4E91467E2
:100FF0000BB0BDE8F08FD0E9028992464046DDE9AA
:101000000423494620F002F8002840F027818F4B46
:101010001B78002B40F0B781337CDFF83CB2190617
:101020004CBF8B4B8B4B0022CBE90023337CFF2B37
:1010300000F03581337C012B00F03181D4E90223AB
:10104000104619461FF0BEFBDBE900897CA3D3E9FB
:1010500000231FF069FD42464B461FF065FDD5E9B0
:101060000089DAE900231FF089FE42464B461FF053
:10107000A9FBC5E90001D5E90001002200231FF00A
:10108000C5FF002840F08781DDE90401D5E9002390
:101090001FF0D0FF002800F0748104ABD3E90023D7
:1010A000C5E90023337C5BB2002B40F3BB81D6E95A
:1010B0000289D5E9000142464B461FF0C5FF08B939
:1010C000D5E90089C5E90089337CFF2B03D0337C47
:1010D000012B7FF456AFD5E90023CDE90823DDE9E4
:1010E0000801002200231FF0AFFF002800F00C8150
:1010F000DDE90823DDE904011FF088FF002800F086
:10110000098172B6D4E906011FF0BEFF2369C01A37
:10111000206262B6D4E91423D4E91C011FF02EFE2C
:1011200002460B461FF000FDD4E902AB804689461B
:1011300052465B46504659461FF044FB0B4602465A
:10114000494640461FF01AFE1FF09EFF236A002BFF
:101150008046C0F2138172B6206940441FF07EFCC5
:10116000C4E90601C4F8208062B6236A0293029B98
:101170000298002BD8BF40421FF070FC8046A06E42
:1011800089461FF06BFCD4E918231FF0CDFC002228
:10119000304B82468B461FF04DFF002800F0F68052
:1011A00052465B46404649461FF030FF00283FF458
:1011B000E8AE0021002200233174C5E9002372B695
:1011C000D7E906011FF060FF3B69C01A386262B6BA
:1011D0003B6A0193019B0198002BD8BF40421FF04E
:1011E0003DFC8046B86E89461FF038FCD7E91823CD
:1011F0001FF09AFC0022174B06460F461FF01AFFFD
:10120000002800F01D8132463B46404649461FF00B
:10121000FDFE00283FF4B5AE0C4B1B78002B7FF48D
:10122000B0AEFFF74DFDACE6024621F00043B6E656
:10123000DDE91667DAE6DDE91867CEE6AFF3008090
:1012400000000040E17A843FC899FF1F0D94FF1F02
:101250000000F0BF0000F03FC09CFF1FD5E9002355
:10126000104623F00041DDE904231FF0CFFE0028E3
:101270003FF4CDAE337C5BB2002B3FF723AF337C22
:10128000180600F1C9804FF000084FF0000919E777
:10129000DDE91823C4E914230BB0BDE8F08FD4E9CD
:1012A0000223104619461FF08DFADBE9008966A378
:1012B000D3E900231FF038FC42464B461FF034FCB4
:1012C000DAE900231FF05AFDD5E9008902460B46F2
:1012D000404649461FF074FAC5E900010022DBE9E7
:1012E00000015B4B1FF088FE002872D0D5E9000199
:1012F000DDE904231FF09EFE00287ED104ABD3E974
:101300000023C5E90023B6E6DDE90801024601F144
:101310000043EFE672B6D4E906011FF0B5FE23697B
:10132000C01A206262B6D4E91423D4E91C011FF06C
:1013300025FD02460B46D4E902AB1FF0F5FB5246F1
:10134000804689465B46504659461FF03BFA0B469D
:101350000246494640461FF011FD1FF095FE236AE4
:101360000393039B002B039BD8BF5B4298428046AC
:10137000BFF6FBAE236A002BBFF6EDAEC8F1000846
:10138000E9E62B468AE6FFF7FFFB45E64FF0000A49
:10139000DFF8BCB004E7DDE9042303F1004990461F
:1013A00010464946D5E900231FF030FE10B3C5E9C9
:1013B0000089337C5BB2002B21DDD6E90289D5E9B7
:1013C000000142464B461FF02BFE00287FF47AAE08
:1013D00076E6DDE9042303F10049904610464946CC
:1013E000D5E900231FF030FE08B1D5E90089C5E931
:1013F000008940E6D5E90089D9E72B467FE7337CB1
:101400001A064FF000084FF00009D8D5F368D6F857
:10141000088003F10049D2E7414609F100438846BC
:1014200099464FE6337C1B064FF000084FF0000949
:101430007FF53FAEF368D6F8088003F1004938E63F
:101440000026034FDFE600BF00000040E17A843F42
:101450000000F03F584A59491368F0B50133136052
:101460000B788BB0002B69D05549564C564B5748DA
:10147000D1E914670AAA62E90267FFF723F8DDE9F8
:101480000801D4E900231FF0B7FD08BB0022504B30
:10149000DDE908011FF048FB1FF03EFE0021054674
:1014A00020F040F980B94B49284620F04FF958B94F
:1014B000494928461FF08EFF4FF07C511FF080FEF7
:1014C00020F08AF923286BD8DDE90823C4E900233A
:1014D0004249434C434B4448D1E914670AAA62E9A4
:1014E0000467FEF7EFFFDDE90601D4E900231FF0F2
:1014F00083FD08BB0022364BDDE906011FF014FB1B
:101500001FF00AFE0021054620F00CF980B9314990
:10151000284620F01BF958B92F4928461FF05AFFDA
:101520004FF07C511FF04CFE20F056F923283DD897
:10153000DDE90623C4E900230BB0F0BD2B4A2C499A
:101540002C4B0091D2E90001D3E900231F4C264D1A
:10155000CDE90401CDE902232046204B264A184953
:10156000FFF7FEFC254A2649264B0091D2E90001EF
:10157000D3E90023CDE90401CDE902232846104B2D
:10158000214A1649FFF7ECFC237C002B7FF46CAF5B
:101590002B7C5BB2002B7FF467AF1C4A137063E7B0
:1015A0001B4B1B68002B8FD018608DE7194B1B68F5
:1015B000002BBDD01860BBE73096FF1F9095FF1F32
:1015C000F894FF1FC09BFF1F0994FF1F3894FF1F53
:1015D0000000E03FABAAAA4C000040426893FF1F06
:1015E000C89BFF1F9194FF1FA894FF1FD087FF1F68
:1015F000E894FF1F4087FF1F409CFF1FD887FF1FF5
:10160000389DFF1FC087FF1F909CFF1F0C94FF1F7A
:101610005893FF1F6093FF1FF8B57B4CE369002BC5
:1016200000F0BE801A7C012A4BD972B6D86862B627
:101630001FF014FAD4E900231FF0A0FB627A0346DE
:101640000AB101F10041714A714D1846D2E90423F3
:101650001FF06AFA1FF018FDEB690446002B00F03A
:10166000A1801A7C012A63D972B6D86862B61FF0CD
:10167000F5F9D5E900231FF081FB6A7A03460AB128
:1016800001F10041634A1846D2E904231FF04CFAE5
:101690001FF0FAFC064672B65F4F604D7C61204633
:1016A0006E613C612E611FF0D9F9C7E90601304631
:1016B0001FF0D4F9C5E9060162B6594B00221A7031
:1016C000F8BD72B61A68586811780578587A1A7A8F
:1016D000054201EA02016FD09A7A02F0030209B1D1
:1016E00042F0040242F008029110013A99720D2A68
:1016F0009CD801A151F822F001180000F917000050
:10170000F1170000F91700002D160000E91700007E
:101710000118000001180000E91700002D16000054
:10172000F9170000F1170000F91700000118000078
:1017300072B61A68586811780678587A1A7A06428A
:1017400001EA020130D09A7A02F0030209B142F0B4
:10175000040242F008029110013A99720D2A84D8CD
:1017600001A151F822F000BFE1170000D9170000D5
:10177000D1170000D91700006B160000C917000030
:10178000E1170000E1170000C91700006B16000008
:10179000D9170000D1170000D9170000E117000089
:1017A000194650E719466DE79A7A02F003020029BC
:1017B000D1D042F00402CEE79A7A02F00302002967
:1017C00092D042F004028FE7D8680238D8604DE723
:1017D000D8680230D86049E7D8680138D86045E752
:1017E000D8680130D86041E7D8680238D8601EE771
:1017F000D8680230D8601AE7D8680138D86016E790
:10180000D8680130D86012E7009CFF1F209CFF1FA2
:101810001894FF1F709CFF1FF894FF1F6893FF1F11
:10182000F487FF1F30B583B005469DF8181000916E
:1018300017F03EFD0446284617F0E6FC204403B0AE
:1018400030BD00BFFFFFFFFF2DE9F04F8FB00EAF9F
:10185000DDE91C451A9E07F8086DC0E90A45189E87
:1018600003904E318DF835203846199A8DF8312085
:101870008DF834308DF836108DF8326015F0C0FADE
:10188000D94904461E981FF0A5FD1FF07FFF0444B0
:10189000204618F03FFA204615F0E2FB18F034FA23
:1018A000044615F09DFA0646204615F08BFA0546CB
:1018B000204615F079FA6B1E012B98BF06F1FF3612
:1018C0008246304698BF0C351FF030FDC74983462D
:1018D0001FF034FE1FF0D4F81BF0B2F980468946A1
:1018E0005846C3491FF02AFE1FF0CAF81BF0A8F99A
:1018F00006460F465846BF491FF06CFD1FF0C0F862
:101900001BF09EF9CDE9000128461FF00FFD4FF0B6
:101910007E511FF057FCB8491FF05CFD1FF0B0F876
:101920001BF08EF94246CDE904014B4600204FF0F2
:1019300080411EF045FF32463B461EF043FFDDE985
:1019400000231EF03FFFDDE904231EF03BFF0646A7
:1019500050460F461FF082F802460B463046394685
:101960001EF030FF8CA3D3E900231EF02BFF82462C
:1019700020468B4615F0EEF90646204615F0F8F99C
:101980001FF0D4FC9D491FF0D9FD054630461FF0DD
:10199000CDFC014628461FF015FC0546204615F0F3
:1019A000F5F91FF0C3FC90491FF0C8FD29461FF050
:1019B00009FC1FF065F80022CDE90001904B50466C
:1019C00059461EF0FFFE1BF03BF975A3D3E9002337
:1019D00004460D461FF038FB68B373A3D3E9002318
:1019E000204629461EF0ECFE71A3D3E900231FF028
:1019F000C5F91FF049FB1FF031F8002206460F46DB
:101A0000804B204629461EF0DDFE32463B461EF046
:101A1000D9FE002204460D467B4B304639461FF066
:101A200083F81BF00DF902460B46204629461EF0AE
:101A3000C7FE04460D46204629465FA3D3E900238E
:101A40001EF0C0FE5EA3D3E9002304460D461EF03F
:101A5000B7FE5DA3D3E900231FF090F91BF0F0F867
:101A600059A3D3E90023CDE904011FF05DF81BF071
:101A7000E7F802460B46204629461EF0A1FE54A375
:101A8000D3E90023804689461FF078F91BF0D8F887
:101A90004FA3D3E9002304460D461FF045F81BF081
:101AA000CFF8002206460F460023404649461EF066
:101AB00089FE32463B461EF083FE1BF0C1F81FF044
:101AC000E3FA00220646514B204629461FF09EFAB3
:101AD000002800F0608200224A4B204629461EF072
:101AE0006FFE1BF0ADF81FF0CFFA044620461FF042
:101AF0001DFC474905461FF029FE002840F057828B
:101B000035A3D3E90023DDE904011EF059FE1BF0E3
:101B100097F81FF0B9FA0746631E012B05D804F1A8
:101B20000C001FF003FC013F054638461FF0FEFB8A
:101B30002E4904461FF002FD1EF0A2FF1BF080F8A4
:101B4000CDE9040120462A491FF0F8FC1EF098FF59
:101B50001BF076F8CDE90601204626491FF03AFC35
:101B60001EF08EFF1BF06CF8CDE9080128464FF0FF
:101B70007E511FF027FB20491FF02CFC1EF080FF38
:101B80001BF05EF816A3D3E90023CDE90A01504605
:101B900059463FE0AFF3008000000080A2423A4186
:101BA000000000008C8A414100000040D07D3C4193
:101BB0000000000088D5E1400000000000D0974000
:101BC0000000006066865E400000000000D47640A1
:101BD00000000020A0993E4000000000006BB240D1
:101BE000000000802CB44241000061450000C84262
:101BF0000000C84300A0B64301CDF441000070428C
:101C00000000E03F0000F03F0000D03F00002B400C
:101C1000000020401EF0D4FD002204460D46C04BBB
:101C2000DDE900011FF0AAF802460B4620462946CE
:101C30001EF0C8FD9AA3D3E9002382468B461FF00D
:101C40009DF8DDE904238046894600204FF080415D
:101C50001EF0B6FDDDE906231EF0B4FDDDE9082324
:101C60001EF0B0FDDDE90A231EF0ACFD044630464F
:101C70000D461EF0F3FE02460B46204629461EF096
:101C8000A1FD89A3D3E900231EF09CFD88A3D3E91D
:101C900000231EF095FD88A3D3E900231EF044FF26
:101CA00087A3D3E900231EF08DFD05E020462946D9
:101CB00000229B4B1EF084FD0022994B04460D46EA
:101CC0001FF0B8F90028F1D1002200232046294650
:101CD0001FF09CF968B1204629460022904B1EF067
:101CE00071FD0022002304460D461FF08FF90028E5
:101CF000F1D175A3D3E90023DDE900011EF014FF43
:101D000022462B461EF05EFD71A3D3E90023044654
:101D10000D46404649461EF007FF42464B461EF020
:101D200003FF22462B461EF04DFD05E020462946C6
:101D300000227B4B1EF044FD0022794B04460D46E9
:101D40001FF078F90028F1D100220023204629460F
:101D50001FF05CF968B1204629460022704B1EF046
:101D600031FD0022002304460D461FF04FF90028E4
:101D7000F1D159A3D3E90023504659461EF0D4FEB1
:101D800002460B4656A1D1E900011EF019FD56A3EB
:101D9000D3E900231EF0F2FF1AF0DAFF54A3D3E9CF
:101DA000002306460F46504659461EF0BDFE52A37C
:101DB000D3E900231EF006FD02460B461EF002FD8D
:101DC00049A3D3E900231EF0D9FF1AF0C1FF4CA3A9
:101DD000D3E9002380468946504659461EF0A4FEAA
:101DE00002460B4648A1D1E900011EF0E9FC3EA3E2
:101DF000D3E900231EF0C2FF1AF0D8FE44A3D3E9B2
:101E0000002382468B46304639461EF08DFE42A3A3
:101E1000D3E9002306460F46404649461EF084FE9D
:101E200002460B46304639461EF0CAFC52465B4617
:101E30001EF07AFE22462B461EF0C4FC05E020462A
:101E400029460022364B1EF0BBFC0022344B0446D0
:101E50000D461FF0EFF80028F1D1002200232046A4
:101E600029461FF0D3F868B12046294600222C4BA2
:101E70001EF0A8FC0022002304460D461FF0C6F801
:101E80000028F1D10399274B0022D1E90A011EF065
:101E900075FF02460B462046294649E0AFF3008015
:101EA00000000000A0D5E14000000080A2423A41BD
:101EB000000000802CB44241000000E05BD2B03F43
:101EC000000000801CCA1A40000000E0360BF03F02
:101ED000000000605243FB3E00000060C91CAB3FA5
:101EE000000000608F425F4000000020DCA54C40F5
:101EF000000000E0718AEF3F0000002085877140FC
:101F0000000000A0F2D79A3E000000007670374033
:101F1000000000A0EEE734BF00000080732AF93E05
:101F20000000384000002E402B4B2046294600225E
:101F30001EF046FC0022284B04460D461FF07AF89E
:101F40000028F1D100220023204629461FF05EF828
:101F500068B12046294600221F4B1EF033FC0022A8
:101F6000002304460D461FF051F80028F1D1204609
:101F700029460022184B1EF001FF13A3D3E90023CA
:101F80001EF0D2FD1FF080F872B6039B186062B697
:101F90000FB0BDE8F08F0022104B204629461EF0FE
:101FA0000FFC1AF04DFE1FF06FF804469EE508A3E3
:101FB000D3E90023DDE904011EF002FC1AF040FE23
:101FC0001FF062F80746A7E500000000C07A6041F4
:101FD00000000000006CB2400000384000002A40C1
:101FE0002DE9F04F8DB0039017F08EFE044614F0EB
:101FF000F7FE0646204614F0E5FE0546204614F09E
:10200000D3FE6B1E012B98BF06F1FF368246304689
:1020100098BF0C351FF08AF9D74983461FF08EFA16
:102020001EF02EFD1AF00CFE804689465846D34914
:102030001FF084FA1EF024FD1AF002FE06460F4639
:102040005846CF491FF0C6F91EF01AFD1AF0F8FDE8
:10205000CDE9000128461FF069F94FF07E511FF0CD
:10206000B1F8C8491FF0B6F91EF00AFD1AF0E8FDF4
:102070004246CDE904014B4600204FF080411EF05E
:102080009FFB32463B461EF09DFBDDE900231EF020
:1020900099FBDDE904231EF095FB064650460F46EA
:1020A0001EF0DCFC02460B46304639461EF08AFB29
:1020B0009BA3D3E900231EF085FB824620468B4676
:1020C00014F048FE0646204614F052FE1FF02EF98A
:1020D000AD491FF033FA054630461FF027F9014697
:1020E00028461FF06FF80546204614F04FFE1FF0FB
:1020F0001DF9A6491FF022FA29461FF063F81EF0C9
:10210000BFFC0022CDE90001A14B504659461EF00C
:1021100059FB1AF095FD84A3D3E9002304460D462C
:102120001EF092FF68B382A3D3E90023204629461C
:102130001EF046FB80A3D3E900231EF01FFE1EF015
:10214000A3FF1EF08BFC002206460F46914B204653
:1021500029461EF037FB32463B461EF033FB002279
:1021600004460D468C4B304639461EF0DDFC1AF015
:1021700067FD02460B46204629461EF021FB044619
:102180000D46204629466EA3D3E900231EF01AFB14
:102190006DA3D3E9002304460D461EF011FB6CA38A
:1021A000D3E900231EF0EAFD1AF04AFD68A3D3E943
:1021B0000023CDE904011EF0B7FC1AF041FD0246F0
:1021C0000B46204629461EF0FBFA63A3D3E9002301
:1021D000804689461EF0D2FD1AF032FD5EA3D3E997
:1021E000002304460D461EF09FFC1AF029FD002234
:1021F00006460F460023404649461EF0E3FA3246A3
:102200003B461EF0DDFA1AF01BFD1EF03DFF0022DA
:102210008046624B204629461EF0F8FE002800F05A
:10222000208200225B4B204629461EF0C9FA1AF094
:1022300007FD1EF029FF044620461FF077F8584995
:1022400005461FF083FA002840F0178244A3D3E923
:102250000023DDE904011EF0B3FA1AF0F1FC1EF0D0
:1022600013FF0646631E012B05D804F10C001FF076
:102270005DF8013E054630461FF058F83E490446D9
:102280001FF05CF91EF0FCFB1AF0DAFCCDE904014A
:1022900020463A491FF052F91EF0F2FB1AF0D0FC2A
:1022A000CDE90601204636491FF094F81EF0E8FB00
:1022B0001AF0C6FCCDE9080128464FF07E511EF009
:1022C00081FF30491FF086F81EF0DAFB1AF0B8FCE7
:1022D00025A3D3E90023CDE90A01504659461EF053
:1022E0006FFA002204460D462E4BDDE900011EF078
:1022F00045FD02460B46204629461EF063FA1CA304
:10230000D3E9002382468B461EF038FDDDE9042325
:1023100006460F4600204FF0804145E0AFF30080B5
:1023200000000080A2423A41000000008C8A414136
:1023300000000040D07D3C410000000088D5E14015
:102340000000000000D097400000006066865E40FC
:102350000000000000D4764000000020A0993E401C
:1023600000000000006BB240000000802CB442412D
:1023700000000000A0D5E1400000C8420000C843B2
:1023800000A0B64301CDF441000070420000614559
:102390000000E03F0000F03F0000D03F00002B4075
:1023A00000002040000038401EF00AFADDE9062354
:1023B0001EF008FADDE908231EF004FADDE90A231D
:1023C0001EF000FA044640460D461EF047FB02464A
:1023D0000B46204629461EF0F5F9AFA3D3E90023AA
:1023E0001EF0F0F9AEA3D3E900231EF0E9F9AEA385
:1023F000D3E900231EF098FBADA3D3E900231EF020
:10240000E1F905E0204629460022C54B1EF0D8F927
:102410000022C34B04460D461EF00CFE0028F1D1ED
:1024200000220023204629461EF0F0FD68B1204618
:1024300029460022BA4B1EF0C5F9002200230446AB
:102440000D461EF0E3FD0028F1D19BA3D3E9002344
:10245000DDE900011EF068FB22462B461EF0B2F9B2
:1024600097A3D3E9002304460D46304639461EF0B3
:102470005BFB32463B461EF057FB22462B461EF0C6
:10248000A1F905E0204629460022A54B1EF098F947
:102490000022A34B04460D461EF0CCFD0028F1D1CE
:1024A00000220023204629461EF0B0FD68B12046D8
:1024B000294600229A4B1EF085F90022002304468B
:1024C0000D461EF0A3FD0028F1D17FA3D3E9002320
:1024D000504659461EF028FB02460B467CA1D1E926
:1024E00000011EF06DF97CA3D3E900231EF046FC29
:1024F0001AF02EFC7AA3D3E9002306460F46504675
:1025000059461EF011FB78A3D3E900231EF05AF9B7
:1025100002460B461EF056F96FA3D3E900231EF0C6
:102520002DFC1AF015FC72A3D3E9002380468946DE
:10253000504659461EF0F8FA02460B466EA1D1E904
:1025400000011EF03DF964A3D3E900231EF016FC40
:102550001AF02CFB6AA3D3E9002382468B4630464F
:1025600039461EF0E1FA68A3D3E9002306460F4678
:10257000404649461EF0D8FA02460B4630463946D8
:102580001EF01EF952465B461EF0CEFA22462B463E
:102590001EF018F905E0204629460022604B1EF087
:1025A0000FF900225E4B04460D461EF043FD002845
:1025B000F1D100220023204629461EF027FD68B1F4
:1025C000204629460022564B1EF0FCF8002200232C
:1025D00004460D461EF01AFD0028F1D10399514B17
:1025E0000022D1E90A011EF0C9FB02460B46204633
:1025F000294603E04A4B2046294600221EF0E0F817
:102600000022474B04460D461EF014FD0028F1D170
:1026100000220023204629461EF0F8FC68B120461F
:10262000294600223E4B1EF0CDF80022002304462E
:102630000D461EF0EBFC0028F1D120462946002271
:10264000374B1EF09BFB32A3D3E900231EF06CFA3C
:102650001EF01AFD72B6039B186062B60DB0BDE89D
:10266000F08F0022304B204629461EF0A9F81AF0C0
:10267000E7FA1EF009FD0446DEE527A3D3E90023AF
:10268000DDE904011EF09CF81AF0DAFA1EF0FCFCF9
:102690000646E7E5AFF3008000000080A2423A4121
:1026A000000000802CB44241000000E05BD2B03F4B
:1026B000000000801CCA1A40000000E0360BF03F0A
:1026C000000000605243FB3E00000060C91CAB3FAD
:1026D000000000608F425F4000000020DCA54C40FD
:1026E000000000E0718AEF3F000000208587714004
:1026F000000000A0F2D79A3E00000000767037403C
:10270000000000A0EEE734BF00000080732AF93E0D
:1027100000000000C07A604100000000006CB24080
:102720000000384000002E4000002A4070B50568C7
:10273000044628460E4616F01DFF864203D0314659
:10274000284616F031FF204670BD00BFFFFFFFFF97
:10275000032900D970472DE9F04301EB410505EB52
:10276000C50505F10A0487B001700646204616F03B
:1027700001FF8DF80C0005F10B0016F0FBFE8DF843
:102780000D0005F10C0016F0F5FE8DF80E0005F1B8
:102790000D0016F0EFFE8DF80F0003981EF070F993
:1027A0000022914B804689461EF030FC40B9002241
:1027B0008E4B404649461EF047FC002800F0CA8078
:1027C00006A9002341F8143D002200232046C6E953
:1027D0000223FEF7A9F982A3D3E90023D6E9020177
:1027E0001EF0CCFA804689461AF0E0F9C6E90C01E1
:1027F000404649461AF0ACFAC6E90E0105F10E0052
:1028000016F0B8FE8DF80C0005F10F0016F0B2FEC0
:102810008DF80D0005F1100016F0ACFE8DF80E00DD
:1028200005F1110016F0A6FE8DF80F0003981EF0BA
:1028300027F900226E4B804689461EF0F1FB38B91D
:1028400000226C4B404649461EF0F4FB00287ED027
:1028500006A90023307841F8103D1B270E240022E2
:10286000002307FB0040C6E90423FEF75DF905F1EC
:10287000120016F07FFE8DF80C0005F1130016F023
:1028800079FE8DF80D00BDF80C2002F1C8039BB253
:1028900042F208018B4260D8328305F1140016F031
:1028A00069FE1EF03FFD54491EF048FE53491EF0DC
:1028B00087FC5349F06204461EF02AFF002835D1F8
:1028C00005F1150406F11A08243506F1190720460A
:1028D00016F050FE013407F8010F18B3A542F6D1E7
:1028E0003278484903A81FF0FDFE03A820F028F91C
:1028F000421C0F2A05464ED939A3D3E90023D6E955
:1029000002011EF03BFA04460D461AF04FF9C6E9E3
:102910000C01204629461AF01BFAC6E90E0107B041
:10292000BDE8F083B37E002BDAD0E5E720463349DB
:102930001EF00CFF0028C3D032780023F3621B2066
:10294000142300FB0230782116F02EFEB8E7C6E90A
:1029500004898CE7C6E9028950E7347804EB440423
:1029600004EBC40404F112074FF000083846A6F83F
:10297000188016F0FFFD18B14146384616F014FED7
:102980001334204616F0F6FD002886D0204600219C
:1029900016F00AFE81E703A9404616F035FE96F8C8
:1029A000009009EB490909EBC90909F1150900244F
:1029B0000EE016F0DFFD18F804508542294638462F
:1029C00001D016F0F1FD404620F0BAF8013405467A
:1029D00009EB0407A5423846EBDA8DE7AFF3008038
:1029E00000000020DCA54C40008056C0008056400E
:1029F000008076C000807640000020410000404109
:102A0000000040C13C7C020038B5437805780BB12A
:102A100045F0020583780BB145F00405084B1C789E
:102A20007122C82313FB0424204616F0A3FD85421F
:102A300005D029462046BDE8384016F0B5BD38BD62
:102A4000BC95FF1FFFFFFFFF90F90030013BDAB29A
:102A5000032A10B504460CD8234850F8222091428E
:102A600028BF11460846032B38D8DFE803F031228F
:102A700013040020F7E71DF0E1FF19A3D3E90023B9
:102A80001EF07CF91EF028FB81B22069BDE81040E1
:102A900015F0D4BB1DF0D2FF11A3D3E900231EF023
:102AA0006DF91EF019FB81B2E068BDE8104015F029
:102AB000C3BA1DF0C3FF0AA3D3E900231EF05EF9D9
:102AC0001EF00AFB81B2A068BDE8104015F02EBCD4
:102AD00001466068BDE8104014F002BB10BD00BFA5
:102AE000CD3B7F669EA0F63F287C020010B50446D1
:102AF00008461DF0B3FF0B4602464FF08041002010
:102B00001AF078FA1EF0C0FA94F90030013B032B5A
:102B10001BD8DFE803F0140E080281B22069BDE87B
:102B2000104015F0CFBB81B2E068BDE8104015F051
:102B300057BC81B2A068BDE8104015F051BC0146F9
:102B40006068BDE8104014F061BC10BD10B40368AB
:102B500041681A780C78417A037A0C4202EA03023F
:102B60001AD0837A03F003030AB143F0040343F05D
:102B700008039A10013B82720D2B0BD8DFE803F09B
:102B80001E0719070A141E1E140A0719071EC36818
:102B9000013BC36010BC7047837A03F00303002A33
:102BA000E7D043F00403E4E7C36810BC023BC36012
:102BB0007047C36810BC0233C3607047C36810BC61
:102BC0000133C360704700BF2DE9F04F9E4B1A7868
:102BD00082428BB011D0421E062A0DD8DFE812F0D7
:102BE000E300EA00F100F800000108010700974A3D
:102BF00000240025C2E90045187010B90BB0BDE8EB
:102C0000F08F72B6924CDFF864A223690893DAF869
:102C10001030099362B68F4EF569002D00F00381E4
:102C20002B7C012B40F2F78072B6E86862B61DF08B
:102C300015FFD6E900231EF0A1F8737A0BB101F15C
:102C40000041DFF82C82844DD8E904BC0B460246D3
:102C500061465846CDE900BC1DF066FF1EF014FA2F
:102C6000EB698146002B00F0DB801A7C012A40F2E0
:102C7000CB8072B6D86862B61DF0F0FED5E90023AD
:102C80001EF07CF86B7A0BB101F10041D8E9042306
:102C9000CDE90023714FDFF8B481D7E904BC0246C7
:102CA0000B4658466146CDE902BC1DF03DFF1EF0C3
:102CB000EBF9D6E900238346694900201EF05EF84F
:102CC000D8E9002316461F46CDE90401CDE9066781
:102CD0001EF0A6F918B132463B46CDE90423089B05
:102CE000C9EB03000028B8BF40421DF0B7FEDDE984
:102CF000002306460F46DDE904011DF015FF0246DC
:102D00000B46304639461EF095F9002837D1044667
:102D1000D5E90023002052491EF030F8DDE906898C
:102D200042464B4606460F461EF07AF908B1464623
:102D30004F46099BCBEB03000028B8BF40421DF073
:102D40008DFEDDE9022380468946304639461DF076
:102D5000EBFE02460B46404649461EF06BF9002842
:102D60004ED072B6CAF810B0DAF810001DF076FE38
:102D7000CAE9060162B601200BB0BDE8F08F72B659
:102D8000C4F8109020691DF069FEC4E9060162B61E
:102D9000D8E90023CDE90623304BD3E904230124ED
:102DA000CDE90223B4E7294A2D4D18700024C2E969
:102DB000004522E7254A2B4D18700024C2E9004542
:102DC0001BE7224A284D18700024C2E9004514E789
:102DD00017A5D5E900451D4A1870C2E900450CE762
:102DE00015A5D5E90045194A1870C2E9004504E760
:102DF00013A5D5E90045154A1870C2E90045FCE65F
:102E000020460BB0BDE8F08F72B618460093FFF76E
:102E10009DFE009B2EE772B62846FFF797FE04E75B
:102E20001846194636E7284629460AE7AFF30080D8
:102E3000000000201111C13F000000201111B13F1E
:102E4000000000201111A13FB99BFF1FE095FF1F5B
:102E5000F894FF1F009CFF1F1894FF1F709CFF1F1A
:102E60000000F03F0000E03F0000D03F6893FF1FEC
:102E7000209CFF1F38B5C369002B4BD01A7C012A58
:102E800011D972B6DA68044662B610461DF0E6FD46
:102E9000D4E900231DF072FF627A03460AB101F102
:102EA0000041184638BD72B693E8140011782578B1
:102EB0005C7A1A7A254201EA02012ED09A7A02F04F
:102EC000030209B142F0040242F008029110013AF3
:102ED00099720D2AD6D801A151F822F0432F000093
:102EE0003B2F0000332F00003B2F0000852E0000F9
:102EF0002B2F0000432F0000432F00002B2F00003A
:102F0000852E00003B2F0000332F00003B2F0000D8
:102F1000432F00001946184638BD9A7A02F0030282
:102F20000029D3D042F00402D0E7DA68023ADA602E
:102F3000A9E7DA680232DA60A5E7DA68013ADA600E
:102F4000A1E7DA680132DA609DE700BF08B517F043
:102F50002DFA17F067FE18F04BFB4FF47A7017F05C
:102F6000A3F8024B024A1A6008BD00BF0CED00E056
:102F70000400FA0510B572B6094CD4E906011EF03A
:102F800083F82369C01A206262B672B6054CD4E990
:102F900006011EF079F82369C01A206262B610BDDE
:102FA000F894FF1F6893FF1F70B572B60E4D0F4C5B
:102FB0000F4ED5E91801D4E91823C5E91601C4E973
:102FC0001623D6E90A01D5E916231DF0ADFD094EF9
:102FD000C5E90C01D4E91623D6E90A011DF0A4FDC8
:102FE000C4E90C0162B670BDF894FF1F6893FF1F1F
:102FF000209CFF1F709CFF1F2DE9F843264B24A146
:10300000D1E90001D3E900231DF0B8FE234B0646A9
:103010000F46D3E900231EA1D1E900011DF0AEFE49
:1030200004460D4672B61E491E4B0022D1E900012E
:103030001DF07AFD1C4BD3E90423804689461DF020
:1030400073FD02460B46304639461DF097FE324668
:103050003B461DF069FD154A154BC2E90201D3E953
:103060000423404649461DF05FFD02460B462046BC
:1030700029461DF083FE2B4622461DF055FD0D4BC3
:10308000C3E9020162B6BDE8F88300BFAFF3008078
:103090000000000080842E414087FF1FC087FF1F73
:1030A0003887FF1F00001040209CFF1FF894FF1F6F
:1030B000709CFF1F6893FF1F0028F8B52FDB0428C2
:1030C000A8BF04201F4A1378984225D01E4C1F4DDC
:1030D00004EBC004D4E90067C3B21370304639462C
:1030E000D5E902231DF088FFD8B1194C32463B4682
:1030F000D4E902011DF080FF00B1F8BDC4E9026708
:1031000072B6216AD4E90223D1E900011DF00CFD59
:10311000C4E9060162B6F8BD0029D7D1F8BD002088
:10312000D0E7C5E9026772B6296AD5E90223D1E979
:1031300000011DF0F9FCC5E9060162B6D4E900679B
:10314000D3E700BFE087FF1F8887FF1F3894FF1F6A
:10315000A894FF1F2DE9F843394B1B7853B1032A7C
:103160000AD0384B1B783BB1374A384B12781A7863
:10317000002A56D1BDE8F883354B334C334E1B78CB
:1031800024783578B3FA83F35B09E4B2002D32D1A9
:10319000A342EFD9D0E9028915460F460446002222
:1031A0000023404649461DF027FF68B1237C5BB1F0
:1031B00072B6237C022B3AD0237CFE2B04BFFF2364
:1031C000237462B6BDE8F883227C237CC3B9022D48
:1031D00030D0032D0CBF1F4B1F4B00211878FFF779
:1031E0006BFF357007B3FE2323741C4A0023137052
:1031F0002360BDE8F8833578AA42C9D0BDE8F883DA
:10320000B7EBD21FE3D04046494600224FF080433F
:103210001DF01AFF0028DAD02046BDE8F843FDF77C
:10322000B3B91B78BDE8F88302232374DDE70123DB
:103230002374C1E700210846FFF73EFFD1E700BF36
:103240005C97FF1FA094FF1F9095FF1F0C94FF1F1A
:103250004897FF1F909DFF1FE087FF1FF487FF1F08
:103260002DE9F04F6A4B87B0D3E9082382468B469D
:1032700065A1D1E900011DF081FD664BCDE900019A
:10328000D3E9082360A1D1E900011DF077FD524682
:10329000CDE902015B46DDE900011DF06FFD002272
:1032A0005D4B06460F461DF0C5FE08B95A4F002675
:1032B000DFF8789152465B46DDE90201C9E9006713
:1032C0001DF05CFD0022544B04460D461DF0B2FE7D
:1032D00008B9514D0024DFF8588132463B46DDE9FC
:1032E0000001C8E900451DF049FD22462B4606466F
:1032F0000F46DDE902011DF041FD04460D46024680
:103300000B46304639461DF081FE08B134463D4635
:1033100022462B46504659461DF052FA07460E46A5
:1033200038463146002200231DF08EFE002867D06B
:103330003846314600224FF080431DF085FE0028BC
:1033400036D122462B46DDE900011DF017FD22464D
:103350002B46C9E90001DDE902011DF00FFD2F4EEA
:10336000C8E90001D6E9062320462946C6E90845F2
:103370001DF056FE90B100222046294B29461DF033
:10338000D3FB284BC6E906011C781DF0A5FEC82218
:103390007D23C1B202FB043016F006F9224B012155
:1033A0001878FFF789FE07B0BDE8F04FFFF724BE9D
:1033B0001C4B1E78294606EB860620461DF064FE4F
:1033C00006EB8606F60006F17E07014638465FFAF0
:1033D00081FAADF8161016F0CDF8824503D05146AB
:1033E000384616F0E1F87F36304616F0C3F89DF8FF
:1033F00017708742A5D03946304616F0D5F8A0E7B9
:1034000006F1004694E700BF0000000080842E41D2
:10341000209CFF1F709CFF1F000028408887FF1F13
:103420000000E03FBC95FF1FE087FF1F4087FF1FA4
:10343000C087FF1F10B50E4B1C7804EB840404EB0F
:103440008404E40082B004F17E0016F093F88DF855
:10345000060004F17F0016F08DF88DF80700BDF826
:1034600006001DF0EBFA02B0BDE81040FFF7F8BE11
:10347000BC95FF1F18B9034B30221A807047FDF727
:10348000A3B800BFCC9CFF1F564B1B783BB9564AD4
:1034900052783F2A00F09380544A137070472DE908
:1034A000F04188B000233A220293019303930493DE
:1034B00005930693ADF81C30009217F0DDFD01E096
:1034C00017F012FE17F0FCFD0028F9DC68461FF02B
:1034D00037FB454D684429461FF02AF96C46022205
:1034E0004349071B16F090F86B78213B5D2B36D8CB
:1034F000DFE803F02F35352F3535353535352F35A8
:103500002F353563636363636363636335353535D3
:1035100035353B353535633535352F3563353535FF
:103520003B35632F2F352F35353B633535353535F5
:10353000353535353535633535352F3563353535E5
:103540006335633535632F353535353B35353535A1
:10355000353B791C684617F0FFFC17F08DFD234BB7
:1035600000221A7008B0BDE8F0810026791C2046C0
:10357000DFF8788017F0F0FC002517F07DFD1420AF
:10358000444616F091FD2F4606E00135322D20709D
:103590000FD004F8017F16BB17F092FD002808DD5C
:1035A00017F0A2FDC0B22328EFD196B1312D2070C3
:1035B0000CD13023A8F80030D4E70126D6E70D4B14
:1035C0000A4A1B6813801B0C9370704700236370BA
:1035D000EFE708EB050308F805005E70C2E7312845
:1035E000C0D0E6E75493FF1FC095FF1FCC9CFF1F80
:1035F000387C0200487C020030B5054683B0D0E933
:10360000000112F0DDFE0B4B0B4C1B7800930122E6
:10361000C5E9000100232946204610F0DDF92046C7
:103620001FF08EFA05490222204403B0BDE8304065
:1036300015F0EABF4987FF1FCC9CFF1F387C0200B2
:1036400010B50B4B0B4C1B7882B001460093002247
:103650000123204610F0C0F920461FF071FA0649F8
:103660000222204402B0BDE8104015F0CDBF00BFDB
:103670004987FF1FCC9CFF1F387C020010B5084B08
:10368000084C1A780146204610F04AF820461FF0F0
:1036900057FA022220440449BDE8104015F0B4BF97
:1036A0004987FF1FCC9CFF1F387C0200124B93F808
:1036B0004820D2B110B411485C6D026883B041F269
:1036C00087310092009A121B8A4210D893F8382052
:1036D0006AB102680192586C019B1B1A8B428CBF25
:1036E0000020012003B010BC70470020704700206C
:1036F00003B010BC704700BF6096FF1FD09DFF1F36
:10370000114B1A78D2B110B410485C6B026883B0C8
:1037100041F287310092009A121B8A4210D893F826
:1037200078206AB102680192D86F019B1B1A8B4204
:103730008CBF0020012003B010BC704700207047F0
:10374000002003B010BC70476096FF1FD09DFF1F84
:1037500010B5FFF7ABFF0446FFF7D2FF2040C0B221
:1037600010BD00BF154B93F898200AB300B5144A5A
:10377000D3F89C00126883B041F287310192019A1C
:10378000121A8A4218D80022D3F8A00083F8992090
:103790001DF0CCFD0B491DF0D1FE4FF080411DF016
:1037A000B7FF4FF0010328B1D8B203B05DF804FBB6
:1037B000002070470346F7E70020F6E76096FF1FFA
:1037C000D09DFF1F0000C8422DE9F04F2D4E2E4D19
:1037D000336829688DB041F288320193019B5B1AEE
:1037E000934204D8294B18780DB0BDE8F08F284CCF
:1037F00094E80F0004AF103487E80F0094E80F003E
:1038000008AC84E80F00384613F05AF98046384671
:1038100013F066F98346384613F076F9824620465F
:1038200013F07EF98146204613F086F907462046BC
:1038300013F098F90CAB08F14E0803F8280D184660
:103840008DF80DB08DF80E808DF80CA08DF80A90D3
:103850008DF8097013F0D4FA044616F055FA041BDB
:1038600033680293002CB8BF64420A49074A029B9E
:10387000C860042CCCBF0020012010702B600DB05C
:10388000BDE8F08FD09DFF1FE895FF1F4D9DFF1FE6
:103890009896FF1F3096FF1F2DE9F047B1F1000AFF
:1038A0003EDD044600EBCA05804600260027F8E806
:1038B0000223304639461CF085FFA84506460F46D0
:1038C000F5D150461DF0CAF802460B46304639463F
:1038D0001DF054FA002680468946002742464B4692
:1038E000F4E802011CF06CFF02460B461DF01CF9C7
:1038F00002460B46304639461CF064FFA542064698
:103900000F46EBD10AF1FF301DF0A8F802460B4636
:10391000304639461DF032FABDE8F04719F038BD9F
:1039200000260027EEE700BF2DE9F04FA44BDFF89B
:10393000BCA21B68DAF8001099B041F288320893F3
:10394000089B5B1A934204D89E4B187819B0BDE8C7
:10395000F08F9D4B9D49D3F88020D1F800B00092A4
:103960009E46BEE80F000DF1280CACE80F00BEE843
:103970000F00ACE80F00BEE80F00ACE80F009EE8B7
:103980000300934E934D944C944F0AAB8CE8030084
:103990001846D6E9048913F077F802460B464046EC
:1039A00049461CF00FFF12F0EBFC21F000431946D2
:1039B00081A3D3E900231DF0B7F805EBCB0B0AABCD
:1039C000CBE900011846814BD6E90289D3F800B053
:1039D00013F03EF802460B46404649461CF0F0FE06
:1039E00021F00043194674A3D3E900231DF09CF88D
:1039F00004EBCB0B754BCBE90001B6F91800D3F8FB
:103A000000B01DF02BF88046009889461DF08EFC12
:103A100073491DF093FD1DF033F802460B464046F6
:103A200049461CF0CDFE4FEACB0807EB080321F016
:103A3000004247F83B00032128465A60FFF72CFF5D
:103A4000CDE9000120460321FFF726FFCDE9020161
:103A500038460321FFF720FF4544D5E90056CDE95C
:103A6000040100225F4BDDE90001CDE906561DF09F
:103A70005BF800224FF0804305460E461DF0DAFA4F
:103A8000002800F0928033462A46DDE906011DF049
:103A9000BDFA4FF00106002800F085804444D4E9C7
:103AA000004500224F4BDDE90201CDE906451DF03E
:103AB0003BF800224FF0804304460D46F6B21DF05D
:103AC000B9FA00286BD022462B46DDE906011DF02D
:103AD0009DFA4FF0010400285FD0B844D8E900787F
:103AE0000022404BDDE90401CDE906781DF01CF809
:103AF00000223D4B80468946E4B21DF09BFA002827
:103B000046D0DDE9000100224FF080431DF07EFA2F
:103B10004FF00107002839D0DDE9020100224FF003
:103B200080431DF073FA4FF0010568B32E4BDDE9B9
:103B3000040100221DF06AFA3D404FF0010308B372
:103B40002B401E404046DDE9062349461DF07CFA25
:103B500034404FF0010398B11A4A04EA03000BF114
:103B600001031070032B194A08BF00231360144B84
:103B70001B680993099BCAF8003019B0BDE8F08FA3
:103B80000346E9E70346DBE70546CFE70746C3E719
:103B90004FF00008DFF85090B3E704469DE700249B
:103BA0004FF080458FE7064678E700254FF08046C6
:103BB00069E700BFAFF30080000000000020AC40C8
:103BC000D09DFF1FDC95FF1F6096FF1FB895FF1F5C
:103BD000509DFF1F189DFF1F1096FF1F6894FF1F29
:103BE0000000C8420000144000003440F893FF1F5A
:103BF0000C4B1B78013B032B0FD8DFE803F00A06C0
:103C00000202094B41221A807047074B50221A804A
:103C10007047054B47221A807047034B4C221A808D
:103C2000704700BF8187FF1FCC9CFF1F10B51C4B46
:103C30005B782B2B02D02D2B00D010BD194C2068A7
:103C4000FF2811DDFF202D2B206013D02B2B1ED041
:103C50001E28DCBF1F2020600146062016F0EAF86F
:103C6000114B00221A7010BD1E28DCBF1F202060DF
:103C70002D2BEBD11DF05AFB0C491DF05FFC1DF004
:103C800085FD2060FF28E3DDFF202060E4E71DF0D4
:103C90004DFB06491DF09EFB1DF078FD2060F1E70D
:103CA000C095FF1FF087FF1FCC9CFF1F3333B33F2E
:103CB00008B51E4B5B786E2B23D01AD863B91C4A0B
:103CC0001C4912780B70022A1ED01B4B1B782BB399
:103CD0001A4B01221A7008BD652B0ED1144B1B78AC
:103CE00093B9154B1B787BB91548BDE80840FCF724
:103CF0004BBC732B05D0772BF0D0124B00221A70DF
:103D000008BD0B4B1B7803B108BD0B4B1B78002B78
:103D1000FAD10D48BDE80840FCF736BC0848FCF76E
:103D200033FC0948BDE80840FCF72EBCC095FF1FD6
:103D30004897FF1F5497FF1F9095FF1F0094FF1F88
:103D40003894FF1FCC9CFF1FA894FF1F1D4B5B786E
:103D5000303B232B30D8DFE803F02D2D2D2D2D2FD8
:103D60002F2F2F2F2F2F2F2F2F2F2F2F2F292F2F69
:103D70002F2B2F2F2F2F2F122F2F2F2F2F170222C6
:103D8000114B1B782BB170470F4B1B780322002B74
:103D9000F9D110B5FCF710FC014688B90B4CD3B231
:103DA00023702078BDE81040FFF786B90122E7E7CD
:103DB0000022E5E71A46E3E7054B00221A70704738
:103DC00010BD00BFC095FF1F9095FF1F909DFF1F66
:103DD000CC9CFF1F2DE9F041164F1749C0EB001393
:103DE0001F44024638461EF07DFC38461EF0A8FEF1
:103DF0000E281CDC114A92F80080F121C8220346EB
:103E000012FB081800240DE015F0B4FB3E5D86425D
:103E10003146284601D015F0C7FB38461EF090FE0B
:103E20000134034608EB0405A3422846ECDABDE85A
:103E3000F08100BFD89BFF1F4C7C0200BC95FF1F88
:103E40002DE9F04FA84CA94EA94DE1B000234FF049
:103E500000080593049303930293019300931A4679
:103E60001946814686F8008020460FF0B1FE2B7877
:103E700084F8D18103EB830303EB83034FEAC30A86
:103E80000AF5947B04F5EC71002200235846C1E941
:103E9000002315F06FFB012800F03A81954F97F849
:103EA0000090A9F10303012B40F2A681924BD3F8B5
:103EB0000C809E68414684A3D3E9002330461CF061
:103EC00033FE60AC02460B4664E9542306900D466F
:103ED00030464146002200231DF0ACF84FF0000AA6
:103EE000002800F03382DFF824B2844B1B78002BCB
:103EF00040D030464146002200231DF0A5F800289E
:103F000000F02A823046414600227D4B1DF09CF88D
:103F100000282FD006982946002200231DF094F88F
:103F2000002800F01682774B7749DDF81880D3E936
:103F30000023D1E90001CDE91023CDE9120110AB36
:103F40000FCB8DE80F0001230DF1380EA9468DF837
:103F500038309EE80C002046C4E9008912F02CF8A5
:103F6000D4E9000152465B461CF0DEFDC4E90001C5
:103F700097F80090B9F1010F00F0708154A3D3E9D4
:103F8000002355A7D7E900670025CDE90223049552
:103F900000220023CDE9006744A814F075FCD4E9A1
:103FA000002344A914A814F097FC14A814F036FCBC
:103FB00002460B46504659461CF0B6FD804614A8F2
:103FC000894614F02FFC02460B46504659461CF019
:103FD000ABFD0022CDE902010023CDE9008920A834
:103FE00014F022FD3EA3D3E900230495CDE902237A
:103FF000CDE900670022002352A814F045FCD4E963
:10400000002352A92CA814F067FC2CA814F006FC7D
:1040100002460B46504659461CF086FD04462CA825
:104020000D4614F0FFFB02460B46504659461CF065
:104030007BFDCDE90045CDE902010022002338A82F
:1040400014F0F2FC44A814F0EBFC044644A80D461E
:1040500014F0D0FC804620A8894614F07DFD064669
:1040600020A80F4614F06CFD22462B46CDE90089AE
:10407000CDE90401CDE902671B480FF0DFFE52A82D
:1040800014F0CEFC044652A80D4614F0B3FC804652
:1040900038A8894614F060FD064638A80F4614F08B
:1040A0004FFD2246CDE904012B46CDE90089CDE93B
:1040B00002670D480FF0C2FE0B480FF0B3FE61B06F
:1040C000BDE8F08FAFF30080000000A046DF913F15
:1040D00000000060FB21F93F00000060FB21E93F88
:1040E000000000807CD91240E897FF1FF194FF1F69
:1040F000BC95FF1F8187FF1F509DFF1F4C93FF1F23
:10410000000024403087FF1FE887FF1F0000F03FBA
:10411000B9F1000F40F01581074652A90AF58270E7
:10412000FCF7BCF92878DDF848914FF0C8084FF447
:10413000847308FB003052A9FCF7B0F9529B287831
:1041400009934FF4867308FB003052A9FCF7A6F9D7
:104150002878529906914FF4887308FB003052A9D1
:10416000FCF79CF92878DDF848A14FF48A7308FB26
:10417000003052A9FCF792F92878DDF848B14FF4E5
:104180008C7308FB003052A9FCF788F92878529B01
:104190000B934FF48E7208FB002052A9FCF77EF9B6
:1041A0002878529A0A924FF4907108FB001052A995
:1041B000FCF774F995F800E0529D4FF4927008FBFB
:1041C0000E0052A9FCF76AF952980A9A0B9B0392C7
:1041D0000293099A069B0590494620460495CDF81E
:1041E00004B0CDF800A00FF0F3FC20460FF028FD3E
:1041F000377061B0BDE8F08F614900220023D1E93A
:1042000002011CF017FF002800F09780002600270D
:104210000024002522462B46CDE90267CDE904455E
:10422000CDE9004557480FF009FE304639464CA30A
:10423000D3E90023CDE904451CF0C4FA48A3D3E92F
:104240000023CDE90201CDE900454E480FF0F6FD0F
:104250004C480FF0E7FD61B0BDE8F08F40A7D7E90B
:1042600000670FF20419D9E900890025049500229E
:104270000023CDE90267CDE9008944A814F004FBCE
:10428000D4E9002344A914A814F026FB14A814F0C0
:10429000C5FA02460B46504659461CF045FC14AB85
:1042A000CDE90601184614F0BDFA02460B46504609
:1042B00059461CF039FC32463B461CF081FADDE9D8
:1042C0000623CDE90201CDE9002320A80022002326
:1042D00014F0AAFB26A3D3E900230495CDE9022319
:1042E000CDE900890022002352A814F0CDFAD4E9C8
:1042F000002352A92CA814F0EFFA2CA814F08EFA7F
:1043000002460B46504659461CF00EFC04462CA8AB
:104310000D4614F087FA02460B46504659461CF0EB
:1043200003FC32463B461CF04BFACDE90045CDE993
:104330000201002238A8002382E60FA7D7E9006710
:1043400066E74146584615F02FF9A7E5DFF838B083
:10435000CBE505F10045E6E508F10048D2E500BFF0
:1043600000000060FB21F93F00000060FB21E93FF5
:10437000000000807CD9124000000060FB21094051
:10438000509DFF1FE897FF1F0000F0BF0C4A0D4B28
:1043900012780D49586B30B4033A012A18604FF077
:1043A00000000860094D0A4C99BF0A480A4A0B48A8
:1043B0000B4A0D644C6418645A6430BC704700BFEB
:1043C0008187FF1F709CFF1F209CFF1F000034C3CC
:1043D000000034430000A0C10000B4420000B4C299
:1043E000000087432DE9F8435D4F5E4E3C7804EBB7
:1043F000840404EB8404E40004F1D008404615F082
:10440000B9F896F82C50013DEDB2032D98BF564BEC
:1044100000B200EB800000EB800098BF53F825301D
:104420004FEA800088BF00239842F06100F2858047
:10443000C72840F2828004F1D1094FF000084846B5
:1044400086F8208015F096F8032D98BF464B00B2F1
:1044500000EB800000EB800098BF53F825304FEA56
:10446000800088BF43469842706158D8C72856D903
:104470004FF0000886F8188004F1DE093B4E4846EC
:1044800015F078F896F82C50013DEDB2032D98BF49
:10449000354B00B200EB800000EB800098BF53F872
:1044A00025304FEA800088BF43469842F06124D807
:1044B000C72822D9DF340027204686F8207015F05F
:1044C00059F8032D98BF284B00B200EB800000EB99
:1044D000800098BF53F825708000B842706101D801
:1044E000C72806D84FF47A7320460A21736115F065
:1044F0005BF800233376BDE8F8834FF47A734846BF
:104500000A21F36115F050F83C7896F82C5004EB32
:10451000840404EB8404013DE400EDB2CAE74FF4E7
:104520007A7348460A21736115F03EF83C7804EB33
:10453000840404EB8404E4009AE74FF47A73404661
:104540000A21F36115F030F83C7896F82C5004EB12
:10455000840404EB8404013DE400EDB26BE700BF8A
:10456000BC95FF1F6897FF1F287C0200A897FF1FBC
:104570002DE9F043DFF8B882AB4E98F8004004EB29
:10458000840404EB8404E40004F1D20783B03846C9
:1045900014F0F0FF04F1D3058DF80400284614F060
:1045A000E9FF8DF80500BDF80430B3F57A7F80F09F
:1045B0002181736204F1E009484614F0DBFF04F145
:1045C000E1078DF80400384614F0D4FF8DF805009B
:1045D000BDF80430954DB3F57A7F80F0F1806B62C1
:1045E00004F1D50014F0C6FFA0F11003302B00F247
:1045F000D880B06204F1E30014F0BCFFA0F1100316
:10460000302B00F2BF80A86204F1C80014F0B2FFA2
:104610008DF8040004F1C90014F0ACFF8DF805001A
:1046200004F1CA0014F0A6FF8DF8060004F1CB00D7
:1046300014F0A0FF8DF80700019B3360002704F100
:10464000CC00377114F096FF8DF8040004F1CD0012
:1046500014F090FF04F1CE098DF80500BDF8043088
:10466000B3604846377314F085FF431EDBB2072B57
:104670006D4A74D85073002704F1CF00B77314F05B
:1046800079FFC31B18BF012304F1D400F3733774FF
:1046900014F070FFC31B18BF012304F1D60073741C
:1046A000B77414F067FF8DF8040004F1D70014F01C
:1046B00061FF8DF8050004F1D80014F05BFF8DF860
:1046C000060004F1D90014F055FF8DF80700019B96
:1046D0002B6004F1DA002F7114F04CFF8DF8040008
:1046E00004F1DB0014F046FF04F1DC068DF8050050
:1046F000BDF80430AB6030462F7314F03BFF431E0F
:10470000DBB2072B494A17D85073002604F1DD00AD
:10471000AE7314F02FFF831B18BF012304F1E200D6
:10472000EB732E7414F026FF801B18BF01206874F1
:10473000AE7403B0BDE8F08304273046577314F01D
:1047400019FFB842E1D03946304614F02DFF98F8F1
:10475000004004EB840404EB8404E400D5E7042760
:104760004846577314F006FFB84284D0394648468D
:1047700014F01AFF98F8004004EB840404EB84045E
:10478000E40078E7102304F1E0001946AB6214F06E
:104790000BFF98F8004004EB840404EB8404E4006D
:1047A00032E7102304F1D2001946B36214F0FCFE84
:1047B00098F8004004EB840404EB8404E40019E757
:1047C000002448466C6214F0D5FE18B121464846D4
:1047D00014F0EAFE384614F0CDFE18B13846002138
:1047E00014F0E2FE98F8004004EB840404EB840427
:1047F000E400F5E600243846746214F0BBFE18B1FC
:104800002146384614F0D0FE284614F0B3FE18B105
:104810002846002114F0C8FE98F8004004EB8404F8
:1048200004EB8404E400C5E66897FF1FA897FF1F08
:10483000BC95FF1FF0B56A4C257805EB850505EBA7
:104840008505ED0005F1D20683B0304614F092FEE6
:1048500018B13046002114F0A7FED335284614F0D5
:1048600089FE18B12846002114F09EFE2078C82643
:10487000D52306FB0030102114F096FE02A9207803
:10488000584B41F8043D06FB0060FCF74DF92578D4
:1048900005EB850505EB8505ED0005F1CC073846F0
:1048A00014F068FEB04203D03146384614F07CFE66
:1048B000CD35284614F05EFE18B12846002114F0CC
:1048C00073FE2078C825CE2305FB0030042114F0A8
:1048D0006BFE2078CF2305FB0030002114F064FE2E
:1048E0002078D12305FB00300A2114F05DFE2078EA
:1048F000D02305FB00300A2114F056FE2078D42383
:1049000005FB0030002114F04FFE257805EB8505EE
:1049100005EB8505ED0005F1D206304614F02AFEC0
:1049200018B13046002114F03FFED335284614F06C
:1049300021FE18B12846002114F036FE2078C82642
:10494000E32306FB0030102114F02EFE02A9254BB4
:10495000207841F8083DD62306FB0030FCF7E4F848
:10496000257805EB850505EB8505ED0005F1DA07F2
:10497000384614F0FFFDB04203D03146384614F0FB
:1049800013FEDB35284614F0F5FD18B1284600214A
:1049900014F00AFE2078C825DC2305FB0030042132
:1049A00014F002FE2078DD2305FB0030002114F016
:1049B000FBFD2078DF2305FB00300A2114F0F4FD15
:1049C0002078DE2305FB00300A2114F0EDFD20786D
:1049D000E22305FB0030002114F0E6FD03B0F0BD3A
:1049E000BC95FF1F40771B002DE9F843194E356831
:1049F0008D420C469146984622DB6A42914216DB74
:104A0000089A154F012313701CF028F8D7E90423E6
:104A10001CF0B4F9C9E9000120461CF01FF8D6E9E2
:104A200004231CF0ABF9C8E90001BDE8F8830A4F84
:104A30003B6B2C44C01A089B141B02221A70E3E73C
:104A4000054F3A6B801A089A0223C1EB4504137094
:104A5000DAE700BF709CFF1F209CFF1F2DE9F84381
:104A60001C4C099D1C4F90469946D4E904231CF028
:104A70005BF81CF009FBD7E904232860494640464F
:104A80001CF052F81CF000FB9DF820800A9EB8F143
:104A9000010F30601AD93B68C0EB430030602A68D0
:104AA000236B13442B60226B51428B4206DAA268BF
:104AB00013442B60226B51429942F8DC9A4207DA88
:104AC000A2689B1A2B60226B9A42F9DBBDE8F8833F
:104AD000BDE8F883209CFF1F709CFF1FFFFFFFFFB6
:104AE0002DE9F04F9B46AFB09F4B0B9105469F4C75
:104AF000DFF8A092A478D3E902019D4B92460022F0
:104B00000026CDE912234FF0000891A3D3E900233A
:104B10001096CDE914890D968DF840400F961196A8
:104B20001CF002F810AC06460F460FCCEE46089477
:104B3000904C0694AEE80F00089A92E803003B46BA
:104B40008EE803003246294616A813F045FE16A843
:104B500013F0FAFF804616A8894613F0F1FF7EA3F2
:104B6000D3E900231BF0E0FF7BA3D3E90023064633
:104B70000F46404649461BF0D7FF0DF130099BF820
:104B8000003000930EAD32463B460295CDF80490BE
:104B9000FFF764FF744BD3E902016DA3D3E900234F
:104BA0001BF0C2FF0DF1400E06460F46BEE80F0097
:104BB000EE460694AEE80F00089B93E803008EE8EB
:104BC000030032463B460B9922A813F005FE22A8AB
:104BD00013F0BAFF22ABCDE90801184613F0B0FF7D
:104BE0005DA3D3E900231BF09FFF5BA3D3E9002360
:104BF00006460F46DDE908011BF096FF0DF134086B
:104C00009BF8003000930FAC32463B460294CDF83F
:104C10000480FFF723FF4146484611F0D3FB1BF009
:104C20001DFF554BD3E904231CF0A8F805E03046DE
:104C300039460022514B1BF0C5FD0022504B064661
:104C40000F461CF0E3F90028F1D100224D4B30460D
:104C500039461CF0EFF968B1304639460022474B1F
:104C60001BF0AEFD0022474B06460F461CF0E2F952
:104C70000028F1D12146284611F0A8FB1BF0EEFEDA
:104C8000414BD3E904231CF079F805E0204629467E
:104C900000223A4B1BF096FD0022394B04460D468C
:104CA0001CF0B4F90028F1D10022364B20462946E9
:104CB0001CF0C0F968B12046294600222F4B1BF09A
:104CC0007FFD00222F4B04460D461CF0B3F900284F
:104CD000F1D1DAE9000100222C4B1BF025FF02463E
:104CE0000B461FA1D1E900011CF048F800228046C4
:104CF0008946274B304639461BF016FF02460B46C5
:104D0000404649461BF010FF399BC3E900010022D1
:104D1000DAE900011D4B1BF007FF02460B4610A10C
:104D2000D1E900011CF02AF8002206460F46184B74
:104D3000204629461BF0F8FE02460B46304639460F
:104D40001BF0F2FE3A9BC3E900012FB0BDE8F08FE3
:104D5000000000A046DF913F00000020DCA54C4091
:104D6000000000000020AC40509DFF1F4C93FF1F2F
:104D7000000024405098FF1F209CFF1F00807640B9
:104D8000008066C000806640709CFF1F00002E40BF
:104D90000000E03F004059402DE9F04786B006ACE6
:104DA000002344F8043D05468A4613F0CDFE8046B4
:104DB0002846894613F0C4FE1BA3D3E900231BF049
:104DC000B3FE04AD06460F4617A3D3E900234046C1
:104DD00049461BF0A9FECDF800A0029432463B469E
:104DE0000195FFF73BFE72B6114E049B114C059DD9
:104DF000736118466561336125611BF02FFEC6E9BA
:104E0000060128461BF02AFEC4E9060162B60A4BD9
:104E10001B780BB1FBF7FCFB084B002201201A703A
:104E200006B0BDE8F08700BF00000020DCA54C40C4
:104E3000F894FF1F6893FF1F0A94FF1FF487FF1F5A
:104E40002DE9F047144D154C6D78154E9AB08646F5
:104E50008DF82050D4E90045CDE90A45069608AD05
:104E60008A46904699460F4C0FCDD4E900676C46B0
:104E7000CDE90C670FC495E80300424684E80300BF
:104E80004B4671460EA813F0A7FC51460EA8FFF73B
:104E900083FF1AB0BDE8F0874C93FF1F3087FF1FD8
:104EA0005098FF1FE887FF1F10B58CB00C46054ACD
:104EB0000146684613F060FD21466846FFF76CFF27
:104EC0000CB010BD5098FF1F30B5044685B072B6C7
:104ED000174A184B10691D6962B61BF0BFFD164BCF
:104EE000D3E904231BF04AFF0FA3D3E900231BF0EF
:104EF0001BFECDE9020128461BF0B0FD0F4BD3E9A4
:104F000004231BF03BFF08A3D3E900231BF00CFE96
:104F10000022CDE900010023204613F085FD204644
:104F200005B030BDAFF30080000000A046DF913F28
:104F3000F894FF1F6893FF1F209CFF1F709CFF1FAA
:104F4000F0B5814CE36985B00546002B00F0BC80CC
:104F50001A7C012A47D972B6D86862B61BF07EFD6A
:104F6000D4E900231BF00AFF637A002B32D00246FB
:104F700001F1004310461946744C71A3D3E9002394
:104F80001BF0D2FDE36906460F46002B00F0A3801C
:104F90001A7C012A5ED972B6D86862B61BF05EFD33
:104FA000D4E900231BF0EAFE637AB3B101F10043B8
:104FB000194663A3D3E900231BF0B6FDCDE9020136
:104FC000CDE9006700220023284613F02DFD284676
:104FD00005B0F0BD02460B46CCE759A3D3E9002348
:104FE0001BF0A2FDEAE772B61A68586811780678D5
:104FF000587A1A7A064201EA020177D09A7A02F0C8
:10500000030209B142F0040242F008029110013A91
:1050100099720D2AA0D801A151F822F03551000053
:105020002D510000255100002D510000594F000066
:105030001D51000035510000355100001D51000088
:10504000594F00002D510000255100002D51000046
:105050003551000072B61A685868117890F800E06F
:10506000587A1A7A1EEA000F01EA020136D09A7ABB
:1050700002F0030209B142F0040242F0080291106A
:10508000013A99720D2A87D801A151F822F000BF88
:10509000155100000D510000055100000D51000098
:1050A000994F0000FD5000001551000015510000FF
:1050B000FD500000994F00000D5100000551000007
:1050C0000D51000015510000204CE3690026002717
:1050D000002B7FF45DAF002000216FE79A7A02F089
:1050E00003020029CBD042F00402C8E79A7A02F00A
:1050F000030200298AD042F0040287E7D868023808
:10510000D8604AE7D8680230D86046E7D8680138E6
:10511000D86042E7D8680130D8603EE7D8680238E6
:10512000D8601AE7D8680230D86016E7D868013826
:10513000D86012E7D8680130D8600EE7AFF300807E
:10514000000000A046DF913F1894FF1F009CFF1F46
:105150002DE9F0419AB080460EA816461F46FFF78B
:10516000B3FE104A104B52788DF82020D3E900236B
:10517000CDE90A2308AD0FCDCDE906670B4CD4E984
:1051800000676C46CDE90C670FC495E80300084A38
:1051900084E8030040460EA913F0B2FC40461AB062
:1051A000BDE8F0814C93FF1F3087FF1FE887FF1F8A
:1051B0000898FF1F2DE9F0419AB080460EA81646C8
:1051C0001F46FFF7BDFE104A104B52788DF8202085
:1051D000D3E90023CDE90A2308AD0FCDCDE9066759
:1051E0000B4CD4E900676C46CDE90C670FC495E819
:1051F0000300084A84E8030040460EA913F080FC2F
:1052000040461AB0BDE8F0814C93FF1F3087FF1F66
:10521000E887FF1F0898FF1F70B50E4D98B006462F
:105220000CA8FFF751FE0FCD06AC0FC495E80300A4
:1052300006AD84E803000FCD6C460FC495E803006B
:10524000054A84E8030030460CA913F005FC3046FB
:1052500018B070BDF87B02000898FF1F70B5124BA4
:105260001B7898B0064623B9FFF7D6FF304618B032
:1052700070BD0E4D0CA8FFF763FE0FCD06AC0FC43A
:1052800095E8030006AD84E803000FCD6D460FC519
:1052900094E80300064A85E8030030460CA913F0A1
:1052A000DBFB304618B070BD0A94FF1FF87B02008C
:1052B0000898FF1FFFFFFFFF2DE9F047674CA37819
:1052C000413BB0B0312B00F2D882DFE813F0400050
:1052D000D602D6025F007C00D602D602D602CD00EE
:1052E0009901D602CC018A02D602BD02EA01D60299
:1052F0002B02D6027502D602D602D602D602D602FA
:10530000D602D602D602D602D602D602D602D602DD
:10531000D602D602D602D602D602D602D602D602CD
:10532000D602D6027F02D602D602D602D602D60214
:105330003200E378702B01F0A481742B00F0848399
:10534000672B01F0DD81464B23221A8098E2454A03
:105350001278002309930A930B930C930D930E93E9
:10536000109316932293002A41F09881E378303B02
:10537000082B01F2F981DFE813F04B0641063706EE
:105380002D06230619060F060506FB05E378423BAA
:10539000152B00F2E985DFE813F07504E705E70552
:1053A000E705E705E705E705E705E705E705E7059D
:1053B000E705E705E7056804E7055D04E705E70598
:1053C000E705E7054804E278A2F13103412B01F239
:1053D0005A80DFE813F08E048E04580858085808E5
:1053E00058085808580858085808580858085808BD
:1053F0005808580858085D0558085808D204580835
:10540000580858085808580858085808580858089C
:105410005808CB04B6045808D2045808580858084D
:1054200058085808580858085D055808580858087A
:10543000580858085808580858085808580858086C
:10544000580858085808580858085808580858085C
:105450005808580858085808AB0400BFC095FF1FEB
:10546000CC9CFF1FF194FF1F72B6934D934E2B6996
:10547000306962B6924B1B685A42904280F20382B6
:105480000220904B202103F1320203F8011F9A42BF
:10549000FBD18D4A8D4F8E498E4B12788E4C0978F8
:1054A00097F800C01B78DFF878E227788B4C183229
:1054B00001EB420230331CF80E1022706370A170B1
:1054C0000FB14823E370864B864A1B7812788349D4
:1054D00030332371002A01F0C78040234B71824B87
:1054E0001A78814B012A01F0C8801A78022A01F04B
:1054F000C4801A78032A01F030811B78042B04BF82
:105500002D23A371794B1A7C022A01F0DB801A7CCF
:10551000FE2A01F014811A7CFF2A01F0E9801B7C2D
:10552000012B01F0E580724B02281A7C01F0D28039
:10553000022A01F0CB801A7CFE2A01F0D1801A7C6D
:10554000FF2A01F0D9801B7C012B01F0D5806B78FC
:105550000BB973780BB166236372664A664B117898
:10556000664A1B7812785D4D00290CBF302131212D
:105570003033012AE172A37201F0B680022A01F0F1
:10558000DA80042A01F0D080032A01F0F28055234A
:105590002B735B4901284FF000024FF00003D1E963
:1055A000020101F0BB801BF045FD002814BF57230A
:1055B00045236373534B1B78002B41F03E804122FF
:1055C000514B52491B785248C97AA2733033E37366
:1055D000037821B14F4AD27A0AB143F002034E4A0E
:1055E00012780AB143F004034C4A12780AB143F02E
:1055F000080341332321002223746174A2743FE124
:10560000E378423B2B2B00F23B81DFE813F0A70449
:105610009004390139013901390139013901390160
:10562000390139019704390139017104390139010E
:1056300084047F0439013901390139013901390103
:10564000390139013901390139013901390139018A
:10565000390139013901390139013901390139017A
:10566000390139016704E378413B162B00F2898741
:10567000DFE813F03C062D064B06F405E00587072E
:105680008707D8058707870787078707870787075B
:10569000D005870787078707C8058707EB048707B3
:1056A000D804E378313B032B01F23080DFE813F0BC
:1056B0008A01AB01F000F000F894FF1F6893FF1F10
:1056C000709CFF1FCB9CFF1F9095FF1F4897FF1FEB
:1056D000C899FF1F109DFF1FF487FF1FCC9CFF1F61
:1056E000909DFF1F5497FF1F0C94FF1F3894FF1FBE
:1056F000A894FF1FF194FF1F7487FF1F8187FF1F6E
:10570000509DFF1FC887FF1FA094FF1F009CFF1F15
:105710000A94FF1F1894FF1FFC9BFF1F5C97FF1F3D
:10572000A47C0200E378303B422B00F22587DFE8BF
:1057300013F0B705B705B705B705230723072307F8
:105740002307230723072307230723072307230709
:10575000230723073305E6042307D704230723077A
:1057600023072307230723072307230723072307E9
:1057700023072307230723072307230723072307D9
:105780002307BC0423072307230723072307230733
:10579000230723072307230723075005480561052F
:1057A0002307AB0423072307230723072307230724
:1057B000230723072307A405E378303B032B5FD897
:1057C000DFE813F0F101C80193016C01E378413B7C
:1057D000032B00F2B887DFE813F057014D011E02DA
:1057E0004301E378423B2B2B00F2D086DFE813F035
:1057F000E2051E06CE06CE06CE060006CE06B00593
:10580000CE06CE069C053C06CE06CE06CE06CE06BD
:105810000F06D305CE06CE06CE06CE06CE06CE06A3
:10582000CE06CE06CE06CE06CE06CE06CE06CE06D8
:10583000C4052D06CE06CE06CE06CE06CE06CE0674
:10584000CE06CE06CE06F105E378413B122B17D8E3
:10585000DFE813F037023102490216001600160085
:10586000160016004202160016001600160016005A
:1058700016001600160016002302A74B23221A80DA
:1058800030B0BDE8F0879842CCBF02200120F8E597
:10589000A24D9BA3D3E90023D5E902011BF044F9F3
:1058A0000DF1880A02460B465046FFF751FCD5E938
:1058B000020193A3D3E900231BF036F9984A994BD0
:1058C00052788DF84020D3E90023CDE91223894690
:1058D000954906910DF1400E8046944DBEE80F00AB
:1058E000D5E900676D46CDE914670FC59EE8030052
:1058F00042464B4685E80300514616A812F06CFF5D
:1059000016A813F021F980A3D3E900231BF00CF9AA
:10591000CDE90E0116A813F013F97BA3D3E90023F8
:105920001BF002F906460F46CDE92267DDE90E01BC
:1059300072B67F4A7F4B12691B6962B67E4D2A6838
:10594000C2F1000E7345C0F20C879342CCBF022314
:1059500001230DF1340C0DF1300ECDF808C0CDF857
:1059600004E0324600933B46FFF778F80C981BF0B2
:1059700075F8724BD3E904231BF000FACDE90E0150
:105980000D981BF06BF8D5E904231BF0F7F9E378C9
:10599000614C332B6A4B1B7800934FF00103CDE928
:1059A000220107BF1A460EA951461A465A480EF060
:1059B00013F820461DF0C4F802222044614913F078
:1059C00023FE5DE772B65A4B18691BF047F85B4B34
:1059D000D3E904231BF0D2F930AA62E90E0162B6C2
:1059E000574B4D4C1B7800930123114620461A4615
:1059F0000DF0F2FF20461DF0A3F802222044514989
:105A000013F002FE3CE772B64A4B18691BF026F809
:105A1000494BD3E904231BF0B1F930AA62E90E0126
:105A200062B6474B3C4C1B7800930123114620463D
:105A30001A460DF0D1FF20461DF082F802222044C4
:105A4000404913F0E1FD1BE7354B9B78002B00F03C
:105A50001D863D4B304A1B6813801B0C93700FE76B
:105A6000354B586C1BF092FE384902462A481CF010
:105A700039FE05E7314B586C1BF088FE334902466E
:105A800025481CF02FFEFBE62C4B186C1BF07EFE0D
:105A90002E49024620481CF025FEF1E61F4B1E4C05
:105AA000D3E9020116A3D3E900231BF03DF8024617
:105AB0000B4622A8FFF74CFB22A812F0B3FE14A35A
:105AC000D3E900231BF030F830AB63E91A0101225F
:105AD000194620460DF024FE20461DF031F8022222
