:1000000000800020BD010000D5C6010091C601009E
:1000100091C6010091C6010091C6010091C6010080
:1000200091C6010091C6010091C60100D5C601002C
:10003000D5C6010091C60100CDBA0100D1BA0100B8
:10004000D5C60100D5C60100D5C60100D5C6010040
:10005000D5C60100D5C60100D5C60100D5C6010030
:10006000D5C60100D5C60100D5C60100D5C6010020
:10007000D5C60100D5C60100D5C60100D5C6010010
:10008000D5C60100D5C60100D5C60100D5C6010000
:10009000D5C60100D5C60100D5C60100D5C60100F0
:1000A000D5C60100D5C60100D5C60100D5C60100E0
:1000B000D5C60100D5C60100D5C60100D5C60100D0
:1000C000D5C60100D5C60100D5C60100D5C60100C0
:1000D000D5C60100D5C60100D5C60100D5C60100B0
:1000E000D5C60100D5C60100D5C60100D5C60100A0
:1000F000D5C60100E5D70100D5C6010055E10100D4
:10010000D5C601009DE80100D5C60100D5C6010095
:10011000D5C60100D5C60100D5C60100D5C601006F
:10012000D5C60100D5C60100D5C60100D5C601005F
:10013000D5C60100D5C60100D5C60100D5C601004F
:10014000D5C60100D5C60100D5C60100D5C601003F
:100150006DC0010089C00100A5C00100C1C001003F
:10016000D5C60100A1EB0100D5C60100D5C601002E
:10017000D5C60100D5C60100D5C60100D5C601000F
:10018000D5C60100D5C60100D5C60100D5C60100FF
:10019000D5C60100D5C60100D5C60100D5C60100EF
:1001A000D5C60100D5C60100D5C60100D5C60100DF
:1001B000D5C60100D5C60100D5C60100574B4CF28B
:1001C000205210B5DA814DF62812DA8100BF00BF47
:1001D0001CF084FA524B4FF010621A63514A9A6332
:1001E000514ADA63514A136913F4807303D153619E
:1001F0004FF4A85313614E4B9A78110703D59A78A0
:1002000042F008029A704B4B4B482A221A704B4B13
:10021000DA1C121AC11E22F00302994288BF002282
:1002200047491CF061F9474B4748DA1C121AC11EB6
:1002300022F00302994288BF0022002126F02AFA08
:10024000424943484FF4DE721CF04EF9414B424A9A
:10025000802103F8011B9342FBD14FF0E0233C4A7D
:10026000C3F8082D3D4B8A221A70A3F5805324222F
:100270005A70A0221A709A799207FCD59A79D406FE
:10028000FCD4374B9A7902F00C02082AFAD10522E5
:100290001A7143225A719A799006FCD5304A9379A3
:1002A0005906FCD51E4B4FF08171596405219964A4
:1002B00020211170917901F00C010C29FAD1294A01
:1002C0005A604FF0E023284A5A6100229A610722BF
:1002D0001A61264AC3F8202D62B61CF071FC134B3C
:1002E0005B69DA0705D522481CF05EFC214B224AE7
:1002F000DA61224B1B785B0609D51E4C1E4BE26966
:100300009A4204D11A481CF04FFC0023E3611CF010
:10031000EBF926F085FB1CF0DFF8FEE70020054036
:1003200000800440823F04000100002B00D0034005
:1003300000D0074000E007402087FF1FE88FFF1F25
:10034000C0E4020074A2FF1FE88FFF1F000000003E
:100350000082FF1F00E400E05FE400E00050064080
:1003600000400640C01005003F1901000000202099
:1003700054BED66900E00340A5C3945A00F007407C
:10038000FFFFFFFFFFFFFFFFFFFFFFFFFFFFFFFF7D
:10039000FFFFFFFFFFFFFFFFFFFFFFFFFFFFFFFF6D
:1003A000FFFFFFFFFFFFFFFFFFFFFFFFFFFFFFFF5D
:1003B000FFFFFFFFFFFFFFFFFFFFFFFFFFFFFFFF4D
:1003C000FFFFFFFFFFFFFFFFFFFFFFFFFFFFFFFF3D
:1003D000FFFFFFFFFFFFFFFFFFFFFFFFFFFFFFFF2D
:1003E000FFFFFFFFFFFFFFFFFFFFFFFFFFFFFFFF1D
:1003F000FFFFFFFFFFFFFFFFFFFFFFFFFFFFFFFF0D
:10040000FFFFFFFFFFFFFFFFFFFFFFFFDEF9FFFF23
:100410000548064B1B1AD90F01EBA301491002D066
:10042000034B03B118477047E88FFF1FE88FFF1F8A
:100430000000000008B5054B1BB105490548AFF3A6
:100440000080BDE80840FFF7E3BF00BF00000000E8
:10045000E88FFF1FB8E4020008B51CF09FFB0021E5
:1004600008BD00BFFFFFFFFF2DE9F04FD64BD74976
:10047000D3E9042385B0C1E90E231CF08FFB0021D2
:10048000044615F0EDFD00210646204615F07AFDE4
:1004900000210546204615F0CDFD6B1E012B98BFAF
:1004A00006F1FF360746304698BF0C3523F0C6FEEE
:1004B000C749064623F0CAFF20F090F9C549814696
:1004C000304623F0C3FF20F089F9C3498046304607
:1004D00023F008FF20F082F90646284623F0AEFEFE
:1004E0004FF07E5123F0F6FDBC4923F0FBFE20F0D7
:1004F00075F9494605464FF0804023F0E9FD414635
:1005000023F0E8FD23F040FA80463046894623F088
:100510003BFA02460B464046494623F0D7F8804650
:100520002846894623F030FA02460B4640464946A3
:1005300023F0CCF880463846894623F013FA024669
:100540000B464046494623F0C1F88BA3D3E900236C
:1005500023F0BCF802461746884620460021CDE924
:10056000027815F051FD00210646204615F020FDC9
:1005700023F064FE9A4923F069FF0546304623F0D4
:100580005DFE0146284623F0A5FD002103462046D6
:100590001C4615F023FD23F051FE924923F056FF2F
:1005A000214623F097FD23F0EFF98F4BCDE90001B1
:1005B00000223846414623F089F820F041F870A324
:1005C000D3E9002304460D4623F0C6FC58B36EA3BE
:1005D000D3E900232046294623F076F86CA3D3E91B
:1005E000002323F053FB23F0D7FC23F0BBF97F4B10
:1005F000002206460F4623F01FFA20F021F802469B
:100600000B462046294614461D460022784B23F00F
:100610005DF832463B4623F059F822462B4623F03C
:1006200053F804460D465CA3D3E90023204629462F
:1006300023F04CF85AA3D3E9002304460D4623F0D7
:1006400043F859A3D3E9002323F020FB1FF0F8FF60
:1006500055A3D3E9002382468B4623F0EDF91FF022
:10066000EFFF02460B462046294623F02DF850A303
:10067000D3E9002306460F4623F008FB1FF0E0FFF6
:100680004BA3D3E900238046894623F0D5F91FF018
:10069000D7FF002204460D4600233046394623F09A
:1006A00015F822462B4623F00FF81FF0C9FF23F060
:1006B00073FC504B044600224046494623F02EFC72
:1006C000002800F0BC824A4B00224046494622F0F6
:1006D000FBFF23F061FC0646304623F0AFFD4649A0
:1006E000054623F0BBFF002800F09E8232A3D3E929
:1006F00000235046594622F0E7FF23F04DFC074601
:10070000731E012B05D806F10C0023F097FD013F65
:100710000546384623F092FD2D49064623F096FE05
:1007200020F05CF82B498246304623F08FFE20F003
:1007300055F829498146304623F0D4FD20F04EF883
:100740004FF07E518046284623F0C4FC234923F015
:10075000C9FD20F043F81AA3D3E900230546DDE9DB
:10076000020122F0B1FF254B06460F460022DDE9CB
:10077000000145E0AFF3008000000080A2423A4152
:10078000000000008C8A414100000040D07D3C41C7
:100790000000000088D5E1400000000000D0974034
:1007A0000000006066865E400000000000D47640D5
:1007B00000000020A0993E4000000000006CB24004
:1007C000000000802CB442411892FF1F7891FF1F57
:1007D0000000C8420000C84300A0B64301CDF44168
:1007E00000007042000061450000E03F0000D03F83
:1007F0000000F03F00002B40000020400000384087
:1008000023F044FA02460B463046394622F05EFF9A
:1008100002460B46CDE90223D1A3D3E9002323F0FE
:1008200035FA02460B464FF0804051469B469246B1
:1008300023F04EFC494623F04DFC23F0A5F8064674
:1008400040460F4623F0A0F802460B463046394694
:1008500022F03CFF064628460F4623F095F8024654
:100860000B463046394622F031FF064620460F46F9
:1008700023F078F802460B463046394622F026FF30
:10088000B9A3D3E9002322F021FFB9A3D3E90023C0
:1008900022F01AFFB8A3D3E9002323F0CDF8B8A3C0
:1008A000D3E9002322F012FFCD4B00228046894677
:1008B00023F048FB78B1CA4D002422462B4640461F
:1008C000494622F001FF22462B468046894623F006
:1008D00039FB0028F1D1002200234046494623F08D
:1008E0001DFB88B1BE4F0026002400254046494626
:1008F00032463B4622F0EAFE22462B468046894697
:1009000023F00CFB0028F1D19FA3D3E90023DDE9FC
:10091000000123F091F842464B4622F0D7FE9CA3FB
:10092000D3E9002304460D465046594623F084F887
:1009300052465B4623F080F802460B462046294685
:1009400022F0C4FEA64B002204460D4623F0FAFA1C
:1009500078B1A34F002632463B462046294622F076
:10096000B3FE32463B4604460D4623F0EBFA002820
:10097000F1D1002200232046294623F0CFFA98B176
:10098000974F00264FF000084FF0000932463B46D3
:100990002046294622F09AFE42464B4604460D4622
:1009A00023F0BCFA0028F1D1DDE902AB7AA3D3E948
:1009B00000235046594623F03FF802460B4678A1E3
:1009C000D1E9000122F080FE77A3D3E9002323F0D0
:1009D0005DF91FF04BFB76A3D3E9002306460F46D3
:1009E0005046594623F028F873A3D3E9002322F098
:1009F0006DFE02460B4622F069FE6BA3D3E900238D
:100A000023F044F91FF032FB6DA3D3E900238046A5
:100A100089465046594623F00FF802460B466AA114
:100A2000D1E9000122F050FE5FA3D3E9002323F0B7
:100A30002DF91FF08FFA66A3D3E9002382468B4677
:100A40003046394622F0F8FF63A3D3E90023064677
:100A50000F464046494622F0EFFF02460B4630461D
:100A6000394622F031FE52465B4622F0E5FF22462F
:100A70002B4622F02BFE5A4B00228046894623F05B
:100A800061FA78B1564D002422462B46404649462D
:100A900022F01AFE22462B468046894623F052FA5F
:100AA0000028F1D1002200234046494623F036FABF
:100AB00088B14B4F00260024002532463B46404675
:100AC000494622F003FE22462B468046894623F003
:100AD00025FA0028F1D14349434B0022D1E90E0108
:100AE00023F0D4F802460B464046494622F0ECFD7E
:100AF0003B4B00228046894623F024FA78B1384DDA
:100B0000002422462B464046494622F0DDFD22467F
:100B10002B468046894623F015FA0028F1D10022A1
:100B200000234046494623F0F9F988B12C4F0026AE
:100B30000024002532463B464046494622F0C6FD89
:100B400022462B468046894623F0E8F90028F1D159
:100B5000234B00224046494623F098F846E000BF68
:100B600000000000A0D5E14000000080A2423A4110
:100B7000000000802CB44241000000E05BD2B03F96
:100B8000000000801CCA1A40000000E0360BF03F55
:100B9000000000605243FB3E00000060C91CAB3FF8
:100BA000000000608F425F4000000020DCA54C4048
:100BB000000000E0718AEF3F00000020858771404F
:100BC000000000A0F2D79A3E000000007670374087
:100BD000000000A0EEE734BF00000080732AF93E59
:100BE000000038407891FF1F00002E401CA3D3E97D
:100BF000002322F021FF23F0CFF972B61C490860D0
:100C000062B672B60A680B68C1E9042362B6194875
:100C10000EF01EFCE8B117480EF06CFC0A2005B07F
:100C2000BDE8F04F1CF0C0B90FA3D3E90023504634
:100C3000594622F049FD23F0AFF9074660E50E4B17
:100C400000224046494622F03FFD23F0A5F9064622
:100C500042E508480EF014FCDDE700BFAFF300806A
:100C600000000000C07A604100000000006BB2404C
:100C70007891FF1F6092FF1F00002A4008B5114BBA
:100C800093F80B1593F82B25914204D0002283F89A
:100C90000B2583F82B250B4812F058FC00B108BD3A
:100CA000094B0A4A19680A4BA0F1333000FB0133A3
:100CB000B2EB730F0348BDE8084094BF0121002147
:100CC00013F0C2BB6092FF1F7891FF1F9999991989
:100CD0009899991970B50C4682B072B62F4A11686E
:100CE00062B61369CB1A002B26DC2D4E2D4D1CF05D
:100CF0003BF92D4B9A68D9681860821A8A42C8BF9E
:100D0000DA605A60326801929860019AD5F8A83387
:100D100042F20F71D31A8B4294BF0121002121703E
:100D200004D902F51C521032C5F8A8231D4802B0A0
:100D3000BDE8704013F05AB9D06811611844D06012
:100D400091688B42C8BF9360012B03D05068591E35
:100D50000144516012681548114E80FB0250D117B2
:100D6000C1EB6011642000FB11210E4D326800922E
:100D70000098D5F8A82342F20F7C821A624594BFEE
:100D800001220022227004D900F51C501030C5F851
:100D9000A803044813F024FAA9E700BF7891FF1FC5
:100DA000849CFF1F6092FF1F0890FF1F1F85EB515F
:100DB000F8B5164E164D3778044601F073F903F076
:100DC0001FFF95F878339F4205D0172128460EF073
:100DD00023FC95F878330E48337012F0B1FB10B94C
:100DE00095F8783443B92046FFF748FF2046094973
:100DF000BDE8F840FFF76EBF05480EF009FB044858
:100E000013F02AFD02480EF007FBECE70190FF1FEC
:100E10006092FF1F0090FF1F08B51BF0E7FABDE8C6
:100E200008401BF0E3BA00BF10B5012117201CF0E9
:100E30005FF80E484FF416511AF08CFF142401216C
:100E400017201CF021F80A201CF0AEF81720002112
:100E50001CF01AF832201CF0A7F8013CEFD1BDE8D5
:100E60001040012117201CF00FB800BF0888FF1F99
:100E700038B50920124C134D1CF030FF00210A2018
:100E80001CF0EEFE20464DF6C0211AF0ABFE0A2300
:100E9000A3600D4804211DF00DF81DF093F8FA2011
:100EA0001CF082F8012406E01DF0C4F8C0B23F280F
:100EB00008BF85F837401DF0A9F80028F4DC38BDDC
:100EC000F487FF1F6092FF1F10CF02002DE9F84347
:100ED0001B4D1C4C2E681C4FDFF8709040F2EE2822
:100EE0001EF02CFC2378EBB13B78DB071AD52B687E
:100EF000D9F800209B1A0E2B14D901221449154849
:100F000001F0AAF914484FF461411AF0F9FD1249B1
:100F10001248022201F0A0F9BDE8F8430021172091
:100F20001BF0B2BF2B6822789B1B2AB1B3F5FA6F76
:100F3000E3D81EF003FCD3E74345FAD9DDE700BF51
:100F4000849CFF1F209FFF1F449FFF1F489FFF1F80
:100F50006488FF1F6490FF1FE087FF1F4090FF1F02
:100F600070B5274C0546FFF75FFF0DF0AFFE20463A
:100F70000EF0BEFA234815F00BFA002600210120DE
:100F800015F014FA1BF00AFE314615F0DFF90121C5
:100F900006201BF0ADFFD4F8241706201BF062FEDC
:100FA00020460EF031FA20460EF034FB314604F5AF
:100FB000AD600EF077FB204611F0A6FB20460EF048
:100FC000FBFA2846FFF750FA72B60F4B19681A68F9
:100FD000C3E9041262B64FF4FA601BF0E5FF1DF09E
:100FE000CBFBB042D8BF00232846C8BF012384F8FA
:100FF0003830FFF73DFF2846BDE87040FFF766BF79
:101000006092FF1F590400007891FF1F38B50378E4
:10101000062B04464ED03A2B4AD14378243B442B2E
:1010200046D8DFE813F008014500450045004500BB
:101030004500450045004500450045004500450088
:101040004500450045004500450045004500450078
:101050004500450045004500450045004500450068
:101060000001C500B500E100CE00EA00AC0045007B
:1010700045004500450045009D00450045004500F0
:1010800094008B0082007200690045005F004500FB
:101090004500450045004500450045004500450028
:1010A00045004500450045004500450056004D00FF
:1010B000042038BD4378002B14BF0420012038BD24
:1010C00081786A4825F038FB00280CBF04200220F4
:1010D00038BD8178664825F02FFB00280CBF04201E
:1010E000022038BD84786348214625F025FB00287E
:1010F00000F0AF80002038BD81785F4825F01CFBF0
:10110000B0FA80F04009800038BD84785B48214601
:1011100025F012FB0028EDD15948214625F00CFBA3
:1011200000280CBF0420022038BD8178554825F0E6
:1011300003FB00280CBF0420022038BD81785248F0
:1011400025F0FAFAB0FA80F04009800038BD8178C5
:101150004E4825F0F1FAB0FA80F04009800038BD21
:1011600084784B48214625F0E7FA0028C2D1494847
:10117000214625F0E1FA002876D0012038BD81789B
:10118000454825F0D9FA00280CBF0420032038BDBB
:1011900084784248214625F0CFFA002855D12146CF
:1011A0003F4825F0C9FAB0FA80F04009800038BD08
:1011B00081783C4825F0C0FAB0FA80F04009800000
:1011C00038BD85783848294625F0B6FA00283CD144
:1011D0004D2D40D0572D7FF46BAFE378303B012B82
:1011E0008CBF0420022038BD8178234825F0A4FA62
:1011F00000280CBF0420032038BD84782B482146EA
:1012000025F09AFA00287FF475AF2948214625F089
:1012100093FAE0B92748214625F08EFA00280CBF42
:101220000420032038BD84782348214625F084FA21
:1012300068B92248EFE784782148214625F07CFAF6
:1012400000287FF457AF1F4867E7032038BD02200E
:1012500038BD1D48DFE7E1781C4825F06DFA00280D
:101260000CBF0420012038BD194856E78CCF02007E
:1012700068CF0200E8CF0200CCD00200D8CF020035
:10128000E0CF0200C0CF0200B4CF0200ACCF02001A
:1012900098CF0200A0CF02006CCF020030CF020036
:1012A00094CF02002CCF020034CF020040CF0200C6
:1012B0004CCF020060CF020018CF020028CF0200FE
:1012C00048CF0200F0CF0200A4CF020038CF0200C6
:1012D000A8CF0200002800F0FD8410B503783A2B57
:1012E000044640F0E684FFF791FE002800F0CE842B
:1012F000431EDBB2012B40F2CA84032840F0E18494
:10130000C549204625F0C0FB002800F0C284C3492F
:10131000204625F0B9FB002800F0BD84C0492046D6
:1013200025F0B2FB002800F0B884BE49204625F025
:10133000ABFB002800F0B384BB49204625F0A4FB9A
:10134000002800F0B084B949204625F09DFB002814
:1013500000F0AB84B649204625F096FB002800F04B
:10136000A684B449204625F08FFB002800F0A48411
:10137000B149204625F088FB002800F09F84AF4942
:10138000204625F081FB002800F08B84AC492046E4
:1013900025F07AFB002800F09784AA49204625F022
:1013A00073FB002800F09284A749204625F06CFBCF
:1013B000002800F08D84A549204625F065FB002813
:1013C00000F08B84A249204625F05EFB002800F047
:1013D0008684A049204625F057FB002800F0818430
:1013E0009D49204625F050FB002800F07C849B4955
:1013F000204625F049FB002800F0778498492046D4
:1014000025F042FB002800F072849649204625F022
:101410003BFB002800F06D849349204625F034FB07
:10142000002800F068849149204625F02DFB002813
:1014300000F063848E49204625F026FB002800F04A
:101440005E848C49204625F01FFB002800F059845B
:101450008949204625F018FB002800F0548487496C
:10146000204625F011FB002800F04F8484492046D7
:1014700025F00AFB002800F04A848249204625F026
:1014800003FB002800F045847F49204625F0FCFA44
:10149000002800F042847D49204625F0F5FA002816
:1014A00000F039847A49204625F0EEFA002800F051
:1014B00038847849204625F0E7FA002800F02F8488
:1014C0007549204625F0E0FA002800F0348473497D
:1014D000204625F0D9FA002800F02B8470492046D8
:1014E00025F0D2FA002800F076846E49204625F0D7
:1014F000CBFA002800F06D846B49204625F0C4FA31
:10150000002800F064846949204625F0BDFA0028CF
:1015100000F05B846649204625F0B6FA002800F00A
:1015200052846449204625F0AFFA002800F049842F
:101530006149204625F0A8FA002800F040845F4960
:10154000204625F0A1FA002800F037845C492046A7
:1015500025F09AFA002800F02E845A49204625F0FA
:1015600093FA002800F025845749204625F08CFA8C
:10157000002800F01C845549204625F085FA0028F3
:1015800000F013845249204625F07EFA002800F02E
:101590000A845049204625F077FA002800F001849B
:1015A0004D49204625F070FA002800F0F8834B4999
:1015B000204625F069FA002800F0EF8348492046CC
:1015C00025F062FA002800F0E6834649204625F01F
:1015D0005BFA002800F0DD834349204625F054FAE9
:1015E000002800F0D4834149204625F04DFA002818
:1015F00000F0CB833E49204625F046FA002800F053
:10160000C2833C49204625F03FFA002800F0B98308
:101610003949204672E000BFF4CF0200FCCF02003F
:1016200004D002000CD0020014D002001CD0020032
:1016300020D0020010CF020028D0020030D00200DB
:1016400038D0020040D0020048D0020050D0020042
:1016500058D0020060D0020068D0020070D00200B2
:1016600078D0020080D0020088D0020090D0020022
:1016700098D00200A0D00200A8D00200B0D0020092
:10168000B8D00200C0D00200C8D00200D0D0020002
:10169000D8D00200E0D00200E8D00200F0D0020072
:1016A000F8D0020000D1020008D1020010D10200DF
:1016B00018D1020020D1020028D1020030D102004E
:1016C00038D1020040D1020048D1020050D10200BE
:1016D00058D1020060D1020068D1020070D102002E
:1016E00078D1020080D1020088D1020090D102009E
:1016F00098D10200A0D10200A8D1020025F0C4F9BF
:10170000002800F03C83C549204625F0BDF900289B
:1017100000F03383C249204625F0B6F9002800F0D6
:101720002A83C049204625F0AFF9002800F0218324
:10173000BD49204625F0A8F9002800F01883BB49D0
:10174000204625F0A1F9002800F00F83B849204673
:1017500025F09AF9002800F00683B649204625F0C6
:1017600093F9002800F0FD82B349204625F08CF95A
:10177000002800F0F482B149204625F085F90028C0
:1017800000F0EB82AE49204625F07EF9002800F0FB
:10179000DB83AC49204625F077F9002800F0D2839E
:1017A000A949204625F070F9002800F0C983A7490F
:1017B000204625F069F9002800F0C083A44920469E
:1017C00025F062F9002800F0B783A249204625F0F1
:1017D0005BF9002800F0AE839F49204625F054F9BC
:1017E000002800F0A5839D49204625F04DF90028EA
:1017F00000F09C839A49204625F046F9002800F025
:1018000093839849204625F03FF9002800F08A8309
:101810009549204625F038F9002800F08183934946
:10182000204625F031F9002800F0788390492046C1
:1018300025F02AF9002800F06F838E49204625F014
:1018400023F9002800F066838B49204625F01CF917
:10185000002800F05D838949204625F015F900280D
:1018600000F054838649204625F00EF9002800F048
:101870004B838449204625F007F9002800F0428375
:101880008149204625F000F9002800F039837F497E
:10189000204625F0F9F8002800F030837C492046E6
:1018A00025F0F2F8002800F027837A49204625F039
:1018B000EBF8002800F01E837749204625F0E4F875
:1018C000002800F0DC827549204625F0DDF800286C
:1018D00000F0D3827249204625F0D6F8002800F0A7
:1018E000CA827049204625F0CFF8002800F0C18256
:1018F0006D49204625F0C8F8002800F0B8826B49F1
:10190000204625F0C1F8002800F0AF826849204643
:1019100025F0BAF8002800F0A6826649204625F096
:10192000B3F8002800F09D826349204625F0ACF80A
:10193000002800F094826149204625F0A5F800288F
:1019400000F08B825E49204625F09EF8002800F0CA
:1019500082825C49204625F097F8002800F07982C1
:101960005949204625F090F8002800F07082574928
:10197000204625F089F8002800F067825449204667
:1019800025F082F8002800F05E825249204625F0BA
:101990007BF8002800F055824F49204625F074F866
:1019A000002800F04C824D49204625F06DF80028B3
:1019B00000F043824A49204625F066F8002800F0EE
:1019C0003A824849204625F05FF8002800F031822D
:1019D0004549204625F058F8002800F02882434960
:1019E000204625F051F8002800F01F82404920468B
:1019F00025F04AF8002800F016823E49204625F0DE
:101A000043F8002800F00D823B49204625F03CF8C1
:101A1000002800F004823949204671E0B0D102006C
:101A2000B8D10200C0D10200C8D10200D0D102005A
:101A3000D8D10200E0D10200E8D10200F0D10200CA
:101A4000F8D1020000D2020008D2020010D2020037
:101A500018D2020020D2020028D2020030D20200A6
:101A600038D2020040D2020048D2020050D2020016
:101A700058D2020060D2020068D2020070D2020086
:101A800078D2020080D2020088D2020090D20200F6
:101A900098D20200A0D20200A8D20200B0D2020066
:101AA000B8D20200C0D20200C8D20200D0D20200D6
:101AB000D8D20200E0D20200E8D20200F0D2020046
:101AC000F8D2020000D3020008D3020010D30200B3
:101AD00018D3020020D3020028D3020030D3020022
:101AE00038D3020040D3020048D3020050D3020092
:101AF00058D3020060D3020068D3020070D3020002
:101B000024F0C2FF002800F08881DE49204624F03E
:101B1000BBFF002800F07F81DB49204624F0B4FFA2
:101B2000002800F07681D949204624F0ADFF002836
:101B300000F06D81D649204624F0A6FF002800F071
:101B40006481D449204624F09FFF002800F05B8187
:101B5000D149204624F098FF002800F05281CF4957
:101B6000204624F091FF002800F04981CC4920460E
:101B700024F08AFF002800F04081CA49204624F062
:101B800083FF002800F03781C749204624F07CFFFE
:101B9000002800F02E81C549204624F075FF00285A
:101BA00000F02581C249204624F06EFF002800F095
:101BB0001C81C049204624F067FF002800F01381F3
:101BC000BD49204624F060FF002800F00A81BB498F
:101BD000204624F059FF002800F00181B849204632
:101BE00024F052FF002800F0F880B649204624F087
:101BF0004BFF002800F0AF80B349204624F044FF9B
:101C0000002800F0A680B149204624F03DFF0028BE
:101C100000F09D80AE49204624F036FF002800F0F9
:101C20009480AC49204624F02FFF002800F08B80E0
:101C3000A949204624F028FF002800F08280A74907
:101C4000204624F021FF002879D0A549204624F021
:101C50001BFF002871D0A349204624F015FF00285F
:101C600065D0A149204624F00FFF00285DD09F4990
:101C7000204624F009FF002855D09D49204624F035
:101C800003FF00280CBF04204FF0FF3010BD0120DF
:101C900010BD102010BD042010BD042010BD042074
:101CA00010BD202010BD042010BD042010BD102048
:101CB00010BD4FF0FF3010BD202010BD4FF48070DC
:101CC00010BD4FF0FF3010BD102010BD802010BDA2
:101CD000102010BD4FF0FF307047102010BD1020B5
:101CE00010BD082010BD102010BD102010BD082010
:101CF00010BD082010BD102010BD102010BD1020F8
:101D000010BD082010BD102010BD082010BD1020EF
:101D100010BD102010BD102010BD042010BD2020CB
:101D200010BD102010BD102010BD102010BD0820C7
:101D300010BD042010BD102010BD082010BD1020C3
:101D400010BD042010BD082010BD102010BD1020B3
:101D500010BD082010BD102010BD102010BD102097
:101D600010BD082010BD102010BD102010BD102087
:101D700010BD102010BD102010BD102010BD10206F
:101D800010BD102010BD102010BD102010BD10205F
:101D900010BD102010BD102010BD102010BD8020DF
:101DA00010BD102010BD102010BD102010BD8820C7
:101DB00010BD102010BD102010BD102010BD10202F
:101DC00010BD102010BD102010BD102010BD10201F
:101DD00010BD102010BD042010BD102010BD042027
:101DE00010BD082010BD102010BD042010BD04201F
:101DF00010BD042010BD082010BD082010BD10200B
:101E000010BD082010BD082010BD102010BD1020EE
:101E100010BD082010BD042010BD102010BD1020E2
:101E200010BD102010BD102010BD102010BD1020BE
:101E300010BD082010BD082010BD102010BD1020BE
:101E400010BD102010BD082010BD082010BD0820B6
:101E500010BD082010BD082010BD082010BD0420B2
:101E600010BD042010BD082010BD082010BD0820A2
:101E700010BD082010BD082010BD082010BD102086
:101E800010BD00BF78D3020080D3020088D30200C7
:101E900090D3020098D30200A0D30200A8D302007E
:101EA000B0D30200B8D30200C0D30200C8D30200EE
:101EB000D0D30200D8D30200E0D30200E8D302005E
:101EC000F0D30200F8D3020000D4020008D40200CC
:101ED00010D4020018D4020020D4020028D402003A
:101EE00030D4020038D4020040D4020048D40200AA
:101EF00050D40200102010BD082010BD082010BDD5
:101F0000082010BD082010BD102010BD102010BDED
:101F1000082010BD082010BD082010BD102010BDE5
:101F2000102010BD102010BD102010BD082010BDC5
:101F3000102010BD102010BD042010BD102010BDB9
:101F4000102010BD102010BD102010BDF8B51D4E82
:101F500004461D2700253A4631462E301AF0C4FAB1
:101F60003A463146E564A4F8505004F152001AF0A4
:101F7000BBFA4FF4E13323604FF4164301214DF6D1
:101F80007C52A3604FF4964384F85E1162604FF474
:101F9000E1414FF4615223614FF41653E1606261F5
:101FA0004FF49651A3614FF416624FF4966384F890
:101FB000705084F84251A585E16122626362A56296
:101FC0002046F8BD58D40200024B3122A3F87020FD
:101FD000704700BF1890FF1F044B054A1B68A2F80A
:101FE00070301B0C82F87230704700BF0CD10200B9
:101FF0001890FF1F024B3022A3F87020704700BFDB
:102000001890FF1F044B054A1B68A2F870301B0C88
:1020100082F87230704700BF04D102001890FF1F91
:10202000024B2322A3F87020704700BF1890FF1FB7
:10203000044B18B13122A3F8702070473022A3F866
:10204000702070471890FF1F024B002283F8702009
:10205000704700BF1890FF1F70B5114E2321304606
:1020600024F06AFB58B1044606F1D200FFF732F9BA
:10207000002804DDA41B844201DAD02800DD70BDF5
:10208000051B621C3146701924F088FA002DF6DD1C
:102090002A4630462021BDE8704024F0FBBA00BF3C
:1020A0008890FF1F30B55A4C83B004F14C000025D6
:1020B0008DF8075000F0D4F804F1280000F0D0F8B3
:1020C00004F5A17104F128000DF1070200F02EF9CA
:1020D0000DF1070204F5A17104F14C0000F026F99E
:1020E0009DF80730002B57D0D222294604F170000A
:1020F00024F0D0FA94F84231063B622B48D8DFE84E
:1021000003F08347474747474747474747474747BE
:10211000474747474747474747474747474747474F
:102120008047474747474747474747474747474706
:10213000474747474747474747474747477D7A7796
:1021400074716E6B47474747476847474765625D0D
:102150005A574754474747474747474747474747DF
:102160004747475132000AF0F3FE94F870307BB1D4
:10217000FFF772FF27499DF80720A1F1240000F026
:10218000E9F824499DF80720A1F1480000F0E2F8A1
:10219000214B93F860350BB903B030BD12F0FCFF52
:1021A00003B030BD03F0D4F8DFE70AF061FADCE7F2
:1021B0000AF06EF8D9E709F0ABF9D6E70DF10700A0
:1021C00006F06EFAD1E705F08DFECEE705F02CFEA5
:1021D000CBE705F009FAC8E701F0B2FCC5E701F06A
:1021E000A9FBC2E700F058FEBFE700F027FEBCE7FE
:1021F00000F0CEFBB9E700F069FBB6E700F0C8F8E5
:10220000B3E70AF06DFEB0E700F03AFBADE700BFC0
:102210001890FF1F8890FF1F6092FF1F08B51AF0EB
:10222000E5F81AF0E3F80A48FFF790FE094B0022A0
:10223000002000211A60C3E908015A60C3E90A01BD
:102240009A60C3E90C011A615A61DA6008BD00BFE7
:102250001890FF1F7891FF1F01600271704700BF47
:102260002DE9F041304E0446002500F107082068B2
:1022700003681B69984700282CDD677957BB2068E5
:1022800003685B699847C0B206281CD0831FDBB285
:102290001A2B21D826FA03F3DB0712D494F8222054
:1022A000531CDBB22244E1181B2B90718F7136D87E
:1022B000232884F8223004D1012B1CD884F8225022
:1022C000A5716771D3E794F82230002BF9D101236F
:1022D0006371E080BDE8F08194F82220531C224411
:1022E000DBB29071E2181B2B9771E1D91B232328D5
:1022F00084F82230E5D1A2793A2ADFD1013B234488
:102300009A79232ADAD19D71404624F099FD01275C
:10231000421C4146A01D24F041F96771A7E71B2329
:1023200084F822306771A2E791000004437983B1F9
:1023300070B51678154606B170BD04460846A11D55
:1023400024F00CFD237984F82260A67166712B704D
:1023500070BD70470379934200D0704770B5046830
:102360000D4651B1084624F06BFD2368024629460C
:1023700020465B68BDE87040184770BD08B51AF08C
:1023800035F8BDE808401AF031B800BFFFFFFFFF85
:102390002DE9F04F784D95F843312A3BBBB02D2BFA
:1023A0002FD8DFE813F0FB002E002E002E002E00A9
:1023B0002E009C0133003300330033003300330020
:1023C0003300330033002E002E002E002E002E008E
:1023D0002E002E00CB00B901CB002E00DE012E0016
:1023E0002E002E002E002E002E002E002E002E007D
:1023F0002E002E002E002E002E002E002E002E006D
:10240000FE013BB0BDE8F04FFFF71EBE72B65B4B5E
:10241000186862B65A4B984205DDA0F50300A0F596
:1024200056409842F9DC21F009FF5649564C22F0FB
:102430000DF8564921F056FF21F0A6FA544B002220
:1024400021F0FAFAD4E9D82321F03EF916F030FD54
:10245000504BD3E9026746A3D3E9002321F0ECFAFD
:10246000CDE9020142A3D3E90023D4E9D60121F04A
:10247000E3FA0022CDE90001002314A815F020FEA4
:1024800021460EA80DF014F839A3D3E900233046F5
:10249000394621F0D1FA0DF1380C80468946BCE866
:1024A0000F00EE46AEE80F009CE803004B468EE8B6
:1024B0000300424614A92CA815F052FE94F81833D4
:1024C000002B00F07881304920A80EF05DF82CA890
:1024D00015F0D2FF80462CA8894615F0B9FF20AB35
:1024E000CDE90601184616F06BF820AB8246184677
:1024F0008B4616F05BF8DDE90623CDE90401CDE952
:102500000023CDE902AB4B462348424619F008FAB6
:1025100094F81933002B40F05F8195F843312F3B3D
:102520000122DBB2002184F82B2384F82C3384F8B9
:102530003610FFF749FD3BB0BDE8F08F124C01208B
:102540000AF0AEFE20460CF09BFF95F84331A3F154
:102550004103B3FA83F300225B0984F82A3384F839
:102560002B2384F82C233BB0BDE8F04FFFF72CBDA4
:10257000000000A046DF913F1890FF1F7891FF1FD9
:1025800000D6830000D6034B6092FF1F0000C041BD
:1025900000002E401892FF1FA893FF1FAA4C012095
:1025A0000AF07EFE04F5AD6001210DF07BF80A20F3
:1025B0001AF0FAFC94F87834002B40F00981A24814
:1025C00010F0D0FF94F8403307461BB1002284F886
:1025D00040231F4672B69D4B186862B69C4B9842CA
:1025E00005DDA0F50300A0F556409842F9DC21F086
:1025F00025FE984921F02AFF974921F073FE21F02A
:10260000C3F9964B002221F017FAD4E9D82321F020
:102610005BF816F04DFC924BD3E9028982A3D3E913
:10262000002321F009FACDE902017FA3D3E90023B9
:10263000D4E9D60121F000FA0022CDE900010023FF
:1026400014A815F03DFD08A87F490CF031FF76A3D2
:10265000D3E900234046494621F0EEF908AD804613
:1026600089460FCD6E460FC695E803004B4686E8B7
:102670000300424614A92CA815F072FD3A462CA975
:1026800071480DF081FC20A86F490DF07DFF2CA84A
:1026900015F0F2FE82462CA88B4615F0D9FE0646B0
:1026A00020A80F4615F08CFF804620A8894615F01B
:1026B0007DFF5246CDE904015B466A48CDE90289B7
:1026C000CDE9006719F02CF90122022384F82B23AD
:1026D00084F82C33FFF778FC3BB0BDE8F08F5A4C00
:1026E00001200AF0DDFD20460CF0CAFE012104F5B0
:1026F000AD600CF0D7FF0A201AF056FC94F878343D
:10270000002B61D1012384F82B33A4F82C333BB088
:10271000BDE8F04FFFF758BC00231A461946059351
:10272000049303930293019300934E4818F04CFED8
:10273000454B002400260027C3E9C86783F81943E6
:10274000A3F82C43C42083F8284383F82B430AF0D2
:102750005BFD214619F09AFE3BB0BDE8F04FFFF754
:1027600033BC394991F8193313B331A3D3E90023AA
:10277000D1E9C80121F060F93B4C0123CDE92C01DE
:1027800000932CA90022204616F022FA204624F0BD
:1027900057FB3649022220443BB0BDE8F04F19F008
:1027A000A3BE0BF095F83BB0BDE8F04FFFF70CBCB3
:1027B00000200021E0E7204610F0D4FE2CA90246BC
:1027C00020460DF0E1FB7EE6204612F029F899E75D
:1027D000204612F025F8F2E6224818F081FFA37D8A
:1027E000012B12D0002200231E4818F01FFF1648AC
:1027F00010F0B8FE2CA9024613480DF0C5FB0123CA
:10280000002284F8283313468CE6304639460022ED
:10281000002321F097FB18B107A3D3E90023E3E7D6
:1028200007A3D3E90023DFE7000000A046DF913FC4
:1028300000000020DCA54C4000000060FB21F93FB7
:1028400000000060FB21F9BF6092FF1F7891FF1F1D
:1028500000D6830000D6034B0000C04100002E408C
:102860001892FF1FA893FF1F8890FF1FCCD0020073
:1028700008B519F0BBFDBDE8084019F0B7BD00BFB1
:102880000C4B9B7D022B0DD005D8012B0ED10A4B92
:1028900047221A807047033B012B07D8064B412281
:1028A0001A807047044B50221A807047024B4C220A
:1028B0001A8070476092FF1F8890FF1F08B519F0BB
:1028C00095FDBDE8084019F091BD00BF10B5294B3A
:1028D00093F843312B2B27D02D2B24D1264CD4F821
:1028E0002417FF2935DC1E2940DC1F212D2BC4F8BD
:1028F00024172FD02B2B0FD1084621F09FFC1F4906
:1029000021F0F0FC21F0CAFE0146C4F82407FF299B
:1029100011DDFF21C4F8241706201AF0A3F9BDE841
:102920001040FFF791BB10BD134CD4F82417FF29BA
:10293000D9DDFF21E0E71E29D8BF1F214FF0060097
:10294000D8BFC4F824171AF08DF9BDE81040FFF77E
:102950007BBBFF21084621F071FC084921F076FD80
:1029600021F09CFE0146C4F82407D0E72D2BC1D1ED
:10297000F0E700BF1890FF1F6092FF1F3333B33F93
:1029800008B519F033FDBDE8084019F02FBD00BFB0
:102990002DE9F04FBC4CB3B0204610F0C7FD10B18C
:1029A00033B0BDE8F08F204610F0D0FD0028F7D1FD
:1029B000B64D95F84331412B09D04D3BDBB2082B86
:1029C000EED840F2411222FA03F3DB07E8D5AE4815
:1029D00010F0C8FD94F8403380461BB1002284F803
:1029E0004023984695F84331413B142BD8D801A297
:1029F00052F823F0B52C0000A1290000A129000005
:102A0000A1290000A1290000A1290000A12900009E
:102A1000A1290000A1290000A1290000A12900008E
:102A2000A1290000492A0000A1290000A1290000D5
:102A3000A1290000A1290000A1290000492A0000C5
:102A4000A1290000692B000094F82A33002B00F024
:102A5000508172B68E4B186862B68E4B984205DD77
:102A6000A0F50300A0F556409842F9DC21F0E6FB02
:102A7000894921F0EBFC894921F034FC20F084FFE6
:102A8000874B002220F0D8FFD4E9D82320F01CFE89
:102A900016F00EFA7AA3D3E9002320F0CDFF78A335
:102AA000D3E90023CDE90201D4E9D60120F0C4FF27
:102AB0000022CDE9000100230CA815F001FB7949A3
:102AC0006FA3D3E90023D1E9020120F0B5FF064648
:102AD0000F4606A86C490CF0EBFC0DF1180CBCE895
:102AE0000F00EE46AEE80F009CE803003B468EE880
:102AF000030032460CA924A815F032FB94F81833D1
:102B0000002B00F05D81604918A80DF03DFD24A860
:102B100015F0B2FC064624A80F4615F099FC824633
:102B200018A88B4615F04CFD804618A8894615F06C
:102B30003DFD3B46CDE90401CDE90289CDE900AB7D
:102B40005948324618F0ECFE94F81933002B40F047
:102B50001D8195F843314D2B00F011814A4833B067
:102B6000BDE8F04F11F05CBE0E200AF04DFB0646AA
:102B700019F072FC002560F30705701C19F06CFC5D
:102B800060F30F25B01C19F067FC0346F01C63F3DB
:102B9000174519F061FC60F31F65284620F0F4FE2C
:102BA00002460B461220C4E9D8230AF02DFB064644
:102BB00019F052FC002560F30705701C19F04CFC5D
:102BC00060F30F25B01C19F047FC0346F01C63F3BB
:102BD000174519F041FC60F31F65284620F0D4FE2C
:102BE000C4E9D60172B62A4B186862B6294B9842DE
:102BF00005DDA0F50300A0F556409842F9DC21F070
:102C00001DFB254921F022FC244921F06BFB20F01B
:102C1000BBFE234B002220F00FFFD4E9D82320F085
:102C200053FD16F045F916A3D3E9002320F004FF65
:102C300013A3D3E90023CDE90201D4E9D60120F0A2
:102C4000FBFE0022CDE90001002324A815F038FA8C
:102C500014490BA3D3E90023D1E9020120F0ECFED3
:102C60004246CDE90001084824A90DF069F90F4A50
:102C70000F4B92E803001860197191E6AFF30080E2
:102C8000000000A046DF913F6092FF1F1890FF1FD9
:102C90007891FF1F00D6830000D6034B0000C0418F
:102CA00000002E401892FF1FA893FF1F78D4020047
:102CB0008890FF1F012104914DA3D3E90023D4E99B
:102CC000D40120F0B9FE4AA3D3E90023CDE90201E3
:102CD000D4E9D20120F0B0FE0022CDE900010023AA
:102CE00024A815F0FDFA424624A947480DF04CF9F6
:102CF000BDE772B6454B186862B6454A904205DD9D
:102D0000A0F50300A0F556409042F9DC21F096FAB8
:102D1000404921F09BFB404921F0E4FA20F034FEC9
:102D20003E4B002220F088FED4E9D82320F0CCFCD2
:102D300016F0BEF82EA3D3E9002320F07DFE2CA3CD
:102D4000D3E90023CDE90201D4E9D60120F074FED5
:102D50000022CDE90001002324A815F0B1F9304983
:102D600023A3D3E90023D1E9020120F065FE424606
:102D7000CDE9000124A924480DF0E2F8E9E6294B49
:102D800093E80300286785F87410E7E6264818F0F2
:102D9000A7FCA37D012B19D000220023224818F0A4
:102DA00045FC194810F0DEFB24A9024616480DF038
:102DB000EBF80122002384F8282384F82A33C8E69C
:102DC000424624A910480DF0DFF89CE6144B00227F
:102DD000D3E90201002321F0B5F818B106A3D3E925
:102DE0000023DBE706A3D3E90023D7E7AFF3008096
:102DF000000000A046DF913F00000060FB21F93F8A
:102E000000000060FB21F9BF6092FF1F7891FF1F57
:102E100000D6830000D6034B0000C04100002E40C6
:102E20001892FF1F78D40200A893FF1F08B519F06D
:102E3000DDFABDE8084019F0D9BA00BF10B50D4C55
:102E400094F8433103B110BD0B4810F079FB68B121
:102E50007F23A4F87030094C204623F0F1FF084985
:102E600020440222BDE8104019F03EBB84F87000F7
:102E7000F1E700BF1890FF1F6092FF1F8890FF1FAF
:102E8000CCD0020008B519F0B1FABDE8084019F03D
:102E9000ADBA00BFFFFFFFFF2DE9F04FAE4A92F839
:102EA0004331413BA3B00C2B13D8DFE803F00712EA
:102EB0007C2C1212121212121212170092F84431C4
:102EC000512B00F03882532B00F0CE81452B00F0BF
:102ED000638123B0BDE8F04FFFF7B6B892F84431F4
:102EE000532B78D0412B00F02083552B00F05783D3
:102EF000512BEED1994B002283F8362023B0BDE848
:102F0000F04FFFF761B8954C94F83630012B00F084
:102F1000C380022B57D1D4E9D4018DA3D3E9002378
:102F20000125049520F088FDCDE9020188A3D3E9AD
:102F30000023D4E9D20120F07FFD14AECDE90001D9
:102F400000220023304615F0CBF9204610F00AFB92
:102F500012AA10AB0C920B930A9018AD0FCD6C46D1
:102F60000FC40FCD0FC495E8030084E8030096E872
:102F70000F0011F031FF7A490446109821F0B2F9A0
:102F800021F08CFB76490546129821F0ABF921F02F
:102F900085FB744900902B467348224623F098FA2B
:102FA00023B0BDE8F08F92F84431532B00F09781A5
:102FB000542B00F0E980452B00F08D8123B0BDE853
:102FC000F04FFFF72DB80023664900931A46664874
:102FD00023F07EFAE4E772B6644B186862B6644B7D
:102FE000984205DDA0F50300A0F556409842F9DCB3
:102FF00021F024F95F49594F21F028FA5E4921F068
:1030000071F920F0C1FC5D4B002220F015FDD7E9DD
:10301000D82320F059FB15F04BFF4DA3D3E9002333
:1030200020F00AFDCDE9020149A3D3E90023D7E945
:10303000D60120F001FD14AECDE9000100220023ED
:10304000304615F03DF8384610F08CFA12AB0D936F
:103050004B4910AB0C9380463DA3D3E90023D1E943
:10306000020120F0E9FCCDE90A01CDF8208018AD7D
:103070000FCD6C460FC495E80F0084E80F0096E86A
:103080000F0012F043F83F490246374823F020FA78
:10309000012387F8363083E772B6344B186862B67E
:1030A000334B984205DDA0F50300A0F55640984249
:1030B000F9DC21F0C3F82F4921F0C8F92E4921F09D
:1030C00011F920F061FC2D4B002220F0B5FCD4E971
:1030D000D82320F0F9FA15F0EBFE1DA3D3E9002365
:1030E00020F0AAFC02460B46D4E9D601CDE9022322
:1030F00017A3D3E9002320F09FFC14AECDE9000113
:1031000000220023304614F0DBFF144810F02AFAA6
:1031100012AC1B490D94074610ACD1E902010CA377
:10312000D3E900230C9420F087FCCDE90A0108972D
:1031300018AD0FCD6C460FC495E80F0084E80F0062
:1031400096E80F0011F0E2FF15E700BFAFF3008033
:10315000000000A046DF913F1890FF1F6092FF1F04
:103160000000704280D402008890FF1F7891FF1FFA
:1031700000D6830000D6034B0000C04100002E4063
:103180001892FF1F90D40200B9480CF00DFF23B035
:10319000BDE8F04FFEF720BFB54C10A9204614AB98
:1031A00012AA0DF0EBF994F80BA5DDE91001BAF1C4
:1031B000000F40F0C7804FF0000A94F82B35DDE98E
:1031C0001267002B00F0AE81D4F83C351A7C012A3E
:1031D00040F2468372B6D3F80CB062B6D4F83835F4
:1031E0000F93ABEB0305284620F0BCFBA14B8046B8
:1031F000D3E9002330468946394620F065FA0F9A14
:103200005A4506460F4600F08D810022002320F02B
:103210007BFE002840F08681964B002DA3F1100B19
:103220004FF000024FF0000339463046D4BF00256E
:10323000012520F091FE002818BF85F0010584F8D3
:10324000295532463B464046494620F01FFD21F0B5
:103250000041C4F82005CBF80410BAF1000F00F0CB
:103260006181FEF7B9FE9BE6814C0023204684F87D
:10327000FD340CF08DFF14AB12AA10A920460DF0FE
:103280007DF9DDE9100104F5A262C2E90001D4F87C
:103290001C351A7C012A40F2FD8072B6DA6862B6EB
:1032A000DDE91201734DC4F818250123C5E90001B9
:1032B00084F80B35D4F83C351A7C012A40F211828F
:1032C00072B6DA6862B60123C4F8382584F82B3563
:1032D000FEF782FE64E666480CF05AFF57E7644C3E
:1032E00094F83630012B6FD0022B7FF450AFD4E925
:1032F000D4015DA3D3E900230125049520F09CFBB4
:10330000CDE9020158A3D3E90023D4E9D20120F08A
:1033100093FB0023CDE90001002214A814F0E0FF84
:10332000204610F01FF914A9024620460CF02CFE8E
:10333000FEF752FE34E64E4B002283F80B2583F84D
:103340002B2524E7D4F81C351A7C012A40F221826F
:1033500072B6D3F80C9062B6474DD4F81885D5E90B
:10336000002320F0B1F9C84506460F463FF423AFCD
:103370000022002320F0C8FD00287FF41CAFA9EB39
:103380000808B8F1000F4FF000024FF00003394673
:103390003046D4BF4FF000094FF0010920F0DCFDAA
:1033A000002818BF89F0010984F80995404620F0EB
:1033B000D9FA32463B4620F069FC21F00041C4F8BE
:1033C000000545F80C1CF8E672B62C4B186862B67E
:1033D0002B4B984205DDA0F50300A0F5564098421E
:1033E000F9DC20F02BFF274921F030F8264920F0A6
:1033F00079FF20F0C9FA254B002220F01DFBD4E90B
:10340000D82320F061F915F053FD17A3D3E9002369
:1034100020F012FB02460B46D4E9D601CDE9022387
:1034200011A3D3E9002320F007FB0022CDE900011E
:10343000002314A814F044FE0D4810F093F814492A
:1034400009A3D3E900230446D1E9020120F0F4FAEC
:1034500006460F46CDE90067224614A904480CF041
:103460006FFDFEE6AFF30080000000A046DF913F55
:103470006092FF1F9097FF1F7097FF1F7891FF1FAB
:1034800000D6830000D6034B0000C04100002E4050
:103490001892FF1F72B61A68586811781A7A007865
:1034A00011405A7A104200F06B819A7A02F00302BE
:1034B00009B142F0040242F008029108013A9972FF
:1034C0000D2A3FF6EBAE01A151F822F00D350000B8
:1034D000053500001D350000053500009D32000057
:1034E000153500000D3500000D35000015350000C4
:1034F0009D320000053500001D3500000535000037
:103500000D350000DA68013ADA60C8E6DA6801329F
:10351000DA60C4E6DA68023ADA60C0E6DA680232F3
:10352000DA60BCE6FEF76EFD3AE5BB4FB8A3D3E91F
:103530000023D7E9D4010124049420F07DFACDE9D9
:103540000201B3A3D3E90023D7E9D20120F074FA32
:1035500014AECDE9000100220023304614F0C0FE75
:1035600038460FF0FFFF12AB0C9310AB0B930A9091
:1035700018AD0FCD6C460FC40FCD0FC495E80300F6
:1035800084E8030096E80F0011F026FCA3490246E8
:10359000A34822F09DFF022387F8363000E50E2075
:1035A00009F032FE044618F057FF00250346601C60
:1035B00063F3070518F050FF0346A01C63F30F25C3
:1035C00018F04AFF0346E01C63F3174518F044FF68
:1035D00060F31F65284620F0D7F98F4C02460B4652
:1035E0001220C4E9D82309F00FFE064618F034FF74
:1035F00000250346701C63F3070518F02DFF60F3E8
:103600000F25B01C18F028FF0346F01C63F3174584
:1036100018F022FF60F31F65284620F0B5F9C4E9D1
:10362000D60172B67F4B186862B67F4B984205DDB3
:10363000A0F50300A0F556409842F9DC20F0FEFD0D
:103640007A4920F003FF7A4920F04CFE20F09CF9E3
:10365000784B002220F0F0F9D4E9D82320F034F898
:1036600015F026FC6AA3D3E9002320F0E5F9CDE9A3
:10367000020167A3D3E90023D4E9D60120F0DCF9E5
:1036800014AFCDE9000100220023384614F018FDE4
:1036900061480FF067FF12AB0D93674910AB0C93B5
:1036A00080465BA3D3E90023D1E9020120F0C4F9ED
:1036B000CDE90A01CDF8208018AE0FCE6D460FC5BA
:1036C00096E80F0085E80F0097E80F0011F01EFD47
:1036D00052490246524822F0FBFE012384F836305C
:1036E0005EE472B61A68586811781A7A0078114048
:1036F0005A7A10423CD09A7A02F0030209B142F0A1
:10370000040242F008029108013A99720D2A3FF62C
:10371000D8AD01A151F822F059370000513700000F
:103720006937000051370000C332000061370000E4
:10373000593700005937000061370000C3320000DC
:103740005137000069370000513700005937000039
:10375000DA68013ADA60B5E5DA680132DA60B1E5D3
:10376000DA68023ADA60ADE5DA680232DA60A9E5D1
:103770009A7A02F003020029C5D042F00402C2E79F
:103780009A7A02F0030200293FF497AE42F0040255
:1037900093E672B61A6815785A6816781A7A154040
:1037A0005A7A164200F0B4809A7A02F003020DB100
:1037B00042F0040242F008029508013A9D720D2A77
:1037C0003FF6C7AD01A555F822F000BF3D38000017
:1037D000053800005538000005380000533300005C
:1037E000493800003D3800003D38000049380000ED
:1037F000533300000538000055380000053800003C
:103800003D380000DA6802F1FF39C3F80C90A2E5F8
:10381000000000A046DF913F6092FF1F90D402009D
:103820008890FF1F7891FF1F00D6830000D6034BBE
:103830000000C04100002E401892FF1FDA6802F11C
:103840000109C3F80C9086E5DA68A2F10209C3F811
:103850000C9080E5DA6802F10209C3F80C907AE571
:1038600072B61A6811785A6810781A7A11405A7A22
:10387000104245D09A7A02F0030209B142F00402E4
:1038800042F008029108013A99720D2A3FF6A3AC62
:1038900001A151F822F000BFDD380000D13800004E
:1038A000F5380000D1380000D7310000E9380000B9
:1038B000DD380000DD380000E9380000D7310000B5
:1038C000D1380000F5380000D1380000DD380000A4
:1038D000DA6802F1FF3BC3F80CB07EE4DA6802F16B
:1038E000010BC3F80CB078E4DA68A2F1020BC3F85C
:1038F0000CB072E4DA6802F1020BC3F80CB06CE4AD
:103900009A7A02F003020029BCD042F00402B9E71F
:103910009A7A02F00302002D3FF44EAF42F0040207
:103920004AE700BF08B518F061FDBDE8084018F08F
:103930005DBD00BF2DE9F0435F4B93F837508BB06E
:1039400055B95E4B93F843313F2B00F0A7800BB085
:10395000BDE8F043FEF778BB00233A22CDE902230D
:1039600004930593069307930893ADF824301AF057
:1039700029FB01E01AF05EFB1AF048FB0028F9DC95
:1039800002AF384623F05CFA4D494C4E384422F0E1
:10399000B1FF4C490222C41B18F0A6FD96F8433132
:1039A000572B29D83E2B12D8213BDBB2172B09D835
:1039B0004549012202FA03F3194081BB41F2094251
:1039C000134212D1FEF740FB0BB0BDE8F0833F3B42
:1039D0003E49DBB2012202FA03F31940F1B93C4A35
:1039E0001A40E2B93B4A1342ECD0611C38461AF047
:1039F00061FA1AF0E7FAE5E7613BDBB21D2BE1D88B
:103A0000012202FA03F3344A1A4008D133490B4227
:103A100004D1334A1A40002AD4D0E6E70025DFF863
:103A2000C4803846611C1AF045FA1AF0CBFAD8F86F
:103A300000300093009FD8F800300193019B07F5F8
:103A4000FA779F4225D900244FF4965914E01AF0D2
:103A5000F1FA3319C0B2013483F870001DBB23287A
:103A600027D0D02C15DC331983F87050D8F80030EB
:103A70000193019B9F420CD91AF0C8FA0028E6DC9A
:103A80004B46013BFDD1D8F800300193019B9F428A
:103A9000F2D8FEF7AFFA0BB0BDE8F0830BB0BDE88B
:103AA000F043FEF7AFBA0022312883F871208BD0A3
:103AB000EFE783F8715087E76092FF1F1890FF1FB0
:103AC0005A91FF1FCCD002000080FF00054080000B
:103AD00010040101000116000451020001008020C1
:103AE00040000400849CFF1F08B518F07FFCBDE86F
:103AF000084018F07BBC00BF70B5044682B0D0E926
:103B0000000115F0DBF90B4D95F8EE600122C4E9D8
:103B10000001002321460096284615F059F8284652
:103B200023F08EF904490222284402B0BDE8704017
:103B300018F0DABC8890FF1FCCD00200FFFFFFFF17
:103B40002DE9F047924C94F84321A2F1280392B05A
:103B50004C2B00F29980DFE813F0EB00D9009700BE
:103B6000970097009700970097009700970097009D
:103B7000970097009700970097009700970097008D
:103B8000970097009700970097009700D90097003B
:103B90003502EB009700970093029700970097007B
:103BA00097004D009C009C009C0097009700EB0044
:103BB000A402FB0197002F010502CB029700D90058
:103BC0009700970097009700970097004D00970087
:103BD000C201B201A8019701C601DC02970097005B
:103BE000970097007102A002F50197009700E0018D
:103BF0009700D00218F0D2FF664B67490446D86A96
:103C000020F070FB20F04AFD0346DB17201A634CBE
:103C100063EB4301C4E9060112F0F6F90646D4E964
:103C2000060112F0C5F920F009FB5D4920F00EFCF9
:103C30000546304620F002FB0146284620F04AFAAD
:103C40000546D4E9060112F0C9F920F0F7FA524905
:103C500020F0FCFB294620F03DFA1FF095FE514D67
:103C600002460B462146E1E90A230122284614F0C8
:103C700013FF284623F0E4F84B490222284412B0EF
:103C8000BDE8F04718F030BC12B0BDE8F047FEF7D1
:103C9000C7B9A2F14D05454F05EB45086FF0590630
:103CA00008EBC808361B07F10F094644BA4606EB75
:103CB0000A0018F0D1FB0AF8010F002800F0AD82CD
:103CC000D145F4D13A4937482A4622F001FC35481B
:103CD00023F0B6F80E2817D8324E002508F1150843
:103CE00008EB0504204618F0B7FB17F8019F814543
:103CF00005F101054946204601D018F0C7FB3046C2
:103D000023F09EF88542EBDD264DB5E7294904A84E
:103D10000CF0DCFD94F84331412B00F00B835A2B5F
:103D200000F03F83292B00F0628312B0BDE8F087DA
:103D3000184913A3D3E90023D1E902011FF07CFE47
:103D40000B4602461B4904A80CF052FC94F8433180
:103D5000522B00F09282442B00F02E83282BE4D1CA
:103D600004A814F085FA08A3D3E900231FF064FE29
:103D700002460B4602A8CDE90223FFF7BDFED4E7B9
:103D8000000000A046DF913F00000020DCA54C4071
:103D90001890FF1F1892FF1F000061457891FF1FC8
:103DA000000070428890FF1FCCD002008790FF1F58
:103DB000D4D402006092FF1F94F84431423B2E2B72
:103DC0003FF662AF01A252F823F000BFF7410000B6
:103DD000893C0000DD410000893C0000893C000076
:103DE000893C0000893C0000893C0000893C0000BF
:103DF000893C0000893C0000893C0000C94100006A
:103E0000893C00004D410000893C0000893C0000D5
:103E1000893C00003B410000893C0000893C0000D7
:103E2000893C0000893C0000893C0000893C00007E
:103E3000893C0000893C0000893C0000893C00006E
:103E4000893C0000893C0000893C000033410000AF
:103E5000893C0000893C0000893C0000893C00004E
:103E6000893C0000893C0000893C0000893C00003E
:103E7000893C0000893C0000893C0000893C00002E
:103E8000893C00001F410000B14BD3E9E00120F064
:103E9000CBF804AB0022002118F0AEFC04A9AD4819
:103EA00022F028FDAC490222E9E6AC4BAC49B3F95B
:103EB0001820A84812B0BDE8F04722F009BB94F8DA
:103EC00044314C2B00F0D481A24D94F85E01009057
:103ED000A44900220123284614F07AFEC9E69D4B2E
:103EE000A14A1A6021E794F84401A049994CA0F135
:103EF00066000123B0FA80F040091A46009020467F
:103F000014F066FE204622F09BFF934902222044D3
:103F100012B0BDE8F04718F0E7BA94F844314C2BE2
:103F200000F0A1818A49924B8A4D0022D1E9D80143
:103F30001FF0ACFE0F460646CDE9046794F85E21FB
:103F400004A993E6824B8B49D3F82C218148B1E731
:103F50007F4C94F88A33002B40F0C8810020052262
:103F600004AB98E77A4EB47D022C00F0CF8100F2CA
:103F70004681012C40F0D481764D284622F060FF26
:103F80007D490222284418F0AFFA96F88A33714826
:103F9000002B00F04C8122F053FF78490222284484
:103FA00018F0A2FA6A480FF0C9FA002800F0478119
:103FB000684822F045FF72490222284418F094FA1A
:103FC000644857E618F0EAFD644B6E496E4D0446AE
:103FD000D86A20F087F920F061FB0346DB17201A2E
:103FE00063EB4301C5E9060112F03AF80446D5E94E
:103FF000060111F0C7FF0646D5E9060112F01AF8CE
:104000000746D5E9060111F0FFFFD5E9060111F0D9
:10401000CFFFD5E9060111F0E1FF5C4A4D4882FB74
:104020000412E317C3EB6213642202FB13445849E2
:1040300000943B46324622F04BFA76E64448454D22
:104040000FF090FA534B1B682B801A0C0128AA70B2
:1040500000F085810228B3D13D480FF097FA00287F
:1040600040F0F6813D490023D1E9020100221FF012
:1040700069FF002814BF5723452384F870309FE759
:10408000364BD86A1FF080FC0B4643490246314844
:1040900012B0BDE8F04722F01BBA404A40492D4813
:1040A00008E772B6384B186862B63E4B984205DD99
:1040B000A0F50300A0F556409842F9DC20F0BEF8C8
:1040C000394920F0C3F9394920F00CF91FF05CFCA4
:1040D00094F8444102460B464C2CCDE9042300F0F1
:1040E00000811C4C012204A9204614F0D5FC09E7EC
:1040F00012B0BDE8F04701F02FBF94F844012C49FD
:10410000144CA0F16600B0FA80F0400900220123AF
:10411000F4E60F4B2749D3F828210E48CAE6264A71
:104120000C4B07CA03C318460B4900F8012B0222A7
:10413000A5E5224907480322BCE6214A054B92E83F
:104140000300232283E803001A81EEE51D4AE7E716
:104150006092FF1F8890FF1FCCD002001892FF1FB3
:10416000B8D40200B895FF1F323423002892FF1FF5
:1041700000002E40E4D4020038D5020040D50200F1
:1041800048D50200000061457891FF1F1F85EB5163
:1041900094D40200DCD40200C0D402003292FF1F8B
:1041A000E0D4020000D6830000D6034B0000C041DB
:1041B0002092FF1FCCD4020018D5020030D5020097
:1041C00024D502000CD50200AF4AB04B92E80300A0
:1041D000022218601971581DAD4950E5AD4AAB4B2C
:1041E00007CA03C323F8022B1846140CA84900F889
:1041F000014B022243E5A849A448F0225AE6033CB9
:10420000012C00F28D80A14D284622F019FEA34911
:104210000222284418F068F9B7E694F87030002BB1
:104220003FF450AD994D284622F00AFE24E522F0D5
:1042300007FE9B490222284418F056F9B2E6994835
:104240000FF074F9002840F0A38096F828338F48C7
:10425000002B00F0958022F0F3FD934902222844C0
:1042600018F042F9ACE68F4B9049D3E9D8230EE71A
:104270008C4B8E49D3E9D62309E794F844314C2B73
:1042800000F0B98072B68A4B186862B6894B9842C2
:1042900005DDA0F50300A0F556409842F9DC1FF0BB
:1042A000CDFF8549794D20F0D1F8844920F01AF8E6
:1042B0001FF06AFB6CA3D3E900231FF0BDFB02468D
:1042C0000B4604A813F0E8FF69A3D3E900231FF00D
:1042D000B3FB0F460646CDE9026794F85E2102A9BA
:1042E000C4E47749694822F0F3F81EE520460FF050
:1042F00027F900287FF432AE5FA3D3E90023D4E985
:10430000E4011FF099FB1FF08FFE28E65F4D284661
:1043100022F096FD6B492246284418F0E5F834E671
:104320005A4D284622F08CFD67490222284418F095
:10433000DBF82AE604A814F08BF851A3D3E9002394
:104340001FF07AFB514D94F85E410094CDE90201D3
:104350000022012302A9284614F03AFC89E45148BE
:104360000FF014F9002875D158490023D1E9020152
:1043700000221FF0E7FD002814BF452357237CE6E9
:1043800022F05EFD52490222284418F0ADF817E6EB
:104390003E4822F055FD4B490222284418F0A4F86B
:1043A0000EE604A814F058F835A3D3E900231FF053
:1043B00043FB14F09DFDDBE404A813F05DFF30A384
:1043C000D3E900231FF038FB94F8445102460B4612
:1043D0004C2DCDE902233FD02C4D94F85E01009086
:1043E000002202A90123284614F0F2FB41E404A8AC
:1043F00014F02AF8B7E472B62D4B186862B62D4B4C
:10440000984205DDA0F50300A0F556409842F9DC7E
:104410001FF014FF284920F019F828491FF062FF07
:104420001FF0B2FA10A3D3E900231FF005FB0246E8
:104430000B4604A813F030FF11A3D3E900231FF0AB
:10444000FBFA02460B461148224922F041F86CE47F
:10445000572312E6452310E614490C4822F038F899
:1044600063E400BFAFF300800000004052C1D03FC2
:10447000000000A0C88E0E40000000E006154E406F
:1044800000000020DCA54C4004D502008890FF1FEE
:10449000CCD00200F8D4020030D50200D0D6020001
:1044A00044D502006092FF1FE4CF0200ACD40200AA
:1044B0007891FF1F00D6830000D6034B0000C04157
:1044C000ECD4020034D502003CD502001892FF1F44
:1044D0004CD50200A4D4020008B517F087FFBDE850
:1044E000084017F083BF00BF2DE9F04F87B018F0E8
:1044F00055FB0021044611F0B3FD0021064620467D
:1045000011F040FD00210546204611F093FD6B1E81
:10451000012B98BF06F1FF368046304698BF0C3518
:104520001FF08CFED64906461FF090FF1CF056F98E
:10453000D449074630461FF089FF1CF04FF9D24995
:10454000034630461E461FF0CDFE1CF047F981465B
:1045500028461FF073FE4FF07E511FF0BBFDCB4984
:104560001FF0C0FE1CF03AF9394605464FF0804076
:104570001FF0AEFD31461FF0ADFD1FF005FA0646F7
:1045800048460F461FF000FA02460B4630463946B1
:104590001FF09CF8064628460F461FF0F5F9024624
:1045A0000B46304639461FF091F8064640460F4606
:1045B0001FF0D8F902460B46304639461FF086F800
:1045C00099A3D3E900231FF081F882468B46204649
:1045D000002111F019FD00210646204611F0E8FCEB
:1045E0001FF02CFEAA491FF031FF054630461FF090
:1045F00025FE014628461FF06DFD0021034620469A
:104600001C4611F0EBFC1FF019FEA2491FF01EFF23
:1046100021461FF05FFD1FF0B7F99F4BCDE9000168
:104620000022504659461FF051F81CF009F880A3AB
:10463000D3E9002304460D461FF08EFC58B37EA339
:10464000D3E90023204629461FF03EF87CA3D3E996
:1046500000231FF01BFB1FF09FFC1FF083F98F4B03
:10466000002206460F461FF0E7F91BF0E9FF02465D
:104670000B462046294614461D460022884B1FF053
:1046800025F832463B461FF021F822462B461FF004
:104690001BF804460D466CA3D3E9002320462946A7
:1046A0001FF014F86AA3D3E9002304460D461FF057
:1046B0000BF869A3D3E900231FF0E8FA1BF0C0FF51
:1046C00002460B46CDE9022363A3D3E900231FF082
:1046D000B3F91BF0B5FF02460B46204629461EF0F3
:1046E000F3FF5FA3D3E90023804689461FF0CEFA8B
:1046F0001BF0A6FF5AA3D3E9002304460D461FF082
:104700009BF91BF09DFF002206460F460023404602
:1047100049461EF0DBFF32463B461EF0D5FF1BF03C
:104720008FFF1FF039FC5F4B0646002220462946CA
:104730001FF0F4FB002800F01482594B20460022A1
:1047400029461EF0C1FF1FF027FC044620461FF03B
:1047500075FD554980461FF081FF002800F0F68165
:1047600041A3D3E90023DDE902011EF0ADFF1FF0F4
:1047700013FC0546631E012B05D804F10C001FF045
:104780005DFD013D804628461FF058FD3C4904462A
:104790001FF05CFE1CF022F83A49074620461FF045
:1047A00055FE1CF01BF83849054620461FF09AFDBF
:1047B0001CF014F84FF07E51044640461FF08AFC6E
:1047C00032491FF08FFD1CF009F803465946504648
:1047D000059327A3D3E900231EF076FF334B8046D1
:1047E00089460022DDE900011FF050FA02460B461F
:1047F000404649461EF06AFF1FA3D3E900238246C4
:104800008B461FF043FA02460B464FF08040394674
:10481000CDE902231FF05CFC29461FF05BFC1FF072
:10482000B3F8804644E000BF00000080A2423A4155
:10483000000000008C8A414100000040D07D3C41D6
:104840000000000088D5E1400000000000D0974043
:104850000000006066865E400000000000D47640E4
:1048600000000020A0993E4000000000006CB24013
:10487000000000802CB4424100000000A0D5E140BF
:104880000000C8420000C84300A0B64301CDF44177
:1048900000007042000061450000E03F0000D03F92
:1048A0000000F03F00002B40000020400000384096
:1048B000204689461FF068F802460B4640464946A6
:1048C0001EF004FF044605980D461FF05DF80246F1
:1048D0000B46204629461EF0F9FE044630460D469A
:1048E0001FF040F802460B46204629461EF0EEFE19
:1048F000A1A3D3E900231EF0E9FEA1A3D3E900237D
:104900001EF0E2FEA0A3D3E900231FF095F8A0A3B8
:10491000D3E900231EF0DAFEB74B00228046894619
:104920001FF010FB78B1B44D002422462B464046C0
:1049300049461EF0C9FE22462B46804689461FF096
:1049400001FB0028F1D100220023404649461FF018
:10495000E5FA88B1A84F00260024002540464946C4
:1049600032463B461EF0B2FE22462B468046894622
:104970001FF0D4FA0028F1D187A3D3E90023DDE9A1
:1049800000011FF059F842464B461EF09FFEDDE93C
:10499000026783A3D3E9002304460D463046394617
:1049A0001FF04AF832463B461FF046F802460B46D7
:1049B000204629461EF08AFE8F4B002280468946FB
:1049C0001FF0C0FA78B18C4D002422462B46404699
:1049D00049461EF079FE22462B46804689461FF046
:1049E000B1FA0028F1D100220023404649461FF0C9
:1049F00095FA88B1804F00260024002532463B46B8
:104A0000404649461EF062FE22462B4680468946B5
:104A10001FF084FA0028F1D163A3D3E900235046A4
:104A200059461FF009F802460B4661A1D1E9000181
:104A30001EF04AFE60A3D3E900231FF027F91BF004
:104A400015FB5FA3D3E9002304460D4650465946A3
:104A50001EF0F2FF5CA3D3E900231EF037FE0246EE
:104A60000B461EF033FE54A3D3E900231FF00EF9CA
:104A70001BF0FCFA56A3D3E9002306460F46504626
:104A800059461EF0D9FF02460B4653A1D1E9000159
:104A90001EF01AFE48A3D3E900231FF0F7F81BF01D
:104AA00059FA4FA3D3E9002382468B462046294674
:104AB0001EF0C2FF4CA3D3E9002304460D46304646
:104AC00039461EF0B9FF02460B46204629461EF025
:104AD000FBFD52465B461EF0AFFF42464B461EF0C2
:104AE000F5FD454B0022804689461FF02BFA78B130
:104AF000414D002422462B46404649461EF0E4FD27
:104B000022462B46804689461FF01CFA0028F1D128
:104B100000220023404649461FF000FA88B1364F74
:104B200000260024002532463B46404649461EF0FA
:104B3000CDFD22462B46804689461FF0EFF900281E
:104B4000F1D14046494607B0BDE8F08F28A3D3E92C
:104B50000023DDE902011EF0B7FD1FF01DFA054636
:104B600008E6264B2046002229461EF0ADFD1FF028
:104B700013FA0446EAE500BF00000080A2423A4171
:104B8000000000802CB44241000000E05BD2B03F46
:104B9000000000801CCA1A40000000E0360BF03F05
:104BA000000000605243FB3E00000060C91CAB3FA8
:104BB000000000608F425F4000000020DCA54C40F8
:104BC000000000E0718AEF3F0000002085877140FF
:104BD000000000A0F2D79A3E000000007670374037
:104BE000000000A0EEE734BF00000080732AF93E09
:104BF00000000000006BB2400000384000002A4076
:104C000010B50E4C94F8383003B910BD20460EF0A4
:104C100095FC60B10A4C05E019F0C2FDC1B2204616
:104C200014F044FC19F0A8FD0028F5D110BD204671
:104C30000EF07CFC0028EDD110BD00BF6092FF1F7C
:104C40009C92FF1F224B93F8380000B9704710B4B4
:104C500093F8842085B03AB9002093F83C20EAB953
:104C6000002005B010BC70471A48D3F89040026885
:104C70000092009A41F28731121B8A42ECD893F8D5
:104C80007420002AE8D0026801920198D3F88020AD
:104C9000801A88428CBF00200120DEE70D4C196F7E
:104CA00022680292029A521A41F287318A42D7D878
:104CB00093F8B420002AD3D022680392D3F8B82006
:104CC000039B9B1A8B428CBF002000F00100C8E7B9
:104CD0006092FF1F849CFF1F124B93F884200AB937
:104CE0000020704710B41048D3F89040026883B099
:104CF00041F287310092009A121B8A420DD893F834
:104D0000742052B1026801920198D3F88030C01A21
:104D100088428CBF0020012000E0002003B010BCBE
:104D2000704700BF6092FF1F849CFF1F114B93F8D8
:104D30003C200AB90020704710B40F481C6F02686D
:104D400083B041F287310092009A121B8A420DD83B
:104D500093F8B42052B102680192D3F8B8300198A8
:104D6000C01A88428CBF0020012000E0002003B060
:104D700010BC70476092FF1F849CFF1F154B93F877
:104D8000D4200AB90020704700B5134AD3F8D800E0
:104D9000126883B041F287310192019A121A8A4255
:104DA00003D9002003B05DF804FB0022D3F8DC0037
:104DB00083F8D5201FF042FA08491FF047FB4FF057
:104DC00080411FF02DFC003818BF012003B05DF8B2
:104DD00004FB00BF6092FF1F849CFF1F0000C842BD
:104DE0002DE9F0472F4F304D3B6829688CB041F2D8
:104DF00088320193019B5B1A934204D82B4B18789D
:104E00000CB0BDE8F0872A4B03F1100C0FCB04AEB9
:104E100086E80F009CE80F0008AC84E80F003046DD
:104E200014F0E8FB8046304614F0F4FB824630462E
:104E300014F002FC8146204614F00AFC0646204687
:104E400014F012FC034620461C4614F023FC08F123
:104E50004E08034602A88DF808308DF809408DF8F9
:104E60000DA08DF80C908DF80A608DF80E8011F071
:104E70000FF9044617F092FE3A680292041B029A58
:104E80002A60002C0B4A0346B8BF6442042C93618D
:104E9000064BCCBF002001200021D16118700CB05E
:104EA000BDE8F087849CFF1F0092FF1F0492FF1F44
:104EB000D492FF1F7891FF1F2DE9F04F094BDFF8C7
:104EC00028B01B68DBF800109DB041F288320C93CB
:104ED0000C9B5B1A93420BD8044B18781DB0BDE8AD
:104EE000F08F00BF849CFF1F0C92FF1F1092FF1FCA
:104EF000D34BD44CD3F8BC50DFF84C93DFF84CA321
:104F0000DFF84C8303F13C0EBEE80F000DF1380CC6
:104F1000ACE80F00BEE80F00ACE80F00BEE80F00E1
:104F2000ACE80F009EE803008CE803000EA8D4E96B
:104F3000046714F03FFB02460B46304639461EF02C
:104F4000C5FB13F0B5FF21F000431946BAA3D3E91E
:104F500000231EF071FDD9F800600AEBC606C6E911
:104F600000010EA8D4E9026714F004FB02460B46C8
:104F7000304639461EF0A8FB21F00043D9F80070F6
:104F800008971946ACA3D3E900231EF055FD08EBA2
:104F9000C7030A460146C3E90012B4F91800CDE977
:104FA00004121EF0DFFC0246284614460D461FF090
:104FB00045F9A8491FF04AFA1EF0E6FC02460B46E6
:104FC000204629461EF080FB21F00043A2490A93A7
:104FD000FE0002463144C1E90023DAE900340B90B7
:104FE00021461846002200230996CDE900011EF053
:104FF0006DFBDAE9026732463B461EF067FBDAE9F1
:105000000423CDE902231EF061FB944B00221EF025
:105010003DFE04460D4622462B46DDE900011EF00A
:1050200053FB02460B461EF007FD002200231EF034
:105030004DFB02460B463046394616461F46224671
:105040002B461EF041FB02460B461EF0F5FC324695
:105050003B461EF03BFB224606460F462B46DDE94B
:1050600002011EF031FB02460B461EF0E5FC324603
:105070003B461EF02BFB7A4B00221EF0DDFC1AF0A3
:10508000A9FDD8E90067CDE90201002200233046DE
:1050900039461EF01BFBD8E9024522462B461EF07E
:1050A00015FBD8E90423CDE900231EF00FFB6B4B61
:1050B00000221EF0EBFD8046894642464B463046B4
:1050C00039461EF001FB02460B461EF0B5FC0022DD
:1050D00000231EF0FBFA02460B46204629461446E2
:1050E0001D4642464B461EF0EFFA02460B461EF0A6
:1050F000A3FC22462B461EF0E9FA424604460D4622
:105100004B46DDE900011EF0DFFA02460B461EF0B9
:1051100093FC22462B461EF0D9FA4F4C504B0022EE
:105120001EF08AFC1AF056FDD4E90089CDE9000191
:1051300000220023494640461EF0C8FAD4E902671F
:1051400032463B461EF0C2FAD4E9044502460B46FD
:1051500020462946CDE906451EF0B8FA3F4B00220D
:105160001EF094FD04460D4622462B464946404615
:105170001EF0AAFA02460B461EF05EFC0022002337
:105180001EF0A4FA02460B463046394616461F4624
:1051900022462B461EF098FA02460B461EF04CFCA7
:1051A00032463B461EF092FA224606460F462B46F2
:1051B000DDE906011EF088FA02460B461EF03CFCB3
:1051C00032463B461EF082FA254B00221EF034FC8C
:1051D0001AF000FD099E0AEB06030022D3E90067DE
:1051E0008146204B8A46DDE902011EF025FC0022A3
:1051F0004FF0804304460D461EF0A4FE002800F048
:105200009680224639462B4630461EF087FE154BC7
:10521000041E4FF00002DDE9000118BF01241EF05A
:105220000BFC00224FF0804306460F461EF08AFE1C
:10523000002878D018E000BF000000000020AC403B
:105240006092FF1F1892FF1F0892FF1FE891FF1F37
:10525000D091FF1F0000C842B891FF1F0000084016
:105260000000E03F0000144032463B46DDE9040107
:105270001EF054FE304BB0F100084FF000024846DB
:10528000514618BF4FF001081EF0D6FB2B4B0022F1
:1052900006460F461EF056FE002841D0DDE9020109
:1052A00000224FF080431EF039FE0022051E4FF011
:1052B0008043DDE9000118BF01251EF02FFE514695
:1052C00000280CBF002505F001051C4B48460022B4
:1052D0001EF024FE324600280CBF002505F0010513
:1052E0003B460B980A991EF019FE2C40089A144B65
:1052F00008EA040400280CBF002004F00100187024
:10530000022A02F101030F4A08BF002313600E4B6B
:105310001B680D930D9BCBF800301DB0BDE8F08FDE
:10532000064F0026BAE700264FF080479CE700248E
:105330004FF0804565E700BF000014400000344096
:105340001092FF1F0892FF1F849CFF1FFFFFFFFFAB
:105350002DE9F04F6E4EDFF8BCC106F174030FCBA0
:105360009BB00DF1100888E80F0006F184030FCB05
:1053700008AF06F13C0587E80F000FCD0CAC0FC459
:105380000FCD0FC40FCD0FC495E803009CF8433137
:10539000732B84E80300D6F8BC4006D0742B0ED0E3
:1053A000FCF752FE1BB0BDE8F08F96F83830002BAA
:1053B00040F0BA80FCF71EFE1BB0BDE8F08F96F8F7
:1053C0003830002BF6D0FFF787FC0446FFF7AEFC21
:1053D000002CEFD00028EDD0404614F00BF9044625
:1053E000404614F017F98146404614F025F98046EE
:1053F000384614F02DF90646384614F035F90546BE
:10540000384614F047F903468DF80830424BDFF870
:105410000CA18DF80950D3E904234E3402A8CAE93F
:105420000E238DF80E408DF80D908DF80C808DF8C0
:105430000A6010F02DFE05460C4617F0B5FB284615
:10544000214610F083FFFFF74FF8354B04460D4619
:105450000022DAE90E011EF019FC02460B46204636
:1054600029461EF031F92F4B002204460D461EF04E
:1054700069FD78B12B4F00262046294632463B462F
:105480001EF022F932463B4604460D461EF05AFDF8
:105490000028F1D100220023204629461EF03EFDBF
:1054A00098B1204F00264FF000084FF00009204629
:1054B000294632463B461EF009F942464B46044611
:1054C0000D461EF02BFD0028F1D1164B0022204680
:1054D00029461EF0DBFB0CA3D3E900231EF0ACFA37
:1054E0001EF05AFD72B6CAF8000062B672B6DAF85B
:1054F0000020DAF80030CAE9042362B6FCF764FD44
:1055000050E700BFAFF3008000000000C07A6041A8
:105510006092FF1F1890FF1F1892FF1F7891FF1FC6
:1055200000002E4000003840FFF7D6FB0546FFF78D
:10553000FDFB002D3FF43EAF00283FF43BAF0CA82D
:1055400014F018F882460CA88B4614F033F806467F
:1055500020460C461EF072FECB491EF077FFCB4B67
:1055600005462146304600221EF0F6FC002840F099
:10557000BA81C74B3046214600221EF0CFFC0028DE
:1055800040F0B18132463046C24E04F10044234619
:1055900021463478C6E904231EF046FD04EB44049A
:1055A00004EBC40404F10E03C1B281461846009115
:1055B000019316F051FF0099814203D0019B1846D8
:1055C00016F064FF04F10F03C9F307211846009198
:1055D000019316F041FF0099814203D0019B1846C8
:1055E00016F054FF04F11003C9F307411846009167
:1055F000019316F031FF0099814203D0019B1846B8
:1056000016F044FF1134204616F026FF4FEA1969C0
:10561000814503D04946204616F038FF9E4B0022B4
:10562000504659461EF07AFC002859D19B4B002267
:10563000504659461EF090FC002851D13478C6E9F6
:1056400002AB594650461EF0EFFC04EB440404EB59
:10565000C40404F10A0B5FFA80FA8146584616F03A
:10566000FBFE824503D05146584616F00FFF04F169
:105670000B0B584616F0F0FEC9F3072A824503D0FB
:105680005146584616F002FF04F10C0B584616F02E
:10569000E3FEC9F3074A824503D05146584616F047
:1056A000F5FE0D34204616F0D7FE4FEA1969814504
:1056B00003D04946204616F0E9FE6FA3D3E9002344
:1056C000D6E902011EF0E2FA82468B461AF042FC4D
:1056D000C6E90C01504659461AF0C8FCC6E90E014D
:1056E00028461EF0DBFF84B204F1C8039BB242F2ED
:1056F00008018B4202B21DD83578328305EB45058F
:1057000005EBC50505F1120A50465FFA82F916F05D
:10571000A3FE814503D04946504616F0B7FE133527
:10572000284616F099FE240A844203D021462846D2
:1057300016F0ACFE08F008FB59480CF0CDF95948BA
:1057400009F0A2FE574809F09BFE012007F0A8FDD2
:10575000404613F04FFF0446404613F05BFF82467D
:10576000404613F069FF8146384613F071FF8046CA
:10577000384613F079FF0546384613F08BFF034691
:105780008DF80830D6E904238DF80DA0DFF818A1B4
:105790008DF809504E3402A8CAE90E238DF80E4048
:1057A0008DF80C908DF80A8010F072FC05460C46BE
:1057B00017F0FAF92846214610F0C8FDFEF794FECE
:1057C0003A4B04460D460022DAE90E011EF05EFA5D
:1057D00002460B46204629461DF076FF344B002238
:1057E00004460D461EF0AEFB78B1314F0026204630
:1057F000294632463B461DF067FF32463B4604468B
:105800000D461EF09FFB0028F1D100220023204608
:1058100029461EF083FB98B1DFF894904FF0000802
:10582000002600272046294642464B461DF04EFFE3
:1058300032463B4604460D461EF070FB0028F1D16F
:105840001B4B0022204629461EF020FA0CA3D3E968
:1058500000231EF0F1F81EF09FFB72B6CAF800009C
:1058600062B672B6DAF80020DAF80030CAE904232A
:1058700062B61FE0AFF3008000000020DCA54C40C2
:1058800000000000C07A60410000C84200807640FD
:10589000008076C01892FF1F008056C000805640DE
:1058A0008893FF1F6092FF1F7891FF1F00002E401A
:1058B000000038400D480E490E4A0023C0E900336D
:1058C000C0E90233C0E90433C1E90033C1E902335E
:1058D000C1E90433C2E90033C2E90233C2E9043347
:1058E000FCF772FB5EE5044E98E600BFD091FF1F07
:1058F000E891FF1FB891FF1F1892FF1F08B516F01F
:1059000075FDBDE8084016F071BD00BF2DE9F041FE
:105910004FF0000E164C174DF44643780678827807
:105920001B0243EA06431A439F0CC2F38516C3F3D6
:10593000053302F03F020CF1030C15F80780AE5D51
:10594000EF5CAB5C84F870808C4584F8717084F8EF
:10595000726084F873300EF1040E00F1030004F15C
:105960000404DADB044B002203F80E20BDE8F081CA
:105970001890FF1F94D502008890FF1FFFFFFFFFC4
:105980002DE9F04FC84DBFB06622002124A820F0B9
:1059900081FE28460DF0E6FD95F8C0332C7895F889
:1059A0008A7395F88B83003B18BF012306465FFA84
:1059B00088F804F00304284607EB430708F00308BF
:1059C0000DF0BCFD2301FFB243EA8803A6F10202F9
:1059D0003B43B2FA82F2520943EA801343EAC2130C
:1059E000AA7D95F8F9138DF89030012A95F828339F
:1059F00001F0070100F02A82022A00F00082032A47
:105A000000F09782A2F10402B2FA82F252099201E6
:105A100095F8B103DB0043EAC0130B43134395F839
:105A200018248DF89130022A00F0FF8195F818347F
:105A3000FE2B00F0708295F81834FF2B00F077826F
:105A400095F81834012B14BF00270327022E95F870
:105A5000483400F0F181022B00F0FA8195F84834C7
:105A6000FE2B00F0F08195F84834FF2B00F05C82AB
:105A700095F84834012B14BF4FF000084FF00C0884
:105A800095F8886395F8093606F00306002B40F078
:105A9000B88195F89146A40164B2834809F0C0FC2E
:105AA00047EA061748EA07031C4344EAC01495F87E
:105AB00038608DF89240FFF7C5F8002840F0198251
:105AC00095F8C83395F80B2595F878138DF8941050
:105AD00046EA43168DF8936095F8FC3422B195F8A8
