:1000000000800020BD010000C55C0000815C000094
:10001000815C0000815C0000815C0000815C00006C
:10002000815C0000815C0000815C0000C55C000018
:10003000C55C0000815C0000B1550000B5550000B2
:10004000C55C0000C55C0000C55C0000C55C00002C
:10005000C55C0000C55C0000C55C0000C55C00001C
:10006000C55C0000C55C0000C55C0000C55C00000C
:10007000C55C0000C55C0000C55C0000C55C0000FC
:10008000C55C0000C55C0000C55C0000C55C0000EC
:10009000C55C0000C55C0000C55C0000C55C0000DC
:1000A000C55C0000C55C0000C55C0000C55C0000CC
:1000B000C55C0000C55C0000C55C0000C55C0000BC
:1000C000C55C0000C55C0000C55C0000C55C0000AC
:1000D000C55C0000C55C0000C55C0000C55C00009C
:1000E000C55C0000C55C0000C55C0000C55C00008C
:1000F000C55C00008D680000C55C0000396B000025
:10010000C55C0000617C0000C55C0000C55C0000AF
:10011000C55C0000C55C0000C55C0000C55C00005B
:10012000C55C0000C55C0000C55C0000C55C00004B
:10013000C55C0000C55C0000AD540000C55C00005B
:10014000C55C0000C55C0000C55C0000C55C00002B
:10015000715800008D580000A9580000C5580000D3
:10016000C55C00003D6E0000C55C0000C55C000081
:10017000C55C0000C55C0000C55C0000C55C0000FB
:10018000C55C0000C55C0000C55C0000C55C0000EB
:10019000C55C0000C55C0000C55C0000C55C0000DB
:1001A000C55C0000C55C0000C55C0000C55C0000CB
:1001B000C55C0000C55C0000C55C0000574B4CF2FC
:1001C000205210B5DA814DF62812DA8100BF00BF47
:1001D00005F07CFD524B4FF010621A63514A9A634E
:1001E000514ADA63514A136913F4807303D153619E
:1001F0004FF4A85313614E4B9A78110703D59A78A0
:1002000042F008029A704B4B4B482A221A704B4B13
:10021000DA1C121AC11E22F00302994288BF002282
:10022000474905F059FC474B4748DA1C121AC11ED2
:1002300022F00302994288BF002200210AF0D0FE7A
:10024000424943484FF4DE7205F046FC414B424AB6
:10025000802103F8011B9342FBD14FF0E0233C4A7D
:10026000C3F8082D3D4B8A221A70A3F5805324222F
:100270005A70A0221A709A799207FCD59A79D406FE
:10028000FCD4374B9A7902F00C02082AFAD10522E5
:100290001A7143225A719A799006FCD5304A9379A3
:1002A0005906FCD51E4B4FF08171596405219964A4
:1002B00020211170917901F00C010C29FAD1294A01
:1002C0005A604FF0E023284A5A6100229A610722BF
:1002D0001A61264AC3F8202D62B605F0ADFD134B16
:1002E0005B69DA0705D5224805F09AFD214B224AC1
:1002F000DA61224B1B785B0609D51E4C1E4BE26966
:100300009A4204D11A4805F08BFD0023E36105F001
:10031000E3FC0AF05BFF05F0D7FBFEE70020054099
:1003200000800440823F04000100002B00D0034005
:1003300000D0074000E007402087FF1F508FFF1FBD
:10034000D8110100B898FF1F508FFF1F0000000058
:100350000082FF1F00E400E05FE400E00050064080
:1003600000400640C01005003F1901000000202099
:10037000F4BCC96A00E00340A5C3945A00F00740EA
:10038000FFFFFFFFFFFFFFFFFFFFFFFFFFFFFFFF7D
:10039000FFFFFFFFFFFFFFFFFFFFFFFFFFFFFFFF6D
:1003A000FFFFFFFFFFFFFFFFFFFFFFFFFFFFFFFF5D
:1003B000FFFFFFFFFFFFFFFFFFFFFFFFFFFFFFFF4D
:1003C000FFFFFFFFFFFFFFFFFFFFFFFFFFFFFFFF3D
:1003D000FFFFFFFFFFFFFFFFFFFFFFFFFFFFFFFF2D
:1003E000FFFFFFFFFFFFFFFFFFFFFFFFFFFFFFFF1D
:1003F000FFFFFFFFFFFFFFFFFFFFFFFFFFFFFFFF0D
:10040000FFFFFFFFFFFFFFFFFFFFFFFFDEF9FFFF23
:100410000548064B1B1AD90F01EBA301491002D066
:10042000034B03B118477047508FFF1F508FFF1FBA
:100430000000000008B5054B1BB105490548AFF3A6
:100440000080BDE80840FFF7E3BF00BF00000000E8
:10045000508FFF1FD011010000690B699842D4BF73
:1004600000200120704700BF80698B690028B8BF59
:100470004042002BB8BF5B429842D4BF002001200D
:10048000704700BF2DE9F043184C8C460025C1F1A0
:1004900004064378077890F802E01B0243EA07431A
:1004A00043EA0E0E4FEA9348CEF38517C3F30533A4
:1004B0000EF03F0E033514F80890E75D14F8038042
:1004C00014F80E308CF80330AA428CF800908CF8A7
:1004D00001808CF8027006EB0C0300F103000CF1B4
:1004E000040CD6DC0022CA54BDE8F083E409010004
:1004F000036818470B680360704700BF0B68036010
:10050000704700BF704700BFC36A00F12C0233B1CF
:100510000120D96A52F8043F0860002BF9D17047D6
:1005200010B5044605F058F9204610BD154B1A7851
:1005300072B930B5144C217883B051B11349684673
:1005400003F03CFC237883F00103237003B030BD3B
:1005500070470E4803F0BAFC0D49054609F0D2FB7E
:1005600030B10C49284609F0E1FB10B9094D00E013
:10057000074D094B1D60237883F00103237003B0FE
:1005800030BD00BF6490FF1F2487FF1FF091FF1F45
:10059000F3FFC742F3FFC7C22887FF1F70B5174B91
:1005A000174E1B681B794FF47A7103FB01F130463B
:1005B00004F010FE134B1B68586808F035FD124B11
:1005C0001B68044618790D4608F02EFD02460B46BE
:1005D00000204FF0804107F0D7FB02460B46204633
:1005E000294608F09BFD09F049F80146304604F021
:1005F000FDFD064B01221A7070BD00BF988FFF1FD2
:10060000A891FF1F6090FF1F7C90FF1F8090FF1F2D
:1006100010B51C4CA26DA36F5068D4F8AC101B1A17
:10062000002BB8BF5B428B4216DBD4F8B00083428C
:100630000BDBE16FCB1A5168106800FB0313D3602A
:10064000D168536899420FD010BD0B440020E36776
:10065000C4F8B0000B46EEE700215800C4F8B01013
:10066000C4F8AC10E067E6E7074805F0B5F8206A83
:100670000023A36004F002FF606ABDE8104004F0AC
:10068000FDBE00BFA08FFF1FAC8FFF1F70B50379A9
:100690006F2B044624D8482B18D9493B262B1FD84A
:1006A000DFE803F0231E1E1E1E1E231E281E1E1E14
:1006B0001E1E1E1E1E1E1E1E1E1E1E1E1E1E1E1E5A
:1006C0001E1E1E1E231E1E1E1E1E23002B2B01D0AF
:1006D0002D2B05D1164B9B6813B1164B1E78F6B126
:1006E00094F8290080F0010070BD00680368DB68A1
:1006F0009847EFE7104B9B6813B1104B00221A602C
:100700000B4B9B6833B10B4B1A781AB901221A7044
:10071000FFF77EFF002384F82930012070BD0125FA
:100720001D70FFF775FF84F82960284670BD00BF73
:10073000A08FFF1F948FFF1FA490FF1F5C90FF1FCF
:1007400070B5846DA36A01261E60626823681A442E
:10075000036B626000F1300C9BB15A69002A09DB1F
:100760009A6A16605968D3F800E025695A6971449D
:100770005960521B1969114459615CF8043F002B00
:10078000EBD1436A114A816900251560DB00556889
:1007900003F1804303F56033294419610D21116091
:1007A000DA68C16E22F080025025DA60DD6019B986
:1007B0006268E3689A4200D070BDC36D012280F880
:1007C0002820002BF8D0BDE8704018470080034077
:1007D000036A8B4210B5044623D0C3698B4200D014
:1007E00010BD8369002BFBD072B6204AC369A16992
:1007F00000201060DB00506803F1804303F5603394
:10080000014419610D211160DA68502122F0800243
:10081000DA60D96062B620690368BDE810405B68A1
:1008200018470069124A03689B6893421BD1C36A48
:100830002C3033B10121DA6A50F8043F1160002BEB
:10084000F9D194F82430002BCAD004F1080004F048
:10085000C3FF0023E069636004F010FE206ABDE876
:10086000104004F00BBE9847EBE700BF0080034048
:10087000090500001F4B204A5B6811688B4237D086
:100880002DE9F0411D4913600C6884B094F8008094
:10089000A078019300210293039305F01FFB01212F
:1008A000404605F01BFB6023013BFDD10121607830
:1008B00005F054FBA1786078FE2205F08BFB01ADBA
:1008C00004AF15F8016B6078012105F047FBA178B2
:1008D0006078324605F07EFBBD42F2D100214046F1
:1008E00005F0FCFA6023013BFDD104B0BDE8F081C6
:1008F000704700BFA891FF1F8490FF1F3891FF1F12
:1009000070B54368044621B39A6812F0020216D00B
:10091000204A18689042204A2ED9B2FBF1F15A6859
:10092000A0EB020C61451AD30A44121A00240120DC
:100930009C60D86003201A609860196070BD012423
:1009400003209A60DC60144AB2FBF1F21A609860EE
:1009500070BDABB19A6822F002029A6070BD206946
:100960000268002501249D601268DC600324196080
:100970009C60BDE870401047B2FBF1F21A6070BD98
:10098000064A1268002AE5D00221012090476368D8
:10099000E0E700BF7F320200005125021C92FF1FDA
:1009A0002DE9F041866FC56F876D044631462846B4
:1009B0007B6809F09DF9002850D1D4F88C80284636
:1009C000414608F0F9FE00210546404609F0B8F915
:1009D000294600283CD0304609F0B2F900B9354626
:1009E000E567284609F0CCF9064694F890300BB13B
:1009F000002E38D0BB68B34228D0002E3A68ACBF76
:100A000001234FF0FF339A4217D0E36A73B104F128
:100A10002C0101201A68554201321D600CBF1B6B6E
:100A20005B6B186051F8043F002BF3D1636F03EB4D
:100A30004303DB0001D0013BFDD186EAE671A1EB67
:100A4000E671201DFFF75CFFA36D9E60BDE8F0819D
:100A5000304609F057F90028C1D0C1E7304609F007
:100A60008FF90646C1E704F10C0004F0B5FE206AD8
:100A7000A66004F003FD606A04F000FDA26DE36D62
:100A8000966084F89060002BE0D0BDE8F0411847F4
:100A9000F8B58368C3B1836D856F5A68D0F8AC3000
:100AA000AD1A002DB8BF6D429D42044600F1040608
:100AB0000BDBD0F8B0309D4236DBC06F854222DBC5
:100AC00000213046FFF71CFFF8BDD0F8A80008F061
:100AD00023FF0746284608F023FF0146384608F062
:100AE00073FF0546D4E9240108F030FF014628468B
:100AF00008F062FE07F0B6F909F042F90146304607
:100B0000FFF7FEFEF8BD401B013808F009FF05465F
:100B1000D4F8A80008F000FF0146284608F054FF6A
:100B20000546D4E92601DFE7D0F88810E7E700BFE3
:100B300070B50025044680F8295001262068036816
:100B40001B69984700281FDD206803685B69984788
:100B500094F82A30C0B26BB1E36AE218232803F19B
:100B60000103907114D01E2BE36204BF84F82A5055
:100B7000E562E3E73A28E1D1E36A84F82A60E21803
:100B800001339071E362D9E794F8290038B970BD58
:100B90000023012284F8292084F82A30E362A01D72
:100BA0000AF04EFB012815D9E28844F23A639A42D2
:100BB00010D1237A2371032810D9637A63712C2B07
:100BC00016D1012384F8283004F10A0009F0D4FA80
:100BD000606207E0002084F8290070BD0023637183
:100BE00084F8283000230120A37184F8290070BD07
:100BF000002384F82830F5E738B5054609B19A4254
:100C00000CD228680C49036801225B6898470024CD
:100C100028680368DB689847204638BD049B9A42E1
:100C2000EFD8059B00681A6003680C465B680349AF
:100C300001229847ECE700BF20080100A40701004B
:100C400038B505460C4659B90068144903680122B5
:100C50005B68984728680368DB689847204638BD7A
:100C60009879D1B2884210D8DA798A420DD31A79AC
:100C70008A4203D01868197104F000FF28680849F7
:100C8000036801225B689847E4E728680349036822
:100C900001225B6898470024DCE700BF20080100C0
:100CA000A407010030B504461A481B4A1B4B1C49D7
:100CB000006812681B6809680079526849685B68B7
:100CC000B3FBF2F395B0B1FBF2F20490154816496C
:100CD0000068007903901548006800790290144874
:100CE000006840680190134800684068009007A8B9
:100CF0000AF094F8256807A80AF0A2FA2B680246C1
:100D000007A95B682846984720680368DB6898470E
:100D100015B030BD7490FF1F9C90FF1F7890FF1F8F
:100D2000A491FF1F7090FF1FA8070100988FFF1F5D
:100D30006090FF1F6C90FF1F30B51449144B154A8B
:100D400009681B6812684968134C1B79127993B0C3
:100D50000291246811492479096801944968009135
:100D600004460F4905A80AF059F8256805A80AF0B5
:100D700067FA2B68024605A95B68284698472068F1
:100D80000368DB68984713B030BD00BFE891FF1FD0
:100D90007C90FF1FA090FF1F5890FF1F9C90FF1F8B
:100DA000D00701002DE9F047DAB086220021044681
:100DB00005A80AF015F95448544A006812685449C5
:100DC000544BD0F80480526809681B68B2FBF8F2F3
:100DD000ADF80420504A89885B681268B3FBF8F3C9
:100DE000ADF806304D4BADF8081092881B68ADF891
:100DF0000A204B4A1B798DF80C301268494B127946
:100E00001B688DF80D20484A1B798DF80E3012684A
:100E1000464B12791B688DF80F20454A1B798DF8D7
:100E200010301268434B8DF81180C8F307218DF8FC
:100E3000121012791B68DFF800918DF813209B883F
:100E4000ADF8143009F1280701AD002605E0B945D9
:100E5000AB74EB7405F10D052DD059F804AB0B22E2
:100E60000AF1080127A804F037FE8AF81260DAF8C0
:100E700004209DF89C305268002BE8D0B2FBF8F2B9
:100E8000B2F5803F2ABF0022D1B21146A97429468B
:100E900038BFC2F3072201F8132F0DF1A60027AACD
:100EA00001E012F8013F01F8013F8242F9D1B94552
:100EB00005F10D05D1D10DF103030DF1980C0021C1
:100EC00013F8012F634581EA0201F9D196228DF8CA
:100ED000991001A827A9FFF7D5FA256808460AF056
:100EE000AFF92B68024627A95B6828469847206817
:100EF0001249036801225B68984720680368DB6831
:100F000098475AB0BDE8F0879C90FF1FA491FF1F3F
:100F10006C90FF1F7890FF1F6090FF1F988FFF1F3E
:100F20007090FF1F7490FF1FA090FF1F7C90FF1F09
:100F30005890FF1FE891FF1F688FFF1FE80701000F
:100F40002DE9F047584A5949126888B000230193A7
:100F500002938DF80C304B6855495268B3FBF2F39D
:100F60004FF6FF7293428E6828BF13460546DCB2E7
:100F7000ADF80430002E67D04E4BD6F800A01B68A9
:100F8000187908F051F802460B4600204FF08041D6
:100F900006F0FAFE484B804689464848B0FBFAF016
:100FA0009F6808F051F842464B4608F0E1F921F0FD
:100FB0000043194608F08AFB414B4249ADF8060050
:100FC000186808F001FD08F0DBFEADF80800002FFE
:100FD00036D001268DF80A6001AB0DF10B0200211D
:100FE00001E013F8014F9A4281EA0401F9D1092284
:100FF00001A88DF80C1004A9FFF744FA2C680846E4
:101000000AF01EF92368024604A95B682046984747
:1010100028682D49036801225B689847286803689F
:10102000DB68984708B0BDE8F087254B254918686C
:10103000ADF8066008F0C8FC08F0A2FEADF80800A4
:10104000003E18BF0126C5E71B4B9B68002BECD068
:10105000184AD3F800801368187907F0E5FF0246B4
:101060000B4600204FF0804106F08EFE06460F46EC
:101070001248B0FBF8F007F0E7FF32463B4608F0B5
:1010800077F921F00043194608F020FB0C4B0D497D
:10109000ADF80600186808F097FC08F071FE01260C
:1010A000ADF8080096E700BF9C90FF1FA891FF1FB6
:1010B000A490FF1F7C90FF1FA08FFF1F00512502EF
:1010C0002887FF1F0000C842E80701002DE9F04F04
:1010D00083B0DDE90C911E469DF8383001918046C1
:1010E000174673B1104631460022002308F09CFADF
:1010F000002848D0D8F800005349036801225B68F3
:10110000984726F000463146384608F0B7FA09F10C
:10111000FF358346284607F097FF06F0C5FE08F026
:10112000ADFAB9F1010F044622DD07F08DFF02464A
:101130000B463846314608F063FAC8B1DFF80CA117
:10114000DFF80C9107E007F07FFF3A46334608F0DE
:1011500075FA68B1013DD8F80000036801225B68A8
:1011600051469847A9FB0434E408012D2046EAD1F2
:10117000D8F80000594604F011FC019B002B0ADC52
:1011800003B0BDE8F08FD8F80000324903680122AF
:101190005B689847B5E7D8F800002F49036801223B
:1011A0005B689847DDF80490484607F04DFF06F06D
:1011B0007BFE044658460D4607F046FF02460B46A6
:1011C0003846314607F0F2FD2B46224607F0A6FFCF
:1011D00008F054FA09F1FF358246284607F034FF3B
:1011E00006F062FE08F04AFA4B46012B044622D074
:1011F00007F02AFF02460B463846314608F000FA4F
:10120000C8B1DFF848B0DFF8489007E007F01CFFEE
:101210003A46334608F012FA68B1013DD8F80000AA
:10122000036801225B6859469847A9FB0434E40827
:10123000012D2046EAD1D8F80000514603B0BDE8A0
:10124000F04F04F0ABBB00BFEC0701002008010029
:10125000CDCCCCCCF0070100A00701002DE9F04F68
:101260005B4D5C4C2A6863685268B3FBF2F3064638
:1012700000685949594FDFF868A1B3F5803F03680A
:1012800024BFC2EB024262605B6885B001229847CE
:101290002B6862685B68B2FBF3FB584607F0C4FE3C
:1012A00004258046894642F21074204607F0CCFEA1
:1012B00002460B464046494608F0A2F9012239464B
:1012C00058B1306803685B6898478AFB0423013D86
:1012D0004FEAE474C4EBA304E7D15946306804F044
:1012E0005DFB30683F49036801225B6898473E4BCD
:1012F0009B68002B5ED03D4A1F681368187907F081
:1013000093FE02460B4600204FF0804106F03CFD64
:10131000374B04460D46B3FBF7F007F095FE224627
:101320002B4608F025F821F00043194608F0CEF9C5
:10133000044607F079FE2F4B00228046894608F0CC
:101340005FF990B130682549036801225B689847CE
:10135000294B40464946002208F052F928B130682E
:101360001E49036801225B6898472146306804F0F3
:1013700015FB30681B49036801225B6898471F4BC7
:10138000186807F073FE01240B4602210246019102
:10139000009130460294FFF799FE306818490368BF
:1013A00022465B68984730680368DB6805B0BDE893
:1013B000F04F1847134B9C681CB10C4B27681B68F7
:1013C0009CE730680549036801225B689847C6E7D7
:1013D0009C90FF1FA891FF1FF40701002008010047
:1013E00067666666F8070100A490FF1F7C90FF1FE8
:1013F0000051250200005940000024402887FF1FAB
:10140000E8070100A08FFF1F2DE9F04F85B00B7A90
:101410000025064601950295ADF80C508DF80E504A
:10142000002B5ED00C460B22083101A804F054FBBF
:101430002E4B62681B68A57452685B68B2FBF3FBB5
:10144000BBF5803F306848D2036829495B68294F63
:10145000DFF8A4A001229847584607F0E5FD0425CF
:101460008046894642F21074204607F0EDFD0246A0
:101470000B464046494608F0C3F80122394658B1A8
:10148000306803685B6898478AFB0423013D4FEA94
:10149000E474C4EBA304E7D15946306804F07EFA43
:1014A00030681649036801225B689847346801A8D0
:1014B00009F0C6FE236802465B6801A920469847EA
:1014C00030680F49036801225B68984730680368F9
:1014D000DB68984705B0BDE8F08F0A49036802222F
:1014E000F2E70068074903680222EDE79C90FF1FBE
:1014F000000801002008010067666666F807010021
:10150000E8070100FC07010070B5044600681D49AA
:1015100003681D4D5B680222984720681B490368D9
:1015200011225B6898472068036829465B6801229E
:10153000984720681649036805225B689847206829
:10154000036829465B6801229847206811490368AF
:1015500005225B6898472068036801225B6829467A
:1015600098472068022104F019FA20680A490368A4
:1015700001225B68984720680368BDE87040DB681B
:10158000184700BF04080100F8070100080801001F
:101590001C08010024080100E807010038B50379A0
:1015A0003F3B04463F2B21D8DFE803F025202C20C9
:1015B00020202020203320202020842020202020B4
:1015C0002020208B2020202020202020202092203E
:1015D000202020202020202020202020202020200B
:1015E0002020202020992020202020A390F82900CE
:1015F00080F0010038BDFFF731FE002384F8293068
:10160000012038BDFFF7CEFB002384F829300120EC
:1016100038BDFFF779FF256839492B680A225B68D6
:1016200028469847284604F0C1F9256835492B68B3
:1016300008225B6828469847284604F0B7F92568D1
:1016400031492B6839225B6828469847284604F0C0
:10165000ADF925682D492B6858225B6828469847C4
:10166000284604F0A3F9256829492B682A225B68DB
:1016700028469847284604F099F9256825492B689B
:101680000A225B6828469847284604F08FF92568A7
:1016900021492B684E225B6828469847284604F06B
:1016A00085F920680368DB689847002384F82930AF
:1016B000012038BDFFF740FB002384F829300120CA
:1016C00038BDFFF721FF002384F82930012038BD01
:1016D000FFF736FC002384F82930012038BD437918
:1016E000303B092BF6D80D4A52F82310FFF78CFE39
:1016F000F0E7FFF7D7FA002384F82930012038BD3E
:101700002C0801003808010044080100800801008D
:10171000DC0801000809010014090100688FFF1F9F
:101720002DE9F84301210A2004F018FC01210A20C8
:1017300004F0D4FB964B974E1B68974C187908F031
:10174000EFF8964908F040F908F040FB33684FF095
:101750000208054640201F7984F8008004F00CFB45
:101760008F4A4FF0FF330A21814602F0D5FF012155
:101770001420C4F8089004F0F1FB0121142004F0B7
:10178000ADFB0121162004F0E9FB0121152004F036
:10179000E5FB01210A2004F0E1FB0021162004F002
:1017A0009DFB0021152004F099FB01210A2004F083
:1017B00095FB7C4802F0C0FB41460C2004F0CEFBB8
:1017C000A06803F0C3FBA06803F034F9A068FF2110
:1017D00003F0C4FBA06803684146DB6A9847A06831
:1017E000052102F02BFFA06803680521DB699847FB
:1017F000A068036803215B699847A068012102F093
:1018000059FFA068012102F077FFA068402103F092
:10181000AFFBA068012102F023FF94F900305A1EAB
:10182000D2B2032A43D9384607F00EFC02460B46D3
:1018300000204FF0804106F0A7FA0021142004F0A8
:101840004DFB594B1B68586807F0EEFB33680446A4
:1018500018790D4607F0E8FB02460B4600204FF0D2
:10186000804106F091FA02460B462046294607F0D1
:1018700055FC07F003FF01464C4803F0B7FC4C4B06
:101880004A481B681B794FF47A7103FB01F103F09E
:10189000A1FC484B45481B681979003918BF012144
:1018A00003F086FC444B02221A70BDE8F8834349DA
:1018B00051F82220023B954228BF154643455CD88B
:1018C000DFE803F026023700284607F0ADFB2EA321
:1018D000D3E9002307F04CFD07F0F8FE81B2E06881
:1018E00003F016F994F90050384607F0ADFB0B46AB
:1018F00002464FF08041002006F046FA07F0BEFE97
:101900006B1E0146032B98D8DFE803F0332E292401
:10191000284607F089FB1CA3D3E9002307F028FD24
:1019200007F0D4FE81B2A06803F072FA94F9005077
:10193000DAE7284607F078FB13A3D3E9002307F082
:1019400017FD07F0C3FE81B2206903F0E1F994F9B5
:101950000050C9E7206989B203F01EFA6DE7E0681C
:1019600089B203F0AFFA68E7A06889B203F0AAFA77
:1019700063E7606802F0DEFC5FE72946606802F01A
:10198000C7FB94F90050AFE7CD3B7F669EA0F63FC2
:101990005890FF1F7C90FF1F2C87FF1F00002041E5
:1019A000AE47E13D4087FF1F6C90FF1FA891FF1FCE
:1019B0007090FF1FA090FF1F8090FF1FD4090100AF
:1019C00038B505680446284604F03EF8A3798342FA
:1019D00002D8E27982420ED261798B420CD8E37947
:1019E0008B4209D323798B4206D021712846BDE86A
:1019F000384004F043B8207138BD00BFC2680B689E
:101A0000934217D30269934214D84268934213D089
:101A100070B50468436082B001AD0193261D204675
:101A200015F8011B013404F029F8B442F7D1012064
:101A300002B070BD002070470120704730B583B000
:101A40000546019269B9006803680C465B680D4958
:101A50000122984728680368DB689847204603B04E
:101A600030BD184601A9FFF7C9FF0446286803687E
:101A700001225B6814B104499847EBE70149984794
:101A8000E8E700BF20080100A4070100F8B50446FC
:101A9000064654F8035B2D1AC71D033D281903F0B1
:101AA000D3FF04F8010FBC42F8D17368F268934287
:101AB00002D33269934206D906F108013046BDE8E7
:101AC000F840FFF79BBFF8BDC2680B68934217D37D
:101AD0000269934214D84268934213D070B50468E7
:101AE000436082B001AD0193261D204615F8011B0D
:101AF000013403F0C3FFB442F7D1012002B070BD3E
:101B0000002070470120704730B583B00546019230
:101B100069B9006803680C465B680D490122984763
:101B200028680368DB689847204603B030BD184634
:101B300001A9FFF7C9FF04462868036801225B6812
:101B400014B104499847EBE701499847E8E700BF1B
:101B500020080100A4070100F8B50446064654F821
:101B6000035B2D1AC71D033D281903F06DFF04F810
:101B7000010FBC42F8D17368F268934202D3326914
:101B8000934206D906F108013046BDE8F840FFF758
:101B90009BBFF8BDF8B5002407468460C46004828A
:101BA000847414200D4604F0E7F80E4B03612B6893
:101BB0008460C46003600646FFF7CEFF2D687E6038
:101BC0003C462B1D44F8073B033D07F11206ED1B75
:101BD000281903F039FF04F8010FB442F8D1384650
:101BE000F8BD00BF009435772DE9F0478246914655
:101BF0004D1E00F10804C1F1010600F11208002792
:101C00000CE099B1002F18BF002104F8011BDAF88D
:101C10000030184403F032FF444509D0701915F81C
:101C2000011F2329EDD101270021EEE70127ECE771
:101C3000DAF8000000218AF812100A3003F01EFFC3
:101C4000DAF804004946FFF73FFF0120BDE8F087BE
:101C50002DE9F043142083B004F08EF81023002700
:101C6000012583604FF40073684E03610760C5600F
:101C70000446FFF70BFF0820346004F07DF83223A0
:101C80004FF0040843714AF20A03C0F80080C38091
:101C90000446FFF795FE5E4BDFF878911C60082044
:101CA00004F06AF80523036040F2027380F80580AF
:101CB000C3800446FFF784FE574B14201C6004F0D9
:101CC0005BF806230360C8234FF00A0883604FF4D3
:101CD0004873C0F80C8003610446FFF7D7FE4F4BF2
:101CE00008201C6004F048F84FF48073C0F80080AE
:101CF0004771C3800446FFF763FE494B1C6033689D
:101D00005B68C3EB0348C8454FF0140028BFC846C2
:101D100004F032F80B238760C7600360C0F81080BE
:101D20000446FFF719FF33685E683E4BC6EB064674
:101D30004E454FF0140028BF4E461C6004F01CF8BE
:101D40000F224FF6FF730260C7600661836004468E
:101D5000FFF702FF344B14201C6004F00DF814262A
:101D600040F2E737132303608660C56007610446CD
:101D7000FFF78CFE2D4B30461C6003F0FDFF172350
:101D80008660C560076103600446FFF77FFE284B4D
:101D9000284D1C60082003F0EFFF1E2646F2013795
:101DA0001B2303604671C7800446FFF709FE224BE0
:101DB00008201C6003F0E0FF1C2303604671C7800D
:101DC0000446FFF7FDFD1D4B08201C6003F0D4FF07
:101DD0001D2303604671C7800446FFF7F1FD184BD1
:101DE00001961C6005F12806142003F0C5FF01A927
:101DF0000446FFF7CFFE019B45F8044B0F33AE427C
:101E00000193F1D103B0BDE8F08300BF9C90FF1FA8
:101E10005890FF1F009435777C90FF1FE891FF1FBB
:101E2000A090FF1FA491FF1F7890FF1F6C90FF1FD1
:101E30006090FF1F688FFF1F988FFF1F7090FF1F1C
:101E40007490FF1F08B5474B186800F10801FFF7B1
:101E5000D5FD454B1B6859799A798A4209D8DA79B8
:101E60008A4206D31A798A4203D01868197103F09E
:101E700005FE3E4B1B6859799A798A4209D8DA796E
:101E80008A4206D31A798A4203D01868197103F07E
:101E9000F5FD374B186800F10801FFF7AFFD354B32
:101EA0001B6859799A798A4209D8DA798A4206D325
:101EB0001A798A4203D01868197103F0DFFD2E4B9E
:101EC000186800F10801FFF7FFFD2C4B186800F1BE
:101ED0000801FFF7F9FD2A4B186800F10801FFF728
:101EE0008DFD284B186800F10801FFF787FD264B90
:101EF0001B6859799A798A4209D8DA798A4206D3D5
:101F00001A798A4203D01868197103F0B7FD1F4B84
:101F10001B6859799A798A4209D8DA798A4206D3B4
:101F20001A798A4203D01868197103F0A7FD184B7B
:101F30001B6859799A798A4209D8DA798A4206D394
:101F40001A798A4203D01868197103F097FD114B72
:101F5000002003F1280153F8042B99421072FAD1A2
:101F600008BD00BF9C90FF1F5890FF1F7C90FF1F73
:101F7000E891FF1FA090FF1FA491FF1F7890FF1F03
:101F80006C90FF1F6090FF1F988FFF1F7090FF1FC6
:101F90007490FF1F688FFF1F70B5002106464078C0
:101FA00003F0DCFF00252C46707803F0C9FF012107
:101FB00000FA05F3B0781C430D4403F08FFFB078AE
:101FC000002103F08BFF082DE4B2EDD1204670BD57
:101FD0002DE9F04190F8008004460D4680780021FC
:101FE0001746602603F07AFF0121404603F076FF92
:101FF0003346013BFDD16D006078012165F07F051E
:1020000003F0ACFF05F0FE02A178607803F0E2FF78
:102010006078012103F0A2FFA17860783A4603F0CE
:10202000D9FF0021404603F059FF013EFDD1BDE834
:10203000F08100BFF0B52D4D2C6889B0002C42D046
:10204000002220460721FFF7C3FF2D682F78A878CC
:10205000002103F043FF0121384603F03FFF6023D6
:10206000013BFDD10121687803F078FFA9786878F9
:10207000FF2203F0AFFF0DF1FF340DF11E062846DD
:10208000FFF78AFF04F8010FB442F8D10021384667
:1020900003F024FF6023013BFDD1DDE900239A42D8
:1020A00009D0134A134B126852685A60124A5B688F
:1020B000136009B0F0BD114B1B685B689A42F0D801
:1020C0000C4B5A60F2E7032003F056FE044603234C
:1020D00004200226207063700121A67003F03EFFE9
:1020E0000121304603F03AFF2C60A9E73891FF1F29
:1020F000A491FF1FA891FF1FEC91FF1F7890FF1F75
:1021000038B590F86430124A0260044600F10C05BC
:102110008BB9104B6360284603F05EFB0023A3607D
:10212000206A03F0ABF9606A03F0A8F9284603F0CF
:1021300053FB204638BD284603F04EFB0023206A9F
:10214000A36003F09BF9606A03F098F9E1E700BF30
:10215000780901006C09010010B5034B03600446C7
:10216000FFF7CEFF204610BDB009010010B5054BAA
:1021700003600446FFF7C4FF2046942103F0FEFDF0
:10218000204610BDB009010010B5034B03600446A2
:10219000FFF7B6FF204610BD9409010010B5054BAE
:1021A00003600446FFF7ACFF2046B82103F0E6FDCC
:1021B000204610BD9409010010B50446FFF7A0FFAA
:1021C0002046782103F0DAFD204610BD88422FD04A
:1021D0002DE9F843804689461646051DA94516D0C7
:1021E0002868D8F80010B0472F462C46043580B137
:1021F000B84555F8044C06D0A7EB0802414608F153
:10220000040008F071FEA945C8F80040E8D1BDE817
:10221000F88355F8047C03E054F8043C44F804398E
:1022200054F8041C3846B0470028F5D12760D5E79C
:10223000704700BF0B1A402B2DE9F0411BDD07460C
:102240004037884639461646FFF7C0FF474510D04D
:102250003D683C4603E054F8043C44F8043954F823
:10226000041C2846B0470028F5D10437B84525603E
:10227000EED1BDE8F081FFF7A9FFBDE8F08100BF16
:102280002DE9F04F9846531E83B003EBD373B1EBA7
:10229000630F0C9E01920F46044645DA4FEA63092C
:1022A0008A4600E0DA460AF101056FF0404303EB8D
:1022B000450354F8350054F823104FEA450B04EB5E
:1022C000C505B04718B10BF1FF3B04EB8B0529683E
:1022D00044F82A10CB45E5DB019BDA072AD50BF140
:1022E000FF3909EBD979BB454FEA690908DC16E0EB
:1022F00054F8291044F82B104F45CB460FDA91467D
:1023000054F829004146B04709F1FF3202EBD2727E
:10231000521004EB89050028EAD104EB8B05C5F8BF
:10232000008003B0BDE8F08F019BDB0700EB810567
:10233000F5D48B46019B023B03EBD373BBEB630FDE
:10234000CDD10BF1010304EBC3025B0052F8042C66
:102350002A6003F1FF3B04EB8B05C0E72DE9F04F4A
:102360008946091A402983B040F390800746924677
:1023700098464E46002A61D007F1040BCC107868CD
:1023800057F82410C0470AF1FF3A59F8041C0028F6
:1023900037D057F82400C047002845D03B6857F88D
:1023A00024203A6047F82430786839684D465E4604
:1023B00002E056F8040F3968C0470028F9D12C1FF5
:1023C00021683868C0472546043C0028F8D1AE4251
:1023D00009D233462968326843F8041B2A607068C2
:1023E00039681E46E8E74946434652463046FFF7FD
:1023F000B5FFF11B402949DDBAF1000F1ED0B146EF
:10240000BCE77868C047A0B959F8041C57F8240005
:10241000C0473B680028C2D059F8042C3A6049F8FC
:10242000043C78683968C1E759F8041C7868C047EB
:1024300078BBD7E9000139607860B7E78C10A51E3A
:102440006D10CDF8008057F82530224629463846D1
:10245000FFF716FF07EB8509013D59F8043DCDF85C
:102460000080224629463846FFF70AFF002DF3D1A7
:1024700056F8043D3A683260F41BCDF80080A21093
:1024800000213846FFF7FCFE042CF1DC03B0BDE868
:10249000F08F3B68C0E700BF836833B15C4B1B68BB
:1024A00013B101210220184770472DE9F04700F1D0
:1024B0002C0808EB8107B84504460D4616464FEA3E
:1024C000810910D04FEAA902B2FA82F2C2F11F02CA
:1024D0005200394640464F4BFFF740FF4D4A3946C0
:1024E0004046FFF7A7FEE16AA1658B69002B00F06B
:1024F0008480002BB8BF5B420B61012D4FF00003BD
:102500008B6011DD09F128002044424652F8045F37
:10251000AB69002BB8BF5B422B61D1F810C0904271
:10252000CCEB43036B61F1D1B8456DD004F13003BE
:102530009F424D6A07D053F8042B526A954228BF38
:1025400015469F42F7D10023271D84F8903084F868
:102550002830384602F080FF2062384602F07CFFC7
:10256000606202F04DFF616904F1080002F0D4FEE0
:10257000A36D276F98695A6807F0D2F9C4F88000F4
:10258000284607F0C9F90546384607F0C5F901465F
:10259000284607F019FA204907F0CAFA0023C4F8C0
:1025A0008400E36772B6D4F88430C4F8883062B629
:1025B00072B6D4F88010304607F006FAE16FA067D3
:1025C00007F0BEFBD8B1D4F88830C4F88C3062B6BE
:1025D000124A236AE16900201060DB00506803F1B1
:1025E000804303F5603301440D2019611060DA68FF
:1025F000502122F08002DA60D960BDE8F087D4F87B
:10260000883003F10043E0E7E36A5D6A9BE700BFBF
:102610001C92FF1F690400000024744900800340DD
:102620002DE9F043534B544C1B6883B0002B62D010
:10263000A368002B00F08580504B514D1B6801931F
:10264000019B2A689B1A0A2B02D803B0BDE8F083CD
:102650004C4A4D4B10685B68C01A06F0F5FC4B4BBA
:102660001B680646586800EB800040000F4606F0E5
:10267000DBFC474B1B6880461879894606F0D4FC82
:1026800002460B4600204FF0804105F07DFB0246DC
:102690000B464046494606F041FD02460B460020E7
:1026A0003C4906F065FE32463B4606F037FD07F032
:1026B0002DF84FF07E51064607F024FB002838D154
:1026C0004FF07E56002384F8903072B6D4F8801014
:1026D000304607F079F9E16FA06707F031FB002879
:1026E0003ED0D4F88830C4F88C3062B600232B601A
:1026F00003B0BDE8F08394F89030A3B9A26D012334
:10270000526884F8903072B60021D4F8800007F047
:102710005BF9E16FA06707F013FB30B3D4F88830A2
:10272000C4F88C3062B6164B00221A6003B0BDE8C4
:10273000F0831949304607F003FB0028C2D1164E3A
:10274000C0E7A06E104DA36604EB80010846CD6281
:102750004FF07E52036301212046FFF79DFE6BE799
:10276000D4F8883003F10043BDE7D4F8883003F192
:102770000043D5E75C90FF1FA490FF1FC892FF1F86
:10278000908FFF1FEC91FF1FA891FF1F6C90FF1F00
:102790007C90FF1F00002440000080BFD0B51F4B7D
:1027A0001F4C1B681B794FF47A7103FB01F1204623
:1027B00002F010FD1B4B1B68586806F035FC1A4BE5
:1027C0001B68064618790F4606F02EFC02460B469B
:1027D00000204FF0804105F0D7FA02460B46304604
:1027E000394606F09BFC06F049FF0146204602F000
:1027F000FDFC0E48836E00EB83020B3300EB83037A
:102800000026D46286664FF07E525E600121FFF79B
:1028100043FE074B02221A70D0BD00BF7090FF1F0D
:10282000A891FF1F6C90FF1F7C90FF1FA490FF1FBB
:102830008090FF1F38B503794F2B04464DD01AD82E
:102840002D2B61D0492B2ED13B4B1B780022022B24
:1028500080F8292001D0FFF7A1FF206837490368DD
:10286000374A5B684FF0FF350D6000211160354934
:10287000012298470EE0692B01D06F2B0ED1206802
:102880002E4A016800234D6813602E4984F82930D0
:102890000122A84720680368DB68984794F829005C
:1028A00080F0010038BD2B2BF8D1234B1B78002280
:1028B000022B80F829200ED0FFF770FF94F8290032
:1028C00080F00100204B1D491A681D4B52681A60A8
:1028D00001240C6038BD0120F4E7174B1B7800225F
:1028E000022B80F8292001D0FFF758FF164B2068F3
:1028F0001A6812495568124A0368156001220A6075
:102900005B6810499847C5E70B4B1B780022022BE8
:1029100080F829200DD0FFF741FF94F8290080F0BE
:1029200001000649064B4FF0FF3400220C601A608C
:1029300038BD0120F5E700BF8090FF1F5C90FF1FAE
:10294000EC91FF1FA40701007890FF1F2DE9F04FC5
:1029500000F12C0505EB8106B54285B0044688469A
:1029600091464FEA81070FD0BA10B2FA82F2C2F153
:102970001F02520031462846A24BFFF7EFFCA14A46
:1029800031462846FFF756FCD4F82CB0C4F858B0AE
:10299000B8F1010F40F31F81E019DBF810A02830D7
:1029A0002A4652F8041F0B699042CAEB43034B615D
:1029B000F7D1DBF81C300193B542DBF820300293ED
:1029C00000F0028104F130039E4200F00781DBF841
:1029D00024501A4610681146426A954228BF15468F
:1029E0000A1D9642F6D1DBF818C01A6892698CEA83
:1029F000EC7682EAE270A6EBEC76A0EBE270B042F5
:102A00009E46ACBF30469446714503F10403ECD1B9
:102A1000BAF1000F00F0C18006F082FF494606F0CF
:102A2000D3FF07F0D3F9002800F0B780DBF81800D7
:102A30000028B8BF404206F073FFB8F1000F81468E
:102A400040F3D480504606F06BFF274407F1280876
:102A50008246002704F1280B5BF8046F306906F00A
:102A60005FFF514607F064F8494606F0ADFFB369D1
:102A7000064683EAE370A0EBE37006F051FF0146DF
:102A8000304607F055F83946064607F059F900B1C7
:102A90003746C345E0D13946484607F049F807F0C4
:102AA00095F904F104094FF0000B074684F828B0AB
:102AB000484602F0D1FC2062484602F0CDFC60623C
:102AC00002F09EFC616909F1040002F025FCA06D92
:102AD000029B4168019E4FEA4508C568C4F88870AA
:102AE0006D1AA167C4F88430A3FB0301A7FB073765
:102AF000C4E92837002D0397A6FB067AB8BF6D42BC
:102B0000C4E92601C01BC4F88060029361EB0A018E
:102B1000C4E9247A4246C4F8A880E5675B4607F01A
:102B200075F9401941EBE571CE0F361841F10001FE
:102B3000760846EAC176B54232D3029BD81B039B86
:102B4000424663EB0A015B4607F060F9864234DCDB
:102B5000C4F8B060C4F8AC6001994846FDF7D0FEF7
:102B6000A268002A44D0236A27490120D0600025AA
:102B7000E069956003249460DB000D604A6803F10E
:102B8000804303F5603302440D241A610C60DA6857
:102B9000502122F08002DA60D96005B0BDE8F08FE4
:102BA0000D2003F0C1F9192003F052FA0D2003F0B3
:102BB000BBF9192003F04CFAF2E7C0EB4606C4F863
:102BC000AC00C4F8B060C7E7E36A98695D6A0028A2
:102BD000B8BF40421CE7DBF810A0EAE6DBF81800BB
:102BE000DBF824500028B8BF404211E7002752E725
:102BF000064B1B68002BB6D0022101209847A26823
:102C0000B1E700BF59040000008003401C92FF1F81
:102C1000124B1B685B6898421FD8114B1B78012B25
:102C200070B5044601D0FDF7B9FC0E4E0E4B0025E1
:102C3000214630461D7002F0F9FA0C48836E856615
:102C400000EB83020B3300EB8303D66201214FF0CC
:102C50007E525D60FFF77AFE70BD70477890FF1F6F
:102C60008090FF1FA891FF1F948FFF1FA08FFF1F51
:102C700070B50379213B84B00446522B54D8DFE869
:102C800013F06301530053005801530053005300E5
:102C9000530053005300530053005300530053009C
:102CA00059006C007100810083008D008F0091003D
:102CB000A50053005300530053005300530053002A
:102CC0005300530053005300530053005300B3000C
:102CD000530053005300530053005300530053005C
:102CE000C00053005300CA00530053005300530068
:102CF000530053005300530053005300530053003C
:102D0000530053005300E8005300530053000C01DC
:102D1000530053005300530053001B015300530052
:102D2000530053003D013F0190F8290080F001005D
:102D300004B070BDAE4B416A1A68AE4B52681B6856
:102D400001FB02F2204694F82810FEF7DDFE002376
:102D5000012084F8293004B070BDA54B416A1A687F
:102D6000A54BEBE7A54B626A1B6894F82810204638
:102D7000FEF764FEA24A00230120137084F8293074
:102D800004B070BD9F4BEEE79F4B94F824201B6866
:102D900094F828102046FDF753FFEBE79B4BF4E730
:102DA0009B4BF2E79B4D426A2B6890F82810FDF789
:102DB00047FF2B6898481979003918BF012102F0A4
:102DC000F7F9002384F829300120B1E7884B626AC3
:102DD0001B6894F828102046FEF730FE00230120DF
:102DE00084F8293004B070BD90F82830002BF5D05D
:102DF0007F4B406A1B685B6803FB00F0FFF708FF2E
:102E0000ECE77C4B1B685868FFF702FF002384F84F
:102E1000293001208CE7764A774B12681B68406A9C
:102E2000526803A901915B68009300FB02F294F8D9
:102E3000281000232046FDF7DFFE0028CED0774B78
:102E4000754A1B7803995160002BC7D1FDF712FD1D
:102E5000C4E7734D426A2B6890F82810FDF7F0FE26
:102E60000028BBD06F4E2B6896F900201B79511EAD
:102E7000C9B203EB830303294FEA4303AED86A4880
:102E800050F82110023A8B4228BF0B46022A00F26A
:102E9000A580DFE802F0726381004379303B092BA3
:102EA0009CD8624A52F823301A7A002A96D05B687E
:102EB0005868FFF7ADFE91E75D4D426A2B6890F8C8
:102EC0002810FDF7BDFE002888D02B68554E1879D4
:102ED00006F0BAF80B4602464FF08041002004F09D
:102EE00053FF06F0CBFB96F90030013B0146032B64
:102EF0003FF674AFDFE803F06E69645F4D4B66E741
:102F00004579303D092D3FF669AF0B3007F034F9B4
:102F1000374A6062126845495268034602FB03F370
:102F200051F82500039303AA04F11101FEF75CFE9A
:102F300054E7002420460021013402F09FFDB4F53F
:102F4000006FF7D1FEF77EFF03F010FA03F08CFD5F
:102F50004FF47A7003F07CF803F06EFF184606F029
:102F600063F821A3D3E9002306F002FA06F0AEFBD2
:102F700081B2F06801F0CCFD30E7184606F054F855
:102F800019A3D3E9002306F0F3F906F09FFB81B201
:102F9000B06801F03DFF21E7184606F045F812A39E
:102FA000D3E9002306F0E4F906F090FB81B2306922
:102FB00001F0AEFE12E7306989B201F0EDFE0DE7D7
:102FC000F06889B201F07EFF08E7B06889B201F0CD
:102FD00079FF03E7706801F0ADF9FFE67068194604
:102FE00001F096F8FAE600BFCD3B7F669EA0F63F63
:102FF0009C90FF1FA491FF1F7890FF1F6C90FF1FF4
:103000008090FF1F6090FF1F988FFF1F7090FF1F21
:103010007490FF1FA090FF1FA891FF1F6490FF1FD7
:103020005890FF1F2C87FF1FD4090100688FFF1FD6
:103030007C90FF1FE891FF1F70B50546FDF778FDF6
:1030400088B195F82930044653B12846FDF71EFB98
:1030500050B995F829301BB12846FEF79FFA18B9E8
:103060000F4EB36813B10024204670BD95F8293087
:10307000002BF8D02846FFF7DDFB0028F4D1B36819
:10308000002BF0D1074B9B68002BECD195F8293031
:10309000002BE8D02846BDE87040FFF7E9BD00BF2F
:1030A000A08FFF1FA490FF1F08B50D4B9B6873B145
:1030B0000C4B01221A70FFF7B3FA0B48FFF7BCFF65
:1030C00000B108BDBDE808400848FFF7B5BF084B90
:1030D0009B68002BECD1034A1370FDF7CBFBEAE7AA
:1030E000A08FFF1F6490FF1F7091FF1F3C91FF1F77
:1030F000A490FF1F2DE9F04F162285B015213E4800
:10310000DFF8F8B0DFF8F8A002F01EF83D483E4BBB
:103110003E49C0F804A0002480254FF0060941F282
:10312000F95841F288370526C0E91C765A46C0E9AD
:103130000244057480F82840C465046680F8644041
:103140008466C0F81890C466C0F81C8003604061B3
:1031500004F080FD2E482F4B466703602E4E2F490A
:10316000C0F804A001235A46C0F81890C0F81C808B
:1031700007678460C460057480F82840C4650466ED
:1031800080F86440846680F89040C366406104F033
:1031900061FD234F33680393224B039A1A6038462C
:1031A000092100F04BF939461F4800F09FFB3368B6
:1031B0001E490193019B0B63336802931C481D4B0E
:1031C0004C620C8581F82A40CC625C621C8583F8D5
:1031D0002A40DC620460184C029E0C60174919609A
:1031E0005A46174905711E6304F034FD05B0BDE869
:1031F000F04F02F0F3BB00BFA891FF1F2087FF1F15
:103200006C090100A08FFF1F9409010089210000B3
:10321000A490FF1FB0090100C892FF1F59210000B0
:103220008890FF1F6890FF1FF091FF1F3C91FF1FC8
:103230001092FF1F7091FF1FBC87FF1F7C87FF1F2D
:10324000210500002DE9F043012193B0172002F081
:1032500085FE0A240121172002F040FE0A2002F018
:10326000F7FE1720002102F039FE322002F0F0FEB6
:10327000013CEFD10121152002F070FE1620012142
:1032800002F06CFE2146162002F028FE2146152091
:1032900002F024FE0121172002F020FE584DFEF717
:1032A000D7FC0221092002F059FEFA2002F0D0FEDC
:1032B000284600F02FFB03460124284663B9012C61
:1032C00040F0928000F016FC284600F023FB0346F5
:1032D00001342846002BF2D049480B2100F0CCFCE9
:1032E0004748012100F0FAFC454900220CA800F0F3
:1032F00065FD0021424800F0E9FD4249044606F020
:1033000001FD00287AD04049204606F00FFD00B9A3
:103310003D4C3E4B3A481C60002100F0DFFC3C4B2A
:103320001968FF221A7121B13A4B3B480B441B111B
:103330001A543A4B3A4C029302A908A800940694F6
:10334000FDF7D8F808A90EA80C94FDF7D3F8354A74
:103350002F48354D354C364FDFF8D8900CA902F088
:10336000CDF90C9B0EA8DB689847069B08A8DB6884
:103370009847009B02A8DB689847FEF7D1F9FEF753
:1033800059FE2E6840F2EE2804F026FB2378F3B1B4
:103390003B78DB071BD52B68D9F800209B1A0E2B36
:1033A00015D9254C002003F0A1F80021012003F0DD
:1033B0005FF820464DF6C02102F014F90A230021DF
:1033C0001720A36013B0BDE8F04302F087BD2B685F
:1033D00022789B1B2AB1B3F5FA6FE2D804F0FCFA0D
:1033E000D2E74345FAD9DCE7642002F031FE2846F3
:1033F00000F080FB032C3FF46FAF65E7014C88E7DA
:10340000F091FF1FF3FFC742F3FFC7C22887FF1FDA
:103410001092FF1F008FFCBF44E400E02D05000068
:10342000C4090100FF94BA0AC892FF1FD894FF1F75
:10343000FC94FF1F0095FF1F7C87FF1F38B50D46CA
:1034400004460021284602F089FD094B0122227022
:1034500053F8351061600023E37323822372637293
:10346000A372E37223736373A373A37438BD00BFA5
:103470003C0C0100426872B6002382F8803262B6CA
:103480007C20302102E010F0FF0024D00B46013BED
:10349000FDD192F800320138002BF4D072B601232E
:1034A00082F8003182F8803262B64FF43453013B27
:1034B000FDD172B600214FF4D26382F88012013B35
:1034C000FDD192F80002B0FA80F0400962B642F2F3
:1034D0007063013BFDD17047CA07436810D572B6CF
:1034E000012183F80011F02283F88012013AFDD106
:1034F00083F8801062B64FF4A563013BFDD170479D
:1035000072B6012183F800114FF4C36283F8801270
:10351000013AFDD183F8801062B67823013BFDD1DA
:10352000704700BF436872B6012183F880124822B9
:1035300083F80011013AFDD10021F02283F88012B6
:10354000013AFDD193F80002C0B262B64FF49F6316
:10355000013BFDD1704700BF01232DE9F0439C469C
:103560004FF0080E4FF4C3687827F0264FF4A56596
:1035700013E072B684F800C1B14684F880C2B9F194
:103580000109FCD184F880C062B62C46013CFDD113
:103590005B00BEF1010EDBB216D019424468E8D1DF
:1035A00072B684F800C1C14684F880C2B9F101093D
:1035B000FCD184F880C062B63C46013CFDD15B0082
:1035C000BEF1010EDBB2E8D142B972B6436883F8AE
:1035D00080224368012183F8001162B6BDE8F083C0
:1035E0002DE9F0414FF0010C00240822E6464FF08F
:1035F00048082746F0264FF49F65436872B683F863
:1036000080E2414683F800E10139FDD183F8807200
:1036100031460139FDD193F80032DBB262B629465A
:103620000139FDD14FEA4C010BB14CEA0404013AD7
:103630005FFA81FCE1D12046BDE8F0812DE9F04739
:10364000002288465521FFF787FF08F1FF3704461F
:1036500008F1070801214FF4C36678254FF0F00EFA
:103660004FF4A56C17F8019F0822012312E072B6EF
:1036700080F80011F24680F88012BAF1010AFCD1FC
:1036800080F8801062B660460138FDD15B00013AD7
:10369000DBB216D019EA030F6068E8D172B680F881
:1036A0000011B24680F88012BAF1010AFCD180F80C
:1036B000801062B628460138FDD15B00013ADBB2CA
:1036C000E8D172B6636883F88022636883F80011DA
:1036D00062B64745C6D1BDE8F08700BF0123F0B50B
:1036E000082219464FF4C3677826F0254FF4A56EDB
:1036F00012E072B684F80011AC4684F88012BCF176
:10370000010CFCD184F8801062B67446013CFDD1F6
:103710005B00013ADBB216D013F0CC0F4468E8D15D
:1037200072B684F80011BC4684F88012BCF1010C1A
:10373000FCD184F8801062B63446013CFDD15B00B8
:10374000013ADBB2E8D172B6436883F8802243685D
:10375000012183F8001162B6F0BD00BF0023C373DE
:1037600003828374037243728372C372037343735D
:10377000837370472DE9F047867C044626B100200C
:103780002082A074BDE8F08789461546FFF772FED7
:103790000028F4D0C5BB2A46EC212046FFF7DCFE0A
:1037A00001264FF00008C24637462046FFF7BAFE12
:1037B00005462046FFF7B6FE012D2BD0854232D1BB
:1037C000237CBB4204EB080330D91A7A164225D178
:1037D000082F2ED86774BA4600251A7A22EA060204
:1037E0001A72294620467600FFF776FE013716F05A
:1037F000FF06FFB2D9D108F101085FFA88F8B8F1E5
:10380000080F19D00126D0E73246F0212046FFF7F5
:10381000A3FEC5E701280FD004EB08031A7A324350
:103820001A720125DDE704EB0803D6E7F6D0082F6E
:10383000D0D9BA460025D0E7402FA0D984F810A0EF
:10384000BAF1000F01D10123A374227A002A96D085
:1038500009F1FF33083409F1070901E014F8012FD9
:1038600003F8012F4B45F9D101208BE7034689B1BD
:10387000094A00EB010C002013F8011B414001F044
:103880000F0002EB1111105C097C634580EA010016
:10389000F2D1704708467047280A01002DE9F0412F
:1038A0008046C0680F4616460025FFF757FF03E025
:1038B0000135EBB29E4214D3D8F80C0001223946F0
:1038C000FFF758FFEBB2044658B19E42F0D10721F2
:1038D0003846FFF7CBFFFB798342E9D12046BDE8AC
:1038E000F08100242046BDE8F08100BF4FF0090CB4
:1038F000002210B4064C80F803C04FF0FF0C446067
:10390000027210BC0280C261A0F818C0C16070478A
:1039100001010100C079704738B504460D46C06802
:10392000FFF7A8FDE06895B12946FFF787FE002262
:10393000B421E068FFF710FEE068FFF7F3FD0546ED
:10394000E068FFF797FDB5FA85F0400938BDFFF74D
:10395000C5FEECE770B50546C0680C461646FFF795
:1039600089FD00B970BD2146E868FFF767FEE86889
:103970000022BE21FFF7F0FD741E0836E868FFF74D
:103980002FFE04F8010FB442F8D1E868FFF772FD8A
:10399000A0F10100B0FA80F0400970BD10B51446E6
:1039A000FFF7D8FF38B1631E04F1080113F8010FC7
:1039B00010B98B42FAD110BD08212046FFF756FFFF
:1039C000237A181AB0FA80F0400910BD38B50446C1
:1039D000C0680D46FFF74EFDD0B1E068EDB1294655
:1039E000FFF72CFE2278E0684821FFF7B5FD237829
:1039F0007BB16378CBB9142002F02AFB63787BB9E2
:103A0000E068FFF737FDA0F10100B0FA80F040094F
:103A100038BD142002F01CFBF2E7FFF75FFEE1E780
:103A2000A078012102F05AFAEAE7A078002102F01A
:103A300055FAE0E770B504460D46C0681646FFF734
:103A400019FDE0682946FFF7F9FDE06800224E21E4
:103A5000FFF782FDB178E0680022FFF77DFDF17885
:103A6000E0680022FFF778FD2B78102B04D0317925
:103A7000E0680022FFF770FDA3792BB129462046AC
:103A8000BDE87040FFF7A2BFE068BDE87040FFF7F7
:103A9000F1BC00BF0B78102B2AD010B584B001AA5E
:103AA0000C46FFF77BFF68B123783B2B15D09DF8C0
:103AB00008305F2B1AD007D81F2B0BD03F2B14BF19
:103AC00000200A2004B010BD7F2B14BF00200C2062
:103AD00004B010BD092004B010BD9DF908209DF868
:103AE0000830002AE5DA0C2004B010BD0B20E9E70D
:103AF0000C2070472DE9F0412B4F82B0044603257E
:103B00000026E068FFF72AFEE6712672322002F0F6
:103B10009FFA4FF0010807E007216846FFF7A6FE6D
:103B20009DF8073083420FD0E06801226946FFF715
:103B300021FE0028F0D1E3791BB9013D15F0FF0506
:103B4000DFD102B0BDE8F081E2799DF800300132AA
:103B5000422BE271E8D8272B11D8102B01D0222B51
:103B6000E2D1237A013323722378A3B16946204638
:103B7000FFF790FFE378834238BFE070D4E7283B3B
:103B8000DBB227FA03F3DB07CED5237A01332372A6
:103B90002378002BEAD169462046FFF7BDFE0028B6
:103BA000E4D084F80080E1E7010008042DE9F04149
:103BB00015460A78102A84B004461F461FD00DF11E
:103BC0000408082D0E4642464CD9FFF7E7FE0028B0
:103BD0004ED00C2DA8BF0C25A5F10A03022BEDB287
:103BE00044D86B01013BDBB29DF808209A4206D015
:103BF0004246314620468DF80830FFF71BFF1FB1C3
:103C0000012004B0BDE8F081E379E570012BF7D91C
:103C1000E068FFF7A3FDE379002BF1D0002503E076
:103C2000E279EBB29A42EBD9E3780C2B05F101056E
:103C30004FF0010201A9E3D0E068FFF79BFD0028E7
:103C4000EED0072101A8FFF711FE9DF80B3083424B
:103C5000E6D101A92046FFF71DFFE378834238BF74
:103C6000E070DDE7FFF79AFE10B109251F23BBE7DF
:103C7000002004B0BDE8F08130B5082983B00546C6
:103C80002AD90C29A8BF0C21E868E970FFF766FD66
:103C9000EB79FBB1002403E0EA79E3B29A4219D947
:103CA000E868012269460134FFF764FD0028F3D07B
:103CB00007216846FFF7DAFD9DF807308342EBD114
:103CC000EA78012369462846FFF770FFEA79E3B2F4
:103CD0009A42E5D803B030BD0921D5E7017170479C
:103CE000F0B5437983B00446ABB103789BB9194F63
:103CF000154640F2ED2607E03B680193019B5B1BF4
:103D0000B34219D803F068FEE068FFF70BFC012806
:103D1000F2D103B0F0BD0939C9B202299CBF0E4BE4
:103D200033F81150637888BF40F2EE256BB928460E
:103D300002F08EF963780BB903B0F0BDA0780121D1
:103D400003B0BDE8F04002F0C9B8A078002102F04D
:103D5000C5F8ECE7C892FF1F480A0100F0B5002340
:103D60000D4683B00446036043601146284616465C
:103D7000FFF790FE10B9204603B0F0BD0746E86893
:103D8000FFF778FBE8683146FFF758FC2A78E868C7
:103D90004421FFF7E1FB084A0123126801922370D6
:103DA0002B79019A6260002BE5D028463946FFF74F
:103DB00097FF204603B0F0BDC892FF1F70B5CB79C6
:103DC00082B093420C4605466E4607D828463246D6
:103DD0002146FFF7C3FF284602B070BD314620469A
:103DE000FFF75CFDF2E700BF92F901C00B782F48A6
:103DF0005178BCF1000FACBF4FF0000C84463B2B58
:103E000026D010B592F800E04FEACE0040EAC1207B
:103E1000282B40EA0C0010D0102B0DD1D4795CB1C6
:103E20002349937901EAC001E31A2039DB0193FBAE
:103E3000F4F30B4443EA0C0010BDBEF1500F20D048
:103E4000BEF1FF0FF8D11B4B072908BF184610BD64
:103E500092F90430002B137805DBC90241EAC30153
:103E600041EA0C007047D80713D59378D9071AD4C4
:103E70009A0716D4104A114813F0040F08BF1046D1
:103E800070470529D8D192790D4B0C2A08BF1846E6
:103E900010BDD80000F4FC6040EAC12040EA0C00EC
:103EA0007047084870470848704700BF0000F8FF97
:103EB00080FF07000083FFFF80E4FFFF0082FFFF19
:103EC0008082FFFF8081FFFF0081FFFFC3798B426B
:103ED00001D81248704710B586B00A4601A90446B9
:103EE000FFF7DCFC10B90D4806B010BD03AA01A90C
:103EF0002046FFF753FD0028F5D003AA01A920466C
:103F0000FFF772FF10F5DC5FEDDD05F009FD4FF006
:103F1000705105F059FD06B010BD00BF0000FEC293
:103F200090F81CC04160BCF1020FC26001D18368EF
:103F3000184701F0D9BA00BF436810B41C685A682A
:103F40002168114302682160154C16491460D16044
:103F5000154C164914611160417A154A5C180A31F2
:103F600094F824C053F8214002EBCC0149680C605E
:103F7000017A5C1803EB810194F818C0CC6902EB5C
:103F8000CC0149680C60817A10BC581803EB81039E
:103F900090F83000596B02EBC0025368196070470B
:103FA00001401F00011000380110007800001F8040
:103FB0003C0C010043681A68596813680B4313608E
:103FC000704700BF70B4016B4A4A0979D177C16A62
:103FD00009791177016B09791177826A03462AB34F
:103FE0004168C9688A4243D9C46A006B521A216881
:103FF0009A620D6803F12404A5424FF0010259D0E2
:104000001C68E56815F0804F0D6829D12D780E6881
:1040100045F0004501360E60656336490079C87683
:1040200012B1DB6A1B79CB7670BC70470168324CE9
:10403000406B0A63CC62CC6824F08044CC60046896
:104040002E4924684FF0030C8C4283F825C039D1E7
:10405000037F4260022BC26038D170BC836818476E
:104060002D880E6845F0004502360E606563D4E782
:10407000C16A0968CC8B260402F1FF3031D4C0F349
:104080000E00C883CC8B186BA4B2CC820468E58B7D
:104090002D041ED4C2F30E05E583E58BADB2E58297
:1040A0000D680024013A9C6203F1240418BF012228
:1040B000A542A5D11968CC6893F8244044F0004487
:1040C0004C63AAE72346114670BC184770BC01F048
:1040D0000BBAE58BC2F3080605F47E453543E5834C
:1040E000DBE7CC8BC0F3080004F47E442043C88394
:1040F000C8E700BF0080004000000FFF213F000024
:1041000008B50248FFF75EFF08BD00BF4087FF1FEC
:104110002DE9F041056B04464069884604F084FFB0
:10412000064640460F4604F07FFF02460B463046E7
:10413000394604F0F3FF7A4B002204F0EFFF74A33A
:10414000D3E9002306460F4605F012F9754B00220D
:1041500004F02CFE05F0BAFAC3B20F2B25F040058F
:104160000ED92563E26A94F83B1022F01F021F2B40
:1041700094BF1A4342F01F02E26299B9BDE8F08190
:1041800045F0400564A3D3E9002325633046394652
:1041900005F0EEF8634B002204F008FE05F096FAF5
:1041A000C3B2DFE76049614ACB6BD4F8308043F497
:1041B0008053CB63D568D368C5F380659A014FEA15
:1041C000C50540F1978045F004050C2DEFB208BFFE
:1041D0002F4640F09080564E94F83800002101F0B0
:1041E0007DFE33684FF00042DA62C8F307425A633B
:1041F000DA6A002AFCDA986B4FF00042DA620002B9
:10420000C8F3072280B25A63DA6A002AFCDA996B93
:10421000C9B201435FFA88F24FF00040D862090248
:104220005A63DA6A002AFCDA9B6B94F838005FFA6A
:1042300083F848EA0108012101F050FE0C2D4FEAF5
:10424000181803D03A483946FFF7B4FE3649C4F887
:104250003480CB6B354AD4F82C8043F48053CB6345
:10426000D568D368C5F380659B014FEAC50547D57E
:1042700045F004050C2DEFB208BF2F4641D194F84C
:104280003800002101F02AFE33684FF00042DA6264
:10429000C8F307425A63DA6A002AFCDA986B4FF0D7
:1042A0000042DA620002C8F3072280B25A63DA6A77
:1042B000002AFCDA996BC9B201435FFA88F24FF029
:1042C0000040D86209025A63DA6A002AFCDA9E6B5F
:1042D00094F83800F6B20E43012101F0FFFD0C2DD9
:1042E0004FEA161603D012483946FFF763FE66639D
:1042F000BDE8F081EFB20E480C21FFF75BFE6AE7E4
:10430000EFB20B480C21FFF755FEB8E7AFF3008082
:1043100000000000C0EB12410000000040240441F6
:10432000000040400000E03F0080044000C0024028
:104330004087FF1FFF29F8B5056A044617DD564B75
:104340004FF480721D4094F83B30E2632562DBB984
:10435000E26BE3682069A16902FB03F300FB03F34E
:104360004E4AB2FBF3F31944A360E161F8BD7F2923
:1043700058DD494B1D4094F83B30802245F0010543
:10438000E2632562002BE3D04549464ACB6B43F4F8
:104390008053CB63D668D368C6F380669B014FEA2F
:1043A000C60649D546F004060C2EF7B208BF3746BC
:1043B00043D1002194F8380001F090FD3A4B1B687E
:1043C0002A0C4FF00041D9625A63DA6A002AFCDAFB
:1043D000986B4FF00042DA620002C5F3072280B208
:1043E0005A63DA6A002AFCDA996BC9B2EDB201436A
:1043F0004FF00042DA6209025D63DA6A002AFCDAF1
:104400009D6B94F83800EDB20D43012101F066FD7B
:104410000C2E4FEA151503D023483946FFF7CAFD85
:10442000656395E73F290DDC1F2911DD1A4B1D40FF
:10443000202245F0030586E7F7B21B480C21FFF761
:10444000B9FDB6E7144B1D40402245F002057AE75E
:104450000F2907DC0729104B0ADD1D40082245F013
:10446000050570E7114B2B40102243F401756AE7F4
:10447000032904DD1D40042245F0060563E70129F8
:1044800004DD1D40022245F007055CE71D400122C6
:1044900045F0080557E700BFF0FD0F0000879303C4
:1044A0000080044000C002404087FF1FF0FF0F0063
:1044B00090F8252090F828C0036861F3061280F870
:1044C0002520426A1B684FEA0C6C4CEA12226C21D0
:1044D000184700BF90F825C090F8262010B40CF0C3
:1044E0007F0C01F0010422F00702C1F342010A43EC
:1044F0004CEAC41C046880F825C080F8262090F897
:1045000028102468426A090641EA122223466C21D7
:1045100010BC184790F826C090F8272010B40CF073
:104520007F0C01F0010422F00102C1F340010A43B3
:104530004CEAC41C046880F826C080F8272090F854
:1045400028102468426A090641EA122223466C2197
:1045500010BC184790F8272090F828C0036861F332
:10456000410280F82720426A1B684FEA0C6C4CEA33
:1045700012226C21184700BF90F828C0426A0368D5
:1045800061F3030C80F828C04FEA0C6C1B684CEAFE
:1045900012226C21184700BF00B5036883B05B6826
:1045A0006C219847C0F3021003B05DF804FB00BF14
:1045B00000B5036883B05B686C219847C0F3C310F3
:1045C00003B05DF804FB00BF00B5036883B05B680F
:1045D0006C219847C0F3C13003B05DF804FB00BF05
:1045E00000B5036883B05B686C219847C0F3404016
:1045F00003B05DF804FB00BF00B5036883B05B68DF
:104600006C219847C0F3036003B05DF804FB00BF62
:1046100010B404680A46C1F30721246880F8261004
:10462000C2F3074180F82710110E80F828102346A6
:1046300080F8252010BC6C21184700BF90F8252079
:1046400090F828C0036861F3030280F82520426ACD
:104650001B684FEA0C6C4CEA12226C21184700BF11
:1046600090F828C0426A036861F3041C80F828C0EF
:104670004FEA0C6C1B684CEA12226C21184700BFF1
:1046800003686F215B68184710B4C27D0468C1F3EA
:10469000014C2468417522F0030242EA0C02C1F386
:1046A000072CC2752346C1F3110210BC80F816C056
:1046B00000211847427D61F38202427510B44269BD
:1046C0000468C2F31122236810BC0021184700BF00
:1046D00010B490F832200468C1F3054C24680186B8
:1046E00022F03F0242EA0C0280F832202346C1F356
:1046F000150210BC7021184790F8322061F3820235
:1047000080F8322010B4026B0468C2F315022368EB
:1047100010BC7021184700BFC2604FF07C5202618C
:104720001A4A0260827A818622F00F028272026B3C
:10473000816980F83C3002F07C4242F4A02242F4CD
:1047400090620263026A02F47E420262426A30B4FC
:104750000F4D002401F4700102F0800244600481D6
:10476000846344758475C4758462816195F90040E1
:10477000C1694262C26A9C4201F4704102F0FE02C9
:10478000B8BF2B70C16130BCC26270475C0B0100C6
:104790001892FF1F90F8340001F0A0BB836B03B1A7
:1047A0007047294A29492A4830B4146802E0013385
:1047B000172B46D031F8022BB0FBF2F29442F6D31D
:1047C000244A254952F82330CC7A1A0902F470623F
:1047D00023F47043134343F07850D4B172B6CA7ACD
:1047E000D50708D54FF0E02CCD68DCF880412C408F
:1047F000CCF880418C61940708D54FF0E02C0D690E
:10480000DCF884412C40CCF88441CC6152070ED4B2
:1048100062B60A68D168814207D0104C1049146012
:1048200043F0FC43D0601361116030BC70474FF01F
:10483000E0244D69D4F888212A400A62C4F888210E
:10484000E6E71623BCE700BF7887FF1F500A010088
:1048500000512502800A01004087FF1F01403F00F0
:1048600000003F80836B03B170470D4AD37A002B61
:10487000FAD0D80704D54FF0E0219069C1F80001C3
:10488000990704D54FF0E021D069C1F804015B0716
:10489000EAD54FF0E023126AC3F80821E4E700BF2D
:1048A0004087FF1F806B0B4608B100F011BC064A21
:1048B00012684FF00041D1625363D36A002BFCDAD7
:1048C000906BC0B2704700BF4087FF1F2DE9F041D9
:1048D00005460F46FFF762FF00212846FFF75AFF03
:1048E00039462846FFF7DEFF042400212846FFF75B
:1048F000D9FF631E13F0FF04F7D195F93C30012B6B
:104900004FF001060EDD052400212846FFF7CAFFFF
:10491000631E13F0FF04F7D195F93C30013676B2EF
:10492000B342F0DC01212846FFF734FF1823013B96
:10493000FDD1DFF8808000212846FFF72BFF98F992
:104940000030B3420EDD052400212846FFF7AAFF00
:10495000631E13F0FF04F7D198F90030013676B2E8
:10496000B342F0DC39462846FFF79CFF002128754A
:104970002846FFF797FF002104462846FFF792FFDD
:104980002402044300212846FFF78CFF2402002163
:1049900004432846FFF786FF2402034628461C43AB
:1049A000FFF760FF28460121FFF7F4FE2046BDE82F
:1049B000F08100BF1892FF1F70B5054614460E46E1
:1049C000FFF7ECFE00212846FFF7E4FE46F08001E9
:1049D0002846FFF767FF210E28752846FFF762FF7C
:1049E000C4F307412846FFF75DFFC4F307212846BB
:1049F000FFF758FFE1B22846FFF754FF95F93C3026
:104A0000012B0FDD0126052400212846FFF74AFF70
:104A1000631E13F0FF04F7D195F93C30013676B2EE
:104A2000B342F0DC2846FFF71DFF01212846FFF7BF
:104A3000B1FE70BD416910B50446C1F31121FFF705
:104A400023FE61682046C1F3130100F005FBE17904
:104A5000204600F083FAA1682046C1F3130100F05C
:104A600087FAA269236820461B68C2F31302142147
:104A70009847A38BE27EC3F30B0342EA0322236829
:104A800020461B6815219847238CE28BC3F308034B
:104A900042EA0342236820461B682D21984794F878
:104AA0002430628C03F07F0342EA034223682046ED
:104AB0001B683321984794F82830616A1B0643EA43
:104AC00011212046FFF7A4FD94F82C30A16A03F0D1
:104AD00001031B0643EA1121204600F05BFAE26A5B
:104AE0002368120A1B6820466E219847216B2046D6
:104AF000C1F31501FFF7ECFD94F83320236820463D
:104B00001B68BDE8104002F003027221184700BF85
:104B100038B50C4605462049C06804F055FF05F03D
:104B200055F942F6415382B203FB02F2120A1B4BC3
:104B300002FB04FC1F2101FB0332BCFBF2F2FF2A43
:104B400002F1FF3408D87F2A9CBF01F1FF31C9B2BE
:104B50007E2CF0D9D3B201E000231A461F29286821
:104B600085F8433028BF1F2103680C4628460B21D7
:104B700098472146284600F08FFA204604F0D0FEE0
:104B8000296904F021FF05F021F9C1B22846BDE8EA
:104B9000384000F073BA00BF00FF7F47FE440100B9
:104BA000F8B5836B044642EA4145CBB190F8260044
:104BB000002101F093F9C5F30741A06B00F088FADA
:104BC000C5F30721A06B00F083FAA06BE9B200F0F7
:104BD0007FFA94F826000121BDE8F84001F07EB983
:104BE000066B4549454803E00133172B00F08180EF
:104BF00031F8022BB0FBF2F29642F5D3404A414E17
:104C000052F823301A0902F4706223F470431343FC
:104C1000F27A43F078511AB372B6F27AD70708D510
:104C20004FF0E02CF768DCF880013840CCF88001C8
:104C3000B061900708D54FF0E02C3769DCF88401AB
:104C40003840CCF88401F061570708D54FF0E020D8
:104C50007769D0F888213A40C0F88821326262B67C
:104C60003268D068884207D043F0FC432648106081
:104C7000D1601361254B136094F82600002101F0E8
:104C80002DF933684FF00042DA62C5F307425A63E8
:104C9000DA6A002AFCDA4FF00042996BDA62C5F357
:104CA00007225A63DA6A002AFCDA4FF00042EDB2BA
:104CB000996BDA625D63DA6A002AFCDAF27A9B6B3E
:104CC000002A86D0D00704D54FF0E023B169C3F89D
:104CD0000011910704D54FF0E023F169C3F80411E6
:104CE00053077FF576AF4FF0E023326AC3F808210F
:104CF0006FE7162382E700BF500A0100005125022A
:104D0000800A01004087FF1F01403F0000003F80F4
:104D100070B50446084604F003FE1B4904F054FE37
:104D20001A4904F005FFA16A064604F04DFE184931
:104D300004F0FEFE4FF07E5104F03CFD05F046F815
:104D4000C5B20F2D1AD80121204600F041F9A16A01
:104D5000304604F039FE0F4904F0EAFE4FF07E5170
:104D600004F028FD05F032F8C5B21F2D2946204673
:104D700028BF1F21BDE8704000F09CB900212046EB
:104D800000F026F9F1E700BFD504354200007A446F
:104D900052B89E3EC3F5283E202914D820291FD89A
:104DA000DFE801F01F1E221E251E1E1E281E1E1ECD
:104DB0001E1E1E1E2B1E1E1E1E1E1E1E1E1E1E1E06
:104DC0001E1E1E1E2E0080291DD0B1F5807F02D12F
:104DD000002100F00FB9402918D1022100F00AB9D2
:104DE0007047082100F006B9072100F003B9062139
:104DF00000F000B9052100F0FDB8042100F0FAB878
:104E0000032100F0F7B8012100F0F4B8704700BFAB
:104E100070B50446084604F083FD254904F0D4FD2E
:104E2000244904F085FE24490646E06804F0C4FCE9
:104E3000314604F0C9FD214904F07AFE4FF07E515D
:104E400004F0B8FC04F0C2FFC5B20F2D236829D8C6
:104E50009B680121204698471749E06804F0ACFCA4
:104E6000314604F0B1FD164904F062FE4FF07E5168
:104E700004F0A0FC04F0AAFFC5B21F2D28BF1F2517
:104E80002946204600F008F9284604F049FD21692A
:104E900004F09AFD04F09AFFC1B22046BDE87040CC
:104EA00000F0ECB89B68002120469847E5E700BF7A
:104EB000D504354200007A440AD7A33C6666A63E74
:104EC000EC51383E202914D8202921D8DFE801F000
:104ED00021202520292020202D20202020202020B6
:104EE00031202020202020202020202020202020B1
:104EF0003500802925D0B1F5807F03D103680021DA
:104F00005B6A1847402920D1036802215B6A184771
:104F1000704702680821526A104702680721526AE6
:104F2000104702680621526A104702680521526A3A
:104F3000104702680421526A104702680321526A2E
:104F40001047036801215B6A1847704708B503687A
:104F500001215B68984700F0010008BD10B40468A7
:104F60002468C1710A462346112110BC184700BFAE
:104F700010B4827A0468C1F3034C2468018122F0E2
:104F80000F0242EA0C0282722346C1F3130210BCE4
:104F90001321184790F82C2010B40468C1F3006C5A
:104FA00022F00102246880F8291042EA0C0280F8FD
:104FB0002C20C1F3072CC1F3074280F82B20234695
:104FC00021F07E4210BC80F82AC06D21184700BF36
:104FD000427D90F818C061F38612427542694FEA2B
:104FE0000C6C4CEA12220721FFF7DABD407DC009A4
:104FF000704700BFF8B504460F46FFF7F7FF00B152
:10500000F8BD6379257A67F3030363716368064625
:105010002D06204645EA1325FFF7E8FFC5F30722D2
:105020000146C5F3074358B1E3702B0EA2706570BB
:1050300023712A4631462046BDE8F840FFF7B0BD4F
:10504000E3712B0EA271657123722A462046BDE8DA
:10505000F840FFF7A5BD00BF10B482790468C1F322
:10506000034C2468818022F00F0242EA0C02827114
:105070002346C1F3130210BC10211847027961F3D3
:105080000402027110B442680468C2F31302236878
:1050900010BC1021184700BF427961F3040242712D
:1050A00010B442680468C2F31302236810BC1021D4
:1050B000184700BF427C90F814C061F304024274A8
:1050C00002694FEA0C6C4CEA12220621FFF768BD18
:1050D000F8B505460E460079002100F0FFFE0724D2
:1050E000002746FA04F313F001034FF0010128787A
:1050F00008BF194600F0F2FE0121287900F0EEFE0B
:10510000A87800F01DFF031E18BF0123A3403B43F6
:1051100028790021DFB200F0E1FE013CE1D1F30784
:105120004CBF01212146287800F0D8FE28790121C2
:1051300000F0D4FEA87800F003FF00280CBF38462A
:1051400047F00100F8BD00BF184B70B553F831604F
:10515000044600206060A163C8B206F58071E16278
:1051600006F18001A16253F83230E26303F180025C
:10517000226303F58072626340F6C4120125626205
:105180004FF448716422A1612262E261C6F80051C5
:105190002946C3F88050256000F0E0FE94F83C00FA
:1051A000294600F0DBFE204670BD00BF3C0C01002C
:1051B000C26B074B53F8323003F1800203F5807362
:1051C00011B1194613460A4602634363704700BF94
:1051D0003C0C0100034A044B914298BF0B464362CA
:1051E000704700BF1FA1070020A10700002910B4CD
:1051F0000BDB0C4C026BA1424FF00103A8BF214610
:10520000036010BC136081617047074B426B4FF025
:10521000FF3499420460B8BF19460124146010BCE1
:1052200081617047E0930400206CFBFF4368C91A5A
:1052300010B40DD4026B012303601360426810BCEC
:1052400081EAE173A3EBE1731144C160036170472C
:10525000436B4FF0FF34012204601A60EEE700BF99
:10526000704700BF024B186803681B68184700BFEF
:105270002092FF1F024B586803681B68184700BF45
:105280002092FF1F024B986803681B68184700BFF5
:105290002092FF1F024BD86803681B68184700BFA5
:1052A0002092FF1F426808B55AB1154B13441B11D9
:1052B0004433DBB2443B032B03D8DFE803F0111582
:1052C000190D104B1B6800220260ABB1012108468A
:1052D00098474FF0FF3008BD0B4B0360032008BD1B
:1052E0000A4B0360002008BD094B0360012008BD84
:1052F000084B0360022008BD4FF0FF3008BD00BF1F
:10530000008FFCBF1C92FF1F3071034000710340EF
:105310001071034020710340F0B58DB02F4B304A1F
:105320000093071D04460E4608A802A906930292A0
:10533000FBF7E0F82B4A06A9384600F0DFF9069B98
:105340000546DB6808A89847009B02A8DB689847D9
:105350005DB9254B1B682BB1032101209847032021
:105360000DB0F0BD03200DB0F0BD2046FFF79AFF51
:105370001E4B616843F820602022227221B11C4B31
:105380000B441B111B495A541B4B53F820300293FA
:1053900002A91A4B009308A80693FBF7ABF8114A31
:1053A00006A9384600F0AAF9069B08A8DB689847CA
:1053B000009B02A8DB689847236833B19A680020F5
:1053C00022F002029A600DB0F0BD074A1268002A6E
:1053D000F4D00221012090472368EFE7C4090100BF
:1053E00061520000005125021C92FF1F2092FF1FF6
:1053F000008FFCBF44E400E0A00B0100900B010013
:1054000010B4134C22780ABB124B4FF6FF711A608E
:1054100010209960D30003F1804303F5603301321B
:10542000D96821F08001D960D968082A21F04001AB
:10543000D960D860EED1074B4FF0E0220D20186004
:105440004FF080410123C2F80411237010BC704753
:105450003092FF1F00800340064B0146002053F8A6
:10546000042F1AB101300828F9D17047024B43F8D4
:10547000201070473092FF1F3492FF1F072811D869
:1054800010B472B6C30003F1804303F560330649DC
:10549000DA68002422F04002DA6041F8204062B667
:1054A00010BC7047704700BF3492FF1F70B50D4DA0
:1054B0000024E30003F1804303F56033DA6802F06F
:1054C000C002C02A09D155F82400DA68066822F023
:1054D00040023668DA602146B0470134082CE8D132
:1054E00070BD00BF3492FF1FEFF3108272B6437F8E
:1054F0005BB9017F012930B40BD0032913D00123FC
:10550000437702B962B630BC70470AB962B67047D9
:105510007047124C2168B1B1114943610B68836136
:1055200008605861EBE70F4D0F492C688CB143615F
:105530000B68836158614FF0E0234FF0805408609E
:10554000C3F8044DDBE7064B4161816120601860C0
:10555000D5E7446184612860EDE700BF5492FF1FE6
:105560006492FF1F5C92FF1F5892FF1F70B5EFF30C
:10557000108272B60C4C206880B10C4E0025436935
:10558000236073B19D6102B962B68368457798471D
:10559000EFF3108272B620680028F0D102B962B62B
:1055A00070BD3360EFE700BF5C92FF1F5892FF1F92
:1055B000FFF7DCBF024A136801331360704700BF76
:1055C000C892FF1F0368C9B21B6818470368C9B2B5
:1055D0001B6818470368C9B21B6818470368C9B23B
:1055E0001B681847084B10B503EB51030446B3FB87
:1055F000F1F000F0EFFD054B1B7803B110BD204624
:10560000BDE8104002F060BA00449508B987FF1F5A
:1056100008B5084600F0E0FF012008BD08B50846BF
:1056200000F0DAFF012008BD38B508460D4605F048
:1056300007FE04460146284600F0D8FF204638BD44
:1056400010B508461446114600F0D0FF204610BDA4
:105650000846114601F0F8B90846114601F0D8B9DC
:1056600001F0F0B808B5084600F08CFF003818BF0C
:10567000012008BD08B5084600F062FF003818BFD9
:10568000012008BD0846114600F0F2BE084600F0B1
:105690002DBF00BF084600F0CFBE00BF00F066BEC1
:1056A00010B503681446DB6998472046BDE81040F2
:1056B00000F0FEBD01F0A0B801F058B801F042B80A
:1056C00001F01CB801F026B8704700BF704700BF5A
:1056D000704700BF704700BF704700BF38B5064C29
:1056E000A4F1600554F8083C2046DB68183C984754
:1056F000AC42F7D138BD00BFB892FF1F2DE9F0438F
:10570000036887B004469046002B3ED000229A6082
:105710000122DA60294DDFF8A8901D442D1151F8BF
:10572000083B009305EB4506F60002A85B68984726
:1057300006F1080759F806304F443846DB689847A9
:10574000009B204A009202A949F8063038469B681F
:105750009847009B02A8DB68984723681A49C3F85A
:10576000008003229A6005F14402531103F13823AB
:1057700020796854403301209B0002F01F0200FA98
:1057800002F21A6007B0BDE8F083104AD36B43F40D
:105790000003D36300BF0E4B01221A6003F5807330
:1057A0000C4A036098680028B4D0103393422360F9
:1057B000F8D10020206007B0BDE8F083008FFCBF67
:1057C0006892FF1F1C0C010044E400E000800440CC
:1057D00000700340407103400368002B3DD02DE969
:1057E000F0471E4CDFF878901E4A1C44241104F147
:1057F0004406731104EB4404E40003F1382386B03B
:1058000060339F004FF0010A59F80430009204F110
:10581000080806F01F06144A02920AFA06F6C8445F
:105820000546DB683E6040469847009B0F4A009261
:1058300049F80430404602A99B689847009B02A89B
:10584000DB6898472A6800239360C2F80CA0C7F869
:1058500000612B6006B0BDE8F0877047008FFCBF89
:105860006892FF1FC4090100C95600001C0C01000A
:105870000448054A50F8083B01211B68C2F80C1186
:10588000184700BF6892FF1F007003400448054A94
:10589000836901211B68C2F81C112030184700BF22
:1058A0006892FF1F007003400448054A036B012102
:1058B0001B68C2F82C113830184700BF6892FF1FD0
:1058C000007003400448054A836C01211B68C2F83C
:1058D0003C115030184700BF6892FF1F0070034012
:1058E000084B0948094A0A4910B40A4C1C609860E0
:1058F0009C6118621C6398639C64186510BC00204E
:1059000002F0A8B96892FF1FC95600002087FF1F48
:10591000DD560000C409010070B5012A8AB008BF35
:105920000A22A1B34FF0210E02E05FFA86FE29465B
:10593000B1FBF2F502FB15145FFA84FC092C0CF1A3
:10594000300498BF5FFA84FC0EF1280488BF0CF184
:10595000370C6C4488BF5FFA8CFC91420EF1FF3625
:1059600004F824CCE1D24BB10EF1FF3E5FFA8EFE7B
:105970000EF128036B442D2203F8242C036801A99F
:105980005B68CEF12202714498470AB070BD3022A4
:105990008DF825204FF0210EE5E700BF0029BABFA2
:1059A00049422D2300230A22FFF7B6BF00B5036842
:1059B00083B040F60D22ADF804205B68022201A9F5
:1059C000984703B05DF804FB034B022888BF0346E9
:1059D00018461B685B681847BC87FF1F10B5174B3C
:1059E0000FCB84B0EC468CE80F00154B5A7891072A
:1059F00017D51A78124C12F0700218BF1A70802155
:105A00000023E171332223710323E272A37272B681
:105A10004CF001032046984762B6237813F07003D8
:105A200009D1084B064901E0013B02D04A78D20770
:105A3000FAD504B010BD237004B010BD2C0C0100C9
:105A400000000240410D0300B0F5006F11D210B507
:105A5000094B5B78DB07044604D504F1A054207899
:105A6000C0B210BD04F1A054FFF7B8FF2078C0B257
:105A700010BD0020704700BF00000240B0F5006F6D
:105A80001FD238B50F4B5B78DA0704460D4610D5A8
:105A900004F1A0542378AB420AD00A4A137813F0D9
:105AA000700318BF1370074A25705378DB07FCD5C5
:105AB00038BD04F1A054FFF791FF2378AB42ECD13D
:105AC000F6E770470000024008B5FDF7BBFBFDF7A5
:105AD000EBFA01F081FFFAE701B441EA000313F0A9
