:1000000000800020BD0100003DA60100F9A501000F
:10001000F9A50100F9A50100F9A50100F9A5010064
:10002000F9A50100F9A50100F9A501003DA601000F
:100030003DA60100F9A50100D9D00100DDD00100E5
:100040003DA601003DA601003DA601003DA6010020
:100050003DA601003DA601003DA601003DA6010010
:100060003DA601003DA601003DA601003DA6010000
:100070003DA601003DA601003DA601003DA60100F0
:100080003DA601003DA601003DA601003DA60100E0
:100090003DA601003DA601003DA601003DA60100D0
:1000A0003DA601003DA601003DA601003DA60100C0
:1000B0003DA601003DA601003DA601003DA60100B0
:1000C0003DA601003DA601003DA601003DA60100A0
:1000D0003DA601003DA601003DA601003DA6010090
:1000E0003DA601003DA601003DA601003DA6010080
:1000F0003DA60100E5B401003DA6010055BE01008A
:100100003DA60100C5C001003DA601003DA60100BD
:100110003DA601003DA601003DA601003DA601004F
:100120003DA601003DA601003DA601003DA601003F
:100130003DA601003DA601003DA601003DA601002F
:100140003DA601003DA601003DA601003DA601001F
:10015000D19F0100ED9F010009A0010025A0010031
:100160003DA601006DC301003DA601003DA60100B2
:100170003DA601003DA601003DA601003DA60100EF
:100180003DA601003DA601003DA601003DA60100DF
:100190003DA601003DA601003DA601003DA60100CF
:1001A0003DA601003DA601003DA601003DA60100BF
:1001B0003DA601003DA601003DA60100574B4CF2B3
:1001C000205210B5DA814DF62812DA8100BF00BF47
:1001D0001AF038FA524B4FF010621A63514A9A6380
:1001E000514ADA63514A136913F4807303D153619E
:1001F0004FF4A85313614E4B9A78110703D59A78A0
:1002000042F008029A704B4B4B482A221A704B4B13
:10021000DA1C121AC11E22F00302994288BF002282
:1002200047491AF015F9474B4748DA1C121AC11E04
:1002300022F00302994288BF0022002123F0AAFF86
:10024000424943484FF4DE721AF002F9414B424AE8
:10025000802103F8011B9342FBD14FF0E0233C4A7D
:10026000C3F8082D3D4B8A221A70A3F5805324222F
:100270005A70A0221A709A799207FCD59A79D406FE
:10028000FCD4374B9A7902F00C02082AFAD10522E5
:100290001A7143225A719A799006FCD5304A9379A3
:1002A0005906FCD51E4B4FF08171596405219964A4
:1002B00020211170917901F00C010C29FAD1294A01
:1002C0005A604FF0E023284A5A6100229A610722BF
:1002D0001A61264AC3F8202D62B61AF003FC134BAC
:1002E0005B69DA0705D522481AF0F0FB214B224A58
:1002F000DA61224B1B785B0609D51E4C1E4BE26966
:100300009A4204D11A481AF0E1FB0023E3611AF083
:100310009FF924F005F91AF093F8FEE70020054054
:1003200000800440823F04000100002B00D0034005
:1003300000D0074000E007402087FF1FC88FFF1F45
:1003400060BE020030A2FF1FC88FFF1F0000000028
:100350000082FF1F00E400E05FE400E00050064080
:1003600000400640C01005003F1901000000202099
:100370005B3AD96900E00340A5C3945A00F00740F6
:10038000FFFFFFFFFFFFFFFFFFFFFFFFFFFFFFFF7D
:10039000FFFFFFFFFFFFFFFFFFFFFFFFFFFFFFFF6D
:1003A000FFFFFFFFFFFFFFFFFFFFFFFFFFFFFFFF5D
:1003B000FFFFFFFFFFFFFFFFFFFFFFFFFFFFFFFF4D
:1003C000FFFFFFFFFFFFFFFFFFFFFFFFFFFFFFFF3D
:1003D000FFFFFFFFFFFFFFFFFFFFFFFFFFFFFFFF2D
:1003E000FFFFFFFFFFFFFFFFFFFFFFFFFFFFFFFF1D
:1003F000FFFFFFFFFFFFFFFFFFFFFFFFFFFFFFFF0D
:10040000FFFFFFFFFFFFFFFFFFFFFFFFDEF9FFFF23
:100410000548064B1B1AD90F01EBA301491002D066
:10042000034B03B118477047C88FFF1FC88FFF1FCA
:100430000000000008B5054B1BB105490548AFF3A6
:100440000080BDE80840FFF7E3BF00BF00000000E8
:10045000C88FFF1F58BE020008B51AF031FB0021FB
:1004600008BD00BF10B5012121201AF0C1FB1424E2
:10047000012121201AF088FB0A201AF015FC212006
:1004800000211AF081FB32201AF00EFC013CEFD162
:10049000BDE81040012121201AF076BBFFFFFFFFCD
:1004A0002DE9F04FD64BD749D3E9042385B0C1E9F4
:1004B0000E231AF005FB0021044614F069FC00210C
:1004C0000646204614F0F6FB00210546204614F0AF
:1004D00049FC6B1E012B98BF06F1FF3607463046DC
:1004E00098BF0C3521F02AFCC749064621F02EFDA5
:1004F0001DF0F4FEC5498146304621F027FD1DF070
:10050000EDFEC3498046304621F06CFC1DF0E6FE4E
:100510000646284621F012FC4FF07E5121F05AFB8E
:10052000BC4921F05FFC1DF0D9FE494605464FF05D
:10053000804021F04DFB414621F04CFB20F0A4FF10
:1005400080463046894620F09FFF02460B464046D3
:10055000494620F03BFE80462846894620F094FF1D
:1005600002460B464046494620F030FE804638465B
:10057000894620F077FF02460B464046494620F068
:1005800025FE8BA3D3E9002320F020FE0246174668
:10059000884620460021CDE9027814F0CDFB0021E9
:1005A0000646204614F09CFB21F0C8FB9A4921F036
:1005B000CDFC0546304621F0C1FB0146284621F01E
:1005C00009FB0021034620461C4614F09FFB21F046
:1005D000B5FB924921F0BAFC214621F0FBFA20F04C
:1005E00053FF8F4BCDE9000100223846414620F0F1
:1005F000EDFD1DF0A5FD70A3D3E9002304460D46D3
:1006000021F02AFA58B36EA3D3E9002320462946E5
:1006100020F0DAFD6CA3D3E9002321F0B7F821F034
:100620003BFA20F01FFF7F4B002206460F4620F0CA
:1006300083FF1DF085FD02460B46204629461446E1
:100640001D460022784B20F0C1FD32463B4620F08B
:10065000BDFD22462B4620F0B7FD04460D465CA3A7
:10066000D3E900232046294620F0B0FD5AA3D3E960
:10067000002304460D4620F0A7FD59A3D3E900232B
:1006800021F084F81DF05CFD55A3D3E900238246D8
:100690008B4620F051FF1DF053FD02460B462046CD
:1006A000294620F091FD50A3D3E9002306460F46CA
:1006B00021F06CF81DF044FD4BA3D3E900238046E4
:1006C000894620F039FF1DF03BFD002204460D460F
:1006D00000233046394620F079FD22462B4620F093
:1006E00073FD1DF02DFD21F0D7F9504B044600227B
:1006F0004046494621F092F9002800F0BC824A4B5E
:1007000000224046494620F05FFD21F0C5F906462B
:10071000304621F013FB4649054621F01FFD002815
:1007200000F09E8232A3D3E900235046594620F0C0
:100730004BFD21F0B1F90746731E012B05D806F1D8
:100740000C0021F0FBFA013F0546384621F0F6FA8D
:100750002D49064621F0FAFB1DF0C0FD2B498246CB
:10076000304621F0F3FB1DF0B9FD294981463046A2
:1007700021F038FB1DF0B2FD4FF07E518046284637
:1007800021F028FA234921F02DFB1DF0A7FD1AA323
:10079000D3E900230546DDE9020120F015FD254BD4
:1007A00006460F460022DDE9000145E0AFF3008078
:1007B00000000080A2423A41000000008C8A4141C2
:1007C00000000040D07D3C410000000088D5E140A1
:1007D0000000000000D097400000006066865E4088
:1007E0000000000000D4764000000020A0993E40A8
:1007F00000000000006CB240000000802CB44241B8
:10080000F891FF1F5891FF1F0000C8420000C84325
:1008100000A0B64301CDF4410000704200006145E4
:100820000000E03F0000D03F0000F03F00002B4000
:10083000000020400000384020F0A8FF02460B4690
:100840003046394620F0C2FC02460B46CDE9022371
:10085000D1A3D3E9002320F099FF02460B464FF0C5
:10086000804051469B46924621F0B2F9494621F01C
:10087000B1F920F009FE064640460F4620F004FE7E
:1008800002460B463046394620F0A0FC0646284674
:100890000F4620F0F9FD02460B463046394620F05F
:1008A00095FC064620460F4620F0DCFD02460B462E
:1008B0003046394620F08AFCB9A3D3E9002320F062
:1008C00085FCB9A3D3E9002320F07EFCB8A3D3E9CB
:1008D000002320F031FEB8A3D3E9002320F076FCFA
:1008E000CD4B00228046894621F0ACF878B1CA4D44
:1008F000002422462B464046494620F065FC22460D
:100900002B468046894621F09DF80028F1D100222F
:1009100000234046494621F081F888B1BE4F0026A9
:10092000002400254046494632463B4620F04EFC16
:1009300022462B468046894621F070F80028F1D1E6
:100940009FA3D3E90023DDE9000120F0F5FD424635
:100950004B4620F03BFC9CA3D3E9002304460D4604
:100960005046594620F0E8FD52465B4620F0E4FD33
:1009700002460B462046294620F028FCA64B0022C2
:1009800004460D4621F05EF878B1A34F00263246AA
:100990003B462046294620F017FC32463B4604469B
:1009A0000D4621F04FF80028F1D100220023204607
:1009B000294621F033F898B1974F00264FF00008F0
:1009C0004FF0000932463B462046294620F0FEFB08
:1009D00042464B4604460D4621F020F80028F1D14E
:1009E000DDE902AB7AA3D3E900235046594620F053
:1009F000A3FD02460B4678A1D1E9000120F0E4FBFB
:100A000077A3D3E9002320F0C1FE1DF0AFF876A351
:100A1000D3E9002306460F465046594620F08CFD88
:100A200073A3D3E9002320F0D1FB02460B4620F04C
:100A3000CDFB6BA3D3E9002320F0A8FE1DF096F8B0
:100A40006DA3D3E90023804689465046594620F0DD
:100A500073FD02460B466AA1D1E9000120F0B4FB08
:100A60005FA3D3E9002320F091FE1CF0F3FF66A3FF
:100A7000D3E9002382468B463046394620F05CFDA0
:100A800063A3D3E9002306460F464046494620F0BB
:100A900053FD02460B463046394620F095FB524640
:100AA0005B4620F049FD22462B4620F08FFB5A4B37
:100AB00000228046894620F0C5FF78B1564D0024BB
:100AC00022462B464046494620F07EFB22462B46D6
:100AD0008046894620F0B6FF0028F1D1002200238D
:100AE0004046494620F09AFF88B14B4F002600242B
:100AF000002532463B464046494620F067FB2246E9
:100B00002B468046894620F089FF0028F1D14349D1
:100B1000434B0022D1E90E0120F038FE02460B467D
:100B20004046494620F050FB3B4B00228046894618
:100B300020F088FF78B1384D002422462B464046ED
:100B4000494620F041FB22462B468046894620F04C
:100B500079FF0028F1D1002200234046494620F0C9
:100B60005DFF88B12C4F00260024002532463B460D
:100B70004046494620F02AFB22462B4680468946BD
:100B800020F04CFF0028F1D1234B0022404649467B
:100B900020F0FCFD46E000BF00000000A0D5E140D1
:100BA00000000080A2423A41000000802CB4424183
:100BB000000000E05BD2B03F000000801CCA1A4079
:100BC000000000E0360BF03F000000605243FB3EA7
:100BD00000000060C91CAB3F000000608F425F4016
:100BE00000000020DCA54C40000000E0718AEF3FCF
:100BF0000000002085877140000000A0F2D79A3ED7
:100C00000000000076703740000000A0EEE734BF1F
:100C100000000080732AF93E000038405891FF1F01
:100C200000002E401CA3D3E9002320F085FC20F017
:100C300033FF72B61C49086062B672B60A680B6868
:100C4000C1E9042362B619480DF07AFFE8B11748EC
:100C50000DF0C8FF0A2005B0BDE8F04F1AF024B827
:100C60000FA3D3E900235046594620F0ADFA20F0F7
:100C700013FF074660E50E4B00224046494620F030
:100C8000A3FA20F009FF064642E508480DF070FF80
:100C9000DDE700BFAFF3008000000000C07A6041D4
:100CA00000000000006BB2405891FF1F4092FF1FF0
:100CB00000002A4070B50C4682B072B62F4A116807
:100CC00062B61369CB1A002B26DC2D4E2D4D19F080
:100CD000CBFF2D4B9A68D9681860821A8A42C8BF28
:100CE000DA605A60326801929860019AD5F8A833A8
:100CF00042F20F71D31A8B4294BF0121002121705F
:100D000004D902F51C521032C5F8A8231D4802B0C0
:100D1000BDE8704012F00EB9D06811611844D0607F
:100D200091688B42C8BF9360012B03D05068591E55
:100D30000144516012681548114E80FB0250D117D2
:100D4000C1EB6011642000FB11210E4D326800924E
:100D50000098D5F8A82342F20F7C821A624594BF0E
:100D600001220022227004D900F51C501030C5F871
:100D7000A803044812F0D8F9A9E700BF5891FF1F53
:100D80002C9CFF1F4092FF1FE88FFF1F1F85EB5118
:100D9000F8B5224E224D3778044601F07BF903F076
:100DA000BBFC95F878339F4205D0212128460DF0F1
:100DB000ABFF95F878331A48337011F065FB10B922
:100DC00095F87834FBB9164811F064FB28B1204639
:100DD0001449BDE8F840FFF76DBF134B134A19687B
:100DE000134BA0F1333000FB0133B2EB730F0C480F
:100DF00094BF0121002112F0CBFA20460949BDE839
:100E0000F840FFF757BF06480DF07AFE044812F08D
:100E1000C7FC03480DF078FED5E700BFE18FFF1F48
:100E20004092FF1FE08FFF1F5891FF1F999999195A
:100E30009899991908B519F08DFABDE8084019F08C
:100E400089BA00BF38B51A20124C134D1AF0C6FDEE
:100E500000211F201AF084FD20464DF6C02118F015
:100E60002BFF0A23A3600D4804211AF0A3FE1AF0F9
:100E700029FFFA2019F018FF012406E01AF05AFFA2
:100E8000C0B23F2808BF85F837401AF03FFF00285E
:100E9000F4DC38BDB887FF1F4092FF1F10AA020084
:100EA0002DE9F8431B4D1C4C2E681C4FDFF8709049
:100EB00040F2EE281CF028F82378EBB13B78DB07F2
:100EC0001AD52B68D9F800209B1A0E2B14D90122B1
:100ED0001449154801F0B8F914484FF4614118F06D
:100EE00079FE12491248022201F0AEF9BDE8F8433A
:100EF0000021212019F048BE2B6822789B1B2AB1C3
:100F0000B3F5FA6FE3D81BF0FFFFD3E74345FAD9F7
:100F1000DDE700BF2C9CFF1FC89EFF1FEC9EFF1F3C
:100F2000F09EFF1F0C88FF1F4490FF1FA487FF1F28
:100F30002090FF1F70B5234C0546FFF793FA0DF084
:100F400035FA20460DF04CFE1F4814F0B9F8002683
:100F50000021012014F0C2F819F0B2FD314614F05E
:100F60008DF820460DF0C8FD20460DF0CBFE314631
:100F700004F5A9600DF00EFF204610F069FB204635
:100F80000DF092FE2846FFF78BFA72B60F4B1968E8
:100F90001A68C3E9041262B64FF4FA6019F084FECD
:100FA0001BF07CF8B042D8BF00232846C8BF0123FD
:100FB00084F83830FFF746FF2846BDE87040FFF759
:100FC0006FBF00BF4092FF1F590400005891FF1FE0
:100FD00038B50378062B04464ED03A2B4AD14378D5
:100FE000243B442B46D8DFE813F0080145004500B8
:100FF00045004500450045004500450045004500C9
:1010000045004500450045004500450045004500B8
:1010100045004500450045004500450045004500A8
:10102000450045000001C500B500E100CE00EA0022
:10103000AC00450045004500450045009D004500C9
:101040004500450094008B00820072006900450055
:101050005F0045004500450045004500450045004E
:101060004500450045004500450045004500450058
:1010700056004D00042038BD4378002B14BF0420D7
:10108000012038BD81786A4823F0D6F800280CBFCB
:101090000420022038BD8178664823F0CDF800286E
:1010A0000CBF0420022038BD84786348214623F019
:1010B000C3F8002800F0AF80002038BD81785F4879
:1010C00023F0BAF8B0FA80F04009800038BD847887
:1010D0005B48214623F0B0F80028EDD1594821465D
:1010E00023F0AAF800280CBF0420022038BD817824
:1010F000554823F0A1F800280CBF0420022038BD79
:101100008178524823F098F8B0FA80F040098000C6
:1011100038BD81784E4823F08FF8B0FA80F040094E
:10112000800038BD84784B48214623F085F800289C
:10113000C2D14948214623F07FF8002876D001200B
:1011400038BD8178454823F077F800280CBF04208B
:10115000032038BD84784248214623F06DF80028EA
:1011600055D121463F4823F067F8B0FA80F0400996
:10117000800038BD81783C4823F05EF8B0FA80F0FA
:101180004009800038BD85783848294623F054F856
:1011900000283CD14D2D40D0572D7FF46BAFE37824
:1011A000303B012B8CBF0420022038BD81782348BE
:1011B00023F042F800280CBF0420032038BD8478B7
:1011C0002B48214623F038F800287FF475AF2948D2
:1011D000214623F031F8E0B92748214623F02CF8C6
:1011E00000280CBF0420032038BD84782348214602
:1011F00023F022F868B92248EFE784782148214695
:1012000023F01AF800287FF457AF1F4867E7032040
:1012100038BD022038BD1D48DFE7E1781C4823F0C7
:101220000BF800280CBF0420012038BD194856E7F0
:101230008CAA020068AA0200E8AA0200CCAB020055
:10124000D8AA0200E0AA0200C0AA0200B4AA0200C2
:10125000ACAA020098AA0200A0AA02006CAA02008E
:1012600030AA020094AA02002CAA020034AA0200AA
:1012700040AA02004CAA020060AA020018AA0200BA
:1012800028AA020048AA0200F0AA0200A4AA0200AA
:1012900038AA0200A8AA0200002800F00B8510B5A9
:1012A00003783A2B044640F0F484FFF791FE0028BF
:1012B00000F0DC84431EDBB2012B40F2D88403280B
:1012C00040F0EF84C549204623F05EF9002800F085
:1012D000D084C349204623F057F9002800F0CB847E
:1012E000C049204623F050F9002800F0C684BE49CA
:1012F000204623F049F9002800F0C184BB4920466C
:1013000023F042F9002800F0BE84B949204623F0BA
:101310003BF9002800F0B984B649204623F034F99F
:10132000002800F0B484B449204623F02DF90028A9
:1013300000F0B284B149204623F026F9002800F0DD
:10134000AD84AF49204623F01FF9002800F09984AE
:10135000AC49204623F018F9002800F0A584AA49DA
:10136000204623F011F9002800F0A084A749204668
:1013700023F00AF9002800F09B84A549204623F0B9
:1013800003F9002800F09984A249204623F0FCF8D4
:10139000002800F09484A049204623F0F5F80028A6
:1013A00000F08F849D49204623F0EEF8002800F0DD
:1013B0008A849B49204623F0E7F8002800F08584C2
:1013C0009849204623F0E0F8002800F080849649F0
:1013D000204623F0D9F8002800F07B84934920466A
:1013E00023F0D2F8002800F076849149204623F0BB
:1013F000CBF8002800F071848E49204623F0C4F811
:10140000002800F06C848C49204623F0BDF80028A9
:1014100000F067848949204623F0B6F8002800F0E0
:1014200062848749204623F0AFF8002800F05D84ED
:101430008449204623F0A8F8002800F05884824907
:10144000204623F0A1F8002800F053847F4920466D
:1014500023F09AF8002800F050847D49204623F0BC
:1014600093F8002800F047847A49204623F08CF84E
:10147000002800F046847849204623F085F80028AB
:1014800000F03D847549204623F07EF8002800F0E6
:101490003E847349204623F077F8002800F0358415
:1014A0007049204623F070F8002800F088846E49C7
:1014B000204623F069F8002800F07F846B4920461D
:1014C00023F062F8002800F076846949204623F072
:1014D0005BF8002800F06D846649204623F054F83C
:1014E000002800F064846449204623F04DF8002869
:1014F00000F05B846149204623F046F8002800F0A4
:1015000052845F49204623F03FF8002800F04984C8
:101510005C49204623F038F8002800F040845A49FE
:10152000204623F031F8002800F037845749204640
:1015300023F02AF8002800F02E845549204623F095
:1015400023F8002800F025845249204623F01CF897
:10155000002800F01C845049204623F015F800288C
:1015600000F013844D49204623F00EF8002800F0C7
:101570000A844B49204623F007F8002800F0018434
:101580004849204623F000F8002800F0F883464937
:10159000204622F0F9FF002800F0EF83434920465F
:1015A00022F0F2FF002800F0E6834149204622F0B5
:1015B000EBFF002800F0DD833E49204622F0E4FFE7
:1015C000002800F0D4833C49204622F0DDFF0028AB
:1015D00000F0CB833949204672E000BFF4AA020034
:1015E000FCAA020004AB02000CAB020014AB020028
:1015F0001CAB020020AB020010AA020028AB0200C4
:1016000030AB020038AB020040AB020048AB020036
:1016100050AB020058AB020060AB020068AB0200A6
:1016200070AB020078AB020080AB020088AB020016
:1016300090AB020098AB0200A0AB0200A8AB020086
:10164000B0AB0200B8AB0200C0AB0200C8AB0200F6
:10165000D0AB0200D8AB0200E0AB0200E8AB020066
:10166000F0AB0200F8AB020000AC020008AC0200D4
:1016700010AC020018AC020020AC020028AC020042
:1016800030AC020038AC020040AC020048AC0200B2
:1016900050AC020058AC020060AC020068AC020022
:1016A00070AC020078AC020080AC020088AC020092
:1016B00090AC020098AC0200A0AC0200A8AC020002
:1016C00022F062FF002800F04E83C549204622F038
:1016D0005BFF002800F04583C249204622F054FFFA
:1016E000002800F03C83C049204622F04DFF00282E
:1016F00000F03383BD49204622F046FF002800F069
:101700002A83BB49204622F03FFF002800F02183B6
:10171000B849204622F038FF002800F01883B64967
:10172000204622F031FF002800F00F83B349204605
:1017300022F02AFF002800F00683B149204622F05B
:1017400023FF002800F0FD82AE49204622F01CFF56
:10175000002800F0F183AC49204622F015FF002854
:1017600000F0E883A949204622F00EFF002800F08F
:10177000DF83A749204622F007FF002800F0D68328
:10178000A449204622F000FF002800F0CD83A249A2
:10179000204622F0F9FE002800F0C4839F4920462D
:1017A00022F0F2FE002800F0BB839D49204622F083
:1017B000EBFE002800F0B2839A49204622F0E4FEB6
:1017C000002800F0A9839849204622F0DDFE002879
:1017D00000F0A0839549204622F0D6FE002800F0B4
:1017E00097839349204622F0CFFE002800F08E8395
:1017F0009049204622F0C8FE002800F085838E49DB
:10180000204622F0C1FE002800F07C838B49204650
:1018100022F0BAFE002800F073838949204622F0A6
:10182000B3FE002800F06A838649204622F0ACFE11
:10183000002800F061838449204622F0A5FE00289C
:1018400000F058838149204622F09EFE002800F0D7
:101850004F837F49204622F097FE002800F0468300
:101860007C49204622F090FE002800F03D837A4912
:10187000204622F089FE002800F034837749204674
:1018800022F082FE002800F02B837549204622F0CA
:101890007BFE002800F022837249204622F074FE6D
:1018A000002800F019837049204622F06DFE0028C0
:1018B00000F010836D49204622F066FE002800F0FB
:1018C00007836B49204622F05FFE002800F0FE826D
:1018D0006849204622F058FE002800F0F58266494B
:1018E000204622F051FE002800F0EC826349204699
:1018F00022F04AFE002800F0E3826149204622F0EF
:1019000043FE002800F0DA825E49204622F03CFEC9
:10191000002800F0D1825C49204622F035FE0028E4
:1019200000F08B825949204622F02EFE002800F05C
:1019300082825749204622F027FE002800F0798253
:101940005449204622F020FE002800F070825249BF
:10195000204622F019FE002800F067824F492046F9
:1019600022F012FE002800F05E824D49204622F04F
:101970000BFE002800F055824A49204622F004FE62
:10198000002800F04C824849204622F0FDFD002846
:1019900000F043824549204622F0F6FD002800F081
:1019A0003A824349204622F0EFFD002800F03182C0
:1019B0004049204622F0E8FD002800F028823E49F8
:1019C000204622F0E1FD002800F01F823B4920461E
:1019D00022F0DAFD002800F016823949204671E035
:1019E000B0AC0200B8AC0200C0AC0200C8AC02004F
:1019F000D0AC0200D8AC0200E0AC0200E8AC0200BF
:101A0000F0AC0200F8AC020000AD020008AD02002C
:101A100010AD020018AD020020AD020028AD02009A
:101A200030AD020038AD020040AD020048AD02000A
:101A300050AD020058AD020060AD020068AD02007A
:101A400070AD020078AD020080AD020088AD0200EA
:101A500090AD020098AD0200A0AD0200A8AD02005A
:101A6000B0AD0200B8AD0200C0AD0200C8AD0200CA
:101A7000D0AD0200D8AD0200E0AD0200E8AD02003A
:101A8000F0AD0200F8AD020000AE020008AE0200A8
:101A900010AE020018AE020020AE020028AE020016
:101AA00030AE020038AE020040AE020048AE020086
:101AB00050AE020058AE020060AE020068AE0200F6
:101AC00070AE020022F060FD002800F09A81DC492F
:101AD000204622F059FD002800F09181D949204686
:101AE00022F052FD002800F08881D749204622F0DC
:101AF0004BFD002800F07F81D449204622F044FDB0
:101B0000002800F07681D249204622F03DFD0028D1
:101B100000F06D81CF49204622F036FD002800F00C
:101B20006481CD49204622F02FFD002800F05B8122
:101B3000CA49204622F028FD002800F05281C849F9
:101B4000204622F021FD002800F04981C5492046A9
:101B500022F01AFD002800F04081C349204622F0FF
:101B600013FD002800F03781C049204622F00CFD0B
:101B7000002800F02E81BE49204622F005FD0028F5
:101B800000F02581BB49204622F0FEFC002800F031
:101B90001C81B949204622F0F7FC002800F013818F
:101BA000B649204622F0F0FC002800F00A81B44932
:101BB000204622F0E9FC002800F0C180B14920460F
:101BC00022F0E2FC002800F0B880AF49204622F065
:101BD000DBFC002800F0AF80AC49204622F0D4FCAA
:101BE000002800F0A680AA49204622F0CDFC00285B
:101BF00000F09D80A749204622F0C6FC002800F096
:101C00009480A549204622F0BFFC002800F08B807C
:101C1000A249204622F0B8FC002800F08280A049AA
:101C2000204622F0B1FC002879D09E49204622F0BF
:101C3000ABFC002871D09C49204622F0A5FC00286E
:101C400069D09A49204622F09FFC002861D098492B
:101C5000204622F099FC002855D09649204622F0D3
:101C600093FC00280CBF04204FF0FF3010BD012072
:101C700010BD102010BD042010BD042010BD042094
:101C800010BD202010BD042010BD042010BD102068
:101C900010BD4FF0FF3010BD202010BD4FF48070FC
:101CA00010BD4FF0FF3010BD102010BD802010BDC2
:101CB000102010BD4FF0FF307047102010BD1020D5
:101CC00010BD082010BD102010BD102010BD082030
:101CD00010BD082010BD102010BD102010BD102018
:101CE00010BD082010BD102010BD082010BD102010
:101CF00010BD102010BD102010BD042010BD2020EC
:101D000010BD102010BD102010BD042010BD1020EB
:101D100010BD102010BD082010BD082010BD1020DF
:101D200010BD042010BD082010BD102010BD1020D3
:101D300010BD082010BD102010BD102010BD0420C3
:101D400010BD102010BD102010BD082010BD1020A7
:101D500010BD102010BD102010BD102010BD10208F
:101D600010BD102010BD102010BD102010BD10207F
:101D700010BD102010BD102010BD102010BD10206F
:101D800010BD102010BD802010BD102010BD1020EF
:101D900010BD102010BD882010BD102010BD1020D7
:101DA00010BD102010BD102010BD102010BD10203F
:101DB00010BD102010BD102010BD102010BD04203B
:101DC00010BD082010BD102010BD042010BD04203F
:101DD00010BD042010BD082010BD082010BD10202B
:101DE00010BD082010BD082010BD102010BD10200F
:101DF00010BD102010BD102010BD082010BD042003
:101E000010BD102010BD102010BD102010BD1020DE
:101E100010BD102010BD102010BD082010BD0820DE
:101E200010BD102010BD102010BD102010BD0820C6
:101E300010BD082010BD082010BD082010BD00BF37
:101E400078AE020080AE020088AE020090AE0200C2
:101E500098AE0200A0AE0200A8AE0200B0AE020032
:101E6000B8AE0200C0AE0200C8AE0200D0AE0200A2
:101E7000D8AE0200E0AE0200E8AE0200F0AE020012
:101E8000F8AE020000AF020008AF020010AF02007F
:101E900018AF020020AF020028AF020030AF0200EE
:101EA00038AF020040AF020048AF020050AF02005E
:101EB00058AF020060AF0200082010BD082010BD1E
:101EC000042010BD042010BD082010BD082010BD46
:101ED000082010BD082010BD082010BD082010BD2E
:101EE000102010BD102010BD082010BD082010BD0E
:101EF000082010BD082010BD102010BD102010BDFE
:101F0000082010BD082010BD082010BD102010BDF5
:101F1000102010BD102010BD102010BD082010BDD5
:101F2000102010BD102010BD042010BD102010BDC9
:101F3000102010BD102010BD102010BDF8B51D4E92
:101F400004461D2700253A4631462E3018F080FA07
:101F50003A463146E564A4F8505004F1520018F0B6
:101F600077FA4FF4E13323604FF4164301214DF625
:101F70007C52A3604FF4964384F85E1162604FF484
:101F8000E1414FF4615223614FF41653E160626105
:101F90004FF49651A3614FF416624FF4966384F8A0
:101FA000705084F84251A585E16122626362A562A6
:101FB0002046F8BD68AF0200024B3122A3F8702022
:101FC000704700BFF88FFF1F044B054A1B68A2F83B
:101FD00070301B0C82F87230704700BF0CAC0200EE
:101FE000F88FFF1F024B3022A3F87020704700BF0C
:101FF000F88FFF1F044B054A1B68A2F870301B0CBA
:1020000082F87230704700BF04AC0200F88FFF1FE7
:10201000024B2322A3F87020704700BFF88FFF1FE8
:10202000044B18B13122A3F8702070473022A3F876
:1020300070207047F88FFF1F024B002283F870203A
:10204000704700BFF88FFF1F70B5114E2321304637
:1020500022F0F2F858B1044606F1D200FFF71CF95D
:10206000002804DDA41B844201DAD02800DD70BD05
:10207000051B621C3146701922F010F8002DF6DDA8
:102080002A4630462021BDE8704022F083B800BFC8
:102090006890FF1F30B55A4C83B004F14C00002506
:1020A0008DF8075000F0D4F804F1280000F0D0F8C3
:1020B00004F5A17104F128000DF1070200F02EF9DA
:1020C0000DF1070204F5A17104F14C0000F026F9AE
:1020D0009DF80730002B57D0D222294604F170001A
:1020E00022F058F894F84231063B622B48D8DFE8DA
:1020F00003F08347474747474747474747474747CF
:10210000474747474747474747474747474747475F
:102110008047474747474747474747474747474716
:10212000474747474747474747474747477D7A77A6
:1021300074716E6B47474747476847474765625D1D
:102140005A574754474747474747474747474747EF
:102150004747475132000AF08FFB94F870307BB14B
:10216000FFF772FF27499DF80720A1F1240000F036
:10217000E9F824499DF80720A1F1480000F0E2F8B1
:10218000214B93F840350BB903B030BD11F09EFEE2
:1021900003B030BD02F048FEDFE709F0FDFEDCE7EA
:1021A00009F00AFDD9E708F047FED6E70DF1070070
:1021B00005F00AFFD1E705F029FBCEE705F0C8FAE4
:1021C000CBE704F0A5FEC8E701F046FAC5E701F049
:1021D0003DF9C2E700F00CFEBFE700F0DBFDBCE715
:1021E00000F082FBB9E700F069FBB6E700F0C8F841
:1021F000B3E70AF009FBB0E700F03AFBADE700BF38
:10220000F88FFF1F6890FF1F4092FF1F08B518F05E
:10221000A1F818F09FF80A48FFF790FE094B00223A
:10222000002000211A60C3E908015A60C3E90A01CD
:102230009A60C3E90C011A615A61DA6008BD00BFF7
:10224000F88FFF1F5891FF1F01600271704700BF98
:102250002DE9F041304E0446002500F107082068C2
:1022600003681B69984700282CDD677957BB2068F5
:1022700003685B699847C0B206281CD0831FDBB295
:102280001A2B21D826FA03F3DB0712D494F8222064
:10229000531CDBB22244E1181B2B90718F7136D88E
:1022A000232884F8223004D1012B1CD884F8225032
:1022B000A5716771D3E794F82230002BF9D101237F
:1022C0006371E080BDE8F08194F82220531C224421
:1022D000DBB29071E2181B2B9771E1D91B232328E5
:1022E00084F82230E5D1A2793A2ADFD1013B234498
:1022F0009A79232ADAD19D71404622F021FB0127E9
:10230000421C4146A01D21F0C9FE6771A7E71B23AF
:1023100084F822306771A2E791000004437983B109
:1023200070B51678154606B170BD04460846A11D65
:1023300022F094FA237984F82260A67166712B70DA
:1023400070BD70470379934200D0704770B5046840
:102350000D4651B1084622F0F3FA23680246294699
:1023600020465B68BDE87040184770BD08B517F09F
:10237000F1FFBDE8084017F0EDBF00BFFFFFFFFF12
:102380002DE9F04F784D95F843312A3BBBB02D2B0A
:102390002FD8DFE813F0FB002E002E002E002E00B9
:1023A0002E009C0133003300330033003300330030
:1023B0003300330033002E002E002E002E002E009E
:1023C0002E002E00CB00B901CB002E00DE012E0026
:1023D0002E002E002E002E002E002E002E002E008D
:1023E0002E002E002E002E002E002E002E002E007D
:1023F000FE013BB0BDE8F04FFFF71EBE72B65B4B6F
:10240000186862B65A4B984205DDA0F50300A0F5A6
:1024100056409842F9DC1FF091FC5649564C1FF08B
:1024200095FD56491FF0DEFC1FF02EF8544B00229C
:102430001FF082F8D4E9D8231EF0C6FE15F0D0FBB9
:10244000504BD3E9026746A3D3E900231FF074F889
:10245000CDE9020142A3D3E90023D4E9D6011FF05C
:102460006BF80022CDE90001002314A814F0C0FC91
:1024700021460EA80CF094FB39A3D3E90023304683
:1024800039461FF059F80DF1380C80468946BCE8F2
:102490000F00EE46AEE80F009CE803004B468EE8C6
:1024A0000300424614A92CA814F0F2FC94F8183347
:1024B000002B00F07881304920A80DF0F9F92CA804
:1024C00014F072FE80462CA8894614F059FE20AB09
:1024D000CDE90601184614F00BFF20AB82461846E2
:1024E0008B4614F0FBFEDDE90623CDE90401CDE9BE
:1024F0000023CDE902AB4B462348424617F0E8FAE9
:1025000094F81933002B40F05F8195F843312F3B4D
:102510000122DBB2002184F82B2384F82C3384F8C9
:102520003610FFF749FD3BB0BDE8F08F124C01209B
:102530000AF04AFB20460CF01BFB95F84331A3F14F
:102540004103B3FA83F300225B0984F82A3384F849
:102550002B2384F82C233BB0BDE8F04FFFF72CBDB4
:10256000000000A046DF913FF88FFF1F5891FF1F2A
:1025700000D6830000D6034B4092FF1F0000C041ED
:1025800000002E40F891FF1F8893FF1FAA4C0120E6
:102590000AF01AFB04F5A96001210CF0FBFB0A20EC
:1025A00018F082FB94F87834002B40F00981A2489F
:1025B0000FF07CFF94F8403307461BB1002284F8EB
:1025C00040231F4672B69D4B186862B69C4B9842DA
:1025D00005DDA0F50300A0F556409842F9DC1FF098
:1025E000ADFB98491FF0B2FC97491FF0FBFB1EF0B2
:1025F0004BFF964B00221EF09FFFD4E9D8231EF01C
:10260000E3FD15F0EDFA924BD3E9028982A3D3E9F9
:1026100000231EF091FFCDE902017FA3D3E900233F
:10262000D4E9D6011EF088FF0022CDE90001002385
:1026300014A814F0DDFB08A87F490CF0B1FA76A3CA
:10264000D3E90023404649461EF076FF08AD804698
:1026500089460FCD6E460FC695E803004B4686E8C7
:102660000300424614A92CA814F012FC3A462CA9E7
:1026700071480CF0BDFF20A86F490DF019F92CA886
:1026800014F092FD82462CA88B4614F079FD064684
:1026900020A80F4614F02CFE804620A8894614F08E
:1026A0001DFE5246CDE904015B466A48CDE9028928
:1026B000CDE9006717F00CFA0122022384F82B23DE
:1026C00084F82C33FFF778FC3BB0BDE8F08F5A4C10
:1026D00001200AF079FA20460CF04AFA012104F5AB
:1026E000A9600CF057FB0A2018F0DEFA94F8783451
:1026F000002B61D1012384F82B33A4F82C333BB099
:10270000BDE8F04FFFF758BC00231A461946059361
:10271000049303930293019300934E4816F02AFF0B
:10272000454B002400260027C3E9C86783F81943F6
:10273000A3F82C43C42083F8284383F82B430AF0E2
:10274000F7F9214617F056FE3BB0BDE8F04FFFF712
:1027500033BC394991F8193313B331A3D3E90023BA
:10276000D1E9C8011EF0E8FE3B4C0123CDE92C0164
:1027700000932CA90022204615F0C2F8204622F032
:10278000DFF83649022220443BB0BDE8F04F17F095
:102790005FBE0AF031FD3BB0BDE8F04FFFF70CBC67
:1027A00000200021E0E720460FF080FE2CA9024621
:1027B00020460CF01DFF7EE6204610F0D5FF99E77D
:1027C000204610F0D1FFF2E6224817F061F8A37D11
:1027D000012B12D0002200231E4816F0FDFF1648E0
:1027E0000FF064FE2CA9024613480CF001FF0123F0
:1027F000002284F8283313468CE6304639460022FE
:1028000000231FF01FF918B107A3D3E90023E3E762
:1028100007A3D3E90023DFE7000000A046DF913FD4
:1028200000000020DCA54C4000000060FB21F93FC7
:1028300000000060FB21F9BF4092FF1F5891FF1F6D
:1028400000D6830000D6034B0000C04100002E409C
:10285000F891FF1F8893FF1F6890FF1FCCAB020009
:1028600008B517F077FDBDE8084017F073BD00BF4D
:102870000C4B9B7D022B0DD005D8012B0ED10A4BA2
:1028800047221A807047033B012B07D8064B412291
:102890001A807047044B50221A807047024B4C221A
:1028A0001A8070474092FF1F6890FF1F08B517F00D
:1028B00051FDBDE8084017F04DBD00BF044B93F833
:1028C00043312B2B02D02D2B00D07047FFF7B4BB28
:1028D000F88FFF1F08B517F03DFDBDE8084017F061
:1028E00039BD00BFFFFFFFFF2DE9F04FBC4CB3B077
:1028F00020460FF0BFFD10B133B0BDE8F08F204689
:102900000FF0C8FD0028F7D1B64D95F84331412BA3
:1029100009D04D3BDBB2082BEED840F2411222FA2F
:1029200003F3DB07E8D5AE480FF0C0FD94F8403361
:1029300080461BB1002284F84023984695F8433125
:10294000413B142BD8D801A252F823F00D2C0000E3
:10295000F9280000F9280000F9280000F9280000F3
:10296000F9280000F9280000F9280000F9280000E3
:10297000F9280000F9280000F9280000A12900002A
:10298000F9280000F9280000F9280000F9280000C3
:10299000F9280000A1290000F9280000C12A000040
:1029A00094F82A33002B00F0508172B68E4B1868D1
:1029B00062B68E4B984205DDA0F50300A0F55640A7
:1029C0009842F9DC1FF0BAF989491FF0BFFA89492A
:1029D0001FF008FA1EF058FD874B00221EF0ACFDD8
:1029E000D4E9D8231EF0F0FB15F0FAF87AA3D3E966
:1029F00000231EF0A1FD78A3D3E90023CDE9020155
:102A0000D4E9D6011EF098FD0022CDE90001002393
:102A10000CA814F0EDF979496FA3D3E90023D1E9AB
:102A200002011EF089FD06460F4606A86C490CF00F
:102A3000B7F80DF1180CBCE80F00EE46AEE80F0039
:102A40009CE803003B468EE8030032460CA924A80C
:102A500014F01EFA94F81833002B00F05D816049E1
:102A600018A80CF025FF24A814F09EFB064624A805
:102A70000F4614F085FB824618A88B4614F038FCEC
:102A8000804618A8894614F029FC3B46CDE904018C
:102A9000CDE90289CDE900AB5948324617F018F864
:102AA00094F81933002B40F01D8195F843314D2BDC
:102AB00000F011814A4833B0BDE8F04F10F054BE29
:102AC0000E200AF035F8064617F07AFC002560F370
:102AD0000705701C17F074FC60F30F25B01C17F08D
:102AE0006FFC0346F01C63F3174517F069FC60F3B5
:102AF0001F6528461EF0C8FC02460B461220C4E99A
:102B0000D8230AF015F8064617F05AFC002560F3A2
:102B10000705701C17F054FC60F30F25B01C17F06C
:102B20004FFC0346F01C63F3174517F049FC60F3B4
:102B30001F6528461EF0A8FCC4E9D60172B62A4BD0
:102B4000186862B6294B984205DDA0F50300A0F590
:102B500056409842F9DC1FF0F1F825491FF0F6F9CC
:102B600024491FF03FF91EF08FFC234B00221EF07A
:102B7000E3FCD4E9D8231EF027FB15F031F816A3A7
:102B8000D3E900231EF0D8FC13A3D3E90023CDE939
:102B90000201D4E9D6011EF0CFFC0022CDE90001EC
:102BA000002324A814F024F914490BA3D3E900232B
:102BB000D1E902011EF0C0FC4246CDE900010848FF
:102BC00024A90CF0F1FC0F4A0F4B92E803001860A7
:102BD000197191E6AFF30080000000A046DF913F3D
:102BE0004092FF1FF88FFF1F5891FF1F00D68300F0
:102BF00000D6034B0000C04100002E40F891FF1F9B
:102C00008893FF1F88AF02006890FF1F0121049185
:102C10004DA3D3E90023D4E9D4011EF08DFC4AA3CF
:102C2000D3E90023CDE90201D4E9D2011EF084FCEE
:102C30000022CDE90001002324A814F0E9F942465E
:102C400024A947480CF0D4FCBDE772B6454B186880
:102C500062B6454A904205DDA0F50300A0F5564056
:102C60009042F9DC1FF06AF840491FF06FF94049C3
:102C70001FF0B8F81EF008FC3E4B00221EF05CFC72
:102C8000D4E9D8231EF0A0FA14F0AAFF2EA3D3E9AA
:102C900000231EF051FC2CA3D3E90023CDE902014F
:102CA000D4E9D6011EF048FC0022CDE90001002342
:102CB00024A814F09DF8304923A3D3E90023D1E9D7
:102CC00002011EF039FC4246CDE9000124A9244846
:102CD0000CF06AFCE9E6294B93E80300286785F8C5
:102CE0007410E7E6264816F0D3FDA37D012B19D01A
:102CF00000220023224816F06FFD19480FF0D6FB82
:102D000024A9024616480CF073FC0122002384F823
:102D1000282384F82A33C8E6424624A910480CF038
:102D200067FC9CE6144B0022D3E9020100231EF04D
:102D300089FE18B106A3D3E90023DBE706A3D3E994
:102D40000023D7E7AFF30080000000A046DF913FEB
:102D500000000060FB21F93F00000060FB21F9BF8B
:102D60004092FF1F5891FF1F00D6830000D6034BEF
:102D70000000C04100002E40F891FF1F88AF020004
:102D80008893FF1F08B517F0E5FABDE8084017F073
:102D9000E1BA00BF10B50D4C94F8433103B110BD3A
:102DA0000B480FF071FB68B17F23A4F87030094C19
:102DB000204621F0C5FD084920440222BDE810400C
:102DC00017F046BB84F87000F1E700BFF88FFF1FD3
:102DD0004092FF1F6890FF1FCCAB020008B517F0B0
:102DE000B9FABDE8084017F0B5BA00BFFFFFFFFF12
:102DF0002DE9F041B04A92F84331413BA0B00C2B91
:102E000013D8DFE803F007127F2C121212121212ED
:102E10001212170092F84431512B00F06881532BA5
:102E200000F07781452B00F0678120B0BDE8F041CC
:102E3000FFF702B992F84431532B7BD0412B00F0BD
:102E4000F381552B00F04282512BEED19B4B002297
:102E500083F8362020B0BDE8F041FFF7ADB8974CBD
:102E600094F83630012B00F0C780022B5AD1D4E9F8
:102E7000D4018FA3D3E90023012504951EF05CFB48
:102E8000CDE902018AA3D3E90023D4E9D2011EF0DF
:102E900053FB12ADCDE9000100220023284614F0B7
:102EA000B7F820460FF002FB10AA0EAB0C920B9362
:102EB0000A900DF1580CBCE80F006C460FC4BCE83A
:102EC0000F000FC49CE8030084E8030095E80F009E
:102ED00010F026FF7A4904460E981EF083FF1FF07B
:102EE0005DF97749054610981EF07CFF1FF056F9F2
:102EF000744900902B467448224621F069F820B0AE
:102F0000BDE8F08192F84431532B00F01281542B2C
:102F100000F0EA80452B00F0F88020B0BDE8F041D9
:102F2000FFF776B80023674900931A46664821F0F8
:102F30004FF8E4E772B6654B186862B6644B984286
:102F400005DDA0F50300A0F556409842F9DC1EF01F
:102F5000F5FE6049594E1EF0F9FF5F491EF042FF31
:102F60001EF092FA5D4B00221EF0E6FAD6E9D82355
:102F70001EF02AF914F034FE4DA3D3E900231EF00D
:102F8000DBFACDE902014AA3D3E90023D6E9D60151
:102F90001EF0D2FA12ADCDE900010022002328462E
:102FA00013F026FF30460FF081FA10AB0D934C4919
:102FB0000EAB0C9307463EA3D3E90023D1E90201EF
:102FC0001EF0BAFACDE90A0108970DF1580CBCE8D9
:102FD0000F006C460FC49CE80F0084E80F0095E8D2
:102FE0000F0010F02DFF3F490246374820F0F0FF58
:102FF000012386F8363082E772B6344B186862B621
:10300000334B984205DDA0F50300A0F556409842E9
:10301000F9DC1EF093FE2F491EF098FF2E491EF09A
:10302000E1FE1EF031FA2D4B00221EF085FAD4E9A4
:10303000D8231EF0C9F814F0D3FD1DA3D3E9002353
:103040001EF07AFA02460B46D4E9D601CDE90223F6
:1030500017A3D3E900231EF06FFA12ADCDE90001EA
:1030600000220023284613F0C3FE14480FF01EFA76
:1030700010AC1B490D9406460EACD1E902010CA31D
:10308000D3E900230C941EF057FACDE90A01089603
:103090000DF1580CBCE80F006C460FC49CE80F0003
:1030A00084E80F0095E80F0010F0CAFE12E700BF99
:1030B000000000A046DF913FF88FFF1F4092FF1FE6
:1030C0000000704290AF02006890FF1F5891FF1FF0
:1030D00000D6830000D6034B0000C04100002E4004
:1030E000F891FF1FA0AF02006F480CF091FA20B0DA
:1030F000BDE8F041FEF768BF6B4812AB10AA0EA9FD
:103100000CF0D0FBFEF776FFF9E667480CF0A8FA62
:10311000EDE7654C0023204684F8FD340CF0A0FA5E
:1031200012AB10AA0EA920460CF0BCFBFEF74CFF18
:10313000E5E65D4C94F83630012B25D0022BD6D134
:10314000D4E9D40156A3D3E90023012504951EF048
:10315000F3F9CDE9020152A3D3E90023D4E9D20166
:103160001EF0EAF90023CDE90001002212A813F0B5
:103170004FFF20460FF09AF912A9024620460CF0A4
:1031800037FAFEF721FFBAE672B6484B186862B606
:10319000474B984205DDA0F50300A0F55640984244
:1031A000F9DC1EF0CBFD43491EF0D0FE42491EF073
:1031B00019FE1EF069F9414B00221EF0BDF9D4E959
:1031C000D8231EF001F814F00BFD35A3D3E900233A
:1031D0001EF0B2F902460B46D4E9D601CDE902232E
:1031E0002FA3D3E900231EF0A7F90022CDE90001A7
:1031F000002312A813F0FCFD2B480FF057F93049BB
:1032000027A3D3E900230446D1E902011EF094F973
:1032100006460F46224612A9CDE9006722480CF067
:10322000C3F9FEF7D1FE6AE61F4F1DA3D3E90023C1
:10323000D7E9D401012404941EF07EF9CDE90201FE
:1032400017A3D3E90023D7E9D2011EF075F912AE16
:10325000CDE9000100220023304613F0D9FE3846A4
:103260000FF024F910AB0C930EAB0B930A9016AD34
:103270000FCD6C460FC40FCD0FC495E8030084E852
:10328000030096E80F0010F04BFD0E4902460E4871
:1032900020F09EFE022387F8363030E6AFF3008040
:1032A000000000A046DF913F4092FF1F5891FF1F92
:1032B00000D6830000D6034B0000C04100002E4022
:1032C000F891FF1FA0AF02006890FF1F0E2009F0C9
:1032D0002FFC044617F074F800250346601C63F3C6
:1032E000070517F06DF80346A01C63F30F2517F0D0
:1032F00067F80346E01C63F3174517F061F860F3C5
:103300001F6528461EF0C0F8434C02460B461220AB
:10331000C4E9D82309F00CFC064617F051F8002543
:103320000346701C63F3070517F04AF860F30F2596
:10333000B01C17F045F80346F01C63F3174517F06F
:103340003FF860F31F6528461EF09EF8C4E9D601D9
:1033500072B6324B186862B6314B984205DDA0F563
:103360000300A0F556409842F9DC1EF0E7FC2D4919
:103370001EF0ECFD2C491EF035FD1EF085F82B4BA0
:1033800000221EF0D9F8D4E9D8231DF01DFF14F057
:1033900027FC1FA3D3E900231EF0CEF8CDE90201DC
:1033A0001BA3D3E90023D4E9D6011EF0C5F812AF60
:1033B000CDE9000100220023384613F019FD16481C
:1033C0000FF074F810AB0D9319490EAB0C938046B7
:1033D0000FA3D3E90023D1E902011EF0ADF8CDE936
:1033E0000A01CDF8208016AE0FCE6D460FC596E8C7
:1033F0000F0085E80F0097E80F0010F021FD0D4940
:1034000002460D4820F0E4FD012384F8363076E5CD
:10341000000000A046DF913F4092FF1F5891FF1F20
:1034200000D6830000D6034B0000C04100002E40B0
:10343000F891FF1FA0AF02006890FF1F08B516F0BB
:1034400089FFBDE8084016F085BF00BF2DE9F043B5
:103450005F4B93F837508BB055B95E4B93F84331BF
:103460003F2B00F0A7800BB0BDE8F043FEF7E4BDB2
:1034700000233A22CDE90223049305930693079390
:103480000893ADF8243018F01DFC01E018F052FC50
:1034900018F03CFC0028F9DC02AF384621F050FA65
:1034A0004D494C4E384420F0A5FF4C490222C41B24
:1034B00016F0CEFF96F84331572B29D83E2B12D861
:1034C000213BDBB2172B09D84549012202FA03F34D
:1034D000194081BB41F20942134212D1FEF7ACFD03
:1034E0000BB0BDE8F0833F3B3E49DBB2012202FA5C
:1034F00003F31940F1B93C4A1A40E2B93B4A13427E
:10350000ECD0611C384618F055FB18F0DBFBE5E702
:10351000613BDBB21D2BE1D8012202FA03F3344AEE
:103520001A4008D133490B4204D1334A1A40002AC9
:10353000D4D0E6E70025DFF8C4803846611C18F0D7
:1035400039FB18F0BFFBD8F800300093009FD8F883
:1035500000300193019B07F5FA779F4225D900249B
:103560004FF4965914E018F0E5FB3319C0B201345A
:1035700083F870001DBB232827D0D02C15DC33190D
:1035800083F87050D8F800300193019B9F420CD90A
:1035900018F0BCFB0028E6DC4B46013BFDD1D8F817
:1035A00000300193019B9F42F2D8FEF71BFD0BB048
:1035B000BDE8F0830BB0BDE8F043FEF71BBD002271
:1035C000312883F871208BD0EFE783F8715087E7BB
:1035D0004092FF1FF88FFF1F3A91FF1FCCAB0200F4
:1035E0000080FF000540800010040101000116006A
:1035F0000451020001008020400004002C9CFF1FA9
:1036000008B516F0A7FEBDE8084016F0A3BE00BF3F
:1036100070B5044682B0D0E9000114F0E7FA0B4D12
:1036200095F8EE600122C4E90001002321460096CE
:10363000284614F065F9284621F082F9044902224F
:10364000284402B0BDE8704016F002BF6890FF1F2A
:10365000CCAB0200FFFFFFFF2DE9F047924C94F83E
:103660004321A2F1280392B04C2B00F29980DFE8AD
:1036700013F0EB00D9009700970097009700970090
:103680009700970097009700970097009700970082
:103690009700970097009700970097009700970072
:1036A00097009700D90097003502EB00970097002C
:1036B000930297009700970097004D009C009C0094
:1036C0009C0097009700EB00A402FB0197002F01DC
:1036D0000502CB029700D90097009700970097004A
:1036E000970097004D009700C201B201A801970111
:1036F000C601DC0297009700970097007102A002B4
:10370000F50197009700E0019700D00217F0D8F973
:10371000664B67490446D86A1EF064FB1EF03EFD06
:103720000346DB17201A634C63EB4301C4E906012F
:1037300011F002FB0646D4E9060111F0D1FA1EF0A1
:10374000FDFA5D491EF002FC054630461EF0F6FA11
:10375000014628461EF03EFA0546D4E9060111F05E
:10376000D5FA1EF0EBFA52491EF0F0FB29461EF086
:1037700031FA1DF089FE514D02460B462146E1E922
:103780000A230122284614F01FF8284621F0D8F811
:103790004B490222284412B0BDE8F04716F058BE4B
:1037A00012B0BDE8F047FEF733BCA2F14D05454F1E
:1037B00005EB45086FF0590608EBC808361B07F102
:1037C0000F094644BA4606EB0A0016F0F9FD0AF85E
:1037D000010F002800F0AD82D145F4D13A493748B5
:1037E0002A4620F0F5FB354821F0AAF80E2817D814
:1037F000324E002508F1150808EB0504204616F0A6
:10380000DFFD17F8019F814505F101054946204676
:1038100001D016F0EFFD304621F092F88542EBDD45
:10382000264DB5E7294904A80CF0EAF894F843318D
:10383000412B00F00B835A2B00F03F83292B00F023
:10384000628312B0BDE8F087184913A3D3E90023BF
:10385000D1E902011DF070FE0B4602461B4904A887
:103860000CF05AF894F84331522B00F09282442B1A
:1038700000F02E83282BE4D104A813F091FB08A3B9
:10388000D3E900231DF058FE02460B4602A8CDE9FD
:103890000223FFF7BDFED4E7000000A046DF913F02
:1038A00000000020DCA54C40F88FFF1FF891FF1F9F
:1038B000000061455891FF1F000070426890FF1F93
:1038C000CCAB02006790FF1FE4AF02004092FF1FE5
:1038D00094F84431423B2E2B3FF662AF01A252F8DE
:1038E00023F000BF0F3D0000A1370000F53C0000B1
:1038F000A1370000A1370000A1370000A137000068
:10390000A1370000A1370000A1370000A137000057
:10391000A1370000E13C0000A1370000653C000039
:10392000A1370000A1370000A1370000533C000080
:10393000A1370000A1370000A1370000A137000027
:10394000A1370000A1370000A1370000A137000017
:10395000A1370000A1370000A1370000A137000007
:10396000A13700004B3C0000A1370000A137000048
:10397000A1370000A1370000A1370000A1370000E7
:10398000A1370000A1370000A1370000A1370000D7
:10399000A1370000A1370000A1370000373C00002C
:1039A000B14BD3E9E0011EF0BFF804AB00220021C7
:1039B00016F0D6FE04A9AD4820F01CFDAC49022249
:1039C000E9E6AC4BAC49B3F91820A84812B0BDE801
:1039D000F04720F0FDBA94F844314C2B00F0D4812C
:1039E000A24D94F85E010090A449002201232846CC
:1039F00013F086FFC9E69D4BA14A1A6021E794F8AF
:103A00004401A049994CA0F166000123B0FA80F06E
:103A100040091A460090204613F072FF204620F01D
:103A20008FFF93490222204412B0BDE8F04716F000
:103A30000FBD94F844314C2B00F0A1818A49924B80
:103A40008A4D0022D1E9D8011DF0A0FE0F4606469E
:103A5000CDE9046794F85E2104A993E6824B8B4973
:103A6000D3F82C218148B1E77F4C94F88A33002B9E
:103A700040F0C8810020052204AB98E77A4EB47D5F
:103A8000022C00F0CF8100F24681012C40F0D4815D
:103A9000764D284620F054FF7D490222284416F036
:103AA000D7FC96F88A337148002B00F04C8120F047
:103AB00047FF78490222284416F0CAFC6A480EF0F3
:103AC000E1FC002800F04781684820F039FF724986
:103AD0000222284416F0BCFC644857E616F0F0FFBA
:103AE000644B6E496E4D0446D86A1EF07BF91EF099
:103AF00055FB0346DB17201A63EB4301C5E90601BA
:103B000011F046F90446D5E9060111F0D3F806464E
:103B1000D5E9060111F026F90746D5E9060111F0AD
:103B20000BF9D5E9060111F0DBF8D5E9060111F032
:103B3000EDF85C4A4D4882FB0412E317C3EB6213B5
:103B4000642202FB1344584900943B46324620F05D
:103B50003FFA76E64448454D0EF0A8FC534B1B68EF
:103B60002B801A0C0128AA7000F085810228B3D19D
:103B70003D480EF0AFFC002840F0F6813D4900239F
:103B8000D1E9020100221DF05DFF002814BF572378
:103B9000452384F870309FE7364BD86A1DF074FCDB
:103BA0000B4643490246314812B0BDE8F04720F0C9
:103BB0000FBA404A40492D4808E772B6384B18689A
:103BC00062B63E4B984205DDA0F50300A0F55640D5
:103BD0009842F9DC1EF0B2F839491EF0B7F93949BC
:103BE0001EF000F91DF050FC94F8444102460B46CB
:103BF0004C2CCDE9042300F000811C4C012204A9C7
:103C0000204613F0E1FD09E712B0BDE8F04701F0EE
:103C100007BF94F844012C49144CA0F16600B0FA97
:103C200080F0400900220123F4E60F4B2749D3F826
:103C300028210E48CAE6264A0C4B07CA03C3184679
:103C40000B4900F8012B0222A5E522490748012271
:103C5000BCE6214A054B92E80300232283E80300D7
:103C60001A81EEE51D4AE7E74092FF1F6890FF1FAB
:103C7000CCAB0200F891FF1FC8AF02009895FF1F60
:103C8000323423000892FF1F00002E40F4AF0200E0
:103C90004CB0020054B002005CB00200000061456C
:103CA0005891FF1F1F85EB51A4AF0200ECAF02003B
:103CB000D0AF02001292FF1FF0AF020000D68300C7
:103CC00000D6034B0000C0410092FF1FDCAF020092
:103CD00028B0020040B0020034B002001CB0020064
:103CE000AF4AB04B92E80300022218601971581DC8
:103CF000AD4950E5AD4AAB4B07CA03C323F8022BCD
:103D00001846140CA84900F8014B022243E5A849C3
:103D1000A448DC225AE6033C012C00F28D80A14D20
:103D2000284620F00DFEA3490222284416F090FBFD
:103D3000B7E694F87030002B3FF450AD994D28460B
:103D400020F0FEFD24E520F0FBFD9B4902222844E3
:103D500016F07EFBB2E699480EF08CFB002840F08E
:103D6000A38096F828338F48002B00F0958020F030
:103D7000E7FD93490222284416F06AFBACE68F4B1C
:103D80009049D3E9D8230EE78C4B8E49D3E9D6234B
:103D900009E794F844314C2B00F0B98072B68A4B95
:103DA000186862B6894B984205DDA0F50300A0F5BE
:103DB00056409842F9DC1DF0C1FF8549794D1EF04F
:103DC000C5F884491EF00EF81DF05EFB6CA3D3E924
:103DD00000231DF0B1FB02460B4604A813F0F4F8D3
:103DE00069A3D3E900231DF0A7FB0F460646CDE9E2
:103DF000026794F85E2102A9C4E47749694820F07B
:103E0000E7F81EE520460EF03FFB00287FF432AEB7
:103E10005FA3D3E90023D4E9E4011DF08DFB1DF07D
:103E200083FE28E65F4D284620F08AFD6B49224636
:103E3000284416F00DFB34E65A4D284620F080FD4C
:103E400067490222284416F003FB2AE604A813F06F
:103E500097F951A3D3E900231DF06EFB514D94F85F
:103E60005E410094CDE902010022012302A9284607
:103E700013F046FD89E451480EF02CFB002875D163
:103E800058490023D1E9020100221DF0DBFD002882
:103E900014BF452357237CE620F052FD52490222ED
:103EA000284416F0D5FA17E63E4820F049FD4B4964
:103EB0000222284416F0CCFA0EE604A813F064F9A6
:103EC00035A3D3E900231DF037FB13F0A9FEDBE493
:103ED00004A813F069F830A3D3E900231DF02CFBEC
:103EE00094F8445102460B464C2DCDE902233FD0B5
:103EF0002C4D94F85E010090002202A9012328466F
:103F000013F0FEFC41E404A813F036F9B7E472B6EE
:103F10002D4B186862B62D4B984205DDA0F50300C5
:103F2000A0F556409842F9DC1DF008FF28491EF024
:103F30000DF828491DF056FF1DF0A6FA10A3D3E98D
:103F400000231DF0F9FA02460B4604A813F03CF8D2
:103F500011A3D3E900231DF0EFFA02460B461148E6
:103F6000224920F035F86CE4572312E6452310E689
:103F700014490C4820F02CF863E400BFAFF3008034
:103F80000000004052C1D03F000000A0C88E0E408B
:103F9000000000E006154E4000000020DCA54C406B
:103FA00014B002006890FF1FCCAB020008B0020002
:103FB00040B0020044B0020058B002004092FF1F1F
:103FC000E4AA0200BCAF02005891FF1F00D6830094
:103FD00000D6034B0000C041FCAF020048B0020015
:103FE00050B00200F891FF1F60B00200B4AF0200B1
:103FF00008B516F0AFF9BDE8084016F0ABB900BF40
:104000002DE9F04F87B016F05BFD0021044610F05B
:10401000BFFE00210646204610F04CFE002105465A
:10402000204610F09FFE6B1E012B98BF06F1FF3655
:104030008046304698BF0C351DF080FED6490646B6
:104040001DF084FF1AF04AF9D449074630461DF0A6
:104050007DFF1AF043F9D249034630461E461DF053
:10406000C1FE1AF03BF9814628461DF067FE4FF06D
:104070007E511DF0AFFDCB491DF0B4FE1AF02EF9B4
:10408000394605464FF080401DF0A2FD31461DF037
:10409000A1FD1DF0F9F9064648460F461DF0F4F95A
:1040A00002460B46304639461DF090F80646284633
:1040B0000F461DF0E9F902460B46304639461DF021
:1040C00085F8064640460F461DF0CCF902460B46E1
:1040D000304639461DF07AF899A3D3E900231DF044
:1040E00075F882468B462046002110F025FE0021FF
:1040F0000646204610F0F4FD1DF020FEAA491DF0F2
:1041000025FF054630461DF019FE014628461DF0E4
:1041100061FD0021034620461C4610F0F7FD1DF00E
:104120000DFEA2491DF012FF21461DF053FD1DF0AA
:10413000ABF99F4BCDE900010022504659461DF0D6
:1041400045F819F0FDFF80A3D3E9002304460D468E
:104150001DF082FC58B37EA3D3E9002320462946F4
:104160001DF032F87CA3D3E900231DF00FFB1DF0F6
:1041700093FC1DF077F98F4B002206460F461DF089
:10418000DBF919F0DDFF02460B46204629461446AE
:104190001D460022884B1DF019F832463B461DF0A3
:1041A00015F822462B461DF00FF804460D466CA369
:1041B000D3E90023204629461DF008F86AA3D3E975
:1041C000002304460D461CF0FFFF69A3D3E900233A
:1041D0001DF0DCFA19F0B4FF02460B46CDE90223CC
:1041E00063A3D3E900231DF0A7F919F0A9FF024644
:1041F0000B46204629461CF0E7FF5FA3D3E90023C6
:10420000804689461DF0C2FA19F09AFF5AA3D3E9F5
:10421000002304460D461DF08FF919F091FF00228E
:1042200006460F460023404649461CF0CFFF324663
:104230003B461CF0C9FF19F083FF1DF02DFC5F4BBE
:1042400006460022204629461DF0E8FB002800F023
:104250001482594B2046002229461CF0B5FF1DF060
:104260001BFC044620461DF069FD554980461DF0A3
:1042700075FF002800F0F68141A3D3E90023DDE9B2
:1042800002011CF0A1FF1DF007FC0546631E012B77
:1042900005D804F10C001DF051FD013D8046284673
:1042A0001DF04CFD3C4904461DF050FE1AF016F876
:1042B0003A49074620461DF049FE1AF00FF83849E2
:1042C000054620461DF08EFD1AF008F84FF07E518D
:1042D000044640461DF07EFC32491DF083FD19F076
:1042E000FDFF034659465046059327A3D3E9002313
:1042F0001CF06AFF334B804689460022DDE900014D
:104300001DF044FA02460B46404649461CF05EFF4B
:104310001FA3D3E9002382468B461DF037FA0246DD
:104320000B464FF080403946CDE902231DF050FC8A
:1043300029461DF04FFC1DF0A7F8804644E000BF61
:1043400000000080A2423A41000000008C8A4141F6
:1043500000000040D07D3C410000000088D5E140D5
:104360000000000000D097400000006066865E40BC
:104370000000000000D4764000000020A0993E40DC
:1043800000000000006CB240000000802CB44241EC
:1043900000000000A0D5E1400000C8420000C84372
:1043A00000A0B64301CDF441000070420000614519
:1043B0000000E03F0000D03F0000F03F00002B4035
:1043C0000000204000003840204689461DF05CF87F
:1043D00002460B46404649461CF0F8FE0446059846
:1043E0000D461DF051F802460B46204629461CF0AA
:1043F000EDFE044630460D461DF034F802460B46ED
:10440000204629461CF0E2FEA1A3D3E900231CF0BC
:10441000DDFEA1A3D3E900231CF0D6FEA0A3D3E9BF
:1044200000231DF089F8A0A3D3E900231CF0CEFEE1
:10443000B74B0022804689461DF004FB78B1B44D8D
:10444000002422462B46404649461CF0BDFE22462B
:104450002B46804689461DF0F5FA0028F1D100224E
:104460000023404649461DF0D9FA88B1A84F0026DE
:10447000002400254046494632463B461CF0A6FE35
:1044800022462B46804689461DF0C8FA0028F1D105
:1044900087A3D3E90023DDE900011DF04DF8424672
:1044A0004B461CF093FEDDE9026783A3D3E90023AA
:1044B00004460D46304639461DF03EF832463B462E
:1044C0001DF03AF802460B46204629461CF07EFEB7
:1044D0008F4B0022804689461DF0B4FA78B18C4D8E
:1044E000002422462B46404649461CF06DFE2246DB
:1044F0002B46804689461DF0A5FA0028F1D10022FE
:104500000023404649461DF089FA88B1804F0026B5
:104510000024002532463B46404649461CF056FEE4
:1045200022462B46804689461DF078FA0028F1D1B4
:1045300063A3D3E90023504659461CF0FDFF024611
:104540000B4661A1D1E900011CF03EFE60A3D3E956
:1045500000231DF01BF919F009FB5FA3D3E9002329
:1045600004460D46504659461CF0E6FF5CA3D3E9CD
:1045700000231CF02BFE02460B461CF027FE54A322
:10458000D3E900231DF002F919F0F0FA56A3D3E99C
:10459000002306460F46504659461CF0CDFF024602
:1045A0000B4653A1D1E900011CF00EFE48A3D3E94C
:1045B00000231DF0EBF819F04DFA4FA3D3E90023C7
:1045C00082468B46204629461CF0B6FF4CA3D3E911
:1045D000002304460D46304639461CF0ADFF024626
:1045E0000B46204629461CF0EFFD52465B461CF068
:1045F000A3FF42464B461CF0E9FD454B0022804696
:1046000089461DF01FFA78B1414D002422462B4601
:10461000404649461CF0D8FD22462B468046894636
:104620001DF010FA0028F1D100220023404649462F
:104630001DF0F4F988B1364F0026002400253246DB
:104640003B46404649461CF0C1FD22462B4680466B
:1046500089461DF0E3F90028F1D14046494607B0EC
:10466000BDE8F08F28A3D3E90023DDE902011CF0A7
:10467000ABFD1DF011FA054608E6264B2046002248
:1046800029461CF0A1FD1DF007FA0446EAE500BF2B
:1046900000000080A2423A41000000802CB4424158
:1046A000000000E05BD2B03F000000801CCA1A404E
:1046B000000000E0360BF03F000000605243FB3E7C
:1046C00000000060C91CAB3F000000608F425F40EB
:1046D00000000020DCA54C40000000E0718AEF3FA4
:1046E0000000002085877140000000A0F2D79A3EAC
:1046F0000000000076703740000000A0EEE734BFF5
:1047000000000080732AF93E00000000006BB240F8
:104710000000384000002A40704700BF224B93F849
:10472000380000B9704710B493F8842085B03AB9C6
:10473000002093F83C20EAB9002005B010BC704777
:104740001A48D3F8904002680092009A41F28731EB
:10475000121B8A42ECD893F87420002AE8D0026831
:1047600001920198D3F88020801A88428CBF0020E3
:104770000120DEE70D4C196F22680292029A521A4C
:1047800041F287318A42D7D893F8B420002AD3D097
:1047900022680392D3F8B820039B9B1A8B428CBFEC
:1047A000002000F00100C8E74092FF1F2C9CFF1F73
:1047B000124B93F884200AB90020704710B41048B7
:1047C000D3F89040026883B041F287310092009A9A
:1047D000121B8A420DD893F8742052B102680192DC
:1047E0000198D3F88030C01A88428CBF0020012085
:1047F00000E0002003B010BC704700BF4092FF1FD4
:104800002C9CFF1F114B93F83C200AB900207047E5
:1048100010B40F481C6F026883B041F287310092D8
:10482000009A121B8A420DD893F8B42052B1026844
:104830000192D3F8B8300198C01A88428CBF00208A
:10484000012000E0002003B010BC70474092FF1F21
:104850002C9CFF1F154B93F8D4200AB900207047F9
:1048600000B5134AD3F8D800126883B041F28731FB
:104870000192019A121A8A4203D9002003B05DF80E
:1048800004FB0022D3F8DC0083F8D5201DF056FA93
:1048900008491DF05BFB4FF080411DF041FC0038E2
:1048A00018BF012003B05DF804FB00BF4092FF1F5A
:1048B0002C9CFF1F0000C8422DE9F0472F4F304DC0
:1048C0003B6829688CB041F288320193019B5B1AE6
:1048D000934204D82B4B18780CB0BDE8F0872A4BD4
:1048E00003F1100C0FCB04AE86E80F009CE80F001C
:1048F00008AC84E80F00304613F02CFA80463046AE
:1049000013F038FA8246304613F046FA81462046C4
:1049100013F04EFA0646204613F056FA0346204698
:104920001C4613F067FA08F14E08034602A88DF8FA
:1049300008308DF809408DF80DA08DF80C908DF899
:104940000A608DF80E8010F03BFA044616F0B8F8B5
:104950003A680292041B029A2A60002C0B4A034612
:10496000B8BF6442042C9361064BCCBF00200120E9
:104970000021D16118700CB0BDE8F0872C9CFF1F9E
:10498000E091FF1FE491FF1FB492FF1F5891FF1F9A
:104990002DE9F04F094BDFF828B01B68DBF8001059
:1049A0009DB041F288320C930C9B5B1A93420BD85A
:1049B000044B18781DB0BDE8F08F00BF2C9CFF1F82
:1049C000EC91FF1FF091FF1FD34BD44CD3F8BC5098
:1049D000DFF84C93DFF84CA3DFF84C8303F13C0E77
:1049E000BEE80F000DF1380CACE80F00BEE80F0078
:1049F000ACE80F00BEE80F00ACE80F009EE8030033
:104A00008CE803000EA8D4E9046713F083F902468A
:104A10000B46304639461CF0D9FB13F0E1F821F083
:104A200000431946BAA3D3E900231CF085FDD9F849
:104A300000600AEBC606C6E900010EA8D4E90267C9
:104A400013F048F902460B46304639461CF0BCFBD1
:104A500021F00043D9F8007008971946ACA3D3E9B8
:104A600000231CF069FD08EBC7030A460146C3E9B1
:104A70000012B4F91800CDE904121CF0F3FC024650
:104A8000284614460D461DF059F9A8491DF05EFA56
:104A90001CF0FAFC02460B46204629461CF094FB0B
:104AA00021F00043A2490A93FE0002463144C1E9C5
:104AB0000023DAE900340B90214618460022002337
:104AC0000996CDE900011CF081FBDAE90267324664
:104AD0003B461CF07BFBDAE90423CDE902231CF002
:104AE00075FB944B00221CF051FE04460D462246F5
:104AF0002B46DDE900011CF067FB02460B461CF06B
:104B00001BFD002200231CF061FB02460B463046D1
:104B1000394616461F4622462B461CF055FB0246D8
:104B20000B461CF009FD32463B461CF04FFB22466B
:104B300006460F462B46DDE902011CF045FB024606
:104B40000B461CF0F9FC32463B461CF03FFB7A4B0F
:104B500000221CF0F1FC18F0BDFDD8E90067CDE99A
:104B6000020100220023304639461CF02FFBD8E911
:104B7000024522462B461CF029FBD8E90423CDE947
:104B800000231CF023FB6B4B00221CF0FFFD804632
:104B9000894642464B46304639461CF015FB0246D4
:104BA0000B461CF0C9FC002200231CF00FFB024640
:104BB0000B462046294614461D4642464B461CF0ED
:104BC00003FB02460B461CF0B7FC22462B461CF0AA
:104BD000FDFA424604460D464B46DDE900011CF055
:104BE000F3FA02460B461CF0A7FC22462B461CF0AB
:104BF000EDFA4F4C504B00221CF09EFC18F06AFD61
:104C0000D4E90089CDE9000100220023494640464D
:104C10001CF0DCFAD4E9026732463B461CF0D6FAB7
:104C2000D4E9044502460B4620462946CDE906450F
:104C30001CF0CCFA3F4B00221CF0A8FD04460D46A8
:104C400022462B46494640461CF0BEFA02460B4619
:104C50001CF072FC002200231CF0B8FA02460B463E
:104C60003046394616461F4622462B461CF0ACFA03
:104C700002460B461CF060FC32463B461CF0A6FA8E
:104C8000224606460F462B46DDE906011CF09CFA3B
:104C900002460B461CF050FC32463B461CF096FA8E
:104CA000254B00221CF048FC18F014FD099E0AEB6D
:104CB00006030022D3E900678146204B8A46DDE9DE
:104CC00002011CF039FC00224FF0804304460D46DF
:104CD0001CF0B8FE002800F09680224639462B468C
:104CE00030461CF09BFE154B041E4FF00002DDE920
:104CF000000118BF01241CF01FFC00224FF080436C
:104D000006460F461CF09EFE002878D018E000BF33
:104D1000000000000020AC404092FF1FF891FF1FF0
:104D2000E891FF1FC891FF1FB091FF1F0000C8420C
:104D30009891FF1F000008400000E03F0000144071
:104D400032463B46DDE904011CF068FE304BB0F111
:104D500000084FF000024846514618BF4FF00108C6
:104D60001CF0EAFB2B4B002206460F461CF06AFEA5
:104D7000002841D0DDE9020100224FF080431CF001
:104D80004DFE0022051E4FF08043DDE9000118BFF3
:104D900001251CF043FE514600280CBF002505F0FC
:104DA00001051C4B484600221CF038FE3246002804
:104DB0000CBF002505F001053B460B980A991CF035
:104DC0002DFE2C40089A144B08EA040400280CBF5E
:104DD000002004F001001870022A02F101030F4ABA
:104DE00008BF002313600E4B1B680D930D9BCBF87F
:104DF00000301DB0BDE8F08F064F0026BAE7002650
:104E00004FF080479CE700244FF0804565E700BFE6
:104E10000000144000003440F091FF1FE891FF1F94
:104E20002C9CFF1FFFFFFFFF2DE9F04F6E4EDFF8B8
:104E3000BCC106F174030FCB9BB00DF1100888E8DC
:104E40000F0006F184030FCB08AF06F13C0587E89D
:104E50000F000FCD0CAC0FC40FCD0FC40FCD0FC47E
:104E600095E803009CF84331732B84E80300D6F8DF
:104E7000BC4006D0742B0ED0FDF7DEF81BB0BDE8A9
:104E8000F08F96F83830002B40F0BA80FDF7AAF882
:104E90001BB0BDE8F08F96F83830002BF6D0FFF746
:104EA00087FC0446FFF7AEFC002CEFD00028EDD0C5
:104EB000404612F04FFF0446404612F05BFF814629
:104EC000404612F069FF8046384612F071FF0646F0
:104ED000384612F079FF0546384612F08BFF03463C
:104EE0008DF80830424BDFF80CA18DF80950D3E95A
:104EF00004234E3402A8CAE90E238DF80E408DF823
:104F00000D908DF80C808DF80A600FF059FF054662
:104F10000C4615F0DBFD2846214610F0AFF8FFF7F0
:104F20006FF8354B04460D460022DAE90E011CF0FD
:104F30002DFC02460B46204629461CF045F92F4B16
:104F4000002204460D461CF07DFD78B12B4F002653
:104F50002046294632463B461CF036F932463B464F
:104F600004460D461CF06EFD0028F1D100220023FE
:104F7000204629461CF052FD98B1204F00264FF0E4
:104F800000084FF000092046294632463B461CF0F7
:104F90001DF942464B4604460D461CF03FFD0028D5
:104FA000F1D1164B0022204629461CF0EFFB0CA342
:104FB000D3E900231CF0C0FA1CF06EFD72B6CAF8EB
:104FC000000062B672B6DAF80020DAF80030CAE9FA
:104FD000042362B6FCF7F0FF50E700BFAFF3008098
:104FE00000000000C07A60414092FF1FF88FFF1F51
:104FF000F891FF1F5891FF1F00002E40000038401D
:10500000FFF7D6FB0546FFF7FDFB002D3FF43EAF53
:1050100000283FF43BAF0CA812F05CFE82460CA8BF
:105020008B4612F077FE064620460C461CF086FEA4
:10503000CB491CF08BFFCB4B054621463046002266
:105040001CF00AFD002840F0BA81C74B30462146CB
:1050500000221CF0E3FC002840F0B18132463046CB
:10506000C24E04F10044234621463478C6E90423A5
:105070001CF05AFD04EB440404EBC40404F10E03D9
:10508000C1B2814618460091019315F099F9009933
:10509000814203D0019B184615F0ACF904F10F03CF
:1050A000C9F3072118460091019315F089F9009979
:1050B000814203D0019B184615F09CF904F11003BE
:1050C000C9F3074118460091019315F079F9009949
:1050D000814203D0019B184615F08CF9113420460B
:1050E00015F06EF94FEA1969814503D0494620460B
:1050F00015F080F99E4B0022504659461CF08EFC5C
:10510000002859D19B4B0022504659461CF0A4FC64
:10511000002851D13478C6E902AB594650461CF0FC
:1051200003FD04EB440404EBC40404F10A0B5FFA2E
:1051300080FA8146584615F043F9824503D051461E
:10514000584615F057F904F10B0B584615F038F98D
:10515000C9F3072A824503D05146584615F04AF94B
:1051600004F10C0B584615F02BF9C9F3074A824598
:1051700003D05146584615F03DF90D34204615F040
:105180001FF94FEA1969814503D04946204615F0B9
:1051900031F96FA3D3E90023D6E902011CF0F6FA36
:1051A00082468B4618F056FCC6E90C01504659461B
:1051B00018F0DCFCC6E90E0128461CF0EFFF84B2B3
:1051C00004F1C8039BB242F208018B4202B21DD81F
:1051D0003578328305EB450505EBC50505F1120A67
:1051E00050465FFA82F915F0EBF8814503D0494645
:1051F000504615F0FFF81335284615F0E1F8240A5B
:10520000844203D02146284615F0F4F808F030FA1D
:1052100059480BF005FC594809F0AEFC574809F015
:10522000A7FC012007F0D0FC404612F093FD044695
:10523000404612F09FFD8246404612F0ADFD814689
:10524000384612F0B5FD8046384612F0BDFD0546E1
:10525000384612F0CFFD03468DF80830D6E9042316
:105260008DF80DA0DFF818A18DF809504E3402A872
:10527000CAE90E238DF80E408DF80C908DF80A8047
:105280000FF09EFD05460C4615F020FC28462146F1
:105290000FF0F4FEFEF7B4FE3A4B04460D46002232
:1052A000DAE90E011CF072FA02460B462046294646
:1052B0001BF08AFF344B002204460D461CF0C2FB53
:1052C00078B1314F00262046294632463B461BF036
:1052D0007BFF32463B4604460D461CF0B3FB0028DC
:1052E000F1D100220023204629461CF097FB98B1FB
:1052F000DFF894904FF0000800260027204629464A
:1053000042464B461BF062FF32463B4604460D4682
:105310001CF084FB0028F1D11B4B002220462946BB
:105320001CF034FA0CA3D3E900231CF005F91CF09F
:10533000B3FB72B6CAF8000062B672B6DAF80020A3
:10534000DAF80030CAE9042362B61FE0AFF3008048
:1053500000000020DCA54C4000000000C07A604145
:105360000000C84200807640008076C0F891FF1FA0
:10537000008056C0008056406893FF1F4092FF1F78
:105380005891FF1F00002E40000038400D480E4984
:105390000E4A0023C0E90033C0E90233C0E90433F8
:1053A000C1E90033C1E90233C1E90433C2E9003382
:1053B000C2E90233C2E90433FCF7FEFD5EE5044EA8
:1053C00098E600BFB091FF1FC891FF1F9891FF1F83
:1053D000F891FF1F08B514F0BDFFBDE8084014F0B8
:1053E000B9BF00BF2DE9F0414FF0000E164C174D2C
:1053F000F4464378067882781B0243EA06431A4350
:105400009F0CC2F38516C3F3053302F03F020CF183
:10541000030C15F80780AE5DEF5CAB5C84F8708020
:105420008C4584F8717084F8726084F873300EF1E2
:10543000040E00F1030004F10404DADB044B002243
:1054400003F80E20BDE8F081F88FFF1FA8B002001E
:105450006890FF1FFFFFFFFF2DE9F04FC84DBFB061
:105460006622002124A81EF095FE28460DF01EF8A5
:1054700095F8C0332C7895F88A7395F88B83003BA8
:1054800018BF012306465FFA88F804F00304284693
:1054900007EB430708F003080CF0F4FF2301FFB209
:1054A00043EA8803A6F102023B43B2FA82F25209B0
:1054B00043EA801343EAC213AA7D95F8F9138DF8E5
:1054C0009030012A95F8283301F0070100F020827E
:1054D000022A00F0F681032A00F08D82A2F1040274
:1054E000B2FA82F25209920195F8B103DB0043EA65
:1054F000C0130B43134395F818248DF89130022AFA
:1055000000F0F58195F81834FE2B00F0668295F8CE
:105510001834FF2B00F06D8295F81834012B14BF5E
:1055200000270327022E95F8483400F0E781022B6C
:1055300000F0F08195F84834FE2B00F0E68195F8F4
:105540004834FF2B00F0528295F84834012B14BFE9
:105550004FF000084FF00C0895F8886395F8E9358E
:1055600006F00306002B40F0AE8195F87146A401C9
:1055700064B2834809F0CCFA47EA061748EA070301
:105580001C4344EAC01495F838608DF89240FFF748
:10559000C5F8002840F00F8295F8C83395F83620FA
:1055A00095F878138DF8941046EA43168DF89360B9
:1055B00095F8FC340AB143F0040395F878240AB155
:1055C00043F0080395F837200AB143F010038DF833
:1055D000953015F075FA6B4CDFF8ACB10021C4E9D9
:1055E00006010FF0D5FB0646D4E906010FF062FB79
:1055F0008046D4E906010FF0B5FB0746D4E9060161
:105600000FF09AFB8246D4E906010FF069FB814650
:10561000D4E906010FF07AFB5C4A8DF8980082FB12
:105620000632F317C3EB62136422DBE9020102FBCB
:1056300013664BA3D3E900238DF896A08DF89790BD
:105640008DF899808DF89A708DF89B601BF074FF2F
:1056500002460B460AA84A490AF05EF972B620686B
:1056600062B64B4B984205DDA0F50300A0F556400D
:105670009842F9DC1CF062FB46491CF067FC464985
:105680001CF0B0FB1BF000FF37A3D3E900231BF095
:1056900053FF02460B460AA811F096FC34A3D3E947
:1056A00000231BF049FF80460AA8894611F07CFCC4
:1056B00031A3D3E900231BF03FFF06460F4616A88F
:1056C0002F490AF09DF916A811F05AFD2AA3D3E933
:1056D00000231BF031FFCDE9000116A811F054FDA5
:1056E00025A3D3E900231BF027FF12F099FACDE997
:1056F000020172B6246862B6254B9C4205DDA4F512
:105700000304A4F556449C42F9DCD5E9D801234BA7
:1057100000221CF03BF8D5E9E423CDE9060120493D
:1057200000201BF051FDCDE908890DF1200A8046CB
:1057300089469AE803000DF19C0E8EE80300CDE93E
:105740000867D5E9E601CDE904019AE803000DF107
:10575000A40C8CE80300DDE90001CDE9080121E09B
:10576000000000A046DF913F0000004052C1D03F42
:10577000000000A0C88E0E4000000020DCA54C40B8
:105780004092FF1F5891FF1FF891FF1F1F85EB519B
:1057900000D6830000D6034B0000C04100002E401D
:1057A0000000F03F9AE803002BAA82E80300DDE93D
:1057B0000212CDE908129AE803002DAB83E803003A
:1057C00020461CF0BBFA8E491CF0C0FB8D491CF032
:1057D00009FB1BF059FECDE908019AE803000DF121
:1057E000BC0E8EE80300DDE90601D5E9D667CDE9F8
:1057F00008019AE80300CDE908670DF1C40C8CE8B4
:1058000003009AE8030033ACCDE9088984E803007B
:10581000D5F8A4133A91D5F8A01339919AE803006A
:1058200035AA82E80300DDE90401CDE908019AE820
:10583000030095F8374037AB83E80300002C6CD1A8
:105840007149DBF82C001CF0CDFA18F089FD1CF032
:10585000A5FC95F8183395F82B438DF8F20003F06A
:105860000303012C8DF8F3302FD0022C36D004F036
:10587000030395F82C2395F8C013920002F01C0244
:10588000134343EA41138DF8F4303DA80DF18F0323
:10589000002213F8011F834282EA0102F9D15B4C16
:1058A0008DF8F520662124A8FFF79CFD20461FF007
:1058B00047F85749022220443FB0BDE8F04F14F0AA
:1058C000C7BD202210E6402453E652480CF0DCFD10
:1058D000002800F08980022385F82B334D480CF016
:1058E000D3FD00287BD1032385F82B33C1E7022E9B
:1058F00095F848344FF001077FF419AEFE2B09D01C
:1059000095F84834022B7FF41AAE4FF0080823E6CE
:105910001022E9E54FF004081EE616F0D3F901E085
:1059200016F008FA16F0F2F90028F9DC04213A48DA
:1059300016F040F916F0C6F9142015F0B5F900215B
:105940002E2217A816AE16910C461EF023FC0AE074
:10595000302C0CD016F0EEF9C0B2232806F8010B5B
:1059600004F1010403D016F0D1F90028F0DC04F1B1
:10597000F8030DEB0304002304F8A03C9DF8583015
:105980003F2B7FF45DAF0DF159001CF051FC20213D
:1059900004460DF159001EF04FFC034668B3013078
:1059A0001CF042FCC2B2C0F307233B948DF8F020F8
:1059B0008DF8F13044E7FEF77FFF90B946F002061C
:1059C000FEF7E6FF08B146F00806FEF743FF0028A1
:1059D0003FF4E2AD46F01006DEE50227A2E5022321
:1059E00047E746F00606EBE7234642E74FF00C0890
:1059F000B2E5032796E5302276E50246D5E700BFFB
:105A000000D6034B0000C041000020416890FF1FFA
:105A1000CCAB02004092FF1F10AA0200FFFFFFFF65
:105A20002DE9F04D544C94F84431413BBCB0312B3E
:105A30003ED8DFE813F042003D00A500E7012F0249
:105A40003D003D003D003D003D003D00BD02F50232
:105A50003D00570380033D0046043D002E043D00F9
:105A60003D003D003D003D003D003D003D003D004E
:105A70003D003D003D003D003D003D003D003D003E
:105A80003D003D003D003D003D003D003A043D002D
:105A90003D003D003D003D00320094F84531702B43
:105AA00001F07881742B01F08381672B00F034833F
:105AB0003CB0BDE8F04DFCF7ABBA94F84521532A51
:105AC00001F071812D4890F8281300230B930C935B
:105AD0000D930E930F931093129318932493002910
