:1000000000800020BD010000E5BF0100A1BF01008C
:10001000A1BF0100A1BF0100A1BF0100A1BF01005C
:10002000A1BF0100A1BF0100A1BF0100E5BF010008
:10003000E5BF0100A1BF0100CDB30100D1B30100B4
:10004000E5BF0100E5BF0100E5BF0100E5BF01001C
:10005000E5BF0100E5BF0100E5BF0100E5BF01000C
:10006000E5BF0100E5BF0100E5BF0100E5BF0100FC
:10007000E5BF0100E5BF0100E5BF0100E5BF0100EC
:10008000E5BF0100E5BF0100E5BF0100E5BF0100DC
:10009000E5BF0100E5BF0100E5BF0100E5BF0100CC
:1000A000E5BF0100E5BF0100E5BF0100E5BF0100BC
:1000B000E5BF0100E5BF0100E5BF0100E5BF0100AC
:1000C000E5BF0100E5BF0100E5BF0100E5BF01009C
:1000D000E5BF0100E5BF0100E5BF0100E5BF01008C
:1000E000E5BF0100E5BF0100E5BF0100E5BF01007C
:1000F000E5BF0100FDD00100E5BF01006DDA0100A0
:10010000E5BF0100B5E10100E5BF0100E5BF010069
:10011000E5BF0100E5BF0100E5BF0100E5BF01004B
:10012000E5BF0100E5BF0100E5BF0100E5BF01003B
:10013000E5BF0100E5BF0100E5BF0100E5BF01002B
:10014000E5BF0100E5BF0100E5BF0100E5BF01001B
:1001500079B9010095B90100B1B90100CDB901002B
:10016000E5BF0100B9E40100E5BF0100E5BF010002
:10017000E5BF0100E5BF0100E5BF0100E5BF0100EB
:10018000E5BF0100E5BF0100E5BF0100E5BF0100DB
:10019000E5BF0100E5BF0100E5BF0100E5BF0100CB
:1001A000E5BF0100E5BF0100E5BF0100E5BF0100BB
:1001B000E5BF0100E5BF0100E5BF0100574B4CF270
:1001C000205210B5DA814DF62812DA8100BF00BF47
:1001D0001BF00CFF524B4FF010621A63514A9A63A6
:1001E000514ADA63514A136913F4807303D153619E
:1001F0004FF4A85313614E4B9A78110703D59A78A0
:1002000042F008029A704B4B4B482A221A704B4B13
:10021000DA1C121AC11E22F00302994288BF002282
:1002200047491BF0E9FD474B4748DA1C121AC11E2B
:1002300022F00302994288BF0022002125F0AEFE81
:10024000424943484FF4DE721BF0D6FD414B424A0F
:10025000802103F8011B9342FBD14FF0E0233C4A7D
:10026000C3F8082D3D4B8A221A70A3F5805324222F
:100270005A70A0221A709A799207FCD59A79D406FE
:10028000FCD4374B9A7902F00C02082AFAD10522E5
:100290001A7143225A719A799006FCD5304A9379A3
:1002A0005906FCD51E4B4FF08171596405219964A4
:1002B00020211170917901F00C010C29FAD1294A01
:1002C0005A604FF0E023284A5A6100229A610722BF
:1002D0001A61264AC3F8202D62B61CF0FDF8134BB4
:1002E0005B69DA0705D522481CF0EAF8214B224A5F
:1002F000DA61224B1B785B0609D51E4C1E4BE26966
:100300009A4204D11A481CF0DBF80023E3611BF089
:1003100073FE26F009F81BF067FDFEE7002005409C
:1003200000800440823F04000100002B00D0034005
:1003300000D0074000E007402087FF1FE88FFF1F25
:10034000ACDD02005CA2FF1FE88FFF1F0000000071
:100350000082FF1F00E400E05FE400E00050064080
:1003600000400640C01005003F1901000000202099
:10037000F07AB66900E00340A5C3945A00F0074044
:10038000FFFFFFFFFFFFFFFFFFFFFFFFFFFFFFFF7D
:10039000FFFFFFFFFFFFFFFFFFFFFFFFFFFFFFFF6D
:1003A000FFFFFFFFFFFFFFFFFFFFFFFFFFFFFFFF5D
:1003B000FFFFFFFFFFFFFFFFFFFFFFFFFFFFFFFF4D
:1003C000FFFFFFFFFFFFFFFFFFFFFFFFFFFFFFFF3D
:1003D000FFFFFFFFFFFFFFFFFFFFFFFFFFFFFFFF2D
:1003E000FFFFFFFFFFFFFFFFFFFFFFFFFFFFFFFF1D
:1003F000FFFFFFFFFFFFFFFFFFFFFFFFFFFFFFFF0D
:10040000FFFFFFFFFFFFFFFFFFFFFFFFDEF9FFFF23
:100410000548064B1B1AD90F01EBA301491002D066
:10042000034B03B118477047E88FFF1FE88FFF1F8A
:100430000000000008B5054B1BB105490548AFF3A6
:100440000080BDE80840FFF7E3BF00BF00000000E8
:10045000E88FFF1FA4DD020008B51CF02BF8002177
:1004600008BD00BFFFFFFFFF2DE9F04FD64BD74976
:10047000D3E9042385B0C1E90C231CF01BF800214B
:10048000044615F06DFA00210646204615F0FAF9EB
:1004900000210546204615F04DFA6B1E012B98BF32
:1004A00006F1FF360746304698BF0C3523F052FB65
:1004B000C749064623F056FC1FF01CFEC54981467D
:1004C000304623F04FFC1FF015FEC34980463046EE
:1004D00023F094FB1FF00EFE0646284623F03AFB5D
:1004E0004FF07E5123F082FABC4923F087FB1FF0C6
:1004F00001FE494605464FF0804023F075FA41461B
:1005000023F074FA22F0CCFE80463046894622F071
:10051000C7FE02460B464046494622F063FD804630
:100520002846894622F0BCFE02460B464046494614
:1005300022F058FD80463846894622F09FFE02464A
:100540000B464046494622F04DFD8BA3D3E90023DC
:1005500022F048FD02461746884620460021CDE994
:10056000027815F0D1F900210646204615F0A0F9D1
:1005700023F0F0FA9A4923F0F5FB0546304623F0C4
:10058000E9FA0146284623F031FA002103462046C5
:100590001C4615F0A3F923F0DDFA924923F0E2FBA3
:1005A000214623F023FA22F07BFE8F4BCDE9000198
:1005B00000223846414622F015FD1FF0CDFC70A305
:1005C000D3E9002304460D4623F052F958B36EA335
:1005D000D3E900232046294622F002FD6CA3D3E98B
:1005E000002322F0DFFF23F063F922F047FE7F4B68
:1005F000002206460F4622F0ABFE1FF0ADFC02467D
:100600000B462046294614461D460022784B22F010
:10061000E9FC32463B4622F0E5FC22462B4622F01E
:10062000DFFC04460D465CA3D3E90023204629469F
:1006300022F0D8FC5AA3D3E9002304460D4622F049
:10064000CFFC59A3D3E9002322F0ACFF1FF084FCB8
:1006500055A3D3E9002382468B4622F079FE1FF092
:100660007BFC02460B462046294622F0B9FC50A3EB
:10067000D3E9002306460F4622F094FF1FF06CFCDE
:100680004BA3D3E900238046894622F061FE1FF088
:1006900063FC002204460D4600233046394622F012
:1006A000A1FC22462B4622F09BFC1FF055FC23F0B8
:1006B000FFF8504B044600224046494623F0BAF862
:1006C000002800F0BC824A4B00224046494622F0F6
:1006D00087FC23F0EDF80646304623F03BFA464906
:1006E000054623F047FC002800F09E8232A3D3E9A0
:1006F00000235046594622F073FC23F0D9F80746F0
:10070000731E012B05D806F10C0023F023FA013FDC
:100710000546384623F01EFA2D49064623F022FBF3
:100720001FF0E8FC2B498246304623F01BFB1FF0EC
:10073000E1FC29498146304623F060FA1FF0DAFCDB
:100740004FF07E518046284623F050F9234923F08C
:1007500055FA1FF0CFFC1AA3D3E900230546DDE9C3
:10076000020122F03DFC254B06460F460022DDE942
:10077000000145E0AFF3008000000080A2423A4152
:10078000000000008C8A414100000040D07D3C41C7
:100790000000000088D5E1400000000000D0974034
:1007A0000000006066865E400000000000D47640D5
:1007B00000000020A0993E4000000000006CB24004
:1007C000000000802CB442411092FF1F7891FF1F5F
:1007D0000000C8420000C84300A0B64301CDF44168
:1007E00000007042000061450000E03F0000D03F83
:1007F0000000F03F00002B40000020400000384087
:1008000022F0D0FE02460B463046394622F0EAFB83
:1008100002460B46CDE90223D1A3D3E9002322F0FF
:10082000C1FE02460B464FF0804051469B46924621
:1008300023F0DAF8494623F0D9F822F031FD0646D4
:1008400040460F4622F02CFD02460B463046394604
:1008500022F0C8FB064628460F4622F021FD02463C
:100860000B463046394622F0BDFB064620460F4671
:1008700022F004FD02460B463046394622F0B2FB18
:10088000B9A3D3E9002322F0ADFBB9A3D3E9002338
:1008900022F0A6FBB8A3D3E9002322F059FDB8A3A8
:1008A000D3E9002322F09EFBCD4B002280468946EF
:1008B00022F0D4FF78B1CA4D002422462B46404690
:1008C000494622F08DFB22462B468046894622F07F
:1008D000C5FF0028F1D1002200234046494622F0FE
:1008E000A9FF88B1BE4F0026002400254046494696
:1008F00032463B4622F076FB22462B46804689460E
:1009000022F098FF0028F1D19FA3D3E90023DDE96D
:10091000000122F01DFD42464B4622F063FB9CA3E2
:10092000D3E9002304460D465046594622F010FDF7
:1009300052465B4622F00CFD02460B4620462946F5
:1009400022F050FBA64B002204460D4622F086FF03
:1009500078B1A34F002632463B462046294622F076
:100960003FFB32463B4604460D4622F077FF002807
:10097000F1D1002200232046294622F05BFF98B1E6
:10098000974F00264FF000084FF0000932463B46D3
:100990002046294622F026FB42464B4604460D4699
:1009A00022F048FF0028F1D1DDE902AB7AA3D3E9B8
:1009B00000235046594622F0CBFC02460B4678A154
:1009C000D1E9000122F00CFB77A3D3E9002322F048
:1009D000E9FD1EF0D7FF76A3D3E9002306460F46B4
:1009E0005046594622F0B4FC73A3D3E9002322F009
:1009F000F9FA02460B4622F0F5FA6BA3D3E900237D
:100A000022F0D0FD1EF0BEFF6DA3D3E90023804687
:100A100089465046594622F09BFC02460B466AA185
:100A2000D1E9000122F0DCFA5FA3D3E9002322F030
:100A3000B9FD1EF01BFF66A3D3E9002382468B4657
:100A40003046394622F084FC63A3D3E900230646EE
:100A50000F464046494622F07BFC02460B46304694
:100A6000394622F0BDFA52465B4622F071FC22461E
:100A70002B4622F0B7FA5A4B00228046894622F0D4
:100A8000EDFE78B1564D002422462B46404649469D
:100A900022F0A6FA22462B468046894622F0DEFE48
:100AA0000028F1D1002200234046494622F0C2FE30
:100AB00088B14B4F00260024002532463B46404675
:100AC000494622F08FFA22462B468046894622F07C
:100AD000B1FE0028F1D14349434B0022D1E90C017A
:100AE00022F060FD02460B464046494622F078FA65
:100AF0003B4B00228046894622F0B0FE78B1384D4B
:100B0000002422462B464046494622F069FA2246F6
:100B10002B468046894622F0A1FE0028F1D1002212
:100B200000234046494622F085FE88B12C4F00261E
:100B30000024002532463B464046494622F052FA00
:100B400022462B468046894622F074FE0028F1D1C9
:100B5000234B00224046494622F024FD46E000BFD8
:100B600000000000A0D5E14000000080A2423A4110
:100B7000000000802CB44241000000E05BD2B03F96
:100B8000000000801CCA1A40000000E0360BF03F55
:100B9000000000605243FB3E00000060C91CAB3FF8
:100BA000000000608F425F4000000020DCA54C4048
:100BB000000000E0718AEF3F00000020858771404F
:100BC000000000A0F2D79A3E000000007670374087
:100BD000000000A0EEE734BF00000080732AF93E59
:100BE000000038407891FF1F00002E401CA3D3E97D
:100BF000002322F0ADFB22F05BFE72B61C490860B8
:100C000062B672B60A680B68C1E9022362B6194877
:100C10000EF07EFAE8B117480EF0CCFA0A2005B0C3
:100C2000BDE8F04F1BF04CBE0FA3D3E900235046A4
:100C3000594622F0D5F922F03BFE074660E50E4BFF
:100C400000224046494622F0CBF922F031FE06460A
:100C500042E508480EF074FADDE700BFAFF300800C
:100C600000000000C07A604100000000006BB2404C
:100C70007891FF1F5892FF1F00002A4008B5114BC2
:100C800093F8FB1493F81B25914204D0002283F8BB
:100C9000FB2483F81B250B4812F01AF900B108BD9C
:100CA000094B0A4A19680A4BA0F1333000FB0133A3
:100CB000B2EB730F0348BDE8084094BF0121002147
:100CC00013F046B85892FF1F7891FF1F9999991910
:100CD0009899991970B50C4682B072B62B4A116872
:100CE00062B69368CB1A002B26DC294E294D1BF0E7
:100CF000C7FD294B9A68D9681860821A8A42C8BF12
:100D0000DA605A60326801929860019AD5F8983397
:100D100042F20F71D31A8B4294BF0121002121703E
:100D200004D902F51C521032C5F89823194802B0B4
:100D3000BDE8704012F01ABE012B916003D05068DC
:100D4000591E0144516012681448114E80FB025034
:100D5000D117C1EB6011642000FB11210D4D3268E9
:100D600000920098D5F8982342F20F7C821A6245CF
:100D700094BF01220022227004D900F51C501030CB
:100D8000C5F89803034812F0BFFEB0E77891FF1F43
:100D90006C9CFF1F5892FF1F0890FF1F1F85EB518F
:100DA000F8B5164E164D3778044601F05DF903F09C
:100DB00007FF95F868339F4205D0172128460EF0AB
:100DC0008BFA95F868330E48337012F07BF810B93F
:100DD00095F8683443B92046FFF750FF204609498B
:100DE000BDE8F840FFF776BF05480EF071F90448FA
:100DF00013F0B6F902480EF06FF9ECE70190FF1F0F
:100E00005892FF1F0090FF1F08B51AF077FFBDE84A
:100E100008401AF073BF00BF10B5012117201BF066
:100E2000F3FC0E484FF416511AF01AFC1424012159
:100E300017201BF0B5FC0A201BF042FD17200021F3
:100E40001BF0AEFC32201BF03BFD013CEFD1BDE8B6
:100E50001040012117201BF0A3BC00BF0888FF1F12
:100E600038B50920124C134D1CF0C4FB00210A2098
:100E70001CF082FB20464DF6C0211AF039FB0A23F4
:100E8000A3600D4804211CF0A1FC1CF027FDFA20F2
:100E90001BF016FD012406E01CF058FDC0B23F28EF
:100EA00008BF85F837401CF03DFD0028F4DC38BD54
:100EB000F487FF1F5892FF1F10C802002DE9F84366
:100EC0001B4D1C4C2E681C4FDFF8709040F2EE2832
:100ED0001EF0C0F82378EBB13B78DB071AD52B68FE
:100EE000D9F800209B1A0E2B14D901221449154859
:100EF00001F092F914484FF461411AF081FA124955
:100F00001248022201F088F9BDE8F84300211720B9
:100F10001BF046BC2B6822789B1B2AB1B3F5FA6FF5
:100F2000E3D81EF097F8D3E74345FAD9DDE700BFD1
:100F30006C9CFF1F089FFF1F2C9FFF1F309FFF1FF0
:100F40006488FF1F6490FF1FE087FF1F4090FF1F12
:100F500070B5274C0546FFF75FFF0DF023FD2046D7
:100F60000EF026F9234814F093FE002600210120FC
:100F700014F09CFE1BF09EFA314614F067FE01212E
:100F800006201BF041FCD4F8141706201BF0F6FADB
:100F900020460EF099F820460EF09CF9314604F5F3
:100FA000AB600EF0DFF9204611F076F820460EF027
:100FB00063F92846FFF758FA72B60F4B19681A689A
:100FC000C3E9021262B64FF4FA601BF079FC1DF01F
:100FD0005FF8B042D8BF00232846C8BF012384F879
:100FE0003830FFF73DFF2846BDE87040FFF766BF89
:100FF0005892FF1F590400007891FF1F38B50378FD
:10100000062B04464ED03A2B4AD14378243B442B3E
:1010100046D8DFE813F008014500450045004500CB
:101020004500450045004500450045004500450098
:101030004500450045004500450045004500450088
:101040004500450045004500450045004500450078
:101050000001C500B500E100CE00EA00AC0045008B
:1010600045004500450045009D0045004500450000
:1010700094008B0082007200690045005F0045000B
:101080004500450045004500450045004500450038
:1010900045004500450045004500450056004D000F
:1010A000042038BD4378002B14BF0420012038BD34
:1010B00081786A4824F0C4FF00280CBF0420022075
:1010C00038BD8178664824F0BBFF00280CBF04209F
:1010D000022038BD84786348214624F0B1FF0028FF
:1010E00000F0AF80002038BD81785F4824F0A8FF71
:1010F000B0FA80F04009800038BD84785B48214612
:1011000024F09EFF0028EDD15948214624F098FF95
:1011100000280CBF0420022038BD8178554824F0F7
:101120008FFF00280CBF0420022038BD8178524870
:1011300024F086FFB0FA80F04009800038BD817845
:101140004E4824F07DFFB0FA80F04009800038BDA1
:1011500084784B48214624F073FF0028C2D14948C7
:10116000214624F06DFF002876D0012038BD81781B
:10117000454824F065FF00280CBF0420032038BD3B
:1011800084784248214624F05BFF002855D121464F
:101190003F4824F055FFB0FA80F04009800038BD88
:1011A00081783C4824F04CFFB0FA80F04009800080
:1011B00038BD85783848294624F042FF00283CD1C4
:1011C0004D2D40D0572D7FF46BAFE378303B012B92
:1011D0008CBF0420022038BD8178234824F030FFE2
:1011E00000280CBF0420032038BD84782B482146FA
:1011F00024F026FF00287FF475AF2948214624F00B
:101200001FFFE0B92748214624F01AFF00280CBF31
:101210000420032038BD84782348214624F010FFA1
:1012200068B92248EFE784782148214624F008FF76
:1012300000287FF457AF1F4867E7032038BD02201E
:1012400038BD1D48DFE7E1781C4824F0F9FE00288E
:101250000CBF0420012038BD194856E78CC8020095
:1012600068C80200E8C80200CCC90200D8C8020061
:10127000E0C80200C0C80200B4C80200ACC8020046
:1012800098C80200A0C802006CC8020030C8020062
:1012900094C802002CC8020034C8020040C80200F2
:1012A0004CC8020060C8020018C8020028C802002A
:1012B00048C80200F0C80200A4C8020038C80200F2
:1012C000A8C80200002800F0EF8410B503783A2B7C
:1012D000044640F0D884FFF791FE002800F0C08457
:1012E000431EDBB2012B40F2BC84032840F0D384C0
:1012F000C549204625F048F8002800F0B484C349C9
:10130000204625F041F8002800F0AF84C04920466F
:1013100025F03AF8002800F0AA84BE49204625F0BE
:1013200033F8002800F0A584BB49204625F02CF8AE
:10133000002800F0A284B949204625F025F80028AD
:1013400000F09D84B649204625F01EF8002800F0E4
:101350009884B449204625F017F8002800F09684B8
:10136000B149204625F010F8002800F09184AF49DB
:10137000204625F009F8002800F07D84AC4920467D
:1013800025F002F8002800F08984AA49204624F0BC
:10139000FBFF002800F08484A749204624F0F4FFD6
:1013A000002800F07F84A549204624F0EDFF0028A6
:1013B00000F07D84A249204624F0E6FF002800F0DA
:1013C0007884A049204624F0DFFF002800F07384D1
:1013D0009D49204624F0D8FF002800F06E849B49E8
:1013E000204624F0D1FF002800F069849849204667
:1013F00024F0CAFF002800F064849649204624F0B7
:10140000C3FF002800F05F849349204624F0BCFF0E
:10141000002800F05A849149204624F0B5FF0028A6
:1014200000F055848E49204624F0AEFF002800F0DD
:1014300050848C49204624F0A7FF002800F04B84FC
:101440008949204624F0A0FF002800F046848749FF
:10145000204624F099FF002800F04184844920466A
:1014600024F092FF002800F03C848249204624F0BA
:101470008BFF002800F037847F49204624F084FF4A
:10148000002800F034847D49204624F07DFF0028A8
:1014900000F02B847A49204624F076FF002800F0E3
:1014A0002A847849204624F06FFF002800F0218428
:1014B0007549204624F068FF002800F02284734913
:1014C000204624F061FF002800F01984704920466E
:1014D00024F05AFF002800F064846E49204624F06E
:1014E00053FF002800F05B846B49204624F04CFF3A
:1014F000002800F052846949204624F045FF002866
:1015000000F049846649204624F03EFF002800F0A0
:1015100040846449204624F037FF002800F03784D7
:101520006149204624F030FF002800F02E845F49F6
:10153000204624F029FF002800F025845C4920463D
:1015400024F022FF002800F01C845A49204624F091
:101550001BFF002800F013845749204624F014FF95
:10156000002800F00A845549204624F00DFF002889
:1015700000F001845249204624F006FF002800F0C4
:10158000F8835049204624F0FFFE002800F0EF8346
:101590004D49204624F0F8FE002800F0E6834B4930
:1015A000204624F0F1FE002800F0DD834849204663
:1015B00024F0EAFE002800F0D4834649204624F0B7
:1015C000E3FE002800F0CB834349204624F0DCFEF4
:1015D000002800F0C2834149204624F0D5FE0028AF
:1015E00000F0B9833E49204624F0CEFE002800F0EA
:1015F000B0833C49204624F0C7FE002800F0A783B2
:101600003949204672E000BFF4C80200FCC802005D
:1016100004C902000CC9020014C902001CC902005E
:1016200020C9020010C8020028C9020030C9020007
:1016300038C9020040C9020048C9020050C902006E
:1016400058C9020060C9020068C9020070C90200DE
:1016500078C9020080C9020088C9020090C902004E
:1016600098C90200A0C90200A8C90200B0C90200BE
:10167000B8C90200C0C90200C8C90200D0C902002E
:10168000D8C90200E0C90200E8C90200F0C902009E
:10169000F8C9020000CA020008CA020010CA02000B
:1016A00018CA020020CA020028CA020030CA02007A
:1016B00038CA020040CA020048CA020050CA0200EA
:1016C00058CA020060CA020068CA020070CA02005A
:1016D00078CA020080CA020088CA020090CA0200CA
:1016E00098CA0200A0CA0200A8CA020024F04CFE58
:1016F000002800F02A83C549204624F045FE002832
:1017000000F02183C249204624F03EFE002800F06C
:101710001883C049204624F037FE002800F00F83CC
:10172000BD49204624F030FE002800F00683BB4966
:10173000204624F029FE002800F0FD82B84920460A
:1017400024F022FE002800F0F482B649204624F05E
:101750001BFE002800F0EB82B349204624F014FE63
:10176000002800F0E282B149204624F00DFE002856
:1017700000F0D982AE49204624F006FE002800F091
:10178000C583AC49204624F0FFFD002800F0BC834F
:10179000A949204624F0F8FD002800F0B383A749AA
:1017A000204624F0F1FD002800F0AA83A449204639
:1017B00024F0EAFD002800F0A183A249204624F08D
:1017C000E3FD002800F098839F49204624F0DCFDCB
:1017D000002800F08F839D49204624F0D5FD002885
:1017E00000F086839A49204624F0CEFD002800F0C0
:1017F0007D839849204624F0C7FD002800F07483BB
:101800009549204624F0C0FD002800F06B839349E1
:10181000204624F0B9FD002800F02D839049204691
:1018200024F0B2FD002800F024838E49204624F0E5
:10183000ABFD002800F01B838B49204624F0A4FD5B
:10184000002800F012838949204624F09DFD0028DD
:1018500000F009838649204624F096FD002800F018
:1018600000838449204624F08FFD002800F0F78291
:101870008149204624F088FD002800F0EE827F494F
:10188000204624F081FD002800F0E5827C492046B6
:1018900024F07AFD002800F0DC827A49204624F00A
:1018A00073FD002800F0D3827749204624F06CFDB8
:1018B000002800F0CA827549204624F065FD002802
:1018C00000F0C1827249204624F05EFD002800F03D
:1018D000B8827049204624F057FD002800F0AF82FE
:1018E0006D49204624F050FD002800F0A6826B4987
:1018F000204624F049FD002800F09D8268492046DA
:1019000024F042FD002800F094826649204624F02D
:101910003BFD002800F08B826349204624F034FD13
:10192000002800F082826149204624F02DFD002825
:1019300000F079825E49204624F026FD002800F060
:1019400070825C49204624F01FFD002800F0678269
:101950005949204624F018FD002800F05E825749BE
:10196000204624F011FD002800F0558254492046FD
:1019700024F00AFD002800F04C825249204624F051
:1019800003FD002800F043824F49204624F0FCFC70
:10199000002800F03A824D49204624F0F5FC00284A
:1019A00000F031824A49204624F0EEFC002800F085
:1019B00028824849204624F0E7FC002800F01F82D6
:1019C0004549204624F0E0FC002800F016824349F7
:1019D000204624F0D9FC002800F00D824049204622
:1019E00024F0D2FC002800F004823E49204624F076
:1019F000CBFC002800F0FB813B49204624F0C4FCCE
:101A0000002800F0F2813949204671E0B0CA020096
:101A1000B8CA0200C0CA0200C8CA0200D0CA020086
:101A2000D8CA0200E0CA0200E8CA0200F0CA0200F6
:101A3000F8CA020000CB020008CB020010CB020063
:101A400018CB020020CB020028CB020030CB0200D2
:101A500038CB020040CB020048CB020050CB020042
:101A600058CB020060CB020068CB020070CB0200B2
:101A700078CB020080CB020088CB020090CB020022
:101A800098CB0200A0CB0200A8CB0200B0CB020092
:101A9000B8CB0200C0CB0200C8CB0200D0CB020002
:101AA000D8CB0200E0CB0200E8CB0200F0CB020072
:101AB000F8CB020000CC020008CC020010CC0200DF
:101AC00018CC020020CC020028CC020030CC02004E
:101AD00038CC020040CC020048CC020050CC0200BE
:101AE00058CC020060CC020068CC020070CC02002E
:101AF00024F04AFC002800F07681E049204624F0DA
:101B000043FC002800F06D81DD49204624F03CFCB8
:101B1000002800F06481DB49204624F035FC0028D1
:101B200000F05B81D849204624F02EFC002800F00C
:101B30005281D649204624F027FC002800F0498134
:101B4000D349204624F020FC002800F04081D149F0
:101B5000204624F019FC002800F03781CE492046A9
:101B600024F012FC002800F02E81CC49204624F0FD
:101B70000BFC002800F02581C949204624F004FC14
:101B8000002800F01C81C749204624F0FDFB0028F6
:101B900000F01381C449204624F0F6FB002800F031
:101BA0000A81C249204624F0EFFB002800F00181A1
:101BB000BF49204624F0E8FB002800F0F880BD492A
:101BC000204624F0E1FB002800F0EF80BA492046CF
:101BD00024F0DAFB002800F0E680B849204624F023
:101BE000D3FB002800F09D80B549204624F0CCFBB3
:101BF000002800F09480B349204624F0C5FB00285B
:101C000000F08B80B049204624F0BEFB002800F095
:101C10008280AE49204624F0B7FB002879D0AC4939
:101C2000204624F0B1FB002871D0AA49204624F0B8
:101C3000ABFB002869D0A849204624F0A5FB00286A
:101C400061D0A649204624F09FFB002855D0A44926
:101C5000204624F099FB00280CBF04204FF0FF30F1
:101C600010BD012010BD102010BD042010BD0420A7
:101C700010BD042010BD202010BD042010BD042084
:101C800010BD102010BD4FF0FF3010BD202010BD42
:101C90004FF4807010BD4FF0FF3010BD102010BD0C
:101CA000802010BD102010BD4FF0FF307047102075
:101CB00010BD102010BD082010BD102010BD102038
:101CC00010BD082010BD082010BD102010BD102030
:101CD00010BD102010BD082010BD102010BD082020
:101CE00010BD102010BD102010BD102010BD04200C
:101CF00010BD202010BD102010BD102010BD0420EC
:101D000010BD102010BD102010BD082010BD0820EF
:101D100010BD102010BD042010BD082010BD1020E3
:101D200010BD102010BD102010BD102010BD0820C7
:101D300010BD102010BD102010BD102010BD1020AF
:101D400010BD102010BD102010BD102010BD10209F
:101D500010BD102010BD102010BD102010BD10208F
:101D600010BD102010BD102010BD802010BD10200F
:101D700010BD102010BD102010BD882010BD1020F7
:101D800010BD102010BD102010BD102010BD10205F
:101D900010BD102010BD102010BD102010BD10204F
:101DA00010BD042010BD082010BD102010BD102053
:101DB00010BD042010BD082010BD102010BD04204F
:101DC00010BD042010BD042010BD082010BD082047
:101DD00010BD102010BD082010BD082010BD082027
:101DE00010BD042010BD102010BD102010BD10200B
:101DF00010BD102010BD102010BD102010BD0820F7
:101E000010BD082010BD102010BD102010BD1020E6
:101E100010BD082010BD082010BD082010BD0820EE
:101E200010BD082010BD082010BD042010BD0420E6
:101E300010BD082010BD082010BD082010BD0820CE
:101E400010BD082010BD082010BD102010BD1020AE
:101E500010BD082010BD082010BD082010BD0820AE
:101E600010BD102010BD102010BD082010BD08208E
:101E700010BD082010BD102010BD00BF78CC02009E
:101E800080CC020088CC020090CC020098CC0200EA
:101E9000A0CC0200A8CC0200B0CC0200B8CC02005A
:101EA000C0CC0200C8CC0200D0CC0200D8CC0200CA
:101EB000E0CC0200E8CC0200F0CC0200F8CC02003A
:101EC00000CD020008CD020010CD020018CD0200A6
:101ED00020CD020028CD020030CD020038CD020016
:101EE00040CD0200102010BD102010BD102010BDEC
:101EF000082010BD102010BD102010BD042010BD02
:101F0000102010BD102010BD102010BD102010BDDD
:101F1000F8B51D4E04461D2700253A4631462E30A1
:101F200019F06AFF3A463146E564A4F8505004F1CE
:101F3000520019F061FF4FF4E13323604FF4164370
:101F400001214DF67C52A3604FF4964384F85E1154
:101F500062604FF4E1414FF4615223614FF4165334
:101F6000E16062614FF49651A3614FF416624FF441
:101F7000966384F8705084F84251A585E16122622D
:101F80006362A5622046F8BD48CD0200024B3122B3
:101F9000A3F87020704700BF1890FF1F044B054A3C
:101FA0001B68A2F870301B0C82F87230704700BFBB
:101FB0000CCA02001890FF1F024B3022A3F87020B9
:101FC000704700BF1890FF1F044B054A1B68A2F81A
:101FD00070301B0C82F87230704700BF04CA0200D8
:101FE0001890FF1F024B2322A3F87020704700BFF8
:101FF0001890FF1F044B18B13122A3F870207047CE
:102000003022A3F8702070471890FF1F024B002267
:1020100083F87020704700BF1890FF1F70B5114EF5
:102020002321304624F00CF858B1044606F1D200C2
:10203000FFF748F9002804DDA41B844201DAD02808
:1020400000DD70BD051B621C3146701923F02AFFAC
:10205000002DF6DD2A4630462021BDE8704023F0F1
:102060009DBF00BF8890FF1F30B55A4C83B004F16C
:102070004C0000258DF8075000F0D2F804F128003C
:1020800000F0CEF804F5A17104F128000DF107026B
:1020900000F02CF90DF1070204F5A17104F14C00D8
:1020A00000F024F99DF80730002B57D0D2222946A2
:1020B00004F1700023F072FF94F84231063B622B6A
:1020C00048D8DFE803F08347474747474747474734
:1020D0004747474747474747474747474747474790
:1020E0004747474780474747474747474747474747
:1020F0004747474747474747474747474747474770
:10210000477D7A7774716E6B474747474768474703
:102110004765625D5A5747544747474747474747D0
:10212000474747474747475132000AF07DFD94F83B
:1021300070307BB1FFF772FF27499DF80720A1F1AE
:10214000240000F0E7F824499DF80720A1F1480099
:1021500000F0E0F8214B93F850350BB903B030BDD7
:1021600012F09AFC03B030BD03F0D2F8DFE70AF0BA
:10217000EBF8DCE709F0F8FED9E709F035F8D6E727
:102180000DF1070006F07CF9D1E705F09BFDCEE7E5
:1021900005F03AFDCBE705F01BF9C8E701F0B0FC0C
:1021A000C5E701F0A7FBC2E700F056FEBFE700F06D
:1021B00025FEBCE700F0CCFBB9E700F067FBB6E713
:1021C00000F0C6F8B3E70AF0F7FCB0E700F038FB20
:1021D000ADE700BF1890FF1F8890FF1F5892FF1FA8
:1021E00008B519F08BFD19F089FD0948FFF790FE3D
:1021F000084B0022002000211A60C3E90601C3E950
:102200000801C3E90A019A605A60DA6008BD00BF9C
:102210001890FF1F7891FF1F01600271704700BF87
:102220002DE9F041304E0446002500F107082068F2
:1022300003681B69984700282CDD677957BB206825
:1022400003685B699847C0B206281CD0831FDBB2C5
:102250001A2B21D826FA03F3DB0712D494F8222094
:10226000531CDBB22244E118162B90718F7136D8C3
:10227000232884F8223004D1012B1CD884F8225062
:10228000A5716771D3E794F82230002BF9D10123AF
:102290006371E080BDE8F08194F82220531C224451
:1022A000DBB29071E218162B9771E1D9162323281F
:1022B00084F82230E5D1A2793A2ADFD1013B2344C8
:1022C0009A79232ADAD19D71404624F039FA012700
:1022D000421C4146A01D23F0E5FD6771A7E71623C8
:1022E00084F822306771A2E791000004437983B13A
:1022F00070B51678154606B170BD04460846A11D96
:1023000024F0ACF9237984F82260A67166712B70F1
:1023100070BD70470379934200D0704770B5046870
:102320000D4651B1084624F00BFA236802462946AF
:1023300020465B68BDE87040184770BD08B519F0CD
:10234000DDFCBDE8084019F0D9BC00BFFFFFFFFF6E
:102350002DE9F04F784D95F843312A3BBBB02D2B3A
:102360002FD8DFE813F0FB002E002E002E002E00E9
:102370002E009C0133003300330033003300330060
:102380003300330033002E002E002E002E002E00CE
:102390002E002E00CB00B901CB002E00DE012E0056
:1023A0002E002E002E002E002E002E002E002E00BD
:1023B0002E002E002E002E002E002E002E002E00AD
:1023C000FE013BB0BDE8F04FFFF720BE72B65B4B9D
:1023D000186862B65A4B984205DDA0F50300A0F5D7
:1023E00056409842F9DC21F0B5FB5649564C21F095
:1023F000B9FC564921F002FC20F052FF544B002258
:1024000020F0A6FFD4E9D42320F0EAFD16F0D0F99D
:10241000504BD3E9026746A3D3E9002320F098FF8D
:10242000CDE9020142A3D3E90023D4E9D20120F08F
:102430008FFF0022CDE90001002314A815F0C0FA97
:1024400021460EA80CF094FE39A3D3E900233046B0
:10245000394620F07DFF0DF1380C80468946BCE8F6
:102460000F00EE46AEE80F009CE803004B468EE8F6
:102470000300424614A92CA815F0F2FA94F8183378
:10248000002B00F07881304920A80DF0D9FE2CA84F
:1024900015F072FC80462CA8894615F059FC20AB3B
:1024A000CDE90601184615F00BFD20AB8246184613
:1024B0008B4615F0FBFCDDE90623CDE90401CDE9EF
:1024C0000023CDE902AB4B462348424618F0A8FE54
:1024D00094F81933002B40F05F8195F843312F3B7E
:1024E0000122DBB2002184F82B2384F82C3384F8FA
:1024F0003610FFF74BFD3BB0BDE8F08F124C0120CA
:102500000AF03AFD20460CF01BFE95F84331A3F18A
:102510004103B3FA83F300225B0984F82A3384F879
:102520002B2384F82C233BB0BDE8F04FFFF72EBDE2
:10253000000000A046DF913F1890FF1F7891FF1F19
:1025400000D6830000D6034B5892FF1F0000C04105
:1025500000002E401092FF1FA093FF1FAA4C0120E5
:102560000AF00AFD04F5AB6001210CF0FBFE0A2025
:102570001AF0A6F994F86834002B40F00981A248BB
:1025800010F0B2FC94F8303307461BB1002284F8F7
:1025900030231F4672B69D4B186862B69C4B98421A
:1025A00005DDA0F50300A0F556409842F9DC21F0C6
:1025B000D1FA984921F0D6FB974921F01FFB20F072
:1025C0006FFE964B002220F0C3FED4E9D42320F006
:1025D00007FD16F0EDF8924BD3E9028982A3D3E907
:1025E000002320F0B5FECDE902017FA3D3E900234B
:1025F000D4E9D20120F0ACFE0022CDE90001002395
:1026000014A815F0DDF908A87F490CF0B1FD76A3F8
:10261000D3E900234046494620F09AFE08AD8046A3
:1026200089460FCD6E460FC695E803004B4686E8F7
:102630000300424614A92CA815F012FA3A462CA918
:1026400071480DF0FDFA20A86F490DF0F9FD2CA896
:1026500015F092FB82462CA88B4615F079FB0646B6
:1026600020A80F4615F02CFC804620A8894615F0BE
:102670001DFC5246CDE904015B466A48CDE902895A
:10268000CDE9006718F0CCFD0122022384F82B234A
:1026900084F82C33FFF77AFC3BB0BDE8F08F5A4C3E
:1026A00001200AF069FC20460CF04AFD012104F5E6
:1026B000AB600CF057FE0A201AF002F994F8683467
:1026C000002B61D1012384F82B3384F82C333BB0E9
:1026D000BDE8F04FFFF75ABC00231A461946059390
:1026E000049303930293019300934E4818F0ECFA7D
:1026F000454B002400260027C3E9C86783F8194327
:10270000C42083F8284383F82B4383F82C430AF032
:10271000E7FB214619F042FB3BB0BDE8F04FFFF765
:1027200035BC394991F8193313B331A3D3E90023E8
:10273000D1E9C80120F00CFE3B4C0123CDE92C016E
:1027400000932CA90022204615F0C2FE204623F05B
:10275000F7FF3649022220443BB0BDE8F04F19F0A4
:102760004BBB0AF021FF3BB0BDE8F04FFFF70EBCBA
:1027700000200021E0E7204610F0B6FB2CA902461D
:1027800020460DF05DFA7EE6204611F0CDFC99E77B
:10279000204611F0C9FCF2E6224818F021FCA37D86
:1027A000012B12D0002200231E4818F0BFFB164850
:1027B00010F09AFB2CA9024613480DF041FA0123B0
:1027C000002284F8283313468CE63046394600222E
:1027D000002321F043F818B107A3D3E90023E3E76E
:1027E00007A3D3E90023DFE7000000A046DF913F05
:1027F00000000020DCA54C4000000060FB21F93FF8
:1028000000000060FB21F9BF5892FF1F7891FF1F65
:1028100000D6830000D6034B0000C04100002E40CC
:102820001092FF1FA093FF1F8890FF1FCCC90200CA
:1028300008B519F063FABDE8084019F05FBA00BFA7
:102840000C4B9B7D022B0DD005D8012B0ED10A4BD2
:1028500047221A807047033B012B07D8064B4122C1
:102860001A807047044B50221A807047024B4C224A
:102870001A8070475892FF1F8890FF1F08B519F003
:102880003DFABDE8084019F039BA00BF10B5294B30
:1028900093F843312B2B27D02D2B24D1264CD4F861
:1028A0001417FF2935DC1E2940DC1F212D2BC4F80D
:1028B00014172FD02B2B0FD1084621F04BF91F49AD
:1028C00021F09CF921F076FB0146C4F81407FF299A
:1028D00011DDFF21C4F81417062019F04FFEBDE8E2
:1028E0001040FFF793BB10BD134CD4F81417FF2909
:1028F000D9DDFF21E0E71E29D8BF1F214FF00600D8
:10290000D8BFC4F8141719F039FEBDE81040FFF71E
:102910007DBBFF21084621F01DF9084921F022FA6C
:1029200021F048FB0146C4F81407D0E72D2BC1D194
:10293000F0E700BF1890FF1F5892FF1F3333B33FDB
:1029400008B519F0DBF9BDE8084019F0D7B900BFA8
:102950002DE9F04FBC4CB3B0204610F0A9FA10B1ED
:1029600033B0BDE8F08F204610F0B2FA0028F7D15E
:10297000B64D95F84331412B09D04D3BDBB2082BC6
:10298000EED840F2411222FA03F3DB07E8D5AE4855
:1029900010F0AAFA94F8303380461BB1002284F874
:1029A0003023984695F84331413B142BD8D801A2E7
:1029B00052F823F0752C0000612900006129000005
:1029C00061290000612900006129000061290000DF
:1029D00061290000612900006129000061290000CF
:1029E00061290000092A0000612900006129000016
:1029F000612900006129000061290000092A000006
:102A000061290000292B000094F82A33002B00F0E4
:102A1000508172B68E4B186862B68E4B984205DDB7
:102A2000A0F50300A0F556409842F9DC21F092F899
:102A3000894921F097F9894921F0E0F820F030FC2C
:102A4000874B002220F084FCD4E9D42320F0C8FA7C
:102A500015F0AEFE7AA3D3E9002320F079FC78A329
:102A6000D3E90023CDE90201D4E9D20120F070FCC2
:102A70000022CDE9000100230CA814F0A1FF794940
:102A80006FA3D3E90023D1E9020120F061FC0646DF
:102A90000F4606A86C490CF06BFB0DF1180CBCE856
:102AA0000F00EE46AEE80F009CE803003B468EE8C0
:102AB000030032460CA924A814F0D2FF94F818336E
:102AC000002B00F05D81604918A80DF0B9FB24A827
:102AD00015F052F9064624A80F4615F039F982463A
:102AE00018A88B4615F0ECF9804618A8894615F011
:102AF000DDF93B46CDE90401CDE90289CDE900AB22
:102B00005948324618F08CFB94F81933002B40F0EA
:102B10001D8195F843314D2B00F011814A4833B0A7
:102B2000BDE8F04F11F000BB0E200AF0D9F90646BF
:102B300019F01AF9002560F30705701C19F014F953
:102B400060F30F25B01C19F00FF90346F01C63F376
:102B5000174519F009F960F31F65284620F0A0FB1E
:102B600002460B461220C4E9D4230AF0B9F90646FE
:102B700019F0FAF8002560F30705701C19F0F4F855
:102B800060F30F25B01C19F0EFF80346F01C63F357
:102B9000174519F0E9F860F31F65284620F080FB1F
:102BA000C4E9D20172B62A4B186862B6294B984222
:102BB00005DDA0F50300A0F556409842F9DC20F0B1
:102BC000C9FF254921F0CEF8244921F017F820F05B
:102BD00067FB234B002220F0BBFBD4E9D42320F079
:102BE000FFF915F0E5FD16A3D3E9002320F0B0FBB3
:102BF00013A3D3E90023CDE90201D4E9D20120F0E7
:102C0000A7FB0022CDE90001002324A814F0D8FE80
:102C100014490BA3D3E90023D1E9020120F098FB6A
:102C20004246CDE90001084824A90CF0E5FF0F4A0F
:102C30000F4B92E803001860197191E6AFF3008022
:102C4000000000A046DF913F5892FF1F1890FF1F21
:102C50007891FF1F00D6830000D6034B0000C041CF
:102C600000002E401092FF1FA093FF1F68CD0200AE
:102C70008890FF1F012104914DA3D3E90023D4E9DB
:102C8000D00120F065FB4AA3D3E90023CDE902017E
:102C9000D4E9CE0120F05CFB0022CDE90001002345
:102CA00024A814F09DFF424624A947480CF0C8FF11
:102CB000BDE772B6454B186862B6454A904205DDDD
:102CC000A0F50300A0F556409042F9DC20F042FF49
:102CD000404921F047F8404920F090FF20F0E0FA09
:102CE0003E4B002220F034FBD4E9D42320F078F9C5
:102CF00015F05EFD2EA3D3E9002320F029FB2CA3C1
:102D0000D3E90023CDE90201D4E9D20120F020FB70
:102D10000022CDE90001002324A814F051FE30491F
:102D200023A3D3E90023D1E9020120F011FB42469D
:102D3000CDE9000124A924480CF05EFFE9E6294B07
:102D400093E80300286785F87410E7E6264818F032
:102D500047F9A37D012B19D000220023224818F047
:102D6000E5F8194810F0C0F824A9024616480CF0FE
:102D700067FF0122002384F8282384F82A33C8E659
:102D8000424624A910480CF05BFF9CE6144B00223D
:102D9000D3E90201002320F061FD18B106A3D3E9B5
:102DA0000023DBE706A3D3E90023D7E7AFF30080D6
:102DB000000000A046DF913F00000060FB21F93FCA
:102DC00000000060FB21F9BF5892FF1F7891FF1FA0
:102DD00000D6830000D6034B0000C04100002E4007
:102DE0001092FF1F68CD0200A093FF1F08B518F0D6
:102DF00085FFBDE8084018F081BF00BF10B50D4C3D
:102E000094F8433103B110BD0B4810F05BF868B182
:102E10007F23A4F87030094C204623F091FC084928
:102E200020440222BDE8104018F0E6BF84F870008C
:102E3000F1E700BF1890FF1F5892FF1F8890FF1FF7
:102E4000CCC9020008B518F059FFBDE8084018F0D9
:102E500055BF00BFFFFFFFFF2DE9F04FAE4A92F8CC
:102E60004331413BA3B00C2B13D8DFE803F007122A
:102E70007C2C1212121212121212170092F8443104
:102E8000512B00F03882532B00F0CE81452B00F0FF
:102E9000638123B0BDE8F04FFFF7B8B892F8443132
:102EA000532B78D0412B00F02083552B00F0578313
:102EB000512BEED1994B002283F8362023B0BDE888
:102EC000F04FFFF763B8954C94F83630012B00F0C3
:102ED000C380022B57D1D4E9D0018DA3D3E90023BD
:102EE0000125049520F034FACDE9020188A3D3E945
:102EF0000023D4E9CE0120F02BFA14AECDE9000175
:102F000000220023304614F06BFE20460FF0ECFF49
:102F100012AA10AB0C920B930A9018AD0FCD6C4611
:102F20000FC40FCD0FC495E8030084E8030096E8B2
:102F30000F0011F0D5FB7A490446109820F05EFE90
:102F400021F038F876490546129820F057FE21F016
:102F500031F8744900902B467348224622F03CFF1A
:102F600023B0BDE8F08F92F84431532B00F09781E5
:102F7000542B00F0E980452B00F08D8123B0BDE893
:102F8000F04FFFF72FB80023664900931A466648B2
:102F900022F022FFE4E772B6644B186862B6644B15
:102FA000984205DDA0F50300A0F556409842F9DCF3
:102FB00020F0D0FD5F49594F20F0D4FE5E4920F04B
:102FC0001DFE20F06DF95D4B002220F0C1F9D7E91C
:102FD000D42320F005F815F0EBFB4DA3D3E9002333
:102FE00020F0B6F9CDE9020149A3D3E90023D7E9DE
:102FF000D20120F0ADF914AECDE90001002200238A
:10300000304614F0DDFC38460FF06EFF12AB0D9326
:103010004B4910AB0C9380463DA3D3E90023D1E983
:10302000020120F095F9CDE90A01CDF8208018AD14
:103030000FCD6C460FC495E80F0084E80F0096E8AA
:103040000F0011F0E3FC3F490246374822F0C4FE6E
:10305000012387F8363083E772B6344B186862B6BE
:10306000334B984205DDA0F50300A0F55640984289
:10307000F9DC20F06FFD2F4920F074FE2E4920F07E
:10308000BDFD20F00DF92D4B002220F061F9D4E9AF
:10309000D4231FF0A5FF15F08BFB1DA3D3E900235C
:1030A00020F056F902460B46D4E9D201CDE90223BD
:1030B00017A3D3E9002320F04BF914AECDE90001AA
:1030C00000220023304614F07BFC14480FF00CFF64
:1030D00012AC1B490D94074610ACD1E902010CA3B8
:1030E000D3E900230C9420F033F9CDE90A010897C5
:1030F00018AD0FCD6C460FC495E80F0084E80F00A3
:1031000096E80F0011F082FC15E700BFAFF30080D6
:10311000000000A046DF913F1890FF1F5892FF1F4C
:103120000000704270CD02008890FF1F7891FF1F51
:1031300000D6830000D6034B0000C04100002E40A3
:103140001092FF1F80CD0200B9480CF089FD23B01A
:10315000BDE8F04FFEF722BFB54C10A9204614ABD6
:1031600012AA0DF067F894F8FBA4DDE91001BAF19A
:10317000000F40F0C7804FF0000A94F81B35DDE9DE
:103180001267002B00F0AE81D4F82C351A7C012A8E
:1031900040F2468372B6D3F80CB062B6D4F8283544
:1031A0000F93ABEB0305284620F068F8A14B80464F
:1031B000D3E900233046894639461FF011FF0F9AA4
:1031C0005A4506460F4600F08D810022002320F06C
:1031D00027FB002840F08681964B002DA3F1100BB1
:1031E0004FF000024FF0000339463046D4BF0025AF
:1031F000012520F03DFB002818BF85F0010584F86B
:10320000195532463B464046494620F0CBF921F05D
:103210000041C4F81005CBF80410BAF1000F00F01B
:103220006181FEF7BBFE9BE6814C0023204684F8BB
:10323000ED340CF009FE14AB12AA10A920460CF0D4
:10324000F9FFDDE9100104F5A062C2E90001D4F83C
:103250000C351A7C012A40F2FD8072B6DA6862B63B
:10326000DDE91201734DC4F808250123C5E9000109
:1032700084F8FB34D4F82C351A7C012A40F21182F0
:1032800072B6DA6862B60123C4F8282584F81B35C3
:10329000FEF784FE64E666480CF0D6FD57E7644C02
:1032A00094F83630012B6FD0022B7FF450AFD4E965
:1032B000D0015DA3D3E900230125049520F048F84F
:1032C000CDE9020158A3D3E90023D4E9CE0120F0CF
:1032D0003FF80023CDE90001002214A814F080FC7F
:1032E00020460FF001FE14A9024620460CF0A8FC6F
:1032F000FEF754FE34E64E4B002283F8FB2483F89D
:103300001B2524E7D4F80C351A7C012A40F22182CF
:1033100072B6D3F80C9062B6474DD4F80885D5E95B
:1033200000231FF05DFEC84506460F463FF423AF5D
:103330000022002320F074FA00287FF41CAFA9EBD0
:103340000808B8F1000F4FF000024FF000033946B3
:103350003046D4BF4FF000094FF0010920F088FA41
:10336000002818BF89F0010984F8F99440461FF03D
:1033700085FF32463B4620F015F921F00041C4F8A4
:10338000F00445F80C1CF8E672B62C4B186862B6CF
:103390002B4B984205DDA0F50300A0F5564098425E
:1033A000F9DC20F0D7FB274920F0DCFC264920F08F
:1033B00025FC1FF075FF254B00221FF0C9FFD4E943
:1033C000D4231FF00DFE15F0F3F917A3D3E9002362
:1033D0001FF0BEFF02460B46D4E9D201CDE902231D
:1033E00011A3D3E900231FF0B3FF0022CDE90001B0
:1033F000002314A814F0E4FA0D480FF075FD1449E9
:1034000009A3D3E900230446D1E902011FF0A0FF7C
:1034100006460F46CDE90067224614A904480CF081
:10342000EBFBFEE6AFF30080000000A046DF913F1B
:103430005892FF1F7897FF1F5897FF1F7891FF1F23
:1034400000D6830000D6034B0000C04100002E4090
:103450001092FF1F72B61A68586811781A7A0078AD
:1034600011405A7A104200F06B819A7A02F00302FE
:1034700009B142F0040242F008029108013A99723F
:103480000D2A3FF6EBAE01A151F822F0CD34000039
:10349000C5340000DD340000C53400005D3200009A
:1034A000D5340000CD340000CD340000D534000008
:1034B0005D320000C5340000DD340000C53400007A
:1034C000CD340000DA68013ADA60C8E6DA68013221
:1034D000DA60C4E6DA68023ADA60C0E6DA68023234
:1034E000DA60BCE6FEF770FD3AE5BB4FB8A3D3E95E
:1034F0000023D7E9D001012404941FF029FFCDE96E
:103500000201B3A3D3E90023D7E9CE011FF020FFC6
:1035100014AECDE9000100220023304614F060FB18
:1035200038460FF0E1FC12AB0C9310AB0B930A90F2
:1035300018AD0FCD6C460FC40FCD0FC495E8030036
:1035400084E8030096E80F0011F0CAF8A349024688
:10355000A34822F041FC022387F8363000E50E2014
:1035600009F0BEFC044618F0FFFB00250346601C72
:1035700063F3070518F0F8FB0346A01C63F30F255F
:1035800018F0F2FB0346E01C63F3174518F0ECFB60
:1035900060F31F6528461FF083FE8F4C02460B46E2
:1035A0001220C4E9D42309F09BFC064618F0DCFB8A
:1035B00000250346701C63F3070518F0D5FB60F384
:1035C0000F25B01C18F0D0FB0346F01C63F3174521
:1035D00018F0CAFB60F31F6528461FF061FEC4E9BE
:1035E000D20172B67F4B186862B67F4B984205DDF8
:1035F000A0F50300A0F556409842F9DC20F0AAFAA5
:103600007A4920F0AFFB7A4920F0F8FA1FF048FE23
:10361000784B00221FF09CFED4E9D4231FF0E0FC7D
:1036200015F0C6F86AA3D3E900231FF091FECDE997
:10363000020167A3D3E90023D4E9D2011FF088FE79
:1036400014AFCDE9000100220023384614F0B8F988
:1036500061480FF049FC12AB0D93674910AB0C9316
:1036600080465BA3D3E90023D1E902011FF070FE7D
:10367000CDE90A01CDF8208018AE0FCE6D460FC5FA
:1036800096E80F0085E80F0097E80F0011F0BEF9EB
:1036900052490246524822F09FFB012384F83630FB
:1036A0005EE472B61A68586811781A7A0078114088
:1036B0005A7A10423CD09A7A02F0030209B142F0E1
:1036C000040242F008029108013A99720D2A3FF66D
:1036D000D8AD01A151F822F01937000011370000D0
:1036E0002937000011370000833200002137000025
:1036F000193700001937000021370000833200001D
:103700001137000029370000113700001937000079
:10371000DA68013ADA60B5E5DA680132DA60B1E513
:10372000DA68023ADA60ADE5DA680232DA60A9E511
:103730009A7A02F003020029C5D042F00402C2E7DF
:103740009A7A02F0030200293FF497AE42F0040295
:1037500093E672B61A6815785A6816781A7A154080
:103760005A7A164200F0B4809A7A02F003020DB140
:1037700042F0040242F008029508013A9D720D2AB7
:103780003FF6C7AD01A555F822F000BFFD37000098
:10379000C537000015380000C5370000133300009E
:1037A00009380000FD370000FD370000093800002F
:1037B00013330000C537000015380000C53700007E
:1037C000FD370000DA6802F1FF39C3F80C90A2E57A
:1037D000000000A046DF913F5892FF1F80CD0200FD
:1037E0008890FF1F7891FF1F00D6830000D6034BFF
:1037F0000000C04100002E401092FF1FDA6802F165
:103800000109C3F80C9086E5DA68A2F10209C3F851
:103810000C9080E5DA6802F10209C3F80C907AE5B1
:1038200072B61A6811785A6810781A7A11405A7A62
:10383000104245D09A7A02F0030209B142F0040224
:1038400042F008029108013A99720D2A3FF6A3ACA2
:1038500001A151F822F000BF9D380000913800000E
:10386000B53800009138000097310000A9380000F9
:103870009D3800009D380000A938000097310000F5
:1038800091380000B5380000913800009D380000E4
:10389000DA6802F1FF3BC3F80CB07EE4DA6802F1AB
:1038A000010BC3F80CB078E4DA68A2F1020BC3F89C
:1038B0000CB072E4DA6802F1020BC3F80CB06CE4ED
:1038C0009A7A02F003020029BCD042F00402B9E760
:1038D0009A7A02F00302002D3FF44EAF42F0040248
:1038E0004AE700BF08B518F009FABDE8084018F02B
:1038F00005BA00BF2DE9F0435F4B93F837508BB00A
:1039000055B95E4B93F843313F2B00F0A7800BB0C5
:10391000BDE8F043FEF77ABB00233A22CDE902234B
:1039200004930593069307930893ADF8243019F098
:10393000D5FF01E01AF00AF819F0F4FF0028F9DCCD
:1039400002AF384622F0FCFE4D494C4E384422F07E
:1039500055FC4C490222C41B18F04EFA96F843312C
:10396000572B29D83E2B12D8213BDBB2172B09D875
:103970004549012202FA03F3194081BB41F2094291
:10398000134212D1FEF742FB0BB0BDE8F0833F3B80
:103990003E49DBB2012202FA03F31940F1B93C4A75
:1039A0001A40E2B93B4A1342ECD0611C384619F088
:1039B0000DFF19F093FFE5E7613BDBB21D2BE1D86A
:1039C000012202FA03F3344A1A4008D133490B4268
:1039D00004D1334A1A40002AD4D0E6E70025DFF8A4
:1039E000C4803846611C19F0F1FE19F077FFD8F851
:1039F00000300093009FD8F800300193019B07F539
:103A0000FA779F4225D900244FF4965914E019F013
:103A10009DFF3319C0B2013483F870001DBB232809
:103A200027D0D02C15DC331983F87050D8F800302B
:103A30000193019B9F420CD919F074FF0028E6DC2A
:103A40004B46013BFDD1D8F800300193019B9F42CA
:103A5000F2D8FEF7B1FA0BB0BDE8F0830BB0BDE8C9
:103A6000F043FEF7B1BA0022312883F871208BD0E1
:103A7000EFE783F8715087E75892FF1F1890FF1FF8
:103A80005A91FF1FCCC902000080FF000540800052
:103A90001004010100011600045102000100802001
:103AA000400004006C9CFF1F08B518F027F9BDE822
:103AB000084018F023B900BF70B5044682B0D0E9C1
:103AC000000114F07BFE0B4D95F8EE600122C4E975
:103AD0000001002321460096284614F0F9FC2846F0
:103AE00022F02EFE04490222284402B0BDE87040B4
:103AF00018F082B98890FF1FCCC90200FFFFFFFFBA
:103B00002DE9F047924C94F84321A2F1280392B09A
:103B10004C2B00F29980DFE813F0EB00D9009700FE
:103B200097009700970097009700970097009700DD
:103B300097009700970097009700970097009700CD
:103B4000970097009700970097009700D90097007B
:103B50003502EB00970097009302970097009700BB
:103B600097004D009C009C009C0097009700EB0084
:103B7000A402FB0197002F010502CB029700D90098
:103B80009700970097009700970097004D009700C7
:103B9000C201B201A8019701C601DC02970097009B
:103BA000970097007102A002F50197009700E001CD
:103BB0009700D00218F07EFC664B67490446D86A2D
:103BC00020F01CF820F0F6F90346DB17201A634CAE
:103BD00063EB4301C4E9040111F096FE0646D4E903
:103BE000040111F065FE1FF0B5FF5D4920F0BAF841
:103BF000054630461FF0AEFF014628461FF0F6FE90
:103C00000546D4E9040111F069FE1FF0A3FF5249F3
:103C100020F0A8F829461FF0E9FE1FF041FB514DA6
:103C200002460B462146E1E908230122284614F00A
:103C3000B3FB284622F084FD4B490222284412B0EF
:103C4000BDE8F04718F0D8B812B0BDE8F047FEF76D
:103C5000C9B9A2F14D05454F05EB45086FF059066E
:103C600008EBC808361B07F10F094644BA4606EBB5
:103C70000A0018F079F80AF8010F002800F0AD8268
:103C8000D145F4D13A4937482A4622F0A5F83548BB
:103C900022F056FD0E2817D8324E002508F11508DF
:103CA00008EB0504204618F05FF817F8019F8145DE
:103CB00005F101054946204601D018F06FF830465D
:103CC00022F03EFD8542EBDD264DB5E7294904A8EB
:103CD0000CF058FC94F84331412B00F00B835A2B25
:103CE00000F03F83292B00F0628312B0BDE8F0871B
:103CF000184913A3D3E90023D1E902011FF028FBDF
:103D00000B4602461B4904A80CF0CEFA94F8433146
:103D1000522B00F09282442B00F02E83282BE4D10A
:103D200004A813F025FF08A3D3E900231FF010FB1C
:103D300002460B4602A8CDE90223FFF7BDFED4E7F9
:103D4000000000A046DF913F00000020DCA54C40B1
:103D50001890FF1F1092FF1F000061457891FF1F10
:103D6000000070428890FF1FCCC902008790FF1F9F
:103D7000C4CD02005892FF1F94F84431423B2E2BD1
:103D80003FF662AF01A252F823F000BFB741000036
:103D9000493C00009D410000493C0000493C0000B6
:103DA000493C0000493C0000493C0000493C0000FF
:103DB000493C0000493C0000493C000089410000AA
:103DC000493C00000D410000493C0000493C000016
:103DD000493C0000FB400000493C0000493C000019
:103DE000493C0000493C0000493C0000493C0000BF
:103DF000493C0000493C0000493C0000493C0000AF
:103E0000493C0000493C0000493C0000F3400000F0
:103E1000493C0000493C0000493C0000493C00008E
:103E2000493C0000493C0000493C0000493C00007E
:103E3000493C0000493C0000493C0000493C00006E
:103E4000493C0000DF400000B14BD3E9DC011FF02A
:103E500077FD04AB0022002118F05AF904A9AD48FF
:103E600022F0CCF9AC490222E9E6AC4BAC49B3F9FB
:103E70001820A84812B0BDE8F04721F0ADBF94F873
:103E800044314C2B00F0D481A24D94F85E01009097
:103E9000A44900220123284614F01AFBC9E69D4BD1
:103EA000A14A1A6021E794F84401A049994CA0F175
:103EB00066000123B0FA80F040091A4600902046BF
:103EC00014F006FB204622F03BFC934902222044DA
:103ED00012B0BDE8F04717F08FBF94F844314C2B77
:103EE00000F0A1818A49924B8A4D0022D1E9D40188
:103EF0001FF058FB0F460646CDE9046794F85E2193
:103F000004A993E6824B8B49D3F82C218148B1E771
:103F10007F4C94F87A33002B40F0C88100200522B2
:103F200004AB98E77A4EB47D022C00F0CF8100F20A
:103F30004681012C40F0D481764D284622F000FCC9
:103F40007D490222284417F057FF96F87A337148CA
:103F5000002B00F04C8122F0F3FB78490222284428
:103F600017F04AFF6A480EF0ABFF002800F04781C7
:103F7000684822F0E5FB72490222284417F03CFF12
:103F8000644857E618F096FA644B6E496E4D044645
:103F9000D86A1FF033FE20F00DF80346DB17201A15
:103FA00063EB4301C5E9040111F0DAFC0446D5E9ED
:103FB000040111F067FC0646D5E9040111F0BAFCD2
:103FC0000746D5E9040111F09FFCD5E9040111F081
:103FD0006FFCD5E9040111F081FC5C4A4D4882FB7D
:103FE0000412E317C3EB6213642202FB1344584923
:103FF00000943B46324621F0EFFE76E64448454DBC
:104000000EF072FF534B1B682B801A0C0128AA700C
:1040100000F085810228B3D13D480EF079FF0028D9
:1040200040F0F6813D490023D1E9020100221FF052
:1040300015FC002814BF5723452384F870309FE7F0
:10404000364BD86A1FF02CF90B46434902463148DB
:1040500012B0BDE8F04721F0BFBE404A40492D48AC
:1040600008E772B6384B186862B63E4B984205DDD9
:10407000A0F50300A0F556409842F9DC1FF06AFD58
:1040800039491FF06FFE39491FF0B8FD1FF008F9DC
:1040900094F8444102460B464C2CCDE9042300F031
:1040A00000811C4C012204A9204614F075F909E78F
:1040B00012B0BDE8F04701F023BF94F844012C4949
:1040C000144CA0F16600B0FA80F0400900220123F0
:1040D000F4E60F4B2749D3F828210E48CAE6264AB2
:1040E0000C4B07CA03C318460B4900F8012B0222E8
:1040F000A5E5224907480322BCE6214A054B92E880
:104100000300232283E803001A81EEE51D4AE7E756
:104110005892FF1F8890FF1FCCC902001092FF1F0A
:10412000A8CD0200A095FF1F323423002092FF1F6C
:1041300000002E40D4CD020028CE020030CE020076
:1041400038CE0200000061457891FF1F1F85EB51BA
:1041500084CD0200CCCD0200B0CD02002A92FF1F18
:10416000D0CD020000D6830000D6034B0000C04132
:104170001892FF1FBCCD020008CE020020CE020024
:1041800014CE0200FCCD0200AF4AB04B92E803000F
:10419000022218601971581DAD4950E5AD4AAB4B6C
:1041A00007CA03C323F8022B1846140CA84900F8C9
:1041B000014B022243E5A849A448F0225AE6033CF9
:1041C000012C00F28D80A14D284622F0B9FAA349B6
:1041D0000222284417F010FEB7E694F87030002B46
:1041E0003FF450AD994D284622F0AAFA24E522F07A
:1041F000A7FA9B490222284417F0FEFDB2E699482F
:104200000EF056FE002840F0A38096F828338F4821
:10421000002B00F0958022F093FA93490222284463
:1042200017F0EAFDACE68F4B9049D3E9D4230EE7B3
:104230008C4B8E49D3E9D22309E794F844314C2BB7
:1042400000F0B98072B68A4B186862B6894B984202
:1042500005DDA0F50300A0F556409842F9DC1FF0FB
:1042600079FC8549794D1FF07DFD84491FF0C6FC1E
:104270001FF016F86CA3D3E900231FF069F802467B
:104280000B4604A813F088FC69A3D3E900231FF0B0
:104290005FF80F460646CDE9026794F85E2102A951
:1042A000C4E47749694821F097FD1EE520460EF0E9
:1042B00009FE00287FF432AE5FA3D3E90023D4E9DE
:1042C000E0011FF045F81FF03BFB28E65F4D284654
:1042D00022F036FA6B492246284417F08DFD34E669
:1042E0005A4D284622F02CFA67490222284417F03A
:1042F00083FD2AE604A813F02BFD51A3D3E9002384
:104300001FF026F8514D94F85E410094CDE902016A
:104310000022012302A9284614F0DAF889E4514862
:104320000EF0F6FD002875D158490023D1E90201AD
:1043300000221FF093FA002814BF452357237CE680
:1043400022F0FEF952490222284417F055FD17E6E3
:104350003E4822F0F5F94B490222284417F04CFD63
:104360000EE604A813F0F8FC35A3D3E900231EF0F1
:10437000EFFF14F03DFADBE404A813F0FDFB30A3DB
:10438000D3E900231EF0E4FF94F8445102460B46A3
:104390004C2DCDE902233FD02C4D94F85E010090C6
:1043A000002202A90123284614F092F841E404A84F
:1043B00013F0CAFCB7E472B62D4B186862B62D4BE9
:1043C000984205DDA0F50300A0F556409842F9DCBF
:1043D0001FF0C0FB28491FF0C5FC28491FF00EFC48
:1043E0001EF05EFF10A3D3E900231EF0B1FF0246CA
:1043F0000B4604A813F0D0FB11A3D3E900231EF051
:10440000A7FF02460B461148224921F0E5FC6CE467
:10441000572312E6452310E614490C4821F0DCFC32
:1044200063E400BFAFF300800000004052C1D03F02
:10443000000000A0C88E0E40000000E006154E40AF
:1044400000000020DCA54C40F4CD02008890FF1F46
:10445000CCC90200E8CD020020CE0200A8CF0200A5
:1044600034CE02005892FF1FE4C802009CCD020027
:104470007891FF1F00D6830000D6034B0000C04197
:10448000DCCD020024CE02002CCE02001092FF1FD1
:10449000F8CD020094CD020008B517F02FFCBDE85E
:1044A000084017F02BBC00BF2DE9F04F87B018F083
:1044B00001F80021044611F053FA00210646204677
:1044C00011F0E0F900210546204611F033FA6B1E89
:1044D000012B98BF06F1FF368046304698BF0C3559
:1044E0001FF038FBD64906461FF03CFC1BF002FECD
:1044F000D449074630461FF035FC1BF0FBFDD2497E
:10450000034630461E461FF079FB1BF0F3FD814643
:1045100028461FF01FFB4FF07E511FF067FACB4972
:104520001FF06CFB1BF0E6FD394605464FF080405E
:104530001FF05AFA31461FF059FA1EF0B1FE064636
:1045400048460F461EF0ACFE02460B463046394642
:104550001EF048FD064628460F461EF0A1FE024604
:104560000B46304639461EF03DFD064640460F4696
:104570001EF084FE02460B46304639461EF032FDE0
:1045800099A3D3E900231EF02DFD82468B462046D9
:10459000002111F0B9F900210646204611F088F9F2
:1045A0001FF0D8FAAA491FF0DDFB054630461FF080
:1045B000D1FA014628461FF019FA00210346204689
:1045C0001C4611F08BF91FF0C5FAA2491FF0CAFB77
:1045D00021461FF00BFA1EF063FE9F4BCDE9000150
:1045E0000022504659461EF0FDFC1BF0B5FC80A38E
:1045F000D3E9002304460D461FF03AF958B37EA3D1
:10460000D3E90023204629461EF0EAFC7CA3D3E927
:1046100000231EF0C7FF1FF04BF91EF02FFE8F4B3B
:10462000002206460F461EF093FE1BF095FC024644
:104630000B462046294614461D460022884B1EF094
:10464000D1FC32463B461EF0CDFC22462B461EF0E6
:10465000C7FC04460D466CA3D3E900232046294637
:104660001EF0C0FC6AA3D3E9002304460D461EF0E9
:10467000B7FC69A3D3E900231EF094FF1BF06CFC88
:1046800002460B46CDE9022363A3D3E900231EF0C3
:104690005FFE1BF061FC02460B46204629461EF0D9
:1046A0009FFC5FA3D3E90023804689461EF07AFF72
:1046B0001BF052FC5AA3D3E9002304460D461EF01A
:1046C00047FE1BF049FC002206460F4600234046E9
:1046D00049461EF087FC32463B461EF081FC1BF02B
:1046E0003BFC1FF0E5F85F4B0646002220462946BA
:1046F0001FF0A0F8002800F01482594B2046002239
:1047000029461EF06DFC1FF0D3F8044620461FF02A
:1047100021FA554980461FF02DFC002800F0F68153
:1047200041A3D3E90023DDE902011EF059FC1FF08B
:10473000BFF80546631E012B05D804F10C001FF0DD
:1047400009FA013D804628461FF004FA3C49044618
:104750001FF008FB1BF0CEFC3A49074620461FF02D
:1047600001FB1BF0C7FC3849054620461FF046FAFE
:104770001BF0C0FC4FF07E51044640461FF036F956
:1047800032491FF03BFA1BF0B5FC03465946504630
:10479000059327A3D3E900231EF022FC334B804668
:1047A00089460022DDE900011EF0FCFE02460B46B0
:1047B000404649461EF016FC1FA3D3E9002382465B
:1047C0008B461EF0EFFE02460B464FF08040394606
:1047D000CDE902231FF008F929461FF007F91EF062
:1047E0005FFD804644E000BF00000080A2423A41E5
:1047F000000000008C8A414100000040D07D3C4117
:104800000000000088D5E1400000000000D0974083
:104810000000006066865E400000000000D4764024
:1048200000000020A0993E4000000000006CB24053
:10483000000000802CB4424100000000A0D5E140FF
:104840000000C8420000C84300A0B64301CDF441B7
:1048500000007042000061450000E03F0000D03FD2
:104860000000F03F00002B400000204000003840D6
:10487000204689461EF014FD02460B464046494636
:104880001EF0B0FB044605980D461EF009FD0246D9
:104890000B46204629461EF0A5FB044630460D4631
:1048A0001EF0ECFC02460B46204629461EF09AFB01
:1048B000A1A3D3E900231EF095FBA1A3D3E9002314
:1048C0001EF08EFBA0A3D3E900231EF041FDA0A3A0
:1048D000D3E900231EF086FBB74B002280468946B1
:1048E0001EF0BCFF78B1B44D002422462B46404652
:1048F00049461EF075FB22462B46804689461EF02F
:10490000ADFF0028F1D100220023404649461EF0A9
:1049100091FF88B1A84F0026002400254046494653
:1049200032463B461EF05EFB22462B4680468946B9
:104930001EF080FF0028F1D187A3D3E90023DDE931
:1049400000011EF005FD42464B461EF04BFBDDE923
:10495000026783A3D3E9002304460D463046394657
:104960001EF0F6FC32463B461EF0F2FC02460B46B9
:10497000204629461EF036FB8F4B00228046894692
:104980001EF06CFF78B18C4D002422462B46404629
:1049900049461EF025FB22462B46804689461EF0DE
:1049A0005DFF0028F1D100220023404649461EF059
:1049B00041FF88B1804F00260024002532463B4647
:1049C000404649461EF00EFB22462B46804689464D
:1049D0001EF030FF0028F1D163A3D3E90023504635
:1049E00059461EF0B5FC02460B4661A1D1E9000113
:1049F0001EF0F6FA60A3D3E900231EF0D3FD1AF0EF
:104A0000C1FF5FA3D3E9002304460D465046594633
:104A10001EF09EFC5CA3D3E900231EF0E3FA0246DD
:104A20000B461EF0DFFA54A3D3E900231EF0BAFDB3
:104A30001AF0A8FF56A3D3E9002306460F465046B6
:104A400059461EF085FC02460B4653A1D1E90001F0
:104A50001EF0C6FA48A3D3E900231EF0A3FD1AF006
:104A600005FF4FA3D3E9002382468B462046294603
:104A70001EF06EFC4CA3D3E9002304460D463046DD
:104A800039461EF065FC02460B46204629461EF0BC
:104A9000A7FA52465B461EF05BFC42464B461EF0B0
:104AA000A1FA454B0022804689461EF0D7FE78B118
:104AB000414D002422462B46404649461EF090FABE
:104AC00022462B46804689461EF0C8FE0028F1D1BA
:104AD00000220023404649461EF0ACFE88B1364F06
:104AE00000260024002532463B46404649461EF03B
:104AF00079FA22462B46804689461EF09BFE002806
:104B0000F1D14046494607B0BDE8F08F28A3D3E96C
:104B10000023DDE902011EF063FA1EF0C9FE05461E
:104B200008E6264B2046002229461EF059FA1EF0C0
:104B3000BFFE0446EAE500BF00000080A2423A4101
:104B4000000000802CB44241000000E05BD2B03F86
:104B5000000000801CCA1A40000000E0360BF03F45
:104B6000000000605243FB3E00000060C91CAB3FE8
:104B7000000000608F425F4000000020DCA54C4038
:104B8000000000E0718AEF3F00000020858771403F
:104B9000000000A0F2D79A3E000000007670374077
:104BA000000000A0EEE734BF00000080732AF93E49
:104BB00000000000006BB2400000384000002A40B6
:104BC00010B50E4C94F8383003B910BD20460EF0E5
:104BD00077F960B10A4C05E019F06EFAC1B22046CF
:104BE00014F0E4F819F054FA0028F5D110BD20466D
:104BF0000EF05EF90028EDD110BD00BF5892FF1FE6
:104C00009492FF1F224B93F8380000B9704710B4FC
:104C100093F8842085B03AB9002093F83C20EAB993
:104C2000002005B010BC70471A48D3F890400268C5
:104C30000092009A41F28731121B8A42ECD893F815
:104C40007420002AE8D0026801920198D3F88020ED
:104C5000801A88428CBF00200120DEE70D4C196FBE
:104C600022680292029A521A41F287318A42D7D8B8
:104C700093F8B420002AD3D022680392D3F8B82046
:104C8000039B9B1A8B428CBF002000F00100C8E7F9
:104C90005892FF1F6C9CFF1F124B93F884200AB997
:104CA0000020704710B41048D3F89040026883B0D9
:104CB00041F287310092009A121B8A420DD893F874
:104CC000742052B1026801920198D3F88030C01A62
:104CD00088428CBF0020012000E0002003B010BCFF
:104CE000704700BF5892FF1F6C9CFF1F114B93F839
:104CF0003C200AB90020704710B40F481C6F0268AE
:104D000083B041F287310092009A121B8A420DD87B
:104D100093F8B42052B102680192D3F8B8300198E8
:104D2000C01A88428CBF0020012000E0002003B0A0
:104D300010BC70475892FF1F6C9CFF1F154B93F8D7
:104D4000D4200AB90020704700B5134AD3F8D80020
:104D5000126883B041F287310192019A121A8A4295
:104D600003D9002003B05DF804FB0022D3F8DC0077
:104D700083F8D5201EF0EEFE08491EF0F3FF4FF039
:104D800080411FF0D9F8003818BF012003B05DF84A
:104D900004FB00BF5892FF1F6C9CFF1F0000C8421D
:104DA0002DE9F0472F4F304D3B6829688CB041F218
:104DB00088320193019B5B1A934204D82B4B1878DD
:104DC0000CB0BDE8F0872A4B03F1100C0FCB04AEFA
:104DD00086E80F009CE80F0008AC84E80F0030461E
:104DE00014F088F88046304614F094F88246304635
:104DF00014F0A2F88146204614F0AAF80646204690
:104E000014F0B2F8034620461C4614F0C3F808F12B
:104E10004E08034602A88DF808308DF809408DF839
:104E20000DA08DF80C908DF80A608DF80E8010F0B2
:104E3000AFFD044617F03EFB3A680292041B029A4B
:104E40002A60002C0B4A0346B8BF6442042C13614D
:104E5000064BCCBF002001200021516118700CB01E
:104E6000BDE8F0876C9CFF1FF891FF1FFC91FF1FAE
:104E7000CC92FF1F7891FF1F2DE9F04F094BDFF80F
:104E800028B01B68DBF800109DB041F288320C930B
:104E90000C9B5B1A93420BD8044B18781DB0BDE8ED
:104EA000F08F00BF6C9CFF1F0492FF1F0892FF1F32
:104EB000D34BD44CD3F8BC50DFF84C93DFF84CA361
:104EC000DFF84C8303F13C0EBEE80F000DF1380C07
:104ED000ACE80F00BEE80F00ACE80F00BEE80F0022
:104EE000ACE80F009EE803008CE803000EA8D4E9AC
:104EF000046713F0DFFF02460B46304639461EF0CA
:104F000071F813F055FC21F000431946BAA3D3E918
:104F100000231EF01DFAD9F800600AEBC606C6E9A8
:104F200000010EA8D4E9026713F0A4FF02460B4665
:104F3000304639461EF054F821F00043D9F800708D
:104F400008971946ACA3D3E900231EF001FA08EB39
:104F5000C7030A460146C3E90012B4F91800CDE9B7
:104F600004121EF08BF90246284614460D461EF028
:104F7000F1FDA8491EF0F6FE1EF092F902460B461E
:104F8000204629461EF02CF821F00043A2490A933E
:104F9000FE0002463144C1E90023DAE900340B90F7
:104FA00021461846002200230996CDE900011EF093
:104FB00019F8DAE9026732463B461EF013F8DAE9DF
:104FC0000423CDE902231EF00DF8944B00221EF0BD
:104FD000E9FA04460D4622462B46DDE900011DF0A4
:104FE000FFFF02460B461EF0B3F9002200231DF01E
:104FF000F9FF02460B463046394616461F46224602
:105000002B461DF0EDFF02460B461EF0A1F932467D
:105010003B461DF0E7FF224606460F462B46DDE9DC
:1050200002011DF0DDFF02460B461EF091F93246EB
:105030003B461DF0D7FF7A4B00221EF089F91AF08B
:1050400055FAD8E90067CDE9020100220023304675
:1050500039461DF0C7FFD8E9024522462B461DF010
:10506000C1FFD8E90423CDE900231DF0BBFF6B4B42
:1050700000221EF097FA8046894642464B4630464B
:1050800039461DF0ADFF02460B461EF061F90022C5
:1050900000231DF0A7FF02460B4620462946144672
:1050A0001D4642464B461DF09BFF02460B461EF036
:1050B0004FF922462B461DF095FF424604460D4609
:1050C0004B46DDE900011DF08BFF02460B461EF04A
:1050D0003FF922462B461DF085FF4F4C504B0022D6
:1050E0001EF036F91AF002FAD4E90089CDE9000180
:1050F00000220023494640461DF074FFD4E90267B0
:1051000032463B461DF06EFFD4E9044502460B468D
:1051100020462946CDE906451DF064FF3F4B00229D
:105120001EF040FA04460D4622462B4649464046AC
:105130001DF056FF02460B461EF00AF9002200231E
:105140001DF050FF02460B463046394616461F46B4
:1051500022462B461DF044FF02460B461EF0F8F88F
:1051600032463B461DF03EFF224606460F462B4682
:10517000DDE906011DF034FF02460B461EF0E8F89B
:1051800032463B461DF02EFF254B00221EF0E0F874
:105190001AF0ACF9099E0AEB06030022D3E9006776
:1051A0008146204B8A46DDE902011EF0D1F800223B
:1051B0004FF0804304460D461EF050FB002800F0DF
:1051C0009680224639462B4630461EF033FB154B5F
:1051D000041E4FF00002DDE9000118BF01241EF09B
:1051E000B7F800224FF0804306460F461EF036FB0C
:1051F000002878D018E000BF000000000020AC407C
:105200005892FF1F1092FF1F0092FF1FE091FF1F97
:10521000C891FF1F0000C842B091FF1F0000084066
:105220000000E03F0000144032463B46DDE9040147
:105230001EF000FB304BB0F100084FF00002484672
:10524000514618BF4FF001081EF082F82B4B002288
:1052500006460F461EF002FB002841D0DDE90201A0
:1052600000224FF080431EF0E5FA0022051E4FF0A9
:105270008043DDE9000118BF01251EF0DBFA51462D
:1052800000280CBF002505F001051C4B48460022F4
:105290001EF0D0FA324600280CBF002505F00105AB
:1052A0003B460B980A991EF0C5FA2C40089A144BFD
:1052B00008EA040400280CBF002004F00100187064
:1052C000022A02F101030F4A08BF002313600E4BAC
:1052D0001B680D930D9BCBF800301DB0BDE8F08F1F
:1052E000064F0026BAE700264FF080479CE70024CF
:1052F0004FF0804565E700BF0000144000003440D7
:105300000892FF1F0092FF1F6C9CFF1FFFFFFFFF13
:105310002DE9F04F6E4EDFF8BCC106F174030FCBE0
:105320009BB00DF1100888E80F0006F184030FCB45
:1053300008AF06F13C0587E80F000FCD0CAC0FC499
:105340000FCD0FC40FCD0FC495E803009CF8433177
:10535000732B84E80300D6F8BC4006D0742B0ED023
:10536000FCF754FE1BB0BDE8F08F96F83830002BE8
:1053700040F0BA80FCF720FE1BB0BDE8F08F96F835
:105380003830002BF6D0FFF787FC0446FFF7AEFC61
:10539000002CEFD00028EDD0404613F0ABFD0446C2
:1053A000404613F0B7FD8146404613F0C5FD8046E8
:1053B000384613F0CDFD0646384613F0D5FD0546B8
:1053C000384613F0E7FD03468DF80830424BDFF80E
:1053D0000CA18DF80950D3E904234E3402A8CAE980
:1053E0000C238DF80E408DF80D908DF80C808DF803
:1053F0000A6010F0CDFA05460C4617F061F8284611
:10540000214610F023FCFFF74FF8354B04460D46BC
:105410000022DAE90C011EF0C5F802460B462046D0
:1054200029461DF0DDFD2F4B002204460D461EF0DF
:1054300015FA78B12B4F00262046294632463B46C6
:105440001DF0CEFD32463B4604460D461EF006FAE0
:105450000028F1D100220023204629461EF0EAF957
:1054600098B1204F00264FF000084FF00009204669
:10547000294632463B461DF0B5FD42464B460446A2
:105480000D461EF0D7F90028F1D1164B0022204618
:1054900029461EF087F80CA3D3E900231DF058FF1E
:1054A0001EF006FA72B6CAF8000062B672B6DAF8F2
:1054B0000020DAF80030CAE9022362B6FCF766FD84
:1054C00050E700BFAFF3008000000000C07A6041E9
:1054D0005892FF1F1890FF1F1092FF1F7891FF1F17
:1054E00000002E4000003840FFF7D6FB0546FFF7CE
:1054F000FDFB002D3FF43EAF00283FF43BAF0CA86E
:1055000013F0B8FC82460CA88B4613F0D3FC064679
:1055100020460C461EF01EFBCB491EF023FCCB4B55
:1055200005462146304600221EF0A2F9002840F030
:10553000BA81C74B3046214600221EF07BF9002875
:1055400040F0B18132463046C24E04F10044234659
:1055500021463478C6E904231EF0F2F904EB440432
:1055600004EBC40404F10E03C1B281461846009155
:10557000019316F0F9FB0099814203D0019B184674
:1055800016F00CFC04F10F03C9F307211846009133
:10559000019316F0E9FB0099814203D0019B184664
:1055A00016F0FCFB04F11003C9F307411846009103
:1055B000019316F0D9FB0099814203D0019B184654
:1055C00016F0ECFB1134204616F0CEFB4FEA1969B9
:1055D000814503D04946204616F0E0FB9E4B002251
:1055E000504659461EF026F9002859D19B4B0022FF
:1055F000504659461EF03CF9002851D13478C6E98E
:1056000002AB594650461EF09BF904EB440404EBF0
:10561000C40404F10A0B5FFA80FA8146584616F07A
:10562000A3FB824503D05146584616F0B7FB04F160
:105630000B0B584616F098FBC9F3072A824503D096
:105640005146584616F0AAFB04F10C0B584616F0CA
:105650008BFBC9F3074A824503D05146584616F0E2
:105660009DFB0D34204616F07FFB4FEA19698145FA
:1056700003D04946204616F091FB6FA3D3E90023DF
:10568000D6E902011DF08EFF82468B461AF0EEF835
:10569000C6E90C01504659461AF074F9C6E90E01E4
:1056A00028461EF087FC84B204F1C8039BB242F284
:1056B00008018B4202B21DD83578328305EB4505CF
:1056C00005EBC50505F1120A50465FFA82F916F09E
:1056D0004BFB814503D04946504616F05FFB13351E
:1056E000284616F041FB240A844203D0214628466E
:1056F00016F054FB08F094F959480BF0B9FE5948DC
:1057000009F022FD574809F01BFD012007F034FC89
:10571000404613F0EFFB0446404613F0FBFB824685
:10572000404613F009FC8146384613F011FC8046D0
:10573000384613F019FC0546384613F02BFC034697
:105740008DF80830D6E904238DF80DA0DFF818A1F4
:105750008DF809504E3402A8CAE90C238DF80E408A
:105760008DF80C908DF80A8010F012F905460C4661
:1057700016F0A6FE2846214610F068FAFEF794FEC1
:105780003A4B04460D460022DAE90C011DF00AFFEF
:1057900002460B46204629461DF022FC344B0022CF
:1057A00004460D461EF05AF878B1314F00262046C7
:1057B000294632463B461DF013FC32463B46044622
:1057C0000D461EF04BF80028F1D1002200232046A0
:1057D00029461EF02FF898B1DFF894904FF000089A
:1057E000002600272046294642464B461DF0FAFB7C
:1057F00032463B4604460D461EF01CF80028F1D107
:105800001B4B0022204629461DF0CCFE0CA3D3E9F9
:1058100000231DF09DFD1EF04BF872B6CAF8000083
:1058200062B672B6DAF80020DAF80030CAE902236C
:1058300062B61FE0AFF3008000000020DCA54C4002
:1058400000000000C07A60410000C842008076403D
:10585000008076C01092FF1F008056C00080564026
:105860008093FF1F5892FF1F7891FF1F00002E406A
:10587000000038400D480E490E4A0023C0E90033AD
:10588000C0E90233C0E90433C1E90033C1E902339E
:10589000C1E90433C2E90033C2E90233C2E9043387
:1058A000FCF774FB5EE5044E98E600BFC891FF1F4D
:1058B000E091FF1FB091FF1F1092FF1F08B516F077
:1058C0001DFABDE8084016F019BA00BF2DE9F041F5
:1058D0004FF0000E164C174DF44643780678827848
:1058E0001B0243EA06431A439F0CC2F38516C3F317
:1058F000053302F03F020CF1030C15F80780AE5D92
:10590000EF5CAB5C84F870808C4584F8717084F82F
:10591000726084F873300EF1040E00F1030004F19C
:105920000404DADB044B002203F80E20BDE8F0810A
:105930001890FF1F6CCE02008890FF1FFFFFFFFF33
:105940002DE9F04FC84DBFB06622002124A820F0F9
:1059500025FB28460DF0C8FA064628460DF0B2FA97
:1059600095F87A332C7895F87B8303EB400328462F
:10597000DFB25FFA88F80DF0A3FA04F0030408F030
:105980000308230143EA8803A6F1020243EA8013D5
:10599000B2FA82F252093B4343EAC213AA7D95F858
:1059A000E9138DF89030012A95F8283301F00701AA
:1059B00000F02182022A00F0F881032A00F0878299
:1059C000A2F10402B2FA82F25209920195F8A103FF
:1059D000DB0043EAC0130B43134395F808248DF80A
:1059E0009130022A00F0F68195F80834FE2B00F081
:1059F000678295F80834FF2B00F06E8295F8083422
:105A0000012B14BF00270327022E95F8383400F02D
:105A1000E881022B00F0F18195F83834FE2B00F07C
:105A2000E78195F83834FF2B00F0538295F838342D
:105A3000012B14BF4FF000084FF00C0895F8786365
:105A400095F8F93506F00306002B40F0B08195F883
:105A50008146A40164B2844809F042FB47EA061774
:105A600048EA07031C4344EAC01495F838608DF8EF
:105A70009240FFF7C7F8002840F0108295F8FB2409
:105A800095F8681395F8EC348DF893608DF89410C0
:105A900022B195F81B250AB143F0020395F8362090
:105AA0000AB143F0040395F868240AB143F00803EF
:105AB00095F837200AB143F010038DF8953016F0B1
:105AC000F9FC6A4CDFF8A8B10021C4E904010FF029
:105AD00047FF0646D4E904010FF0D4FE8246D4E91C
