:1000000000800020BD01000005A20100C1A1010087
:10001000C1A10100C1A10100C1A10100C1A1010054
:10002000C1A10100C1A10100C1A1010005A20100FF
:1000300005A20100C1A10100A1CC0100A5CC0100D5
:1000400005A2010005A2010005A2010005A2010010
:1000500005A2010005A2010005A2010005A2010000
:1000600005A2010005A2010005A2010005A20100F0
:1000700005A2010005A2010005A2010005A20100E0
:1000800005A2010005A2010005A2010005A20100D0
:1000900005A2010005A2010005A2010005A20100C0
:1000A00005A2010005A2010005A2010005A20100B0
:1000B00005A2010005A2010005A2010005A20100A0
:1000C00005A2010005A2010005A2010005A2010090
:1000D00005A2010005A2010005A2010005A2010080
:1000E00005A2010005A2010005A2010005A2010070
:1000F00005A20100ADB0010005A201001DBA01007A
:1001000005A201008DBC010005A2010005A20100AD
:1001100005A2010005A2010005A2010005A201003F
:1001200005A2010005A2010005A2010005A201002F
:1001300005A2010005A2010005A2010005A201001F
:1001400005A2010005A2010005A2010005A201000F
:10015000999B0100B59B0100D19B0100ED9B010023
:1001600005A2010035BF010005A2010005A20100A2
:1001700005A2010005A2010005A2010005A20100DF
:1001800005A2010005A2010005A2010005A20100CF
:1001900005A2010005A2010005A2010005A20100BF
:1001A00005A2010005A2010005A2010005A20100AF
:1001B00005A2010005A2010005A20100574B4CF267
:1001C000205210B5DA814DF62812DA8100BF00BF47
:1001D0001AF01CF8524B4FF010621A63514A9A639E
:1001E000514ADA63514A136913F4807303D153619E
:1001F0004FF4A85313614E4B9A78110703D59A78A0
:1002000042F008029A704B4B4B482A221A704B4B13
:10021000DA1C121AC11E22F00302994288BF002282
:10022000474919F0F9FE474B4748DA1C121AC11E1C
:1002300022F00302994288BF0022002123F08EFDA4
:10024000424943484FF4DE7219F0E6FE414B424A00
:10025000802103F8011B9342FBD14FF0E0233C4A7D
:10026000C3F8082D3D4B8A221A70A3F5805324222F
:100270005A70A0221A709A799207FCD59A79D406FE
:10028000FCD4374B9A7902F00C02082AFAD10522E5
:100290001A7143225A719A799006FCD5304A9379A3
:1002A0005906FCD51E4B4FF08171596405219964A4
:1002B00020211170917901F00C010C29FAD1294A01
:1002C0005A604FF0E023284A5A6100229A610722BF
:1002D0001A61264AC3F8202D62B61AF0E7F9134BCB
:1002E0005B69DA0705D522481AF0D4F9214B224A76
:1002F000DA61224B1B785B0609D51E4C1E4BE26966
:100300009A4204D11A481AF0C5F90023E36119F0A2
:1003100083FF23F0E9FE19F077FEFEE70020054099
:1003200000800440823F04000100002B00D0034005
:1003300000D0074000E007402087FF1FC88FFF1F45
:1003400010BA020030A2FF1FC88FFF1F000000007C
:100350000082FF1F00E400E05FE400E00050064080
:1003600000400640C01005003F1901000000202099
:100370007293C56900E00340A5C3945A00F007409A
:10038000FFFFFFFFFFFFFFFFFFFFFFFFFFFFFFFF7D
:10039000FFFFFFFFFFFFFFFFFFFFFFFFFFFFFFFF6D
:1003A000FFFFFFFFFFFFFFFFFFFFFFFFFFFFFFFF5D
:1003B000FFFFFFFFFFFFFFFFFFFFFFFFFFFFFFFF4D
:1003C000FFFFFFFFFFFFFFFFFFFFFFFFFFFFFFFF3D
:1003D000FFFFFFFFFFFFFFFFFFFFFFFFFFFFFFFF2D
:1003E000FFFFFFFFFFFFFFFFFFFFFFFFFFFFFFFF1D
:1003F000FFFFFFFFFFFFFFFFFFFFFFFFFFFFFFFF0D
:10040000FFFFFFFFFFFFFFFFFFFFFFFFDEF9FFFF23
:100410000548064B1B1AD90F01EBA301491002D066
:10042000034B03B118477047C88FFF1FC88FFF1FCA
:100430000000000008B5054B1BB105490548AFF3A6
:100440000080BDE80840FFF7E3BF00BF00000000E8
:10045000C88FFF1F08BA020008B51AF015F900216D
:1004600008BD00BF10B5012121201AF0A5F9142400
:10047000012121201AF06CF90A201AF0F9F9212043
:1004800000211AF065F932201AF0F2F9013CEFD19F
:10049000BDE81040012121201AF05AB9FFFFFFFFEB
:1004A0002DE9F04FD64BD749D3E9042385B0C1E9F4
:1004B0000E231AF0E9F80021044614F04DFA002149
:1004C0000646204614F0DAF900210546204614F0CD
:1004D0002DFA6B1E012B98BF06F1FF3607463046FA
:1004E00098BF0C3521F00EFAC749064621F012FBE1
:1004F0001DF0D8FCC5498146304621F00BFB1DF0AC
:10050000D1FCC3498046304621F050FA1DF0CAFCA8
:100510000646284621F0F6F94FF07E5121F03EF9CB
:10052000BC4921F043FA1DF0BDFC494605464FF099
:10053000804021F031F9414621F030F920F088FD6A
:1005400080463046894620F083FD02460B464046F1
:10055000494620F01FFC80462846894620F078FD59
:1005600002460B464046494620F014FC8046384679
:10057000894620F05BFD02460B464046494620F086
:1005800009FC8BA3D3E9002320F004FC02461746A4
:10059000884620460021CDE9027814F0B1F9002107
:1005A0000646204614F080F921F0ACF99A4921F072
:1005B000B1FA0546304621F0A5F90146284621F05A
:1005C000EDF80021034620461C4614F083F921F083
:1005D00099F9924921F09EFA214621F0DFF820F0A6
:1005E00037FD8F4BCDE9000100223846414620F00F
:1005F000D1FB1DF089FB70A3D3E9002304460D460F
:1006000021F00EF858B36EA3D3E900232046294603
:1006100020F0BEFB6CA3D3E9002320F09BFE21F069
:100620001FF820F003FD7F4B002206460F4620F006
:1006300067FD1DF069FB02460B462046294614461D
:100640001D460022784B20F0A5FB32463B4620F0A9
:10065000A1FB22462B4620F09BFB04460D465CA3E3
:10066000D3E900232046294620F094FB5AA3D3E97E
:10067000002304460D4620F08BFB59A3D3E9002349
:1006800020F068FE1DF040FB55A3D3E9002382460D
:100690008B4620F035FD1DF037FB02460B46204609
:1006A000294620F075FB50A3D3E9002306460F46E8
:1006B00020F050FE1DF028FB4BA3D3E90023804619
:1006C000894620F01DFD1DF01FFB002204460D464B
:1006D00000233046394620F05DFB22462B4620F0B1
:1006E00057FB1DF011FB20F0BBFF504B04460022CE
:1006F0004046494620F076FF002800F0BC824A4B75
:1007000000224046494620F043FB20F0A9FF064660
:10071000304621F0F7F84649054621F003FB002852
:1007200000F09E8232A3D3E900235046594620F0C0
:100730002FFB20F095FF0746731E012B05D806F10D
:100740000C0021F0DFF8013F0546384621F0DAF8C9
:100750002D49064621F0DEF91DF0A4FB2B49824607
:10076000304621F0D7F91DF09DFB294981463046DE
:1007700021F01CF91DF096FB4FF07E518046284673
:1007800021F00CF8234921F011F91DF08BFB1AA37D
:10079000D3E900230546DDE9020120F0F9FA254BF3
:1007A00006460F460022DDE9000145E0AFF3008078
:1007B00000000080A2423A41000000008C8A4141C2
:1007C00000000040D07D3C410000000088D5E140A1
:1007D0000000000000D097400000006066865E4088
:1007E0000000000000D4764000000020A0993E40A8
:1007F00000000000006CB240000000802CB44241B8
:10080000F891FF1F5891FF1F0000C8420000C84325
:1008100000A0B64301CDF4410000704200006145E4
:100820000000E03F0000D03F0000F03F00002B4000
:10083000000020400000384020F08CFD02460B46AE
:100840003046394620F0A6FA02460B46CDE902238F
:10085000D1A3D3E9002320F07DFD02460B464FF0E3
:10086000804051469B46924620F096FF494620F034
:1008700095FF20F0EDFB064640460F4620F0E8FBD2
:1008800002460B463046394620F084FA0646284692
:100890000F4620F0DDFB02460B463046394620F07D
:1008A00079FA064620460F4620F0C0FB02460B466A
:1008B0003046394620F06EFAB9A3D3E9002320F080
:1008C00069FAB9A3D3E9002320F062FAB8A3D3E907
:1008D000002320F015FCB8A3D3E9002320F05AFA36
:1008E000CD4B00228046894620F090FE78B1CA4D5B
:1008F000002422462B464046494620F049FA22462B
:100900002B468046894620F081FE0028F1D1002246
:1009100000234046494620F065FE88B1BE4F0026C0
:10092000002400254046494632463B4620F032FA34
:1009300022462B468046894620F054FE0028F1D1FD
:100940009FA3D3E90023DDE9000120F0D9FB424653
:100950004B4620F01FFA9CA3D3E9002304460D4622
:100960005046594620F0CCFB52465B4620F0C8FB6F
:1009700002460B462046294620F00CFAA64B0022E0
:1009800004460D4620F042FE78B1A34F00263246C1
:100990003B462046294620F0FBF932463B460446BA
:1009A0000D4620F033FE0028F1D10022002320461E
:1009B000294620F017FE98B1974F00264FF0000807
:1009C0004FF0000932463B462046294620F0E2F926
:1009D00042464B4604460D4620F004FE0028F1D165
:1009E000DDE902AB7AA3D3E900235046594620F053
:1009F00087FB02460B4678A1D1E9000120F0C8F937
:100A000077A3D3E9002320F0A5FC1CF093FE76A386
:100A1000D3E9002306460F465046594620F070FBA6
:100A200073A3D3E9002320F0B5F902460B4620F06A
:100A3000B1F96BA3D3E9002320F08CFC1CF07AFE03
:100A40006DA3D3E90023804689465046594620F0DD
:100A500057FB02460B466AA1D1E9000120F098F944
:100A60005FA3D3E9002320F075FC1CF0D7FD66A33B
:100A7000D3E9002382468B463046394620F040FBBE
:100A800063A3D3E9002306460F464046494620F0BB
:100A900037FB02460B463046394620F079F952467C
:100AA0005B4620F02DFB22462B4620F073F95A4B73
:100AB00000228046894620F0A9FD78B1564D0024D9
:100AC00022462B464046494620F062F922462B46F4
:100AD0008046894620F09AFD0028F1D100220023AB
:100AE0004046494620F07EFD88B14B4F0026002449
:100AF000002532463B464046494620F04BF9224607
:100B00002B468046894620F06DFD0028F1D14349EF
:100B1000434B0022D1E90E0120F01CFC02460B469B
:100B20004046494620F034F93B4B00228046894636
:100B300020F06CFD78B1384D002422462B4640460B
:100B4000494620F025F922462B468046894620F06A
:100B50005DFD0028F1D1002200234046494620F0E7
:100B600041FD88B12C4F00260024002532463B462B
:100B70004046494620F00EF922462B4680468946DB
:100B800020F030FD0028F1D1234B00224046494699
:100B900020F0E0FB46E000BF00000000A0D5E140EF
:100BA00000000080A2423A41000000802CB4424183
:100BB000000000E05BD2B03F000000801CCA1A4079
:100BC000000000E0360BF03F000000605243FB3EA7
:100BD00000000060C91CAB3F000000608F425F4016
:100BE00000000020DCA54C40000000E0718AEF3FCF
:100BF0000000002085877140000000A0F2D79A3ED7
:100C00000000000076703740000000A0EEE734BF1F
:100C100000000080732AF93E000038405891FF1F01
:100C200000002E401CA3D3E9002320F069FA20F035
:100C300017FD72B61C49086062B672B60A680B6886
:100C4000C1E9042362B619480DF026FFE8B1174840
:100C50000DF074FF0A2005B0BDE8F04F19F008BE92
:100C60000FA3D3E900235046594620F091F820F015
:100C7000F7FC074660E50E4B00224046494620F04F
:100C800087F820F0EDFC064642E508480DF01CFF11
:100C9000DDE700BFAFF3008000000000C07A6041D4
:100CA00000000000006BB2405891FF1F4092FF1FF0
:100CB00000002A4070B50C4682B072B62F4A116807
:100CC00062B61369CB1A002B26DC2D4E2D4D19F080
:100CD000AFFD2D4B9A68D9681860821A8A42C8BF46
:100CE000DA605A60326801929860019AD5F8A833A8
:100CF00042F20F71D31A8B4294BF0121002121705F
:100D000004D902F51C521032C5F8A8231D4802B0C0
:100D1000BDE8704011F022BFD06811611844D06066
:100D200091688B42C8BF9360012B03D05068591E55
:100D30000144516012681548114E80FB0250D117D2
:100D4000C1EB6011642000FB11210E4D326800924E
:100D50000098D5F8A82342F20F7C821A624594BF0E
:100D600001220022227004D900F51C501030C5F871
:100D7000A803044811F0C0FFA9E700BF5891FF1F66
:100D80002C9CFF1F4092FF1FE88FFF1F1F85EB5118
:100D9000F8B5224E224D3778044601F065F903F08C
:100DA000A3FC95F878339F4205D0212128460DF009
:100DB00057FF95F878331A48337011F079F910B964
:100DC00095F87834FBB9164811F078F928B1204627
:100DD0001449BDE8F840FFF76DBF134B134A19687B
:100DE000134BA0F1333000FB0133B2EB730F0C480F
:100DF00094BF0121002112F0B3F820460949BDE853
:100E0000F840FFF757BF06480DF026FE044812F0E1
:100E1000AFFA03480DF024FED5E700BFE18FFF1FB6
:100E20004092FF1FE08FFF1F5891FF1F999999195A
:100E30009899991908B519F071F8BDE8084019F0AA
:100E40006DB800BF38B51A20124C134D1AF0AAFB2A
:100E500000211F201AF068FB20464DF6C02118F033
:100E60000FFD0A23A3600D4804211AF087FC1AF035
:100E70000DFDFA2019F0FCFC012406E01AF03EFDFD
:100E8000C0B23F2808BF85F837401AF023FD00287C
:100E9000F4DC38BDB887FF1F4092FF1FD0A50200C9
:100EA0002DE9F8431B4D1C4C2E681C4FDFF8709049
:100EB00040F2EE281BF00CFE2378EBB13B78DB0709
:100EC0001AD52B68D9F800209B1A0E2B14D90122B1
:100ED0001449154801F0A2F914484FF4614118F083
:100EE0005DFC12491248022201F098F9BDE8F8436E
:100EF0000021212019F02CBC2B6822789B1B2AB1E1
:100F0000B3F5FA6FE3D81BF0E3FDD3E74345FAD915
:100F1000DDE700BF2C9CFF1FC89EFF1FEC9EFF1F3C
:100F2000F09EFF1F0C88FF1F4490FF1FA487FF1F28
:100F30002090FF1F70B5234C0546FFF793FA0DF084
:100F4000E1F920460DF0F8FD1F4813F09DFE002644
:100F50000021012013F0A6FE19F096FB314613F094
:100F600071FE20460DF074FD20460DF077FE3146EF
:100F700004F5A9600DF0BAFE204610F07DF9204678
:100F80000DF03EFE2846FFF78BFA72B60F4B19683C
:100F90001A68C3E9041262B64FF4FA6019F068FCEB
:100FA0001AF060FEB042D8BF00232846C8BF012314
:100FB00084F83830FFF746FF2846BDE87040FFF759
:100FC0006FBF00BF4092FF1F590400005891FF1FE0
:100FD00038B50378062B04464ED03A2B4AD14378D5
:100FE000243B442B46D8DFE813F0080145004500B8
:100FF00045004500450045004500450045004500C9
:1010000045004500450045004500450045004500B8
:1010100045004500450045004500450045004500A8
:10102000450045000001C500B500E100CE00EA0022
:10103000AC00450045004500450045009D004500C9
:101040004500450094008B00820072006900450055
:101050005F0045004500450045004500450045004E
:101060004500450045004500450045004500450058
:1010700056004D00042038BD4378002B14BF0420D7
:10108000012038BD81786A4822F0BAFE00280CBFE2
:101090000420022038BD8178664822F0B1FE002885
:1010A0000CBF0420022038BD84786348214622F01A
:1010B000A7FE002800F0AF80002038BD81785F488F
:1010C00022F09EFEB0FA80F04009800038BD84789E
:1010D0005B48214622F094FE0028EDD15948214674
:1010E00022F08EFE00280CBF0420022038BD81783B
:1010F000554822F085FE00280CBF0420022038BD90
:101100008178524822F07CFEB0FA80F040098000DD
:1011100038BD81784E4822F073FEB0FA80F0400965
:10112000800038BD84784B48214622F069FE0028B3
:10113000C2D14948214622F063FE002876D0012022
:1011400038BD8178454822F05BFE00280CBF0420A2
:10115000032038BD84784248214622F051FE002801
:1011600055D121463F4822F04BFEB0FA80F04009AD
:10117000800038BD81783C4822F042FEB0FA80F011
:101180004009800038BD85783848294622F038FE6D
:1011900000283CD14D2D40D0572D7FF46BAFE37824
:1011A000303B012B8CBF0420022038BD81782348BE
:1011B00022F026FE00280CBF0420032038BD8478CE
:1011C0002B48214622F01CFE00287FF475AF2948E9
:1011D000214622F015FEE0B92748214622F010FEF4
:1011E00000280CBF0420032038BD84782348214602
:1011F00022F006FE68B92248EFE7847821482146AC
:1012000022F0FEFD00287FF457AF1F4867E7032058
:1012100038BD022038BD1D48DFE7E1781C4822F0C8
:10122000EFFD00280CBF0420012038BD194856E707
:101230004CA6020028A60200A8A602008CA7020065
:1012400098A60200A0A6020080A6020074A60200D2
:101250006CA6020058A6020060A602002CA602009E
:10126000F0A5020054A60200ECA50200F4A50200BD
:1012700000A602000CA6020020A60200D8A50200CB
:10128000E8A5020008A60200B0A6020064A60200BB
:10129000F8A5020068A60200002800F0FD8410B541
:1012A00003783A2B044640F0E684FFF791FE0028CD
:1012B00000F0CE84431EDBB2012B40F2CA84032827
:1012C00040F0E184C549204622F03EFF002800F0AE
:1012D000C284C349204622F037FF002800F0BD84B5
:1012E000C049204622F030FF002800F0B884BE49F3
:1012F000204622F029FF002800F0B384BB49204695
:1013000022F022FF002800F0B084B949204622F0E4
:101310001BFF002800F0AB84B649204622F014FFE2
:10132000002800F0A684B449204622F00DFF0028D2
:1013300000F0A484B149204622F006FF002800F006
:101340009F84AF49204622F0FFFE002800F08B84E6
:10135000AC49204622F0F8FE002800F09784AA4904
:10136000204622F0F1FE002800F09284A749204692
:1013700022F0EAFE002800F08D84A549204622F0E4
:10138000E3FE002800F08B84A249204622F0DCFE18
:10139000002800F08684A049204622F0D5FE0028CF
:1013A00000F081849D49204622F0CEFE002800F006
:1013B0007C849B49204622F0C7FE002800F07784F9
:1013C0009849204622F0C0FE002800F07284964919
:1013D000204622F0B9FE002800F06D849349204693
:1013E00022F0B2FE002800F068849149204622F0E5
:1013F000ABFE002800F063848E49204622F0A4FE54
:10140000002800F05E848C49204622F09DFE0028D2
:1014100000F059848949204622F096FE002800F009
:1014200054848749204622F08FFE002800F04F8424
:101430008449204622F088FE002800F04A84824930
:10144000204622F081FE002800F045847F49204696
:1014500022F07AFE002800F042847D49204622F0E6
:1014600073FE002800F039847A49204622F06CFE91
:10147000002800F038847849204622F065FE0028D4
:1014800000F02F847549204622F05EFE002800F00F
:1014900034847349204622F057FE002800F02B8444
:1014A0007049204622F050FE002800F076846E49F4
:1014B000204622F049FE002800F06D846B4920464A
:1014C00022F042FE002800F064846949204622F0A0
:1014D0003BFE002800F05B846649204622F034FE83
:1014E000002800F052846449204622F02DFE002896
:1014F00000F049846149204622F026FE002800F0D1
:1015000040845F49204622F01FFE002800F0378407
:101510005C49204622F018FE002800F02E845A492B
:10152000204622F011FE002800F02584574920466D
:1015300022F00AFE002800F01C845549204622F0C3
:1015400003FE002800F013845249204622F0FCFDDF
:10155000002800F00A845049204622F0F5FD0028BA
:1015600000F001844D49204622F0EEFD002800F0F5
:10157000F8834B49204622F0E7FD002800F0EF8376
:101580004849204622F0E0FD002800F0E683464965
:10159000204622F0D9FD002800F0DD834349204693
:1015A00022F0D2FD002800F0D4834149204622F0E9
:1015B000CBFD002800F0CB833E49204622F0C4FD3D
:1015C000002800F0C2833C49204622F0BDFD0028DF
:1015D00000F0B9833949204672E000BFB4A602008A
:1015E000BCA60200C4A60200CCA60200D4A602003B
:1015F000DCA60200E0A60200D0A50200E8A60200D8
:10160000F0A60200F8A6020000A7020008A7020048
:1016100010A7020018A7020020A7020028A70200B6
:1016200030A7020038A7020040A7020048A7020026
:1016300050A7020058A7020060A7020068A7020096
:1016400070A7020078A7020080A7020088A7020006
:1016500090A7020098A70200A0A70200A8A7020076
:10166000B0A70200B8A70200C0A70200C8A70200E6
:10167000D0A70200D8A70200E0A70200E8A7020056
:10168000F0A70200F8A7020000A8020008A80200C4
:1016900010A8020018A8020020A8020028A8020032
:1016A00030A8020038A8020040A8020048A80200A2
:1016B00050A8020058A8020060A8020068A8020012
:1016C00022F042FD002800F03C83C549204622F06C
:1016D0003BFD002800F03383C249204622F034FD50
:1016E000002800F02A83C049204622F02DFD002862
:1016F00000F02183BD49204622F026FD002800F09D
:101700001883BB49204622F01FFD002800F00F83FC
:10171000B849204622F018FD002800F00683B6499B
:10172000204622F011FD002800F0FD82B34920463A
:1017300022F00AFD002800F0F482B149204622F090
:1017400003FD002800F0EB82AE49204622F0FCFCAD
:10175000002800F0DB83AC49204622F0F5FC00288D
:1017600000F0D283A949204622F0EEFC002800F0C8
:10177000C983A749204622F0E7FC002800F0C08377
:10178000A449204622F0E0FC002800F0B783A249DB
:10179000204622F0D9FC002800F0AE839F49204665
:1017A00022F0D2FC002800F0A5839D49204622F0BB
:1017B000CBFC002800F09C839A49204622F0C4FC10
:1017C000002800F093839849204622F0BDFC0028B1
:1017D00000F08A839549204622F0B6FC002800F0EC
:1017E00081839349204622F0AFFC002800F07883E3
:1017F0009049204622F0A8FC002800F06F838E4913
:10180000204622F0A1FC002800F066838B49204688
:1018100022F09AFC002800F05D838949204622F0DE
:1018200093FC002800F054838649204622F08CFC6B
:10183000002800F04B838449204622F085FC0028D4
:1018400000F042838149204622F07EFC002800F00F
:1018500039837F49204622F077FC002800F030834E
:101860007C49204622F070FC002800F027837A494A
:10187000204622F069FC002800F01E8377492046AC
:1018800022F062FC002800F0DC827549204622F03C
:101890005BFC002800F0D3827249204622F054FC01
:1018A000002800F0CA827049204622F04DFC002832
:1018B00000F0C1826D49204622F046FC002800F06D
:1018C000B8826B49204622F03FFC002800F0AF822E
:1018D0006849204622F038FC002800F0A6826649BC
:1018E000204622F031FC002800F09D82634920460A
:1018F00022F02AFC002800F094826149204622F060
:1019000023FC002800F08B825E49204622F01CFC5C
:10191000002800F082825C49204622F015FC002855
:1019200000F079825949204622F00EFC002800F090
:1019300070825749204622F007FC002800F0678299
:101940005449204622F000FC002800F05E825249F3
:10195000204622F0F9FB002800F055824F4920462E
:1019600022F0F2FB002800F04C824D49204622F084
:10197000EBFB002800F043824A49204622F0E4FBBA
:10198000002800F03A824849204622F0DDFB00287A
:1019900000F031824549204622F0D6FB002800F0B5
:1019A00028824349204622F0CFFB002800F01F8206
:1019B0004049204622F0C8FB002800F016823E492C
:1019C000204622F0C1FB002800F00D823B49204652
:1019D00022F0BAFB002800F004823949204671E069
:1019E00070A8020078A8020080A8020088A802005F
:1019F00090A8020098A80200A0A80200A8A80200CF
:101A0000B0A80200B8A80200C0A80200C8A802003E
:101A1000D0A80200D8A80200E0A80200E8A80200AE
:101A2000F0A80200F8A8020000A9020008A902001C
:101A300010A9020018A9020020A9020028A902008A
:101A400030A9020038A9020040A9020048A90200FA
:101A500050A9020058A9020060A9020068A902006A
:101A600070A9020078A9020080A9020088A90200DA
:101A700090A9020098A90200A0A90200A8A902004A
:101A8000B0A90200B8A90200C0A90200C8A90200BA
:101A9000D0A90200D8A90200E0A90200E8A902002A
:101AA000F0A90200F8A9020000AA020008AA020098
:101AB00010AA020018AA020020AA020028AA020006
:101AC00030AA020022F040FB002800F08881DE49A5
:101AD000204622F039FB002800F07F81DB492046B8
:101AE00022F032FB002800F07681D949204622F00E
:101AF0002BFB002800F06D81D649204622F024FB04
:101B0000002800F06481D449204622F01DFB002803
:101B100000F05B81D149204622F016FB002800F03E
:101B20005281CF49204622F00FFB002800F0498166
:101B3000CC49204622F008FB002800F04081CA4929
:101B4000204622F001FB002800F03781C7492046DB
:101B500022F0FAFA002800F02E81C549204622F032
:101B6000F3FA002800F02581C249204622F0ECFA61
:101B7000002800F01C81C049204622F0E5FA002828
:101B800000F01381BD49204622F0DEFA002800F063
:101B90000A81BB49204622F0D7FA002800F00181D3
:101BA000B849204622F0D0FA002800F0F880B64963
:101BB000204622F0C9FA002800F0AF80B349204641
:101BC00022F0C2FA002800F0A680B149204622F097
:101BD000BBFA002800F09D80AE49204622F0B4FAFE
:101BE000002800F09480AC49204622F0ADFA00288D
:101BF00000F08B80A949204622F0A6FA002800F0C8
:101C00008280A749204622F09FFA002879D0A54972
:101C1000204622F099FA002871D0A349204622F0EC
:101C200093FA002865D0A149204622F08DFA0028B9
:101C30005DD09F49204622F087FA002855D09D4963
:101C4000204622F081FA00280CBF04204FF0FF301C
:101C500010BD012010BD102010BD042010BD0420B7
:101C600010BD042010BD202010BD042010BD042094
:101C700010BD102010BD4FF0FF3010BD202010BD52
:101C80004FF4807010BD4FF0FF3010BD102010BD1C
:101C9000802010BD102010BD4FF0FF307047102085
:101CA00010BD102010BD082010BD102010BD102048
:101CB00010BD082010BD082010BD102010BD102040
:101CC00010BD102010BD082010BD102010BD082030
:101CD00010BD102010BD102010BD102010BD04201C
:101CE00010BD202010BD102010BD102010BD1020F0
:101CF00010BD082010BD042010BD102010BD08200C
:101D000010BD102010BD042010BD082010BD1020F3
:101D100010BD102010BD082010BD102010BD1020D7
:101D200010BD102010BD082010BD102010BD1020C7
:101D300010BD102010BD102010BD102010BD1020AF
:101D400010BD102010BD102010BD102010BD10209F
:101D500010BD102010BD102010BD102010BD10208F
:101D600010BD802010BD102010BD102010BD10200F
:101D700010BD882010BD102010BD102010BD1020F7
:101D800010BD102010BD102010BD102010BD10205F
:101D900010BD102010BD102010BD042010BD10205B
:101DA00010BD042010BD082010BD102010BD04205F
:101DB00010BD042010BD042010BD082010BD082057
:101DC00010BD102010BD082010BD082010BD10202F
:101DD00010BD102010BD082010BD042010BD102023
:101DE00010BD102010BD102010BD102010BD1020FF
:101DF00010BD102010BD082010BD082010BD1020FF
:101E000010BD102010BD102010BD082010BD0820EE
:101E100010BD082010BD082010BD082010BD0820EE
:101E200010BD042010BD042010BD082010BD0820E6
:101E300010BD082010BD082010BD082010BD0820CE
:101E400010BD102010BD00BF38AA020040AA020039
:101E500048AA020050AA020058AA020060AA020082
:101E600068AA020070AA020078AA020080AA0200F2
:101E700088AA020090AA020098AA0200A0AA020062
:101E8000A8AA0200B0AA0200B8AA0200C0AA0200D2
:101E9000C8AA0200D0AA0200D8AA0200E0AA020042
:101EA000E8AA0200F0AA0200F8AA020000AB0200B1
:101EB00008AB020010AB0200102010BD082010BDBE
:101EC000082010BD082010BD082010BD102010BD36
:101ED000102010BD082010BD082010BD082010BD26
:101EE000102010BD102010BD102010BD102010BDFE
:101EF000082010BD102010BD102010BD042010BD02
:101F0000102010BD102010BD102010BD102010BDDD
:101F1000F8B51D4E04461D2700253A4631462E30A1
:101F200018F07AF83A463146E564A4F8505004F1C6
:101F3000520018F071F84FF4E13323604FF4164368
:101F400001214DF67C52A3604FF4964384F85E1154
:101F500062604FF4E1414FF4615223614FF4165334
:101F6000E16062614FF49651A3614FF416624FF441
:101F7000966384F8705084F84251A585E16122622D
:101F80006362A5622046F8BD18AB0200024B312205
:101F9000A3F87020704700BFF88FFF1F044B054A5D
:101FA0001B68A2F870301B0C82F87230704700BFBB
:101FB000CCA70200F88FFF1F024B3022A3F870203D
:101FC000704700BFF88FFF1F044B054A1B68A2F83B
:101FD00070301B0C82F87230704700BFC4A702003B
:101FE000F88FFF1F024B2322A3F87020704700BF19
:101FF000F88FFF1F044B18B13122A3F870207047EF
:102000003022A3F870207047F88FFF1F024B002288
:1020100083F87020704700BFF88FFF1F70B5114E16
:102020002321304621F0ECFE58B1044606F1D200DF
:10203000FFF732F9002804DDA41B844201DAD0281E
:1020400000DD70BD051B621C3146701921F00AFECF
:10205000002DF6DD2A4630462021BDE8704021F0F3
:102060007DBE00BF6890FF1F30B55A4C83B004F1AD
:102070004C0000258DF8075000F0D4F804F128003A
:1020800000F0D0F804F5A17104F128000DF1070269
:1020900000F02EF90DF1070204F5A17104F14C00D6
:1020A00000F026F99DF80730002B57D0D2222946A0
:1020B00004F1700021F052FE94F84231063B622B8D
:1020C00048D8DFE803F08347474747474747474734
:1020D0004747474747474747474747474747474790
:1020E0004747474780474747474747474747474747
:1020F0004747474747474747474747474747474770
:10210000477D7A7774716E6B474747474768474703
:102110004765625D5A5747544747474747474747D0
:10212000474747474747475132000AF051FB94F869
:1021300070307BB1FFF772FF27499DF80720A1F1AE
:10214000240000F0E9F824499DF80720A1F1480097
:1021500000F0E2F8214B93F840350BB903B030BDE5
:1021600011F098FC03B030BD02F046FEDFE709F045
:10217000BFFEDCE709F0CCFCD9E708F009FED6E7A2
:102180000DF1070005F0CCFED1E705F0EBFACEE744
:1021900005F08AFACBE704F06BFEC8E701F044FAD9
:1021A000C5E701F03BF9C2E700F00AFEBFE700F027
:1021B000D9FDBCE700F080FBB9E700F067FBB6E7AC
:1021C00000F0C6F8B3E70AF0CBFAB0E700F038FB4E
:1021D000ADE700BFF88FFF1F6890FF1F4092FF1F01
:1021E00008B517F09BFE17F099FE0A48FFF790FE1E
:1021F000094B0022002000211A60C3E908015A603F
:10220000C3E90A019A60C3E90C011A615A61DA60F4
:1022100008BD00BFF88FFF1F5891FF1F01600271BA
:10222000704700BF2DE9F041304E0446002500F113
:102230000708206803681B69984700282CDD677928
:1022400057BB206803685B699847C0B206281CD05A
:10225000831FDBB21A2B21D826FA03F3DB0712D433
:1022600094F82220531CDBB22244E1181B2B9071FE
:102270008F7136D8232884F8223004D1012B1CD842
:1022800084F82250A5716771D3E794F82230002BAF
:10229000F9D101236371E080BDE8F08194F8222038
:1022A000531C2244DBB29071E2181B2B9771E1D9C9
:1022B0001B23232884F82230E5D1A2793A2ADFD1E2
:1022C000013B23449A79232ADAD19D71404622F0BA
:1022D00017F90127421C4146A01D21F0C3FC67717C
:1022E000A7E71B2384F822306771A2E7910000045E
:1022F000437983B170B51678154606B170BD0446B2
:102300000846A11D22F08AF8237984F82260A6717C
:1023100066712B7070BD70470379934200D070478F
:1023200070B504680D4651B1084622F0E9F82368FB
:102330000246294620465B68BDE87040184770BDDC
:1023400008B517F0EBFDBDE8084017F0E7BD00BF8A
:102350002DE9F04F784D95F843312A3BBBB02D2B3A
:102360002FD8DFE813F0FB002E002E002E002E00E9
:102370002E009C0133003300330033003300330060
:102380003300330033002E002E002E002E002E00CE
:102390002E002E00CB00B901CB002E00DE012E0056
:1023A0002E002E002E002E002E002E002E002E00BD
:1023B0002E002E002E002E002E002E002E002E00AD
:1023C000FE013BB0BDE8F04FFFF720BE72B65B4B9D
:1023D000186862B65A4B984205DDA0F50300A0F5D7
:1023E00056409842F9DC1FF08DFA5649564C1FF0C2
:1023F00091FB56491FF0DAFA1EF02AFE544B0022D8
:102400001EF07EFED4E9D8231EF0C2FC15F0CCF9F4
:10241000504BD3E9026746A3D3E900231EF070FEB8
:10242000CDE9020142A3D3E90023D4E9D6011EF08D
:1024300067FE0022CDE90001002314A814F0BCFAC5
:1024400021460EA80CF058FB39A3D3E900233046EF
:1024500039461EF055FE0DF1380C80468946BCE821
:102460000F00EE46AEE80F009CE803004B468EE8F6
:102470000300424614A92CA814F0EEFA94F818337D
:10248000002B00F07881304920A80DF0B9F92CA874
:1024900014F06EFC80462CA8894614F055FC20AB45
:1024A000CDE90601184614F007FD20AB8246184618
:1024B0008B4614F0F7FCDDE90623CDE90401CDE9F4
:1024C0000023CDE902AB4B462348424617F0E4F81F
:1024D00094F81933002B40F05F8195F843312F3B7E
:1024E0000122DBB2002184F82B2384F82C3384F8FA
:1024F0003610FFF74BFD3BB0BDE8F08F124C0120CA
:102500000AF00EFB20460CF0DFFA95F84331A3F1F8
:102510004103B3FA83F300225B0984F82A3384F879
:102520002B2384F82C233BB0BDE8F04FFFF72EBDE2
:10253000000000A046DF913FF88FFF1F5891FF1F5A
:1025400000D6830000D6034B4092FF1F0000C0411D
:1025500000002E40F891FF1F8893FF1FAA4C012016
:102560000AF0DEFA04F5A96001210CF0BFFB0A2095
:1025700018F07EF994F87834002B40F00981A248D5
:102580000FF0A8FD94F8403307461BB1002284F8F1
:1025900040231F4672B69D4B186862B69C4B98420A
:1025A00005DDA0F50300A0F556409842F9DC1FF0C8
:1025B000A9F998491FF0AEFA97491FF0F7F91EF0F4
:1025C00047FD964B00221EF09BFDD4E9D8231EF058
:1025D000DFFB15F0E9F8924BD3E9028982A3D3E936
:1025E00000231EF08DFDCDE902017FA3D3E9002376
:1025F000D4E9D6011EF084FD0022CDE900010023BC
:1026000014A814F0D9F908A87F490CF075FA76A33C
:10261000D3E90023404649461EF072FD08AD8046CE
:1026200089460FCD6E460FC695E803004B4686E8F7
:102630000300424614A92CA814F00EFA3A462CA91D
:1026400071480CF07DFF20A86F490DF0D9F82CA837
:1026500014F08EFB82462CA88B4614F075FB0646C0
:1026600020A80F4614F028FC804620A8894614F0C4
:1026700019FC5246CDE904015B466A48CDE902895E
:10268000CDE9006717F008F80122022384F82B2314
:1026900084F82C33FFF77AFC3BB0BDE8F08F5A4C3E
:1026A00001200AF03DFA20460CF00EFA012104F553
:1026B000A9600CF01BFB0A2018F0DAF894F87834C3
:1026C000002B61D1012384F82B33A4F82C333BB0C9
:1026D000BDE8F04FFFF75ABC00231A461946059390
:1026E000049303930293019300934E4816F026FD42
:1026F000454B002400260027C3E9C86783F8194327
:10270000A3F82C43C42083F8284383F82B430AF012
:10271000BBF9214617F052FC3BB0BDE8F04FFFF784
:1027200035BC394991F8193313B331A3D3E90023E8
:10273000D1E9C8011EF0E4FC3B4C0123CDE92C019A
:1027400000932CA90022204614F0BEFE204621F062
:10275000D7FE3649022220443BB0BDE8F04F17F0C7
:102760005BBC0AF0F5FC3BB0BDE8F04FFFF70EBCD8
:1027700000200021E0E720460FF0ACFC2CA9024627
:1027800020460CF0DDFE7EE6204610F0D5FD99E7F0
:10279000204610F0D1FDF2E6224816F05DFEA37D42
:1027A000012B12D0002200231E4816F0F9FD164816
:1027B0000FF090FC2CA9024613480CF0C1FE012337
:1027C000002284F8283313468CE63046394600222E
:1027D00000231EF01BFF18B107A3D3E90023E3E792
:1027E00007A3D3E90023DFE7000000A046DF913F05
:1027F00000000020DCA54C4000000060FB21F93FF8
:1028000000000060FB21F9BF4092FF1F5891FF1F9D
:1028100000D6830000D6034B0000C04100002E40CC
:10282000F891FF1F8893FF1F6890FF1F8CA702007D
:1028300008B517F073FBBDE8084017F06FBB00BF89
:102840000C4B9B7D022B0DD005D8012B0ED10A4BD2
:1028500047221A807047033B012B07D8064B4122C1
:102860001A807047044B50221A807047024B4C224A
:102870001A8070474092FF1F6890FF1F08B517F03D
:102880004DFBBDE8084017F049BB00BF044B93F86F
:1028900043312B2B02D02D2B00D07047FFF7B6BB56
:1028A000F88FFF1F08B517F039FBBDE8084017F097
:1028B00035BB00BFFFFFFFFF2DE9F04FBC4CB3B0AD
:1028C00020460FF0EBFB10B133B0BDE8F08F20468F
:1028D0000FF0F4FB0028F7D1B64D95F84331412BAA
:1028E00009D04D3BDBB2082BEED840F2411222FA60
:1028F00003F3DB07E8D5AE480FF0ECFB94F8403368
:1029000080461BB1002284F84023984695F8433155
:10291000413B142BD8D801A252F823F0DD2B000044
:10292000C9280000C9280000C9280000C9280000E3
:10293000C9280000C9280000C9280000C9280000D3
:10294000C9280000C9280000C9280000712900001A
:10295000C9280000C9280000C9280000C9280000B3
:10296000C928000071290000C9280000912A000030
:1029700094F82A33002B00F0508172B68E4B186801
:1029800062B68E4B984205DDA0F50300A0F55640D7
:102990009842F9DC1EF0B6FF89491FF0BBF889495F
:1029A0001FF004F81EF054FB874B00221EF0A8FB1A
:1029B000D4E9D8231EF0ECF914F0F6FE7AA3D3E99B
:1029C00000231EF09DFB78A3D3E90023CDE902018B
:1029D000D4E9D6011EF094FB0022CDE900010023CA
:1029E0000CA813F0E9FF79496FA3D3E90023D1E9DB
:1029F00002011EF085FB06460F4606A86C490CF046
:102A00007BF80DF1180CBCE80F00EE46AEE80F00A5
:102A10009CE803003B468EE8030032460CA924A83C
:102A200014F01AF894F81833002B00F05D81604917
:102A300018A80CF0E5FE24A814F09AF9064624A87C
:102A40000F4614F081F9824618A88B4614F034FA28
:102A5000804618A8894614F025FA3B46CDE90401C2
:102A6000CDE90289CDE900AB5948324616F014FE93
:102A700094F81933002B40F01D8195F843314D2B0C
:102A800000F011814A4833B0BDE8F04F10F054BC5B
:102A90000E2009F0F9FF064617F076FA002560F3DC
:102AA0000705701C17F070FA60F30F25B01C17F0C3
:102AB0006BFA0346F01C63F3174517F065FA60F3F1
:102AC0001F6528461EF0C4FA02460B461220C4E9D0
:102AD000D82309F0D9FF064617F056FA002560F30F
:102AE0000705701C17F050FA60F30F25B01C17F0A3
:102AF0004BFA0346F01C63F3174517F045FA60F3F1
:102B00001F6528461EF0A4FAC4E9D60172B62A4B06
:102B1000186862B6294B984205DDA0F50300A0F5C0
:102B200056409842F9DC1EF0EDFE25491EF0F2FFFA
:102B300024491EF03BFF1EF08BFA234B00221EF0AF
:102B4000DFFAD4E9D8231EF023F914F02DFE16A3E2
:102B5000D3E900231EF0D4FA13A3D3E90023CDE96F
:102B60000201D4E9D6011EF0CBFA0022CDE9000122
:102B7000002324A813F020FF14490BA3D3E900235A
:102B8000D1E902011EF0BCFA4246CDE90001084835
:102B900024A90CF0B1FC0F4A0F4B92E80300186017
:102BA000197191E6AFF30080000000A046DF913F6D
:102BB0004092FF1FF88FFF1F5891FF1F00D6830020
:102BC00000D6034B0000C04100002E40F891FF1FCB
:102BD0008893FF1F38AB02006890FF1F012104910A
:102BE0004DA3D3E90023D4E9D4011EF089FA4AA306
:102BF000D3E90023CDE90201D4E9D2011EF080FA25
:102C00000022CDE90001002324A813F0E5FF42468D
:102C100024A947480CF094FCBDE772B6454B1868F0
:102C200062B6454A904205DDA0F50300A0F5564086
:102C30009042F9DC1EF066FE40491EF06BFF4049F1
:102C40001EF0B4FE1EF004FA3E4B00221EF058FAAD
:102C5000D4E9D8231EF09CF814F0A6FD2EA3D3E9E6
:102C600000231EF04DFA2CA3D3E90023CDE9020185
:102C7000D4E9D6011EF044FA0022CDE90001002378
:102C800024A813F099FE304923A3D3E90023D1E906
:102C900002011EF035FA4246CDE9000124A924487C
:102CA0000CF02AFCE9E6294B93E80300286785F835
:102CB0007410E7E6264816F0CFFBA37D012B19D050
:102CC00000220023224816F06BFB19480FF002FA8D
:102CD00024A9024616480CF033FC0122002384F894
:102CE000282384F82A33C8E6424624A910480CF069
:102CF00027FC9CE6144B0022D3E9020100231EF0BE
:102D000085FC18B106A3D3E90023DBE706A3D3E9CA
:102D10000023D7E7AFF30080000000A046DF913F1B
:102D200000000060FB21F93F00000060FB21F9BFBB
:102D30004092FF1F5891FF1F00D6830000D6034B1F
:102D40000000C04100002E40F891FF1F38AB020088
:102D50008893FF1F08B517F0E1F8BDE8084017F0A9
:102D6000DDB800BF10B50D4C94F8433103B110BD70
:102D70000B480FF09DF968B17F23A4F87030094C1F
:102D8000204621F0BDFB084920440222BDE8104046
:102D900017F042B984F87000F1E700BFF88FFF1F09
:102DA0004092FF1F6890FF1F8CA7020008B517F024
:102DB000B5F8BDE8084017F0B1B800BFFFFFFFFF4E
:102DC0002DE9F041B04A92F84331413BA0B00C2BC1
:102DD00013D8DFE803F007127F2C1212121212121E
:102DE0001212170092F84431512B00F06881532BD6
:102DF00000F07781452B00F0678120B0BDE8F041FD
:102E0000FFF704B992F84431532B7BD0412B00F0EB
:102E1000F381552B00F04282512BEED19B4B0022C7
:102E200083F8362020B0BDE8F041FFF7AFB8974CEB
:102E300094F83630012B00F0C780022B5AD1D4E928
:102E4000D4018FA3D3E90023012504951EF058F97E
:102E5000CDE902018AA3D3E90023D4E9D2011EF00F
:102E60004FF912ADCDE9000100220023284613F0EE
:102E7000B3FE20460FF02EF910AA0EAB0C920B9366
:102E80000A900DF1580CBCE80F006C460FC4BCE86A
:102E90000F000FC49CE8030084E8030095E80F00CE
:102EA00010F026FD7A4904460E981EF07FFD1EF0B4
:102EB00059FF7749054610981EF078FD1EF052FF25
:102EC000744900902B467448224620F065FE20B0DD
:102ED000BDE8F08192F84431532B00F01281542B5D
:102EE00000F0EA80452B00F0F88020B0BDE8F0410A
:102EF000FFF778B80023674900931A46664820F028
:102F00004BFEE4E772B6654B186862B6644B9842B4
:102F100005DDA0F50300A0F556409842F9DC1EF04F
:102F2000F1FC6049594E1EF0F5FD5F491EF03EFD73
:102F30001EF08EF85D4B00221EF0E2F8D6E9D82391
:102F40001DF026FF14F030FC4DA3D3E900231EF042
:102F5000D7F8CDE902014AA3D3E90023D6E9D60187
:102F60001EF0CEF812ADCDE9000100220023284664
:102F700013F022FD30460FF0ADF810AB0D934C4925
:102F80000EAB0C9307463EA3D3E90023D1E902011F
:102F90001EF0B6F8CDE90A0108970DF1580CBCE80F
:102FA0000F006C460FC49CE80F0084E80F0095E802
:102FB0000F0010F029FD3F490246374820F0ECFD94
:102FC000012386F8363082E772B6344B186862B651
:102FD000334B984205DDA0F50300A0F5564098421A
:102FE000F9DC1EF08FFC2F491EF094FD2E491EF0D7
:102FF000DDFC1EF02DF82D4B00221EF081F8D4E9E7
:10300000D8231DF0C5FE14F0CFFB1DA3D3E9002388
:103010001EF076F802460B46D4E9D601CDE902232C
:1030200017A3D3E900231EF06BF812ADCDE9000120
:1030300000220023284613F0BFFC14480FF04AF882
:1030400010AC1B490D9406460EACD1E902010CA34D
:10305000D3E900230C941EF053F8CDE90A01089639
:103060000DF1580CBCE80F006C460FC49CE80F0033
:1030700084E80F0095E80F0010F0C6FC12E700BFCF
:10308000000000A046DF913FF88FFF1F4092FF1F16
:103090000000704240AB02006890FF1F5891FF1F74
:1030A00000D6830000D6034B0000C04100002E4034
:1030B000F891FF1F50AB02006F480CF051FA20B09E
:1030C000BDE8F041FEF76ABF6B4812AB10AA0EA92B
:1030D0000CF090FBFEF778FFF9E667480CF068FA11
:1030E000EDE7654C0023204684F8FD340CF060FACF
:1030F00012AB10AA0EA920460CF07CFBFEF74EFF87
:10310000E5E65D4C94F83630012B25D0022BD6D164
:10311000D4E9D40156A3D3E90023012504951DF079
:10312000EFFFCDE9020152A3D3E90023D4E9D20194
:103130001DF0E6FF0023CDE90001002212A813F0E4
:103140004BFD20460EF0C6FF12A9024620460CF0A9
:10315000F7F9FEF723FFBAE672B6484B186862B675
:10316000474B984205DDA0F50300A0F55640984274
:10317000F9DC1EF0C7FB43491EF0CCFC42491EF0AF
:1031800015FC1DF065FF414B00221DF0B9FFD4E98D
:10319000D8231DF0FDFD14F007FB35A3D3E9002370
:1031A0001DF0AEFF02460B46D4E9D601CDE902235D
:1031B0002FA3D3E900231DF0A3FF0022CDE90001D6
:1031C000002312A813F0F8FB2B480EF083FF3049C0
:1031D00027A3D3E900230446D1E902011DF090FFA3
:1031E00006460F46224612A9CDE9006722480CF098
:1031F00083F9FEF7D3FE6AE61F4F1DA3D3E9002330
:10320000D7E9D401012404941DF07AFFCDE902012D
:1032100017A3D3E90023D7E9D2011DF071FF12AE45
:10322000CDE9000100220023304613F0D5FC3846DA
:103230000EF050FF10AB0C930EAB0B930A9016AD33
:103240000FCD6C460FC40FCD0FC495E8030084E882
:10325000030096E80F0010F04BFB0E4902460E48A3
:1032600020F09AFC022387F8363030E6AFF3008076
:10327000000000A046DF913F4092FF1F5891FF1FC2
:1032800000D6830000D6034B0000C04100002E4052
:10329000F891FF1F50AB02006890FF1F0E2009F04D
:1032A000F3FB044616F070FE00250346601C63F332
:1032B000070516F069FE0346A01C63F30F2516F000
:1032C00063FE0346E01C63F3174516F05DFE60F3F2
:1032D0001F6528461DF0BCFE434C02460B461220DB
:1032E000C4E9D82309F0D0FB064616F04DFE0025B0
:1032F0000346701C63F3070516F046FE60F30F25C6
:10330000B01C16F041FE0346F01C63F3174516F09F
:103310003BFE60F31F6528461DF09AFEC4E9D60106
:1033200072B6324B186862B6314B984205DDA0F593
:103330000300A0F556409842F9DC1EF0E3FA2D494F
:103340001EF0E8FB2C491EF031FB1DF081FE2B4BDB
:1033500000221DF0D5FED4E9D8231DF019FD14F08C
:1033600023FA1FA3D3E900231DF0CAFECDE9020111
:103370001BA3D3E90023D4E9D6011DF0C1FE12AF8F
:10338000CDE9000100220023384613F015FB164852
:103390000EF0A0FE10AB0D9319490EAB0C938046B6
:1033A0000FA3D3E90023D1E902011DF0A9FECDE965
:1033B0000A01CDF8208016AE0FCE6D460FC596E8F7
:1033C0000F0085E80F0097E80F0010F01DFB0D4976
:1033D00002460D4820F0E0FB012384F8363076E504
:1033E000000000A046DF913F4092FF1F5891FF1F51
:1033F00000D6830000D6034B0000C04100002E40E1
:10340000F891FF1F50AB02006890FF1F08B516F03F
:1034100085FDBDE8084016F081BD00BF2DE9F043F1
:103420005F4B93F837508BB055B95E4B93F84331EF
:103430003F2B00F0A7800BB0BDE8F043FEF7E6BDE0
:1034400000233A22CDE902230493059306930793C0
:103450000893ADF8243018F019FA01E018F04EFA8C
:1034600018F038FA0028F9DC02AF384621F048F8A5
:103470004D494C4E384420F0A1FD4C490222C41B5A
:1034800016F0CAFD96F84331572B29D83E2B12D897
:10349000213BDBB2172B09D84549012202FA03F37D
:1034A000194081BB41F20942134212D1FEF7AEFD31
:1034B0000BB0BDE8F0833F3B3E49DBB2012202FA8C
:1034C00003F31940F1B93C4A1A40E2B93B4A1342AE
:1034D000ECD0611C384618F051F918F0D7F9E5E73F
:1034E000613BDBB21D2BE1D8012202FA03F3344A1F
:1034F0001A4008D133490B4204D1334A1A40002AFA
:10350000D4D0E6E70025DFF8C4803846611C18F007
:1035100035F918F0BBF9D8F800300093009FD8F8BF
:1035200000300193019B07F5FA779F4225D90024CB
:103530004FF4965914E018F0E1F93319C0B2013490
:1035400083F870001DBB232827D0D02C15DC33193D
:1035500083F87050D8F800300193019B9F420CD93A
:1035600018F0B8F90028E6DC4B46013BFDD1D8F84D
:1035700000300193019B9F42F2D8FEF71DFD0BB076
:10358000BDE8F0830BB0BDE8F043FEF71DBD00229F
:10359000312883F871208BD0EFE783F8715087E7EB
:1035A0004092FF1FF88FFF1F3A91FF1F8CA7020068
:1035B0000080FF000540800010040101000116009A
:1035C0000451020001008020400004002C9CFF1FD9
:1035D00008B516F0A3FCBDE8084016F09FBC00BF7C
:1035E00070B5044682B0D0E9000114F0E3F80B4D49
:1035F00095F8EE600122C4E90001002321460096FF
:10360000284613F061FF284620F07AFF0449022281
:10361000284402B0BDE8704016F0FEBC6890FF1F61
:103620008CA70200FFFFFFFF2DE9F047924C94F8B2
:103630004321A2F1280392B04C2B00F29980DFE8DD
:1036400013F0EB00D90097009700970097009700C0
:1036500097009700970097009700970097009700B2
:1036600097009700970097009700970097009700A2
:1036700097009700D90097003502EB00970097005C
:10368000930297009700970097004D009C009C00C4
:103690009C0097009700EB00A402FB0197002F010C
:1036A0000502CB029700D90097009700970097007A
:1036B000970097004D009700C201B201A801970141
:1036C000C601DC0297009700970097007102A002E4
:1036D000F50197009700E0019700D00216F0D4FFA3
:1036E000664B67490446D86A1EF060F91EF03AFB43
:1036F0000346DB17201A634C63EB4301C4E9060160
:1037000011F0FEF80646D4E9060111F0CDF81EF0DE
:10371000F9F85D491EF0FEF9054630461EF0F2F854
:10372000014628461EF03AF80546D4E9060111F094
:10373000D1F81EF0E7F852491EF0ECF929461EF0C8
:103740002DF81DF085FC514D02460B462146E1E95E
:103750000A230122284613F01BFE284620F0D0FE43
:103760004B490222284412B0BDE8F04716F054BC81
:1037700012B0BDE8F047FEF735BCA2F14D05454F4C
:1037800005EB45086FF0590608EBC808361B07F132
:103790000F094644BA4606EB0A0016F0F5FB0AF894
:1037A000010F002800F0AD82D145F4D13A493748E5
:1037B0002A4620F0F1F9354820F0A2FE0E2817D84D
:1037C000324E002508F1150808EB0504204616F0D6
:1037D000DBFB17F8019F814505F1010549462046AD
:1037E00001D016F0EBFB304620F08AFE8542EBDD7F
:1037F000264DB5E7294904A80CF0AAF894F84331FE
:10380000412B00F00B835A2B00F03F83292B00F053
:10381000628312B0BDE8F087184913A3D3E90023EF
:10382000D1E902011DF06CFC0B4602461B4904A8BD
:103830000CF01AF894F84331522B00F09282442B8A
:1038400000F02E83282BE4D104A813F08DF908A3EF
:10385000D3E900231DF054FC02460B4602A8CDE933
:103860000223FFF7BDFED4E7000000A046DF913F32
:1038700000000020DCA54C40F88FFF1FF891FF1FCF
:10388000000061455891FF1F000070426890FF1FC3
:103890008CA702006790FF1F94AB02004092FF1FAD
:1038A00094F84431423B2E2B3FF662AF01A252F80E
:1038B00023F000BFDF3C000071370000C53C000072
:1038C0007137000071370000713700007137000058
:1038D0007137000071370000713700007137000048
:1038E00071370000B13C000071370000353C00002A
:1038F000713700007137000071370000233C000071
:103900007137000071370000713700007137000017
:103910007137000071370000713700007137000007
:1039200071370000713700007137000071370000F7
:10393000713700001B3C0000713700007137000038
:1039400071370000713700007137000071370000D7
:1039500071370000713700007137000071370000C7
:10396000713700007137000071370000073C00001C
:10397000B14BD3E9E0011DF0BBFE04AB00220021F6
:1039800016F0D2FC04A9AD4820F018FBAC49022285
:10399000E9E6AC4BAC49B3F91820A84812B0BDE831
:1039A000F04720F0F9B894F844314C2B00F0D48162
:1039B000A24D94F85E010090A449002201232846FC
:1039C00013F082FDC9E69D4BA14A1A6021E794F8E5
:1039D0004401A049994CA0F166000123B0FA80F09F
:1039E00040091A460090204613F06EFD204620F054
:1039F00087FD93490222204412B0BDE8F04716F03B
:103A00000BBB94F844314C2B00F0A1818A49924BB6
:103A10008A4D0022D1E9D8011DF09CFC0F460646D4
:103A2000CDE9046794F85E2104A993E6824B8B49A3
:103A3000D3F82C218148B1E77F4C94F88A33002BCE
:103A400040F0C8810020052204AB98E77A4EB47D8F
:103A5000022C00F0CF8100F24681012C40F0D4818D
:103A6000764D284620F04CFD7D490222284416F070
:103A7000D3FA96F88A337148002B00F04C8120F07D
:103A80003FFD78490222284416F0C6FA6A480EF033
:103A90000DFB002800F04781684820F031FD724995
:103AA0000222284416F0B8FA644857E616F0ECFDF6
:103AB000644B6E496E4D0446D86A1DF077FF1EF0C8
:103AC00051F90346DB17201A63EB4301C5E90601F0
:103AD00010F042FF0446D5E9060110F0CFFE06467D
:103AE000D5E9060110F022FF0746D5E9060110F0DE
:103AF00007FFD5E9060110F0D7FED5E9060110F061
:103B0000E9FE5C4A4D4882FB0412E317C3EB6213E3
:103B1000642202FB1344584900943B46324620F08D
:103B20003BF876E64448454D0EF0D4FA534B1B68FB
:103B30002B801A0C0128AA7000F085810228B3D1CD
:103B40003D480EF0DBFA002840F0F6813D490023A5
:103B5000D1E9020100221DF059FD002814BF5723AE
:103B6000452384F870309FE7364BD86A1DF070FA11
:103B70000B4643490246314812B0BDE8F04720F0F9
:103B80000BB8404A40492D4808E772B6384B1868D0
:103B900062B63E4B984205DDA0F50300A0F5564005
:103BA0009842F9DC1DF0AEFE39491DF0B3FF3949EA
:103BB0001DF0FCFE1DF04CFA94F8444102460B4601
:103BC0004C2CCDE9042300F000811C4C012204A9F7
:103BD000204613F0DDFB09E712B0BDE8F04701F025
:103BE000FBBE94F844012C49144CA0F16600B0FAD5
:103BF00080F0400900220123F4E60F4B2749D3F857
:103C000028210E48CAE6264A0C4B07CA03C31846A9
:103C10000B4900F8012B0222A5E5224907480122A1
:103C2000BCE6214A054B92E80300232283E8030007
:103C30001A81EEE51D4AE7E74092FF1F6890FF1FDB
:103C40008CA70200F891FF1F78AB02009895FF1F28
:103C5000323423000892FF1F00002E40A4AB020064
:103C6000FCAB020004AC02000CAC02000000614599
:103C70005891FF1F1F85EB5154AB02009CAB020013
:103C800080AB02001292FF1FA0AB020000D683009F
:103C900000D6034B0000C0410092FF1F8CAB020016
:103CA000D8AB0200F0AB0200E4AB0200CCAB0200E8
:103CB000AF4AB04B92E80300022218601971581DF8
:103CC000AD4950E5AD4AAB4B07CA03C323F8022BFD
:103CD0001846140CA84900F8014B022243E5A849F4
:103CE000A448DC225AE6033C012C00F28D80A14D51
:103CF000284620F005FCA3490222284416F08CF93E
:103D0000B7E694F87030002B3FF450AD994D28463B
:103D100020F0F6FB24E520F0F3FB9B490222284427
:103D200016F07AF9B2E699480EF0B8F9002840F09A
:103D3000A38096F828338F48002B00F0958020F060
:103D4000DFFB93490222284416F066F9ACE68F4B5C
:103D50009049D3E9D8230EE78C4B8E49D3E9D6237B
:103D600009E794F844314C2B00F0B98072B68A4BC5
:103D7000186862B6894B984205DDA0F50300A0F5EE
:103D800056409842F9DC1DF0BDFD8549794D1DF086
:103D9000C1FE84491DF00AFE1DF05AF96CA3D3E957
:103DA00000231DF0ADF902460B4604A812F0F0FE08
:103DB00069A3D3E900231DF0A3F90F460646CDE918
:103DC000026794F85E2102A9C4E4774969481FF0AC
:103DD000E3FE1EE520460EF06BF900287FF432AEBC
:103DE0005FA3D3E90023D4E9E4011DF089F91DF0B4
:103DF0007FFC28E65F4D284620F082FB6B49224677
:103E0000284416F009F934E65A4D284620F078FB8C
:103E100067490222284416F0FFF82AE604A812F0A7
:103E200093FF51A3D3E900231DF06AF9514D94F893
:103E30005E410094CDE902010022012302A9284637
:103E400013F042FB89E451480EF058F9002875D16F
:103E500058490023D1E9020100221DF0D7FB0028B8
:103E600014BF452357237CE620F04AFB5249022227
:103E7000284416F0D1F817E63E4820F041FB4B49A4
:103E80000222284416F0C8F80EE604A812F060FFDB
:103E900035A3D3E900231DF033F913F0A5FCDBE4CF
:103EA00004A812F065FE30A3D3E900231DF028F921
:103EB00094F8445102460B464C2DCDE902233FD0E5
:103EC0002C4D94F85E010090002202A9012328469F
:103ED00013F0FAFA41E404A812F032FFB7E472B624
:103EE0002D4B186862B62D4B984205DDA0F50300F6
:103EF000A0F556409842F9DC1DF004FD28491DF05C
:103F000009FE28491DF052FD1DF0A2F810A3D3E9C7
:103F100000231DF0F5F802460B4604A812F038FE07
:103F200011A3D3E900231DF0EBF802460B4611481C
:103F300022491FF031FE6CE4572312E6452310E6B8
:103F400014490C481FF028FE63E400BFAFF3008063
:103F50000000004052C1D03F000000A0C88E0E40BB
:103F6000000000E006154E4000000020DCA54C409B
:103F7000C4AB02006890FF1F8CA70200B8AB020020
:103F8000F0AB0200F4AB020008AC02004092FF1F4D
:103F9000C8AB02006CAB02005891FF1F00D6830033
:103FA00000D6034B0000C041ACAB0200F8AB0200EE
:103FB00000AC0200F891FF1F10AC020064AB0200DD
:103FC00008B515F0ABFFBDE8084015F0A7BF00BF6E
:103FD0002DE9F04F87B016F057FB0021044610F092
:103FE000BBFC00210646204610F048FC0021054697
:103FF000204610F09BFC6B1E012B98BF06F1FF368C
:104000008046304698BF0C351DF07CFCD6490646EC
:104010001DF080FD19F046FFD449074630461DF0DB
:1040200079FD19F03FFFD249034630461E461DF088
:10403000BDFC19F037FF814628461DF063FC4FF0A8
:104040007E511DF0ABFBCB491DF0B0FC19F02AFFEF
:10405000394605464FF080401DF09EFB31461DF06D
:104060009DFB1CF0F5FF064648460F461CF0F0FF8E
:1040700002460B46304639461CF08CFE0646284662
:104080000F461CF0E5FF02460B46304639461CF051
:1040900081FE064640460F461CF0C8FF02460B460E
:1040A000304639461CF076FE99A3D3E900231CF074
:1040B00071FE82468B462046002110F021FC002133
:1040C0000646204610F0F0FB1DF01CFCAA491DF02E
:1040D00021FD054630461DF015FC014628461DF021
:1040E0005DFB0021034620461C4610F0F3FB1DF04B
:1040F00009FCA2491DF00EFD21461DF04FFB1CF0EE
:10410000A7FF9F4BCDE900010022504659461CF005
:1041100041FE19F0F9FD80A3D3E9002304460D46C2
:104120001DF07EFA58B37EA3D3E90023204629462A
:104130001CF02EFE7CA3D3E900231DF00BF91DF02B
:104140008FFA1CF073FF8F4B002206460F461CF0BF
:10415000D7FF19F0D9FD02460B46204629461446E2
:104160001D460022884B1CF015FE32463B461CF0D3
:1041700011FE22462B461CF00BFE04460D466CA396
:10418000D3E90023204629461CF004FE6AA3D3E9A4
:10419000002304460D461CF0FBFD69A3D3E9002370
:1041A0001DF0D8F819F0B0FD02460B46CDE9022308
:1041B00063A3D3E900231CF0A3FF19F0A5FD024679
:1041C0000B46204629461CF0E3FD5FA3D3E90023FC
:1041D000804689461DF0BEF819F096FD5AA3D3E932
:1041E000002304460D461CF08BFF19F08DFD0022C4
:1041F00006460F460023404649461CF0CBFD32469A
:104200003B461CF0C5FD19F07FFD1DF029FA5F4B00
:1042100006460022204629461DF0E4F9002800F059
:104220001482594B2046002229461CF0B1FD1DF096
:1042300017FA044620461DF065FB554980461DF0DF
:1042400071FD002800F0F68141A3D3E90023DDE9E8
:1042500002011CF09DFD1DF003FA0546631E012BB3
:1042600005D804F10C001DF04DFB013D80462846A9
:104270001DF048FB3C4904461DF04CFC19F012FEB1
:104280003A49074620461DF045FC19F00BFE384917
:10429000054620461DF08AFB19F004FE4FF07E51C2
:1042A000044640461DF07AFA32491DF07FFB19F0B2
:1042B000F9FD034659465046059327A3D3E9002349
:1042C0001CF066FD334B804689460022DDE9000183
:1042D0001DF040F802460B46404649461CF05AFD88
:1042E0001FA3D3E9002382468B461DF033F8024614
:1042F0000B464FF080403946CDE902231DF04CFAC1
:1043000029461DF04BFA1CF0A3FE804644E000BF96
:1043100000000080A2423A41000000008C8A414126
:1043200000000040D07D3C410000000088D5E14005
:104330000000000000D097400000006066865E40EC
:104340000000000000D4764000000020A0993E400C
:1043500000000000006CB240000000802CB442411C
:1043600000000000A0D5E1400000C8420000C843A2
:1043700000A0B64301CDF441000070420000614549
:104380000000E03F0000D03F0000F03F00002B4065
:104390000000204000003840204689461CF058FEAE
:1043A00002460B46404649461CF0F4FC044605987C
:1043B0000D461CF04DFE02460B46204629461CF0D9
:1043C000E9FC044630460D461CF030FE02460B4622
:1043D000204629461CF0DEFCA1A3D3E900231CF0F3
:1043E000D9FCA1A3D3E900231CF0D2FCA0A3D3E9FC
:1043F00000231CF085FEA0A3D3E900231CF0CAFC17
:10440000B74B0022804689461DF000F978B1B44DC3
:10441000002422462B46404649461CF0B9FC224661
:104420002B46804689461DF0F1F80028F1D1002284
:104430000023404649461DF0D5F888B1A84F002614
:10444000002400254046494632463B461CF0A2FC6B
:1044500022462B46804689461DF0C4F80028F1D13B
:1044600087A3D3E90023DDE900011CF049FE4246A1
:104470004B461CF08FFCDDE9026783A3D3E90023E0
:1044800004460D46304639461CF03AFE32463B465D
:104490001CF036FE02460B46204629461CF07AFCEC
:1044A0008F4B0022804689461DF0B0F878B18C4DC4
:1044B000002422462B46404649461CF069FC224611
:1044C0002B46804689461DF0A1F80028F1D1002234
:1044D0000023404649461DF085F888B1804F0026EC
:1044E0000024002532463B46404649461CF052FC1B
:1044F00022462B46804689461DF074F80028F1D1EB
:1045000063A3D3E90023504659461CF0F9FD024647
:104510000B4661A1D1E900011CF03AFC60A3D3E98C
:1045200000231CF017FF19F005F95FA3D3E900235E
:1045300004460D46504659461CF0E2FD5CA3D3E903
:1045400000231CF027FC02460B461CF023FC54A35E
:10455000D3E900231CF0FEFE19F0ECF856A3D3E9D2
:10456000002306460F46504659461CF0C9FD024638
:104570000B4653A1D1E900011CF00AFC48A3D3E982
:1045800000231CF0E7FE19F049F84FA3D3E90023FC
:1045900082468B46204629461CF0B2FD4CA3D3E947
:1045A000002304460D46304639461CF0A9FD02465C
:1045B0000B46204629461CF0EBFB52465B461CF09E
:1045C0009FFD42464B461CF0E5FB454B00228046D2
:1045D00089461DF01BF878B1414D002422462B4638
:1045E000404649461CF0D4FB22462B46804689466D
:1045F0001DF00CF80028F1D1002200234046494666
:104600001CF0F0FF88B1364F00260024002532460A
:104610003B46404649461CF0BDFB22462B468046A1
:1046200089461CF0DFFF0028F1D14046494607B01B
:10463000BDE8F08F28A3D3E90023DDE902011CF0D7
:10464000A7FB1DF00DF8054608E6264B2046002284
:1046500029461CF09DFB1DF003F80446EAE500BF67
:1046600000000080A2423A41000000802CB4424188
:10467000000000E05BD2B03F000000801CCA1A407E
:10468000000000E0360BF03F000000605243FB3EAC
:1046900000000060C91CAB3F000000608F425F401B
:1046A00000000020DCA54C40000000E0718AEF3FD4
:1046B0000000002085877140000000A0F2D79A3EDC
:1046C0000000000076703740000000A0EEE734BF25
:1046D00000000080732AF93E00000000006BB24029
:1046E0000000384000002A40704700BF224B93F87A
:1046F000380000B9704710B493F8842085B03AB9F7
:10470000002093F83C20EAB9002005B010BC7047A7
:104710001A48D3F8904002680092009A41F287311B
:10472000121B8A42ECD893F87420002AE8D0026861
:1047300001920198D3F88020801A88428CBF002013
:104740000120DEE70D4C196F22680292029A521A7C
:1047500041F287318A42D7D893F8B420002AD3D0C7
:1047600022680392D3F8B820039B9B1A8B428CBF1C
:10477000002000F00100C8E74092FF1F2C9CFF1FA3
:10478000124B93F884200AB90020704710B41048E7
:10479000D3F89040026883B041F287310092009ACA
:1047A000121B8A420DD893F8742052B1026801920C
:1047B0000198D3F88030C01A88428CBF00200120B5
:1047C00000E0002003B010BC704700BF4092FF1F04
:1047D0002C9CFF1F114B93F83C200AB90020704716
:1047E00010B40F481C6F026883B041F28731009209
:1047F000009A121B8A420DD893F8B42052B1026875
:104800000192D3F8B8300198C01A88428CBF0020BA
:10481000012000E0002003B010BC70474092FF1F51
:104820002C9CFF1F154B93F8D4200AB90020704729
:1048300000B5134AD3F8D800126883B041F287312B
:104840000192019A121A8A4203D9002003B05DF83E
:1048500004FB0022D3F8DC0083F8D5201DF052F8C9
:1048600008491DF057F94FF080411DF03DFA00381E
:1048700018BF012003B05DF804FB00BF4092FF1F8A
:104880002C9CFF1F0000C8422DE9F0472F4F304DF0
:104890003B6829688CB041F288320193019B5B1A16
:1048A000934204D82B4B18780CB0BDE8F0872A4B04
:1048B00003F1100C0FCB04AE86E80F009CE80F004C
:1048C00008AC84E80F00304613F028F880463046E4
:1048D00013F034F88246304613F042F88146204601
:1048E00013F04AF80646204613F052F803462046D5
:1048F0001C4613F063F808F14E08034602A88DF831
:1049000008308DF809408DF80DA08DF80C908DF8C9
:104910000A608DF80E8010F037F8044615F0B4FEEA
:104920003A680292041B029A2A60002C0B4A034642
:10493000B8BF6442042C9361064BCCBF0020012019
:104940000021D16118700CB0BDE8F0872C9CFF1FCE
:10495000E091FF1FE491FF1FB492FF1F5891FF1FCA
:104960002DE9F04F094BDFF828B01B68DBF8001089
:104970009DB041F288320C930C9B5B1A93420BD88A
:10498000044B18781DB0BDE8F08F00BF2C9CFF1FB2
:10499000EC91FF1FF091FF1FD34BD44CD3F8BC50C8
:1049A000DFF84C93DFF84CA3DFF84C8303F13C0EA7
:1049B000BEE80F000DF1380CACE80F00BEE80F00A8
:1049C000ACE80F00BEE80F00ACE80F009EE8030063
:1049D0008CE803000EA8D4E9046712F07FFF0246BA
:1049E0000B46304639461CF0D5F912F0DDFE21F0B9
:1049F00000431946BAA3D3E900231CF081FBD9F880
:104A000000600AEBC606C6E900010EA8D4E90267F9
:104A100012F044FF02460B46304639461CF0B8F906
:104A200021F00043D9F8007008971946ACA3D3E9E8
:104A300000231CF065FB08EBC7030A460146C3E9E7
:104A40000012B4F91800CDE904121CF0EFFA024686
:104A5000284614460D461CF055FFA8491DF05AF88B
:104A60001CF0F6FA02460B46204629461CF090F947
:104A700021F00043A2490A93FE0002463144C1E9F5
:104A80000023DAE900340B90214618460022002367
:104A90000996CDE900011CF07DF9DAE9026732469A
:104AA0003B461CF077F9DAE90423CDE902231CF038
:104AB00071F9944B00221CF04DFC04460D46224631
:104AC0002B46DDE900011CF063F902460B461CF0A1
:104AD00017FB002200231CF05DF902460B4630460E
:104AE000394616461F4622462B461CF051F902460F
:104AF0000B461CF005FB32463B461CF04BF92246A8
:104B000006460F462B46DDE902011CF041F902463C
:104B10000B461CF0F5FA32463B461CF03BF97A4B4B
:104B200000221CF0EDFA18F0B9FBD8E90067CDE9D6
:104B3000020100220023304639461CF02BF9D8E947
:104B4000024522462B461CF025F9D8E90423CDE97D
:104B500000231CF01FF96B4B00221CF0FBFB80466E
:104B6000894642464B46304639461CF011F902460A
:104B70000B461CF0C5FA002200231CF00BF902467C
:104B80000B462046294614461D4642464B461CF01D
:104B9000FFF802460B461CF0B3FA22462B461CF0E7
:104BA000F9F8424604460D464B46DDE900011CF08B
:104BB000EFF802460B461CF0A3FA22462B461CF0E7
:104BC000E9F84F4C504B00221CF09AFA18F066FBA3
:104BD000D4E90089CDE9000100220023494640467E
:104BE0001CF0D8F8D4E9026732463B461CF0D2F8F4
:104BF000D4E9044502460B4620462946CDE9064540
:104C00001CF0C8F83F4B00221CF0A4FB04460D46E4
:104C100022462B46494640461CF0BAF802460B464F
:104C20001CF06EFA002200231CF0B4F802460B467A
:104C30003046394616461F4622462B461CF0A8F839
:104C400002460B461CF05CFA32463B461CF0A2F8CA
:104C5000224606460F462B46DDE906011CF098F871
:104C600002460B461CF04CFA32463B461CF092F8CA
:104C7000254B00221CF044FA18F010FB099E0AEBA9
:104C800006030022D3E900678146204B8A46DDE90E
:104C900002011CF035FA00224FF0804304460D4615
:104CA0001CF0B4FC002800F09680224639462B46C2
:104CB00030461CF097FC154B041E4FF00002DDE956
:104CC000000118BF01241CF01BFA00224FF08043A2
:104CD00006460F461CF09AFC002878D018E000BF6A
:104CE000000000000020AC404092FF1FF891FF1F21
:104CF000E891FF1FC891FF1FB091FF1F0000C8423D
:104D00009891FF1F000008400000E03F00001440A1
:104D100032463B46DDE904011CF064FC304BB0F147
:104D200000084FF000024846514618BF4FF00108F6
:104D30001CF0E6F92B4B002206460F461CF066FCE1
:104D4000002841D0DDE9020100224FF080431CF031
:104D500049FC0022051E4FF08043DDE9000118BF29
:104D600001251CF03FFC514600280CBF002505F032
:104D700001051C4B484600221CF034FC324600283A
:104D80000CBF002505F001053B460B980A991CF065
:104D900029FC2C40089A144B08EA040400280CBF94
:104DA000002004F001001870022A02F101030F4AEA
:104DB00008BF002313600E4B1B680D930D9BCBF8AF
:104DC00000301DB0BDE8F08F064F0026BAE7002680
:104DD0004FF080479CE700244FF0804565E700BF17
:104DE0000000144000003440F091FF1FE891FF1FC5
:104DF0002C9CFF1FFFFFFFFF2DE9F04F6E4EDFF8E9
:104E0000BCC106F174030FCB9BB00DF1100888E80C
:104E10000F0006F184030FCB08AF06F13C0587E8CD
:104E20000F000FCD0CAC0FC40FCD0FC40FCD0FC4AE
:104E300095E803009CF84331732B84E80300D6F80F
:104E4000BC4006D0742B0ED0FDF7E0F81BB0BDE8D7
:104E5000F08F96F83830002B40F0BA80FDF7ACF8B0
:104E60001BB0BDE8F08F96F83830002BF6D0FFF776
:104E700087FC0446FFF7AEFC002CEFD00028EDD0F5
:104E8000404612F04BFD0446404612F057FD814665
:104E9000404612F065FD8046384612F06DFD06462C
:104EA000384612F075FD0546384612F087FD034678
:104EB0008DF80830424BDFF80CA18DF80950D3E98A
:104EC00004234E3402A8CAE90E238DF80E408DF853
:104ED0000D908DF80C808DF80A600FF055FD054699
:104EE0000C4615F0D7FB284621460FF0ABFEFFF726
:104EF0006FF8354B04460D460022DAE90E011CF02E
:104F000029FA02460B46204629461BF041FF2F4B4B
:104F1000002204460D461CF079FB78B12B4F002689
:104F20002046294632463B461BF032FF32463B467E
:104F300004460D461CF06AFB0028F1D10022002334
:104F4000204629461CF04EFB98B1204F00264FF01A
:104F500000084FF000092046294632463B461BF028
:104F600019FF42464B4604460D461CF03BFB002809
:104F7000F1D1164B0022204629461CF0EBF90CA378
:104F8000D3E900231CF0BCF81CF06AFB72B6CAF827
:104F9000000062B672B6DAF80020DAF80030CAE92A
:104FA000042362B6FCF7F2FF50E700BFAFF30080C6
:104FB00000000000C07A60414092FF1FF88FFF1F81
:104FC000F891FF1F5891FF1F00002E40000038404D
:104FD000FFF7D6FB0546FFF7FDFB002D3FF43EAF84
:104FE00000283FF43BAF0CA812F058FC82460CA8F6
:104FF0008B4612F073FC064620460C461CF082FCE1
:10500000CB491CF087FDCB4B05462146304600229C
:105010001CF006FB002840F0BA81C74B3046214601
:1050200000221CF0DFFA002840F0B1813246304601
:10503000C24E04F10044234621463478C6E90423D5
:105040001CF056FB04EB440404EBC40404F10E030F
:10505000C1B2814618460091019314F095FF009962
:10506000814203D0019B184614F0A8FF04F10F03FE
:10507000C9F3072118460091019314F085FF0099A8
:10508000814203D0019B184614F098FF04F11003ED
:10509000C9F3074118460091019314F075FF009978
:1050A000814203D0019B184614F088FF113420463A
:1050B00014F06AFF4FEA1969814503D0494620463A
:1050C00014F07CFF9E4B0022504659461CF08AFA91
:1050D000002859D19B4B0022504659461CF0A0FA9B
:1050E000002851D13478C6E902AB594650461CF02D
:1050F000FFFA04EB440404EBC40404F10A0B5FFA66
:1051000080FA8146584614F03FFF824503D051464D
:10511000584614F053FF04F10B0B584614F034FFBB
:10512000C9F3072A824503D05146584614F046FF7A
:1051300004F10C0B584614F027FFC9F3074A8245C7
:1051400003D05146584614F039FF0D34204614F070
:105150001BFF4FEA1969814503D04946204614F0E8
:105160002DFF6FA3D3E90023D6E902011CF0F2F86A
:1051700082468B4618F052FAC6E90C015046594651
:1051800018F0D8FAC6E90E0128461CF0EBFD84B2EF
:1051900004F1C8039BB242F208018B4202B21DD84F
:1051A0003578328305EB450505EBC50505F1120A97
:1051B00050465FFA82F914F0E7FE814503D0494674
:1051C000504614F0FBFE1335284614F0DDFE240A89
:1051D000844203D02146284614F0F0FE08F0F4F98A
:1051E00059480BF035FA594809F072FC574809F054
:1051F0006BFC012007F094FC404612F08FFB044644
:10520000404612F09BFB8246404612F0A9FB8146C5
:10521000384612F0B1FB8046384612F0B9FB05461D
:10522000384612F0CBFB03468DF80830D6E904234C
:105230008DF80DA0DFF818A18DF809504E3402A8A2
:10524000CAE90E238DF80E408DF80C908DF80A8077
:105250000FF09AFB05460C4615F01CFA284621462D
:105260000FF0F0FCFEF7B4FE3A4B04460D46002268
:10527000DAE90E011CF06EF802460B46204629467C
:105280001BF086FD344B002204460D461CF0BEF98F
:1052900078B1314F00262046294632463B461BF066
:1052A00077FD32463B4604460D461CF0AFF9002818
:1052B000F1D100220023204629461CF093F998B131
:1052C000DFF894904FF0000800260027204629467A
:1052D00042464B461BF05EFD32463B4604460D46B9
:1052E0001CF080F90028F1D11B4B002220462946F2
:1052F0001CF030F80CA3D3E900231BF001FF1CF0D5
:10530000AFF972B6CAF8000062B672B6DAF80020D9
:10531000DAF80030CAE9042362B61FE0AFF3008078
:1053200000000020DCA54C4000000000C07A604175
:105330000000C84200807640008076C0F891FF1FD0
:10534000008056C0008056406893FF1F4092FF1FA8
:105350005891FF1F00002E40000038400D480E49B4
:105360000E4A0023C0E90033C0E90233C0E9043328
:10537000C1E90033C1E90233C1E90433C2E90033B2
:10538000C2E90233C2E90433FCF700FE5EE5044ED5
:1053900098E600BFB091FF1FC891FF1F9891FF1FB3
:1053A000F891FF1F08B514F0B9FDBDE8084014F0EE
:1053B000B5BD00BF2DE9F0414FF0000E164C174D62
:1053C000F4464378067882781B0243EA06431A4380
:1053D0009F0CC2F38516C3F3053302F03F020CF1B4
:1053E000030C15F80780AE5DEF5CAB5C84F8708051
:1053F0008C4584F8717084F8726084F873300EF113
:10540000040E00F1030004F10404DADB044B002273
:1054100003F80E20BDE8F081F88FFF1F58AC0200A2
:105420006890FF1FFFFFFFFF2DE9F04FC84DBFB091
:105430006622002124A81EF091FC28460CF04AFEAA
:10544000064628460CF034FE95F88A332C7895F8F9
:105450008B8303EB40032846DFB25FFA88F80CF039
:1054600025FE04F0030408F00308230143EA88033F
:10547000A6F1020243EA8013B2FA82F252093B43D8
:1054800043EAC213AA7D95F8F9138DF89030012AEA
:1054900095F8283301F0070100F01882022A00F085
:1054A000EF81032A00F07E82A2F10402B2FA82F2B6
:1054B0005209920195F8B103DB0043EAC0130B4394
:1054C000134395F818248DF89130022A00F0ED81ED
:1054D00095F81834FE2B00F05E8295F81834FF2BF7
:1054E00000F0658295F81834012B14BF00270327BC
:1054F000022E95F8483400F0DF81022B00F0E8819D
:1055000095F84834FE2B00F0DE8195F84834FF2BE7
:1055100000F04A8295F84834012B14BF4FF0000880
:105520004FF00C0895F8886395F8E93506F0030606
:10553000002B40F0A78195F87146A40164B284481D
:1055400009F092FA47EA061748EA07031C4344EABF
:10555000C01495F838608DF89240FFF7C7F800281E
:1055600040F0078295F8362095F8781395F8FC34CA
:105570008DF893608DF894100AB143F0040395F808
:1055800078240AB143F0080395F837200AB143F0B4
:1055900010038DF8953015F077F86E4CDFF8B8B140
:1055A0000021C4E906010FF0D7F90646D4E9060147
:1055B0000FF064F98246D4E906010FF0B7F981468D
:1055C000D4E906010FF09CF98046D4E906010FF0FA
:1055D0006BF90746D4E906010FF07CF95F4A8DF8B4
:1055E000980082FB0632F317C3EB62136422DBE9F7
:1055F000020102FB13664EA3D3E900238DF89680C7
:105600008DF897708DF899A08DF89A908DF89B6021
:105610001BF076FD02460B460AA84D490AF024F914
:1056200072B6206862B64E4B984205DDA0F50300C5
:10563000A0F556409842F9DC1CF064F949491CF089
:1056400069FA49491CF0B2F91BF002FD3AA3D3E90B
:1056500000231BF055FD02460B460AA811F098FAEC
:1056600037A3D3E900231BF04BFD80460AA88946E7
:1056700011F07EFA34A3D3E900231BF041FD064666
:105680000F4616A832490AF063F916A811F05CFB20
:105690002DA3D3E900231BF033FDCDE9000116A8AB
:1056A00011F056FB28A3D3E900231BF029FD12F0CB
:1056B0009BF8CDE9020172B6246862B6284B9C4281
:1056C00005DDA4F50304A4F556449C42F9DCD5E9B4
:1056D000D801264B00221BF03DFED5E9E423CDE99D
:1056E0000601234900201BF053FBCDE908890DF189
:1056F000200A804689469AE803000DF19C0E8EE848
:105700000300CDE90867D5E9E601CDE904019AE88F
:1057100003000DF1A40C8CE80300DDE90001CDE9E4
:1057200008019AE803002BAA82E8030022E000BFE8
:10573000000000A046DF913F0000004052C1D03F72
:10574000000000A0C88E0E4000000020DCA54C40E8
:105750004092FF1F5891FF1FF891FF1F1F85EB51CB
:1057600000D6830000D6034B0000C04100002E404D
:105770000000F03FDDE90212CDE908129AE80300CB
:105780002DAB83E8030020461CF0BCF88A491CF0CE
:10579000C1F98A491CF00AF91BF05AFCCDE908014D
:1057A0009AE803000DF1BC0E8EE80300DDE9060166
:1057B000D5E9D667CDE908019AE80300CDE9086785
:1057C0000DF1C40C8CE803009AE8030033ACCDE97A
:1057D000088984E80300D5F8A4133A91D5F8A013FA
:1057E00039919AE8030035AA82E80300DDE9040153
:1057F000CDE908019AE8030095F8374037AB83E814
:105800000300002C67D16E49DBF82C001CF0CEF8A9
:1058100018F08AFB1CF0A6FA95F8183395F82B437C
:105820008DF8F20003F00303012C8DF8F3302BD038
:10583000022C31D004F0030495F82C23920002F0DE
:105840001C0222438DF8F4200DF18F033DA80022A5
:1058500013F8011F834282EA0102F9D1594C8DF8F5
:10586000F520662124A8FFF7A5FD20461EF048FE7E
:105870005549022220443FB0BDE8F04F14F0CCBBA4
:10588000202217E640245AE650480CF011FC00286C
:10589000D2D0022385F82B334C480CF009FC0028A9
:1058A0007BD1032485F82B43C6E7022E95F84834B4
:1058B0004FF001077FF421AEFE2B09D095F8483454
:1058C000022B7FF422AE4FF008082BE61022F1E500
:1058D0004FF0040826E615F0D9FF01E016F00EF8A7
:1058E00015F0F8FF0028F9DC0421394815F046FFCF
:1058F00015F0CCFF142014F0BBFF00212E2217A8B6
:1059000016AE16910C461EF029FA0AE0302C0CD087
:1059100015F0F4FFC0B2232806F8010B04F10104CE
:1059200003D015F0D7FF0028F0DC04F1F8030DEBED
:105930000304002304F8A03C9DF858303F2B7FF46B
:1059400062AF0DF159001CF057FA202104460DF109
:1059500059001EF055FA034658B301301CF048FABE
:10596000C2B2C0F307233B948DF8F0208DF8F130DC
:1059700049E7FEF789FF90B946F00206FEF7F0FF0F
:1059800008B146F00806FEF74DFF00283FF4EAADE7
:1059900046F01006E6E50227AAE502244CE746F0A9
:1059A0000606EBE7302285E54FF00C08BAE5032741
:1059B0009EE50246D7E700BF00D6034B0000C0417A
:1059C000000020416890FF1F8CA702004092FF1F3B
:1059D000D0A50200FFFFFFFF2DE9F04D544C94F8D5
:1059E0004431413BBCB0312B3ED8DFE813F04200DC
:1059F0003D00A500E7012F023D003D003D003D00B8
:105A00003D003D00BD02F5023D00570380033D000F
:105A100046043D002E043D003D003D003D003D009C
:105A20003D003D003D003D003D003D003D003D008E
:105A30003D003D003D003D003D003D003D003D007E
:105A40003D003D003A043D003D003D003D003D006D
:105A5000320094F84531702B01F05681742B01F01F
:105A60006B81672B00F034833CB0BDE8F04DFCF750
:105A7000B9BA94F84521532A01F04F812D4890F886
:105A8000281300230B930C930D930E930F931093F5
:105A9000129318932493002940F05A85303A432AF0
:105AA00000F28E84DFE812F0BB08B908B708B50829
:105AB000B308B108AF08AD08A2088C048C048C04AC
:105AC0008C048C048C048C048C048C048C048C0456
:105AD0008C048C048C048C048C048C048C048C0446
