:1000000000800020BD010000C1F1000079F1000076
:1000100079F1000079F1000079F1000079F1000038
:1000200079F1000079F1000079F10000C1F10000E0
:10003000C1F1000079F10000AD160100B117010017
:10004000C1F10000C1F10000C1F10000C1F10000E8
:10005000C1F10000C1F10000C1F10000C1F10000D8
:10006000C1F10000C1F10000C1F10000C1F10000C8
:10007000C1F10000C1F10000C1F10000C1F10000B8
:10008000C1F10000C1F10000C1F10000C1F10000A8
:10009000C1F10000C1F10000C1F10000C1F1000098
:1000A000C1F10000C1F10000C1F10000C1F1000088
:1000B000C1F10000C1F10000C1F10000C1F1000078
:1000C000C1F10000C1F10000C1F10000C1F1000068
:1000D000C1F10000C1F10000C1F10000C1F1000058
:1000E000C1F10000C1F10000C1F10000C1F1000048
:1000F000C1F10000E5FB0000C1F100003D0301007B
:10010000C1F1000071050100C1F10000C1F1000062
:10011000C1F10000C1F10000C1F10000C1F1000017
:10012000C1F10000C1F10000C1F10000C1F1000007
:10013000C1F10000C1F10000C1F10000C1F10000F7
:10014000C1F10000C1F10000C1F10000C1F10000E7
:10015000E9190100FD190100111A0100251A010019
:10016000C1F1000001080100C1F10000C1F100006F
:10017000C1F10000C1F10000C1F10000C1F10000B7
:10018000C1F10000C1F10000C1F10000C1F10000A7
:10019000C1F10000C1F10000C1F10000C1F1000097
:1001A000C1F10000C1F10000C1F10000C1F1000087
:1001B000C1F10000C1F10000C1F10000564B4CF24A
:1001C000205210B51A804DF628121A8000BF00BFC9
:1001D0000EF0FAFF514B4FF010621A60504A9A60CD
:1001E000504ADA60504A136813F4807304D14F49BF
:1001F0000B604FF4A85313604D4B1A78110703D5C9
:100200001A7842F008021A704A4B4B492A221A7097
:100210004A4A4B4B8B4204D252F8040F43F8040B6A
:10022000F8E7484B484900228B4202D243F8042B9E
:10023000FAE74649464A002352F8230041F82300D2
:1002400001336F2BF8D1434B434A802103F8011B44
:100250009342FBD1414B3D4A1A60414B8A221A70AE
:10026000A3F5805324225A70A0221A709A7992071B
:10027000FCD59A79D406FCD43A4A937903F00C035E
:10028000082B384BF9D105221A7143225A719A79F9
:100290009006FCD5334A9179324B4906FBD5324A58
:1002A0004FF0817111600521516020221A709A79F6
:1002B00002F00C020C2AFAD12C4B2D4A1A602D4B5D
:1002C0002D4A1A6000225A60072243F8042C2B4A58
:1002D000C3F80C2D62B60FF095FA144B1B68DA07C1
:1002E00005D527480FF0EEF9264B274A1A60274B11
:1002F0001B785B0609D5234C234B22689A4204D114
:100300001F480FF0DFF90023236015F009FE0EF0FF
:1003100061FF11F091FBFEE70E20054030800440A4
:10032000823F04000100002B10D0034014D0034092
:1003300002D0074000E00740B892FF1F20CC010028
:100340002087FF1FB892FF1F709CFF1F0082FF1FB6
:100350000000000000E400E05FE400E008ED00E0E1
:1003600000500640004006404480044004800440A1
:10037000C010050014E000E03F190100000020203B
:100380001A25BF5D1CE00340A5C3945A00F0074046
:10039000FFFFFFFFFFFFFFFFFFFFFFFFFFFFFFFF6D
:1003A000FFFFFFFFFFFFFFFFFFFFFFFFFFFFFFFF5D
:1003B000FFFFFFFFFFFFFFFFFFFFFFFFFFFFFFFF4D
:1003C000FFFFFFFFFFFFFFFFFFFFFFFFFFFFFFFF3D
:1003D000FFFFFFFFFFFFFFFFFFFFFFFFFFFFFFFF2D
:1003E000FFFFFFFFFFFFFFFFFFFFFFFFFFFFFFFF1D
:1003F000FFFFFFFFFFFFFFFFFFFFFFFFFFFFFFFF0D
:10040000FFFFFFFFFFFFFFFFFFFFFFFFDEF9FFFF23
:1004100010B5054C237833B9044B13B10448AFF33E
:1004200000800123237010BDB892FF1F0000000060
:100430001CCC0100084B10B51BB108490848AFF3AC
:1004400000800848036803B910BD074B002BFBD0A0
:10045000BDE81040184700BF00000000BC92FF1F1D
:100460001CCC0100B892FF1F000000000FF024B95F
:1004700010B5044611F096FA204610BD094B1B78C2
:1004800003F0FF0243B1084B00227F2119705A701C
:10049000064B01221A707047034B1A70034B01225E
:1004A0001A707047B198FF1F0097FF1F4E97FF1FEC
:1004B00070B5064672B6214B186862B6204B98425A
:1004C00005DDA0F50300A0F556409842F9DC15F0D3
:1004D0008BFA1C4915F090FB1B4915F0D9FA14F062
:1004E0002DFE0022194B14F07DFED6E9002303E017
:1004F000174B20462946002214F0C0FC0022144B62
:1005000004460D4615F0F4F80028F1D1002200232E
:100510002046294615F0D8F868B120462946002221
:100520000B4B14F0ADFC0022002304460D4615F0E1
:10053000CBF80028F1D1C6E9004570BD1894FF1F23
:1005400000D6830000D6034B0000C04100002E40BF
:10055000008076400023034A19460B2013700EF0EA
:10056000E3BD00BF9498FF1F2DE9F04772B6DFF896
:10057000DCA02D4DDAF800606B682C4C2C482D491E
:100580002D4A9B1B2360096843685B1A136062B69F
:100590002A492B4B2B4ED1E90001002214F022FEF8
:1005A00002460B461EA1D1E9000114F045FF0246A8
:1005B0000B46D6E9008914F015FE424606460F4662
:1005C0004B464046494614F05BFC02460B4630461B
:1005D000394614F031FF15F0B5F80646206814F0DE
:1005E0009BFD8046304621F0004714F095FD024601
:1005F0000B464046394615F085F858B12368002B64
:10060000B8BF764272B6DAF80020002316446E6056
:100610002B6062B60C4B62221A70BDE8F08700BFF7
:100620000000000080842E41D095FF1FA495FF1F7D
:100630006894FF1FBC96FF1FA895FF1F4099FF1FDE
:100640000000B03F8895FF1F2893FF1FB896FF1F3B
:100650003D493E4B40220A60197800293DD03C4874
:100660000022F0B4027072B63A4C3B4A27685268D6
:100670003A493B4D3B4ED21B0A6036686A683A4D98
:10068000921B2A6062B60A68384D002A31D00A6887
:10069000002A34DD364A01211170364909780029D3
:1006A00031D135490E7811788E4231D033494FF42B
:1006B00080560E601278D2B2012A2ED0304A1168CC
:1006C000002935DD11680124013911602C700122E7
:1006D000027000221A70F0BC70471D49097809B1F8
:1006E00028490A600121284A1970284B12681A60AB
:1006F00070472A78002AECD00A68002ACADC1C4A13
:1007000000211170C9E71C490E7811788E42CDD0B6
:100710001F494FF480560E60CCE719491D4E0F68F3
:100720003668B7420ADA0C6801340C602A70CEE7EA
:1007300000222A702268013A2260C8E700222A704B
:10074000226801322260C2E7C8F00F404487FF1FD1
:10075000CE95FF1FB896FF1FD095FF1FA495FF1FD2
:100760006894FF1FBC96FF1FA895FF1FF293FF1F01
:10077000CD95FF1FDC93FF1F0D96FF1F08F00F4064
:100780004C93FF1FC4F00F405487FF1F10710340AC
:1007900004F00F408C98FF1F3A493B4B10220A602F
:1007A000197800293AD039480022F0B4027072B6A4
:1007B0003749384A0F685268374D384C384E3949F6
:1007C000D21B2A6025687268521B0A6062B60A68EA
:1007D000354D002A2ED00A68002A31DD334A012126
:1007E00011703349097800292ED1117800292ED0B3
:1007F000304904260E601278D2B2012A2BD02E4A3C
:100800001168002932DD11680124013911602C7052
:100810000122027000221A70F0BC70471B4909784F
:1008200009B126490A600121254A1970254B126831
:100830001A6070472A78002AECD00A68002ACDDCBA
:100840001A4A00211170CCE711780029D0D01E4936
:1008500004260E60CFE718491C4E0F683668B74271
:100860000ADA0C6801340C602A70D1E700222A7081
:100870002268013A2260CBE700222A702268013206
:100880002260C5E7C8F00F404587FF1FCF95FF1FC7
:10089000B896FF1FD095FF1FA495FF1FBC96FF1FA2
:1008A0006894FF1FA895FF1F7898FF1F9995FF1F59
:1008B0007394FF1F44F00F405093FF1FC4F00F408C
:1008C0003887FF1F2071034048F00F409098FF1FAA
:1008D00038B5394B394C19782378394A012501EB61
:1008E0008101022B01FA05F015704FD0032B3DD08A
:1008F000AB4214D0334B344C1978237801EB81018F
:10090000022B4FEA410020D0032B0DD0012B00D049
:1009100038BD01466068BDE838400CF091BF014623
:1009200060680CF08DFFE5E714F0E6FB20A3D3E947
:10093000002314F081FD14F02DFF4FF07A5281B2A4
:10094000E068BDE838400DF075BE14F0D5FB18A383
:10095000D3E9002314F070FD14F01CFF4FF07A521D
:1009600081B2A068BDE838400DF0BEBE14F0C4FBF3
:100970000FA3D3E9002314F05FFD14F00BFF4FF039
:100980007A5281B2E0680DF055FEB3E714F0B4FB83
:1009900007A3D3E9002314F04FFD14F0FBFE4FF042
:1009A0007A5281B2A0680DF09FFEA3E7AFF30080FA
:1009B000CD3B7F669EA0F63FA095FF1F7893FF1F5B
:1009C0004F97FF1FA195FF1F8893FF1FF8B5314E6A
:1009D000314D324B3249DFF820E1324C32480122AE
:1009E00032702A70D3E90067C1E90067D3E90023B8
:1009F0002E4F2F4E2F4D3049CEE9002300220023E9
:100A0000C4E90023C0E9002300240A20C7E9002329
:100A1000C6E900232C700C700EF06CFB18B1214657
:100A20000A200EF081FB254B2549DFF8D0C0254A6E
:100A300018680C68DFF8C8E0234F244E244D254980
:100A400000238CF800301370234A0C60CEF800307D
:100A50003B6033602B60106072B620480C684460C5
:100A600003601F4C096821601E49106848600B60D4
:100A70001D481368036062B61C4B1B7833B11C4AD7
:100A80001C4B0021012011701870F8BDFFF720FFEA
:100A9000F5E700BF9995FF1FCD95FF1FE898FF1F51
:100AA0004099FF1F1899FF1F8098FF1FB095FF1FE7
:100AB0006893FF1FB193FF1F7998FF1FE096FF1FF8
:100AC000DC96FF1FB093FF1F5094FF1F4087FF1F4E
:100AD0005494FF1F8898FF1FF893FF1FD095FF1FA6
:100AE000B896FF1F6894FF1FBC96FF1F4F97FF1F0C
:100AF0004893FF1F5187FF1F4899FF1F2893FF1F2F
:100B00003C87FF1FFFFFFFFF38B5394B394C197881
:100B10002378394A01EB81010025022B4FEA41007D
:100B200015704FD0032B3DD0012B14D0334B344CD8
:100B30001978237801EB8101022B4FEA410020D084
:100B4000032B0DD0012B00D038BD01466068BDE8F5
:100B500038400CF075BE014660680CF071FEE5E7A8
:100B600014F0CAFA20A3D3E9002314F065FC14F0B2
:100B700011FE4FF07A5281B2E068BDE838400DF0C6
:100B800059BD14F0B9FA18A3D3E9002314F054FCAA
:100B900014F000FE4FF07A5281B2A068BDE83840F0
:100BA0000DF0A2BD14F0A8FA0FA3D3E9002314F0AE
:100BB00043FC14F0EFFD4FF07A5281B2E0680DF083
:100BC00039FDB3E714F098FA07A3D3E9002314F032
:100BD00033FC14F0DFFD4FF07A5281B2A0680DF0C3
:100BE00083FDA3E7AFF30080CD3B7F669EA0F63F79
:100BF0009598FF1F7893FF1F4F97FF1F9698FF1F31
:100C00008893FF1FFFFFFFFF6D4A13682DE9F04F28
:100C1000013313606B4B1B788BB0002B00F00E81FF
:100C2000694BDFF80892694DDFF804A2684C009325
:100C3000684BD5E900671B78002B00F0BD80664B40
:100C4000D4E90001D3E90023D9E90089D4E90001FE
:100C500042464B465E4D14F04BFD08B1D5E9008984
:100C6000C4E90089009BD4E900451B782BB15B499E
:100C70005B4B0122D1E900671A709AF800302BB162
:100C80005849594B0122D1E900451A70574B1B783E
:100C90001BB14C4B1B78002B47D0DFF898813046B6
:100CA000D8E90023394614F005FDC8B972B6002210
:100CB0004F4B3046394614F095FA00224D4B14F054
:100CC00091FA00224C4B14F08DFA00224B4B14F099
:100CD000D5F814F05FFD4A4B186062B6C8E90067AA
:100CE000484E2046D6E90023294614F0E3FCC8B953
:100CF00072B600223E4B2046294614F073FA0022B9
:100D00003C4B14F06FFA00223B4B14F06BFA0022BC
:100D10003A4B14F0B3F814F03DFD3B4B186062B64B
:100D2000C6E900450BB0BDE8F08F72B6374A384BC4
:100D300010685B68374A3849DFF8FC801B1A37486F
:100D40001360096843685B1AC8F8003062B6009BFC
:100D50001B78A3B922490B788BB1314B1B7873B93F
:100D600072B613680893089B002B40F3D682089B49
:100D7000022B40F3CC822B4BD3E9006762B69AF882
:100D80000030002B89D1184A1378002B85D0264BD0
:100D90001B78002B81D172B6D8F800300993099BDB
:100DA000002B40F3B782099B022B40F3AD821D4B11
:100DB000D3E9004562B670E7D4E9002344E700BFF9
:100DC0001894FF1FB198FF1FF293FF1F4099FF1F58
:100DD0004899FF1FE093FF1F3093FF1F9893FF1F59
:100DE0007A98FF1FA093FF1F7B98FF1F4893FF1F58
:100DF0000000B03F000042400000E03F0000F03F34
:100E00005487FF1FF096FF1F3887FF1FB896FF1FFC
:100E1000D095FF1FA495FF1FBC96FF1F6894FF1F6E
:100E20002893FF1FB898FF1FB093FF1F4887FF1F2D
:100E30007898FF1FE896FF1FA895FF1F72B6A84B72
:100E4000DFF8ECB21A68A74BDFF8E8825B689B1A00
:100E5000CBF80030A44B1A68A44B5B689B1AC8F807
:100E6000003062B6A24BDBF800000093D8F80020F7
:100E70001B780292002B00F088809E4B9E4E9F4C68
:100E8000DFF8B4920193D4E90001D6E9002313F00E
:100E9000F7FF21F0004529460022994B994C064660
:100EA00014F030FC002800F0F28132462B46D4E9E1
:100EB000000114F0C1FA06460F46DFF880A2924DF9
:100EC00030463946DAE9002314F0F4FB18B9C5E9D5
:100ED0000067CAE9006772B6814B1A68814B5B688C
:100EE0009B1ACBF80030804B1A68804B5B689B1ACA
:100EF000C8F8003062B6DFF848A2D8F80000DBF886
:100F0000003002939AF8003033B9DFF808B29BF84A
:100F10000030002B40F01C81DFF828827B4ED6E9A0
:100F20000001D8E9002313F0ABFF21F00046314661
:100F30000022734B074614F0E5FB002800F09E8169
:100F40003A463346D4E9000114F076FA06460F46D5
:100F5000DFF8F4816E4C30463946D8E9002314F0AE
:100F6000A9FB18B9C4E90067C8E90067019B1B78B1
:100F7000002B7FF45DAE674B1B7803F0FF02002B64
:100F80007FF456AE644B1A7052E65A4B01931B78AD
:100F9000002B00F0B481DFF8B4A1574E14F0BCF878
:100FA000DAE9002305460C46104623F000410022F2
:100FB0005A4B039414F088FB2F46002840F07081B0
:100FC000574B1B78002B40F0AB81039CDFF86891F6
:100FD00024F00045534C2B462946D4E900453A46B7
:100FE000384613F04DFF22462B4614F0FBF811F063
:100FF0004BF902460B4634A1D1E9000114F01CFA6A
:10100000D9E9004522462B46CDE9040114F070FBD6
:1010100008B9CDE90445444C404D2DA3D3E9002344
:10102000DDE9040114F008FAD4E9002314F0DAF839
:1010300002460B4600203D4914F0FEF926A3D3E9F1
:10104000002314F0CFF8C6E900010024D6E900011E
:1010500022462B4614F038FB10B1274BC3E900455C
:10106000264C019B234D1B78622B7FF40CAF039B16
:10107000384623F0004100224FF0804314F024FB57
:1010800000283FF400AF00232B7000220023CAE9A0
:1010900000230298C6E9002314F03EF821F0004333
:1010A000194600224FF0804314F00EFB00283FF455
:1010B000EAAE1B4B1B78002B7FF4E5AEFFF708FC74
:1010C000E1E600BFAFF300800000000080846E41C5
:1010D0000000000080842E41000000000020AC4091
:1010E000B896FF1FD095FF1FBC96FF1F6894FF1F87
:1010F000F293FF1F2893FF1FD093FF1F2887FF1F26
:101100000000E03FE898FF1F4099FF1F3087FF1F56
:101110004899FF1FB093FF1F0E96FF1F000010405D
:101120004F97FF1F8895FF1F5893FF1F0000F03F48
:10113000A495FF1FA895FF1F4887FF1F8896FF1FD4
:101140007898FF1F4894FF1FE893FF1FB895FF1F73
:1011500013F0E2FF924B0490D3E90023164623F0EC
:10116000004721F00043039300228E4BDFF84882B2
:101170003046394614F0A8FA002840F0A9808A4B7E
:101180001B78002B40F0CF80049E32463046039EF1
:1011900026F00047854E3B463946D6E9006713F0F6
:1011A0006FFE32463B4614F01DF811F06DF8024612
:1011B0000B4675A1D1E9000114F03EF9D9E90067A9
:1011C00032463B46CDE9060114F092FA08B9CDE962
:1011D0000667774E734F6EA3D3E90023DDE906015E
:1011E00014F02AF9D6E9002313F0FCFF02460B465F
:1011F0000020704914F020F967A3D3E9002313F00D
:10120000F1FFC8E900010026D8E9000132463B465B
:1012100014F05AFA10B1684BC3E90067674E9BF8A7
:101220000030674F622B7FF47AAE04980399002256
:101230004FF0804314F048FA00283FF470AE0023CA
:1012400057493B7000220023C1E900230298C8E9F6
:10125000002313F061FF21F00043194600224FF0F4
:10126000804314F031FA00283FF459AE4E4B1B78FE
:10127000002B7FF454AEFFF72BFB50E6D4E900239C
:101280001046194613F0FCFD06460F4660E6D4E909
:1012900000231046194613F0F3FD06460F460CE6F0
:1012A000D6E90023104623F0004100223D4B14F004
:1012B0000BFA00283FF484AE019B424C1B78622B52
:1012C00046D0DAE90023DFF80891C6E90023C8E632
:1012D000D8E90023104623F000410022314B14F0DE
:1012E000F3F900283FF44BAF9BF80030334E622BEC
:1012F0001CD02B4BD3E90023C8E900238FE7324EE3
:10130000304CDFF8CC90BEE50023137052E500238B
:101310000B7033E5099B5B4246E5089B5B4227E582
:10132000FFF7F2FB51E6FFF7EFFB2DE7D6E90023CD
:101330001B49C1E9002300220023D1E9000114F078
:10134000D7F90022A0B11B4B1549C1E90023D0E712
:10135000D4E90023CAE9002300220023DAE90001CE
:1013600014F0C6F9002240B1124BCAE90023A8E7E5
:10137000164B0B49C1E90023BBE7144BCAE9002314
:101380009FE700BFAFF300800000000080846E4143
:101390000000000080842E41000000000020AC40CE
:1013A000C095FF1F000010404F97FF1F9095FF1F33
:1013B0006093FF1F0000F03F4894FF1F3087FF1F1E
:1013C000B093FF1F2887FF1FD093FF1F0000F0BFBF
:1013D0004887FF1F30B583B00D460A2201A9044695
:1013E00016F056FE00F5FF437F33B3F5803F06D27B
:1013F000019B9C4203D02860012003B030BD002037
:1014000003B030BDFFFFFFFF2DE9F04F4B1E012B56
:1014100083B098BF00F1FF3001928A4698BF01F176
:101420000C0A14F0E1FA2C49044614F0E5FB13F021
:1014300085FE10F05DFC804689462046274914F061
:10144000DBFB13F07BFE10F053FC06460F462046F4
:10145000234914F01DFB13F071FE10F049FC044603
:1014600050460D4614F0C0FA4FF07E5114F008FAC1
:101470001C4914F00DFB13F061FE10F039FC4246DC
:1014800082468B464B4600204FF0804113F0F6FC1D
:1014900032463B4613F0F4FC22462B4613F0F0FC98
:1014A00052465B4613F0ECFC044601980D4613F0DF
:1014B00033FE02460B462046294613F0E1FC04A306
:1014C000D3E9002313F0DCFC03B0BDE8F08F00BFCC
:1014D00000000080A2423A410000C8420000C84318
:1014E00000A0B64301CDF4412DE9F047924684B007
:1014F00000221F46784B13F0C3FC10F0F9FB64A3E5
:10150000D3E9002304460D460C9E14F0FBF868B3A3
:1015100061A3D3E900232046294613F0AFFC60A362
:10152000D3E9002313F088FF14F00CF913F0F4FD55
:10153000002280468946694B2046294613F0A0FCCC
:1015400042464B4613F09CFC002204460D46644B79
:101550004046494613F046FE10F0CAFB02460B46D1
:101560002046294613F08AFC04460D4620462946AB
:101570004DA3D3E9002313F083FC4DA3D3E900234B
:1015800004460D4613F07AFC4BA3D3E9002313F075
:1015900053FF10F0ADFB48A3D3E90023CDE90001D0
:1015A00013F020FE10F0A4FB02460B46204629460D
:1015B00013F064FC42A3D3E90023CDE9020113F048
:1015C0003BFF10F095FB3EA3D3E9002304460D46F4
:1015D00013F008FE10F08CFB0022804689460023A1
:1015E000DDE9020113F04CFC42464B4613F046FC89
:1015F00010F07EFB14F0A6F800223060394B204634
:10160000294614F061F800B30022344B20462946E5
:1016100013F034FC10F06CFB14F094F8386014F004
:10162000E3F9314914F0F0FB08BB27A3D3E9002309
:10163000DDE9000113F022FC10F05AFB14F082F8EF
:10164000CAF8000004B0BDE8F0870022274B20460E
:10165000294613F013FC10F04BFB14F073F83860BC
:1016600014F0C2F9204914F0CFFB0028DDD018A3F4
:10167000D3E90023DDE9000113F000FC10F038FB92
:1016800014F060F8CAF8000004B0BDE8F08700BFAD
:10169000000000008C8A414100000040D07D3C41A8
:1016A0000000000088D5E1400000000000D0974015
:1016B0000000006066865E400000000000D47640B6
:1016C00000000020A0993E4000000000006BB240E6
:1016D00000000000006CB2400000E03F0000F03F5E
:1016E0000000D03F00002B400000204000002A40B6
:1016F00070B50568044628460E460DF0FBFC864290
:1017000003D0314628460DF00FFD204670BD00BFC6
:1017100030B583B0CDB2019104460DF0EBFC8542AB
:1017200003D0294620460DF0FFFC013420460DF081
:10173000E1FC9DF80550854203D0294620460DF076
:10174000F3FC03B030BD00BF10B582B004460DF00D
:10175000D1FC8DF80600601C0DF0CCFC8DF8070064
:10176000BDF8060002B010BDF8B50D460E7804466F
:101770000DF0C0FC864203D0314620460DF0D4FC6B
:10178000661C30460DF0B6FC6F78874203D03946B0
:1017900030460DF0C9FCA61C30460DF0ABFCAF780E
:1017A000874203D0394630460DF0BEFC0334204654
:1017B0000DF0A0FCED78854205D029462046BDE815
:1017C000F8400DF0B1BCF8BD38B50C4605460DF03B
:1017D00091FC2070681C0DF08DFC6070A81C0DF051
:1017E00089FCA070E81C0DF085FCE07038BD00BFDE
:1017F0002DE9F0432D4A2E4B2E4983B001240025BC
:101800000A2014701C700D700DF0ACFF204601A969
:10181000FFF7DAFF01A90520019EFFF7D5FF264B50
:10182000019F187813F068FC02460B4600204FF029
:10183000804110F0B1FB80468946304613F06CFCC5
:1018400042464B4613F0CEFC13F07CFF1B4B064682
:10185000187813F051FC02460B4600204FF08041EF
:1018600010F09AFB80468946384613F055FC4246F4
:101870004B4613F0B7FC13F065FF72B6104A114BDC
:10188000114F12493E6056601560086058601D6037
:1018900062B60F4A0F4B1278A2420CBF02222A46B0
:1018A00020461A7003B0BDE8F08300BFD895FF1F33
:1018B0007494FF1F5187FF1F9895FF1FC096FF1F4D
:1018C000D095FF1F6894FF1FB896FF1FBC96FF1F9F
:1018D000F887FF1F5099FF1F2DE9F84300200DF0F6
:1018E00009FC431EDBB2032B894C00F2E780012880
:1018F000207000F0E58004288649874B4FF00000F7
:1019000014BF0322012208701A7019200DF0F2FB97
:1019100014F06AF8814914F0BBF813F00FFC0022B0
:10192000002306460F4613F0C5FE40B900227C4B4B
:101930003046394613F0E6FE002800F0C880794BA7
:10194000794F00261E211920C3E900670DF0ECFB3A
:101950001A200DF0CFFB754B754DA0F180021B20B6
:101960001A600DF0C7FB06461C202E600DF0C2FB6E
:10197000803814F039F86F4914F08AF86E4914F081
:101980003BF90021074614F035FA002800F0B78033
:101990004FF07C51384613F073FF14F055FA80EA8B
:1019A000E073A3EBE073B42B644BCCBF3C22186014
:1019B0004FF01D00C8BF1A600DF09CFB803814F07A
:1019C00013F85C4914F064F85B4914F015F9002130
:1019D000074614F00FFA002800F089804FF07C5180
:1019E000384613F04DFF14F02FFA80EAE073A3EBB2
:1019F000E073B42B524BCCBF3C2218604FF01E005A
:101A0000C8BF1A600DF076FB13F076FB00224D4B39
:101A100013F012FD00224C4B8046894613F054FE11
:101A200038B90022494B4046494613F06BFE002866
:101A300051D0474B45490020C3E900012378033BBF
:101A4000012B4FD94348444C444A454B2468454FE9
:101A5000006850600026002516605C600024C7E91D
:101A60000045DFF828E1404A4049414FDFF820C1F6
:101A70001E60CEE90045C2E90045C7E90045D1E94D
:101A8000000100223B4BCCE9004513F0D5FC0022BD
:101A9000394B3A4D3A4C13F0A5FB13F053FEC317E4
:101AA0003849394A9B0343EA9043800381E809009F
:101AB000167001222A702270BDE8F883012323707A
:101AC0001449154B0220032208701A701DE7154BAC
:101AD000C3E900673CE71E4BC3E900892378033B59
:101AE000012BAFD8572EADDD57232B60AAE74FF05F
:101AF0007C51384613F0C2FE14F0A6F975E74FF09A
:101B00007C51384613F0BAFE14F09EF947E700BF47
:101B1000F887FF1F5099FF1FCC95FF1FCDCCCC3D00
:101B2000000039405887FF1F000008409C95FF1FA8
:101B3000C895FF1F0000704200007041B096FF1F63
:101B4000C896FF1F000024400000224000002840EB
:101B50005896FF1FA893FF1FAC93FF1FD095FF1F40
:101B60006894FF1F9894FF1F4896FF1FC093FF1FA4
:101B70006094FF1F0000594000001041F987FF1FCB
:101B8000B496FF1F5894FF1FA094FF1F4096FF1F9D
:101B90009094FF1FF8B5284B1B78DA1E012A2BD929
:101BA000012B08BF254B264F08BF1E68254BD3E9E4
:101BB000024518BF002600230022204629463E6029
:101BC00013F082FD204B1B68002833D11F49204FA2
:101BD000204A0B60204629463E6013600023002205
:101BE00013F090FD4FF0010300B9034683F00103A9
:101BF000194ADBB21370F8BD124BD3E9024500223B
:101C000000232046294613F05FFD80B903460E48A5
:101C10000E49DFF82CE00E4F0E4A006808600026DF
:101C200020462946CEF800303B601660D6E70B4BC5
:101C30001B68ECE75B42C9E7F887FF1FA893FF1F0B
:101C40009898FF1FD892FF1FAC93FF1F9C98FF1F0F
:101C5000DC96FF1FE096FF1F0D96FF1FE098FF1F09
:101C600008B54420FFF770FD304A314B1060002268
:101C70003A201A60FFF768FD2E4B18603E20FFF7F0
:101C800063FD2D4B186040200DF034FA02282B4BD9
:101C900043D803221A7041200DF02CFA284B021C65
:101CA00018BF012242201A700DF024FA254B18703B
:101CB00043200DF01FFA244B18705220FFF744FD0B
:101CC000224A234B1060002248201A60FFF73CFD97
:101CD000204B18604C20FFF737FD1F4B18604E203B
:101CE0000DF008FA02281D4B1DD908288ABF0822CA
:101CF00018701A704F200DF0FDF9194B021C18BF17
:101D0000012250201A700DF0F5F9164B1870512071
:101D10000DF0F0F9144B187008BD08288ABF08228E
:101D200018701A70B7E703221A70E3E70894FF1FD0
:101D30004C93FF1FB493FF1F3896FF1F9895FF1F0A
:101D4000DC93FF1FA095FF1F9598FF1F0C94FF1FAA
:101D50005093FF1FB893FF1F3C96FF1FC096FF1FB5
:101D60007394FF1FA195FF1F9698FF1F08B50021D0
:101D70004420FFF7CDFC4FF4E1613A20FFF7C8FCA7
:101D8000C8213E20FFF7C4FC042140200DF0CCF90F
:101D9000002141200DF0C8F9642143200DF0C4F961
:101DA000642142200DF0C0F900215220FFF7B0FC61
:101DB0004FF4E1614820FFF7ABFCC8214C20FFF74E
:101DC000A7FC04214E200DF0AFF900214F200DF0AB
:101DD000ABF9642151200DF0A7F964215020BDE832
:101DE00008400DF0A1B900BF2DE9F041804684B054
:101DF00018461C460E46174615F042F8082803D030
:101E0000002004B0BDE8F081637822788DF80530B9
:101E10000025314601A88DF804208DF80650FFF703
:101E2000D9FAA3782F2BEBD12379E2788DF80930FA
:101E3000394602A88DF80A508DF80820FFF7CAFA33
:101E400063792F2BDCD1E379A2798DF80D304146EF
:101E500003A88DF80E508DF80C20FFF7BBFA3368FD
:101E6000013B0B2B11D83B68013B1E2B0DD8D8F83A
:101E70000030632B09D80B2BCCBF03F5FA6303F6B4
:101E80003403C8F800300120BBE72846B9E700BF9B
:101E90002DE9F04784B0924699464FF0FF32002377
:101EA0000C9C02600B60CAF80030C9F8003025783D
:101EB000202D0646884603D114F8015F202DFBD063
:101EC000334F3B7820463BB114F0DAFF082807D0A7
:101ED000002004B0BDE8F08714F0D2FF0728F7D146
:101EE00063788DF800503146002568468DF8013042
:101EF0008DF80250FFF76EFA3B7893B3A3783A2B34
:101F0000E6D12379E2788DF80930414602A88DF8B0
:101F10000A508DF80820FFF75DFA63793A2BD7D184
:101F2000A279E3798DF80650494601A88DF804207E
:101F30008DF80530FFF74EFA3368172BC8D8D8F85C
:101F400000303B2BC4D8DAF80030B3F5167FBFD28F
:101F5000D9F800000028BBDB3B28CCBF00200120C3
:101F6000B7E7A2783A2AB3D1E07822798DF8080051
:101F7000414602A88DF80A308DF80920FFF72AFAA9
:101F800063792E2BA4D1A379303BCAF80030D3E774
:101F90004687FF1F70B586B00546009105AB04AAC1
:101FA00003A902A8FFF774FF044638B3039813F09F
:101FB0001BFD144913F020FE0646029813F014FD91
:101FC0000146304613F05CFC0646049813F00CFD05
:101FD0000D4913F011FE0146304613F051FC064640
:101FE000059813F001FD094913F006FE014630463D
:101FF00013F046FC13F0A2F8C5E90001204606B034
:1020000070BD00BF00007042000016440000614532
:102010002DE9F04FD1F80090D1F80480DFF820B11D
:102020008BB043A3D3E90023824628F00041484601
:1020300012F026FF04460D460FF05AFE02460B46EC
:1020400020462946CDE9022312F018FF00223A4B20
:1020500013F0C8F804460D460FF04AFE02460B4640
:102060002046294612F00AFFDFF8D8C006460F4680
:10207000BCE80F000DF1140EAEE80F009BF8003025
:10208000DCF800208EF80020304639460022ABB341
:10209000294B13F0A7F806460F46002200233046CE
:1020A000394613F007FB30B10022002320462946B1
:1020B00013F000FB70BB484641460022002313F09A
:1020C00003FB80BB0023ADF81030DDE9020113F003
:1020D00039FB39468046304613F034FB29460190DF
:1020E000204613F02FFB4346009005A9504604AA52
:1020F00014F0D0FC01200BB0BDE8F08F0F4B13F0B3
:1021000071F82E22312306460F468DF81F208DF8D8
:102110002230C2E700220023DDE9020113F0CAFAEF
:102120000028C8D0CEE72D23ADF81030CDE700BF92
:10213000000000E01038223F00004E400000244024
:102140004687FF1F4CC201002DE9F0439E4A1378D9
:10215000303B83B0162B00F2ED80DFE813F0530024
:10216000EB00EB00EB00EB00EB00EB002500870041
:102170005B00EB00EB00EB00EB00EB00EB00EB0097
:10218000EB00EB00EB00EB006D00280072B68F4A0D
:102190008F4B12685B6862B68E498F48D21A14F072
:1021A00079FC8E4B01221A7003B0BDE8F08353789E
:1021B000303B112BF8D801A252F823F08D210000FA
:1021C000672400004B240000BB2300009B23000079
:1021D00023230000932300008B23000085230000AD
:1021E0007B230000A9210000A9210000A9210000F3
:1021F000A9210000A9210000A9210000A9210000B7
:10220000212400005378323B032BCDD8DFE803F0C4
:10221000898989895378303B042BC5D801A252F8AB
:1022200023F000BF5F230000A9210000532300001A
:1022300041230000F52200005378313B132B79D85D
:10224000DFE813F07E0015017C0153013F013101ED
:102250006F006F0023017800780078007800780024
:10226000780078006E0155016F0075005378312BAE
:1022700000F06B81322B00F06381302B94D1584DEC
:10228000584F2B783B6001262E700DF015FA564CF6
:1022900020610CF089FC814620690CF093FC13F05E
:1022A000A3FB524913F0A8FC8046484613F09CFB60
:1022B0000146404613F0E4FA804620690CF090FC99
:1022C00013F092FB4A4913F097FC414613F0D8FAF9
:1022D00012F034FF02460B462146E1E906233E4850
:1022E000FFF796FE3B683D4A003318BF01232B7071
:1022F000167059E73F4B1B78002B40F0538172B6A4
:102300003D4B1B6862B63D4A126851428B42C0F297
:102310005B819342CCBF0222012239492E4814F03E
:10232000B9FB2E4B01221A7003B0BDE8F0832B4B92
:1023300001221A70334B01221A7003B0BDE8F083FA
:1023400010222449244814F0A5FB244B01221A70C2
:10235000EAE71720FFF7F8F92B490246F2E72B4B83
:10236000D3E9000113F036FA022211461A4B0CF0A1
:102370008DFF1A4B01221A7016E772B61E4B1A68AF
:1023800062B6DEE772B6114BF9E772B6204B5A68B7
:10239000F6E772B60E4B5A68F2E71E491E4B002252
:1023A000D1E9000112F01EFF05A3D3E9002312F0CA
:1023B00019FF13F0C7F90246C3E71849EEE700BF5B
:1023C000000000E0360BF03F2099FF1FB896FF1F7A
:1023D000D095FF1F78C201000097FF1F4E97FF1F87
:1023E0004687FF1F8094FF1F1894FF1F0000704254
:1023F000000061455099FF1FBC96FF1FAC93FF1F63
:102400007CC20100DD93FF1F74C201007087FF1FB3
:102410006894FF1FA896FF1F00408F406887FF1F2A
:102420006B4C6C4AE5686C496C48642303FB05F30C
:1024300082FB0352DB17C3EB223214F02BFB684BF9
:1024400000210122E1601A70AEE6664B186813F0B5
:10245000CBFA654913F0D0FB644913F019FB13F074
:10246000F3FC02466DE772B6614A624B91E6624B3D
:10247000D3E9000113F0AEF9584B012202210CF010
:1024800005FF574B01221A708EE65C4B1868002836
:102490004ADB13F0A9FA4FF07C5113F0F1F913F075
:1024A000D3FC02464DE7564BD3E9000113F092F9F5
:1024B0004A4B062203210CF0E9FE494B01221A7017
:1024C00072E6504BD3E900450022002320462946FE
:1024D00013F00EF9D0B100224B4B2046294612F0E2
:1024E000CFFC13F02FF902462BE7484BEAE74849A7
:1024F000484B0022D1E9000112F074FE00220023B3
:1025000004460D4613F0F4F80028E4D100223E4BB7
:102510002046294612F0B2FC13F014F9024610E7E7
:102520003D4B18680028B4DA13F05EFA4FF07C5186
:1025300013F0A4F913F088FC024602E73C2200E7FE
:102540000DF0BAF835490246FCE60DF0B5F8344C0A
:10255000344D20610CF06EFB28602069324E334F01
:102560000CF05AFB306020690CF048FB38602069A1
:102570000CF01AFB2E4B186020690CF023FB2D4B3E
:10258000186020690CF02CFB2B492C683B683268E2
:10259000009408602949114814F07CFA104B01227C
:1025A0001A7001E672B6124B1B6862B6244A1268B2
:1025B00051428B420ADB9342CCBF022201222149C5
:1025C000064814F067FAACE60222A6E60222F6E715
:1025D000FC95FF1F8D512C6984C201000097FF1FDD
:1025E0004E97FF1FDC95FF1F5555504700606A4608
:1025F000BC96FF1F6894FF1F5887FF1FB096FF1FF0
:10260000C093FF1F6093FF1F0000E03F5893FF1F20
:102610005896FF1F00002440C896FF1F70C201009B
:102620001894FF1F8094FF1FF098FF1FF498FF1F5E
:10263000F898FF1FFC98FF1F0099FF1F60C2010060
:10264000AC93FF1F74C201002DE9F04F0D7889B0E3
:102650000023202D0C4605938346924603D114F89F
:10266000015F202DFBD0594F204614F009FC3E7825
:102670003EB1092800F087800025284609B0BDE852
:10268000F08F062800F09A800928F5D1BAF1000FE2
:102690007DD02D2D00F094802B2DEDD1DFF83891D9
:1026A0004FF000086378A2788DF8083003A9002362
:1026B00002A88DF809208DF80A30FEF78BFE00285D
:1026C000DAD00334237803F0EF022A2A01D0DF2B7B
:1026D000D2D16378A2788DF8183004A9002306A817
:1026E0008DF819208DF81A30FEF774FE0546002883
:1026F000C2D03B7893B18EB9E3783A2B01D0272B27
:10270000BAD1237962798DF8043005A9002301A894
:102710008DF805208DF80630FEF75CFEBAF1000F4B
:10272000039C0BBF00236FF059034FF4B4725A227D
:10273000A342A1DCA2429FDB04983B289CD8059EC3
:102740003B2E99D813F050F9214913F055FA07465A
:10275000204613F049F90146384613F091F8044633
:10276000304613F041F91B4913F046FA0146204662
:1027700013F086F812F0E2FC42464B4612F032FDAE
:10278000CBE9000179E70026BAF1000F81D1627828
:10279000A3788DF8085003A902A88DF80BA08DF836
:1027A00009208DF80A30FEF715FE00283FF464AFCB
:1027B00003344FF00008DFF8209083E7012665E737
:1027C0004FF00008DFF814906CE700BF4687FF1F4A
:1027D00000007042000061450000F03F0000F0BFC3
:1027E0002DE9F04FD1E9004587B00746904699465C
:1027F000204629460022002312F066FF002861D1FE
:1028000053A3D3E900232046294612F039FB04469E
:102810000D460FF06DFA12F095FF064612F07CFCA3
:1028200002460B462046294612F028FB00224A4B5E
:1028300012F0D8FC04460D460FF05AFA02460B4639
:102840002046294612F01AFB0022434B12F0CAFC24
:1028500012F078FF414B83460FCB0DF1080A8AE84E
:102860000F00B9F1000F61D00123B8F1000F04D0BF
:1028700006AA1A44332102F80E1C394A12788AB982
:1028800006A90B442046294603F8072C12F05AFFEC
:10289000324603465146384614F0FCF8012007B092
:1028A000BDE8F08F2946204612F04CFFCDF800B06D
:1028B000034632465146384614F0ECF8012007B082
:1028C000BDE8F08F22462B4621A1D1E9000112F08C
:1028D000D5FA04460D460FF00BFA12F033FF064608
:1028E00012F01AFC02460B462046294612F0C6FAA0
:1028F0000022194B12F076FC04460D460FF0F8F951
:1029000002460B462046294612F0B8FA0022124B26
:1029100012F068FC12F016FF104B83460FCB0DF13E
:10292000080A8AE80F00B9F1000F0BD10D4B0FCB4D
:10293000D646AEE807002EF8023B1B0C8EF800309E
:10294000002392E72D238DF8083001238DE700BF87
:10295000000000E01038223F00004E409CC2010001
:102960004687FF1F8CC201002DE9F8439046994627
:102970002BA3D3E9002304460D4612F081FA024648
:102980000B4629A1D1E9000112F056FD22462B4643
:1029900012F076FA26A3D3E9002312F04DFD0FF0D2
:1029A00073FA25A3D3E9002306460F46DDE90801A3
:1029B00012F066FA02460B4621A1D1E9000112F09D
:1029C0003BFD002204460D46214B4046494612F08D
:1029D00033FD02460B462046294612F003FC3246E0
:1029E00004460D463B4600201A4912F025FD16A369
:1029F000D3E9002312F0F6FB02460B462046294697
:102A000012F0F0FB0022002304460D4612F05CFE9B
:102A100008B10024002520462946BDE8F88300BF00
:102A2000000000E0A3701440000000A09999244029
:102A300000000020DCA54C400000000000107140A8
:102A40000000000000B0714000000080EB51F03F3A
:102A500000908F400000F03F2DE9F04383B0DDE9A6
:102A60000A45CDE9004516461F4680468946FFF7D0
:102A70007BFF01F1004319460022094B12F0DCFCF8
:102A800042464B4612F0FCF93B46CDE90045324642
:102A9000FFF76AFF01F10043194603B0BDE8F08378
:102AA00000004E40FFFFFFFF2DE9F04F85B01646B6
:102AB0001F4600220023804689460F9D12F004FE27
:102AC00068B1404649460022514B12F0D9F9002224
:102AD00000238046894612F0F7FD0028F1D100223C
:102AE0004B4B4046494612F003FE68B1404649460A
:102AF0000022474B12F0C2F90022454B804689461E
:102B000012F0F6FD0028F1D1404649463EA3D3E934
:102B1000002312F091FC3CA3D3E9002380468946B0
:102B20003046394612F088FC06460F464046494674
:102B30000FF094F882468B46404649460FF060F904
:102B4000CDE90001304639460FF088F880468946C5
:102B5000304639460FF054F92E4C0646D4E90C2382
:102B60000F4640464946CDE9028912F03BFB5246EA
:102B70005B4612F037FBD4E90E2380468946304687
:102B8000394612F02FFB02460B464046494612F0EA
:102B900077F90FF0A7F9C5E900015046D4E90E23F3
:102BA000594612F01FFBDDE9022380468946304674
:102BB000394612F041FCD4E90C2312F013FB024613
:102BC0000B464046494612F059F902460B46DDE9EC
:102BD00000010FF0DFF90CA3D3E9002312F002FB90
:102BE00000220D4B12F04CF90E9BC3E9000106A325
:102BF000D3E90023D5E9000112F0F4FAC5E9000198
:102C000005B0BDE8F08F00BF00000020DCA54C40FF
:102C100000807640D892FF1F00806640F0B583B0F8
:102C2000089D099C00950194FFF73EFF0D4B1B7812
:102C3000ABB1D4E900670C4B0022CDE9002330464C
:102C400000220A4B3946FFF78FFE0022084B12F094
:102C5000F3FB32463B4612F013F9C4E9000103B01E
:102C6000F0BD00BFB496FF1F0000244000908F40CD
:102C700000004E40FFFFFFFF2DE9F04F85B01646E4
:102C80001F460022002304460D46DDF83CB012F03A
:102C90001BFD68B1204629460022534B12F0F0F884
:102CA0000022002304460D4612F00EFD0028F1D14B
:102CB00000224D4B2046294612F01AFD68B12046ED
:102CC00029460022484B12F0D9F80022464B044610
:102CD0000D4612F00DFD0028F1D13046394640A3D3
:102CE000D3E9002312F0A8FB3DA3D3E90023064655
:102CF0000F462046294612F09FFB80468946304603
:102D000039460FF07DF8CDE90201304639460EF024
:102D1000A5FF04460D46404649460EF09FFFDFF8EA
:102D2000D0A0CDE90001DAE90C232046294612F0B3
:102D300059FADDE9002312F055FADAE90E230446C8
:102D40000D46DDE9020112F04DFA02460B4620461F
:102D5000294612F095F80FF0C5F8CBE9000140467E
:102D600049460FF04DF804460D46304639460FF0FF
:102D70008BF8DAE90E2380468946DDE9000112F07E
:102D800031FADAE90C2306460F464046494612F06E
:102D900029FA02460B463046394612F06FF80246D1
:102DA0000B46204629460FF0F5F80DA3D3E9002382
:102DB00012F018FA00220D4B12F062F80E9BC3E9D4
:102DC000000107A3D3E90023DBE9000112F00AFAAE
:102DD000CBE9000105B0BDE8F08F00BFAFF3008084
:102DE00000000020DCA54C4000807640008066405A
:102DF000D892FF1F2DE9F04F644C8DB0002306469A
:102E000005932046049303930293019300931A467B
:102E1000194609F0ABFC0025EC2084F821510CF098
:102E200069F9002E40D1002869D1594B1B78033B2A
:102E3000012B42D9002600270AAD08AC32463B469A
:102E40008DE8300000205349FFF716FFDDE90A2323
:102E5000DDE90801CDE900674F4FCDE90423CDE955
:102E60000201002600224B4B484809F051FD324632
:102E70003B468DE8300000204649FFF7FDFEDDE9C6
:102E80000A23DDE90801CDE90423CDE9020100228E
:102E9000404B3E48CDE9006709F03AFD3B4809F058
:102EA00085FD0DB0BDE8F08F2946EC200CF03CF913
:102EB000374B1B78033B012BBCD8364F33480024DB
:102EC0000025002622462B46CDE90445CDE90045E4
:102ED000CDE9026709F01CFD2F490020CDE904016E
:102EE000CDE9000122462B46CDE90267274809F0CB
:102EF0000FFD264809F05AFD0DB0BDE8F08F0AA974
:102F0000C820FEF761FC0AA9CC200A9EFEF75CFCF3
:102F10000AA9D0200A9FFEF757FC0AA9D420DDF8A1
:102F20002880FEF751FC0A9A07920AA9D820FEF7DA
:102F30004BFC0AA9DC20DDF82890FEF745FC0AA925
:102F4000E020DDF828A0FEF73FFC0AA9E420DDF828
:102F500028B0FEF739FC0AA9E8200A9DFEF734FCE8
:102F6000079ADDF828E000920495CDF80CB0CDF872
:102F700008A0CDF8049043463A4631462046CDF8A5
:102F800014E009F0F3FB0DB0BDE8F08F5097FF1F80
:102F9000F887FF1F00806640008056402DE9F0430F
:102FA000184C83B094F800E0DDF82880DDF82C9010
:102FB00006460F4614461D46BEF1000F15D0124BB3
:102FC0000022CDE9002320460022104B2946FFF7BE
:102FD00043FD00220E4B12F02FFA02460B4620460C
:102FE000294611F04DFF04460D4622462B46304639
:102FF0003946CDF82C90CDF8288003B0BDE8F043D9
:10300000FFF73ABEB496FF1F0000244000908F40A7
:1030100000004E40254B2DE9F041D3E9000100228C
:10302000234B244C244DDFF8AC80244F244E12F067
:1030300003FA0022C4E900011D4BD5E9000112F09A
:10304000FBF9C8E900011F4BD4E90001D3E90023D3
:1030500012F0C8F800221C4B12F0EEF900221B4BB4
:1030600012F0C0F812F06EFBC517194BAD0345EA1C
:1030700090458403D3E90023D8E9000187E83000B4
:1030800012F0B0F80022104B12F0D6F90F4B0022CC
:1030900012F0A8F812F056FBC3179B0343EA9043C3
:1030A000800386E80900BDE8F08100BF6887FF1F44
:1030B00000002E402887FF1FA896FF1F5894FF1F6F
:1030C0006094FF1FC093FF1F000059400000104193
:1030D000C893FF1F3087FF1F38B50C4B0C4A1B7875
:1030E000033B012BC2E900010BD90022094B12F06E
:1030F00079F8094A094B00240025C2E90001C3E917
:103100000045BDE83840FFF785BF00BFF887FF1FC7
:103110006087FF1F00002E406887FF1FA896FF1FD3
:103120002349F8B50022234BD1E9000112F05AF8E7
:1031300002460B461CA1D1E9000112F07DF90446BC
:103140000D4672B61C4BD3E900231046194611F008
:1031500097FE1A4BD3E9002306460F4612F042F8B9
:1031600002460B462046294612F066F922462B46B7
:1031700012F038F8124A134BC2E90001D3E90023D8
:103180003046394612F02EF802460B4620462946B4
:1031900012F052F92B46224612F024F80A4BC3E9EA
:1031A000000162B6F8BD00BF0000000080842E411F
:1031B0004887FF1F0000B03F5887FF1F5893FF1F2D
:1031C0008895FF1F6093FF1F9095FF1F2DE9F8431F
:1031D000041E4FDB092CA8BF0924274B274D03EB06
:1031E000C403D3E9006739B9D5E90023304639462D
:1031F00012F060FA00283BD1214BE4B2C5E9006728
:103200001C7072B6D5E900891E4B1F4F1F4ED3E9C3
:1032100000234046494611F0E5FF00221C4B12F006
:103220000BF900221B4B11F0DDFF12F08BFAC117D6
:1032300003468D03184A45EA93459C034046D2E96C
:103240000023494687E8300011F0CCFF0022104BE4
:1032500012F0F2F800220F4B11F0C4FF12F072FAD4
:10326000C3179B0343EA9043800386E8090062B6D4
:10327000BDE8F8830024B0E77087FF1FA898FF1F00
:103280005087FF1FC093FF1F9094FF1F9894FF1F4C
:103290000000594000001041C893FF1FFFFFFFFFCF
:1032A0002DE9F843244E254B04460D460022D6E96D
:1032B000000111F097FF1EA3D3E9002312F0BCF820
:1032C00002460B4600201E4912F0B6F822462B4655
:1032D0008046894612F0B0F800221A4B04460D468B
:1032E00012F006FA08B9174D0024174F174EC7E918
:1032F000004522462B464046494612F09DF80446BA
:103300000D460022124BC6E9124511F06BFF114B1E
:103310001B78C6E9100118460121FFF757FFFFF798
:10332000FFFE20462946BDE8F88300BFAFF30080CA
:103330000000000080842E415893FF1F0000B03F22
:1033400000006E40000060404887FF1F7087FF1F2D
:103350000000E03F5087FF1FF8B51720FEF7F4F993
:1033600011F0DAFE04460D46FFF79AFF02460B46BF
:1033700006460F462046294611F080FD05460C46BC
:10338000284621460022002312F0BCF990B12846BD
:10339000214600224FF0804312F0B4F900B9F8BD85
:1033A0003946304612F0CEF9BDE8F8400146172004
:1033B000FEF7AEB904F10044E9E700BF2DE9F84398
:1033C000234B244CD3E90067D4E900233046394627
:1033D00012F070F9002838D1C4E9006772B6D4E958
:1033E00000891D4B1D4F1E4ED3E900234046494620
:1033F00011F0F8FE00221B4B12F01EF800221A4BAF
:1034000011F0F0FE12F09EF9C11703468D03174A22
:1034100045EA93459C034046D2E90023494687E8A4
:10342000300011F0DFFE00220E4B12F005F80022F2
:103430000D4B11F0D7FE12F085F9C3179B0343EA39
:103440009043800386E8090062B6BDE8F88300BFB8
:103450007087FF1FA898FF1FC093FF1F9094FF1F46
:103460009894FF1F0000594000001041C893FF1FAF
:103470000628F8B51FD0831FDBB21A2B04D8284AC0
:1034800022FA03F3DB0728D4264A27491478631C61
:10349000DBB20025162B08551370CD541FD9162307
:1034A0002328137019D108781F4C3A2820D0002007
:1034B00010700870F8BD1B4B1B7873B91B4B1A7842
:1034C000D31E012B8CBF0023012393424FF0010137
:1034D0000CBF174817480DF0DFFF0020F8BD232868
:1034E000FBD11378012BDED8002010700870F8BDD6
:1034F000013BE05C2328DAD10027E75426460E4D35
:1035000056F8030F7168B268F368367CE7700FC530
:103510000322611C20462E7013F004F80120F8BD30
:10352000910000040C96FF1FC098FF1FF887FF1F33
:1035300038C30100ACC201006096FF1F0628F8B531
:103540001FD0831FDBB21A2B04D8284A22FA03F3B8
:10355000DB0728D4264A27491478631CDBB20025F0
:10356000162B08551370CD541FD91623232813701A
:1035700019D108781F4C3A2820D00020107008700C
:10358000F8BD1B4B1B7873B91B4B1A78D31E012B4C
:103590008CBF0023012393424FF001010CBF174859
:1035A00017480CF077FA0020F8BD2328FBD11378D8
:1035B000012BDED8002010700870F8BD013BE05CE4
:1035C0002328DAD10027E75426460E4D56F8030F7C
:1035D0007168B268F368367CE7700FC50322611C1E
:1035E00020462E7012F09EFF0120F8BD91000004CD
:1035F000DF93FF1FE095FF1FF887FF1F38C301000F
:10360000ACC201003497FF1F2DE9F04F764F012324
:103610008BB03B700CF0F2FD01E00CF01DFE0CF0E5
:103620000BFE0028F9DC714B5B78A3F12B04532CC3
:1036300075D8DFE814F02A0174002A0174007400C0
:1036400054005400540054005400540054005400DA
:1036500054007400740074007400740074002A0133
:1036600074007400740054007400740074005400FA
:1036700074002A017400740074002A0174002A0185
:103680002A012A0174005400740074002A01740095
:10369000740074007400740074007400740074008A
:1036A00074007400740054007400740074001701F6
:1036B00074002A01740074007400540074002A011C
:1036C000740074007400E5007400740074007400E9
:1036D0001701740074007400740074002A013A2108
:1036E000462243488DF80A308DF808108DF80920DD
:1036F00013F0C6FB051E40F3E88020232A463C4910
:103700008DF80B3003A80BF013FC04230AAA2B44FA
:1037100013442321002203F8201C03F81F2C532CF0
:1037200038D8DFE804F093379337375D5D5D5D5D32
:103730005D5D5D5D3737373737373D3737375D3755
:10374000373793375D3737373D375D939337933747
:10375000373D5D37373737373737373737375D37A7
:10376000373793375D3737375D375D3737379337BF
:103770003737373D37373737373DBAF1000F00F06D
:10378000A680731C322B09F806001A4A02D00021C9
:10379000D1543970184B01221A700BB0BDE8F08F6C
:1037A0004FF0000A02A813F06BFB144CDFF84490B2
:1037B000014602A80CF0BEFC0CF020FD236800932B
:1037C0000026009DC846B34603E00CF035FD0028F6
:1037D00064DC23680193019B5B1B272BF5D9D9E798
:1037E0004FF0010ADEE700BF4E97FF1F1893FF1F3F
:1037F0002099FF1F0097FF1FDD93FF1F7499FF1F84
:10380000344D0AAE2023287806F81C3D3A21462282
:1038100073238DF80B008DF808108DF809208DF8B2
:103820000A30002403E015F8013F06F8013F29485B
:1038300013F026FB671D01348442F4D30AAB1F4406
:103840002322002307F8202C07F81F3C02A813F0BE
:1038500017FB014602A80CF06DFC0CF0CFFC0BB07E
:10386000BDE8F08F1B4A8DF80A3013788DF80B30C5
:103870003A204621232200238DF808008DF80910F4
:103880008DF80C208DF80D3049E7134A92E80300BB
:1038900002908DF80C108DF80A3040E70CF0DCFC3B
:1038A000C0B223283FF469AF0136322E88F80000F9
:1038B0003FF470AF08F801BF0023BAF1000F88D0C1
:1038C00031283B703FF469AF64E703231EE701230F
:1038D0003B7062E72099FF1FB0C2010070B42B4C0F
:1038E00094F8380085B028B3294E636C3268009292
:1038F000009994F84820254DCB1A41F28730834235
:103900008CBF00230123DAB9287820BB024694F843
:10391000780060B11E4E33680393E06F039B41F261
:1039200087311B1A8B428CBF002002F0010005B0CA
:1039300070BC704794F84820144D0346002AE3D029
:10394000134E287832680192019990B995F8783031
:10395000CBB10246DFE70E4E33680293029B616BE8
:1039600041F287305B1A83428CBF002202F00102D1
:10397000CDE7686D41F28732091A91428CBF00226F
:1039800003F00102E8E71846D1E700BFA494FF1F47
:103990007499FF1FFFFFFFFF2DE9F04FDFF8C0E331
:1039A000DFF8C0C30EF138030FCBA3B00EF148040B
:1039B0000CAF87E80F0094E80F0010AE754686E85C
:1039C0000F000FCD14AC0FC40FCD0FC40FCD0FC41B
:1039D00095E803009CF80130732B84E8030000F0A5
:1039E0002882742B05D0DA4B01221A7023B0BDE86F
:1039F000F08FFFF773FF0028F5D0384609F092FCEE
:103A00000446384609F09EFC8146384609F0AEFC73
:103A10008046304609F0B6FC0746304609F0BEFC49
:103A20000546304609F0D0FC22AB4E3403F8600D59
:103A300018468DF82D908DF82E408DF82C808DF83D
:103A40002A708DF829500BF005F904460BF03AFE68
:103A500020460BF02FFA0BF02FFE04460BF0EAF88D
:103A6000054620460BF0D8F8064620460BF0C6F86F
:103A7000314602462846FDF7C7FC064620460F465B
:103A80000BF092F8804620460BF09CF811F0ACFF4A
:103A9000B04912F0B1F80546404611F0A5FF0146C5
:103AA000284611F0EDFE054620460BF099F811F07E
:103AB0009BFFA94912F0A0F8294611F0E1FE11F090
:103AC0003DFB09AB8046894630463946009307AA3C
:103AD00008ABFDF709FD07A807C8FDF795FC7EA315
:103AE000D3E9002304460D463046394611F0C6F9A5
:103AF000002206460F46994B4046494611F09CFC71
:103B000002460B463046394611F0BAF974A3D3E9A0
:103B1000002306460F4611F08FFC6FA3D3E9002364
:103B200082468B462046294611F0A8F96EA3D3E9B8
:103B3000002311F057FB6EA3D3E9002311F0A0F985
:103B400005E0204629460022844B11F097F9002217
:103B5000824B04460D4611F0CBFD0028F1D1002226
:103B600000232046294611F0AFFD68B120462946C2
:103B700000227A4B11F084F90022002304460D46FE
:103B800011F0A2FD0028F1D15BA3D3E90023404648
:103B9000494611F027FB22462B4611F071F958A334
:103BA000D3E9002304460D465046594611F01AFB4E
:103BB00052465B4611F016FB22462B4611F060F987
:103BC00005E0204629460022644B11F057F90022F7
:103BD000624B04460D4611F08BFD0028F1D1002206
:103BE00000232046294611F06FFD68B12046294682
:103BF00000225A4B11F044F90022002304460D46DE
:103C000011F062FD0028F1D13FA3D3E90023304633
:103C1000394611F0E7FA02460B463DA1D1E9000111
:103C200011F02CF93CA3D3E9002311F005FC0EF0B0
:103C3000E7F83BA3D3E9002380468946304639465E
:103C400011F0D0FA38A3D3E9002311F019F9024694
:103C50000B4611F015F930A3D3E9002311F0ECFB6A
:103C60000EF0CEF832A3D3E9002382468B463046CD
:103C7000394611F0B7FA02460B462FA1D1E90001EF
:103C800011F0FCF824A3D3E9002311F0D5FB0DF0CB
:103C9000E5FF2BA3D3E90023CDE9020140464946C5
:103CA00011F0A0FA28A3D3E9002306460F46504698
:103CB000594611F097FA02460B463046394611F044
:103CC000DDF8DDE9022311F08DFA22462B4611F0D2
:103CD000D7F84FE0AFF30080000000802CB44241E1
:103CE00000000000A0D5E140000000E05BD2B03F42
:103CF000000000801CCA1A40000000E0360BF03FB4
:103D0000000000605243FB3E00000060C91CAB3F56
:103D1000000000608F425F4000000020DCA54C40A6
:103D2000000000E0718AEF3F0000002085877140AD
:103D3000000000A0F2D79A3E0000000076703740E5
:103D4000000000A0EEE734BF00000080732AF93EB7
:103D5000DD93FF1F00007042000061450000384005
:103D6000A494FF1F1893FF1F204629460022B64B3C
:103D700011F084F80022B44B04460D4611F0B8FC53
:103D80000028F1D1002200232046294611F09CFC96
:103D900068B1204629460022AB4B11F071F8002291
:103DA000002304460D4611F08FFC0028F1D1A74EE8
:103DB000A74B0022D6E90A0111F03EFB02460B4652
:103DC0002046294603E0A04B20462946002211F058
:103DD00055F800229C4B04460D4611F089FC002842
:103DE000F1D1002200232046294611F06DFC68B174
:103DF000204629460022944B11F042F8002200236D
:103E000004460D4611F060FC0028F1D120462946F9
:103E100000228D4B11F010FB81A3D3E9002311F098
:103E2000E1F911F08FFC72B6306062B623B0BDE8E4
:103E3000F08FDEF88080FFF751FD00283FF4D3AD0E
:103E400014A809F037FA044614A80D4609F04EFAF2
:103E50008146404601F1004811F0C6FD7D4911F050
:103E6000CBFE41468246002248467B4B11F02CFC9B
:103E700040B9484641460022784B11F043FC0028E7
:103E800000F03D820022764B2046294611F01CFCB2
:103E900040B90022734B2046294611F033FC00281C
:103EA00000F00682504611F0CFFF01B201F1C803C5
:103EB0009BB242F20802934208D86B4B1A781983DE
:103EC00019206C2300FB0230FDF722FCFDF762FE97
:103ED0000120FEF78FFF384609F024FA04463846E1
:103EE00009F030FA8146384609F040FA80463046FB
:103EF00009F048FA0746304609F050FA05463046C0
:103F000009F062FA22AB4E3403F8600D18468DF8C2
:103F10002D908DF82E408DF82C808DF82A708DF81C
:103F200029500AF097FE04460BF0CCFB20460AF01D
:103F3000C1FF0BF0C1FB04460AF07CFE054620469B
:103F40000AF06AFE064620460AF058FE314602464E
:103F50002846FDF759FA064620460F460AF024FE89
:103F6000804620460AF02EFE11F03EFD3F4911F03A
:103F700043FE0546404611F037FD0146284611F044
:103F80007FFC054620460AF02BFE11F02DFD384936
:103F900011F032FE294611F073FC11F0CFF809AB95
:103FA0008046894630463946009307AA08ABFDF79C
:103FB0009BFA07A807C8FDF727FA1BA3D3E900233C
:103FC00004460D463046394610F058FF002206469A
:103FD0000F461D4B4046494611F02EFA02460B464D
:103FE0003046394610F04CFF11A3D3E900230646B2
:103FF0000F4611F021FA0CA3D3E9002382468B4629
:104000002046294610F03AFF0BA3D3E9002311F014
:10401000E9F80BA3D3E9002310F032FF30E000BF32
:1040200000000000C07A6041000000802CB44241D2
:1040300000000000A0D5E140000000E05BD2B03FEE
:10404000000000801CCA1A40000038401894FF1F6E
:1040500000002E400000C842008076C000807640FC
:10406000008056C000805640D892FF1F000070426A
:1040700000006145204629460022C34B10F0FEFE99
:104080000022C14B04460D4611F032FB0028F1D14D
:10409000002200232046294611F016FB68B1204675
:1040A00029460022B84B10F0EBFE00220023044604
:1040B0000D4611F009FB0028F1D19DA3D3E900239F
:1040C0004046494611F08EF822462B4610F0D8FEA5
:1040D00099A3D3E9002304460D465046594611F0F2
:1040E00081F852465B4611F07DF822462B4610F0CF
:1040F000C7FE05E0204629460022A34B10F0BEFE75
:104100000022A14B04460D4611F0F2FA0028F1D12D
:10411000002200232046294611F0D6FA68B1204635
:1041200029460022984B10F0ABFE002200230446E3
:104130000D4611F0C9FA0028F1D181A3D3E900237B
:104140003046394611F04EF802460B467EA1D1E9C1
:10415000000110F093FE7EA3D3E9002311F06CF967
:104160000DF04EFE7CA3D3E90023804689463046FD
:10417000394611F037F87AA3D3E9002310F080FE16
:1041800002460B4610F07CFE71A3D3E9002311F028
:1041900053F90DF035FE74A3D3E9002382468B4614
:1041A0003046394611F01EF802460B4670A1D1E99F
:1041B000000110F063FE66A3D3E9002311F03CF97F
:1041C0000DF04CFD6CA3D3E90023CDE9020140467C
:1041D000494611F007F86AA3D3E9002306460F46C3
:1041E0005046594610F0FEFF02460B46304639460F
:1041F00010F044FEDDE9022310F0F4FF22462B46C6
:1042000010F03EFE05E02046294600225E4B10F0ED
:1042100035FE00225C4B04460D4611F069FA002879
:10422000F1D1002200232046294611F04DFA68B151
:10423000204629460022544B10F022FE0022002383
:1042400004460D4611F040FA0028F1D14F4E504B74
:104250000022D6E90A0111F0EFF802460B4620468B
:10426000294603E0484B20462946002210F006FE6E
:104270000022454B04460D4611F03AFA0028F1D1D0
:10428000002200232046294611F01EFA00283FF4A0
:10429000BDAD2046294600223B4B10F0F1FD002227
:1042A000002304460D4611F00FFA0028F1D1ADE5C8
:1042B000DFF8E0802946C8E90245204611F08AFA75
:1042C00022A998F8002041F8700D6423192000FB02
:1042D0000230FDF749FA1EA3D3E90023D8E9020111
:1042E00011F0AAF804460D460DF0B8FCC8E90C011F
:1042F000204629460DF084FDC8E90E01D2E5DFF81D
:1043000094E043464A464146CEE9042348469EF897
:10431000008011F05FFA22A9192341F8740D68207A
:1043200003FB0800FDF720FAACE500BFAFF3008007
:10433000000000E0360BF03F000000605243FB3EFF
:1043400000000060C91CAB3F000000608F425F406E
:1043500000000020DCA54C40000000E0718AEF3F27
:104360000000002085877140000000A0F2D79A3E2F
:104370000000000076703740000000A0EEE734BF78
:1043800000000080732AF93E000038401894FF1F97
:1043900000002E40D892FF1F08B5224B58783038C5
:1043A00023283BD8DFE800F0131313131313131360
:1043B00013133A3A3A3A3A3A3A3A3A123A3A3A2EDF
:1043C0003A3A3A3A3A283A3A3A3A3A340420164BC8
:1043D0001B7853B9154B1B7803F0FF012BB9FEF77F
:1043E000F5FE134B01221A7008BD124B01221A7000
:1043F0000F4B01221A7008BD0B4B1B780620002BB7
:10440000F3D1E7E7084B1B780020002BEDD1E1E763
:10441000054B1B780920002BE7D1DBE7054B012278
:104420001A7008BD1893FF1FB198FF1F0E96FF1F4B
:104430004E97FF1FDD93FF1F2DE9F04FAC4B5B78CC
:10444000A3F13004E4B2032C89B008D93F2B00F06B
:104450009182A84B01221A7009B0BDE8F08F04EBDD
:10446000840621460C2006EB860707ADA24E0AF013
:104470005BFE07F1640029463470FDF7A5F9079843
:1044800010F05CFE00229D4B8046894611F01CF91D
:10449000002840F03C820022994B4046494611F0EA
:1044A00031F9002840F03382C6E90289294607F134
:1044B0006800FDF789F9079810F040FE0022914B43
:1044C0008046894611F000F9002840F0438200221E
:1044D0008D4B4046494611F015F9002840F03A82CC
:1044E000C6E9048907F16C00FDF72EF900F1C80355
:1044F0009BB242F20802934200F246823083834C20
:10450000C6F154063E4404F11008A0190AF0F2FD69
:1045100004F8010B4445784FF7D167A3D3E9002392
:10452000D7E9020110F088FF804689460DF096FB1E
:10453000C7E90C01404649460DF062FCD7E9042367
:10454000C7E90E017249C1E90A230BF0B5F8044628
:104550000AF070FB064620460AF05EFB074620463E
:104560000AF04CFB394602463046FCF74DFF064642
:1045700020460F460AF018FB814620460AF022FB2F
:1045800011F032FA634911F037FB8046484611F0CA
:104590002BFA0146404611F073F9804620460AF096
:1045A0001FFB11F021FA5C4911F026FB414611F086
:1045B00067F910F0C3FD06AB80468946009530468A
:1045C000394605AAFCF790FF05A807C8FCF71CFFB1
:1045D0003BA3D3E9002304460D463046394610F08C
:1045E0004DFC002206460F464C4B4046494610F013
:1045F00023FF02460B463046394610F041FC32A3F9
:10460000D3E9002382468B4610F016FF2CA3D3E992
:10461000002306460F462046294610F02FFC2CA307
:10462000D3E9002310F0DEFD2BA3D3E9002310F023
:1046300027FC05E0204629460022384B10F01EFCDE
:104640000022364B04460D4611F052F80028F1D1F5
:10465000002200232046294611F036F868B1204692
:10466000294600222D4B10F00BFC002200230446AB
:104670000D4611F029F80028F1D119A3D3E9002340
:104680004046494610F0AEFD22462B4610F0F8FB9E
:1046900015A3D3E9002304460D463046394610F0F1
:1046A000A1FD32463B4610F09DFD22462B4610F000
:1046B000E7FB3BE0AFF3008000000020DCA54C40AE
:1046C000000000802CB4424100000000A0D5E14071
:1046D000000000E05BD2B03F000000801CCA1A401E
:1046E000000000E0360BF03F000000605243FB3E4C
:1046F0001893FF1FDD93FF1FD892FF1F008056C045
:1047000000805640008066C000806640F292FF1F25
:104710001894FF1F000070420000614500003840FF
:10472000204629460022B24B10F0A8FB0022B04BD5
:1047300004460D4610F0DCFF0028F1D100220023D2
:104740002046294610F0C0FF68B1204629460022C5
:10475000A74B10F095FB0022002304460D4610F0F5
:10476000B3FF0028F1D18EA3D3E900235046594668
:1047700010F038FD02460B468BA1D1E9000110F084
:104780007DFB8BA3D3E9002310F056FE0DF038FB20
:1047900089A3D3E9002306460F465046594610F038
:1047A00021FD87A3D3E9002310F06AFB02460B46E4
:1047B00010F066FB7EA3D3E9002310F03DFE0DF060
:1047C0001FFB81A3D3E90023804689465046594602
:1047D00010F008FD02460B467DA1D1E9000110F062
:1047E0004DFB73A3D3E9002310F026FE0DF036FA3B
:1047F00079A3D3E9002382468B463046394610F030
:10480000F1FC77A3D3E9002306460F46404649460C
:1048100010F0E8FC02460B463046394610F02EFBFD
:1048200052465B4610F0DEFC22462B4610F028FB79
:1048300005E02046294600226D4B10F01FFB0022A8
:104840006B4B04460D4610F053FF0028F1D10022B7
:1048500000232046294610F037FF68B1204629463C
:104860000022634B10F00CFB0022002304460D468F
:1048700010F02AFF0028F1D15E495F4B0022D1E9F8
:104880000A0110F0D9FD02460B462046294603E0F6
:10489000574B20462946002210F0F0FA0022544BD4
:1048A00004460D4610F024FF0028F1D10022002319
:1048B0002046294610F008FF68B12046294600220C
:1048C0004B4B10F0DDFA0022002304460D4610F099
:1048D000FBFE0028F1D1204629460022444B10F06F
:1048E000ABFD41A3D3E9002310F07CFC10F02AFFBC
:1048F00072B6404B186062B6FDF74CF90120FEF726
:1049000079FA3E4B01221A7009B0BDE8F08F08A970
:104910003278002341F8143D1920642300FB023053
:1049200000220023C6E90223FCF71EFF20A3D3E9DF
:104930000023D6E9020110F07FFD804689460DF084
:104940008DF9C6E90C01404649460DF059FAC6E911
:104950000E01ABE508A93278002341F8103D19207B
:10496000682300FB023000220023C6E90423FCF781
:10497000FBFEB7E5224A214B127822492248012446
:104980001C7012F087F867E5317800236C2219203B
:1049900000FB012033831946FCF7BAFEAFE500BFE8
:1049A00000000060C91CAB3F000000608F425F4008
:1049B00000000020DCA54C40000000E0718AEF3FC1
:1049C0000000002085877140000000A0F2D79A3EC9
:1049D0000000000076703740000000A0EEE734BF12
:1049E00000000080732AF93E00000000C07A604198
:1049F000000038401894FF1F00002E404E97FF1F04
:104A0000D892FF1F74C201000097FF1F2DE9F047E5
:104A100088B008AC0026002764E902679DF840A032
:104A2000CDE90001CDE9022304A922462B4808F074
:104A300023F8BAF1010FDDE90489DDE906451CD947
:104A4000274932463B46D1E9020110F051FE224689
:104A50002B46002837D00020224910F00FFA002200
:104A6000204B10F00DFA04460D4640464946002200
:104A70001D4B10F005FA804689461C4B4046D3E991
:104A80000023494610F0AEFB10F05CFE184B0646C2
:104A9000D3E900232046294610F0A4FB10F052FE73
:104AA00072B6144B1449154A154C1E600023206041
:104AB0004E600B605060136062B6124A01201370A2
:104AC00008B0BDE8F08700200F4910F0D7F90022A8
:104AD000044B10F0D3F904460D46C6E75097FF1F6C
:104AE000D892FF1F00805640008066405893FF1FF9
:104AF0006093FF1FB896FF1FD095FF1F6894FF1F9C
:104B0000BC96FF1F5187FF1F008056C0F0B587B0CD
:104B100006AC0026002764E9026702AD0194009507
:104B20009DF83040FEF77AF8DDE90423DDE9020163
:104B30000094FFF76BFF07B0F0BD00BF8B4B1B78F5
:104B4000002B3FD18A4B1B78002B3BD12DE9F04144
:104B5000884F7B78413BDBB2142B84B000F201819B
:104B6000854A22FA03F3DA0740F1FB8072B6834BE1
:104B70001B6862B6824A16687242934280F299803C
:104B80000226804B1A7812B10021164619707B78E4
:104B9000413B142B79D8DFE813F0D8007800780077
:104BA0007800780078007800780078007800780045
:104BB0007800910078007800780078007800910003
:104BC00078001900704B01221A70704703A90E205B
:104BD000FCF7FAFD03986D4CDFF8E88110F0AEFAAF
:104BE000C4E9000103A91220FCF7EEFD039810F0C0
:104BF000A5FAC8E9000172B6654B186862B6654B44
:104C0000984205DDA0F50300A0F556409842F9DC76
:104C100010F0EAFE604910F0EFFF604910F038FF35
:104C200010F08CFA00225E4B10F0DCFAD4E900237D
:104C300003E05C4B20462946002210F01FF90022B9
:104C4000594B04460D4610F053FD0028F1D10022C7
:104C5000564B2046294610F037FD68B120462946BC
:104C60000022504B10F00CF90022504B04460D4628
:104C700010F02AFD0028F1D1D8E900230096204643
:104C80002946FFF743FF7B78413B494ADBB20021CD
:104C9000142B116007D8474A22FA03F3DB0702D529
:104CA000454B464A1A60464B01221A7004B0BDE8D3
:104CB000F081B342CCBF0226012662E772B6344BC4
:104CC000186862B6334B984205DDA0F50300A0F5E5
:104CD00056409842F9DC10F087FE2F4910F08CFF07
:104CE0002E4910F0D5FE10F029FA00222C4B10F0BE
:104CF00079FA264BD3E9002303E02A4B20462946C4
:104D0000002210F0BBF80022274B04460D4610F09D
:104D1000EFFC0028F1D10022244B2046294610F058
:104D2000D3FC68B12046294600221E4B10F0A8F89B
:104D300000221E4B04460D4610F0C6FC0028F1D19F
:104D4000204B0096D3E9002399E71F4B1F4900969B
:104D5000D3E90023D1E90001FFF758FE7B78413BFE
:104D600093E7094B01221A70A0E700BF7998FF1F53
:104D7000B198FF1F1893FF1F01101400BC96FF1F6E
:104D8000AC93FF1F8894FF1FDD93FF1F1899FF1F2F
:104D90001894FF1F00D6830000D6034B0000C041CB
:104DA00000002E400080764000806640008066C093
:104DB0008094FF1F011010000097FF1F4E2F41002D
:104DC0004E97FF1F8098FF1FB095FF1F6893FF1F2E
:104DD000F0B5044685B00D4672B6114B186810F058
:104DE0009BF9104BD3E9002310F026FB0E4B06462F
:104DF00018680F4610F090F90C4BD3E9002310F01F
:104E00001BFB02460B4662B60948CDE90223CDE9F9
:104E100000672A46214607F0BBFE012005B0F0BD21
:104E2000B896FF1F5893FF1FBC96FF1F6093FF1F8C
:104E30005097FF1F70B586B006AB0024002563E9CC
:104E400002450E460446194602A81546FFF7C0FF64
:104E5000DDE90423DDE902018DE85000FEF79EF84C
:104E600015B92046FBF724FB012006B070BD00BF3A
:104E70002DE9F04FA24B5A78A2F1210393B0592BA0
:104E800065D8DFE813F05A00640064006400640031
:104E900064006400640064006400640064006400F2
:104EA00064006400640064006400640064006400E2
:104EB00064006400640064006400640064006400D2
:104EC00064006400640064006A008B006400640095
:104ED00064006400640064006400640081029B025A
:104EE0009B029B029B02640064006400FF02490372
:104EF000640064006F036400640064006400640084
:104F0000640064006400A90364006400B203BB038E
:104F100064000304170664006400640064003E0635
:104F20006306C50664006400F506640007076400B4
:104F300064006400640064003407724B724A1B789A
:104F4000A3F13001313B032B116041F2E7846F4B39
:104F500001221A7013B0BDE8F08F6A4B6A4C1B78BF
:104F6000303B092B236000F2D9860178012901F03A
:104F7000CE83012166480AF08DFD14200AF0F2FB71
:104F8000644A2168644B52F8210042081344B3FB81
:104F9000F0F00AF0A7FC614B01221A70594B0CAAE1
:104FA0000BA90AA8FCF720FF0028D0D0DDF82C8040
:104FB0000C9F0A9C09F01CFF064609F029FF0546D4
:104FC00009F036FF12AB4E3403F8080D18468DF881
:104FD00045808DF846408DF844708DF842608DF81C
:104FE000415009F037FE04460AF06CFB204609F0F8
:104FF00061FF0AF061FB044609F01CFE05462046ED
:1050000009F00AFE0646204609F0F8FD3146024640
:105010002846FCF7F9F9064620460F4609F0C4FD7C
:105020008046204609F0CEFD10F0DEFC3C4910F031
:10503000E3FD0546404610F0D7FC0146284610F037
:105040001FFC0546204609F0CBFD10F0CDFC35498C
:1050500010F0D2FD294610F013FC10F06FF80FABE2
:10506000804689463046394600930DAA0EABFCF7C0
:105070003BFA0DA807C8FCF7C7F919A3D3E9002329
:1050800004460D46304639460FF0F8FE002206462B
:105090000F46254B4046494610F0CEF902460B46D6
:1050A000304639460FF0ECFE0FA3D3E90023064645
:1050B0000F4610F0C1F90AA3D3E9002382468B46BC
:1050C000204629460FF0DAFE09A3D3E9002310F0A9
:1050D00089F809A3D3E900230FF0D2FE2CE000BF2A
:1050E000000000802CB4424100000000A0D5E14047
:1050F000000000E05BD2B03F000000801CCA1A40F4
:105100001893FF1F2099FF1F8094FF1FDD93FF1F3F
:10511000B8C20100C887FF1F004495084E97FF1FC3
:1051200000007042000061450000384020462946DA
:105130000022CD4B0FF0A2FE0022CB4B04460D46C1
:1051400010F0D6FA0028F1D100220023204629468B
:1051500010F0BAFA68B1204629460022C24B0FF07F
:105160008FFE0022002304460D4610F0ADFA002801
:10517000F1D1A5A3D3E900234046494610F032F807
:1051800022462B460FF07CFEA1A3D3E90023044660
:105190000D465046594610F025F852465B4610F031
:1051A00021F822462B460FF06BFE05E020462946EB
:1051B0000022AD4B0FF062FE0022AB4B04460D46C1
:1051C00010F096FA0028F1D100220023204629464B
:1051D00010F07AFA68B1204629460022A24B0FF05F
:1051E0004FFE0022002304460D4610F06DFA002801
:1051F000F1D189A3D3E90023304639460FF0F2FFFD
:1052000002460B4686A1D1E900010FF037FE86A3C6
:10521000D3E9002310F010F90CF0F2FD84A3D3E9D8
:10522000002380468946304639460FF0DBFF82A3D3
:10523000D3E900230FF024FE02460B460FF020FEB8
:1052400079A3D3E9002310F0F7F80CF0D9FD7CA383
:10525000D3E9002382468B46304639460FF0C2FF21
:1052600002460B4678A1D1E900010FF007FE6EA3BC
:10527000D3E9002310F0E0F80CF0F0FC74A3D3E9BC
:105280000023CDE90201404649460FF0ABFF72A36F
:10529000D3E9002306460F46504659460FF0A2FFB9
:1052A00002460B46304639460FF0E8FDDDE90223A1
:1052B0000FF098FF22462B460FF0E2FD05E0204656
:1052C00029460022684B0FF0D9FD0022664B0446A8
:1052D0000D4610F00DFA0028F1D1002200232046DF
:1052E000294610F0F1F968B12046294600225E4BAC
:1052F0000FF0C6FD0022002304460D4610F0E4F92D
:105300000028F1D1DFF87481584B0022D8E90A0156
:1053100010F092F802460B462046294603E0524B15
:105320002046294600220FF0A9FD00224E4B0446DC
:105330000D4610F0DDF90028F1D1002200232046AF
:10534000294610F0C1F968B1204629460022464B93
:105350000FF096FD0022002304460D4610F0B4F92C
:105360000028F1D12046294600223F4B10F064F876
:105370003BA3D3E900230FF035FF10F0E3F972B639
:10538000C8F8000062B6E5E5DFF8F490DFF8E8A0C1
:1053900099F80050364B009301240CAB0BAA0AA9D4
:1053A00009A8CAF8005089F80040FCF771FD0028F0
:1053B00040F0BF842F4B1C7000F0A6BC2C4D2E4B30
:1053C000A2F14D0628461E6011F05AFD0F283FF647
:1053D000BEAD06EB860606EB86066B1E05F10F08D2
:1053E00003F16F04641B344420465F7803F1010924
:1053F00009F080FE874203D03946204609F094FE2A
:10540000C8454B46ECD1A5E5000000E0360BF03F67
:10541000000000605243FB3E00000060C91CAB3F2F
:10542000000000608F425F4000000020DCA54C407F
:10543000000000E0718AEF3F000000208587714086
:10544000000000A0F2D79A3E0000000076703740BE
:10545000000000A0EEE734BF00000080732AF93E90
:1054600000000000C07A60410000384000002E407B
:105470002099FF1FDD93FF1F8094FF1F1894FF1FCB
:105480004687FF1F724B1B78002B7FF460AD714E77
:1054900010A9304612F04EFD0B460C4610990246FC
:1054A00005466D48B142C0E900233FF450AD28469F
:1054B00021460022694B10F01BF9002800F01787E5
:1054C000284621460022664B10F0FEF8002800F026
:1054D0000E87284621460022002310F013F90028E9
:1054E00001F0648123461946284655A3D3E90023D9
:1054F00010F0EAF8002840F00D870022594B2846AA
:1055000021460FF099FF50A3D3E900230FF094FF39
:10551000554BC3E900011DE5544D4F4E544C2946EF
:1055200030460022FFF786FCD5E90023D6E9006764
:10553000504DC4E9002339463046C5E9006710F0F4
:1055400049F912A941F8080D0E20FCF70DF9D4E92C
:10555000000110F03FF912A941F8100D1220FCF7DC
:1055600003F9F7E43B480378302B3FF4F3AC382BD6
:1055700000F0D586392B01F0AD80452B7FF4E7ACE8
:105580004378313B112B3FF6E2AC01A252F823F0F5
:10559000554F0000616100004F4F00004F4F000069
:1055A0004F4F00004F4F00004F4F00004F4F000083
:1055B000196100004F4F00004F4F00004F4F000097
:1055C0004F4F00004F4F00004F4F00004F4F000063
:1055D000B96200004962000001221E492648FDF719
:1055E00033F800283FF4B3ACB4E40122194923484E
:1055F000FDF72AF800287FF4ADACA8E4204C15484C
:105600002146FBF7E7FE00283FF4A1AC226802F137
:10561000C8039BB242F208018B420BD8194B187891
:1056200012B219256C2405FB004011461A83FCF7C1
:105630006FF80020144B18708CE400BFAFF30080AB
:10564000000000A09999B93F000000E0360BF03F40
:10565000B198FF1F2099FF1F7894FF1F00003E4064
:105660000080564000004E402887FF1F3096FF1FE5
:10567000D096FF1F4093FF1FB095FF1F8098FF1F1C
:105680008094FF1FD892FF1FDD93FF1F884DDFF826
:105690004092DFF840A22A7899F80030CAF800302A
:1056A0000020002300212D2A89F80030CDE91001C7
:1056B00000F02D852B2A00F02A857E4A19461360BA
:1056C0002944002210A87A4CFCF7BEFF002800F005
:1056D000188323782D2B01F01080109D119C764BA0
:1056E0002846214600220FF0EFFF40B92846214608
:1056F0000022724B10F006F8002801F01080704D67
:10570000DFF8D481D5E90423C8E90A2309F0D4FFDE
:10571000064609F08FFA0446304609F07DFA054640
:10572000304609F06BFA294602462046FBF76CFE2C
:10573000044630460D4609F037FA8346304609F0F4
:1057400041FA10F051F95F4910F056FA07465846F1
:1057500010F04AF90146384610F092F807463046F4
:1057600009F03EFA10F040F9574910F045FA394671
:1057700010F086F80FF0E2FC0FAB06460F4620460D
:10578000294600930DAA0EABCDE90467FBF7ACFEEA
:105790000DA807C8FBF738FE39A3D3E90023CDE9EC
:1057A0000601204629460FF069FB002204460D46FB
:1057B000464B304639460FF03FFE02460B46204628
:1057C00029460FF05DFB30A3D3E90023CDE90201A8
:1057D0000FF032FE2AA3D3E9002306460F46DDE987
:1057E00006010FF04BFB2AA3D3E900230FF0FAFCCC
:1057F00029A3D3E900230FF043FB05E02046294607
:105800000022324B0FF03AFB0022304B04460D468B
:105810000FF06EFF0028F1D1002200232046294618
:105820000FF052FF68B1204629460022274B0FF0A7
:1058300027FB0022002304460D460FF045FF0028F9
:10584000F1D117A3D3E90023DDE904010FF0CAFC6D
:1058500022462B460FF014FB13A3D3E90023044682
:105860000D46304639460FF0BDFC32463B460FF040
:10587000B9FC22462B460FF003FB35E0AFF3008066
:10588000000000802CB4424100000000A0D5E1409F
:10589000000000E05BD2B03F000000801CCA1A404C
:1058A000000000E0360BF03F000000605243FB3E7A
:1058B0002099FF1FF098FF1F008076C0008076407F
:1058C000D892FF1F00007042000061450000384080
:1058D0004687FF1F8094FF1F1894FF1F204629460C
:1058E0000022C14B0FF0CAFA0022BF4B04460D46FE
:1058F0000FF0FEFE0028F1D10022002320462946A9
:105900000FF0E2FE68B1204629460022B64B0FF0A8
:10591000B7FA0022002304460D460FF0D5FE0028FA
:10592000F1D19DA3D3E90023DDE902010FF05AFC78
:1059300002460B469AA1D1E900010FF09FFA9AA303
:10594000D3E900230FF078FD0CF05AFA98A3D3E9BD
:10595000002306460F46DDE902010FF043FC96A343
:10596000D3E900230FF08CFA02460B460FF088FAB9
:105970008DA3D3E900230FF05FFD0CF041FA90A353
:10598000D3E90023CDE90401DDE902010FF02AFC8F
:1059900002460B468CA1D1E900010FF06FFA82A3F9
:1059A000D3E900230FF048FD0CF058F988A3D3E9A0
:1059B0000023CDE90201304639460FF013FC86A3DF
:1059C000D3E9002306460F46DDE904010FF00AFC87
:1059D00002460B46304639460FF050FADDE9022305
:1059E0000FF000FC22462B460FF04AFA05E0204655
:1059F000294600227C4B0FF041FA00227A4B0446E4
:105A00000D460FF075FE0028F1D10022002320463C
:105A100029460FF059FE68B1204629460022724BF4
:105A20000FF02EFA0022002304460D460FF04CFE24
:105A30000028F1D100226D4BD8E90A010FF0FCFCDF
:105A400002460B462046294603E0674B204629467E
:105A500000220FF013FA0022634B04460D460FF0AC
:105A600047FE0028F1D100220023204629460FF0EE
:105A70002BFE68B12046294600225B4B0FF000FA4E
:105A80000022002304460D460FF01EFE0028F1D12F
:105A9000204629460022544B0FF0CEFC50A3D3E9F8
:105AA00000230FF09FFB0FF04DFE72B6C8F8000008
:105AB00062B629E14E480378002B40F034814D4B0B
:105AC00001221A704C4C4A482146FBF783FC0028FF
:105AD0003FF43DAA236803F11E023C2A3FF637AA91
