:1000000000800020BD01000015590100CD580100FD
:10001000CD580100CD580100CD580100CD58010048
:10002000CD580100CD580100CD58010015590100EF
:1000300015590100CD580100758A0100798A010027
:1000400015590100155901001559010015590100F4
:1000500015590100155901001559010015590100E4
:1000600015590100155901001559010015590100D4
:1000700015590100155901001559010015590100C4
:1000800015590100155901001559010015590100B4
:1000900015590100155901001559010015590100A4
:1000A0001559010015590100155901001559010094
:1000B0001559010015590100155901001559010084
:1000C0001559010015590100155901001559010074
:1000D0001559010015590100155901001559010064
:1000E0001559010015590100155901001559010054
:1000F00015590100D9690100155901001973010052
:10010000155901002D7A01001559010015590100FA
:100110001559010015590100155901001559010023
:100120001559010015590100155901001559010013
:100130001559010015590100155901001559010003
:1001400015590100155901001559010015590100F3
:10015000558F0100698F01007D8F0100918F010093
:10016000155901001D7D01001559010015590100A7
:1001700015590100155901001559010015590100C3
:1001800015590100155901001559010015590100B3
:1001900015590100155901001559010015590100A3
:1001A0001559010015590100155901001559010093
:1001B000155901001559010015590100564B4CF213
:1001C000205210B51A804DF628121A8000BF00BFC9
:1001D00015F0A4FB514B4FF010621A60504A9A6020
:1001E000504ADA60504A136813F4807304D14F49BF
:1001F0000B604FF4A85313604D4B1A78110703D5C9
:100200001A7842F008021A704A4B4B492A221A7097
:100210004A4A4B4B8B4204D252F8040F43F8040B6A
:10022000F8E7484B484900228B4202D243F8042B9E
:10023000FAE74649464A002352F8230041F82300D2
:1002400001336F2BF8D1434B434A802103F8011B44
:100250009342FBD1414B3D4A1A60414B8A221A70AE
:10026000A3F5805324225A70A0221A709A7992071B
:10027000FCD59A79D406FCD43A4A937903F00C035E
:10028000082B384BF9D103221A7140225A719A79FE
:100290009006FCD5334A9179324B4906FBD5324A58
:1002A000324911600221516020221A709A7902F0BD
:1002B0000C020C2AFAD12E4B2E4A1A602E4B2F4AD2
:1002C0001A6000225A60072243F8042C2C4AC3F813
:1002D0000C2D62B615F0BEFD144B1B68DA0705D570
:1002E000284815F0A3FD284B284A1A60284B1B7894
:1002F0005B0609D5244C254B22689A4204D121483B
:1003000015F094FD0023236015F00EFB1DF044F959
:1003100018F04AFEFEE700BF0E2005403080044082
:10032000823F04000100002B10D0034014D0034092
:1003300002D0074000E007403093FF1F284602002C
:100340002087FF1F3093FF1F389FFF1F0082FF1F72
:100350000000000000E400E05FE400E008ED00E0E1
:100360000050064000400640448004400000030165
:1003700004800440C010050014E000E0FF76010096
:10038000000020201183D2641CE00340A5C3945ACE
:1003900000F00740FFFFFFFFFFFFFFFFFFFFFFFF32
:1003A000FFFFFFFFFFFFFFFFFFFFFFFFFFFFFFFF5D
:1003B000FFFFFFFFFFFFFFFFFFFFFFFFFFFFFFFF4D
:1003C000FFFFFFFFFFFFFFFFFFFFFFFFFFFFFFFF3D
:1003D000FFFFFFFFFFFFFFFFFFFFFFFFFFFFFFFF2D
:1003E000FFFFFFFFFFFFFFFFFFFFFFFFFFFFFFFF1D
:1003F000FFFFFFFFFFFFFFFFFFFFFFFFFFFFFFFF0D
:10040000FFFFFFFFFFFFFFFFFFFFFFFFDEF9FFFF23
:1004100010B5054C237833B9044B13B10448AFF33E
:1004200000800123237010BD3093FF1F00000000E7
:1004300024460200084B10B51BB108490848AFF329
:1004400000800848036803B910BD074B002BFBD0A0
:10045000BDE81040184700BF000000003493FF1FA4
:10046000244602003093FF1F0000000015F0D8BCA6
:1004700010B5044618F04CFD204610BD10B582B0F2
:10048000044615F0E1F98DF80600601C15F0DCF962
:100490008DF80700BDF8060002B010BD38B50C4657
:1004A000054615F0D1F92070681C15F0CDF9607083
:1004B000A81C15F0C9F9A070E81C15F0C5F9E0708A
:1004C00038BD00BF3A4A70B502233A4D13602A780E
:1004D000002A39D0384E0023337072B6374CD4E935
:1004E00006011CF071FC2369C01A206262B6236AFF
:1004F000002B31D0236A324A3049D27B002BD4BF43
:100500000023012384F828305AB32E4B91F8282079
:100510001B789A422BD02C4B01221A6094F8282089
:10052000264B02F0FF0162B3D96FD3F888209142C5
:1005300031DADA6F01210A44DA6783F8781001238F
:10054000337000232B7070BD1B4A12780AB11F4A0A
:10055000136001232B7070BD94F87830002BC9D143
:10056000EFE7184B91F828201B789A42D3D0184B0C
:1005700001221A6094F82820104B02F0FF01002A93
:10058000D2D1DA6F002A0DDDDA6F0121013ADA6784
:1005900083F87810D3E7002283F878201A690132B3
:1005A0001A61CCE783F878101A69013A1A61C6E734
:1005B00088F00F402487FF1FA194FF1FC894FF1FDE
:1005C0007897FF1FF495FF1FC8F00F4084F00F408D
:1005D000C4F00F402DE9F04791F8784082B02CB17B
:1005E000D1E920670124C2E900671C70274C2478F8
:1005F000002C3ED0264C2478002C3AD191F878403B
:10060000002C36D11C78002C33D0007C002830D14F
:100610001C4692460D4672B6D1E906011CF0D4FB89
:100620002B69C01A286262B62B6A0193019B002BCA
:1006300029DD01981CF0B2F88046A86E89461CF0AE
:10064000ADF8D5E918231CF00FF90022114B06462E
:100650000F461CF08FFB08B90E4F002632463B4672
:10066000404649461CF072FB30B172B6002323703D
:1006700062B602B0BDE8F08772B6D5E91223CAE9C6
:10068000002362B6F5E701984042D3E72099FF1FA7
:100690006095FF1F0000F03F037C022B04BF012385
:1006A0000374037CFE2B04BFFF230374704700BF59
:1006B000014B31221A807047389BFF1F10B4064B44
:1006C000064A1878C8246F21002304FB001019463D
:1006D00010BC137015F0D2B88C95FF1FA894FF1FA3
:1006E00010B5084B084A18786E210023C82404FB73
:1006F00000101946137015F0C1F8044B01221A704E
:1007000010BD00BF8C95FF1F6897FF1F2099FF1F2A
:10071000394A70B52023394D13602A78002A37D022
:10072000374E0023337072B6364CD4E906011CF004
:100730004BFB2369C01A206262B6236A002B2FD0BC
:10074000236A314A2F49D27B002BD4BF00230123D7
:1007500084F828304AB391F8283053B32B4B4FF428
:1007600000521A6094F82820264B02F0FF015AB379
:10077000D96FD3F88820914230DADA6F01210A4428
:10078000DA6783F878100123337000232B7070BD73
:100790001B4A12780AB11E4A136001232B7070BDE8
:1007A00094F87830002BCBD1EFE791F82830002B6C
:1007B000D4D0184B4FF400521A6094F82820114BF3
:1007C00002F0FF01002AD3D1DA6F002A0DDDDA6FC3
:1007D0000121013ADA6783F87810D4E7002283F820
:1007E00078201A6901321A61CDE783F878101A6906
:1007F000013A1A61C7E700BFC8F00F405087FF1FDA
:10080000B59BFF1F6893FF1FB897FF1F04F00F40B1
:10081000C4F00F4008F00F402DE9F0475D4C5E4DED
:100820005E495F4E2D7894F800E009783478002D09
:1008300008BFBEF1000F0CBF01250025C9B224B1CD
:100840003478042C01D0BDE8F0878D42FBD91D46D9
:100850001746044619461046002300221CF06CFA85
:1008600000284ED13378042B04D04E4B4E4A1978D1
:1008700011701870237C5BB2002B74DDD4E90289FF
:1008800000220023404649461CF074FA4FF0010A4A
:1008900000284BD05FFA8AFA237C73B100233846D4
:1008A000294600221CF070FA4FF0010300B90346FC
:1008B00083F00103DBB29A451AD03846294600225C
:1008C00000231CF061FA002855D0384629464246DC
:1008D0004B461CF031FA58B30423337002232374BF
:1008E000324A00214FF0FF3311702360BDE8F087DA
:1008F00000224FF08043404649461CF045FA00284C
:10090000DBD0237C022B02D0237CFE2B9BD1204604
:10091000BDE8F047FFF7C0BE00220023404649462D
:100920001CF01EFA4FF0010A0028B3D18246B1E74D
:10093000AA463A465346C4E9022372B6216AD4E96C
:100940000223D1E900011BF08FFFC4E9060162B662
:100950002946042538460022002335701CF014FA7D
:100960000028BBD113E0237C1B06D4E90289D3D431
:100970004FF0010A90E705F1004A384651464246D9
:100980004B461CF0D9F90028D3D004233370FE2342
:100990002374A5E7AA94FF1F6897FF1F6095FF1FA8
:1009A0000694FF1F2099FF1FA994FF1FEC87FF1FCC
:1009B00030B583B0CDB20191044614F045FF8542B5
:1009C00003D02946204614F059FF0134204614F084
:1009D0003BFF9DF80550854203D02946204614F080
:1009E0004DFF03B030BD00BFF8B50D460E7804468C
:1009F00014F02AFF864203D03146204614F03EFF11
:100A0000661C304614F020FF6F78874203D03946C9
:100A1000304614F033FFA61C304614F015FFAF78B3
:100A2000874203D03946304614F028FF033420466D
:100A300014F00AFFED78854205D029462046BDE82E
:100A4000F84014F01BBFF8BD2DE9F047474B484F65
:100A5000484E82B0002201250A201A703D70357080
:100A600015F0AEFB444B1C7804EB840404EB8404C7
:100A7000E40004F1650014F0E7FE8DF8040004F1D1
:100A8000660014F0E1FE8DF8050004F1670014F033
:100A9000DBFE8DF8060004F1680014F0D5FE8DF839
:100AA000070004F1690014F0CFFEDDF804A08DF812
:100AB000040004F16A0014F0C7FE8DF8050004F18B
:100AC0006B0014F0C1FE8DF8060004F16C0014F008
:100AD000BBFE2A4B8DF80700587B019C1BF04EFE95
:100AE00002460B4600204FF0804118F091FD8046F1
:100AF000894650461BF052FE42464B461BF0B4FE60
:100B00001CF062F91E4B8246587B1BF037FE0246F2
:100B10000B4600204FF0804118F07AFD8046894650
:100B200020461BF03BFE42464B461BF09DFE1CF050
:100B30004BF9044672B65046C7F810A01BF02EFEC3
:100B4000C7E90601204634611BF028FEC6E906010C
:100B500062B60C4A0C4B1278AA420CBF0222002249
:100B600028461A7002B0BDE8F08700BFEC87FF1F6F
:100B7000C894FF1F6893FF1F8C95FF1F7897FF1F76
:100B8000B897FF1FC087FF1F589AFF1FFFFFFFFF87
:100B900010B5494C494994F82C30013BDAB2002099
:100BA000032A087006D84649606951F8222090420D
:100BB00028BF1046032B10D8DFE803F06602586BFD
:100BC0001BF0DCFD3AA3D3E900231BF077FF1CF0F8
:100BD00023F981B2606B14F035F93A4C94F82C305B
:100BE000013BDAB2032A0CD83549606951F822205A
:100BF000904228BF1046032B59D8DFE803F0221398
:100C000004280020F7E71BF0B9FD29A3D3E900234E
:100C10001BF054FF1CF000F981B2A06BBDE810403E
:100C200013F0E6BC1BF0AAFD21A3D3E900231BF0BF
:100C300045FF1CF0F1F881B2606BBDE8104014F084
:100C400001B90146206BBDE8104012F0E5BC1BF075
:100C500095FD17A3D3E900231BF030FF1CF0DCF84F
:100C600081B2E06BBDE8104013F0CCBD1BF086FDF7
:100C70000FA3D3E900231BF021FF1CF0CDF881B2B4
:100C8000A06B13F0B5FCA8E70146206B12F0C4FC82
:100C9000A3E71BF073FD06A3D3E900231BF00EFFAF
:100CA0001CF0BAF881B2E06B13F0ACFD95E710BD13
:100CB000CD3B7F669EA0F63F7897FF1F0794FF1FEE
:100CC00028390200B897FF1F10B54B4C4B4994F8D8
:100CD0002C30013BDAB20120032A08702DD8484994
:100CE000E06951F82220904228BF1046032B10D80B
:100CF000DFE803F068025A6D1BF040FD3CA3D3E926
:100D000000231BF0DBFE1CF087F881B2606B14F04F
:100D100099F83C4C94F82C30013BDAB2032A0ED8F7
:100D20003749E06951F82220904228BF1046032B32
:100D30005BD8DFE803F02415062A0020D6E7002060
:100D4000F5E71BF01BFD2AA3D3E900231BF0B6FE39
:100D50001CF062F881B2A06BBDE8104013F048BCF3
:100D60001BF00CFD22A3D3E900231BF0A7FE1CF00F
:100D700053F881B2606BBDE8104014F063B80146CF
:100D8000206BBDE8104012F047BC1BF0F7FC18A325
:100D9000D3E900231BF092FE1CF03EF881B2E06B19
:100DA000BDE8104013F02EBD1BF0E8FC10A3D3E902
:100DB00000231BF083FE1CF02FF881B2A06B13F010
:100DC00017FCA6E70146206B12F026FCA1E71BF0FA
:100DD000D5FC07A3D3E900231BF070FE1CF01CF820
:100DE00081B2E06B13F00EFD93E710BDAFF300800E
:100DF000CD3B7F669EA0F63F7897FF1F0794FF1FAD
:100E000028390200B897FF1FF8B52F4B2F4C304DF3
:100E10001E783049DFF8E8C0DFF8E8E0012384F805
:100E2000283085F82830D5E90E23C5E91423D4E904
:100E30000E23C8276E2017FB0606274FC4E914238C
:100E400000230022C1E90023C7E900232349CCE99C
:100E50000023CEE90023224B002730460F701F707D
:100E600014F0F2FC18B13946304614F007FD1D4865
:100E70001D4B1E491E4A4668586800230B740B60C0
:100E800013744B606E6113605360606172B6686981
:100E90001BF084FCC5E906016B692B6160691BF0DE
:100EA0007DFCC4E906016369236162B6114B1B78BE
:100EB00033B1114A114B0021012011701870F8BD97
:100EC000FFF702FFF5E700BF8C95FF1F6893FF1F38
:100ED000C894FF1F4894FF1F5897FF1FAA94FF1F35
:100EE0006897FF1F0897FF1FE09AFF1F5094FF1F8E
:100EF0007894FF1F0794FF1F2099FF1FEC87FF1FA7
:100F00006097FF1F789BFF1F2DE9F04FD1E9106715
:100F10008BB0CDE904670C4691F87810149D21B987
:100F20001F46037C0646002B39D1B14B1B78D5E90F
:100F30000001002B00F04C81D4E916231BF0E2FAEB
:100F4000024621F00043CDE90623DDE906670022D1
:100F50000023304639461BF0EFFE002840F06C813C
:100F600032463B46D4E90E011BF0A8FD06460F466B
:100F700002460B46DDE918011BF006FF002800F0D1
:100F80002E8132463B46DDE916011BF0E9FE0028C2
:100F900000F02281C4E914670BB0BDE8F08FD0E9FE
:100FA000028992464046DDE9042349461BF0CEFE05
:100FB000002840F027818F4B1B78002B40F0B78131
:100FC000337CDFF83CB219064CBF8B4B8B4B0022B5
:100FD000CBE90023337CFF2B00F03581337C012BE0
:100FE00000F03181D4E90223104619461BF08AFA39
:100FF000DBE900897CA3D3E900231BF035FC4246E2
:101000004B461BF031FCD5E90089DAE900231BF0DF
:1010100055FD42464B461BF075FAC5E90001D5E97E
:101020000001002200231BF091FE002840F0878180
:10103000DDE90401D5E900231BF09CFE002800F047
:10104000748104ABD3E90023C5E90023337C5BB290
:10105000002B40F3BB81D6E90289D5E90001424665
:101060004B461BF091FE08B9D5E90089C5E9008916
:10107000337CFF2B03D0337C012B7FF456AFD5E9B3
:101080000023CDE90823DDE90801002200231BF03D
:101090007BFE002800F00C81DDE90823DDE9040176
:1010A0001BF054FE002800F0098172B6D4E9060155
:1010B0001BF08AFE2369C01A206262B6D4E91423A9
:1010C000D4E91C011BF0FAFC02460B461BF0CCFBDA
:1010D000D4E902AB8046894652465B4650465946A3
:1010E0001BF010FA0B460246494640461BF0E6FC50
:1010F0001BF06AFE236A002B8046C0F2138172B691
:10110000206940441BF04AFBC4E90601C4F8208072
:1011100062B6236A0293029B0298002BD8BF40421A
:101120001BF03CFB8046A06E89461BF037FBD4E9E0
:1011300018231BF099FB0022304B82468B461BF094
:1011400019FE002800F0F68052465B4640464946AC
:101150001BF0FCFD00283FF4E8AE00210022002334
:101160003174C5E9002372B6D7E906011BF02CFEE5
:101170003B69C01A386262B63B6A0193019B0198D1
:10118000002BD8BF40421BF009FB8046B86E894651
:101190001BF004FBD7E918231BF066FB0022174B5A
:1011A00006460F461BF0E6FD002800F01D81324682
:1011B0003B46404649461BF0C9FD00283FF4B5AE0A
:1011C0000C4B1B78002B7FF4B0AEFFF77DFDACE637
:1011D000024621F00043B6E6DDE91667DAE6DDE90E
:1011E0001867CEE6AFF3008000000040E17A843F4C
:1011F0002099FF1F0794FF1F0000F0BF0000F03F81
:10120000309BFF1FD5E90023104623F00041DDE9A4
:1012100004231BF09BFD00283FF4CDAE337C5BB272
:10122000002B3FF723AF337C180600F1C9804FF045
:1012300000084FF0000919E7DDE91823C4E9142379
:101240000BB0BDE8F08FD4E90223104619461BF01D
:1012500059F9DBE9008966A3D3E900231BF004FBFD
:1012600042464B461BF000FBDAE900231BF026FC4C
:10127000D5E9008902460B46404649461BF040F935
:10128000C5E900010022DBE900015B4B1BF054FDC6
:10129000002872D0D5E90001DDE904231BF06AFDC6
:1012A00000287ED104ABD3E90023C5E90023B6E6CC
:1012B000DDE90801024601F10043EFE672B6D4E928
:1012C00006011BF081FD2369C01A206262B6D4E9D1
:1012D0001423D4E91C011BF0F1FB02460B46D4E9B0
:1012E00002AB1BF0C1FA5246804689465B46504627
:1012F00059461BF007F90B460246494640461BF08B
:10130000DDFB1BF061FD236A0393039B002B039B12
:10131000D8BF5B4298428046BFF6FBAE236A002BE3
:10132000BFF6EDAEC8F10008E9E62B468AE6FFF706
:101330002FFC45E64FF0000ADFF8BCB004E7DDE91A
:10134000042303F10049904610464946D5E900239D
:101350001BF0FCFC10B3C5E90089337C5BB2002BA9
:1013600021DDD6E90289D5E9000142464B461BF052
:10137000F7FC00287FF47AAE76E6DDE9042303F17A
:101380000049904610464946D5E900231BF0FCFC75
:1013900008B1D5E90089C5E9008940E6D5E90089A9
:1013A000D9E72B467FE7337C1A064FF000084FF051
:1013B0000009D8D5F368D6F8088003F10049D2E7D0
:1013C000414609F10043884699464FE6337C1B06A7
:1013D0004FF000084FF000097FF53FAEF368D6F8F4
:1013E000088003F1004938E60026034FDFE600BF1E
:1013F00000000040E17A843F0000F03F584A59491C
:101400001368F0B5013313600B788BB0002B69D0F3
:101410005549564C564B5748D1E914670AAA62E918
:101420000267FFF7D7F8DDE90801D4E900231BF0D4
:1014300083FC08BB0022504BDDE908011BF014FAC5
:101440001BF00AFD002105461CF00CF880B94B4941
:1014500028461CF01BF858B9494928461BF05AFE8B
:101460004FF07C511BF04CFD1CF056F823286BD834
:10147000DDE90823C4E900234249434C434B444877
:10148000D1E914670AAA62E90467FFF7A3F8DDE966
:101490000601D4E900231BF04FFC08BB0022364BA9
:1014A000DDE906011BF0E0F91BF0D6FC0021054642
:1014B0001BF0D8FF80B9314928461BF0E7FF58B927
:1014C0002F4928461BF026FE4FF07C511BF018FDDB
:1014D0001CF022F823283DD8DDE90623C4E90023C7
:1014E0000BB0F0BD2B4A2C492C4B0091D2E90001E6
:1014F000D3E900231F4C264DCDE90401CDE9022399
:101500002046204B264A1849FFF7FEFC254A26496B
:10151000264B0091D2E90001D3E90023CDE9040173
:10152000CDE902232846104B214A1649FFF7ECFC6F
:10153000237C002B7FF46CAF2B7C5BB2002B7FF401
:1015400067AF1C4A137063E71B4B1B68002B8FD0DF
:1015500018608DE7194B1B68002BBDD01860BBE7E6
:10156000F895FF1F6095FF1FC894FF1F609AFF1F2B
:101570000494FF1F5094FF1F0000E03FABAAAA4C49
:10158000000040426893FF1F689AFF1F4194FF1FAD
:101590007894FF1FC887FF1FB894FF1F4087FF1F65
:1015A0002897FF1FD087FF1FA89BFF1F4887FF1F9B
:1015B000009BFF1F0694FF1F5893FF1F6093FF1FA0
:1015C0002DE9F04F8FB00EAFDDE91C451A9E07F8EC
:1015D000086DC0E90C45189E03904E318DF83520FA
:1015E0003846199A8DF831208DF834308DF8361040
:1015F0008DF8326011F0A0FED94904461E981BF008
:1016000089FD1BF063FF0444204614F00FFC2046C4
:1016100011F0C2FF14F004FC044611F07DFE0646F2
:10162000204611F06BFE0546204611F059FE6B1E58
:10163000012B98BF06F1FF368246304698BF0C3525
:101640001BF014FDC74983461BF018FE1BF0B8F8C9
:1016500017F08AFE804689465846C3491BF00EFEA5
:101660001BF0AEF817F080FE06460F465846BF49FD
:101670001BF050FD1BF0A4F817F076FECDE9000139
:1016800028461BF0F3FC4FF07E511BF03BFCB849A1
:101690001BF040FD1BF094F817F066FE4246CDE9C2
:1016A00004014B4600204FF080411AF029FF3246DA
:1016B0003B461AF027FFDDE900231AF023FFDDE99E
:1016C00004231AF01FFF064650460F461BF066F82B
:1016D00002460B46304639461AF014FF8CA3D3E974
:1016E00000231AF00FFF824620468B4611F0CEFDF4
:1016F0000646204611F0D8FD1BF0B8FC9D491BF0B2
:10170000BDFD054630461BF0B1FC014628461BF0E6
:10171000F9FB0546204611F0D5FD1BF0A7FC9049CA
:101720001BF0ACFD29461BF0EDFB1BF049F8002235
:10173000CDE90001904B504659461AF0E3FE17F0F0
:1017400013FE75A3D3E9002304460D461BF01CFBD2
:1017500068B373A3D3E90023204629461AF0D0FECC
:1017600071A3D3E900231BF0A9F91BF02DFB1BF09B
:1017700015F8002206460F46804B204629461AF0EF
:10178000C1FE32463B461AF0BDFE002204460D461D
:101790007B4B304639461BF067F817F0E5FD0246F3
:1017A0000B46204629461AF0ABFE04460D4620465D
:1017B00029465FA3D3E900231AF0A4FE5EA3D3E970
:1017C000002304460D461AF09BFE5DA3D3E90023D7
:1017D0001BF074F917F0C8FD59A3D3E90023CDE934
:1017E00004011BF041F817F0BFFD02460B462046EE
:1017F00029461AF085FE54A3D3E900238046894682
:101800001BF05CF917F0B0FD4FA3D3E900230446A9
:101810000D461BF029F817F0A7FD002206460F46DB
:101820000023404649461AF06DFE32463B461AF008
:1018300067FE17F099FD1BF0C7FA00220646514BD0
:10184000204629461BF082FA002800F06082002220
:101850004A4B204629461AF053FE17F085FD1BF02F
:10186000B3FA044620461BF001FC474905461BF02D
:101870000DFE002840F0578235A3D3E90023DDE9AF
:1018800004011AF03DFE17F06FFD1BF09DFA0746AC
:10189000631E012B05D804F10C001BF0E7FB013F90
:1018A000054638461BF0E2FB2E4904461BF0E6FCD9
:1018B0001AF086FF17F058FDCDE9040120462A49A9
:1018C0001BF0DCFC1AF07CFF17F04EFDCDE90601A1
:1018D000204626491BF01EFC1AF072FF17F044FD4B
:1018E000CDE9080128464FF07E511BF00BFB204943
:1018F0001BF010FC1AF064FF17F036FD16A3D3E9B5
:101900000023CDE90A01504659463FE0AFF300807D
:1019100000000080A2423A41000000008C8A414150
:1019200000000040D07D3C410000000088D5E1402F
:101930000000000000D097400000006066865E4016
:101940000000000000D4764000000020A0993E4036
:1019500000000000006BB240000000802CB4424147
:10196000000061450000C8420000C84300A0B64323
:1019700001CDF441000070420000E03F0000F03F64
:101980000000D03F00002B40000020401AF0B8FDBE
:10199000002204460D46C04BDDE900011BF08EF825
:1019A00002460B46204629461AF0ACFD9AA3D3E91D
:1019B000002382468B461BF081F8DDE90423804634
:1019C000894600204FF080411AF09AFDDDE9062398
:1019D0001AF098FDDDE908231AF094FDDDE90A23E9
:1019E0001AF090FD044630460D461AF0D7FE024626
:1019F0000B46204629461AF085FD89A3D3E900232A
:101A00001AF080FD88A3D3E900231AF079FD88A39A
:101A1000D3E900231AF028FF87A3D3E900231AF0A3
:101A200071FD05E02046294600229B4B1AF068FD17
:101A30000022994B04460D461BF09CF90028F1D179
:101A400000220023204629461BF080F968B1204679
:101A500029460022904B1AF055FD0022002304462F
:101A60000D461BF073F90028F1D175A3D3E90023CB
:101A7000DDE900011AF0F8FE22462B461AF042FD7D
:101A800071A3D3E9002304460D46404649461AF0A7
:101A9000EBFE42464B461AF0E7FE22462B461AF072
:101AA00031FD05E02046294600227B4B1AF028FD37
:101AB0000022794B04460D461BF05CF90028F1D159
:101AC00000220023204629461BF040F968B1204639
:101AD00029460022704B1AF015FD0022002304460F
:101AE0000D461BF033F90028F1D159A3D3E90023A7
:101AF000504659461AF0B8FE02460B4656A1D1E9A7
:101B000000011AF0FDFC56A3D3E900231AF0D6FF1A
:101B100017F0B2FC54A3D3E9002306460F46504603
:101B200059461AF0A1FE52A3D3E900231AF0EAFCA9
:101B300002460B461AF0E6FC49A3D3E900231AF04B
:101B4000BDFF17F099FC4CA3D3E9002380468946DA
:101B5000504659461AF088FE02460B4648A1D1E984
:101B600000011AF0CDFC3EA3D3E900231AF0A6FF32
:101B700017F0AEFB44A3D3E9002382468B463046E0
:101B800039461AF071FE42A3D3E9002306460F46F8
:101B9000404649461AF068FE02460B463046394632
:101BA0001AF0AEFC52465B461AF05EFE22462B4609
:101BB0001AF0A8FC05E0204629460022364B1AF010
:101BC0009FFC0022344B04460D461BF0D3F800283E
:101BD000F1D100220023204629461BF0B7F868B156
:101BE0002046294600222C4B1AF08CFC00220023B0
:101BF00004460D461BF0AAF80028F1D10399274BA3
:101C00000022D1E90C011AF059FF02460B4620468A
:101C1000294649E0AFF3008000000000A0D5E14074
:101C200000000080A2423A41000000802CB44241F2
:101C3000000000E05BD2B03F000000801CCA1A40E8
:101C4000000000E0360BF03F000000605243FB3E16
:101C500000000060C91CAB3F000000608F425F4085
:101C600000000020DCA54C40000000E0718AEF3F3E
:101C70000000002085877140000000A0F2D79A3E46
:101C80000000000076703740000000A0EEE734BF8F
:101C900000000080732AF93E0000384000002E400A
:101CA0002B4B2046294600221AF02AFC0022284B02
:101CB00004460D461BF05EF80028F1D100220023F7
:101CC000204629461BF042F868B1204629460022EA
:101CD0001F4B1AF017FC0022002304460D461BF090
:101CE00035F80028F1D1204629460022184B1AF079
:101CF000E5FE13A3D3E900231AF0B6FD1BF064F848
:101D000072B6039B186062B60FB0BDE8F08F002278
:101D1000104B204629461AF0F3FB17F025FB1BF069
:101D200053F804469EE508A3D3E90023DDE9040146
:101D30001AF0E6FB17F018FB1BF046F80746A7E57C
:101D400000000000C07A604100000000006CB2405A
:101D50000000384000002A402DE9F04F8DB003907C
:101D600014F05EF8044611F0D7FA0646204611F04A
:101D7000C5FA0546204611F0B3FA6B1E012B98BF39
:101D800006F1FF368246304698BF0C351BF06EF9DF
:101D9000D74983461BF072FA1AF012FD17F0E4FAE5
:101DA000804689465846D3491BF068FA1AF008FD68
:101DB00017F0DAFA06460F465846CF491BF0AAF943
:101DC0001AF0FEFC17F0D0FACDE9000128461BF00E
:101DD0004DF94FF07E511BF095F8C8491BF09AF968
:101DE0001AF0EEFC17F0C0FA4246CDE904014B466A
:101DF00000204FF080411AF083FB32463B461AF038
:101E000081FBDDE900231AF07DFBDDE904231AF0F4
:101E100079FB064650460F461AF0C0FC02460B46B8
:101E2000304639461AF06EFB9BA3D3E900231AF023
:101E300069FB824620468B4611F028FA064620466A
:101E400011F032FA1BF012F9AD491BF017FA0546F2
:101E500030461BF00BF9014628461BF053F80546A7
:101E6000204611F02FFA1BF001F9A6491BF006FAE3
:101E700029461BF047F81AF0A3FC0022CDE9000127
:101E8000A14B504659461AF03DFB17F06DFA84A35A
:101E9000D3E9002304460D461AF076FF68B382A307
:101EA000D3E90023204629461AF02AFB80A3D3E970
:101EB00000231AF003FE1AF087FF1AF06FFC0022CD
:101EC00006460F46914B204629461AF01BFB324628
:101ED0003B461AF017FB002204460D468C4B304659
:101EE00039461AF0C1FC17F03FFA02460B4620466D
:101EF00029461AF005FB04460D46204629466EA3E6
:101F0000D3E900231AF0FEFA6DA3D3E900230446B7
:101F10000D461AF0F5FA6CA3D3E900231AF0CEFDB2
:101F200017F022FA68A3D3E90023CDE904011AF0DF
:101F30009BFC17F019FA02460B46204629461AF078
:101F4000DFFA63A3D3E90023804689461AF0B6FD81
:101F500017F00AFA5EA3D3E9002304460D461AF0EF
:101F600083FC17F001FA002206460F460023404684
:101F700049461AF0C7FA32463B461AF0C1FA17F042
:101F8000F3F91AF021FF00228046624B20462946D1
:101F90001AF0DCFE002800F0208200225B4B204675
:101FA00029461AF0ADFA17F0DFF91AF00DFF0446D2
:101FB00020461BF05BF8584905461BF067FA0028DD
:101FC00040F0178244A3D3E90023DDE904011AF0AD
:101FD00097FA17F0C9F91AF0F7FE0646631E012BAF
:101FE00005D804F10C001BF041F8013E05463046CF
:101FF0001BF03CF83E4904461BF040F91AF0E0FBA8
:1020000017F0B2F9CDE9040120463A491BF036F940
:102010001AF0D6FB17F0A8F9CDE90601204636499B
:102020001BF078F81AF0CCFB17F09EF9CDE9080107
:1020300028464FF07E511AF065FF30491BF06AF8D0
:102040001AF0BEFB17F090F925A3D3E90023CDE9E0
:102050000A01504659461AF053FA002204460D462A
:102060002E4BDDE900011AF029FD02460B46204601
:1020700029461AF047FA1CA3D3E9002382468B466F
:102080001AF01CFDDDE9042306460F4600204FF040
:10209000804145E0AFF3008000000080A2423A4159
:1020A000000000008C8A414100000040D07D3C418E
:1020B0000000000088D5E1400000000000D09740FB
:1020C0000000006066865E400000000000D476409C
:1020D00000000020A0993E4000000000006BB240CC
:1020E000000000802CB4424100000000A0D5E14077
:1020F0000000C8420000C84300A0B64301CDF4412F
:1021000000007042000061450000E03F0000F03F29
:102110000000D03F00002B4000002040000038406D
:102120001AF0EEF9DDE906231AF0ECF9DDE90823EF
:102130001AF0E8F9DDE90A231AF0E4F9044640460A
:102140000D461AF02BFB02460B46204629461AF094
:10215000D9F9AFA3D3E900231AF0D4F9AEA3D3E998
:1021600000231AF0CDF9AEA3D3E900231AF07CFBCB
:10217000ADA3D3E900231AF0C5F905E020462946AE
:102180000022C54B1AF0BCF90022C34B04460D4691
:102190001AF0F0FD0028F1D1002200232046294644
:1021A0001AF0D4FD68B1204629460022BA4B1AF035
:1021B000A9F90022002304460D461AF0C7FD0028A5
:1021C000F1D19BA3D3E90023DDE900011AF04CFB18
:1021D00022462B461AF096F997A3D3E9002304462A
:1021E0000D46304639461AF03FFB32463B461AF060
:1021F0003BFB22462B461AF085F905E0204629468E
:102200000022A54B1AF07CF90022A34B04460D4690
:102210001AF0B0FD0028F1D1002200232046294603
:102220001AF094FD68B12046294600229A4B1AF014
:1022300069F90022002304460D461AF087FD0028A4
:10224000F1D17FA3D3E90023504659461AF00CFB85
:1022500002460B467CA1D1E900011AF051F97CA39A
:10226000D3E900231AF02AFC17F006F97AA3D3E980
:10227000002306460F46504659461AF0F5FA78A351
:10228000D3E900231AF03EF902460B461AF03AF958
:102290006FA3D3E900231AF011FC17F0EDF872A335
:1022A000D3E9002380468946504659461AF0DCFAA5
:1022B00002460B466EA1D1E900011AF021F964A390
:1022C000D3E900231AF0FAFB17F002F86AA3D3E966
:1022D000002382468B46304639461AF0C5FA68A379
:1022E000D3E9002306460F46404649461AF0BCFA99
:1022F00002460B46304639461AF002F952465B4612
:102300001AF0B2FA22462B461AF0FCF805E02046F5
:1023100029460022604B1AF0F3F800225E4B044677
:102320000D461AF027FD0028F1D100220023204697
:1023300029461AF00BFD68B1204629460022564B6B
:102340001AF0E0F80022002304460D461AF0FEFCC5
:102350000028F1D10399514B0022D1E90C011AF068
:10236000ADFB02460B462046294603E04A4B204679
:10237000294600221AF0C4F80022474B04460D46B5
:102380001AF0F8FC0028F1D100220023204629464B
:102390001AF0DCFC68B12046294600223E4B1AF0B8
:1023A000B1F80022002304460D461AF0CFFC0028A5
:1023B000F1D1204629460022374B1AF07FFB32A389
:1023C000D3E900231AF050FA1AF0FEFC72B6039B10
:1023D000186062B60DB0BDE8F08F0022304B204689
:1023E00029461AF08DF816F0BFFF1AF0EDFC0446EE
:1023F000DEE527A3D3E90023DDE904011AF080F824
:1024000016F0B2FF1AF0E0FC0646E7E5AFF30080F5
:1024100000000080A2423A41000000802CB44241FA
:10242000000000E05BD2B03F000000801CCA1A40F0
:10243000000000E0360BF03F000000605243FB3E1E
:1024400000000060C91CAB3F000000608F425F408D
:1024500000000020DCA54C40000000E0718AEF3F46
:102460000000002085877140000000A0F2D79A3E4E
:102470000000000076703740000000A0EEE734BF97
:1024800000000080732AF93E00000000C07A60411D
:1024900000000000006CB2400000384000002E40F8
:1024A00000002A4070B50568044628460E4613F021
:1024B000CBF9864203D03146284613F0DFF9204697
:1024C00070BD00BFFFFFFFFF032900D970472DE952
:1024D000F04301EB410505EBC50505F10A0487B0A2
:1024E00001700646204613F0AFF98DF80C0005F197
:1024F0000B0013F0A9F98DF80D0005F10C0013F095
:10250000A3F98DF80E0005F10D0013F09DF98DF87B
:102510000F0003981AF054F90022874B8046894631
:102520001AF014FC40B90022844B404649461AF088
:102530002BFC002800F0CA8006A9002341F8143DB6
:10254000002200232046C6E90223FEF74DFA78A3B5
:10255000D3E90023D6E902011AF0B0FA8046894691
:1025600016F0B6FEC6E90C014046494616F084FF57
:10257000C6E90E0105F10E0013F066F98DF80C00A6
:1025800005F10F0013F060F98DF80D0005F1100052
:1025900013F05AF98DF80E0005F1110013F054F9FB
:1025A0008DF80F0003981AF00BF90022644B804657
:1025B00089461AF0D5FB38B90022624B404649469D
:1025C0001AF0D8FB00287ED006A90023307841F805
:1025D000103D1B270E240022002307FB0040C6E904
:1025E0000423FEF701FA05F1120013F02DF98DF81E
:1025F0000C0005F1130013F027F98DF80D00BDF85C
:102600000C2002F1C8039BB242F208018B4260D851
:10261000328305F1140013F017F91AF023FD4A492B
:102620001AF02CFE49491AF06BFC4949F062044645
:102630001AF00EFF002835D105F1150406F11A082D
:10264000243506F11907204613F0FEF8013407F887
:10265000010F18B3A542F6D132783E4903A81BF00A
:1026600055FD03A81BF06CFF421C0F2A05463AD902
:102670002FA3D3E90023D6E902011AF01FFA04467A
:102680000D4616F025FEC6E90C012046294616F037
:10269000F3FEC6E90E0107B0BDE8F083B37E002B60
:1026A000DAD0E5E7204629491AF0F0FE0028C3D029
:1026B00032780023F3621B20142300FB02307821C0
:1026C00013F0DCF8B8E7C6E904898CE7C6E90289AB
:1026D00050E73278122300211B2000FB02303183A7
:1026E000FEF766F995E703A9404612F093FF96F8C6
:1026F000009009EB490909EBC90909F11509002402
:102700000EE013F0A1F818F8045085422946384627
:1027100001D013F0B3F840461BF012FF0134054618
:1027200009EB0407A5423846EBDAA1E7AFF30080D6
:1027300000000020DCA54C40008056C000805640C0
:10274000008076C0008076400000204100004041BB
:10275000000040C13839020038B5437805780BB124
:1027600045F0020583780BB145F00405084B1C7851
:102770007122C82313FB0424204613F065F8854218
:1027800005D029462046BDE8384013F077B838BD5B
:102790008C95FF1FFFFFFFFF0378013BDAB2032A8E
:1027A00010B504460CD8244850F82220914228BF86
:1027B00011460846032B38D8DFE803F0221304281B
:1027C0000020F7E719F0DAFF19A3D3E900231AF084
:1027D00075F91AF021FB81B2E068BDE8104011F0F4
:1027E00007BF19F0CBFF12A3D3E900231AF066F953
:1027F0001AF012FB81B2A068BDE8104012F022BBB3
:1028000001466068BDE8104010F006BF19F0B6FF41
:1028100007A3D3E900231AF051F91AF0FDFA81B2A7
:102820002069BDE8104011F0EDBF10BDAFF300808E
:10283000CD3B7F669EA0F63F2839020010B50446C6
:10284000084619F0ABFF0B4602464FF080410020CE
:1028500016F0DEFE1AF0B8FA2378013B032B1BD8E2
:10286000DFE803F00E08021481B2E068BDE8104012
:1028700012F042BB81B2A068BDE8104012F03CBB30
:1028800001466068BDE8104011F05CB881B2206973
:10289000BDE8104011F0FABF10BD00BF10B40368CE
:1028A00041681A780C78417A037A0C4202EA0302F2
:1028B0001AD0837A03F003030AB143F0040343F010
:1028C00008039A10013B82720D2B0BD8DFE803F04E
:1028D0001E0719070A141E1E140A0719071EC368CB
:1028E000013BC36010BC7047837A03F00303002AE6
:1028F000E7D043F00403E4E7C36810BC023BC360C5
:102900007047C36810BC0233C3607047C36810BC13
:102910000133C360704700BF38B5C369002B4BD08B
:102920001A7C012A11D972B6DA68044662B61046DA
:1029300019F034FFD4E900231AF0C0F8627A034694
:102940000AB101F10041184638BD72B693E814008F
:10295000117825785C7A1A7A254201EA02012ED094
:102960009A7A02F0030209B142F0040242F008022E
:102970009110013A99720D2AD6D801A151F822F08E
:10298000E7290000DF290000D7290000DF29000027
:1029900029290000CF290000E7290000E7290000CD
:1029A000CF29000029290000DF290000D7290000D5
:1029B000DF290000E72900001946184638BD9A7A39
:1029C00002F003020029D3D042F00402D0E7DA6813
:1029D000023ADA60A9E7DA680232DA60A5E7DA6873
:1029E000013ADA60A1E7DA680132DA609DE700BFF8
:1029F00008B513F067FD14F0A1F914F085FE4FF44B
:102A00007A7013F0DDFB024B024A1A6008BD00BF6A
:102A10000CED00E00400FA0510B572B6094CD4E9DB
:102A200006011AF0D1F92369C01A206262B672B6A3
:102A3000054CD4E906011AF0C7F92369C01A2062CF
:102A400062B610BDC894FF1F6893FF1F70B50E4D8E
:102A50000E4C0F4ED5E91801D4E91823C5E916012B
:102A6000C4E91623D6E90A01D5E9162319F0FCFEBC
:102A7000084EC5E90C01D4E91623D6E90A0119F07C
:102A8000F3FEC4E90C0170BDC894FF1F6893FF1FDB
:102A90000897FF1FE09AFF1F2DE9F843264B24A15A
:102AA000D1E90001D3E900231AF008F8234B0646C8
:102AB0000F46D3E900231EA1D1E9000119F0FEFF62
:102AC00004460D4672B61E491E4B0022D1E9000194
:102AD00019F0CAFE1C4BD3E904238046894619F03D
:102AE000C3FE02460B463046394619F0E7FF324630
:102AF0003B4619F0B9FE154A154BC2E90201D3E96C
:102B000004234046494619F0AFFE02460B462046D4
:102B1000294619F0D3FF2B46224619F0A5FE0D4B8E
:102B2000C3E9020162B6BDE8F88300BFAFF30080DD
:102B30000000000080842E414087FF1F4887FF1F50
:102B40003887FF1F000010400897FF1FC894FF1F21
:102B5000E09AFF1F6893FF1F0028F8B52FDB0428B9
:102B6000A8BF04201F4A1378984225D01E4C1F4D41
:102B700004EBC004D4E90067C3B213703046394691
:102B8000D5E902231AF0D8F8D8B1194C32463B46A1
:102B9000D4E902011AF0D0F800B1F8BDC4E9026727
:102BA00072B6216AD4E90223D1E9000119F05CFE72
:102BB000C4E9060162B6F8BD0029D7D1F8BD0020EE
:102BC000D0E7C5E9026772B6296AD5E90223D1E9DF
:102BD000000119F049FEC5E9060162B6D4E90067B3
:102BE000D3E700BFD887FF1F8887FF1F5094FF1FC0
:102BF0007894FF1F032A2DE9F84302D0394B1B7844
:102C000033BB394B394C3A4D1B7824782E78B3FAC4
:102C100083F35B09E4B21EBBA3421FD9D0E902894A
:102C20000E460446174600230022404649461AF045
:102C300083F8D0B1237CC3B172B6237C022B49D078
:102C4000237CFE2B04BFFF23237462B6BDE8F88308
:102C5000264A274B12781A78002A35D1BDE8F88326
:102C60002E78B242D8D0BDE8F883227C237CABB169
:102C7000B6EBD21F12D04046494600224FF08043A7
:102C80001AF082F850B1237C022B02D0237CFE2B59
:102C9000E4D12046BDE8F843FDF7FEBC022F1CD06E
:102CA000032F0CBF134B144B00211878FFF754FF70
:102CB0002F7066B902232374104A00214FF0FF33AE
:102CC00011702360BDE8F8831B78BDE8F883FE230C
:102CD0002374F1E701232374B2E700210846FFF7CC
:102CE0003BFFE5E7AA94FF1F6897FF1F6095FF1F52
:102CF0000694FF1FF89BFF1FD887FF1FEC87FF1F5D
:102D00002DE9F04F6A4B87B0D3E9082382468B4602
:102D100065A1D1E9000119F0D1FE664BCDE90001B2
:102D2000D3E9082360A1D1E9000119F0C7FE52469A
:102D3000CDE902015B46DDE9000119F0BFFE00228A
:102D40005D4B06460F461AF015F808B95A4F002693
:102D5000DFF8789152465B46DDE90201C9E9006778
:102D600019F0ACFE0022544B04460D461AF002F84E
:102D700008B9514D0024DFF8588132463B46DDE961
:102D80000001C8E9004519F099FE22462B46064687
:102D90000F46DDE9020119F091FE04460D46024698
:102DA0000B463046394619F0D1FF08B134463D464E
:102DB00022462B465046594619F0A2FB07460E46BE
:102DC000384631460022002319F0DEFF002866D085
:102DD0003846314600224FF0804319F0D5FF0028D5
:102DE00036D122462B46DDE9000119F067FE224666
:102DF0002B46C9E90001DDE9020119F05FFE2F4E03
:102E0000C8E90001D6E9062320462946C6E9084557
:102E100019F0A6FF90B100222046294B294619F04F
:102E200023FD284BC6E906011C7819F0F5FFC822DE
:102E30007D23C1B202FB043012F020FD224B0121A0
:102E40001878FFF789FE07B0BDE8F04FFFF724BE02
:102E50001C4B1E78294606EB8606204619F0B4FF67
:102E600006EB8606F60006F17E07014638465FFA55
:102E700081FA059112F0E8FC824503D051463846AC
:102E800012F0FCFC7F36304612F0DEFC9DF8157027
:102E90008742A6D03946304612F0F0FCA1E706F191
:102EA000004695E7AFF300800000000080842E41CB
:102EB0000897FF1FE09AFF1F000028408887FF1F28
:102EC0000000E03F8C95FF1FD887FF1F4087FF1F42
:102ED0004887FF1F10B50E4B1C7804EB840404EBED
:102EE0008404E40082B004F17E0012F0ADFC8DF8A1
:102EF000060004F17F0012F0A7FC8DF80700BDF872
:102F0000060019F04BFC02B0BDE81040FFF7F8BE18
:102F10008C95FF1F18B9034B30221A807047FDF7BC
:102F2000C7BB00BF389BFF1F564B1B783BB9564AA7
:102F300052783F2A00F09380544A137070472DE96D
:102F4000F04188B000233A22029301930393049343
:102F500005930693ADF81C30009214F019F901E0C6
:102F600014F04EF914F038F90028F9DC68461BF02B
:102F7000E7FA454D684429461BF0EEF86C460222FC
:102F80004349071B12F046FB6B78213B5D2B36D87B
:102F9000DFE803F02F35352F3535353535352F350D
:102FA0002F35356363636363636363633535353539
:102FB00035353B353535633535352F356335353565
:102FC0003B35632F2F352F35353B6335353535355B
:102FD000353535353535633535352F35633535354B
:102FE0006335633535632F353535353B3535353507
:102FF000353B791C684614F03BF814F0C9F8234BB4
:1030000000221A7008B0BDE8F0810026791C204625
:10301000DFF8788014F02CF8002514F0B9F81420AB
:10302000444613F0CDF82F4606E00135322D2070CE
:103030000FD004F8017F16BB14F0CEF8002808DD8D
:1030400014F0DEF8C0B22328EFD196B1312D2070F4
:103050000CD13023A8F80030D4E70126D6E70D4B79
:103060000A4A1B6813801B0C93707047002363701F
:10307000EFE708EB050308F805005E70C2E73128AA
:10308000C0D0E6E75493FF1F9095FF1F389BFF1FAA
:10309000483902004439020030B5054683B0D0E912
:1030A00000010FF085FB0B4B0B4C1B7800930122AA
:1030B000C5E900010023294620460EF09DFB20466D
:1030C0001BF03EFA05490222204403B0BDE830401F
:1030D00012F0A0BA5187FF1F389BFF1F483902002A
:1030E00010B50B4B0B4C1B7882B0014600930022AD
:1030F000012320460EF080FB20461BF021FA0649F2
:103100000222204402B0BDE8104012F083BA00BF92
:103110005187FF1F389BFF1F4839020010B5084B2D
:10312000084C1A78014620460EF00AFA20461BF099
:1031300007FA022220440449BDE8104012F06ABA9E
:103140005187FF1F389BFF1F48390200124B93F82D
:103150004820D2B110B411485C6D026883B041F2CE
:1031600087310092009A121B8A4210D893F83820B7
:103170006AB102680192586C019B1B1A8B428CBF8A
:103180000020012003B010BC7047002070470020D1
:1031900003B010BC704700BF3096FF1F209CFF1F7C
:1031A000114B1A78D2B110B410485C6B026883B02E
:1031B00041F287310092009A121B8A4210D893F88C
:1031C00078206AB102680192D86F019B1B1A8B426A
:1031D0008CBF0020012003B010BC70470020704756
:1031E000002003B010BC70473096FF1F209CFF1FCB
:1031F00010B5FFF7ABFF0446FFF7D2FF2040C0B287
:1032000010BD00BF154B93F898200AB300B5144ABF
:10321000D3F89C00126883B041F287310192019A81
:10322000121A8A4218D80022D3F8A00083F89920F5
:1032300019F01CFF0B491AF021F84FF080411AF0E9
:1032400007F94FF0010328B1D8B203B05DF804FBD1
:10325000002070470346F7E70020F6E73096FF1F8F
:10326000209CFF1F0000C8422DE9F04F2D4E2E4D2F
:10327000336829688DB041F288320193019B5B1A53
:10328000934204D8294B18780DB0BDE8F08F284C34
:1032900094E80F0004AF103487E80F0094E80F00A3
:1032A00008AC84E80F0038460FF0A6FE804638468A
:1032B0000FF0B2FE834638460FF0C2FE824620462B
:1032C0000FF0CAFE814620460FF0D2FE0746204688
:1032D0000FF0E4FE0CAB08F14E0803F8280D184679
:1032E0008DF80DB08DF80E808DF80CA08DF80A9039
:1032F0008DF8097010F020F8044612F091FD041BBF
:1033000033680293002CB8BF64420A49074A029B03
:103310000861042CCCBF0020012010702B600DB080
:10332000BDE8F08F209CFF1FB095FF1FB69BFF1FCD
:103330006896FF1FF895FF1F2DE9F047B1F1000ACD
:103340003EDD044600EBCA05804600260027F8E86B
:1033500002233046394619F0D5F8A84506460F46EF
:10336000F5D1504619F01AFA02460B463046394656
:1033700019F0A4FB002680468946002742464B46AA
:10338000F4E8020119F0BCF802460B4619F06CFA99
:1033900002460B463046394619F0B4F8A5420646B7
:1033A0000F46EBD10AF1FF3019F0F8F902460B464F
:1033B0003046394619F082FBBDE8F04716F0A0BA56
:1033C00000260027EEE700BF2DE9F04FA44BDFF801
:1033D000BCA21B68DAF8001099B041F28832089359
:1033E000089B5B1A934204D89E4B187819B0BDE82D
:1033F000F08F9D4B9D49D3F88020D1F800B000920A
:103400009E46BEE80F000DF1280CACE80F00BEE8A8
:103410000F00ACE80F00BEE80F00ACE80F009EE81C
:103420000300934E934D944C944F0AAB8CE80300E9
:103430001846D6E904890FF0C3FD02460B46404604
:10344000494619F05FF80FF04FF921F00043194693
:1034500081A3D3E9002319F007FA05EBCB0B0AABE4
:10346000CBE900011846814BD6E90289D3F800B0B8
:103470000FF08AFD02460B464046494619F040F8D7
:1034800021F00043194674A3D3E9002319F0ECF9A5
:1034900004EBCB0B754BCBE90001B6F91800D3F860
:1034A00000B019F07BF980460098894619F0DEFDDE
:1034B000734919F0E3FE19F083F902460B464046C2
:1034C000494619F01DF84FEACB0807EB080321F035
:1034D000004247F83B00032128465A60FFF72CFFC3
:1034E000CDE9000120460321FFF726FFCDE90201C7
:1034F00038460321FFF720FF4544D5E90056CDE9C2
:10350000040100225F4BDDE90001CDE9065619F008
:10351000ABF900224FF0804305460E4619F02AFC15
:10352000002800F0928033462A46DDE9060119F0B2
:103530000DFC4FF00106002800F085804444D4E9DA
:10354000004500224F4BDDE90201CDE9064519F0A7
:103550008BF900224FF0804304460D46F6B219F075
:1035600009FC00286BD022462B46DDE9060119F044
:10357000EDFB4FF0010400285FD0B844D8E9007893
:103580000022404BDDE90401CDE9067819F06CF921
:1035900000223D4B80468946E4B219F0EBFB00283F
:1035A00046D0DDE9000100224FF0804319F0CEFB48
:1035B0004FF00107002839D0DDE9020100224FF069
:1035C000804319F0C3FB4FF0010568B32E4BDDE9D2
:1035D0000401002219F0BAFB3D404FF0010308B38B
:1035E0002B401E404046DDE90623494619F0CCFB3E
:1035F00034404FF0010398B11A4A04EA03000BF17A
:1036000001031070032B194A08BF00231360144BE9
:103610001B680993099BCAF8003019B0BDE8F08F08
:103620000346E9E70346DBE70546CFE70746C3E77E
:103630004FF00008DFF85090B3E704469DE7002400
:103640004FF080458FE7064678E700254FF080462B
:1036500069E700BFAFF30080000000000020AC402D
:10366000209CFF1FAC95FF1F3096FF1F8895FF1F02
:10367000B89BFF1F889BFF1FD895FF1F1894FF1F43
:103680000000C8420000144000003440F893FF1FBF
:1036900010B51C4B5B782B2B02D02D2B00D010BD0E
:1036A000194C2068FF2811DDFF202D2B206013D03E
:1036B0002B2B1ED01E28DCBF1F20206001460620B9
:1036C00012F044FC114B00221A7010BD1E28DCBF02
:1036D0001F2020602D2BEBD119F0C8FC0C4919F0EC
:1036E000CDFD19F0F3FE2060FF28E3DDFF20206010
:1036F000E4E719F0BBFC064919F00CFD19F0E6FEF1
:103700002060F1E79095FF1FE887FF1F389BFF1FA0
:103710003333B33F0E4B5B78ABB90E4A127810B51A
:1037200002F0FF010C4C52B921700B481AF008FF4F
:10373000022220440949BDE8104011F06BBF7F22EE
:1037400063702270F1E7044B30221A80704700BF8B
:103750009095FF1F6095FF1F389BFF1F483902009F
:103760001F4B5B78303B232B35D8DFE803F0131376
:10377000131313343434343434343434343434346C
:103780003412343434283434343434223434343439
:10379000342E0123134A127852B9134A127802F0D8
:1037A000FF012AB9114ADBB213701078FFF7D4B9C0
:1037B00070470C4A12780223002AF9D1EDE7094A32
:1037C00012780023002AF3D1E7E7064A1278032390
:1037D000002AEDD1E1E7064B00221A70704700BFC6
:1037E0009095FF1F6095FF1F0694FF1FF89BFF1F1A
:1037F000389BFF1F2DE9F041164F1749C0EB00130E
:103800001F44024638461AF081FC38461AF098FEEA
:103810000E281CDC114A92F80080F121C8220346D0
:1038200012FB081800240DE012F00EF83E5D8642EF
:103830003146284601D012F021F838461AF080FEB1
:103840000134034608EB0405A3422846ECDABDE840
:10385000F08100BF789AFF1F4C3902008C95FF1F42
:103860002DE9F04F944D954E954CDFB000234FF06D
:1038700000080593049303930293019300931A465F
:103880001946814686F8008028460EF0B1F8237864
:1038900085F8218103EB830303EB83034FEAC30A1B
:1038A0000AF5947B584611F0CFFF012800F01681ED
:1038B000DFF824A29AF80080A8F10303012B40F25C
:1038C0008181804F804CD7F80C90D7F808B072A354
:1038D000D3E900235846494618F0C6FF0B460D466B
:1038E000217802465EAC064664E95423002940D0A4
:1038F000584649460022002319F046FA002800F0F5
:10390000EC81584649460022704B19F03DFA0028D8
:103910002FD0304629460022002319F035FA00281E
:1039200000F0E5816A4B6B49D3E90023D1E900013E
:10393000CDE90E23CDE910010EAB0FCB8DE80F00C2
:1039400001230DF1300E8DF83030B046A9469EE8C7
:103950000C002046C4E900890EF0AEFD00220023D1
:10396000D7E9020119F0F2F9002840F0B9819AF87C
:103970000080B8F1010F00F04A8149A3D3E9002388
:1039800049A7D7E900670025CDE902230495002265
:103990000023CDE9006742A811F0C6FCD4E900235A
:1039A00042A912A811F0D8FC12A811F07BFC8046A5
:1039B00012A8894611F07AFC0022CDE90201002309
:1039C000CDE900891EA811F05BFD39A3D3E90023DE
:1039D0000495CDE90223CDE900670022002350A819
:1039E00011F0A2FCD4E9002350A92AA811F0B4FCDC
:1039F0002AA811F057FC04462AA80D4611F056FCDF
:103A000000220023CDE90045CDE9020136A811F0DE
:103A100037FD42A811F030FD044642A80D4611F0D2
:103A200027FD80461EA8894611F0A4FD06461EA863
:103A30000F4611F09BFD22462B46CDE90089CDE9CA
:103A40000401CDE902671C480EF0ACF850A811F053
:103A500013FD044650A80D4611F00AFD804636A815
:103A6000894611F087FD064636A80F4611F07EFD07
:103A7000CDE90089CDE90401CDE9026722462B4654
:103A80000D480EF08FF80C480EF080F85FB0BDE8DE
:103A9000F08F00BFAFF30080000000A046DF913F31
:103AA00000000060FB21F93F00000060FB21E93FBE
:103AB000000000807CD91240F897FF1FC094FF1FC0
:103AC0008C95FF1FB89BFF1F4C93FF1F00002440E5
:103AD0003087FF1FE087FF1FC087FF1FB9F1000F6E
:103AE00040F0E280074650A90AF58270FCF7D6FC48
:103AF0002078DDF840914FF0C8084FF4847308FB3C
:103B0000003050A9FCF7CAFC509B207807934FF473
:103B1000867308FB003050A9FCF7C0FC2078509950
:103B200006914FF4887308FB003050A9FCF7B6FCEF
:103B30002078DDF840A14FF48A7308FB003050A9CB
:103B4000FCF7ACFC2078DDF840B14FF48C7308FB37
:103B5000003050A9FCF7A2FC2078509B09934FF449
:103B60008E7208FB002050A9FCF798FC2078509A30
:103B700008924FF4907108FB001050A9FCF78EFCDE
:103B800094F800E0509C4FF4927008FB0E0050A98E
:103B9000FCF784FC5098089A099B03920293079AB9
:103BA000069B0590494628460494CDF804B0CDF80C
:103BB00000A00DF01DFF28460DF052FF37705FB0DA
:103BC000BDE8F08F544B00240025D3E902012246C2
:103BD0002B4619F0D9F800286BD05048CDE90445A0
:103BE000CDE90245CDE9004522462B460DF0DAFF2E
:103BF00041A1D1E90001CDE90245CDE90401CDE9BA
:103C0000000122462B4645480DF0CCFF3BE73AA782
:103C1000D7E900670FF2E809D9E900890025049582
:103C2000CDE90267CDE9008942A80022002311F006
:103C30007BFBD4E9002342A912A811F08DFB12A846
:103C400011F030FB824612A88B4611F02FFB324652
:103C50003B4618F055FCCDE900ABCDE9020100224E
:103C600000231EA811F00CFC27A3D3E90023049520
:103C7000CDE90223CDE9008950A80022002311F0EC
:103C800053FBD4E9002350A92AA811F065FB2AA808
:103C900011F008FB04462AA80D4611F007FB324636
:103CA0003B4618F02DFCABE64146584611F0E6FDC8
:103CB000FEE517A7D7E900671848CDE90445CDE927
:103CC0000045CDE9026722462B460DF06BFF0AA1A5
:103CD000D1E90001CDE902678FE709F1004910E65B
:103CE00063689AF8008003F10043636041E605F1E0
:103CF000004517E6AFF3008000000060FB21F93FAC
:103D000000000060FB21E93F000000807CD91240E8
:103D100000000060FB210940B89BFF1FF897FF1FC0
:103D2000F8B5254B1B78033B012B28D9234B244E98
:103D3000244A254F3264D3E90245002333602046EC
:103D4000002329460022776419F000F81F4B002851
:103D500027D1596B1E4E1F4A1960204629461E6402
:103D60005A640023002219F00FF84FF0010300B944
:103D7000034683F00103184ADBB21370F8BD134BFE
:103D80000F4A5D6B0D491048144F154E0D4C1D60C8
:103D9000002550641F645E6415601464D1E902015B
:103DA000DFE75A6B0F490E4E1964524220462946EE
:103DB0001A605E64D5E700BFC087FF1FB89BFF1F76
:103DC0000897FF1F000034C300003443E09AFF1F30
:103DD0000000B4C200008743F495FF1F0000A0C19B
:103DE0000000B442000087C32DE9F8435D4F5E4EEA
:103DF0003C7804EB840404EB8404E40004F1D00870
:103E0000404611F021FD96F82C50013DEDB2032DF6
:103E100098BF564B00B200EB800000EB800098BFCB
:103E200053F825304FEA800088BF00239842F061A4
:103E300000F28580C72840F2828004F1D1094FF05A
:103E40000008484686F8208011F0FEFC032D98BF3C
:103E5000464B00B200EB800000EB800098BF53F8A7
:103E600025304FEA800088BF43469842706158D899
:103E7000C72856D94FF0000886F8188004F1DE09EB
:103E80003B4E484611F0E0FC96F82C50013DEDB257
:103E9000032D98BF354B00B200EB800000EB800093
:103EA00098BF53F825304FEA800088BF43469842B8
:103EB000F06124D8C72822D9DF340027204686F8AD
:103EC000207011F0C1FC032D98BF284B00B200EB0D
:103ED000800000EB800098BF53F825708000B84246
:103EE000706101D8C72806D84FF47A7320460A219A
:103EF000736111F0C3FC00233376BDE8F8834FF4FF
:103F00007A7348460A21F36111F0B8FC3C7896F8C0
:103F10002C5004EB840404EB8404013DE400EDB276
:103F2000CAE74FF47A7348460A21736111F0A6FC80
:103F30003C7804EB840404EB8404E4009AE74FF437
:103F40007A7340460A21F36111F098FC3C7896F8A8
:103F50002C5004EB840404EB8404013DE400EDB236
:103F60006BE700BF8C95FF1F7897FF1F2839020071
:103F7000B897FF1F2DE9F043DFF8B882AB4E98F8F1
:103F8000004004EB840404EB8404E40004F1D20751
:103F900083B0384611F058FC04F1D3058DF80400C5
:103FA000284611F051FC8DF80500BDF80430B3F53A
:103FB0007A7F80F02181736204F1E009484611F0B4
:103FC00043FC04F1E1078DF80400384611F03CFC95
:103FD0008DF80500BDF80430954DB3F57A7F80F07B
:103FE000F1806B6204F1D50011F02EFCA0F11003FA
:103FF000302B00F2D880B06204F1E30011F024FC11
:10400000A0F11003302B00F2BF80A86204F1C800B9
:1040100011F01AFC8DF8040004F1C90011F014FC31
:104020008DF8050004F1CA0011F00EFC8DF80600B1
:1040300004F1CB0011F008FC8DF80700019B336000
:10404000002704F1CC00377111F0FEFB8DF804005D
:1040500004F1CD0011F0F8FB04F1CE098DF8050054
:10406000BDF80430B3604846377311F0EDFB431ED2
:10407000DBB2072B6D4A74D85073002704F1CF00D0
:10408000B77311F0E1FBC31B18BF012304F1D40087
:10409000F373377411F0D8FBC31B18BF012304F16D
:1040A000D6007374B77411F0CFFB8DF8040004F1DF
:1040B000D70011F0C9FB8DF8050004F1D80011F00C
:1040C000C3FB8DF8060004F1D90011F0BDFB8DF89B
:1040D0000700019B2B6004F1DA002F7111F0B4FB93
:1040E0008DF8040004F1DB0011F0AEFB04F1DC06F6
:1040F0008DF80500BDF80430AB6030462F7311F029
:10410000A3FB431EDBB2072B494A17D85073002686
:1041100004F1DD00AE7311F097FB831B18BF012380
:1041200004F1E200EB732E7411F08EFB801B18BFBC
:1041300001206874AE7403B0BDE8F08304273046F4
:10414000577311F081FBB842E1D03946304611F087
:1041500095FB98F8004004EB840404EB8404E4002D
:10416000D5E704274846577311F06EFBB84284D058
:104170003946484611F082FB98F8004004EB84046D
:1041800004EB8404E40078E7102304F1E00019460E
:10419000AB6211F073FB98F8004004EB840404EB6D
:1041A0008404E40032E7102304F1D2001946B3621C
:1041B00011F064FB98F8004004EB840404EB8404E1
:1041C000E40019E7002448466C6211F03DFB18B189
:1041D0002146484611F052FB384611F035FB18B124
:1041E0003846002111F04AFB98F8004004EB8404A3
:1041F00004EB8404E400F5E600243846746211F010
:1042000023FB18B12146384611F038FB284611F03F
:104210001BFB18B12846002111F030FB98F8004034
:1042200004EB840404EB8404E400C5E67897FF1FE4
:10423000B897FF1F8C95FF1FF0B56A4C257805EBEA
:10424000850505EB8505ED0005F1D20683B0304606
:1042500011F0FAFA18B13046002111F00FFBD335F6
:10426000284611F0F1FA18B12846002111F006FB9A
:104270002078C826D52306FB0030102111F0FEFA65
:1042800002A92078584B41F8043D06FB0060FCF77A
:10429000ABFB257805EB850505EB8505ED0005F104
:1042A000CC07384611F0D0FAB04203D03146384638
:1042B00011F0E4FACD35284611F0C6FA18B12846B7
:1042C000002111F0DBFA2078C825CE2305FB003051
:1042D000042111F0D3FA2078CF2305FB0030002110
:1042E00011F0CCFA2078D12305FB00300A2111F01F
:1042F000C5FA2078D02305FB00300A2111F0BEFA60
:104300002078D42305FB0030002111F0B7FA25787E
:1043100005EB850505EB8505ED0005F1D206304678
:1043200011F092FA18B13046002111F0A7FAD335F6
:10433000284611F089FA18B12846002111F09EFA9A
:104340002078C826E32306FB0030102111F096FAEE
:1043500002A9254B207841F8083DD62306FB003002
:10436000FCF742FB257805EB850505EB8505ED009F
:1043700005F1DA07384611F067FAB04203D031464A
:10438000384611F07BFADB35284611F05DFA18B19A
:104390002846002111F072FA2078C825DC2305FB9D
:1043A0000030042111F06AFA2078DD2305FB00308B
:1043B000002111F063FA2078DF2305FB00300A2189
:1043C00011F05CFA2078DE2305FB00300A2111F0A1
:1043D00055FA2078E22305FB0030002111F04EFA57
:1043E00003B0F0BD8C95FF1F40771B00FFFFFFFF60
:1043F0002DE9F0475C4E5D4D347804EB840404EB0A
:104400008404E40082B004F1F00011F01DFA584B6E
:1044100004F1E6071870384611F016FA8DF804001A
:1044200004F1E70011F010FA8DF8050004F1E8003E
:1044300011F00AFA8DF8060004F1E90011F004FA0F
:104440008DF80700019818F011FE4A4918F062FE35
:1044500018F0B6F98046894600220023C5E9008994
:1044600018F07EFC002866D1404649463CA3D3E9BB
:10447000002318F089FC00285DD1002704F1EA0030
:104480002F7211F0E1F904F1EB0AC31B18BF0123ED
:1044900050466B72AF7211F0D7F98DF8040004F139
:1044A000EC0011F0D1F98DF8050004F1ED0011F0E8
:1044B000CBF98DF8060004F1EE0011F0C5F98DF886
:1044C000070001982C4D18F0D1FD2A4918F022FE62
:1044D00018F076F98046894600220023C5E9008954
:1044E00018F03EFC38B9404649461DA3D3E90023E5
:1044F00018F04AFC88B102A940F2DC5341F8043DAF
:104500005046FCF771FA34781C4B002204EB84040B
:10451000C5E9002304EB8404E40004F1EF00002467
:104520002C7211F091F9001B18BF01206872AC7257
:1045300002B0BDE8F08702A940F2DC5341F8083D23
:104540003846FCF751FA34780C4B04EB8404002213
:1045500004EB8404C5E90023E4008EE7AFF3008098
:10456000000000000020AC408C95FF1FA09AFF1FA8
:104570004094FF1F0AD7233CC09AFF1F00002E4023
:10458000F0B587B006AC64E90423DDE90E679DF859
:1045900030E0114B109DCDE904012246704604A97C
:1045A000CDE90067119C0EF049F90C49DDE90423BF
:1045B000D1E9040118F058F918F006FC0849286000
:1045C000DDE90223D1E9040118F04EF918F0FCFBF3
:1045D000206007B0F0BD00BFC09BFF1F0897FF1F02
:1045E000E09AFF1FFFFFFFFF2DE9F04FB1B0AC4E87
:1045F000AC4CDFF8D4C20993AB4D94F802E00892BA
:104600000023129307468A460F93D6E902011193BD
:10461000139300244FF0000B9BA3D3E90023CDE9B3
:1046200016BCCDE914458DF848E018F01DF90DF1E0
:10463000480804460D46B8E80F00DFF89092CDF820
:104640001890EE46AEE80F0098E8030022468EE888
:1046500003002B46394618A810F002FE18A810F0E7
:1046600089FF044618A80D4610F080FF88A3D3E9FF
:10467000002318F0F9F886A3D3E90023CDE90A0155
:104680002046294618F0F0F8CDE90C0187490EAD17
:104690000868049510AC059418F080F8099B1B7805
:1046A0000093CDE90201DDE90A23DDE90C01FFF702
:1046B00067FFD6E9020174A3D3E9002318F0D4F808
:1046C0000DF1480E06460F46BEE80F00EE46CDF847
:1046D0001890AEE80F0098E8030032468EE8030019
:1046E0003B46514624A810F0BBFD24A810F042FF21
:1046F000064624A80F4610F039FF65A3D3E900232E
:1047000018F0B2F862A3D3E9002380468946304608
:10471000394618F0A9F8654A06460DF13C0B1068B9
:10472000CDF810B00DF1440A0F46CDF814A018F0E2
:1047300035F8099B1B78009342464B46CDE90201B0
:1047400030463946FFF71CFF594628460EF0D6F88A
:1047500018F024F8554BD3E9042318F0AFF905E01D
:10476000304639460022524B17F0CCFE0022514B06
:1047700006460F4618F0EAFA0028F1D100224E4B07
:104780003046394618F0F6FA68B13046394600220C
:10479000474B17F0B5FE0022474B06460F4618F070
:1047A000E9FA0028F1D1514620460EF0ABF817F097
:1047B000F5FF424BD3E9042318F080F905E02046C9
:1047C000294600223A4B17F09DFE0022394B044641
:1047D0000D4618F0BBFA0028F1D10022364B2046D6
:1047E000294618F0C7FA68B1204629460022304B06
:1047F00017F086FE0022304B04460D4618F0BAFA38
:104800000028F1D108992E4BD1E90001002218F0BF
:104810002BF802460B4620A1D1E9000118F04EF911
:10482000002280468946274B3046394618F01CF84E
:1048300002460B464046494618F016F83B9BC3E932
:10484000000108991E4BD1E90001002218F00CF874
:1048500002460B4610A1D1E9000118F02FF9002201
:1048600006460F46174B2046294617F0FDFF024625
:104870000B463046394617F0F7FF3C9BC3E9000171
:1048800031B0BDE8F08F00BF000000A046DF913FCF
:1048900000000020DCA54C40000000000020AC40DF
:1048A000B89BFF1F4C93FF1F000024400897FF1F79
:1048B00000807640008066C000806640E09AFF1F5E
:1048C00000002E400000E03F004059404098FF1F8C
:1048D0002DE9F04F89B008AC00258146884644F8A0
:1048E000045D10F047FE064648460F4610F03EFEB7
:1048F0001BA3D3E9002317F0B7FF19A3D3E90023C3
:1049000082468B463046394617F0AEFF164B05946B
:104910000646186806AB0F46049317F03FFFCDF824
:104920000080CDE9020152465B4630463946FFF72A
:1049300027FE72B60D4F0E4C0698079E3861266111
:1049400017F02CFFC7E90601304617F027FFC4E92E
:10495000060162B6074B01201D7009B0BDE8F08F5B
:1049600000000020DCA54C400897FF1FC894FF1FE3
:104970006893FF1FEC87FF1F2DE9F047144D154C7E
:104980006D78154E9AB086468DF82050D4E90045D2
:10499000CDE90A45069608AD8A46904699460F4CE1
:1049A0000FCDD4E900676C46CDE90C670FC495E8DC
:1049B0000300424684E803004B4671460EA810F0FF
:1049C0004FFC51460EA8FFF783FF1AB0BDE8F087F1
:1049D0004C93FF1F3087FF1F4098FF1FE087FF1F8A
:1049E00010B58CB00C46054A0146684610F004FD2F
:1049F00021466846FFF76CFF0CB010BD4098FF1FC2
:104A000030B5044685B072B6174A184B10691D6957
:104A100062B617F0C3FE164BD3E9042318F04EF824
:104A20000FA3D3E9002317F01FFFCDE902012846A9
:104A300017F0B4FE0F4BD3E9042318F03FF808A396
:104A4000D3E9002317F010FF0022CDE90001002375
:104A5000204610F015FD204605B030BDAFF30080B4
:104A6000000000A046DF913FC894FF1F6893FF1F1E
:104A70000897FF1FE09AFF1F2DE9F04FB5B072B6FF
:104A8000DFF8ACB1DBF8104062B65B4F7B6B5A428B
:104A9000944245DB9C42CCBF02240124574B1A7838
:104AA00012B1002114461970DFF888A19AF801307C
:104AB000413B142B31D8DFE803F00B30303030307D
:104AC000303030303030C13030303030C1303500EF
:104AD0004B4B0125D3E9000145A3D3E900230495FD
:104AE00017F0C2FECDE90201464D41A3D3E90023F0
:104AF000D5E9000117F0B8FE0022CDE9000100233E
:104B000026A810F011FC214626A8FFF769FF3E4AAF
:104B10003E4B92E803001860197135B0BDE8F08F84
:104B20000224BBE7DFF81091394F99F80000394DA6
:104B300072234FF0C80826AE08FB00303146FBF761
:104B4000ADFC269817F03CFE99F80030C7E900014B
:104B5000762008FB03003146FBF7A0FC269817F0EF
:104B60002FFEC5E9000172B62B4B186862B62B4BBD
:104B7000984205DDA0F50300A0F556409842F9DC07
:104B800018F074FA264918F079FB264918F0C2FA91
:104B900017F016FE0022244B17F066FED7E900231B
:104BA00017F0AEFC0DF0A0FD11A3D3E9002317F020
:104BB0005BFECDE902010EA3D3E90023D5E9000194
:104BC00017F052FE0022CDE900010023304610F01C
:104BD000D9FA164906A3D3E90023D1E9020117F057
:104BE00043FE02460B4630462146FFF7C5FE8EE7E0
:104BF000000000A046DF913FE09AFF1F6195FF1F74
:104C00005897FF1F789BFF1F58390200389BFF1FE2
:104C10004894FF1F6097FF1FF895FF1F00D6830081
:104C200000D6034B0000C04100002E40B89BFF1F80
:104C30006893FF1F9095FF1F8C95FF1FDFF84C8234
:104C400098F80030002B00F0B08072B6824B1868E4
:104C500062B6824B984205DDA0F50300A0F55640F0
:104C60009842F9DC18F002FA7D497E4CDFF8109288
:104C700018F004FB7C4918F04DFA17F0A1FD002252
:104C80007A4B17F0F1FD7A4BD3E9002317F038FC8B
:104C90000DF02AFD6EA3D3E9002317F0E5FDCDE961
:104CA00002016BA3D3E90023D4E9000117F0DCFD76
:104CB0000022CDE9000100230EA810F063FA6D492F
:104CC00063A3D3E90023D1E9020117F0CDFD6A4BBC
:104CD000DFF8BCE1D3E90023CDE906016749CDE95E
:104CE0000A234B788DF8203008AE0FCEDEE9004560
:104CF000EE46CDE90C45AEE80F0096E8030026AE7F
:104D0000DDE906238EE803000EA9304610F050FAC4
:104D100099F8203163B972B6DBF8103062B6796B5E
:104D20004A42934280F28F8002213046FFF758FEBC
:104D30001AA8FFF765FE304610F09EFB0446304689
:104D40000D4610F095FB02460B461AA8CDE9062346
:104D500010F010FC06461AA80F4610F007FCDDE91B
:104D60000623CDE90401CDE90023CDE902672B46F6
:104D7000224643480CF016FF99F82131002B5AD0F7
:104D800072B6404C206917F009FDC4E90601DBF852
:104D9000100017F003FDCBE9060162B63A4B002183
:104DA000012288F800101A7045E072B62A4B186884
:104DB00062B62A4B984205DDA0F50300A0F55640E7
:104DC0009842F9DC18F052F92549264D18F056FAA8
:104DD000254918F09FF917F0F3FC0022234B17F038
:104DE00043FD234BD3E9002317F08AFB0DF07CFC35
:104DF00017A3D3E9002317F037FDCDE9020114A36F
:104E0000D3E90023D5E9000117F02EFD0022CDE9FA
:104E10000001002326A810F0B5F916490CA3D3E928
:104E20000023D1E9020117F01FFD02460B4626A818
:104E30002146FFF7A1FD9AF801304D2B3FF467AEF4
:104E400035B0BDE8F08F8B42CCBF022101216CE769
:104E5000000000A046DF913FF895FF1F00D68300B9
:104E600000D6034B6097FF1F0000C04100002E409A
:104E70004894FF1FB89BFF1F3087FF1F4C93FF1FF5
:104E8000F897FF1FC894FF1FC094FF1FB594FF1F22
:104E9000E087FF1F0A4B1B7803B17047094B1B7853
:104EA000002BFAD1084B5B78413BDBB2142BF4D8D2
:104EB000064A22FA03F3DB07EFD5FFF7DDBD00BF9B
:104EC0006897FF1F6095FF1F9095FF1F011014004A
:104ED0002DE9F0419AB080460EA816461F46FFF70E
:104EE0008FFD104A104B52788DF82020D3E9002313
:104EF000CDE90A2308AD0FCDCDE906670B4CD4E907
:104F000000676C46CDE90C670FC495E80300084ABA
:104F100084E8030040460EA910F00CFB40461AB08E
:104F2000BDE8F0814C93FF1F3087FF1FE087FF1F14
:104F3000F897FF1F70B50E4D98B006460CA8FFF706
:104F40005FFD0FCD06AC0FC495E8030006AD84E805
:104F500003000FCD6C460FC495E80300054A84E8B2
:104F6000030030460CA910F09FFA304618B070BD0F
:104F700010390200F897FF1F2DE9F0437C4CA3780D
:104F8000413BB1B0312B00F2B682DFE813F04000B4
:104F9000B402B4028A00A700B402B402B402F7005B
:104FA000AF01B402C801E601B40219025502B4020D
:104FB0006002B402AA02B402B402B402B402B4029F
:104FC000B402B402B402B402B402B402B402B40231
:104FD000B402B402B402B402B402B402B402B40221
:104FE000B402B402B402B402B402B402B402B40211
:104FF0003200E378702B01F01F81742B00F04483A2
:10500000672B01F065815B4B23221A8076E25A4AB6
:1050100012780023089309930A930B930C930E9331
:10502000109316932293002A41F01381E378303BCA
:10503000332B01F28080DFE813F00E070307F80638
:10504000ED06240719072F07FE05E2067E087E08F5
:105050007E087E087E087E087E087E087E087E0820
:105060007E087E087E087E087E087E087E087E0810
:105070007E087E087E087E087E087E087E087E0800
:105080007E087E087E087E087E087E087E087E08F0
:105090007E087E087E087E087E087E087E087E08E0
:1050A000D506E378423B152B00F22E85DFE813F09E
:1050B000E0032C052C052C052C052C052C052C05B6
:1050C0002C052C052C052C052C052C05EB032C059B
:1050D000CE032C052C052C052C05B903E278A2F192
:1050E0003103412B00F2B187DFE813F07704770436
:1050F000AF07AF07AF07AF07AF07AF07AF07AF0700
:10510000AF07AF07AF07AF07AF07AF075204AF074F
:10511000AF07D004AF07AF07AF07AF07AF07AF07C1
:10512000AF07AF07AF07AF074B043604AF07D00494
:10513000AF07AF07AF07AF07AF07AF07AF0752041F
:10514000AF07AF07AF07AF07AF07AF07AF07AF07AF
:10515000AF07AF07AF07AF07AF07AF07AF07AF079F
:10516000AF07AF07AF07AF07AF07AF07AF072B0416
:105170009095FF1F389BFF1FC094FF1F72B6984D7C
:10518000286962B6974B5B6B5A42904280F2B981B4
:105190000220954B202103F1320203F8011F9A42AD
:1051A000FBD1924C924A9349934B12782778934EB5
:1051B000934C09781B783F5D3678924C183201EB9E
:1051C0004202303322706370A7700EB14823E3703F
:1051D0008D4B8E4A1B7812788A4930332371002A0E
:1051E00001F0218040234B71894B1A78884B012AAA
:1051F00001F015801A78022A01F011801A78032A2A
:1052000001F08B801B78042B04BF2D23A371814BED
:105210001A7C022A01F039801A7CFE2A01F067808C
:105220001A7CFF2A01F050801B7C012B01F04C807E
:10523000794B02281A7C01F03080022A01F0298083
:105240001A7CFE2A01F02F801A7CFF2A01F0388098
:105250001B7C012B01F03480704B5B780BB96B78B1
:105260000BB1662363726E4B664D1B78DA1E3021DC
:10527000012AA17241F21B806A4A12784AB16A4936
:105280008978002901F03C803321A972022A01F0BB
:105290004E80664A5B491278002A0CBF30223122C8
:1052A000012BE27200F0ED87022B01F01C80042B31
:1052B00001F02F80032B0CBF412355230B730128D2
:1052C00000F0DB8757236373594B1B78002B40F0AA
:1052D0008E874123574AA37313784120303323210B
:1052E0000022E37320746174A27407E1E378433B06
:1052F000112B00F20381DFE813F01D03010101010E
:105300000101010101010101010101010101060386
:1053100001010101150301010101F402EA02E37830
:10532000413B162B00F2FD86DFE813F046043804FB
:10533000D105A9049604FB06FB068F04FB06FB06B9
:10534000FB06FB06FB06FB06C905FB06FB06FB0688
:10535000C105FB066704FB065404E378423B2B2B94
:1053600000F2EE86DFE813F026060306EC06EC06F4
:10537000EC06F405EC061206EC06EC06E005D10599
:10538000EC06EC06EC06EC06C2056206EC06EC0642
:10539000EC06EC06EC06EC06EC06EC06EC06EC067D
:1053A000EC06EC06EC06EC0644065306EC06EC06AE
:1053B000EC06EC06EC06EC06EC06EC06EC06350614
:1053C000E378413B082B00F29980DFE813F0750287
:1053D00069026F02970097009700970097004A02B2
:1053E0006893FF1FE09AFF1F379BFF1F6897FF1FFF
:1053F0006095FF1F2099FF1F809BFF1FEC87FF1FF9
:10540000AC390200389BFF1FF89BFF1F6A97FF1FF4
:105410000694FF1F5094FF1F7894FF1FC894FF1F2E
:10542000C087FF1FAC94FF1F4C93FF1FC094FF1F4A
:10543000C187FF1FAA94FF1FE378313B032B00F2C3
:105440004D87DFE813F00001DF0063006300E378BD
:10545000303B422B00F26A86DFE813F08A038A03AE
:105460008A038A036806680668066806680668068E
:1054700068066806680668066806680668067603B1
:105480005A036806440468066806680668066806E3
:10549000680668066806680668066806680668069C
:1054A00068066806680668066806680636046806C0
:1054B000680668066806680668066806680668067C
:1054C0006806680626041F04640468065304680618
:1054D000680668066806680668066806680668065C
:1054E0006C04E378303B032B08D8DFE813F0D900D5
:1054F000710138011101A44B23221A8031B0BDE89B
:10550000F0839842CCBF0220012042E69F4D98A331
:10551000D3E90023D5E9020117F0A6F902460B46AC
:1055200022A8FFF7D5FCD5E9020191A3D3E9002316
:1055300017F09AF9964A974B52788DF84020D3E9A4
:105540000023CDE912238946934906910DF1400EBF
:105550008046924DBEE80F00D5E900676D46CDE963
:1055600014670FC59EE8030042464B4685E80300DA
:1055700022A916A80FF074FE16A80FF0FBFF7EA359
:10558000D3E9002317F070F9CDE90C0116A80FF04C
:10559000EDFF79A3D3E9002317F066F9CDE90E01F9
:1055A00072B67F4B1B6962B67E4A556B6A42934264
:1055B000C0F2B786AB42CCBF022501257A4B1868F2
:1055C00017F0ECF80EAACDE90001784B0CA928469B
:1055D0000DF034F9E3786C4C6B48332B744B1B782B
:1055E00000934FF001030CBF0CA90EA91A460CF052
:1055F00003F9204618F0A4FF022220446D4910F060
:1056000009F87BE772B6664B186917F0C7F8654B67
:10561000D3E9042317F052FA30AA62E9220162B6F4
:10562000634B594C1B7800930123114620461A46C0
:105630000CF0E2F8204618F083FF022220445D4976
:105640000FF0E8FF5AE772B65B4B186917F0A6F83F
:10565000554BD3E9042317F031FA30AA62E922014D
:1056600062B6534B484C1B780093012311462046E9
:105670001A460CF0C1F8204618F062FF02222044BE
:105680004C490FF0C7FF39E7414B9B78002B00F0E6
:10569000D8854A4B3C4A1B6813801B0C93702DE73E
:1056A00010F0BEFB464C384D20610DF0EFFD074673
:1056B00020690DF0F9FD17F0D9FC424917F0DEFD25
:1056C0000646384617F0D2FC0146304617F01AFC61
:1056D000064620690DF0F6FD17F0C8FC3A4917F0B0
:1056E000CDFD314617F00EFC17F06AF80B46024666
:1056F0002146E1E90623284601220BF021FF284636
:1057000018F01EFF022228442A490FF083FFF5E615
:105710001E4B1D4CD3E9020115A3D3E9002317F05A
:10572000A3F802460B4622A8FFF7D2FB22A80FF0EF
:10573000BDFD13A3D3E9002317F096F830AB63E95E
:105740001A010122194620460BF0FAFE204618F0F5
:10575000F7FE0222204417490FF05CFFCEE610F05E
:105760005FFB1A490246084818F0D0FCC6E600BFA5
:10577000000000A046DF913F00000020DCA54C4067
:10578000000000A0C88E0E40389BFF1FB89BFF1F73
:105790004C93FF1F3087FF1F4098FF1FE087FF1FBC
:1057A0006893FF1FE09AFF1F0897FF1FC09BFF1F12
:1057B0005187FF1F48390200C894FF1F6439020057
:1057C000F895FF1F0000704200006145703902002B
:1057D00010F026FB924C20610DF09EFD06462069DC
:1057E0000DF08CFD074620690DF07AFD804620699A
:1057F0000DF04CFD20690DF057FD2069894CF5171F
:1058000084FB0634C5EB6415642404FB15640DF0B9
:1058100059FD8549009443463A46844818F076FC81
:105820006CE62479002C40F09380814D814AEE682B
:1058300081497E48642303FB06F382FB0362DB1786
:10584000C3EB223218F062FCEC6057E62379313B5F
:10585000032B00F29585DFE813F00F040604FD0327
:105860001804764B76491A78704818F04FFC45E6D4
:105870002379303B032B00F28885DFE813F04904DD
:105880001F0417040F042379303B052B00F28F858A
:10589000DFE813F0A30499048B047D046C045B041B
:1058A000684A6949614818F031FC27E6674A664949
:1058B0005E4818F02BFC21E6604B624A1B78624977
:1058C0005A48C3EB03131A4418F020FC16E6604B49
:1058D0001B788BB15F4B554A1B6813801B0C937070
:1058E0000CE65D4B1A78032AF4D01B78042BF1D018
:1058F0005A4B1B78002BEDD1594B4C4A1B68138037
:105900001B0C9370FAE52379312B00F02585322B9F
:105910001ED1514B1B78042BEED1524B1B7C002B1C
:10592000EAD0D7E74C4B1A78012AD3D01B78022B48
:10593000E2D1CFE7474B3D4A1B6813801B0C9370A5
:10594000DCE52379442B00F0A685522B00F0278557
:10595000364B23221A80D1E52379442B00F08B8526
:10596000522BF5D14049414B0022D1E9000116F0FC
:105970007BFF17F051FA3E4902462C4818F0C6FB4F
:10598000BCE53C4B3C491A78284818F0BFFBB5E50C
:1059900022A8FFF7CFFA22A80FF06EFD1EA3D3E9CD
:1059A000002316F061FF0022344B16F0A9FD0CF025
:1059B000CFFECDE90C0122A80FF05AFD16A3D3E9C2
:1059C000002316F051FFE378412BCDE90E0100F0E2
:1059D000E1840CA8FDF760FB90E5312A0CBF22485A
:1059E0002748124CFCF798FF02460B4630A961E9A4
:1059F0002223244B1B78009301231A4620460BF0E8
:105A0000FBFE204618F09CFD022220441E490FF0A8
:105A100001FE73E5AFF3008000000020DCA54C40E0
:105A2000F895FF1F1F85EB519C390200389BFF1F23
:105A30003094FF1F8D512C69843902008C95FF1F13
:105A400078390200789AFF1FB4390200879AFF1F45
:105A50002099FF1F403902000694FF1F6095FF1F29
:105A6000443902007894FF1FA09AFF1F000059409C
:105A7000703902004094FF1F6C39020000806640BC
:105A8000C09AFF1F5187FF1F48390200BC4BD3E962
:105A90000201B3A3D3E9002316F0E6FE02460B464B
:105AA00022A8FFF715FAE378522B40F0458472B62E
:105AB000B44B186862B6B44B984205DDA0F50300FC
:105AC000A0F556409842F9DC17F0D0FAAF4917F02C
:105AD000D5FBAF4917F01EFB16F072FEA2A3D3E967
