:1000000000800020BD010000995400005154000000
:10001000515400005154000051540000515400004C
:1000200051540000515400005154000099540000F4
:10003000995400005154000075720000797200005C
:1000400099540000995400009954000099540000FC
:1000500099540000995400009954000099540000EC
:1000600099540000995400009954000099540000DC
:1000700099540000995400009954000099540000CC
:1000800099540000995400009954000099540000BC
:1000900099540000995400009954000099540000AC
:1000A000995400009954000099540000995400009C
:1000B000995400009954000099540000995400008C
:1000C000995400009954000099540000995400007C
:1000D000995400009954000099540000995400006C
:1000E000995400009954000099540000995400005C
:1000F00099540000995F000099540000316200009B
:10010000995400009954000099540000995400003B
:10011000995400009954000099540000995400002B
:10012000995400009954000099540000995400001B
:100130009954000099540000515100009954000056
:1001400099540000995400009954000099540000FB
:1001500075740000897400009D740000B174000083
:10016000995400002965000099540000995400003A
:1001700099540000995400009954000099540000CB
:1001800099540000995400009954000099540000BB
:1001900099540000995400009954000099540000AB
:1001A000995400009954000099540000995400009B
:1001B000995400009954000099540000564B4CF299
:1001C000205210B51A804DF628121A8000BF00BFC9
:1001D00005F066F9514B4FF010621A60504A9A6070
:1001E000504ADA60504A136813F4807304D14F49BF
:1001F0000B604FF4A85313604D4B1A78110703D5C9
:100200001A7842F008021A704A4B4B492A221A7097
:100210004A4A4B4B8B4204D252F8040F43F8040B6A
:10022000F8E7484B484900228B4202D243F8042B9E
:10023000FAE74649464A002352F8230041F82300D2
:1002400001336F2BF8D1434B434A802103F8011B44
:100250009342FBD1414B3D4A1A60414B8A221A70AE
:10026000A3F5805324225A70A0221A709A7992071B
:10027000FCD59A79D406FCD43A4A937903F00C035E
:10028000082B384BF9D105221A7143225A719A79F9
:100290009006FCD5334A9179324B4906FBD5324A58
:1002A0004FF0817111600521516020221A709A79F6
:1002B00002F00C020C2AFAD12C4B2D4A1A602D4B5D
:1002C0002D4A1A6000225A60072243F8042C2B4A58
:1002D000C3F80C2D62B605F02FFA144B1B68DA0731
:1002E00005D5274805F078F9264B274A1A60274B91
:1002F0001B785B0609D5234C234B22689A4204D114
:100300001F4805F069F90023236005F0CFF809F0D4
:1003100053FE07F035F9FEE70E200540308004401B
:10032000823F04000100002B10D0034014D0034092
:1003300002D0074000E007402092FF1F04E90000C0
:100340002087FF1F2092FF1FC897FF1F0082FF1FFB
:100350000000000000E400E05FE400E008ED00E0E1
:1003600000500640004006404480044004800440A1
:10037000C010050014E000E03F190100000020203B
:10038000AE6EFD621CE00340A5C3945A00F0074026
:10039000FFFFFFFFFFFFFFFFFFFFFFFFFFFFFFFF6D
:1003A000FFFFFFFFFFFFFFFFFFFFFFFFFFFFFFFF5D
:1003B000FFFFFFFFFFFFFFFFFFFFFFFFFFFFFFFF4D
:1003C000FFFFFFFFFFFFFFFFFFFFFFFFFFFFFFFF3D
:1003D000FFFFFFFFFFFFFFFFFFFFFFFFFFFFFFFF2D
:1003E000FFFFFFFFFFFFFFFFFFFFFFFFFFFFFFFF1D
:1003F000FFFFFFFFFFFFFFFFFFFFFFFFFFFFFFFF0D
:10040000FFFFFFFFFFFFFFFFFFFFFFFFDEF9FFFF23
:1004100010B5054C237833B9044B13B10448AFF33E
:1004200000800123237010BD2092FF1F00000000F8
:1004300000E90000084B10B51BB108490848AFF3AC
:1004400000800848036803B910BD074B002BFBD0A0
:10045000BDE81040184700BF000000002492FF1FB5
:1004600000E900002092FF1F0000000000690B69F6
:100470009842D4BF00200120704700BF80698B697B
:100480000028B8BF4042002BB8BF5B429842D4BF9F
:1004900000200120704700BFF0B586460120DEF83D
:1004A0005870DEF83030BA6A106079683A680A44E9
:1004B0007A600EF1300493B15A69002A08DB9A6A17
:1004C00010605E6819683D695A6931445960521B71
:1004D00019690A445A6154F8043F002BECD1DEF844
:1004E0002430144ADEF81840DEF86C000021116058
:1004F000DB00516803F1804303F5603321440D2490
:1005000019611460DA68502122F08002DA60D96043
:1005100000B1F0BD7A68FB689A4200D0F0BDDEF809
:100520005C3001228EF82820002BF7D0BDE8F04087
:10053000184700BF00800340C36A00F12C0233B1AA
:100540000120D96A52F8043F0860002BF9D17047A6
:1005500010B5044606F06CFF204610BD30B5144BB4
:100560001C7883B00CB103B030BD21461148124D48
:1005700003F008F821460F4803F03CF829460446EA
:100580000195009009F0A8FA30B10C49204609F015
:10059000B7FA10B9094C00E02C46094B094A1B6810
:1005A00001930199084B11601C6003B030BD00BF7E
:1005B0005C92FF1F1494FF1FF3FFC742F3FFC7C2F3
:1005C0003495FF1F3C92FF1F2487FF1FD0B5174BA8
:1005D000174C1B681B794FF47A7101FB03F120461D
:1005E00004F070FC134B1B68586808F00BFC124BAE
:1005F0001B68064618790F4608F004FC02460B46B5
:1006000000204FF0804107F05DF902460B4630466E
:10061000394608F06DFC08F01BFF0146204604F047
:100620005DFC064B01221A70D0BD00BF1893FF1F5E
:100630005094FF1F4494FF1FEC94FF1F2C93FF1F47
:10064000036A8B4210B523D0C369994200D010BD14
:100650008369002BFBD072B6194AC36984690021F3
:100660001160DB00516803F1804303F560332144DE
:100670000D2419611460DA68502122F08002DA60DA
:10068000D96062B600690368BDE810405B6818472E
:100690000446006903689B68984794F82430002B4F
:1006A000D5D004F1080006F0C3FE0023E0696360C2
:1006B00004F038FD206ABDE8104004F033BD00BFEF
:1006C000008003408268002A3AD0816D836F2DE953
:1006D000F0414D68D0F8AC105D1B002DB8BF6D42E5
:1006E0008D42044638DBD0F8B0309D4208DBC36F42
:1006F0009D4257DB936823F002039360BDE8F081CD
:10070000D0F888100029F5D0936813F0020318D0B0
:1007100013683648834256D95068354DB5FBF1F120
:100720001B1A994257D260690368002601250324E9
:1007300096601B68D56011609460BDE8F041184771
:100740007047012403209360D460294BB3FBF1F17F
:1007500011609060BDE8F081D0F8A80008F0C6FFF5
:100760000746D4E9240108F0DBFF0646284608F0D6
:10077000C1FF0146384609F011F8314608F006FF7E
:1007800007F018FA09F0E6F9A26801460028BBD183
:10079000002AAFD1174B1B68DBB10221012098471B
:1007A000A268A7E7D0F8A8005D1B08F09FFF0746E6
:1007B000D4E9260108F0B4FF013D0646284608F0BA
:1007C00099FF3946D7E70A4BB3FBF1F11160BDE859
:1007D000F08102468EE7CB1A0025012403209560A4
:1007E000D460136090601160BDE8F0817F32020038
:1007F00000512502FC94FF1F2DE9F041856FC76F62
:10080000866D044629463846736809F05BF900286E
:100810003CD0284609F09EF9054694F890300BB17B
:10082000002D79D0B368AB422ED0002D3368B4BF11
:100830004FF0FF3201229A4217D004F12801012023
:1008400008E013685B42012B13600BBF126B536B04
:100850001360186051F8042F002AF2D1636F03EB84
:100860004303DB0001D0013BFDD185EAE572A2EB39
:10087000E572A3680ABB002B68D09A6822F00202D6
:100880009A60B560BDE8F081BDE8F081D4F88C8055
:100890003846414608F07AFE00210746404609F0F6
:1008A00039F9394628B3284609F034F930BB2846CF
:1008B000E06709F04FF90546AFE7996811F00201CA
:1008C0001ED019682B4881423BD958682A4FB7FB84
:1008D000F2F2091A8A4243D26069002601689E60DA
:1008E00001270326DF6009681A609E608847A66DAD
:1008F000C7E7284609F0F0F80028D8D03846D7E7EF
:10090000012403209960DC601B49B1FBF2F21A60FC
:100910009860B560BDE8F08104F10C0006F088FD38
:10092000206AA56004F0FEFB606A04F0FBFBA26D88
:10093000E36D956084F89050002BA5D0BDE8F041A0
:1009400018470D49B1FBF2F21A609AE70B4B1B688E
:10095000002B92D0022101209847A368A66D8CE756
:10096000511A0027012403209F60DC601960986001
:100970001A6086E77F32020000512502FC94FF1FB7
:1009800070B50025044680F82950012620680368C8
:100990001B69984700281FDD206803685B6998473A
:1009A00094F82A30C0B24BB93A28EFD1E36A84F800
:1009B0002A60E21801339071E362E7E7E36AE21824
:1009C000232803F1010390710AD01E2BE362DDD1CD
:1009D00084F82A50E562D9E794F8290038B970BD47
:1009E0000023012284F8292084F82A30E362A01D24
:1009F0000AF0E6F8012804D9E28844F23A639A4200
:100A000003D0002084F8290070BD237A23710328C5
:100A10000CD9637A63712C2B0DD0002384F8283015
:100A200000230120A37184F8290070BD00236371A5
:100A300084F82830F4E7012384F8283004F10A0010
:100A400009F0AAFA6062EBE738B5044609B19A42A8
:100A50000CD220680C49036801225B689847002586
:100A600020680368DB689847284638BD049B9A4293
:100A7000EFD80068059B05491A60036801225B688E
:100A800098470125ECE700BFBCE00000C4E000008F
:100A900070B51B491B4A1C4B1C4D0C681C49126845
:100AA0001B682D6826790C681A4952686D685B6866
:100AB000B3FBF2F394B0B5FBF2F2049626790C681E
:100AC0001549039626790C681449029664680968EA
:100AD0000194496800910446114907A80AF02EF8CC
:100AE000256807A80AF06CF82B68024607A95B681E
:100AF0002846984720680368DB68984714B070BDA3
:100B00003093FF1FF494FF1F3494FF1F5892FF1F70
:100B1000DC93FF1F1893FF1F4494FF1FD493FF1F04
:100B200044E0000030B51449144B154A0C681549CF
:100B30001B68126865680C6813491B79127993B0B9
:100B400002952479096801944968009104460F4987
:100B500005A809F0F3FF256805A80AF031F82B680D
:100B6000024605A95B682846984720680368DB6849
:100B7000984713B030BD00BFD893FF1FEC94FF1F00
:100B8000D093FF1FF094FF1FF494FF1F6CE0000050
:100B90002DE9F84F9DF83010DDF82890DDF82CA0F5
:100BA000054616461F4671B10022002330463946DD
:100BB00008F024FC002800F0A2802868534903684C
:100BC00001225B6898473946304608F041FC80EACC
:100BD000E07BABEBE07B584608F024F909F1FF38E5
:100BE000064640460F4608F01DF906F063FE08F081
:100BF0002FFCB9F1010F044625DD08F013F9024678
:100C00000B463046394608F0E5FBE0B1DFF80C91C1
:100C10000AE008F007F902460B463046394608F06C
:100C2000D9FB80B108F1FF382868394903680122EF
:100C30005B68984789FB0423E417C4EBA304B8F16D
:100C4000010F2046E5D15946286806F08FFCBAF11D
:100C5000000F52DD28682F49036801225B6898471E
:100C6000504608F0DFF806F025FE324680468946F9
:100C70003B463046394607F087FF42464B4608F070
:100C800037F908F0E5FB0AF1FF388146404608F0E5
:100C9000C9F806F00FFE08F0DBFBBAF1010F0446BD
:100CA00025D008F0BFF802460B463046394608F01A
:100CB00091FBE0B1DFF864A00AE008F0B3F8024667
:100CC0000B463046394608F085FB80B108F1FF3805
:100CD00028680F49036801225B6898478AFB042350
:100CE000E417C4EBA304B8F1010F2046E5D149464F
:100CF0002868BDE8F84F06F039BCBDE8F88F2868D1
:100D00000549036801225B6898475CE784E00000BE
:100D1000BCE0000040E0000088E000006766666616
:100D2000F0B5404E404D33686A685B68B2FBF3F241
:100D30000446B2F5803F00683C4924BFC3EB03433F
:100D40006B60036885B001225B6898473368686808
:100D50005B68B0FBF3F008F055F800250526024665
:100D60000B462046029501950096FFF711FF20687B
:100D70002F49036801225B6898472E4B9B68002B24
:100D800049D02D4A1D681368187908F03BF80246CF
:100D90000B4600204FF0804106F094FD06460F46BA
:100DA0002648B0FBF5F008F03DF832463B4608F027
:100DB000C9F908F04DFB0028B8BF404208F022F8FE
:100DC00002460B4600210325029101910095204621
:100DD000FFF7DEFE20681649036801225B6898472A
:100DE000174B186808F030F80125022602460B461A
:100DF0002046029501960096FFF7CAFE2068114929
:100E000003682A465B68984720680368DB6805B07A
:100E1000BDE8F04018470C4B9B68002BB1D1002275
:100E20000023CFE7F494FF1F5094FF1F8CE00000D5
:100E300090E000003C93FF1FEC94FF1F005125023F
:100E40002487FF1F94E000006092FF1F70B588B0F8
:100E50000B7A0024064606940594ADF81C408DF8E4
:100E60001E40002B43D00D460B22083105A804F08C
:100E700093F9224A6B681268AC745B685568B3FBDF
:100E8000F5F5B5F5803F30680AD303681C495B6807
:100E90000222984730680368DB68984708B070BD45
:100EA000036818495B6801229847284607F0AAFFA3
:100EB000052502460B460294019430460095FFF743
:100EC00067FE30681049036801225B689847346800
:100ED00005A809F075FE2368024605A95B6820464F
:100EE000984730680949036801225B68D1E70068C8
:100EF0000349036802225B68CBE700BFF494FF1F3D
:100F000098E000009CE0000090E0000094E0000009
:100F100070B50446006818490368184D5B680222E2
:100F2000984720681649036811225B689847206833
:100F3000036829465B6801229847206811490368C5
:100F400005225B6898472068036829465B68012290
:100F5000984720680C49036805225B689847206819
:100F60000A49036801225B68984720680368BDE866
:100F70007040DB68184700BFA0E0000090E0000070
:100F8000A4E00000B8E00000C0E0000094E0000031
:100F900038B503794D2B04467ED00AD9782B5DD025
:100FA0007E2B72D0562B62D094F8290080F001007D
:100FB00038BD3F2B62D0482BF6D1FFF7A9FF25683B
:100FC0003C492B680A225B6828469847284606F069
:100FD00079FA256838492B6808225B6828469847C3
:100FE000284606F06FFA256834492B6839225B6879
:100FF00028469847284606F065FA256830492B6848
:1010000058225B6828469847284606F05BFA256810
:101010002C492B682A225B6828469847284606F008
:1010200051FA256828492B680A225B6828469847A8
:10103000284606F047FA256824492B684E225B684B
:1010400028469847284606F03DFA20680368DB6882
:101050009847002384F82930012038BD4379303B7C
:10106000092B20D9002384F82930012038BDFFF74F
:101070004FFF002384F82930012038BDFFF750FED0
:10108000002384F82930012038BDFFF701FD00233B
:1010900084F82930012038BDFFF744FD002384F88F
:1010A0002930012038BD0A4A52F82310FFF7CEFE3E
:1010B000D8E700BFC8E00000D4E00000E0E0000096
:1010C0001CE1000078E10000A4E10000B0E10000B4
:1010D0009094FF1FFFFFFFFF2DE9F04101210A203F
:1010E00004F0AEFA01210A2004F08AFA804B814D07
:1010F0001B68814C187908F0FDFA804908F04EFB16
:1011000008F04EFD2A6803230746782016792370DD
:1011100006F03EFA7A4A4FF0FF330A21804603F088
:10112000ADF901211420C4F80C8004F089FA0121E2
:10113000142004F065FA0121162004F081FA01213F
:10114000152004F07DFA01210A2004F079FA00212B
:10115000162004F055FA0021152004F051FA01215F
:101160000A2004F04DFA674803F038FC02210C20F5
:1011700004F066FAE06803F06DFBE06803F0E0F964
:10118000E06803680121DB6A9847E068FF2103F00B
:1011900069FBE068052102F08BFCE0680368002130
:1011A000DB699847E068036802215B699847E0685B
:1011B000012102F0DFFCE068012102F017FDE06888
:1011C000402103F055FBE068012102F083FC237805
:1011D000022B76D0032B63D0012B52D0304607F080
:1011E00021FE02460B4600204FF0804106F06AFBCC
:1011F00008F02EF92378404A022B4CD0032B45D01F
:10120000012B39D00021142004F0FAF93E4B1B6861
:10121000586807F0F7FD2B68064618790F4607F067
:10122000F1FD02460B4600204FF0804106F04AFBDC
:1012300002460B463046394607F05AFE08F008F9D8
:101240000146324803F04AFE314B30481B681B7997
:101250004FF47A7101FB03F103F034FE2D4B2B4860
:101260001B681979003118BF012103F019FE2A4BC0
:1012700002221A70BDE8F0810146506803F012FDA9
:10128000C0E73946606803F0EFFBA7E781B2D0689A
:1012900003F0A2FAB6E781B2906803F09DFAB1E7D5
:1012A000384607F0AFFD10A3D3E9002307F04AFF4B
:1012B00008F0F6F84FF07A5281B2E06802F07AFF57
:1012C0008CE7384607F09EFD07A3D3E9002307F01B
:1012D00039FF08F0E5F84FF07A5281B2A06803F0C8
:1012E00077FA7BE7AFF30080CD3B7F669EA0F63FA9
:1012F000F094FF1FEC94FF1F1C93FF1F0000204180
:101300009A99993D2C87FF1FD493FF1F5094FF1F7C
:10131000DC93FF1FD093FF1F2C93FF1F08B50978A4
:1013200083798B420BD8C3798B4208D303798B42E4
:1013300007D00171006804F063F8012008BD0020A7
:1013400008BD012008BD00BF30B5054683B0D9B146
:1013500002A9184601F8012DFFF7E0FF04462868AE
:101360005CB903680A495B680122984728680368EA
:10137000DB689847204603B030BD036805495B68C9
:10138000012298470124F1E70C460068E9E700BF15
:10139000BCE00000C4E0000010B50446006804F0A2
:1013A00015F8A379984204D3E379984201D82071C3
:1013B00010BD611D2046BDE81040FFF7AFBF00BF64
:1013C0000B68C268934218D30269934215D84268E9
:1013D000934214D070B582B002AD046845F8043D64
:1013E0004360261D204615F8011B013404F008F85F
:1013F000B442F7D1012002B070BD00207047012037
:10140000704700BF30B583B005460192C9B1184698
:1014100001A9FFF7D5FF044628685CB903680A49AB
:101420005B680122984728680368DB689847204674
:1014300003B030BD036805495B6801229847012469
:10144000F1E70C460068E9E7BCE00000C4E00000FA
:10145000F8B50446064654F8045B00F108072D1B56
:10146000281903F0B3FF04F8010BBC42F8D17368EC
:10147000F268934202D33269934205D93946304625
:10148000BDE8F840FFF79CBFF8BD00BF0B68C2681D
:10149000934218D30269934215D84268934214D0FC
:1014A00070B582B002AD046845F8043D4360261D66
:1014B000204615F8011B013403F0A2FFB442F7D116
:1014C000012002B070BD002070470120704700BFAE
:1014D00030B583B005460192C9B1184601A9FFF79E
:1014E000D5FF044628685CB903680A495B68012295
:1014F000984728680368DB689847204603B030BDEA
:10150000036805495B68012298470124F1E70C460E
:101510000068E9E7BCE00000C4E00000F8B504465C
:10152000064654F8045B00F108072D1B281903F048
:101530004DFF04F8010BBC42F8D17368F268934286
:1015400002D33269934205D939463046BDE8F840A6
:10155000FFF79CBFF8BD00BFF8B5074600248460C4
:10156000FC603C82BC7414200E4606F011F8326810
:101570000C4B8460C460026003610546FFF7CEFF38
:1015800036687D603D46341D45F8074B0F362046D2
:1015900003F01CFF0134B44205F8010FF7D13846BF
:1015A000F8BD00BF009435772DE9F84300240746C5
:1015B00091464E1EC51DA0460CE0B8F1000F18BFA5
:1015C000002105F8011F38682044013403F018FF9A
:1015D0000A2C0CD016F8011F232904D00029ECD1C5
:1015E0004FF00108EDE74FF001080021E9E7386806
:1015F0000021B9740A3003F003FF49467868FFF709
:1016000045FF0120BDE8F8832DE9F04383B00026B3
:101610001420019605F0BCFF019B036001251022F8
:101620004FF4007382600361C5600446FFF710FF4A
:10163000019BDFF82892DFF82882C9F800400433C4
:101640000820019305F0A4FF019B03603222A02330
:101650000A274271C37187710446FFF79DFE019B03
:10166000724A2B4408201460019305F091FF019BFE
:10167000036004234371022383710723C37104466B
:10168000FFF78AFE019B6A4A2B44142014600193E1
:1016900005F07EFF019B0360C8224FF44873C760CA
:1016A000826003610446FFF7D3FE019B614A043365
:1016B00008201460019305F06BFF019B4671867151
:1016C0000360C5710746FFF767FED9F80030019A3D
:1016D0005B685949C3EB034444452A444FF0140066
:1016E00028BF44460F60019205F052FF019B046140
:1016F0008660C66003600746FFF710FFD9F8003028
:10170000019A5B684D494E4C0F60C3EB034398450B
:1017100002F104024FF0140028BF9846019205F030
:1017200037FF019AC0F810804FF6FF73C660026061
:1017300083600746FFF7F2FE019B424A0433142000
:101740001760019305F024FF1427019B036040F20A
:10175000E7388760C0F81080C5600646FFF778FE5E
:10176000019B394A043338461660019305F010FF97
:10177000019BC0F8108087600360C5600646FFF7D4
:1017800067FE019B314A043308201660019305F07F
:10179000FFFE4FF01E09019B03604FF06308857147
:1017A00080F8059080F807800646FFF7F5FD019B5D
:1017B000274A2B4408201660019305F0E9FE019B9F
:1017C000036080F80590857180F807800646FFF772
:1017D000E3FD019B1F4A2B4408201660019305F08E
:1017E000D7FE019B036080F80590857180F8078023
:1017F0000746FFF7D1FD019B174A02AE2B4446F87E
:10180000043D176004F12807142005F0C1FE31469D
:101810000546FFF7A1FE019B44F8045B0F33BC4271
:101820000193F1D103B0BDE8F08300BFF094FF1F36
:10183000EC94FF1FD893FF1FD093FF1F5892FF1FF8
:101840009094FF1F3494FF1FD493FF1F4494FF1FF5
:101850001893FF1FDC93FF1F3093FF1FF494FF1FAB
:101860000094357708B5264B186800F10801FFF79A
:10187000A7FD244B1868411DFFF750FD224B186847
:10188000411DFFF74BFD214B186800F10801FFF7E0
:1018900097FD1F4B1868411DFFF740FD1D4B186851
:1018A00000F10801FFF7F2FD1B4B186800F1080179
:1018B000FFF7ECFD194B186800F10801FFF780FDF8
:1018C000174B186800F10801FFF77AFD154B1868EF
:1018D000411DFFF723FD144B1868411DFFF71EFD46
:1018E000124B1868411DFFF719FD114B002003F141
:1018F000280153F8042B8B421072FAD108BD00BFA7
:10190000F494FF1FF094FF1FEC94FF1FD893FF1F68
:10191000D093FF1F5892FF1F3494FF1FD493FF1FD3
:101920004494FF1F1893FF1FDC93FF1F3093FF1F8A
:101930009094FF1F38B504460D464078012103F00E
:101940007FFE2A46A1786078BDE8384003F07EBE6D
:1019500070B500210646407803F072FE00252C4643
:10196000707803F05FFEA84001210443B0780D4475
:1019700003F046FE0021B07803F042FE082DE4B2E9
:10198000EED1204670BD00BF2DE9F0410778064634
:101990000D46807800219046602403F031FE3846E1
:1019A000012103F02DFE2346013BFDD1690061F0CA
:1019B0007F01304601F0FE01FFF7BCFF4146304693
:1019C000FFF7B8FF3846002103F01AFE013CFDD1B5
:1019D000BDE8F081002A2CDD2DE9F04190F800806F
:1019E0001F2A0D4606464FF0000180781746A8BF13
:1019F0001F2703F005FE4046012103F001FE60238E
:101A0000013BFDD1FE213046FFF794FF013D00244C
:101A1000013415F8011F3046FFF78CFFA742F7DCB1
:101A20004046002103F0ECFD6023013BFDD1BDE801
:101A3000F08170470A4B0B4A5B6811688B4200D1FA
:101A4000704700B50849136085B0086801930C22FF
:101A500001A902930393FFF7BDFF05B05DF804FBF6
:101A60005094FF1F3493FF1F3894FF1F002A2CDD72
:101A70002DE9F04190F800801F2A0D4606464FF0F0
:101A8000000180781746A8BF1F2703F0B9FD404624
:101A9000012103F0B5FD6023013BFDD1FF2130465C
:101AA000FFF748FF013D00243046FFF751FF0134A6
:101AB000A74205F8010FF7DC4046002103F0A0FD26
:101AC0006023013BFDD1BDE8F081704770B51C4D2E
:101AD000286888B0F0B100220721FFF755FF1F22C8
:101AE00028686946FFF7C2FF9DE80C009A4209D0BA
:101AF000144A154B126852685A60144A5B681360A6
:101B000008B070BD124B1B685B689A42F0D80E4B50
:101B10005A60F2E7032005F03BFD0423044603224C
:101B200018460226012162702370A67003F088FD1A
:101B30003046012103F084FD2C602046CBE700BF36
:101B40003894FF1F5892FF1F5094FF1F4C94FF1FA3
:101B50003494FF1F38B58368F3B1816D826F4B6891
:101B6000D0F8AC40D21A82EAE273A3EBE273A3424C
:101B700013DBD0F8B020934217DA1A190025C26798
:101B80002346C0F8B0504A680C6804FB0323CB60BE
:101B9000CA684B689A420BD038BD00225C00C0F87E
:101BA000B020C0F8AC20C467EDE7C26FD31AEAE7F3
:101BB00004460C3005F03CFC0023206AA36003F0CF
:101BC000B1FA606ABDE8384003F0ACBA70B5037989
:101BD0002B3B0546442B36D8DFE803F02735273565
:101BE00035353535353535353535353535353535A5
:101BF00035353535353535353535233535353535A7
:101C000023353A3535353535353535353535353591
:101C10003535353535353535353523353535353586
:101C2000230000680368DB6898471448836853B151
:101C3000134B1E783EB901241C70FFF78BFF204622
:101C400085F8296070BD95F8290080F0010070BD0D
:101C50000C4B9B6813B10C4B00221A600748836839
:101C600033B1074B1A781AB901221A70FFF772FFC5
:101C7000002385F82930012070BD00BF6092FF1F4E
:101C80005492FF1F3C93FF1F4894FF1F38B590F8F4
:101C90006430114A0260044600F10C0553B1284635
:101CA00005F0C6FB0023206AA36003F03BFA606ADC
:101CB00003F038FA094B6360284605F0B9FB0023AE
:101CC000A360206A03F02EFA606A03F02BFA28461C
:101CD00005F0AEFB204638BDF0DF0000E4DF000079
:101CE00010B5034B03600446FFF7D0FF204610BD3C
:101CF00028E0000010B5054B03600446FFF7C6FF5F
:101D00002046942105F046FC204610BD28E0000046
:101D100010B5034B03600446FFF7B8FF204610BD23
:101D20000CE0000010B5054B03600446FFF7AEFF62
:101D30002046B82105F02EFC204610BD0CE0000026
:101D400010B50446FFF7A2FF2046782105F022FCDB
:101D5000204610BD884231D02DE9F04700F104083B
:101D6000414516468A46814617D0D9F80010D8F862
:101D70000000B04798B9D8F80050444601E0236805
:101D800063602746284654F8041DB0470028F6D162
:101D90003D6008F10408C245E7D1BDE8F087C9EB12
:101DA00008029308D8F8004005D0C2F1040040446E
:101DB000494608F00BFCC9F80040EAE7704700BF4D
:101DC0002DE9F8430B1A432B1CDD00F1400889462E
:101DD00041461746FFF7BEFFC14515D0D8F8005061
:101DE000444601E0236863602646284654F8041DF3
:101DF000B8470028F6D108F10408C1453560EDD197
:101E0000BDE8F883FFF7A6FFBDE8F8832DE9F04FA2
:101E1000561E06EBD67683B07610B1420192884604
:101E2000054699460C9F5CDA8A4600E0DA460AF1DC
:101E300001034FEA430B0BF18041013955F83300A0
:101E400055F8211005EBC304B84718B10BF1FF3B5F
:101E500005EB8B04236845F82A30B345E6DB019B8C
:101E6000DA0707D4019BA3F1020A0AEBDA7ABBEB8B
:101E70006A0F06D0C34514DCC4F8009003B0BDE877
:101E8000F08F0BF1010B4FEA4B0B0BF18043013B41
:101E90000BF1FF3B55F823302360C34505EB8B0462
:101EA000EADD0BF1FF3606EBD6767610494655F89B
:101EB0002600B847731E03EBD37305EB86045B1053
:101EC00030B905EB8B04C4F8009003B0BDE8F08F87
:101ED00055F8262045F82B20B045CDDAB3461E46EE
:101EE000E4E7019BDB0700EB8104C5D48B46B9E72F
:101EF0002DE9F04F0C1A432C85B040F3898005463C
:101F0000894692461E46002A61D0031D0393E410C1
:101F1000686855F82410B0470AF1FF3A59F8041CD4
:101F2000002834D055F82400B047002837D02B685B
:101F300055F824202A6045F8243068682968039FF2
:101F4000CB46B846B04780B9ABF104042168286895
:101F5000A346043CB0470028F8D15F4509D23A684F
:101F6000DBF800103960CBF8002057F8040F29681F
:101F7000E7E749463346524638467C1BFFF7B8FF31
:101F8000432C45DDBAF1000F22D0B946BFE768689F
:101F9000B04798B195E8030029606860CFE759F829
:101FA000041C6868B0470028F4D02B6859F8042C4A
:101FB0002A6049F8043C68682968C0E759F8041C9D
:101FC00055F82400B0472B680028B1D0EEE78846CA
:101FD000A410A71E7F1005EB870900E0013F59F808
:101FE00004390096224639462846FFF70FFF002F96
:101FF000F4D158F8043D2A680096C5EB0804C8F8E7
:1020000000200021A2102846FFF700FF072CF0DC7B
:1020100005B0BDE8F08F00BF836833B15E4B1B682D
:1020200013B101210220184770472DE9F04700F154
:102030002C074FEA810907EB0906B7421546884687
:10204000044610D04FEAA902B2FA82F2C2F11F028E
:10205000520031463846514BFFF74AFF4F4A31464E
:102060003846FFF7ADFEE06AA0658269002A00F0FD
:10207000888082EAE273A3EBE273B8F1010F4FF0BC
:1020800000020361826012DD09F1280EA6443A467F
:1020900052F8041F8B6983EAE37CACEBE37CC1F864
:1020A00010C003697245C3EB4C034B61F0D1B742DA
:1020B0006ED0406A04F1300306E01A68526A90421A
:1020C00003F1040328BF10469E42F6D106460023C2
:1020D000271D84F8903084F82830384603F00EF835
:1020E0002062384603F00AF8606202F0DBFF6169A3
:1020F00004F1080002F08CFFA36D276F98695B68FC
:1021000007F0F8FAC4F88000304607F0EFFA064608
:10211000384607F0EBFA0146304607F03FFB20490E
:1021200007F0F0FB0023C4F88400E36772B6D4F82C
:102130008430C4F8883062B672B6D4F8801028466D
:1021400007F02CFBE16FA06707F0E4FCD8B1D4F8EE
:102150008830C4F88C3062B6124A236AE0690021E4
:102160001160DB00516803F1804303F560330144E3
:102170000D2019611060DA68502122F08002DA60C7
:10218000D960BDE8F087D4F8883003F10043E0E778
:10219000E36A5E6A9BE700BFFC94FF1F7D040000BA
:1021A00000247449008003402DE9F043524B534C06
:1021B0001B6883B04BB994F89030002B65D0504B1E
:1021C00000221A6003B0BDE8F083A368002B00F082
:1021D00084804C4B4A4D1B680193019B2A689B1AD3
:1021E0000A2BEFD9484A494B10685B68C01A06F0C1
:1021F00019FE474B1B680646586800EB80004000FC
:102200000F4606F0FFFD434B1B6880461879894650
:1022100006F0F8FD02460B4600204FF0804105F025
:1022200051FB02460B464046494606F061FE024617
:102230000B460020384906F085FF32463B4606F043
:1022400057FE07F04DF94FF07E51064607F044FC6B
:1022500000283AD14FF07E560023284F84F8903062
:1022600072B6D4F88010304607F098FAE16FA06794
:1022700007F050FC20B3D7F88830C4F88C3062B631
:1022800000232B6003B0BDE8F083A26D01235268E8
:1022900084F8903072B60021D4F8800007F07EFAFE
:1022A000E16FA06707F036FC28B1D4F88830C4F895
:1022B0008C3062B683E7D4F8883003F10043F6E748
:1022C000D7F8883003F10043D7E71449304607F0C8
:1022D00021FC0028C0D1114EBEE7A16E0B4FA366B2
:1022E00004EB81064FF07E5201212046F7623363F2
:1022F000FFF792FE6DE700BF4894FF1F3C93FF1F5E
:102300003893FF1F3495FF1F4C94FF1F5094FF1FFD
:10231000D493FF1FEC94FF1F00002440000080BFF7
:10232000F8B5204B204E1B681B794FF47A7101FBE6
:1023300003F1304602F0C6FD1C4B1B68586806F0DE
:1023400061FD1B4B1B68044618790D4606F05AFDCB
:1023500002460B4600204FF0804105F0B3FA0246DA
:102360000B462046294606F0C3FD07F071F80146EA
:10237000304602F0B3FD0F4B996E01F10B0503EBF4
:10238000810403EB850500274FF07E521846E66274
:102390009F6601216F60FFF73FFE074B02221A7014
:1023A000F8BD00BFDC93FF1F5094FF1FD493FF1FA5
:1023B000EC94FF1F3C93FF1F2C93FF1FF8B503798C
:1023C000492B044660D030D9692B1AD06F2B18D016
:1023D0004F2B25D13A4B1B780022022B80F8292065
:1023E00001D0FFF79DFF374B20681D68364A036810
:1023F00036496D68156001220A605B683449984768
:102400000AE02068314A036831495D68002313609F
:1024100084F829300122A84720680368DB689847C0
:1024200094F8290080F00100F8BD2B2B16D02D2B3D
:10243000F6D1234B1B780022022B80F829203AD0BA
:10244000FFF76EFF94F8290080F001001F491E4B32
:102450004FF0FF3400220C601A60F8BD184B1B7857
:102460000022022B80F8292027D0FFF759FF94F88B
:10247000290080F00100134B134A1968134B496877
:10248000116001221A60F8BD0D4B1B780022022B4F
:1024900080F8292001D0FFF743FF20680B4E036826
:1024A000094A5B680A494FF0FF370025156037601D
:1024B00001229847B0E70120C8E70120DBE700BF11
:1024C0002C93FF1F3494FF1F4C94FF1F4894FF1F51
:1024D000C4E000002DE9F04F00F12C054FEA81081F
:1024E00087B005EB080A554504468946029200F07C
:1024F00041814FEAA802B2FA82F2C2F11F025200F1
:10250000B94B51462846FFF7F3FCB74A51462846D7
:10251000FFF756FCE76AA765B9F1010F40F34B815D
:10252000D7F810B02846012250F8041F0B69013279
:10253000CBEB430391454B61F6DC3B6AFE690093AC
:10254000554500F03681E06A04F13003456A1A46C9
:1025500006E01168496A8D4202F1040228BF0D4667
:102560009245F6D182690DE01968896982EAE270C4
:1025700081EAE17EA0EBE270AEEBE17E04338645BA
:10258000B8BF0A469A45EFD110460028B8BF40426E
:1025900007F0B0F8029907F001F907F001FBBBF171
:1025A000000F00F0D780002800F0D480B869002820
:1025B000B8BF404207F09EF8B9F1000F824640F3E1
:1025C000F580584607F096F808F1280783464FF043
:1025D0000008274404F12809029459F8044F20699F
:1025E00007F088F8594607F08DF9514607F0D6F8FC
:1025F0000590A0690028B8BF404207F07BF8059A13
:102600000146104607F07EF94146044607F082FA7B
:1026100000B1A046B945E0D1029C4146504607F0C2
:1026200071F907F0BDFA4FF0000A271D804684F8C3
:1026300028A0384602F062FD2062384602F05EFDB6
:10264000606202F02FFD616904F1080002F0E0FC15
:10265000A36D5F68DB68A767DF1BA8FB0823CDE9D4
:102660000223A6FB06239346009AC4F88420A2FB0B
:1026700002019C46002FDDE90223B8BF7F42CDE96D
:1026800000BCC4F88880D846B0EB0B0BE1464FEA9B
:10269000450561EB0C0CC4E92823C4E92601534627
:1026A000C4E92489E767C4F8A850C4F880602A46C2
:1026B0005846614607F094FAC01941EBE771CB0F19
:1026C000C01841F100015FEA61094FEA3008D045C6
:1026D00043DB474541DB5346DDE90201DDE900AB61
:1026E000B0EB0A0061EB0B012A4607F079FA80454E
:1026F0004EDDC0EB4803C4F8B030C4F8AC00002E87
:102700004CD0A3689A6812F0020200F08C801A681C
:1027100036498A4255D8364AB2FBF6F61A461E604A
:10272000236A3449E469002003250126D660AB40C2
:102730009060956008604A6803F1804303F5603358
:1027400022440D201A610860DA68502122F08002CC
:10275000DA60D96007B0BDE8F08F0D2002F056FFB7
:10276000192002F099FF0D2002F050FF192002F00D
:1027700093FFF2E7C76A876501293FF7D1AE3B6A4D
:10278000FE69D7F810B000933B465D6A9869FCE695
:10279000C4F8B080C4F8AC80002EB2D1A268002A80
:1027A0004CD0936823F002039360B9E74FF0000820
:1027B00033E7E36AE9E73B6AFE690093D7F810B0B4
:1027C000C1E659680A48B0FBF6F6521A964213D38E
:1027D000B11A0125002203209A60DD601A461960B3
:1027E00098601E609CE700BF6D0400007F3202000D
:1027F0000051250200800340606902680321002720
:10280000012512689F60DD601E6099609047A26894
:10281000002A85D10E4B1B68002B81D0284602214F
:102820009847A2687CE7012003219A60094AD86092
:10283000B2FBF6F61A461E60996071E7044B1B68FE
:1028400023B1022101209847A268AAE73246A8E7EF
:10285000FC94FF1F00512502104B1B78012B70B513
:10286000044601D0FDF7B2FE0D4E0E4B0025214669
:1028700030461D7002F056FB0B48836E856603F1EF
:102880000B0400EB840400EB83034FF07E52DE6206
:1028900001216560FFF71EFE70BD00BF2C93FF1F76
:1028A0005094FF1F5492FF1F6092FF1FFFFFFFFF16
:1028B00030B50379213B85B00446522B00F26B8181
:1028C000DFE813F05E0069016901530069016901E5
:1028D00069016901690169016901690169016901A8
:1028E000690168007B008000900092009C009E00BF
:1028F000A000B40069016901690169016901690108
:102900006901690169016901690169016901690177
:10291000C20069016901690169016901690169010F
:102920006901D20069016901DB006901690169017E
:102930006901690169016901690169016901690147
:102940006901690169016901F900690169016901A8
:1029500015016901690169016901690129016901BB
:102960006901690169014D014F01002420460021E0
:10297000013402F045FDB4F5006FF7D1FEF772FFA8
:1029800003F080F803F0F2FB4FF47A7002F084FE5B
:1029900003F0C8FD9A4B406A1A689A4B52681B684C
:1029A00094F8281000FB02F22046FEF791FD002368
:1029B00084F82930012005B030BD914B406A1A6877
:1029C000914BEBE7914B626A1B6894F82810204604
:1029D000FEF718FD8E4A00230120137084F8293079
:1029E00005B030BD8B4BEEE78B4B94F824201B6871
:1029F00094F828102046FEF7A7FCEBE7874BF4E796
:102A0000874BF2E7874D426A2B6890F82810FEF753
:102A10009BFC2B6884481979003118BF012102F012
:102A20003FFA002384F829300120C4E7744B626A1E
:102A30001B6894F828102046FEF7E4FC00230120D0
:102A400084F8293005B030BD90F82830002BF5D03F
:102A50006B4B6D4A1B6812685868636A526803FBC7
:102A600000F09042EAD853E0664A674B12681B6850
:102A700050685B689842E1D84AE0614B624A1B6843
:102A800010685B68626A94F8281003AD019540688D
:102A9000009002FB03F220460023FDF7D5FF00283B
:102AA000CCD0624B604A1B7803995160002BC5D192
:102AB000FEF7C0FFC2E75E4D426A2B6890F828100F
:102AC000FEF742FC0028B9D02B685A4D1B792A78B2
:102AD00003EB8303022A4FEA430071D0032A5FD03D
:102AE000012AABD10146686801F0BEFFA6E7437931
:102AF000303B092BA2D8504A52F823301A7A002AC8
:102B00009CD041495A680B6850685B68984295D8D8
:102B1000FFF7A2FE92E7494D426A2B6890F8281011
:102B2000FEF712FC002889D02B68187906F07AF994
:102B300002460B4600204FF0804104F0C3FE06F031
:102B400087FC3C4B1A78022A01464ED0032A47D014
:102B5000012A7FF473AF586802F0A4F86EE7384B8F
:102B600065E74579303D092D3FF668AF0B3007F03A
:102B700013FA234A30491268034651F82500516878
:102B8000636204AA03FB01F342F8043D04F111015E
:102B9000FEF70AFD52E790F8290080F001000AE7ED
:102BA00006F030F914A3D3E9002306F0CBFA06F0BF
:102BB00077FC4FF07A5281B2E86801F0FBFA3DE70A
:102BC00006F020F90CA3D3E9002306F0BBFA06F0C7
:102BD00067FC4FF07A5281B2A86801F0F9FD2DE749
:102BE00081B2D86801F0F8FD28E781B2986801F059
:102BF000F3FD23E7AFF30080CD3B7F669EA0F63F59
:102C0000F494FF1F5892FF1F3494FF1FD493FF1FAB
:102C10002C93FF1F4494FF1F1893FF1FDC93FF1F8B
:102C20003093FF1FD093FF1F5094FF1F5C92FF1F34
:102C3000F094FF1F1C93FF1F9094FF1FEC94FF1F45
:102C4000D893FF1F70B50546FDF79AFE30B195F891
:102C5000293004462BB9174EB36893B1002420469F
:102C600070BD2846FEF7B2FF0028F8D195F829304C
:102C7000002BF0D02846FEF78BF90028EBD0204639
:102C800070BD95F82930002BE8D02846FFF796FB59
:102C90000028E4D1B368002BE0D1074B9B68002BE0
:102CA000DCD195F82930002BD8D02846BDE87040FB
:102CB000FFF7FEBD6092FF1F3C93FF1F08B50D4B51
:102CC0009B6873B10C4B01221A70FFF76DFA0B4829
:102CD000FFF7B8FF00B108BD0948BDE80840FFF79D
:102CE000B1BF084B9B68002BECD1034A1370FEF771
:102CF000A1FEEAE76092FF1F5C92FF1FE093FF1FB7
:102D0000B894FF1F3C93FF1F2DE9F04F162287B0A8
:102D100015215148514DDFF86CB1514F02F08AF83E
:102D2000504ADFF864E1C2F800E000248026062360
:102D300041F2F95A41F288394FF00508C2F804B05F
:102D40009460D46082F82840D465146682F86440A8
:102D50009466D46616749361C2F81CA0C2F8709091
:102D6000C2F874804049526110462A46019305F02A
:102D700001FFDFF818E1019BCEF804B04FF0010B22
:102D8000DFF80CC1CEF80840CEF80C408EF8106089
:102D90008EF82840CEF85C40CEF860408EF8644053
:102DA000CEF86840CEF81830CEF81CA0CEF870905F
:102DB000CEF87480CEF86CB0CEF814E070462A4697
:102DC0002A498EF89040CEF800C0DFF8C880DFF8BE
:102DD000C89005F0CFFE3B680593254B059A1A6015
:102DE0004046092100F022FC4146224800F012F939
:102DF0003B680393DFF8A4E0DDF80CA03B68049384
:102E00001D4F1E4BDFF898C0DDF810801C498EF86E
:102E100004602A467046CEF80040C3F830805C62F9
:102E200083F8284083F8294083F82A40DC62C3F8FD
:102E300000C0C7F830A07C6287F8284087F8294096
:102E400087F82A40FC62C7F8009005F093FE02F074
:102E500077FA07B0BDE8F08F5094FF1F2087FF1F5F
:102E60003495FF1F6092FF1F111D0000E11C000040
:102E70003C92FF1F1494FF1FB894FF1FE093FF1FA5
:102E800051050000E4DF00000CE000003C93FF1F50
:102E900028E000004092FF1FBC87FF1F3C94FF1FEB
:102EA0009487FF1FF0B5012183B0172002F0C8FB03
:102EB00014240121172002F0A3FB0A2002F0ECFBEE
:102EC0000021172002F09CFB322002F0E5FB013CC0
:102ED000EFD10121152002F0B3FB0121162002F0F1
:102EE000AFFB2146162002F08BFB2146152002F095
:102EF00087FB1720012102F083FB3648364A04681D
:102F0000364D374F40F2EE2613783BB12B78DB0776
:102F100004D5036839685B1A0E2B07D8036811784B
:102F20001B1B002951D0B3F5FA6FEDD9002002F038
:102F300061FE0021012002F023FE4DF6C021294848
:102F4000294D04F0B1F90A21264804F017FBFEF7D9
:102F50005BFB264800F014F90C21244800F0F0FA3D
:102F60000021224800F00EFB0021204800F042FB27
:102F7000294604460195009006F0AEFD40B31C4979
:102F8000204606F0BDFD00B9194C1A4B17481C60CD
:102F9000002100F0A1F9184B1968FF221A7121B124
:102FA000164B17480B441B111A54164A164912485F
:102FB00004F0F4F9FEF790F8FEF788FD00211720E1
:102FC00003B0BDE8F04002F01BBBB3429CD9ADE7B3
:102FD0002C46DAE73495FF1F3C97FF1F5497FF1FDD
:102FE000C097FF1F9487FF1FF3FFC7421494FF1F72
:102FF000F3FFC7C22487FF1F3C94FF1F008FFCBF55
:1030000044E400E0FF94BA0A5D05000080780121E5
:1030100002F0F6BA30B4002201240925C57004710B
:1030200044718471C160C2614270C27102720270E7
:1030300030BC70472DE9F0410746C0688846154608
:1030400000F0C8FB002401224146F86800F0D0FBE4
:10305000E3B2064628B19D4207D00134E3B29D4257
:10306000F1D200263046BDE8F0810721404600F04D
:1030700043FC98F807308342EFD1F3E770B505467B
:10308000C0680C46164600F0EDFA00B970BD214646
:10309000E86800F089FB0022BE21E86800F054FBDC
:1030A000741E0836E86800F06FFB04F8010FB442A4
:1030B000F8D1E86800F0D6FAA0F10100B0FA80F08B
:1030C000400970BD10B51446FFF7D8FF88B1631EE4
:1030D00004F1080213F8010F10B99342FAD110BDA0
:1030E0000821204600F008FC237A181AB0FA80F074
:1030F000400910BD00B585B001AAFFF7E3FF48B154
:103100009DF808303F2B0CD00FD95F2B05D07F2BBB
:1031100011D10C2005B05DF804FB0B2005B05DF863
:1031200004FB0A2005B05DF804FB1F2B03D1092026
:1031300005B05DF804FB002005B05DF804FB00BF9E
:1031400038B504460D46C06800F08CFA9DB129469A
:10315000E06800F029FB0022B421E06800F0F4FAF6
:10316000E06800F0D7FA0546E06800F07BFAB5FAAF
:1031700085F0400938BDE06800F028FBEBE700BFB0
:1031800030B5044683B0C06800F024FB0023E3712F
:103190002372012507E00721684600F0ADFB9DF88A
:1031A0000730834208D001226946E06800F020FB26
:1031B0000028F0D103B030BDE3799DF80010013351
:1031C000A1F11002E371322AEDD801A353F822F0E5
:1031D0009D320000A7310000A7310000A731000098
:1031E000A7310000A7310000A7310000A73100007F
:1031F000A7310000A7310000A7310000A73100006F
:10320000A7310000A7310000A7310000A73100005E
:10321000A7310000A73100009D320000A731000057
:10322000A7310000A7310000A7310000A73100003E
:103230009D320000A7310000A7310000A731000037
:10324000A7310000A7310000A7310000A73100001E
:10325000A7310000A7310000A7310000A73100000E
:10326000A7310000A7310000A7310000A7310000FE
:10327000A7310000A7310000A73100009D320000F7
:10328000A7310000A7310000A7310000A7310000DE
:10329000A7310000A73100009D320000237A227878
:1032A0000133237262B1102908D069462046FFF726
:1032B00021FFE378834238BFE07074E70C20F8E721
:1032C00069462046FFF73CFF10B99DF80010EAE779
:1032D00025709DF80010E6E701717047F0B543795D
:1032E00083B00446BBB10378ABB9194D2B68019389
:1032F000019F40F2ED2601E004F064F9E06800F07F
:1033000009FA012805D02B680093009BDB1BB34210
:10331000F2D903B0F0BD0939C9B202299CBF0D4BE7
:1033200033F91150637888BF40F2EE2553B928462F
:1033300002F0B2F96378002BEBD02046FFF766FE6F
:1033400003B0F0BD0021A07802F05AF9EFE700BF0A
:103350003495FF1F04E2000070B50B78102B0D466A
:10336000044606D0FFF7C6FE064618B905462846AD
:1033700070BD0C26E06800F075F92946E06800F0A1
:1033800013FA2278E068442100F0DEF9257915B9B6
:103390000125284670BD20463146FFF79FFF28468D
:1033A00070BD00BF38B50446C0680D4600F05AF93C
:1033B000D0B13DB32946E06800F0F6F92278E06824
:1033C000482100F0C1F923787BB16378ABB91420B0
:1033D00002F062F9637863B9E06800F043F9A0F1A4
:1033E0000100B0FA80F0400938BD142002F054F911
:1033F000F2E72046FFF70AFEEEE70021A07802F090
:10340000FFF8E4E7E06800F0E1F9D7E770B50446BB
:103410000E46C068154600F025F93146E06800F018
:10342000C3F9E06800224E2100F08EF9A978E06827
:10343000002200F089F9E978E068002200F084F9C0
:103440003378102B04D02979E068002200F07CF951
:10345000A37923B9E068BDE8704000F003B93146B4
:103460002046BDE87040FFF79DBF00BF2DE9F04347
:1034700090460A78102A85B01C46054650D001AE09
:10348000B8F1080F8946324640DDFFF71BFE434680
:103490000C2BA8BF0C235FFA83F8002847D00A3B07
:1034A000022B38D8254AD35C9DF808209A4237D0A1
:1034B0003246494628468DF808300127FFF7A6FF17
:1034C0008CBBEB7985F80380012B2CD9B8F10C0F5C
:1034D00029D001AE0DE0FFF70DFEEB7801348342F9
:1034E000EB7938BFE870E4B2A3421CD9EB780C2B1F
:1034F00019D0314622462846FFF79CFD9DF804303E
:10350000102B31462846E6D10C20E6E7FFF7DAFD1E
:1035100078B14FF009089DF808201F239A42C7D1BF
:103520000127002CCDD0384605B0BDE8F083074612
:10353000C6E707464FF00908C2E700BF00E20000F7
:1035400008291BDD0C29A8BF0C21C379C170BBB1B0
:1035500030B5054683B00024224669462846FFF769
:1035600069FD0123EA7869462846FFF77FFF0134A9
:10357000EB79E4B2A342EFD803B030BD0921E4E710
:10358000704700BF10B582B00A4604466946FFF78F
:1035900051FD69462046FFF7DFFE02B010BD00BFB7
:1035A00010B584B001AA0C46FFF78CFDF0B19DF870
:1035B00004009DF805202378C00040EAC220102BAB
:1035C00000B201D004B010BD9DF80B20002AF9D044
:1035D0009DF80A30C000D31A20F07F00DB0193FB76
:1035E000F2F3203B184400B204B010BD0048E9E7F4
:1035F00080E4FFFF10B582B00A4669460446FFF733
:1036000019FD10B9084802B010BD69462046FFF701
:10361000C7FF10F5DC5FF5DD06F06CF84FF0705178
:1036200006F0BCF802B010BD0000FEC238B50D4671
:1036300004460021284602F003F80123084A2370BB
:1036400052F835206260234600222274A27462740C
:1036500003F80F2F083403F8012DA342FBD138BD26
:1036600040E40000426872B6002382F8803262B6FD
:103670007C20302102E010F0FF0024D00B46013BFB
:10368000FDD192F800320138002BF4D072B601233C
:1036900082F8003182F8803262B64FF43453013B35
:1036A000FDD172B600214FF4D26382F88012013B43
:1036B000FDD192F80002B0FA80F0400962B642F201
:1036C0007063013BFDD17047CA07436810D472B6DE
:1036D000012183F800114FF4C36283F88012013A8C
:1036E000FDD183F8801062B67823013BFDD170478D
:1036F00072B6012183F80011F02283F88012013A9A
:10370000FDD183F8801062B64FF4A563013BFDD173
:10371000704700BF436872B6012183F880124822C7
:1037200083F80011013AFDD10021F02283F88012C4
:10373000013AFDD193F80002C0B262B64FF49F6324
:10374000013BFDD1704700BF2DE9F04106460F4611
:10375000904608250124274214BF0121002130464C
:10376000FFF7B2FF6400013DE4B2F4D1B8F1000FFD
:1037700008D172B6736883F880827368012283F877
:10378000002162B6BDE8F081F8B50746082400269E
:1037900001253846FFF7BEFF6B0000B12E43013C08
:1037A000DDB2F6D13046F8BD70B500220D46552188
:1037B0000646FFF7C9FF6C1E073514F8011F0022EB
:1037C0003046FFF7C1FFAC42F7D170BD0022CC21DB
:1037D000FFF7BABF0346002202748274427403F8F2
:1037E0000F2F083003F8012D8342FBD1704700BF33
:1037F0002DE9F047857C04462DB1002020746074CB
:10380000A074BDE8F08789461646FFF72BFF002815
:10381000F3D0002E66D02A46F0212046FFF794FF11
:1038200001254FF000082E46C24619E0874229D0F4
:1038300004EB08031A7A22EA05021A723946204676
:103840006D00FFF741FF013615F0FF05F6B204D118
:1038500008F101085FFA88F80125B8F1070F28D8A8
:103860002046FFF757FF07462046FFF753FF012F7B
:10387000DCD101281DD004EB08031A7A2A431A72FE
:103880000127DBE7237C9E420DD204EB08031A7A62
:10389000154214BF01270027002FEED1082E00D8B3
:1038A0006674B246C6E70CBF0127002704EB080385
:1038B000F2E7402EA1D984F810A0BAF1000F17D07A
:1038C000227A002A99D004F1080309F1FF390F3454
:1038D00001E013F8012F09F8012F9C42F9D10120D2
:1038E000BDE8F0873246EC212046FFF72DFF97E731
:1038F0000123A374E4E700BFA9B130B44D1EEDB2BB
:103900000A4C0544421E002012F8013F584000F0C6
:103910000F0304EB1010E15C037C954281EA030085
:10392000F2D130BC70470846704700BF0CE200007F
:1039300090F8252030B461F3061280F8252090F825
:1039400028400568426A2B68240644EA12226C214A
:1039500030BC1847F0B490F8262090F8254006684F
:1039600090F8285001F0010722F0070204F07F04CC
:10397000C1F3420144EAC714114380F8261080F8CD
:1039800025403468426A2B0643EA12226C21234602
:10399000F0BC1847F0B490F8272090F8264006684D
:1039A00090F8285001F0010722F0010204F07F0492
:1039B000C1F3400144EAC714114380F8271080F88E
:1039C00026403468426A2B0643EA12226C212346C1
:1039D000F0BC184790F8272030B461F3410280F81A
:1039E000272090F828400568426A2B68240644EA9C
:1039F00012226C2130BC184730B490F8283005688A
:103A0000426A61F3030380F828301B0643EA12225E
:103A10006C212B6830BC184700B5036883B06C215B
:103A20005B689847C0F3021003B05DF804FB00BF69
:103A300000B5036883B06C215B689847C0F3C3107E
:103A400003B05DF804FB00BF00B5036883B06C21D0
:103A50005B689847C0F3C13003B05DF804FB00BF5A
:103A600000B5036883B06C215B689847C0F34040A1
:103A700003B05DF804FB00BF00B5036883B06C21A0
:103A80005B689847C0F3036003B05DF804FB00BFB8
:103A900030B40A4690F82410046841EA0221150E59
:103AA000416280F8285023686C2130BC184700BF61
:103AB00090F8252030B461F3030280F8252090F8B7
:103AC00028400568426A2B68240644EA12226C21C9
:103AD00030BC184730B490F828300568426A61F36A
:103AE000041380F828301B0643EA12226C212B684D
:103AF00030BC184770B490F82C2090F82840066825
:103B000022F00105C1F3006244EA01242A438462E1
:103B100080F82C20336821F07E4270BC6D2118475C
:103B2000026C10B461F3150204680264236810BCCF
:103B3000C1F315020A21184703686F215B68184713
:103B4000C1F30A02B0F86C1010B462F30A01046801
:103B5000A0F86C10236810BC38211847426910B4D3
:103B600061F3192204684261236810BCC1F3110299
:103B700000211847427D61F38202427510B4426908
:103B80000468C2F31122236810BC0021184700BF4B
:103B9000426810B461F3130204684260236810BCE9
:103BA000C1F3130210211847027961F30402027174
:103BB00010B442680468C2F31302236810BC1021D9
:103BC000184700BF427961F30402427110B44268A1
:103BD0000468C2F31302236810BC1021184700BF09
:103BE0000A46016842640B687021184790F8462025
:103BF00010B461F38202046880F846202468426CA5
:103C00002346702110BC1847C26B10B461F31A220E
:103C10000468C263236810BCC1F31202092118476B
:103C2000C1F30B02B0F86A1010B462F30B01046820
:103C3000A0F86A10236810BC342118472DE9F04120
:103C400006460F460079002101F0DAFC07254FF007
:103C5000000847FA05F111F0010330784FF0010137
:103C600008BF194601F0CCFC0121307901F0C8FCF5
:103C7000B07801F0D7FC003018BF0120A84040EA1E
:103C800008040021307964B201F0BAFC013D5FFA0A
:103C900084F8DED1FB074CBF01212946307801F0C2
:103CA000AFFC0121307901F0ABFCB07801F0BAFC37
:103CB00000280CBF204644F00100C0B2BDE8F081EE
:103CC000F0B5857A2A4EC26025F00F05857205464B
:103CD00000244FF07C57076184808471C471048193
:103CE00045F8156B90F824E044756C70AC70028C4C
:103CF000877E467F04832EF07F0522F4FF7280F8D2
:103D0000245022F0010290F82C50028490F82420D4
:103D1000426227F00F07E2B226F00F0625F00105F8
:103D20004677826280F82C50C4760477C48344843A
:103D3000877680F82D4080F82E4090F83320048656
:103D400064F3010280F8324080F83320026B094EA0
:103D5000094D80F82F4066F31502026395F90020A3
:103D600081869A42B8BF2B70846380F83C30F0BDE6
:103D700034E2000080040500F894FF1F90F834003E
:103D800001F03EBC836B03B17047264A264830B42D
:103D90001568264C02E0172908D00B4630F8022F90
:103DA00094FBF2F2954203F10101F4D3204A214938
:103DB00052F82320C87A130922F4704203F4706386
:103DC00042F078521343B8B172B6CA7AD50710469A
:103DD00006D5194CC86825682840886120601046BF
:103DE000940706D5154C0A692568C87A2A40CA6125
:103DF000226042070ED462B60A68D168994207D0A1
:103E00000F4810600F49D36043F08040106111608B
:103E100030BC70470C484A69046822400A6202605C
:103E2000E9E700BF2887FF1F1AE3000000512502C1
:103E30004CE300002C87FF1F80E100E084E100E0FC
:103E400001403F0000003F8088E100E0836B03B148
:103E500070470B4AD37A1946002BF9D0D80703D5FF
:103E60000849906908601946980703D5064BD06940
:103E7000D17A18604B07EBD5044B126A1A60E7E75A
:103E80002C87FF1F00E100E004E100E008E100E012
:103E9000806B0B4608B1FFF7D1BE064A12684FF09F
:103EA0000041D1625363D36A002BFCDA906BC0B23D
:103EB000704700BF2C87FF1F2DE9F04105460F46D4
:103EC000FFF760FF28460021FFF758FF39462846D4
:103ED000FFF7DEFF042400212846FFF7D9FF631E09
:103EE00013F0FF04F7D195F93C30012B4FF0010698
:103EF0000EDD052400212846FFF7CAFF631E13F0DC
:103F0000FF04F7D1013695F93C3076B2B342F0DCCC
:103F100001212846DFF87C80FFF730FF002128468A
:103F2000FFF72CFF98F90030B3420EDD0524002185
:103F30002846FFF7ADFF631E13F0FF04F7D10136EB
:103F400098F9003076B2B342F0DC39462846FFF7E4
:103F50009FFF002128752846FFF79AFF00210402E1
:103F60002846FFF795FF002104432846FFF790FFFE
:103F70002402002104432846FFF78AFF2402044359
:103F80002846FFF763FF28460121FFF7F7FE20468A
:103F9000BDE8F081F894FF1F70B5054614460E4643
:103FA000FFF7F0FE28460021FFF7E8FE46F080010B
:103FB0002846FFF76DFF210E28752846FFF768FF9A
:103FC000C4F307412846FFF763FFC4F307212846DF
:103FD000FFF75EFFE1B22846FFF75AFF95F93C3044
:103FE000012BC8BF01260EDD052400212846FFF75E
:103FF0004FFF631E13F0FF04F7D1013695F93C30F3
:1040000076B2B342F0DC2846FFF720FF28460121B4
:10401000FFF7B4FE70BD00BF30B4827E0568018337
:1040200022F00F04C1F30342224382762B68C1F3CE
:10403000130230BC1421184770B4427F0568C17662
:1040400022F00F04C1F30342C1F30726224306778F
:1040500042772B68C1F3130270BC1521184700BFCB
:10406000038CC18330B423F4FF73C1F3084223F0FF
:1040700001031343056803842B6821F07E4230BCA2
:104080002D21184730B490F824200568418422F08F
:104090007F04C1F30642224380F824202B68C1F339
:1040A000160230BC33211847C26A10B461F31F22D4
:1040B0000468C262236810BC21F07F426E21184759
:1040C000F8B50446FFF7FCFD94F82430134A22604B
:1040D0000226002201254FF0000143F0824366F3DF
:1040E0008301A4F840200E4884F83F50042743F48D
:1040F000A833102584F8432006220A26606484F839
:10410000417084F84210636284F8285084F83D209E
:1041100084F83E20E6712046F8BD00BF70E2000042
:104120001E000CC438B50C4605462049C06805F091
:1041300035FB05F035FD42F6415380B203FB00F13B
:10414000090A1B4B01FB04F11F2000FB0332B1FBEA
:10415000F2F2FF2A02F1FF3408D87F2A9CBF00F157
:10416000FF30C0B27E2CF0D9D3B201E000231A4652
:104170001F28296885F8433028BF1F200B68044694
:104180000B212846984721462846FFF71BFD20466D
:1041900005F0B0FA296905F001FB05F001FDC1B297
:1041A0002846BDE83840FFF7FFBC00BF00FF7F474F
:1041B000FE4401000261FFF7B5BF00BF0A46016877
:1041C00080F843200B680B21184700BFF8B5044660
:1041D000FFF776FFB4F8487094F84F6094F85650A3
:1041E00094F85B0094F8601094F867202D4B2360DE
:1041F000002363F301066FF30B0725F0030520F09E
:104200000F0021F07F0122F0030284F84B3084F884
:104210004C3084F84D3084F84E302365A4F8543087
:1042200084F8573084F8583084F8593084F85A307C
:10423000A4F85C30A4F85E3084F8613084F8623011
:1042400084F8633084F8643084F8653084F866302C
:10425000A4F8683084F8565084F8601084F8672019
:10426000A4F8487084F84F6084F85B00B4F86A00E2
:10427000B4F86C1094F84A200B4DA4F86E3063F338
:104280000B0063F30A01A4F86A0042F00103A4F8EA
:104290006C100122656484F84A30A4F8702020462E
:1042A000F8BD00BFACE2000080040500C1F30B02C2
:1042B000B0F8481010B462F30B010468A0F848107D
:1042C000236810BC032118470A4690F84A1010B41E
:1042D000046862F3000180F84A10236810BC0421CE
:1042E000184700BF70B40A46016880F84B20C2F33B
:1042F0000726C2F30745140E80F84C6080F84D5035
:1043000080F84E400B6870BC0521184701F003028D
:1043100090F84F1010B4046862F3010180F84F1058
:10432000236810BC2021184703680A461B68212116
:10433000184700BF30B490F856200568A0F8541014
:1043400022F00304C1F30142224380F856202B6877
:10435000C1F3110230BC2321184700BF0A4601688F
:1043600080F8572010B4140A80F858400B6810BC2D
:104370002421184770B490F85B20056880F8591024
:1043800022F00F04C1F30342C1F30726224380F851
:104390005A6080F85B202B68C1F3130270BC2521A2
:1043A000184700BF0A460168A0F85C200B68262168
:1043B000184700BF30B490F860200568A0F85E1080
:1043C00022F07F04C1F30642224380F860202B686C
:1043D000C1F3160230BC2721184700BF0A46016806
:1043E00080F8612010B4140A80F862400B6810BC99
:1043F000282118470A46016880F8632010B4140A7F
:1044000080F864400B6810BC2A21184770B5044638
:104410000D46B9B194F86730216884F8655023F0EF
:104420000302C5F301431343C5F3072284F8673041
:1044300020460B6884F866202B21C5F31102BDE8E5
:1044400070401847036820215B68984710F0FF0F01
:10445000E0D170BD0A460168A0F868200B682C21E5
:10446000184700BF0A460168A0F86E2010B4140C6B
:10447000A0F870400B6810BC3A211847F8B5044604
:10448000FFF7A4FE94F8423094F83F0094F874507B
:10449000294A2260012294F8241094F83DC094F82F
:1044A0003EE084F86520022662F3010025F00F0546
:1044B000A4F8702003F0FC03002294F8407084F804
:1044C000745062F38200062566F3830394F841601A
:1044D00084F83F0065F3030C65F3030E042094F8A1
:1044E0006750A4F8722041F0824162F3040762F33E
:1044F000051360F3030641F4A83184F86620A4F89C
:104500006E2010200D4A84F83EE025F003054FF0A0
:104510000A0E84F8280084F83DC084F8407084F8BE
:10452000423084F841606162626484F807E084F894
:1045300067502046F8BD00BFE8E200001E000CC432
:1045400010B541680446C1F31301FFF721FBE1797F
:10455000204600F087F9A1682046C1F3130100F05E
:1045600087F961692046C1F31121FFF7F7FAA169C4
:104570002046C1F31301FFF74FFDA38BE17EC3F388
:104580000B0341EA03212046FFF756FD238CE18B04
:10459000C3F3080341EA03412046FFF761FD94F8A5
:1045A0002430618C03F07F0341EA03412046FFF78A
:1045B00069FD94F82830616A1B0643EA1121204600
:1045C000FFF766FA94F82C30A16A03F001031B068A
:1045D00043EA11212046FFF78DFAE16A2046090AD5
:1045E000FFF762FD616C2046FFF7FAFAE16B2046A7
:1045F000C1F31221FFF708FB216C2046C1F315011E
:10460000FFF78EFA94F843102046FFF7D7FDB4F871
:1046100048102046C1F30B01FFF748FE94F84A10FA
:10462000204601F00101FFF74FFE94F84B30E16C9A
:10463000204643EA0121FFF755FE94F84F1020462B
:1046400001F00301FFF762FE216D2046FFF76CFECB
:10465000616D2046C1F31101FFF76CFE94F85730ED
:1046600094F85810204643EA0121FFF777FEA16D28
:104670002046C1F31321FFF77DFEB4F85C102046FD
:10468000FFF790FE94F86030B4F85E1003F07F03FB
:1046900041EA03412046FFF78DFE216E2046C1F31B
:1046A0000F21FFF79BFE94F8633094F864102046C6
:1046B00043EA0121FFF79EFE616E2046C1F31121FE
:1046C000FFF7A4FEB4F868102046FFF7C3FEB4F865
:1046D0006A102046C1F30B01FFF7A2FAB4F86C1080
:1046E0002046C1F30A01FFF72BFAB4F86E30B4F894
:1046F0007010204643EA0141FFF7B4FE94F874308D
:104700002168B4F8722003F00F0342EA0342204606
:104710000B68BDE810403D21184700BF70B5044646
:10472000084604F0E7FF254905F038F8244905F06C
:10473000E9F824490646E06804F028FF314605F010
:104740002DF8214905F0DEF84FF07E5104F01CFFF2
:1047500005F026FAC5B20F2D236829D89B680121E0
:10476000204698471749E06804F010FF314605F0ED
:1047700015F8164905F0C6F84FF07E5104F004FF15
:1047800005F00EFAC5B21F2D28BF1F252946204669
:10479000FFF718FA284604F0ADFF216904F0FEFF88
:1047A00005F0FEF9C1B22046BDE87040FFF7FCB944
:1047B00000219B6820469847E5E700BFD5043542B5
:1047C00000007A440AD7A33C6666A63EEC51383E08
:1047D0000261FFF7A3BF00BF10292ED00BD94029DB
:1047E0002FD020D9802915D0B1F5807F2DD1036835
:1047F00000215B6A184702291BD00FD9042905D074
:10480000082923D1036805215B6A1847036806213C
:104810005B6A1847036801215B6A1847C1B90368DE
:1048200008215B6A1847202911D1036803215B6ABC
:104830001847036807215B6A1847036804215B6A0D
:104840001847036802215B6A184770477047704732
:10485000704700BF08B5036801215B68984700F006
:10486000010008BD0A460168C2710B681121184792
:1048700030B4827A0568018122F00F04C1F303424B
:10488000224382722B68C1F3130230BC13211847F4
:1048900010B4047F4160022CC26002D010BC02F050
:1048A00087BC836810BC1847F0B4464B464A186B67
:1048B000DC6A01791170454922790A709A6A007997
:1048C0000870002A46D05968C9688A423ED82168D3
:1048D000CC8B240402F1FF3065D4C0F30E00C883F2
:1048E000C88B80B2C882196B0968C88B000452D487
:1048F000C2F30E00C883C88B002480B212F1FF32CD
:10490000C88218BF01229C62D96A2E4809680D68C6
:1049100000F12404A54236D00068C46814F0804F2A
:104920000C680D6815BF248824780235013544F0E1
:1049300000440D604463196B254B097919702149B6
:1049400012B1CA6A12791A70F0BC7047521A9A6290
:104950000122D9E7586B196805681E4C0A63CC62BE
:10496000CC682D681C4E24F080440327B542CC60EF
:1049700083F825701FD1037F4260022BC2601ED0D6
:10498000F0BC02F015BC016890F82400CC6840F03F
:1049900000404863CFE7CC8BC2F3080004F47E44A8
:1049A0002043C883A7E7CC8BC0F3080004F47E44FF
:1049B0002043C88394E72B461146F0BC1847836810
:1049C000F0BC18472C87FF1F1F8000401C80004050
:1049D0001B80004000000FFF9148000090E80C0091
:1049E000F0B41C6859682568164F174E294321609A
:1049F000164D17491760D66015611160417A154A46
:104A00005C180A3194F8244053F8215002EBC40199
:104A100049680D60017A5C1803EB8101247ECD6941
:104A200002EBC40149680D60817A581803EB8103D9
:104A300090F83000596B02EBC002F0BC536819606B
:104A4000704700BF01401F000110003801100078BE
:104A500000001F8040E4000043680CCB11680B434A
:104A600013607047FFFFFFFF2DE9F843036B044617
:104A7000406923F04005884604F0C4F906464046E4
:104A80000F4604F0BFF902460B463046394604F0A3
:104A90002FFA00227E4B04F02BFA79A3D3E90023EE
:104AA00006460F4604F04EFB00227A4B04F06CF8E9
:104AB00004F0F6FCC0B20F280ED92563E36A94F81F
:104AC0003B2023F01F031F2894BF034343F01F0321
:104AD000E3629AB9BDE8F88345F0400323633046AA
:104AE00069A3D3E90023394604F02CFB0022694B6B
:104AF00004F04AF804F0D4FCC0B2DFE76649674A24
:104B00000B68D4F8309043F480530B60D36858019D
:104B100000F19A80D66816F0007640F0AB80F7B2CC
:104B20000C215F48FFF798FF5D4D94F83800002195
:104B300000F066FD2B684FF00041C9F30742D962CF
:104B40005A63DA6A002AFCDA986B4FF000414FEAA8
:104B50000028C9F30722D96208F47F405A63DA6A51
:104B6000002AFCDA996B5FFA81F848EA00085FFADC
:104B700089F24FF00040D8624FEA08215A63DA6A9E
:104B8000002AFCDA9B6B94F838005FFA83F848EA55
:104B90000108012100F034FD0C2E4FEA181803D053
:104BA00039463F48FFF758FF3B49C4F834800B684B
:104BB0003A4AD4F82C8043F480530B60D3685901EF
:104BC0004BD5D3689B0158BF08264AD50C273E46D3
:104BD000002194F8380000F013FD2B684FF00041DD
:104BE000C8F30742D9625A63DA6A002AFCDA9D6B7D
:104BF0004FF000412D02C8F30722D96205F47F402F
:104C00005A63DA6A002AFCDA9D6BEDB205435FFA5B
:104C100088F24FF00040D86229025A63DA6A002A0B
:104C2000FCDA9D6B94F83800EDB20D43012100F0E1
:104C3000E7FC0C2E4FEA151503D039461848FFF74C
:104C40000BFF6563BDE8F883D3689A0158BF082657
:104C50007FF565AF0C273E4666E7D66816F000760E
:104C600005D1F7B20C210E48FFF7F6FEB0E7042796
:104C70003E46F7E704273E4652E700BFAFF3008009
:104C800000000000C0EB124100000000402404417D
:104C9000000040400000E03F3C80044000C0024073
:104CA0002C87FF1FF8B504465C4B006AFF2903EA16
:104CB0000003236219DD5A4A4FF480730240E36314
:104CC000002594F83B1015432562D9B9E568E36BDC
:104CD0002069A169534A03FB05F300FB03F3B2FB10
:104CE000F3F31944A360E161F8BD7F2957DD4C4A15
:104CF00094F83B100240012580231543E3632562AD
:104D00000029E3D04849494A0B6843F480530B60BB
:104D1000D36859014DD4D66816F0007675D1F7B234
:104D20000C214348FFF798FE002194F8380000F06A
:104D300067FC3F4B1B684FF000412A0CD9625A6355
:104D4000DA6A002AFCDA996B4FF0004E0902C5F3CB
:104D50000722C3F82CE001F47F405A63DA6A002A84
:104D6000FCDA996BC9B20143EAB24FF00040D86255
:104D700009025A63DA6A002AFCDA9D6B94F838005B
:104D8000EDB20D43012100F03BFC0C2E4FEA15154E
:104D900003D039462648FFF75FFE656396E73F2953
:104DA0000FDC1F2913DD1E4A20230240E363032585
:104DB00087E7D3689B0158BF0826B0D50C273E462D
:104DC000B2E7174A40230240E363022579E70F293F
:104DD00007DC0729124A0ADD08230240E3630525A0
:104DE0006FE7102143F40072E163042569E70329AA
:104DF00004DD04230240E363062562E7012907DDA1
:104E000002230240E36307255BE704273E4687E76A
:104E100001230240E363082553E700BFF0FF0F00C2
:104E2000F0FD0F00008793033C80044000C0024067
:104E30002C87FF1FF8B5194B53F83160044606F173
:104E4000800506F58070A562E06253F83230A163F8
:104E500001254FF0000CE263C4F804C06422C6F8D8
:104E6000005103F1800E03F58077C8B24FF4487605
:104E700040F6C411C4F830E06162256067632946DA
:104E8000C3F880502262E261A66100F0D9FB94F879
:104E90003C00294600F0D4FB2046F8BD40E4000069
:104EA000C26B074B53F8323003F1800203F5807375
:104EB00011B902634363704703634263704700BFE5
:104EC00040E40000034A044B914288BF1946416206
:104ED000704700BF1FA1070020A10700002930B4C0
:104EE0000BDB026B0123036013600A4A0A4B9142F9
:104EF000C8BF1946816130BC7047084B426B4FF008
:104F0000FF350124994205601460EEDA044981619D
:104F100030BC7047DF930400E0930400216CFBFF7A
:104F2000206CFBFF4368C91A10B40DD4026B012337
:104F300003601360436810BC81EAE172A2EBE17286
:104F40001944C16002617047436B4FF0FF34012286
:104F500004601A60EEE700BF704700BF024B18689C
:104F600003681B68184700BF0095FF1F024B586875
:104F700003681B68184700BF0095FF1F024B986825
:104F800003681B68184700BF0095FF1F024BD868D5
:104F900003681B68184700BF0095FF1F426808B5EB
:104FA000DAB1154B13441B114433DBB2443B032BE2
:104FB00013D8DFE803F00E0A0602104B036003204B
:104FC00008BD0F4B0360022008BD0E4B036001209B
:104FD00008BD0D4B0360002008BD0C4B1B68002270
:104FE00002602BB10121084698474FF0FF3008BD01
:104FF0004FF0FF3008BD00BF008FFCBF3071034091
:10500000207103401071034000710340FC94FF1FA6
:1050100070B5051D04460E4628461B4A1B4902F082
:10502000BDF948B91A4B1B6823B1032101209847E9
:10503000032070BD032070BD2046FFF7AFFF154B66
:10504000616843F820602022227221B1124B134E76
:105050000B441B119A55124B0B4A53F8201028464B
:1050600002F09CF923682BB19A6822F002029A6040
:10507000002070BD064B1B68002BF5D002210120DB
:1050800098472368F0E700BF00512502594F000000
:10509000FC94FF1F0095FF1F008FFCBF44E400E05D
:1050A00020E4000030B4134C22780ABB124B4FF6B8
:1050B000FF711A6010209960D30003F1804303F55B
:1050C00060330132D96821F08001D960D968082A9B
:1050D00021F04001D960D860EED102F1E02206480B
:1050E000FC320D254FF080410123056011602370D3
:1050F00030BC70473095FF1F00800340074A0023F3
:1051000052F8041F21B10133082BF9D1184670471A
:10511000034A42F823001846704700BF0C95FF1F52
:105120001095FF1F072810D810B472B6C30003F102
:10513000804303F560330549DA68002422F0400219
:10514000DA6041F8204062B610BC70471095FF1F2E
:1051500070B50F4D002402E00134082C16D0E30096
:1051600003F1804303F56033DA6802F0C002C02A1D
:10517000F2D155F82400DA68016822F040020E6886
:10518000DA6021460134B047082CE8D170BD00BF79
:105190001095FF1F00F0D4B801B441EA000313F0EA
:1051A00003036FD1403A41D351F8043B40F8043B2C
:1051B00051F8043B40F8043B51F8043B40F8043BF1
:1051C00051F8043B40F8043B51F8043B40F8043BE1
:1051D00051F8043B40F8043B51F8043B40F8043BD1
:1051E00051F8043B40F8043B51F8043B40F8043BC1
:1051F00051F8043B40F8043B51F8043B40F8043BB1
:1052000051F8043B40F8043B51F8043B40F8043BA0
:1052100051F8043B40F8043B51F8043B40F8043B90
:1052200051F8043B40F8043B403ABDD2303211D330
:1052300051F8043B40F8043B51F8043B40F8043B70
:1052400051F8043B40F8043B51F8043B40F8043B60
:10525000103AEDD20C3205D351F8043B40F8043B30
:10526000043AF9D204320AD0D2071CBF11F8013B2C
:1052700000F8013B03D30B7803704B78437001BCFB
:10528000704700BF0C2A4AD310F0030311D0C3F1BA
:105290000403D21ADB071CBF11F8013B00F8013BE5
:1052A00007D311F8013B00F8013B11F8013B00F86E
:1052B000013B11F003033FF475AF30B4043AC91A4F
:1052C000C3F1040C51F8044B022B19D0032B0BD063
:1052D000240A51F8043B1D0644EA050440F8044B37
:1052E0001C46043AF4D216E0240E51F8043B1D0289
:1052F00044EA050440F8044B1C46043AF4D20AE0A0
:10530000240C51F8043B1D0444EA050440F8044B06
:105310001C46043AF4D20432B1EB0C0130BC043A1E
:10532000A0D3013A11F8013B00F8013BF9D20B7808
:1053300003704B7843708B78837001BC704700BF5B
:10534000F0B585B0102219496846FFF725FF184AC5
:10535000127891071DD51749174D0A7812F070027F
:1053600018BF0A701549164A0346802715480F7062
:105370000026332403212E700470117072B60D4C78
:1053800043F001032046984762B6237813F0700378
:1053900009D10D4B064901E0013B02D00A78D20742
:1053A000FAD505B0F0BD237005B0F0BD30E40000C3
:1053B00001000240000002400400024007000240D9
:1053C0000A0002400B000240410D0300B0F5006FDF
:1053D0000AD210B5094B1B78DB07044606D504F149
:1053E000A0500078C0B210BD00207047FFF7A8FFA2
:1053F00004F1A0500078C0B210BD00BF010002400F
:10540000B0F5006F17D238B50F4B1B78DA070D4691
:10541000044611D504F1A0500378AB420AD00B4AE0
:10542000137813F0700318BF1370074A05701378D0
:10543000DB07FCD538BD7047FFF782FF04F1A050B1
:105440000378AB42EBD1F5E70100024000000240D7
:1054500008B5104C08E0236859050DD423681A05D7
:105460000FD42368DB0411D423685803F3D501F06B
:105470005BF823685905F1D500F08EFD23681A0505
:10548000EFD500F0D5FE2368DB04EDD500F004F87D
:10549000EAE700BF3480044008B5FFF7D9FF00BF3A
:1054A000014B10221A80704700200540704700BF52
:1054B000094908B50B6830B16A461844A2F5805214
:1054C000904202D20860184608BD04F06FFD0C231C
:1054D00003604FF0FF3008BD6487FF1FFEE700BF89
:1054E000EFF3138070B9EFF310836BB9EFF305821C
:1054F0005AB94FF48070EFF311832BB1984228BF53
:10550000184670474FF0FF3070470F2A01D81846F1
:10551000F1E7014BD05CEEE7F0E300E010B40F4B95
:1055200053F8302092F880422CB1012369B182F8FF
:10553000803010BC704703EBC0035B681A6841B948
:1055400022F002021A6010BC704782F8003110BCD1
:10555000704742F003021A6010BC704740E400003C
:105560001C4A02EBC00301295B6811D004291BD03F
:1055700052F83000002280F8802229B1022920D080
:10558000032922D01A6070474FF480721A60704766
:1055900052F830004FF4A27280F880121A601A6834
:1055A00022F020021A60704752F830104FF4A272B5
:1055B000012081F880021A601A6842F020021A6005
:1055C000704740F203121A6070474FF481721A60FC
:1055D000704700BF40E4000030B4054B054D064C59
:1055E000002210211A602A602060196030BC7047C8
:1055F00014D0034004D0034000D00340704700BFE4
:10560000212801D8FFF78ABF704700BF212805D89D
:10561000034B53F83030012283F88021704700BFDC
:1056200040E40000212806D8044B53F8303093F8AA
:105630000002C0B270470020704700BF40E4000085
:10564000212801D8FFF78CBF704700BF2DE9F0413A
:1056500007460E4690460825012405E0212E0CD968
:105660006400013DE4B214D0212FF7D808EA040108
:105670003846FFF753FF212EF2D801213046FFF7BD
:105680004DFF00213046FFF749FF6400013DE4B2C1
:10569000EAD1BDE8F08100BF2DE9F843054672B6B6
:1056A000214F224B224A1B683C68126862B65201A5
:1056B00002D5322B88BF0134A5B3C3F58C331D4E00
:1056C000DFF86890DFF8688003F23F134FF47A72D6
:1056D000A6FB031302FB04F404EB131472B6D9F80F
:1056E00000103A68D8F800E062B6C1F58C3303F2D6
:1056F0003F13A6FB03031EF0806FC4EB13134FF49C
:105700007A7002D0322988BF013200FB0233B3F530
:105710007A7F04D3013D05D004F57A74DEE701F009
:1057200051FFDBE7BDE8F8833495FF1F18E000E088
:1057300004ED00E0398EE338F8B52E4B2E49DFF842
:10574000D4E0DFF8D4C02D4E2D4D2E4C2E4A2F4FD5
:105750004FF4000018604FF0807018604FF0007038
:1057600018604FF0806018604FF0006018600020F3
:105770000860282348F6FF71CCF80010CEF80030FE
:10578000336013602B6023603B60B3629362092235
:1057900045F8242CC4F8D80F05F57F65C7F8D41F49
:1057A00007F5FF2707F5FA67C6F8F83F2B6006F5FF
:1057B000FF26C4F8D42F05F5FD2504F5FF24386035
:1057C00006F2F4761248316005F5FF6504F5FD64D4
:1057D0002B602360026001F06BFFFFF70FFF1420C6
:1057E000FFF75AFF01F0DAFA4FF48C70BDE8F84089
:1057F000FFF752BF08E100E004800340148003403B
:10580000248003402C8003401C80034034800340EC
:1058100000800B400C800340088003402DE9F84FC6
:105820002C4B1B6807460BB101221A70DFF8BC90A5
:10583000DFF8BC8099F80040D8F80030264D274E9C
:1058400001349C422ABF4FF0000A5FFA84FA5446A2
:10585000AB462B78A3421CD1FFF742FE40282BDC3D
:1058600033791B06F5D59BF80030D8F80010DBB271
:105870005A1C8A4225D23F2A29D919493F3B096837
:10588000CB5CD1B2DBB2DBB2F37129702B78A342CF
:10589000E2D03F2C8ABF124B124B1B68124988BFC3
:1058A000403CFFB21F550D4B0120BC22087089F807
:1058B00000A0DA70BDE8F88FFF28CADD01F082FE93
:1058C000C7E700210A46074B9B5CDBB2DBE7D1B29E
:1058D000F9E700BFD095FF1FC995FF1F00A0064044
:1058E0008495FF1F4095FF1FC895FF1FD495FF1F8C
:1058F0007487FF1F2B4A2C491368F0B543F480636B
:1059000013600A78294F2A4E2A4D2B4C2B4900232D
:105910003B7033702B7023700B70002A3DD0152A1A
:1059200021D0274B1B78012B25D0052B30D01F28E9
:1059300027D8002002460125224B234C1A70234908
:105940005D7004224FF0020E88273C264025987295
:105950009A704FF4005083F813E05A751F74DE708C
:1059600025700860F0BD1A4B40F213321A60144BD8
:105970001B78012BD9D1174B4FF451721F281A6095
:10598000D7D9C0F34432C0F3471500F01F00D3E766
:10599000114B4FF451721A60C9E7104B40F21332A9
:1059A0001A60BEE7348004408095FF1F3C95FF1FBE
:1059B0003D95FF1FD495FF1FC995FF1FC895FF1F79
:1059C0007887FF1F00A006402DE400E004E100E01E
:1059D00018C0044044A004401CC0044040A004403F
:1059E000234B23499B7803F0EC0200F0030313439D
:1059F000420700F00F0248BF43F01003042A8B70E7
:105A00002ED01B4B1A4A5B79C10603F0EF0348BF47
:105A100043F0100353719379820603F0EF03144AA5
:105A200048BF43F0100310F40070937105D1114B7F
:105A3000114A1968914218D0704730B491780F4DCF
:105A40000F4B0C480C4C41F0A00191702A78046077
:105A500003EBC20340F247325B6830BC1A60704708
:105A60008B7943F040038B71CBE71860704700BF20
:105A700000A00640D095FF1FD400D4427887FF1FB6
:105A800040E40000234B1B685B0541D510B5224C58
:105A9000237823B101F096FD2378002BFAD11F481B
:105AA0001F4A204B4FF4005400210460D1701B7832
:105AB000FBB1152B03D11C4B40F203121A601B4B98
:105AC0001B7803F07F03012B1DD0052B03D1184B4E
:105AD00040F203121A60174A114B1748174912680F
