:1000000000800020BD010000892001004120010086
:100010004120010041200100412001004120010058
:100020004120010041200100412001008920010000
:100030008920010041200100C1510100C55101008A
:100040008920010089200100892001008920010008
:1000500089200100892001008920010089200100F8
:1000600089200100892001008920010089200100E8
:1000700089200100892001008920010089200100D8
:1000800089200100892001008920010089200100C8
:1000900089200100892001008920010089200100B8
:1000A00089200100892001008920010089200100A8
:1000B0008920010089200100892001008920010098
:1000C0008920010089200100892001008920010088
:1000D0008920010089200100892001008920010078
:1000E0008920010089200100892001008920010068
:1000F000892001002D310100892001006D3A0100A5
:10010000892001008141010089200100892001002E
:100110008920010089200100892001008920010037
:100120008920010089200100892001008920010027
:100130008920010089200100892001008920010017
:100140008920010089200100892001008920010007
:10015000A1560100B5560100C9560100DD56010047
:1001600089200100754401008920010089200100D7
:1001700089200100892001008920010089200100D7
:1001800089200100892001008920010089200100C7
:1001900089200100892001008920010089200100B7
:1001A00089200100892001008920010089200100A7
:1001B000892001008920010089200100564B4CF262
:1001C000205210B51A804DF628121A8000BF00BFC9
:1001D00011F05EFF514B4FF010621A60504A9A6066
:1001E000504ADA60504A136813F4807304D14F49BF
:1001F0000B604FF4A85313604D4B1A78110703D5C9
:100200001A7842F008021A704A4B4B492A221A7097
:100210004A4A4B4B8B4204D252F8040F43F8040B6A
:10022000F8E7484B484900228B4202D243F8042B9E
:10023000FAE74649464A002352F8230041F82300D2
:1002400001336F2BF8D1434B434A802103F8011B44
:100250009342FBD1414B3D4A1A60414B8A221A70AE
:10026000A3F5805324225A70A0221A709A7992071B
:10027000FCD59A79D406FCD43A4A937903F00C035E
:10028000082B384BF9D105221A7143225A719A79F9
:100290009006FCD5334A9179324B4906FBD5324A58
:1002A0004FF0817111600521516020221A709A79F6
:1002B00002F00C020C2AFAD12C4B2D4A1A602D4B5D
:1002C0002D4A1A6000225A60072243F8042C2B4A58
:1002D000C3F80C2D62B612F0F9FA144B1B68DA075A
:1002E00005D5274812F052F9264B274A1A60274BAA
:1002F0001B785B0609D5234C234B22689A4204D114
:100300001F4812F043F90023236011F0C7FE19F0D3
:1003100093FF15F0EFF9FEE70E2005403080044012
:10032000823F04000100002B10D0034014D0034092
:1003300002D0074000E007403093FF1FAC110200DD
:100340002087FF1F3093FF1F4C9DFF1F0082FF1F60
:100350000000000000E400E05FE400E008ED00E0E1
:1003600000500640004006404480044004800440A1
:10037000C010050014E000E03F190100000020203B
:10038000E1806A631CE00340A5C3945A00F0074073
:10039000FFFFFFFFFFFFFFFFFFFFFFFFFFFFFFFF6D
:1003A000FFFFFFFFFFFFFFFFFFFFFFFFFFFFFFFF5D
:1003B000FFFFFFFFFFFFFFFFFFFFFFFFFFFFFFFF4D
:1003C000FFFFFFFFFFFFFFFFFFFFFFFFFFFFFFFF3D
:1003D000FFFFFFFFFFFFFFFFFFFFFFFFFFFFFFFF2D
:1003E000FFFFFFFFFFFFFFFFFFFFFFFFFFFFFFFF1D
:1003F000FFFFFFFFFFFFFFFFFFFFFFFFFFFFFFFF0D
:10040000FFFFFFFFFFFFFFFFFFFFFFFFDEF9FFFF23
:1004100010B5054C237833B9044B13B10448AFF33E
:1004200000800123237010BD3093FF1F00000000E7
:10043000A8110200084B10B51BB108490848AFF3DA
:1004400000800848036803B910BD074B002BFBD0A0
:10045000BDE81040184700BF000000003493FF1FA4
:10046000A81102003093FF1F0000000012F088B8AE
:1004700010B5044615F0F2F8204610BD10B582B054
:10048000044611F09BFD8DF80600601C11F096FDEE
:100490008DF80700BDF8060002B010BD38B50C4657
:1004A000054611F08BFD2070681C11F087FD60700F
:1004B000A81C11F083FDA070E81C11F07FFDE07016
:1004C00038BD00BF3C4A70B502233C4D13602A780A
:1004D000002A3BD03A4E0023337072B6394CD4E92F
:1004E000060119F0C1FA2369C01A206262B6236AB4
:1004F000354A002B36D0236A34493248497A002BDA
:10050000D4BF0023012384F8283000292ED0304B9B
:1005100090F828101B7899422ED02E4B012119609B
:1005200094F82830274903F0FF00002B2ED0D06824
:100530005268254B904233DADA6801210A44DA60C6
:1005400019720123337000232B7070BD1C4A12787E
:100550000AB1214A13600123204A2B70204B1268F4
:100560001A6070BD137A002BC5D1ECE7184B90F8D8
:1005700028101B789942D0D01A4B0121196094F8A9
:100580002830104903F0FF00002BD0D1D2680E4B69
:10059000002A0BDDDA680121013ADA601972D0E72E
:1005A00000221A720B6901330B61CAE718720B69DA
:1005B000013B0B61C5E700BF88F00F403087FF1F8C
:1005C000D895FF1F6893FF1F9099FF1F3898FF1F52
:1005D000D896FF1FC8F00F4084F00F408087FF1FA0
:1005E00010710340C4F00F403B4A70B520233B4DCF
:1005F00013602A78002A3AD0394E0023337072B63D
:10060000384CD4E9060119F02FFA2369C01A206288
:1006100062B6236A344A002B35D0236A3349314805
:10062000497A002BD4BF0023012384F82830002905
:100630002DD090F82830002B2DD02D4B4FF40051A9
:10064000196094F82830274903F0FF00002B2DD0C3
:10065000D0685268244B904232DADA6801210A44A9
:10066000DA6019720123337000232B7070BD1C4AAD
:1006700012780AB11F4A136001231F4A2B701F4BC7
:1006800012681A6070BD137A002BC6D1ECE790F89F
:100690002830002BD1D01A4B4FF40051196094F838
:1006A0002830104903F0FF00002BD1D1D2680E4B47
:1006B000002A0BDDDA680121013ADA601972D1E70C
:1006C00000221A720B6901330B61CBE718720B69B8
:1006D000013B0B61C6E700BFC8F00F404887FF1F12
:1006E000C499FF1FD893FF1FA899FF1F5C98FF1F95
:1006F00004F00F40C4F00F40D487FF1F2071034067
:1007000008F00F40084B10B5C3E9000172B6074965
:10071000074CD3E90023D1E90A0118F0F5FEC4E93A
:10072000040162B610BD00BFC895FF1FA898FF1F47
:10073000E895FF1F084B094A4FF0FF31596051609F
:1007400072B6197809B1622119701378034A0BB196
:100750006223137062B67047E895FF1F0896FF1F6B
:100760002DE9D04382B072B6234CD4E9060119F0CA
:100770007BF92369C01A206262B61DA1D1E900018C
:10078000D4E9122318F0EAFF02460B4618F0BCFE2B
:10079000D4E9028906460F460022184B40464946D6
:1007A00018F0B2FE0B4602463946304618F0D6FF26
:1007B00019F05AF9236A0193019B002B019BD8BFC2
:1007C0005B4298420BDA236A002BB8BF404272B6F4
:1007D0002369184418F032FEC4E9060162B6084BDA
:1007E00062221A7002B0BDE8D08300BFAFF3008070
:1007F0000000000080846E416893FF1F00001040DD
:10080000E895FF1F30B583B0CDB20191044611F0D9
:10081000D5FB854203D02946204611F0E9FB01347F
:10082000204611F0CBFB9DF80550854203D02946A8
:10083000204611F0DDFB03B030BD00BFF8B50D461A
:100840000E78044611F0BAFB864203D031462046AA
:1008500011F0CEFB661C304611F0B0FB6F7887427A
:1008600003D03946304611F0C3FBA61C304611F0C8
:10087000A5FBAF78874203D03946304611F0B8FB6C
:100880000334204611F09AFBED78854205D02946C5
:100890002046BDE8F84011F0ABBBF8BDFFFFFFFFFD
:1008A00038B5354C354A237DE0680025022B15709C
:1008B0004ED0032B3CD0012B0FD0314C237DE06870
:1008C000022B13D0032B22D0012B00D038BD0146C0
:1008D000A069BDE8384010F01BB90146A069284C5A
:1008E00010F016F9237DE068022BEBD118F096FD8D
:1008F0001FA3D3E9002318F031FF19F0DDF84FF002
:100900007A5281B2E069BDE8384011F0F3B818F0CE
:1009100085FD17A3D3E9002318F020FF19F0CCF8C8
:100920004FF07A5281B2206ABDE8384011F084B8A5
:1009300018F074FD0EA3D3E9002318F00FFF19F08F
:10094000BBF84FF07A5281B2206A11F075F8B4E723
:1009500018F064FD06A3D3E9002318F0FFFE19F098
:10096000ABF84FF07A5281B2E06911F0C3F8A4E716
:10097000CD3B7F669EA0F63F3898FF1F6E99FF1F04
:100980005C98FF1FFFFFFFFF38B5354C354A237DCC
:1009900020690125022B15704ED0032B3CD0AB42B1
:1009A0000FD0314C237D2069022B13D0032B22D092
:1009B000012B00D038BD0146A069BDE8384010F0D9
:1009C000A7B80146A069284C10F0A2F8237D206941
:1009D000022BEBD118F022FD1FA3D3E9002318F05E
:1009E000BDFE19F069F84FF07A5281B2E069BDE8B6
:1009F000384011F07FB818F011FD17A3D3E9002398
:100A000018F0ACFE19F058F84FF07A5281B2206A13
:100A1000BDE8384011F010B818F000FD0EA3D3E97E
:100A2000002318F09BFE19F047F84FF07A5281B27C
:100A3000206A11F001F8B4E718F0F0FC06A3D3E93E
:100A4000002318F08BFE19F037F84FF07A5281B27C
:100A5000E06911F04FF8A4E7CD3B7F669EA0F63F1A
:100A60003898FF1F6E99FF1F5C98FF1FF8B52B4C3D
:100A70002B4D2C492C4E2D48DFF8D8E02C4F01236C
:100A800084F8283085F82830D5E90E23C5E91223EB
:100A9000D4E90E23C4E9122300220023C1E9002374
:100AA0002449C6E90023C0E9002300260A20CEE934
:100AB00000233E700E7011F081FA18B131460A2001
:100AC00011F096FA1C481D4B1D491E4A466858688D
:100AD00000230B704B6013708B606E6153609360EA
:100AE000606172B6686918F0A9FCC5E906016B6916
:100AF0002B61606918F0A2FCC4E9060163692361F7
:100B000062B6114B1B7833B1104A114B0021012002
:100B100011701870F8BDFFF737FFF5E7D893FF1F86
:100B20006893FF1FE095FF1F8898FF1FF897FF1F2E
:100B30004196FF1F0898FF1FA898FF1FF098FF1FFE
:100B4000E895FF1F0896FF1F6E99FF1F8198FF1FF2
:100B5000F087FF1F0098FF1F2DE9F0473F4B404EE5
:100B6000404D82B0002201240A201A7034702C708B
:100B700011F05CFE204611F021FA8DF804000220ED
:100B800011F01CFA8DF80500032011F017FA8DF80A
:100B90000600042011F012FA8DF80700052011F06C
:100BA0000DFADDF804A08DF80400062011F006FA15
:100BB0008DF80500072011F001FA8DF806000820D5
:100BC00011F0FCF9284B8DF80700187A019F18F0F6
:100BD00025FC02460B4600204FF0804115F0B8FA84
:100BE00080468946504618F029FC42464B4618F08C
:100BF0008BFC18F039FF1D4B8246187A18F00EFC5A
:100C000002460B4600204FF0804115F0A1FA8046C5
:100C10008946384618F012FC42464B4618F074FCE0
:100C200018F022FF074672B65046C6F810A018F01A
:100C300005FCC6E9060138462F6118F0FFFBC5E93F
:100C4000060162B60A4A0B4B1278A2420CBF02227E
:100C5000002220461A7002B0BDE8F087F087FF1F1F
:100C60006893FF1FD893FF1F3898FF1F5C98FF1FE2
:100C7000D087FF1F9498FF1F2DE9F04F8FB00EAF64
:100C8000DDE91C451A9E07F8086DC0E90C45189E61
:100C900003904E318DF835203846199A8DF8312061
:100CA0008DF834308DF836108DF832600FF0BEFDBF
:100CB000D94904461E9819F07DF819F057FA0444F2
:100CC000204611F063FC20460FF0E0FE11F058FCC6
:100CD00004460FF09BFD064620460FF089FD0546B1
:100CE00020460FF077FD6B1E012B98BF06F1FF36F3
:100CF0008246304698BF0C3519F008F8C74983463C
:100D000019F00CF918F0ACFB15F076F8804689461E
:100D10005846C34919F002F918F0A2FB15F06CF817
:100D200006460F465846BF4919F044F818F098FB9C
:100D300015F062F8CDE90001284618F0E7FF4FF002
:100D40007E5118F02FFFB84919F034F818F088FBDD
:100D500015F052F84246CDE904014B4600204FF011
:100D6000804118F01DFA32463B4618F01BFADDE9C7
:100D7000002318F017FADDE9042318F013FA0646E9
:100D800050460F4618F05AFB02460B46304639468D
:100D900018F008FA8CA3D3E9002318F003FA82466E
:100DA00020468B460FF0ECFC064620460FF0F6FC82
:100DB00018F0ACFF9D4919F0B1F80546304618F01F
:100DC000A5FF0146284618F0EDFE054620460FF027
:100DD000F3FC18F09BFF904919F0A0F8294618F091
:100DE000E1FE18F03DFB0022CDE90001904B50469A
:100DF000594618F0D7F914F0FFFF75A3D3E9002383
:100E000004460D4618F010FE68B373A3D3E900231F
:100E10002046294618F0C4F971A3D3E9002318F03D
:100E20009DFC18F021FE18F009FB002206460F4633
:100E3000804B2046294618F0B5F932463B4618F05B
:100E4000B1F9002204460D467B4B3046394618F076
:100E50005BFB14F0D1FF02460B462046294618F0F2
:100E60009FF904460D46204629465FA3D3E9002397
:100E700018F098F95EA3D3E9002304460D4618F054
:100E80008FF95DA3D3E9002318F068FC14F0B4FFD8
:100E900059A3D3E90023CDE9040118F035FB14F080
:100EA000ABFF02460B462046294618F079F954A3B9
:100EB000D3E900238046894618F050FC14F09CFFCB
:100EC0004FA3D3E9002304460D4618F01DFB14F090
:100ED00093FF002206460F4600234046494618F07D
:100EE00061F932463B4618F05BF914F085FF18F0C3
:100EF000BBFD00220646514B2046294618F076FDE0
:100F0000002800F0608200224A4B2046294618F053
:100F100047F914F071FF18F0A7FD0446204618F0B9
:100F2000F5FE4749054619F001F9002840F05782BF
:100F300035A3D3E90023DDE9040118F031F914F0F9
:100F40005BFF18F091FD0746631E012B05D804F1E5
:100F50000C0018F0DBFE013F0546384618F0D6FEBF
:100F60002E49044618F0DAFF18F07AFA14F044FF1C
:100F7000CDE9040120462A4918F0D0FF18F070FA94
:100F800014F03AFFCDE906012046264918F012FF79
:100F900018F066FA14F030FFCDE9080128464FF04A
:100FA0007E5118F0FFFD204918F004FF18F058FAA0
:100FB00014F022FF16A3D3E90023CDE90A0150461D
:100FC00059463FE0AFF3008000000080A2423A4162
:100FD000000000008C8A414100000040D07D3C416F
:100FE0000000000088D5E1400000000000D09740DC
:100FF0000000006066865E400000000000D476407D
:1010000000000020A0993E4000000000006BB240AC
:10101000000000802CB44241000061450000C8423D
:101020000000C84300A0B64301CDF4410000704267
:101030000000E03F0000F03F0000D03F00002B40E8
:101040000000204018F0ACF8002204460D46C04BCA
:10105000DDE9000118F082FB02460B4620462946D6
:1010600018F0A0F89AA3D3E9002382468B4618F023
:1010700075FBDDE904238046894600204FF080415E
:1010800018F08EF8DDE9062318F08CF8DDE9082366
:1010900018F088F8DDE90A2318F084F80446304691
:1010A0000D4618F0CBF902460B462046294618F0AB
:1010B00079F889A3D3E9002318F074F888A3D3E959
:1010C000002318F06DF888A3D3E9002318F01CFA68
:1010D00087A3D3E9002318F065F805E020462946E8
:1010E00000229B4B18F05CF80022994B04460D46F9
:1010F00018F090FC0028F1D1002200232046294658
:1011000018F074FC68B1204629460022904B18F074
:1011100049F80022002304460D4618F067FC002819
:10112000F1D175A3D3E90023DDE9000118F0ECF952
:1011300022462B4618F036F871A3D3E90023044663
:101140000D464046494618F0DFF942464B4618F036
:10115000DBF922462B4618F025F805E02046294603
:1011600000227B4B18F01CF80022794B04460D46F8
:1011700018F050FC0028F1D1002200232046294617
:1011800018F034FC68B1204629460022704B18F054
:1011900009F80022002304460D4618F027FC002819
:1011A000F1D159A3D3E900235046594618F0ACF9C0
:1011B00002460B4656A1D1E9000117F0F1FF56A3F4
:1011C000D3E9002318F0CAFA14F09EFE54A3D3E921
:1011D000002306460F465046594618F095F952A38B
:1011E000D3E9002317F0DEFF02460B4617F0DAFFC3
:1011F00049A3D3E9002318F0B1FA14F085FE4CA3FB
:10120000D3E90023804689465046594618F07CF9B8
:1012100002460B4648A1D1E9000117F0C1FF3EA3E9
:10122000D3E9002318F09AFA14F098FD44A3D3E907
:10123000002382468B463046394618F065F942A3B2
:10124000D3E9002306460F464046494618F05CF9AC
:1012500002460B463046394617F0A2FF52465B461F
:1012600018F052F922462B4617F09CFF05E0204665
:1012700029460022364B17F093FF0022344B0446D8
:101280000D4618F0C7FB0028F1D1002200232046AC
:10129000294618F0ABFB68B12046294600222C4BAA
:1012A00017F080FF0022002304460D4618F09EFB35
:1012B0000028F1D10399274B0022D1E90C0118F045
:1012C0004DFA02460B462046294649E0AFF300801E
:1012D00000000000A0D5E14000000080A2423A4199
:1012E000000000802CB44241000000E05BD2B03F1F
:1012F000000000801CCA1A40000000E0360BF03FDE
:10130000000000605243FB3E00000060C91CAB3F80
:10131000000000608F425F4000000020DCA54C40D0
:10132000000000E0718AEF3F0000002085877140D7
:10133000000000A0F2D79A3E00000000767037400F
:10134000000000A0EEE734BF00000080732AF93EE1
:101350000000384000002E402B4B2046294600223A
:1013600017F01EFF0022284B04460D4618F052FBD2
:101370000028F1D1002200232046294618F036FB30
:1013800068B12046294600221F4B17F00BFF0022B0
:10139000002304460D4618F029FB0028F1D1204611
:1013A00029460022184B18F0D9F913A3D3E90023DA
:1013B00018F0AAF818F058FB72B6039B186062B6D2
:1013C0000FB0BDE8F08F0022104B2046294617F0E1
:1013D000E7FE14F011FD18F047FB04469EE508A354
:1013E000D3E90023DDE9040117F0DAFE14F004FD6F
:1013F00018F03AFB0746A7E500000000C07A6041FC
:1014000000000000006CB2400000384000002A409C
:101410002DE9F04F8DB0039011F0B2F804460FF0B3
:10142000F5F9064620460FF0E3F9054620460FF091
:10143000D1F96B1E012B98BF06F1FF36824630466C
:1014400098BF0C3518F062FCD749834618F066FD4A
:1014500018F006F814F0D0FC804689465846D34967
:1014600018F05CFD17F0FCFF14F0C6FC06460F46B2
:101470005846CF4918F09EFC17F0F2FF14F0BCFC60
:10148000CDE90001284618F041FC4FF07E5118F0DC
:1014900089FBC84918F08EFC17F0E2FF14F0ACFC91
:1014A0004246CDE904014B4600204FF0804117F041
:1014B00077FE32463B4617F075FEDDE9002317F054
:1014C00071FEDDE9042317F06DFE064650460F4617
:1014D00017F0B4FF02460B463046394617F062FE5D
:1014E0009BA3D3E9002317F05DFE824620468B467E
:1014F0000FF046F9064620460FF050F918F006FCAA
:10150000AD4918F00BFD0546304618F0FFFB0146CB
:10151000284618F047FB054620460FF04DF918F015
:10152000F5FBA64918F0FAFC294618F03BFB17F02A
:1015300097FF0022CDE90001A14B5046594617F014
:1015400031FE14F059FC84A3D3E9002304460D4670
:1015500018F06AFA68B382A3D3E90023204629462B
:1015600017F01EFE80A3D3E9002318F0F7F818F057
:101570007BFA17F063FF002206460F46914B204688
:10158000294617F00FFE32463B4617F00BFE0022AD
:1015900004460D468C4B3046394617F0B5FF14F023
:1015A0002BFC02460B462046294617F0F9FD04465F
:1015B0000D46204629466EA3D3E9002317F0F2FD1D
:1015C0006DA3D3E9002304460D4617F0E9FD6CA393
:1015D000D3E9002318F0C2F814F00EFC68A3D3E995
:1015E0000023CDE9040117F08FFF14F005FC02463B
:1015F0000B462046294617F0D3FD63A3D3E9002309
:101600008046894618F0AAF814F0F6FB5EA3D3E9E9
:10161000002304460D4617F077FF14F0EDFB00227F
:1016200006460F4600234046494617F0BBFD3246AA
:101630003B4617F0B5FD14F0DFFB18F015FA002259
:101640008046624B2046294618F0D0F9002800F069
:10165000208200225B4B2046294617F0A1FD14F0A2
:10166000CBFB18F001FA0446204618F04FFB58490E
:10167000054618F05BFD002840F0178244A3D3E92B
:101680000023DDE9040117F08BFD14F0B5FB18F021
:10169000EBF90646631E012B05D804F10C0018F087
:1016A00035FB013E0546304618F030FB3E49044606
:1016B00018F034FC17F0D4FE14F09EFBCDE90401C1
:1016C00020463A4918F02AFC17F0CAFE14F094FBA1
:1016D000CDE906012046364918F06CFB17F0C0FE34
:1016E00014F08AFBCDE9080128464FF07E5118F02E
:1016F00059FA304918F05EFB17F0B2FE14F07CFB8B
:1017000025A3D3E90023CDE90A015046594617F035
:1017100047FD002204460D462E4BDDE9000118F07E
:101720001DF802460B462046294617F03BFD1CA338
:10173000D3E9002382468B4618F010F8DDE9042334
:1017400006460F4600204FF0804145E0AFF3008091
:1017500000000080A2423A41000000008C8A414112
:1017600000000040D07D3C410000000088D5E140F1
:101770000000000000D097400000006066865E40D8
:101780000000000000D4764000000020A0993E40F8
:1017900000000000006BB240000000802CB4424109
:1017A00000000000A0D5E1400000C8420000C8438E
:1017B00000A0B64301CDF441000070420000614535
:1017C0000000E03F0000F03F0000D03F00002B4051
:1017D000000020400000384017F0E2FCDDE906235D
:1017E00017F0E0FCDDE9082317F0DCFCDDE90A2353
:1017F00017F0D8FC044640460D4617F01FFE02467F
:101800000B462046294617F0CDFCAFA3D3E90023B1
:1018100017F0C8FCAEA3D3E9002317F0C1FCAEA3B8
:10182000D3E9002317F070FEADA3D3E9002317F02E
:10183000B9FC05E0204629460022C54B17F0B0FC54
:101840000022C34B04460D4618F0E4F80028F1D1FD
:10185000002200232046294618F0C8F868B1204627
:1018600029460022BA4B17F09DFC002200230446B3
:101870000D4618F0BBF80028F1D19BA3D3E9002353
:10188000DDE9000117F040FE22462B4617F08AFCE6
:1018900097A3D3E9002304460D463046394617F096
:1018A00033FE32463B4617F02FFE22462B4617F0FA
:1018B00079FC05E0204629460022A54B17F070FC74
:1018C0000022A34B04460D4618F0A4F80028F1D1DD
:1018D000002200232046294618F088F868B12046E7
:1018E000294600229A4B17F05DFC00220023044693
:1018F0000D4618F07BF80028F1D17FA3D3E900232F
:101900005046594617F000FE02460B467CA1D1E92D
:10191000000117F045FC7CA3D3E9002317F01EFF5C
:1019200014F0F2FA7AA3D3E9002306460F46504694
:10193000594617F0E9FD78A3D3E9002317F032FCEC
:1019400002460B4617F02EFC6FA3D3E9002317F0D5
:1019500005FF14F0D9FA72A3D3E900238046894623
:101960005046594617F0D0FD02460B466EA1D1E90C
:10197000000117F015FC64A3D3E9002317F0EEFE75
:1019800014F0ECF96AA3D3E9002382468B46304673
:10199000394617F0B9FD68A3D3E9002306460F4680
:1019A0004046494617F0B0FD02460B4630463946E0
:1019B00017F0F6FB52465B4617F0A6FD22462B4673
:1019C00017F0F0FB05E0204629460022604B17F097
:1019D000E7FB00225E4B04460D4618F01BF800287A
:1019E000F1D1002200232046294617F0FFFF68B1FD
:1019F000204629460022564B17F0D4FB0022002334
:101A000004460D4617F0F2FF0028F1D10399514B1F
:101A10000022D1E90C0117F0A1FE02460B46204638
:101A2000294603E04A4B20462946002217F0B8FB1E
:101A30000022474B04460D4617F0ECFF0028F1D179
:101A4000002200232046294617F0D0FF68B1204627
:101A5000294600223E4B17F0A5FB00220023044636
:101A60000D4617F0C3FF0028F1D120462946002279
:101A7000374B17F073FE32A3D3E9002317F044FD70
:101A800017F0F2FF72B6039B186062B60DB0BDE8A6
:101A9000F08F0022304B2046294617F081FB14F0CE
:101AA000ABF917F0E1FF0446DEE527A3D3E90023F5
:101AB000DDE9040117F074FB14F09EF917F0D4FF70
:101AC0000646E7E5AFF3008000000080A2423A41FD
:101AD000000000802CB44241000000E05BD2B03F27
:101AE000000000801CCA1A40000000E0360BF03FE6
:101AF000000000605243FB3E00000060C91CAB3F89
:101B0000000000608F425F4000000020DCA54C40D8
:101B1000000000E0718AEF3F0000002085877140DF
:101B2000000000A0F2D79A3E000000007670374017
:101B3000000000A0EEE734BF00000080732AF93EE9
:101B400000000000C07A604100000000006CB2405C
:101B50000000384000002E4000002A40FFFFFFFF39
:101B60002DE9F04F89B010F00BFD04460EF04EFE4B
:101B7000064620460EF03CFE054620460EF02AFEA4
:101B80006B1E012B98BF06F1FF368246304698BF88
:101B90000C3518F0BBF8D849834618F0BFF917F098
:101BA0005FFC14F029F9804689465846D34918F05D
:101BB000B5F917F055FC14F01FF906460F465846C4
:101BC000CF4918F0F7F817F04BFC14F015F9CDE9F0
:101BD0000001284618F09AF84FF07E5117F0E2FF06
:101BE000C84918F0E7F817F03BFC14F005F9424635
:101BF000CDE902014B4600204FF0804117F0D0FAAA
:101C000032463B4617F0CEFADDE9002317F0CAFA58
:101C1000DDE9022317F0C6FA064650460F4617F0D4
:101C20000DFC02460B463046394617F0BBFA9CA322
:101C3000D3E9002317F0B6FA824620468B460EF011
:101C40009FFD064620460EF0A9FD18F05FF8AE494C
:101C500018F064F90546304618F058F80146284651
:101C600017F0A0FF054620460EF0A6FD18F04EF82E
:101C7000A64918F053F9294617F094FF17F0F0FB26
:101C80000022CDE90001A24B5046594617F08AFACE
:101C900014F0B2F884A3D3E9002304460D4617F0EC
:101CA000C3FE68B382A3D3E900232046294617F078
:101CB00077FA81A3D3E9002317F050FD17F0D4FE83
:101CC00017F0BCFB002206460F46924B20462946E1
:101CD00017F068FA32463B4617F064FA00220446D1
:101CE0000D468D4B3046394617F00EFC14F084F843
:101CF00002460B462046294617F052FA04460D4686
:101D0000204629466EA3D3E9002317F04BFA6EA3B1
:101D1000D3E9002304460D4617F042FA6CA3D3E939
:101D2000002317F01BFD14F067F869A3D3E9002323
:101D3000CDE9020117F0E8FB14F05EF802460B460D
:101D40002046294617F02CFA63A3D3E900238046E6
:101D5000894617F003FD14F04FF85FA3D3E9002381
:101D600004460D4617F0D0FB14F046F80022064654
:101D70000F4600234046494617F014FA32463B46C8
:101D800017F00EFA14F038F817F06EFE00228046B5
:101D9000624B2046294617F029FE002800F0E18119
:101DA00000225C4B2046294617F0FAF914F024F87B
:101DB00017F05AFE0446204617F0A8FF584905467A
:101DC00018F0B4F9002840F0D88145A3D3E90023E6
:101DD000DDE9020117F0E4F914F00EF817F044FE03
:101DE0000646631E012B05D804F10C0017F08EFF88
:101DF000013E0546304617F089FF3F49044618F07A
:101E00008DF817F02DFB13F0F7FF06460F4620461E
:101E10003A4918F083F817F023FB13F0EDFFCDE9F2
:101E200002012046364917F0C5FF17F019FB13F0E1
:101E3000E3FFCDE9040128464FF07E5117F0B2FED2
:101E4000304917F0B7FF17F00BFB13F0D5FF26A3AF
:101E5000D3E90023CDE906015046594617F0A0F911
:101E6000002204460D462F4BDDE9000117F076FCF9
:101E700002460B462046294617F094F91CA3D3E9E5
:101E8000002382468B4617F069FC32463B460446E7
:101E90000D4600204FF0804117F082F944E000BF6A
:101EA00000000080A2423A41000000008C8A4141BB
:101EB00000000040D07D3C410000000088D5E1409A
:101EC0000000000000D097400000006066865E4081
:101ED0000000000000D4764000000020A0993E40A1
:101EE00000000000006BB240000000802CB44241B2
:101EF00000000000A0D5E1400000C8420000C84337
:101F000000A0B64301CDF4410000704200006145DD
:101F10000000E03F0000F03F0000D03F00002B40F9
:101F20000000204000003840DDE9022317F03AF9B4
:101F3000DDE9042317F036F9DDE9062317F032F95D
:101F4000064640460F4617F079FA02460B463046E1
:101F5000394617F027F990A3D3E9002317F022F9A7
:101F60008FA3D3E9002317F01BF98FA3D3E9002334
:101F700017F0CAFA8EA3D3E9002317F013F905E08E
:101F8000304639460022A44B17F00AF90022A24B32
:101F900006460F4617F03EFD0028F1D1002200232F
:101FA0003046394617F022FD68B1304639460022E6
:101FB000994B17F0F7F80022002306460F4617F05A
:101FC00015FD0028F1D17CA3D3E90023DDE9000150
:101FD00017F09AFA32463B4617F0E4F878A3D3E9B3
:101FE000002306460F462046294617F08DFA224662
:101FF0002B4617F089FA32463B4617F0D3F805E036
:10200000204629460022844B17F0CAF80022824B52
:1020100004460D4617F0FEFC0028F1D100220023F3
:102020002046294617F0E2FC68B1204629460022E6
:10203000794B17F0B7F80022002304460D4617F03D
:10204000D5FC0028F1D160A3D3E9002350465946BE
:1020500017F05AFA02460B465DA1D1E9000117F0CC
:102060009FF85DA3D3E9002317F078FB13F04CFF32
:102070005BA3D3E9002306460F465046594617F0A6
:1020800043FA59A3D3E9002317F08CF802460B4614
:1020900017F088F850A3D3E9002317F05FFB13F083
:1020A00033FF53A3D3E9002380468946504659465F
:1020B00017F02AFA02460B464FA1D1E9000117F0AA
:1020C0006FF845A3D3E9002317F048FB13F046FE51
:1020D0004BA3D3E9002382468B463046394617F09E
:1020E00013FA49A3D3E9002306460F464046494662
:1020F00017F00AFA02460B463046394617F050F8F8
:1021000052465B4617F000FA22462B4617F04AF873
:1021100005E02046294600223F4B17F041F80022F7
:102120003D4B04460D4617F075FC0028F1D1002206
:1021300000232046294617F059FC68B1204629465D
:102140000022354B17F02EF80022002304460D46DE
:1021500017F04CFC0028F1D12046294609B0BDE813
:10216000F08F00222D4B2046294617F019F813F066
:1021700043FE17F079FC04461DE625A3D3E90023AE
:10218000DDE9020117F00CF813F036FE17F06CFCD5
:10219000064626E6AFF3008000000080A2423A41E6
:1021A000000000802CB44241000000E05BD2B03F50
:1021B000000000801CCA1A40000000E0360BF03F0F
:1021C000000000605243FB3E00000060C91CAB3FB2
:1021D000000000608F425F4000000020DCA54C4002
:1021E000000000E0718AEF3F000000208587714009
:1021F000000000A0F2D79A3E000000007670374041
:10220000000000A0EEE734BF00000080732AF93E12
:1022100000000000006CB2400000384000002A407E
:1022200070B50568044628460E460FF0C7FE864284
:1022300003D0314628460FF0DBFE204670BD00BFBC
:10224000032900D970472DE9F04301EB410505EB67
:10225000C50505F1C80487B00170064620460FF099
:10226000ADFE8DF80C0005F1C9000FF0A7FE8DF84A
:102270000D0005F1CA000FF0A1FE8DF80E0005F16A
:10228000CB000FF09BFE8DF80F00039817F0E8F8D5
:102290000022914B8046894617F0A8FB40B90022E6
:1022A0008E4B4046494617F0BFFB002800F0CA801D
:1022B00006A9002341F8143D002200232046C6E968
:1022C0000223FEF7BBFA82A3D3E90023D6E9020179
:1022D00017F044FA8046894613F040FDC6E90C0128
:1022E0004046494613F010FEC6E90E0105F1CC0048
:1022F0000FF064FE8DF80C0005F1CD000FF05EFECE
:102300008DF80D0005F1CE000FF058FE8DF80E008F
:1023100005F1CF000FF052FE8DF80F00039817F073
:102320009FF800226E4B8046894617F069FB38B94A
:1023300000226C4B4046494617F06CFB00287ED0CB
:1023400006A90023307841F8103D1B27CC24002239
:10235000002307FB0040C6E90423FEF76FFA05F1EE
:10236000D0000FF02BFE8DF80C0005F1D1000FF01E
:1023700025FE8DF80D00BDF80C2002F1C8039BB2BC
:1023800042F208018B4260D8328305F1D2000FF08F
:1023900015FE17F0B7FC544917F0C0FD534917F06C
:1023A000FFFB5349F062044617F0A2FE002835D126
:1023B00005F1D30406F11A08E23506F119072046A3
:1023C0000FF0FCFD013407F8010F18B3A542F6D158
:1023D0003278484903A818F0E9FC03A818F010FF68
:1023E000421C0F2A05464ED939A3D3E90023D6E96A
:1023F000020117F0B3F904460D4613F0AFFCC6E92D
:102400000C012046294613F07FFDC6E90E0107B0F6
:10241000BDE8F083B37E002BDAD0E5E720463349F0
:1024200017F084FE0028C3D032780023F3621B200B
:10243000D22300FB023078210FF0DAFDB8E7C6E9BD
:1024400004898CE7C6E9028950E7347804EB440438
:1024500004EBC40404F1D0074FF000083846A6F896
:1024600018800FF0ABFD18B1414638460FF0C0FDA3
:10247000D13420460FF0A2FD002886D0204600214E
:102480000FF0B6FD81E703A940460FF07DFC96F8FA
:10249000009009EB490909EBC90909F1D3090024A6
:1024A0000EE00FF08BFD18F804508542294638469F
:1024B00001D00FF09DFD404618F0A2FE0134054604
:1024C00009EB0407A5423846EBDA8DE7AFF300804D
:1024D00000000020DCA54C40008056C00080564023
:1024E000008076C00080764000002041000040411E
:1024F000000040C1CC050200437810B504780BB150
:1025000044F0020483780BB144F004040D200FF072
:1025100055FD844205D021460D20BDE810400FF046
:1025200067BD10BDFFFFFFFF10B5044608462378C6
:10253000022B1AD0032B07D0012B00D010BD6068EE
:10254000BDE810400EF0E4BA16F068FF10A3D3E91E
:10255000002317F003F917F0AFFA4FF07A5281B267
:10256000E068BDE810400FF067BA16F057FF08A307
:10257000D3E9002317F0F2F817F09EFA4FF07A52E1
:1025800081B2A068BDE810400FF0B4BAAFF300808C
:10259000CD3B7F669EA0F63F10B50446084616F078
:1025A0004DFF0B4602464FF08041002013F0D0FD56
:1025B00017F05AFA2378022B10D0032B08D0012BE6
:1025C00000D010BD01466068BDE810400EF036BC7A
:1025D00081B2E068BDE810400FF090BA81B2A06807
:1025E000BDE810400FF08ABAF8B500200FF0E6FC05
:1025F000431EDBB2032B7C4B00F2D5800128187000
:1026000000F0D38004287949794B4FF0000014BFC3
:102610000322012208701A701D200FF0CFFC17F062
:1026200075FB744917F0C6FB16F01AFF0022002351
:1026300004460D4617F0D0F940B900226E4B2046F3
:10264000294617F0F1F9002800F0B6806B4B6C4D6D
:1026500000241E211D20C3E900450FF0C9FC2120E4
:102660000FF0ACFC674BA0F1800222201A600FF043
:10267000A5FC654B186034200FF0A0FC803817F0E3
:1026800045FB624917F096FB614917F047FC0021B2
:10269000044617F041FD002800F096804FF07C5171
:1026A000204617F07FFA17F061FD80EAE073A3EB94
:1026B000E073B42B574BCCBF3C2218604FF0350071
:1026C000C8BF1A600FF07AFC803817F01FFB4F4923
:1026D00017F070FB4E4917F021FC0021044617F05B
:1026E0001BFD002878D04FF07C51204617F05AFA95
:1026F00017F03CFD80EAE073A3EBE073B42B464B8C
:10270000CCBF3C2218604FF03600C8BF1A600FF0F3
:1027100055FC16F083FE0022404B17F01FF80022F4
:102720003F4B04460D4617F061F938B900223D4B86
:102730002046294617F078F9002841D03A4B39490C
:102740000020C3E90001394E39493A4D3A4F706BC8
:102750003A4C00220023C7E90423C1E90423C5E958
:102760000C2316F06BFE364BC4E90601586B16F0CD
:1027700065FED6E90A23C5E906010920C4E90C2350
:102780000FF01CFC2F4B022894BF024600222C2085
:102790001A700FF013FC2C4B186030200FF00EFC59
:1027A0002A4B1860F8BD01221A701049104B022004
:1027B000032208701A702FE7104BC3E900454EE75B
:1027C000194BC3E90045BEE74FF07C51204617F096
:1027D000E7F917F0CBFC68E74FF07C51204617F083
:1027E000DFF917F0C3FC85E7D087FF1F9498FF1F20
:1027F000C599FF1FCDCCCC3D000039407887FF1F25
:10280000000008405093FF1FA498FF1F0000704273
:10281000000070411C98FF1F9098FF1F000024408B
:1028200000002240000028402098FF1FA898FF1FAA
:102830000896FF1FD893FF1FE895FF1F6893FF1F9F
:10284000F098FF1FA096FF1F5496FF1F8C94FF1F48
:102850002DE9F04FA04CA14D93B000230027059324
:10286000049303930293019300931A4619468046FA
:102870002F7020460CF03AFC4FF4AC7084F82171B4
:102880000FF09CFB012800F09580954B1B78033BD3
:10289000012B40F2F680934C934DD4E90C01D4E91E
:1028A0000E232D78CDE90C01CDE90E23002D3FD06C
:1028B000E568A6688D4B30462946002217F0B4F82B
:1028C000002835D0304629460022002317F0ACF806
:1028D000002800F0D38032462B4612AF67E902236E
:1028E000824B0022CDE9002338460022804B0DF0B8
:1028F0005DF800220023D4E9020117F077F80028E0
:1029000040F0B780109A119B104619466EA3D3E988
:10291000002316F023FF04460D4613F01FFACDE9FD
:102920000C012046294613F0EFFACDE90E0100E034
:1029300010AFDFF8C8916F4901974FF000080EAE55
:102940000CAD0AAC42464B4600200396029500941B
:102950000DF036F9DDE91023DDE90A01CDE90423A4
:10296000CDE902010022634B5B48CDE900890CF000
:102970009BFC42464B4656A1D1E9000103960295C5
:102980008DE890000DF01CF9DDE91023DDE90A0166
:10299000CDE90423CDE90201CDE900894E484CA3DD
:1029A000D3E900230CF080FC4B480CF0CBFC13B0B7
:1029B000BDE8F08FB8F1000F55D1064610A94FF4CD
:1029C0009A70FDF76BFD10A94FF49C70109FFDF7F6
:1029D00065FD109A099210A94FF49E70FDF75EFDF7
:1029E00010A94FF4A070DDF84080FDF757FD109B53
:1029F000079310A94FF4A270FDF750FD10A94FF4F2
:102A0000A470DDF84090FDF749FD10A94FF4A670C1
:102A1000DDF840A0FDF742FD10A94FF4A870DDF8E5
:102A200040B0FDF73BFD109B089310A94FF4AA702E
:102A3000FDF734FD079B10980093089B0493099AB7
:102A40000590434639462046CDF80CB0CDF808A095
:102A5000CDF804900CF04AFB20460CF07FFB2E7062
:102A600013B0BDE8F08F39464FF4AC700FF0C0FAE8
:102A70000BE7119B109A03F1004345E705F1004570
:102A800029E71D4F144800240025002622462B4626
:102A9000CDE90445CDE90045CDE902670CF004FC21
:102AA00014490020CDE90401CDE90001CDE9026718
:102AB00022462B4608480CF0F7FB07480CF042FC76
:102AC00075E700BFAFF3008000000020DCA54C409C
:102AD0000000000000E070409894FF1F5996FF1F0F
:102AE000D087FF1FD099FF1F4C93FF1F0000244089
:102AF00000908F4000805640008066400080464035
:102B000038B51F4B1B78DA1E012A22D91D4A012B2A
:102B1000D2E902451C4B14BF0021596B19600022F9
:102B200000232046294616F061FF184B5A6B20BB44
:102B30001A60204629460023002216F075FF4FF048
:102B4000010300B9034683F00103114ADBB213709D
:102B500038BD0C4BD3E9024500220023204629460C
:102B600016F044FF084B30B9084A1860536B1360E5
:102B700020462946DFE7186BF6E75242D8E700BF48
:102B8000D087FF1FD099FF1FA898FF1FF098FF1F45
:102B9000D896FF1F30B56E2083B00FF00FFA8DF876
:102BA00006006F200FF00AFA7C4B8DF80700BDF885
:102BB00006201A6064200022DA600FF0FFF98DF819
:102BC000060065200FF0FAF9754C8DF80700BDF886
:102BD0000630236068200FF0F1F98DF806006920B7
:102BE0000FF0ECF98DF80700BDF8063063606A203D
:102BF0000FF0E4F9431EDBB2072B00F2C280207213
:102C00006B200FF0DBF9031C18BF01236C206372EB
:102C10000FF0D4F900B200EB800000EB80008000E0
:102C2000A0F1C80140F6282291425D4B00F2A1803C
:102C300018616D200FF0C2F900B200EB800000EBCC
:102C400080008000A0F1C80240F628239A4200F2DA
:102C50008880E06070200FF0B1F9031C18BF0123D9
:102C60007C20A3720FF0AAF98DF806007D200FF0EA
:102C7000A5F94C4B8DF80700BDF806201A607220AC
:102C80000022DA600FF09AF98DF8060073200FF039
:102C900095F9454C8DF80700BDF806302360762085
:102CA0000FF08CF98DF8060077200FF087F98DF87A
:102CB0000700BDF80630636078200FF07FF9431EEF
:102CC000DBB2072B41D8207279200FF077F9031C73
:102CD00018BF01237A2063720FF070F900B200EB85
:102CE000800000EB80008000A0F1C80140F628229F
:102CF00091422D4B21D818617B200FF05FF900B273
:102D000000EB800000EB80008000A0F1C80240F6DC
:102D100028239A4209D8E0607E200FF04FF9003056
:102D200018BF0120A07203B030BD4FF47A730A219E
:102D30007B20E3600FF05CF9EEE74FF47A720A2132
:102D40007A201A610FF054F9D6E70425782025720D
:102D50000FF034F9A842B7D0294678200FF048F98F
:102D6000B2E74FF47A730A216D20E3600FF040F967
:102D700070E74FF47A720A216C201A610FF038F96B
:102D800057E704256A2025720FF018F9A8423FF48E
:102D900037AF29466A200FF02BF931E79099FF1FD2
:102DA0003898FF1FA899FF1F5C98FF1F08B56E2079
:102DB0000FF004F918B100216E200FF019F96F20FF
:102DC0000FF0FCF818B100216F200FF011F964200A
:102DD0000FF0F4F8082803D0082164200FF008F958
:102DE00065200FF0EBF8072803D0072165200FF0CE
:102DF000FFF868200FF0E2F8C82803D0C821682047
:102E00000FF0F6F869200FF0D9F818B10021692009
:102E10000FF0EEF804216A200FF0EAF800216B2091
:102E20000FF0E6F80A216D200FF0E2F80A216C207D
:102E30000FF0DEF8702000210FF0DAF87C200FF0A0
:102E4000BDF818B100217C200FF0D2F87D200FF0E2
:102E5000B5F818B100217D200FF0CAF872200FF0EC
:102E6000ADF8082803D0082172200FF0C1F87320B4
:102E70000FF0A4F8072803D0072173200FF0B8F84B
:102E800076200FF09BF8C82803D0C82176200FF0D9
:102E9000AFF877200FF092F818B1002177200FF0EB
:102EA000A7F8042178200FF0A3F8002179200FF073
:102EB0009FF80A217B200FF09BF80A217A200FF05F
:102EC00097F800217E20BDE808400FF091B800BFC0
:102ED00010B572B6094CD4E9060116F0C5FD236998
:102EE000C01A206262B672B6054CD4E9060116F02B
:102EF000BBFD2369C01A206262B610BD6893FF1F34
:102F0000D893FF1FFFFFFFFF7E4A13682DE9F04FA4
:102F1000013313607C4BDFF8FCB11B7895B0002BBC
:102F200000F01481794D7A4CDFF8F0A1D5E9122335
:102F3000CDE91023D4E91223CDE912239BF8083000
:102F4000744A33B1D2E90401734B0122CDE9100177
:102F50001A709AF80830714A33B1D2E90401704B03
:102F60000122CDE912011A706E4B1B781BB1664B22
:102F70001B78002B42D06C4CDDE91001D4E9002312
:102F800016F02AFDB8B9DDE9100172B60022674BD0
:102F900016F0BAFA0022664B16F0B6FA0022654B1C
:102FA00016F0FEF816F088FD634B186062B6DDE996
:102FB0001023C4E90023614CDDE91201D4E90023A8
:102FC00016F00AFDB8B9DDE9120172B60022574BBE
:102FD00016F09AFA0022564B16F096FA0022554B3C
:102FE00016F0DEF816F068FD554B186062B6DDE9A4
:102FF0001223C4E9002315B0BDE8F08F9BF8083018
:10300000002B3CD1DFF810B19BF80030002B36D0FC
:103010004C4B1B78002B32D172B6D5E9060116F065
:1030200023FD2B69C01A286262B62B6A0A930A9B99
:10303000002B40F3FC820A9816F000FA8046286EB6
:10304000894616F0FBF9D5E9162316F05DFA002241
:10305000384B06460F4616F0DDFC08B9354F002602
:1030600032463B464046494616F0C0FC002840F038
:103070001F8272B6D5E91023CDE9102362B69AF803
:103080000830002B7FF477AF254D2B78002B3FF4D1
:1030900072AF2D4B1B78002B7FF46DAF72B6D4E965
:1030A000060116F0E1FC2369C01A206262B6236AA9
:1030B0000B930B9B002B40F3BD820B9816F0BEF9CF
:1030C0008046206E894616F0B9F9D4E9162316F029
:1030D0001BFA0022174B06460F4616F09BFC08B958
:1030E000144F002632463B464046494616F07EFCC9
:1030F000002840F0D88172B6D4E91023CDE912231C
:1031000062B638E7B897FF1F7096FF1F6893FF1FDE
:10311000D893FF1F9099FF1F2898FF1FA899FF1FA2
:103120002998FF1F8198FF1F7899FF1F0000024018
:103130000000E03F0000F03F8087FF1F8099FF1FE5
:10314000D487FF1FE895FF1F0896FF1FFFF7C0FEFB
:103150009BF80830002B00F09380814B814E824D0C
:10316000824C0193D5E91401D6E9002316F01AF830
:1031700021F00047394600227D4B064616F04AFCF6
:1031800008B97B4F0026CDE90C67D5E90E01DDE9D2
:103190000C2316F0E3FA774BD3E9008942464B46FD
:1031A00006460F4616F036FC08B946464F46DFF88D
:1031B000ECA1C5E91267FFF78BFE9AF80830002BE7
:1031C00040F0C680DFF8B89199F80030002B00F08D
:1031D000BF80D9E90623104623F000410022664B48
:1031E000DFF8B48116F002FC002853D0D8E90023A0
:1031F000104623F0004100225F4B16F0F7FB002839
:1032000048D0D9E90623C8E9002399F80030622B99
:1032100000F05A81D4E91401D8E9002315F0C2FF67
:1032200021F0004739460022514B064616F0F2FBCA
:1032300008B94F4F0026CDE90E67D4E90E01DDE94C
:103240000E2316F08BFA4D4BD3E9008942464B46CC
:1032500006460F4616F0DEFB08B946464F46C4E95F
:103260001267019B1B78002B7FF460AE444B1B78E8
:1032700003F0FF02002B7FF459AE424B1A7055E663
:10328000374B01931B78002B40F08A80354E364D2A
:10329000364C67E73C4B1B78002B40F01F82002226
:1032A0000023D9E9060116F0A1FB0022002840F016
:1032B0001A82364B364E324FC6E9002399F8003059
:1032C000622B00F07482D4E902231046194615F0EF
:1032D00069FFD6E9006720A3D3E9002316F014F9AB
:1032E00032463B4616F010F9D8E90067294BD3E97E
:1032F000082316F033FA32463B4615F053FFC8E96F
:10330000000100220023D8E9000116F06FFB224ED5
:103310000022002840F0C581D6E90001164B16F0C6
:103320006FFB002840F0CD80D6E90023C8E90023D8
:10333000D9E90601D8E90023174E114F16F056FBC4
:10334000002800F0C581D7E90623C8E900235CE71F
:10335000DFF844805EE700BF00000040E17A843F70
:10336000E895FF1F6096FF1F6893FF1FD893FF1F0C
:103370000000D03FC887FF1F000030402887FF1F94
:103380000896FF1F6494FF1F6E99FF1F0000F03F17
:103390003098FF1FF098FF1F6896FF1FA899FF1F26
:1033A000019BA94ED3E90623104623F000410022D9
:1033B000A64B16F01BFB50B1D6E90023104623F0B4
:1033C00000410022A14B16F011FB00285FD1A04B59
:1033D0001B78002B40F07F81019900220023D1E966
:1033E000060116F003FB0022002840F07A81994B79
:1033F000994C9A4F9A4DC4E90023019B1B78622B8C
:1034000000F07B81D5E902231046194615F0CAFE6B
:10341000D4E900898AA3D3E9002316F075F842465F
:103420004B4616F071F8D6E900898E4BD3E9082394
:1034300016F094F942464B4615F0B4FEC6E9000179
:1034400000220023D6E9000116F0D0FA7E4C0022BB
:10345000002840F00B81D4E900017C4B16F0D0FA33
:1034600000282BD1D4E90023C6E90023019B764C28
:103470007A4FD3E90601D6E9002316F0B7FA0028FF
:1034800000F00C81D7E90623C6E9002305E0019B83
:10349000734DD3E90623C6E90023019B1B78622BF9
:1034A0006BD0714C5EE672B600232B7062B662E59B
:1034B00072B600238BF8003062B6E0E50022634B61
:1034C000D2E70022614B31E7236A0893089B0898F2
:1034D000002BD8BF404215F0B1FFCDE90201206EAC
:1034E00015F0ACFFD4E9162316F00EF80022594B64
:1034F00006460F4616F08EFA002800F0FB80324692
:103500003B46DDE9020116F071FA00283FF482AE75
:1035100000220021002389F80010C9E90623C8E928
:1035200000232B6A0993099B09988B42D8BF40421C
:1035300015F084FFCDE90201286E15F07FFFD5E973
:10354000162315F0E1FF0022424B06460F4616F007
:1035500061FA002800F08C8132463B46DDE9020129
:1035600016F044FA00283FF455AE394B1B78002B77
:103570007FF450AEFDF708FA4CE62B6A0693069BE3
:103580000698002BD8BF404215F058FFCDE9020144
:10359000286E15F053FFD5E9162315F0B5FF00226C
:1035A0002C4B8046894616F035FA002800F09D80A5
:1035B00042464B46DDE9020116F018FA00283FF4B6
:1035C00070AF019C0022002100232170C4E9062372
:1035D000C6E90023244C236A0793079B07988B4274
:1035E000D8BF404215F02AFFCDE90201206E15F048
:1035F00025FFD4E9162315F087FF0022154B8046DE
:10360000894616F007FA002800F0358142464B46FD
:10361000DDE9020116F0EAF900283FF4A3AD0C4BF6
:103620001B78002B7FF49EADFDF7AEF99AE50A9862
:10363000404201E50B98404240E500BFAFF30080F7
:1036400000000040E17A843F6096FF1F0000304098
:103650006E99FF1F0000F03F3098FF1FE895FF1F95
:103660006893FF1FA898FF1FD893FF1FD4E900019C
:10367000914B16F0D9F9002840F0F480D4E90023EA
:10368000C6E90023019B8D4C8D4FD3E90601D6E995
:10369000002316F0BFF900287FF4F4AED4E900232C
:1036A000F2E6D6E90001844B16F0BEF9002840F09E
:1036B000DC80D6E90023C8E90023D9E90601D8E96E
:1036C0000023804E804F16F0A5F900287FF43BAE12
:1036D000D6E9002339E6FDF7E3F87DE6FDF7E0F8EB
:1036E000DDE57A4B84E6794BE4E54FF00008DFF83E
:1036F000E0915DE70026764F01E7D6E90023CDE9AA
:103700000223D5E902231046194615F04BFDD4E9F2
:10371000008967A3D3E90023DFF8C8A115F0F4FE00
:1037200042464B4615F0F0FEDAE9082316F016F88B
:1037300002460B46DDE9020115F032FDDFF89C81FF
:10374000DFF89C91C8E90001286A15F077FE21F0A6
:1037500000431946D5E90223CDE9022300225D4B3F
:1037600015F0D2FEDDE9022315F0CEFE12F068FE60
:10377000D4E9002315F0C8FEDAE9082315F0EEFFBE
:10378000C9E90001D7E906010022002316F02EF94D
:10379000002875D1D8E90001D9E9002316F026F9EF
:1037A000002875D0D8E90023C6E9002348E6D8E907
:1037B0000023CDE90223D4E902231046194615F06F
:1037C000F1FCD6E90023CDE9042339A3D3E9002392
:1037D00015F09AFEDDE9042315F096FE3E4BD3E981
:1037E000082315F0BBFF02460B46DDE9020115F088
:1037F000D7FC3A4BC3E90001206A15F01FFE21F007
:1038000000431946D4E90223CDE902230022314BBB
:1038100015F07AFEDDE9022315F076FE12F010FEB7
:10382000D6E9002315F070FE2B4BD3E9082315F0E1
:1038300095FF2B4BC3E9000100220023D7E90601C5
:1038400016F0D4F8254B30BBD3E90001244BD3E963
:10385000002316F0CBF838B3204BD3E90023C8E996
:1038600000234EE50022144B0AE70022124B22E708
:103870000026174F70E64FF00008DFF85490C5E6B9
:10388000D8E90001D9E9002316F0C4F8002889D14D
:10389000D9E9002388E7D3E90001114BD3E90023DC
:1038A00016F0B8F80028D7D10D4BD3E90023D6E79E
:1038B00000000040E17A843F000030C06096FF1FA6
:1038C000E895FF1F6896FF1F0896FF1F0000F0BFD6
:1038D0000000F03F00001040F098FF1F3096FF1FDF
:1038E0003896FF1FA898FF1F70B50E4D0E4C0F4E57
:1038F000D5E91601D4E91623C5E91401C4E9142356
:10390000D6E90A01D5E9142315F0FEFD084EC5E9F4
:103910000C01D4E91423D6E90A0115F0F5FDC4E938
:103920000C0170BD6893FF1FD893FF1FA898FF1F5D
:10393000F098FF1FFFFFFFFF2DE9F843264B24A15E
:10394000D1E90001D3E9002315F008FF234B064617
:103950000F46D3E900231EA1D1E9000115F0FEFEB8
:1039600004460D4672B61E491E4B0022D1E90001E5
:1039700015F0CAFD1C4BD3E904238046894615F097
:10398000C3FD02460B463046394615F0E7FE324687
:103990003B4615F0B9FD154A154BC2E90201D3E9C2
:1039A00004234046494615F0AFFD02460B4620462B
:1039B000294615F0D3FE2B46224615F0A5FD0D4BEA
:1039C000C3E9020162B6BDE8F88300BFAFF300802F
:1039D0000000000080846E41C887FF1F2887FF1FFA
:1039E0007887FF1F00001040A898FF1F6893FF1FF3
:1039F000F098FF1FD893FF1F2DE9F047041E43DB0B
:103A0000042CA8BF0424214B214D21B303EBC40394
:103A1000D3E90067DFF890A01E4BE4B2C5E9006768
:103A2000CAE900671C7072B61B491C4E1C4CD5E9D4
:103A30000023D1E90A0115F067FD1A4DC6E904011A
:103A4000DAE90023D5E90A0115F05EFDC4E90401B5
:103A500062B6BDE8F08703EBC403D3E90067D5E99C
:103A600000893046394642464B4615F0B5FFDFF82F
:103A700038A00028D0D040464946DAE9002315F0A6
:103A8000ABFF0028C8D0E4E70024BCE78887FF1F0D
:103A9000C895FF1FE887FF1FA898FF1FE895FF1F25
:103AA0000896FF1FF098FF1FD095FF1FFFFFFFFF35
:103AB0002DE9F04F5E4B87B0D3E9082382468B4651
:103AC00059A1D1E9000115F049FE5A4BCDE9000199
:103AD000D3E9082354A1D1E9000115F03FFE524675
:103AE000CDE902015B46DDE9000115F037FE002259
:103AF000514B06460F4615F08DFF08B94E4F002674
:103B0000DFF8449152465B46DDE90201C9E90067EE
:103B100015F024FE0022484B04460D4615F07AFFAE
:103B200008B9454D0024DFF8248132463B46DDE9E3
:103B30000001C8E9004515F011FE22462B46064655
:103B40000F46DDE9020115F009FE04460D46024666
:103B50000B463046394615F049FF08B134463D461C
:103B600022462B465046594615F01AFB07460E468C
:103B7000384631460022002315F056FF00284FD06A
:103B80003846314600224FF0804315F04DFF58BBB8
:103B900022462B46DDE9000115F0E0FD22462B46CA
:103BA000C9E90001DDE9020115F0D8FD234EC8E99D
:103BB0000001D6E9062320462946C6E9084515F046
:103BC0001FFF38B11E4B002240211920C6E90623F1
:103BD0000EF00EFA1B4B01211878FFF70DFF07B00E
:103BE000BDE8F04FFFF7A8BE2946204615F03CFF80
:103BF00001461A20CEB205910EF0E0F9864203D0BC
:103C000031461A200EF0F4F91B200EF0D7F99DF87A
:103C100015608642BCD031461B200EF0E9F9B7E7AB
:103C200006F10046ACE700BF0000000080846E4152
:103C3000A898FF1FF098FF1F000074408887FF1F9F
:103C400000005040E887FF1FC887FF1F2887FF1F1D
:103C500000B51A2083B00EF0B1F98DF806001B20D4
:103C60000EF0ACF98DF80700BDF8060015F0E6FB84
:103C700003B05DF804EBFFF71BBF00BF012870B570
:103C800014461D461AD0022800D070BD124E1046B0
:103C90001946D6E9002315F09FFE0028F5D1C6E9A4
:103CA000004572B60D490E4CD6E90023D1E90A0150
:103CB00015F02AFCC4E9040162B670BD0949D1E9D6
:103CC000000115F089FE0028DFD120462946BDE815
:103CD0007040FCF717BD00BFD095FF1FF098FF1F85
:103CE0000896FF1FC895FF1F2DE9F843184B194C84
:103CF000194DD3E90067D4E9008930463946424678
:103D00004B4615F069FE30B140464946D5E90023DF
:103D100015F062FEC8B9C4E90067C5E9006772B66C
:103D20000E490F4F0F4ED4E90023D1E90A0115F0D7
:103D3000EBFB0D4CC7E90401D5E90023D4E90A01E6
:103D400015F0E2FBC6E9040162B6BDE8F88300BFE6
:103D50008887FF1FC895FF1FD095FF1FA898FF1FDA
:103D6000E895FF1F0896FF1FF098FF1F2DE9F04709
:103D7000604B1B788AB053B95F4B5B783F2B00F0E8
:103D80009E805E4E302333800AB0BDE8F08700236A
:103D90003A22049303930593069307930893ADF88F
:103DA000243002920FF09EFD01E00FF0D3FD0FF0E2
:103DB000BDFD0028F9DC02AD284617F021FA4E4C73
:103DC0002844214617F018F802224D49471B0DF0F0
:103DD000DBFF6378213B5D2B6DD8DFE803F02F6CB0
:103DE0006C2F6C6C6C6C6C6C2F6C2F6C6C696969D3
:103DF0006969696969696C6C6C6C6C6C3B6C6C6C46
:103E0000696C6C6C2F6C696C6C6C3B6C692F2F6CE3
:103E10002F6C6C3B696C6C6C6C6C6C6C6C6C6C6C53
:103E2000696C6C6C2F6C696C6C6C696C696C6C691E
:103E30002F6C6C6C6C3B6C6C6C6C6C3B791C28460E
:103E40000FF0C0FC0FF04EFD2C4B00221A700AB090
:103E5000BDE8F0874FF000092A4C284E791C28460F
:103E60000FF0B0FC0FF03EFD236800930027009D8B
:103E7000B046BA4623680193019B5B1B272B81D870
:103E80000FF054FD0028F5DD0FF064FDC0B22328CB
:103E90001ED00137322F88F800003FF473AF08F8C6
:103EA00001AFB9F1000FE5D031283FF46DAF69E7FC
:103EB0004FF00109D0E7114B30221A8064E7124B12
:103EC0000E4A1B6813801B0C93700AB0BDE8F08784
:103ED000B9F1000F08D0312F88F800003FF452AF3D
:103EE000002388F801304DE7F319F05583F801906D
:103EF0004AE700BF5493FF1FA496FF1F3C99FF1F82
:103F0000D8050200349AFF1FD4050200124B93F823
:103F10004820D2B110B411485C6D026883B041F200
:103F200087310092009A121B8A4210D893F83820E9
:103F30006AB102680192586C019B1B1A8B428CBFBC
:103F40000020012003B010BC704700207047002003
:103F500003B010BC704700BFE096FF1F349AFF1FEC
:103F6000114B1A78D2B110B410485C6B026883B060
:103F700041F287310092009A121B8A4210D893F8BE
:103F800078206AB102680192D86F019B1B1A8B429C
:103F90008CBF0020012003B010BC70470020704788
:103FA000002003B010BC7047E096FF1F349AFF1F3B
:103FB00010B5FFF7ABFF0446FFF7D2FF2040C0B2B9
:103FC00010BD00BF2DE9F04F2D4E2E4D33682968EE
:103FD0008DB041F288320193019B5B1A934204D861
:103FE000294B18780DB0BDE8F08F284C94E80F00ED
:103FF00004AF103487E80F0094E80F0008AC84E8A1
:104000000F0038460CF072FA804638460CF07EFA03
:10401000834638460CF08EFA824620460CF096FA1B
:10402000814620460CF09EFA074620460CF0B0FA76
:104030000CAB08F14E0803F8280D18468DF80DB0AA
:104040008DF80E808DF80CA08DF80A908DF809700F
:104050000CF0ECFB04460EF093FA041B3368029359
:10406000002CB8BF64420A49074A029B0861042C2D
:10407000CCBF0020012010702B600DB0BDE8F08F88
:10408000349AFF1FC496FF1FCC99FF1F1897FF1F7C
:10409000B897FF1FFFFFFFFF2DE9F04F424D434C44
:1040A0002B68216893B041F288320293029B5B1A1D
:1040B000934204D83E4B187813B0BDE8F08F3D4FC3
:1040C0003D4ED7F880B00FCF0DF1100EAEE80F00C7
:1040D0000FCFAEE80F000FCFAEE80F0097E8030058
:1040E0008EE8030004A8D6E904890CF0E3F902463F
:1040F0000B464046494615F055F80BF087FBD6E9CC
:104100000223824604A80F46CDE900230CF0B6F93D
:1041100023A3D3E9002380468946504627F0004177
:1041200015F064FCB6F9186060B342464B46DDE911
:10413000000115F035F821F00043194618A3D3E922
:10414000002315F053FCE8B1304615F077F9064628
:1041500058460F4615F0DAFD184915F0DFFE15F048
:104160007FF902460B463046394615F019F821F022
:10417000004319460022124B15F038FC4FF00103A2
:1041800048B1D8B22B680393039A094B2260187088
:1041900013B0BDE8F08F0346F3E700BFAFF3008034
:1041A00000000040E17A843F349AFF1F4894FF1FCB
:1041B000C096FF1FE096FF1FD099FF1F0000C84266
:1041C0000000594010B51C4B5B782B2B02D02D2BD7
:1041D00000D010BD194C2068FF2811DDFF202D2BC9
:1041E000206013D02B2B1ED01E28DCBF1F20206088
:1041F000014606200EF0DEF9114B00221A7010BDA8
:104200001E28DCBF1F2020602D2BEBD115F07EFD7A
:104210000C4915F083FE15F0A9FF2060FF28E3DDAF
:10422000FF202060E4E715F071FD064915F0C2FD9E
:1042300015F09CFF2060F1E7A496FF1FEC87FF1F9D
:104240003C99FF1F3333B33F0E4B5B78ABB90E4A3B
:10425000127810B502F0FF010C4C52B921700B48D6
:1042600016F0CEFF022220440949BDE810400DF0AF
:104270008BBD7F2263702270F1E7044B30221A80DD
:10428000704700BFA496FF1F7096FF1F3C99FF1F49
:10429000D80502001D4B58783038232831D8DFE884
:1042A00000F013131313133030303030303030300F
:1042B0003030303030123030302430303030301E3A
:1042C00030303030302A0120114B1B7833B9114B7C
:1042D0001B7803F0FF010BB9FFF78EBB70470C4B47
:1042E0001B780220002BF9D1F1E7094B1B78002045
:1042F000002BF3D1EBE7064B1B780320002BEDD10D
:10430000E5E7054B30221A80704700BFA496FF1FD7
:104310007096FF1F6494FF1F3C99FF1F30B585B056
:1043200004AC64E90423CDE9020122469DF8200093
:104330000D4B099D0A9C02A90BF026FD0B49DDE9F6
:104340000223D1E9040115F0DFF815F08DFB0849CF
:104350002860DDE90023D1E9040115F0D5F815F056
:1043600083FB206005B030BDD899FF1FA898FF1FC0
:10437000F098FF1FF0B58BB00AAC0026002764E967
:10438000026705ADCDE90223CDE90001224606A969
:104390009DF840701248002604AC05960BF038F8E2
:1043A000DDE90823DDE90601009702950194FFF796
:1043B000B5FF72B60B4D0C4C049A059B2A61236124
:1043C000286915F03BF8C5E90601206915F036F8B3
:1043D000C4E9060162B6054B01201E700BB0F0BDAA
:1043E0009894FF1F6893FF1FD893FF1FF087FF1F4C
:1043F000F0B58BB00AAC0026002764E902670B4DCC
:10440000119E6F78129D029406AC019400979DF85E
:104410004040039604950BF0A3FBDDE90823DDE99A
:1044200006010094FFF7A6FF0BB0F0BD4C93FF1FF1
:10443000604B1B78002B33D15F4B1B78002B2FD1A7
:104440002DE9F04F5D4C6378413BDBB2142B8BB010
:1044500041D85B4A22FA03F3DA073CD572B6594ECB
:10446000336962B6584D6A6B51428B4236DA4FF06F
:104470000208564B1A7812B10021904619706378E1
:10448000413B142B19D8DFE803F00C181818181842
:10449000181818181818BD1818181818BD18300052
:1044A00070474B4B4B49CDF80080D3E90023D1E94D
:1044B0000001FFF75FFF6378413BDBB2142B0AD8A2
:1044C000454A22FA03F3DB0705D5444A444B92E8F8
:1044D0000300186019710BB0BDE8F08F9342CCBF98
:1044E0004FF002084FF00108C3E70E200DF066FD03
:1044F0008DF820000F200DF061FD8DF821001020B7
:104500000DF05CFD8DF8220011200DF057FD8DF8A7
:1045100023000898334E344D14F0A2FFC6E9000181
:1045200012200DF04BFD8DF8200013200DF046FDFC
:104530008DF8210014200DF041FD8DF8220015208A
:104540000DF03CFD8DF82300089814F089FFC5E9B3
:10455000000172B6254B186862B6254B984205DDFE
:10456000A0F50300A0F556409842F9DC15F0CEFB0B
:10457000204915F0D3FC204915F01CFC14F070FF05
:1045800000221E4B14F0C0FFD6E9002314F008FEF1
:104590000BF008F9CDF80080D5E90067184B0293BD
:1045A000A3F1080201923B463246FFF721FF6378F0
:1045B000413B82E70898FF1F7096FF1FA496FF1FDC
:1045C00001101400D893FF1FF098FF1F7196FF1F72
:1045D0008898FF1FF897FF1F01101000DC050200EC
:1045E0003C99FF1FE095FF1F0098FF1FB897FF1F22
:1045F00000D6830000D6034B0000C04100002E40CF
:10460000089AFF1F674F3B78002B00F0978072B627
:10461000654B186862B6654B984205DDA0F503004E
:10462000A0F556409842F9DC15F070FB6049DFF8C0
:1046300098A115F073FC5F4915F0BCFB14F010FF56
:1046400000225D4B14F060FF5C4BD3E9002314F0B3
:10465000A7FD0BF0A7F8DFF87CE1594BDFF878C134
:10466000CDF810E0AEF1080ED3E900239CF801C0AC
:10467000CDF80CE00DF1200ECDF808E00DF1180E8C
:10468000CDF800C0CDF804E00BF06AFA9AF82031BA
:10469000BBB9DDE90601DDE9082372B6D6F810E002
:1046A00062B6D5F834C0CCF10008C64577DBE645E4
:1046B000CCBF4FF0020E4FF0010ECDF800E0FFF737
:1046C00059FE72B6DFF814B1DBF8100014F0B6FE34
:1046D0003C4BD3E9042315F041F880463069894604
:1046E00014F0ACFED5E9042315F038F862B6CDE934
:1046F0000401DDE90801DDE90623CDE90001CDE98A
:10470000028931480AF0D0FD9AF82131002B3FF49C
:10471000D2AE2E4B01221A7072B6DBF8100014F0E4
:104720008DFECBE906012A4B186914F087FE284B51
:10473000C3E9060162B600233B70BCE672B61A4BB1
:10474000186862B6194B984205DDA0F50300A0F584
:1047500056409842F9DC15F0D9FA15491D4D15F06F
:10476000DDFB144915F026FB14F07AFE0022124BF3
:1047700014F0CAFE114BD3E9002314F011FD0BF025
:1047800011F80F4BCDF80080A5F10806D3E90023FE
:1047900002950196FFF72CFE6378413B8DE64FF0C2
:1047A000020E8AE75896FF1FB897FF1F00D68300B6
:1047B00000D6034B0000C04100002E40E095FF1FD3
:1047C0000098FF1FA898FF1F9894FF1F5996FF1F7E
:1047D000D893FF1F089AFF1F4C93FF1F6893FF1F7A
:1047E000F0B5044685B00D4672B6114B186914F049
:1047F00025FE104BD3E9042314F0B0FF0E4B064600
:1048000018690F4614F01AFE0C4BD3E9042314F078
:10481000A5FF02460B4662B60948CDE90223CDE961
:1048200000672A4621460AF07FFE012005B0F0BD50
:104830006893FF1FA898FF1FD893FF1FF098FF1FD2
:104840009894FF1F2DE9F04488B008AD002600279A
:1048500065E9026704460E4604A829469A461746AB
:104860009DF83850FFF7BCFF1E4B5B78002B2FD014
:10487000DDE90623DDE904018DE8D0040BF05CFAE4
:1048800015BB72B6184B186862B6184B984205DD16
:10489000A0F50300A0F556409842F9DC15F036FA71
:1048A000134915F03BFB134915F084FA14F0D8FDB9
:1048B0000022114B14F028FED4E9002314F070FC00
:1048C0000AF0A4FFC4E90001012008B0BDE8F084AB
:1048D000DDE90623DDE904018DE8D0040BF070F971
:1048E000CEE700BF4C93FF1FB897FF1F00D6830091
:1048F00000D6034B0000C04100002E40FFFFFFFF29
:104900002DE9F041B54CA378413B94B0312B3DD813
:10491000DFE813F042003C003C00F0003C003C00AB
:104920003C003C0024013C003C007E01B4013C0002
:104930003C0014023C003F023C00CE023C003C0024
:104940003C003C003C003C003C003C003C003C0087
:104950003C003C003C003C003C003C003C003C0077
:104960003C003C003C003C003C003C003C003C0067
:104970003C003C003C003200E378702B00F01287D2
:10498000742B00F00987672B00F03C84944B302295
:104990001A8014B0BDE8F081924A12780023079380
:1049A000089309930A930B930C930D930E93109312
:1049B000002A40F0D186E278A2F130034A2BE5D8F4
:1049C00001A151F823F000BFAF550000AB55000026
:1049D000C555000095550000D5550000D155000083
:1049E000CD550000C9550000C15500008D4900009B
:1049F0008D4900008D4900008D4900008D4900005F
:104A00008D4900008D4900008D4900008D4900004E
:104A10008D4900008D4900008D4900008D4900003E
:104A20008D4900008D4900008D4900008D4900002E
:104A30008D4900008D4900008D4900008D4900001E
:104A40008D4900008D4900008D4900008D4900000E
:104A50008D4900008D4900008D4900008D490000FE
:104A60008D4900008D4900008D4900008D490000EE
:104A70008D4900008D4900008D4900008D490000DE
:104A80008D4900008D4900008D4900005B550000F4
:104A90008D490000B35500008D4900008D4900008C
:104AA0008D4900008D4900008D4900008D490000AE
:104AB0008D4900008D4900008D4900008D4900009E
:104AC0008D4900008D4900008D4900008D4900008E
:104AD0008D4900008D4900008D4900008D4900007E
:104AE0008D4900005B5500008D4900008D49000094
:104AF0005B550000E378423B152B3FF647AF01A220
:104B000052F823F0D55100008D4900008D49000076
:104B10008D4900008D4900008D4900008D4900003D
:104B20008D4900008D4900008D4900008D4900002D
:104B30008D4900008D4900008D490000EB510000B7
:104B40008D490000BD5100008D4900008D490000D5
:104B50008D4900008D49000091510000224B202119
:104B600003F1320203F8011F9A42FBD11F4A204C85
:104B70002049214B1278214826780978204D1B784E
:104B8000174C0078755DA570183201EB4202303386
:104B90002270637008B14823E3701A4B1A4A1B78DD
:104BA00012780F4930332371002A00F0A28140238C
:104BB0004B71164B1A78154B012A00F084811A7834
:104BC000022A00F080811A78032A00F031831B78D2
:104BD000042B04BF2D23A37177E100BFA496FF1F10
:104BE0003C99FF1F5996FF1F3B99FF1F7096FF1FAF
:104BF0000898FF1F8198FF1F8899FF1FF087FF1FEC
:104C000024060200E887FF1F1898FF1F6494FF1F07
:104C1000E378413B162B3FF6B9AE01A252F823F0E0
:104C200037520000E5520000E1520000E952000056
:104C3000A55200008D4900008D490000D1520000AE
:104C40008D4900008D4900008D4900008D4900000C
:104C50008D4900008D490000C15200008D490000BF
:104C60008D4900008D4900008D4900008D490000EC
:104C7000715200008D4900004B520000E378423B26
:104C80002B2B3FF683AE01A252F823F0C95300004C
:104C9000AD5300008D4900008D4900008D49000092
:104CA000955300008D490000715300008D490000AC
:104CB0008D49000021550000E55400008D49000099
:104CC0008D4900008D4900008D490000C754000047
:104CD000A95400008D4900008D4900008D49000055
:104CE0008D4900008D4900008D4900008D4900006C
:104CF0008D4900008D4900008D4900008D4900005C
:104D00008D4900008D4900008D4900008D4900004B
:104D10003D5500008D4900008D4900008D4900007F
:104D20008D4900008D4900008D4900008D4900002B
:104D30008D4900008D49000003550000E378312BB8
:104D400000F00285322B7FF424AE72B6A54B1869B1
:104D500014F074FBA44BD3E9042314F0FFFC14AA51
:104D600062E9020162B6A14BA14C1B7800930123BA
:104D7000114620461A4609F02BFE002800F0128347
:104D8000204616F03DFA022220449A490CF0FCFF1E
:104D9000FFE5E378303B422B3FF6F8AD01A252F835
:104DA00023F000BF8D5400008D5400008D5400008E
:104DB0008D5400008D4900008D4900008D49000090
:104DC0008D4900008D4900008D4900008D4900008B
:104DD0008D4900008D4900008D4900008D4900007B
:104DE0008D4900008D490000755400006754000093
:104DF0008D490000535400008D4900008D4900008A
:104E00008D4900008D4900008D4900008D4900004A
:104E10008D4900008D4900008D4900008D4900003A
:104E20008D4900008D4900008D4900008D4900002A
:104E30008D4900008D4900008D4900008D4900001A
:104E40008D4900004F5400008D4900008D4900003D
:104E50008D4900008D4900008D4900008D490000FA
:104E60008D4900008D4900008D4900008D490000EA
:104E70008D4900003D5400002D5400001D540000D9
:104E80008D4900000B5400008D4900008D49000041
:104E90008D4900008D4900008D4900008D490000BA
:104EA0008D4900008D4900008D490000E553000048
:104EB000E378303B032B3FF66CADDFE813F03101B4
:104EC00008010001B1002A23A3714B4B1A78652A0F
:104ED00017D01A782B2A14D01A78772A00F09F81DD
:104EE0001A782D2A00F09B811B78622B0BD1E3717D
:104EF00009E0424B1A78002A3FF45CAE47224A711F
:104F000058E63E23E3713E4B1A786E2A0FD01A788A
:104F10002B2A0CD01A78732A00F084811A782D2A53
:104F200000F080811B78622B03D1237201E05E23A5
:104F30002372344B2B4A5B78002B50D15378002BD3
:104F40004DD1314B2A4D1B78D91E30200129A0723A
:104F500040F219842D49097859B12D4880780028EC
:104F600000F02E843320A872022902D1A17A0131E7
:104F7000A17228491E48097800290CBF302131212F
:104F8000012BE17200F0FC83022B00F01184042B52
:104F900000F04B81032B0CBF41235523037372B6E2
:104FA000126962B6104B5B6B59428A42C0F2B883F9
:104FB0009A4200F3B58345236373174B1B78002B8C
:104FC00040F0B1834123154AA37313782321303372
:104FD0000022E3732174627414B0BDE8F08166238B
:104FE0006372AEE7D893FF1FF098FF1FB087FF1FD3
:104FF0003C99FF1FD8050200E895FF1F6494FF1F2E
:105000000896FF1F6893FF1FD087FF1FA096FF1F02
:105010004C93FF1F5996FF1FD887FF1F4196FF1F14
:1050200072B6B24B186862B6B14B984205DDA0F576
:105030000300A0F556409842F9DC14F067FEAD4934
:10504000AD4DAE4C14F06AFFAD4914F0B3FE14F050
:1050500007FA2B680C930C9B22689B1A632BCDE9F3
:105060000E0100F2C383A74BA74CD3E90023D4E978
:105070000045CDE91023CDE9124514F091F8002246
:10508000A24B04460D4614F0B1FC002800F0A483A6
:105090002046294600229E4B14F084F8CDE90E01EB
:1050A0009C4C012220460EA909F036FB00287FF413
:1050B00067AE994B1B6823801B0CA37069E40DF04D
:1050C0005FFA96490246934815F070FE61E40DF0D0
:1050D00057FA864C20610BF099FB064620690BF0CD
:1050E00087FB074620690BF075FB804620690BF0B3
:1050F00047FB20690BF052FB2069894CF51784FBB4
:105100000634C5EB6415642404FB15640BF054FBF2
:105110008449009443463A467E4815F047FE38E4F9
:105120000DF02EFA714C7B4D20610BF029FB0746E8
:1051300020690BF033FB14F0E9FD7B4914F0EEFE1F
:105140000646384614F0E2FD0146304614F02AFDCA
:10515000064620690BF030FB14F0D8FD734914F0BB
:10516000DDFE314614F01EFD14F07AF90B460246BE
:105170002146E1E906232846012209F0CDFA284616
:1051800016F03EF80222284469490CF0FDFD00E4C7
:105190002479002C40F00581664D674AEE68674926
:1051A0005C48642303FB06F382FB0362DB17C3EB5B
:1051B000223215F0FBFDEC60FFF7EBBB2379303BAF
:1051C000042B3FF6E3ABDFE813F07B0272026902C7
:1051D000300227022379303B032B3FF6D7ABDFE8C1
:1051E00013F013020B020302FB012379303B052B62
:1051F0003FF6CCABDFE813F091028C028902830208
:1052000080026F024E4B5B78002B00F0D7814D4B34
:10521000404A1B6813801B0C9370FFF7BABB3C23FA
:10522000E37170E65F23237283E66B230373B6E6B4
:105230002B23A37149E62420FBF720F902464249BB
:10524000344815F0B3FDFFF7A4BB404B18680028A5
:105250002CDB14F05BFD4FF07C5114F0A3FC14F038
:1052600085FF02463A492B4815F0A0FDFFF791BB98
:105270003849394B0022D1E9000114F045F90022E8
:10528000002304460D4614F0C5FB002800F0D98227
:105290000022324B2046294613F084FF14F0E4FB31
:1052A0000246DFE72E4B18680028D2DA14F02EFDF4
:1052B0004FF07C5114F074FC14F058FF0246D1E713
:1052C000284B29491A68134815F070FDFFF761BB98
:1052D000264B25491A680F4815F068FDFFF759BBA2
:1052E0002820A9E72620A7E72A20A5E7B897FF1FCF
:1052F00000D6830000D6034B349AFF1FC899FF1FC6
:105300000000C0415893FF1F1098FF1F000028C0E5
:10531000000038403C99FF1FD40502001C06020023
:105320001F85EB510C060200000070420000614531
:10533000D80502005494FF1F8D512C69FC05020012
:105340004C93FF1FE8050200F00502009098FF1F34
:10535000F40502002098FF1F000024400000E03FF9
:105360001C98FF1FA498FF1F040602005093FF1F04
:105370002379442B00F0A382522B12D1B24B1A7D19
:10538000012A00F0A1820022B049B14815F00EFDBB
:10539000FFF7FFBA2379442B00F0A582522B00F0CF
:1053A0005A82AB4C30232380FFF7F3BA2379442B86
:1053B00000F0F882522BF4D1A64BA449DA68A44835
:1053C00015F0F4FCFFF7E5BA2379442B00F0F282E4
:1053D000522BE6D1A04BA1491A689D4815F0E6FC76
:1053E000FFF7D7BA9E499F4B0022D1E9000113F085
:1053F000D7FE01F10043194691A3D3E9002314F02D
:1054000083F814F031FB02462CE795498CA3D3E9CD
:105410000023D1E9000114F077F8F2E7924B9349A9
:105420001A688B4815F0C2FCFFF7B3BA904B8F494E
:105430001A68874815F0BAFCFFF7ABBA8D4980A30C
:10544000D3E90023D1E9000114F05EF8D9E71A206E
:10545000F2E61C200CF0B2FD804902467C4815F0B3
:10546000A5FCFFF796BA10228049794815F09EFCFA
:10547000FFF78FBA804B764CD3E9000114F03CFB68
:105480002346012202210CF065FE79E47B4A704C30
:1054900002EBC303D3E9000114F02EFB02222346E2
:1054A00011460CF057FE6BE42379442B00F02B825D
:1054B000522B7FF476AF674B64495A68644815F005
:1054C00075FCFFF766BA2379442B00F05B82522B00
:1054D0007FF467AF5F4B5D495A7A5D4815F066FC13
:1054E000FFF757BA2379442B00F01582522B7FF433
:1054F00058AF584B55491A7A554815F057FCFFF7E5
:1055000048BA2379442B00F04582522B7FF449AFEF
:10551000504B4E499A7A4E4815F048FCFFF739BA7D
:105520002379442B00F0D581522B7FF43AAF494BBD
:105530001A7D012A00F0D281002280E62379442BD3
:1055400000F0D981522B7FF42CAF424B3F491A69AE
:105550003F4815F02BFCFFF71CBA772A00F09B811F
:105560007A2A00F08081464B4648612AD3E902231B
:1055700000F09381022100910AF026F814AA62E952
:1055800002010123114600930022314809F020FA5C
:10559000FFF7FCB90A9813F063FF02460B462C484C
:1055A000394915F003FCFFF7F4B90898F3E70798B9
:1055B000F1E7364B1B78002B7FF429AE344B27E6FE
:1055C0001098E8E70998E6E70E98E4E70D98E2E717
:1055D0000C98E0E70B98DEE72E4B2049DA681C4870
:1055E00015F0E4FBFFF7D5B91B4B1C49DA681848E6
:1055F00015F0DCFBFFF7CDB9264B18491A7A144891
:1056000015F0D4FBFFF7C5B9134B14491A7A1048AB
:1056100015F0CCFBFFF7BDB91F4B1B490C48D3E974
:105620000C2315F0C3FBFFF7B4B91B4B1649084810
:10563000D3E9142315F0BAFBFFF7ABB9AFF3008041
:10564000000000000088C3405C98FF1F2C06020089
:105650003C99FF1F3898FF1F9099FF1FF00502002B
:105660003887FF1F0000F03F8C94FF1FF4050200F5
:105670005496FF1F7099FF1F7887FF1F8887FF1FB1
:10568000D099FF1F9894FF1FE4050200C095FF1FEB
:10569000EC050200A899FF1F6893FF1FA24BA349C6
:1056A000A348D3E9162315F081FBFFF772B9A14B8C
:1056B0009E499F48D3E9162315F078FBFFF769B997
:1056C0009D4B186814F022FB9C4914F027FC9C4960
:1056D00014F070FBF0E572B6934CD4E9060114F0B7
:1056E000C3F92369C01A206262B69649226A9048BB
:1056F00015F05CFBFFF74DB972B68E4CEDE772B654
:10570000894BD3E9060162B67BE672B6894BF8E7AE
:1057100072B6854B1A6962B6A4E572B6854BF9E795
:105720005723637349E4FEF743FC002851D0FEF78A
:1057300049FC00280CBF03250725FEF7ADFC002817
:105740003AD105F141033EE472B67A4B186913F081
:1057500075FE7D4BFFF7FFBA0DA80CA90BAA0AAB8B
:1057600010AE0EAD03900291019200930596049540
:1057700009AB08AA07A9754809F07EFCFFF71BB919
:10578000452303730BE47249897800290CBF322149
:105790003421A172FFF7EDBB6D4B9B78002B7FF49A
:1057A00036AD0BE76A4B1B78002B3FF407AF2EE5B5
:1057B0004B230373FFF7F3BB45F00803413302E4C7
:1057C0006448007800283FF4D4AB3120A872FFF77A
:1057D000CBBB4223FFF7F7BB00225F4B2046294695
:1057E00014F022F920BBCDE90E4559E45B4B5C4F28
:1057F0005C4E0021A3F10802009110A812A9FFF746
:1058000021F80022584BDDE9100113F0A7FF2D68A5
:105810000D9502460B46DDE912010D9D2560C6E996
:105820000001CDE91023C7E90023DDE90E0124E4DE
:105830002046294600224D4B13F0B2FCCDE90E0163
:105840002EE400224A4B2046294613F0A9FC14F00E
:105850000BF9024606E5474B47491A68344815F0EC
:10586000A5FAFFF796B80022444B0092D3E9022331
:10587000364809F0A9FE14AA62E902010123114683
:10588000009300222A4809F0A3F800283FF47EA8DC
:10589000274CFFF775BA0222E6E70124009409F0CD
:1058A00093FE14AA62E902012346114600940022E5
:1058B0001F4809F08DF80028EAD1FFF767B82D4B93
:1058C0001A7D012A7FF45FAD98690BF069FC0246EE
:1058D0005AE52B4B1A7D012A7FF42EAE98690BF006
:1058E00051FC0246ABE4264B23491A68104815F0D8
:1058F0005DFAFFF74EB8224B1F491A690C4815F0A4
:1059000055FAFFF746B81E4B1B495A68084815F070
:105910004DFAFFF73EB81A4B17491A7A044815F0AA
:1059200045FAFFF736B800BFD893FF1FE405020021
:105930003C99FF1F6893FF1F4C94FF1F555550471C
:1059400000606A46F4050200A898FF1F9894FF1FA4
:105950004C93FF1FC095FF1F00002840089AFF1FAF
:105960005893FF1F1098FF1F00002E400000384082
:105970000000E03F3898FF1F2C060200D099FF1F5F
:105980005C98FF1F0F4B10495A7A104815F00EFA19
:10599000FEF7FFBF0B4B0C499A7A0C4815F006FA3C
:1059A000FEF7F7BF074B0849DA68084815F0FEF91B
:1059B000FEF7EFBF064B07491A68044815F0F6F9E1
:1059C000FEF7E7BF5C98FF1F2C0602003C99FF1F03
:1059D000A899FF1FF00502002DE9F047A54C627859
:1059E000A2F141038AB0332B00F29682DFE813F074
:1059F00026019402F300CE0094029402C1009402A6
:105A000094029402940234008000800080008000A0
:105A10009402CE00300216029402E9019402E601DB
:105A200094027902940294029402940294029402E1
:105A300034009402E201D401B401A101BC019A0135
:105A4000940294029402940284017E0177019402EC
:105A50009402620194025B02874C884D94F80080A6
:105A6000874F012323700CF08BFD864B8649064639
:105A7000D86A14F09FF914F079FB331A18462B6199
:105A80000AF07EFE814628690AF088FE14F03EF98D
:105A90007E4914F043FA0646484614F037F90146A9
:105AA000304614F07FF8064628690AF085FE14F0A7
:105AB0002DF9754914F032FA314614F073F813F0E9
:105AC000CFFC02460B462946E1E9082338462278F6
:105AD00008F022FE002800F01C82384615F090FBEA
