:1000000000800020BD010000E91F0100A11F0100C8
:10001000A11F0100A11F0100A11F0100A11F0100DC
:10002000A11F0100A11F0100A11F0100E91F010084
:10003000E91F0100A11F010021510100255101000C
:10004000E91F0100E91F0100E91F0100E91F01008C
:10005000E91F0100E91F0100E91F0100E91F01007C
:10006000E91F0100E91F0100E91F0100E91F01006C
:10007000E91F0100E91F0100E91F0100E91F01005C
:10008000E91F0100E91F0100E91F0100E91F01004C
:10009000E91F0100E91F0100E91F0100E91F01003C
:1000A000E91F0100E91F0100E91F0100E91F01002C
:1000B000E91F0100E91F0100E91F0100E91F01001C
:1000C000E91F0100E91F0100E91F0100E91F01000C
:1000D000E91F0100E91F0100E91F0100E91F0100FC
:1000E000E91F0100E91F0100E91F0100E91F0100EC
:1000F000E91F01008D300100E91F0100CD39010029
:10010000E91F0100E1400100E91F0100E91F0100B2
:10011000E91F0100E91F0100E91F0100E91F0100BB
:10012000E91F0100E91F0100E91F0100E91F0100AB
:10013000E91F0100E91F0100E91F0100E91F01009B
:10014000E91F0100E91F0100E91F0100E91F01008B
:100150000156010015560100295601003D560100C7
:10016000E91F0100D5430100E91F0100E91F01005B
:10017000E91F0100E91F0100E91F0100E91F01005B
:10018000E91F0100E91F0100E91F0100E91F01004B
:10019000E91F0100E91F0100E91F0100E91F01003B
:1001A000E91F0100E91F0100E91F0100E91F01002B
:1001B000E91F0100E91F0100E91F0100564B4CF245
:1001C000205210B51A804DF628121A8000BF00BFC9
:1001D00011F00EFF514B4FF010621A60504A9A60B6
:1001E000504ADA60504A136813F4807304D14F49BF
:1001F0000B604FF4A85313604D4B1A78110703D5C9
:100200001A7842F008021A704A4B4B492A221A7097
:100210004A4A4B4B8B4204D252F8040F43F8040B6A
:10022000F8E7484B484900228B4202D243F8042B9E
:10023000FAE74649464A002352F8230041F82300D2
:1002400001336F2BF8D1434B434A802103F8011B44
:100250009342FBD1414B3D4A1A60414B8A221A70AE
:10026000A3F5805324225A70A0221A709A7992071B
:10027000FCD59A79D406FCD43A4A937903F00C035E
:10028000082B384BF9D105221A7143225A719A79F9
:100290009006FCD5334A9179324B4906FBD5324A58
:1002A0004FF0817111600521516020221A709A79F6
:1002B00002F00C020C2AFAD12C4B2D4A1A602D4B5D
:1002C0002D4A1A6000225A60072243F8042C2B4A58
:1002D000C3F80C2D62B612F0A9FA144B1B68DA07AA
:1002E00005D5274812F002F9264B274A1A60274BFA
:1002F0001B785B0609D5234C234B22689A4204D114
:100300001F4812F0F3F80023236011F077FE19F074
:1003100043FF15F09FF9FEE70E20054030800440B2
:10032000823F04000100002B10D0034014D0034092
:1003300002D0074000E007400893FF1FEC100200C6
:100340002087FF1F0893FF1FDC9CFF1F0082FF1FF9
:100350000000000000E400E05FE400E008ED00E0E1
:1003600000500640004006404480044004800440A1
:10037000C010050014E000E03F190100000020203B
:10038000BD1322631CE00340A5C3945A00F007404C
:10039000FFFFFFFFFFFFFFFFFFFFFFFFFFFFFFFF6D
:1003A000FFFFFFFFFFFFFFFFFFFFFFFFFFFFFFFF5D
:1003B000FFFFFFFFFFFFFFFFFFFFFFFFFFFFFFFF4D
:1003C000FFFFFFFFFFFFFFFFFFFFFFFFFFFFFFFF3D
:1003D000FFFFFFFFFFFFFFFFFFFFFFFFFFFFFFFF2D
:1003E000FFFFFFFFFFFFFFFFFFFFFFFFFFFFFFFF1D
:1003F000FFFFFFFFFFFFFFFFFFFFFFFFFFFFFFFF0D
:10040000FFFFFFFFFFFFFFFFFFFFFFFFDEF9FFFF23
:1004100010B5054C237833B9044B13B10448AFF33E
:1004200000800123237010BD0893FF1F000000000F
:10043000E8100200084B10B51BB108490848AFF39B
:1004400000800848036803B910BD074B002BFBD0A0
:10045000BDE81040184700BF000000000C93FF1FCC
:10046000E81002000893FF1F0000000012F038B8E7
:1004700010B5044615F0A2F8204610BD10B582B0A4
:10048000044611F04BFD8DF80600601C11F046FD8E
:100490008DF80700BDF8060002B010BD38B50C4657
:1004A000054611F03BFD2070681C11F037FD6070AF
:1004B000A81C11F033FDA070E81C11F02FFDE070B6
:1004C00038BD00BF3C4A70B502233C4D13602A780A
:1004D000002A3BD03A4E0023337072B6394CD4E92F
:1004E000060119F071FA2369C01A206262B6236A04
:1004F000354A002B36D0236A34493248497A002BDA
:10050000D4BF0023012384F8243000292ED0304B9F
:1005100090F824101B7899422ED02E4B012119609F
:1005200094F82430274903F0FF00002B2ED0D06828
:100530005268254B904233DADA6801210A44DA60C6
:1005400019720123337000232B7070BD1C4A12787E
:100550000AB1214A13600123204A2B70204B1268F4
:100560001A6070BD137A002BC5D1ECE7184B90F8D8
:1005700024101B789942D0D01A4B0121196094F8AD
:100580002430104903F0FF00002BD0D1D2680E4B6D
:10059000002A0BDDDA680121013ADA601972D0E72E
:1005A00000221A720B6901330B61CAE718720B69DA
:1005B000013B0B61C5E700BF88F00F403087FF1F8C
:1005C0006095FF1F4093FF1F1899FF1FCC97FF1FD7
:1005D0007896FF1FC8F00F4084F00F407887FF1F08
:1005E00010710340C4F00F403B4A70B520233B4DCF
:1005F00013602A78002A3AD0394E0023337072B63D
:10060000384CD4E9060119F0DFF92369C01A2062D9
:1006100062B6236A344A002B35D0236A3349314805
:10062000497A002BD4BF0023012384F82430002909
:100630002DD090F82430002B2DD02D4B4FF40051AD
:10064000196094F82430274903F0FF00002B2DD0C7
:10065000D0685268244B904232DADA6801210A44A9
:10066000DA6019720123337000232B7070BD1C4AAD
:1006700012780AB11F4A136001231F4A2B701F4BC7
:1006800012681A6070BD137A002BC6D1ECE790F89F
:100690002430002BD1D01A4B4FF40051196094F83C
:1006A0002430104903F0FF00002BD1D1D2680E4B4B
:1006B000002A0BDDDA680121013ADA601972D1E70C
:1006C00000221A720B6901330B61CBE718720B69B8
:1006D000013B0B61C6E700BFC8F00F404087FF1F1A
:1006E0004C99FF1F8893FF1F3099FF1FF097FF1F42
:1006F00004F00F40C4F00F40BC87FF1F207103407F
:1007000008F00F40084B10B5C3E9000172B6074965
:10071000074CD3E90023D1E9080118F0A5FEC4E98C
:10072000040162B610BD00BF5095FF1F4098FF1F27
:100730007095FF1F084B094A4FF0FF315960516017
:1007400072B6197809B1622119701378034A0BB196
:100750006223137062B670477095FF1F9095FF1F5C
:100760002DE9D04382B072B6254CD4E9060119F0C8
:100770002BF92369C01A206262B60022D4E90C0169
:10078000204B18F071FE02460B461BA1D1E9000177
:1007900018F094FF02460B46D4E9028918F064FE73
:1007A000424606460F464B464046494618F0AAFCCC
:1007B0000B4602463946304618F080FF19F004F91E
:1007C000236A0193019B002B019BD8BF5B42984297
:1007D0000BDA236A002BB8BF404272B62369184473
:1007E00018F0DCFDC4E9060162B6074B62221A70FC
:1007F00002B0BDE8D08300BF0000000080842E411D
:100800004093FF1F0000B03F7095FF1F30B583B0CD
:10081000CDB20191044611F081FB854203D02946F7
:10082000204611F095FB0134204611F077FB9DF82E
:100830000550854203D02946204611F089FB03B0BC
:1008400030BD00BFF8B50D460E78044611F066FBCA
:10085000864203D03146204611F07AFB661C3046B2
:1008600011F05CFB6F78874203D03946304611F0B7
:100870006FFBA61C304611F051FBAF78874203D0C6
:100880003946304611F064FB0334204611F046FB34
:10089000ED78854205D029462046BDE8F84011F0A4
:1008A00057BBF8BDFFFFFFFF38B5354C354A237DF8
:1008B00020690125022B15704ED0032B3CD0AB4292
:1008C0000FD0314C237D2069022B13D0032B22D073
:1008D000012B00D038BD0146A069BDE8384010F0BA
:1008E000C7B80146A069284C10F0C2F8237D2069E2
:1008F000022BEBD118F042FD1FA3D3E9002318F01F
:10090000DDFE19F089F84FF07A5281B2E069BDE856
:10091000384011F09FB818F031FD17A3D3E9002338
:1009200018F0CCFE19F078F84FF07A5281B2206AB4
:10093000BDE8384011F030B818F020FD0EA3D3E91F
:10094000002318F0BBFE19F067F84FF07A5281B21D
:10095000206A11F021F8B4E718F010FD06A3D3E9DE
:10096000002318F0ABFE19F057F84FF07A5281B21D
:10097000E06911F06FF8A4E7CD3B7F669EA0F63FDB
:10098000CC97FF1FF298FF1FF097FF1FF8B52C4C74
:100990002C4D2D4B2D492E48DFF8DCE0DFF8DCC074
:1009A000012284F8242085F82420D3E90067C5E9D2
:1009B0000C67D3E90023C4E90C2300220023C1E91A
:1009C0000023244F24490026C0E900230A20CEE951
:1009D0000023CCE900233E700E7011F09FFA18B18D
:1009E00031460A2011F0B4FA1C481D4B1D491E4A1D
:1009F0004668586800230B704B6013708B606E6103
:100A000053609360606172B6686918F0C7FCC5E90D
:100A100006016B692B61606918F0C0FCC4E906012E
:100A20006369236162B6114B1B7833B1104A114BD5
:100A30000021012011701870F8BDFFF735FFF5E7B0
:100A40008893FF1F4093FF1FF895FF1FA097FF1F7C
:100A50001898FF1FC295FF1FA897FF1F4098FF1F00
:100A60008098FF1F7095FF1F9095FF1FF298FF1F42
:100A70001598FF1FC887FF1F6895FF1F9897FF1FD6
:100A800038B5354C354A237DE0680025022B1570BA
:100A90004ED0032B3CD0012B0FD0314C237DE0688E
:100AA000022B13D0032B22D0012B00D038BD0146DE
:100AB000A069BDE838400FF0DBBF0146A069284CB3
:100AC0000FF0D6FF237DE068022BEBD118F056FC27
:100AD0001FA3D3E9002318F0F1FD18F09DFF4FF09C
:100AE0007A5281B2E069BDE8384010F0B3BF18F027
:100AF00045FC17A3D3E9002318F0E0FD18F08CFFA4
:100B00004FF07A5281B2206ABDE8384010F044BFFD
:100B100018F034FC0EA3D3E9002318F0CFFD18F031
:100B20007BFF4FF07A5281B2206A10F035FFB4E7B4
:100B300018F024FC06A3D3E9002318F0BFFD18F039
:100B40006BFF4FF07A5281B2E06910F083FFA4E7A7
:100B5000CD3B7F669EA0F63FCC97FF1FF298FF1F0C
:100B6000F097FF1F2DE9F0473F4B404E404D82B0BC
:100B7000002201240A201A7034702C7011F006FE35
:100B8000204611F0CBF98DF80400022011F0C6F9CF
:100B90008DF80500032011F0C1F98DF8060004203E
:100BA00011F0BCF98DF80700052011F0B7F9DDF858
:100BB00004A08DF80400062011F0B0F98DF80500AE
:100BC000072011F0ABF98DF80600082011F0A6F906
:100BD000284B8DF80700187A019F18F0CFFB0246CA
:100BE0000B4600204FF0804115F062FA804689469E
:100BF000504618F0D3FB42464B4618F035FC18F02F
:100C0000E3FE1D4B8246187A18F0B8FB02460B46ED
:100C100000204FF0804115F04BFA80468946384657
:100C200018F0BCFB42464B4618F01EFC18F0CCFEF8
:100C3000074672B65046C6F810A018F0AFFBC6E9DA
:100C4000060138462F6118F0A9FBC5E9060162B616
:100C50000A4A0B4B1278A2420CBF02220022204605
:100C60001A7002B0BDE8F087C887FF1F4093FF1FCE
:100C70008893FF1FCC97FF1FF097FF1FB887FF1FB8
:100C80002498FF1FFFFFFFFF2DE9F04F8FB00EAF3D
:100C9000DDE91C451A9E07F8086DC0E90C45189E51
:100CA00003904E318DF835203846199A8DF8312051
:100CB0008DF834308DF836108DF832600FF066FD07
:100CC000D94904461E9819F025F819F0FFF9044493
:100CD000204611F00BFC20460FF088FE11F000FCBE
:100CE00004460FF043FD064620460FF031FD054651
:100CF00020460FF01FFD6B1E012B98BF06F1FF363B
:100D00008246304698BF0C3518F0B0FFC74983467D
:100D100019F0B4F818F054FB15F01EF88046894617
:100D20005846C34919F0AAF818F04AFB15F014F810
:100D300006460F465846BF4918F0ECFF18F040FB36
:100D400015F00AF8CDE90001284618F08FFF4FF0A2
:100D50007E5118F0D7FEB84918F0DCFF18F030FBD0
:100D600014F0FAFF4246CDE904014B4600204FF053
:100D7000804118F0C5F932463B4618F0C3F9DDE969
:100D8000002318F0BFF9DDE9042318F0BBF906468B
:100D900050460F4618F002FB02460B4630463946D5
:100DA00018F0B0F98CA3D3E9002318F0ABF9824610
:100DB00020468B460FF094FC064620460FF09EFC22
:100DC00018F054FF9D4919F059F80546304618F0BF
:100DD0004DFF0146284618F095FE054620460FF0C7
:100DE0009BFC18F043FF904919F048F8294618F089
:100DF00089FE18F0E5FA0022CDE90001904B50463B
:100E0000594618F07FF914F0A7FF75A3D3E9002322
:100E100004460D4618F0B8FD68B373A3D3E9002368
:100E20002046294618F06CF971A3D3E9002318F085
:100E300045FC18F0C9FD18F0B1FA002206460F462D
:100E4000804B2046294618F05DF932463B4618F0A3
:100E500059F9002204460D467B4B3046394618F0BE
:100E600003FB14F079FF02460B462046294618F092
:100E700047F904460D46204629465FA3D3E90023DF
:100E800018F040F95EA3D3E9002304460D4618F09C
:100E900037F95DA3D3E9002318F010FC14F05CFFD0
:100EA00059A3D3E90023CDE9040118F0DDFA14F0C9
:100EB00053FF02460B462046294618F021F954A359
:100EC000D3E900238046894618F0F8FB14F044FF6C
:100ED0004FA3D3E9002304460D4618F0C5FA14F0D9
:100EE0003BFF002206460F4600234046494618F0C5
:100EF00009F932463B4618F003F914F02DFF18F0BB
:100F000063FD00220646514B2046294618F01EFD7F
:100F1000002800F0608200224A4B2046294618F043
:100F2000EFF814F019FF18F04FFD0446204618F0B2
:100F30009DFE4749054619F0A9F8002840F0578260
:100F400035A3D3E90023DDE9040118F0D9F814F042
:100F500003FF18F039FD0746631E012B05D804F185
:100F60000C0018F083FE013F0546384618F07EFE5F
:100F70002E49044618F082FF18F022FA14F0ECFE15
:100F8000CDE9040120462A4918F078FF18F018FA34
:100F900014F0E2FECDE906012046264918F0BAFE1B
:100FA00018F00EFA14F0D8FECDE9080128464FF0EB
:100FB0007E5118F0A7FD204918F0ACFE18F000FA99
:100FC00014F0CAFE16A3D3E90023CDE90A01504666
:100FD00059463FE0AFF3008000000080A2423A4152
:100FE000000000008C8A414100000040D07D3C415F
:100FF0000000000088D5E1400000000000D09740CC
:101000000000006066865E400000000000D476406C
:1010100000000020A0993E4000000000006BB2409C
:10102000000000802CB44241000061450000C8422D
:101030000000C84300A0B64301CDF4410000704257
:101040000000E03F0000F03F0000D03F00002B40D8
:101050000000204018F054F8002204460D46C04B12
:10106000DDE9000118F02AFB02460B46204629461E
:1010700018F048F89AA3D3E9002382468B4618F06B
:101080001DFBDDE904238046894600204FF08041A6
:1010900018F036F8DDE9062318F034F8DDE9082306
:1010A00018F030F8DDE90A2318F02CF80446304631
:1010B0000D4618F073F902460B462046294618F0F3
:1010C00021F889A3D3E9002318F01CF888A3D3E9F9
:1010D000002318F015F888A3D3E9002318F0C4F909
:1010E00087A3D3E9002318F00DF805E02046294630
:1010F00000229B4B18F004F80022994B04460D4641
:1011000018F038FC0028F1D100220023204629469F
:1011100018F01CFC68B1204629460022904B17F0BD
:10112000F1FF0022002304460D4618F00FFC0028B2
:10113000F1D175A3D3E90023DDE9000118F094F99A
:1011400022462B4617F0DEFF71A3D3E900230446A5
:101150000D464046494618F087F942464B4618F07E
:1011600083F922462B4617F0CDFF05E0204629469D
:1011700000227B4B17F0C4FF0022794B04460D463A
:1011800018F0F8FB0028F1D1002200232046294660
:1011900018F0DCFB68B1204629460022704B17F09E
:1011A000B1FF0022002304460D4618F0CFFB0028B3
:1011B000F1D159A3D3E900235046594618F054F908
:1011C00002460B4656A1D1E9000117F099FF56A33C
:1011D000D3E9002318F072FA14F046FE54A3D3E9C1
:1011E000002306460F465046594618F03DF952A3D3
:1011F000D3E9002317F086FF02460B4617F082FF63
:1012000049A3D3E9002318F059FA14F02DFE4CA39A
:10121000D3E90023804689465046594618F024F900
:1012200002460B4648A1D1E9000117F069FF3EA331
:10123000D3E9002318F042FA14F040FD44A3D3E9A7
:10124000002382468B463046394618F00DF942A3FA
:10125000D3E9002306460F464046494618F004F9F4
:1012600002460B463046394617F04AFF52465B4667
:1012700018F0FAF822462B4617F044FF05E0204606
:1012800029460022364B17F03BFF0022344B044620
:101290000D4618F06FFB0028F1D1002200232046F4
:1012A000294618F053FB68B12046294600222C4BF2
:1012B00017F028FF0022002304460D4618F046FBD5
:1012C0000028F1D10399274B0022D1E90C0118F035
:1012D000F5F902460B462046294649E0AFF3008067
:1012E00000000000A0D5E14000000080A2423A4189
:1012F000000000802CB44241000000E05BD2B03F0F
:10130000000000801CCA1A40000000E0360BF03FCD
:10131000000000605243FB3E00000060C91CAB3F70
:10132000000000608F425F4000000020DCA54C40C0
:10133000000000E0718AEF3F0000002085877140C7
:10134000000000A0F2D79A3E0000000076703740FF
:10135000000000A0EEE734BF00000080732AF93ED1
:101360000000384000002E402B4B2046294600222A
:1013700017F0C6FE0022284B04460D4618F0FAFA74
:101380000028F1D1002200232046294618F0DEFA79
:1013900068B12046294600221F4B17F0B3FE0022F9
:1013A000002304460D4618F0D1FA0028F1D120465A
:1013B00029460022184B18F081F913A3D3E9002322
:1013C00018F052F818F000FB72B6039B186062B672
:1013D0000FB0BDE8F08F0022104B2046294617F0D1
:1013E0008FFE14F0B9FC18F0EFFA04469EE508A34E
:1013F000D3E90023DDE9040117F082FE14F0ACFC10
:1014000018F0E2FA0746A7E500000000C07A604144
:1014100000000000006CB2400000384000002A408C
:101420002DE9F04F8DB0039011F05AF804460FF0FB
:101430009DF9064620460FF08BF9054620460FF031
:1014400079F96B1E012B98BF06F1FF3682463046B4
:1014500098BF0C3518F00AFCD749834618F00EFDEA
:1014600017F0AEFF14F078FC804689465846D34901
:1014700018F004FD17F0A4FF14F06EFC06460F46AA
:101480005846CF4918F046FC17F09AFF14F064FC58
:10149000CDE90001284618F0E9FB4FF07E5118F025
:1014A00031FBC84918F036FC17F08AFF14F054FCE1
:1014B0004246CDE904014B4600204FF0804117F031
:1014C0001FFE32463B4617F01DFEDDE9002317F0F4
:1014D00019FEDDE9042317F015FE064650460F46B7
:1014E00017F05CFF02460B463046394617F00AFEFD
:1014F0009BA3D3E9002317F005FE824620468B46C6
:101500000FF0EEF8064620460FF0F8F818F0AEFBA4
:10151000AD4918F0B3FC0546304618F0A7FB01466C
:10152000284618F0EFFA054620460FF0F5F818F0B7
:101530009DFBA64918F0A2FC294618F0E3FA17F023
:101540003FFF0022CDE90001A14B5046594617F05C
:10155000D9FD14F001FC84A3D3E9002304460D4611
:1015600018F012FA68B382A3D3E900232046294673
:1015700017F0C6FD80A3D3E9002318F09FF818F0F8
:1015800023FA17F00BFF002206460F46914B204628
:10159000294617F0B7FD32463B4617F0B3FD00224F
:1015A00004460D468C4B3046394617F05DFF14F06B
:1015B000D3FB02460B462046294617F0A1FD044600
:1015C0000D46204629466EA3D3E9002317F09AFD65
:1015D0006DA3D3E9002304460D4617F091FD6CA3DB
:1015E000D3E9002318F06AF814F0B6FB68A3D3E936
:1015F0000023CDE9040117F037FF14F0ADFB0246DC
:101600000B462046294617F07BFD63A3D3E9002350
:101610008046894618F052F814F09EFB5EA3D3E989
:10162000002304460D4617F01FFF14F095FB00221F
:1016300006460F4600234046494617F063FD3246F2
:101640003B4617F05DFD14F087FB18F0BDF9002252
:101650008046624B2046294618F078F9002800F0B1
:10166000208200225B4B2046294617F049FD14F0EA
:1016700073FB18F0A9F90446204618F0F7FA584908
:10168000054618F003FD002840F0178244A3D3E973
:101690000023DDE9040117F033FD14F05DFB18F0C1
:1016A00093F90646631E012B05D804F10C0018F0CF
:1016B000DDFA013E0546304618F0D8FA3E490446A8
:1016C00018F0DCFB17F07CFE14F046FBCDE90401BA
:1016D00020463A4918F0D2FB17F072FE14F03CFB9A
:1016E000CDE906012046364918F014FB17F068FED4
:1016F00014F032FBCDE9080128464FF07E5118F076
:1017000001FA304918F006FB17F05AFE14F024FBDA
:1017100025A3D3E90023CDE90A015046594617F025
:10172000EFFC002204460D462E4BDDE9000117F0C8
:10173000C5FF02460B462046294617F0E3FC1CA3D2
:10174000D3E9002382468B4617F0B8FFDDE9042376
:1017500006460F4600204FF0804145E0AFF3008081
:1017600000000080A2423A41000000008C8A414102
:1017700000000040D07D3C410000000088D5E140E1
:101780000000000000D097400000006066865E40C8
:101790000000000000D4764000000020A0993E40E8
:1017A00000000000006BB240000000802CB44241F9
:1017B00000000000A0D5E1400000C8420000C8437E
:1017C00000A0B64301CDF441000070420000614525
:1017D0000000E03F0000F03F0000D03F00002B4041
:1017E000000020400000384017F08AFCDDE90623A5
:1017F00017F088FCDDE9082317F084FCDDE90A23F3
:1018000017F080FC044640460D4617F0C7FD02461F
:101810000B462046294617F075FCAFA3D3E90023F9
:1018200017F070FCAEA3D3E9002317F069FCAEA358
:10183000D3E9002317F018FEADA3D3E9002317F076
:1018400061FC05E0204629460022C54B17F058FCF4
:101850000022C34B04460D4618F08CF80028F1D145
:10186000002200232046294618F070F868B120466F
:1018700029460022BA4B17F045FC002200230446FB
:101880000D4618F063F80028F1D19BA3D3E900239B
:10189000DDE9000117F0E8FD22462B4617F032FC87
:1018A00097A3D3E9002304460D463046394617F086
:1018B000DBFD32463B4617F0D7FD22462B4617F09C
:1018C00021FC05E0204629460022A54B17F018FC14
:1018D0000022A34B04460D4618F04CF80028F1D125
:1018E000002200232046294618F030F868B120462F
:1018F000294600229A4B17F005FC002200230446DB
:101900000D4618F023F80028F1D17FA3D3E9002376
:101910005046594617F0A8FD02460B467CA1D1E976
:10192000000117F0EDFB7CA3D3E9002317F0C6FEFE
:1019300014F09AFA7AA3D3E9002306460F465046DC
:10194000594617F091FD78A3D3E9002317F0DAFB8D
:1019500002460B4617F0D6FB6FA3D3E9002317F01E
:10196000ADFE14F081FA72A3D3E9002380468946C4
:101970005046594617F078FD02460B466EA1D1E954
:10198000000117F0BDFB64A3D3E9002317F096FE16
:1019900014F094F96AA3D3E9002382468B463046BB
:1019A000394617F061FD68A3D3E9002306460F46C8
:1019B0004046494617F058FD02460B463046394628
:1019C00017F09EFB52465B4617F04EFD22462B4613
:1019D00017F098FB05E0204629460022604B17F0DF
:1019E0008FFB00225E4B04460D4617F0C3FF002814
:1019F000F1D1002200232046294617F0A7FF68B145
:101A0000204629460022564B17F07CFB002200237B
:101A100004460D4617F09AFF0028F1D10399514B67
:101A20000022D1E90C0117F049FE02460B46204680
:101A3000294603E04A4B20462946002217F060FB66
:101A40000022474B04460D4617F094FF0028F1D1C1
:101A5000002200232046294617F078FF68B120466F
:101A6000294600223E4B17F04DFB0022002304467E
:101A70000D4617F06BFF0028F1D1204629460022C1
:101A8000374B17F01BFE32A3D3E9002317F0ECFC11
:101A900017F09AFF72B6039B186062B60DB0BDE8EE
:101AA000F08F0022304B2046294617F029FB14F016
:101AB00053F917F089FF0446DEE527A3D3E9002395
:101AC000DDE9040117F01CFB14F046F917F07CFF68
:101AD0000646E7E5AFF3008000000080A2423A41ED
:101AE000000000802CB44241000000E05BD2B03F17
:101AF000000000801CCA1A40000000E0360BF03FD6
:101B0000000000605243FB3E00000060C91CAB3F78
:101B1000000000608F425F4000000020DCA54C40C8
:101B2000000000E0718AEF3F0000002085877140CF
:101B3000000000A0F2D79A3E000000007670374007
:101B4000000000A0EEE734BF00000080732AF93ED9
:101B500000000000C07A604100000000006CB2404C
:101B60000000384000002E4000002A4070B5056893
:101B7000044628460E4610F0D1F9864203D031467D
:101B8000284610F0E5F9204670BD00BFFFFFFFFFBB
:101B9000032900D970472DE9F04301EB410505EB1E
:101BA000C50505F1C80487B001700646204610F04F
:101BB000B5F98DF80C0005F1C90010F0AFF98DF8FA
:101BC0000D0005F1CA0010F0A9F98DF80E0005F11D
:101BD000CB0010F0A3F98DF80F00039817F0F0FB7D
:101BE0000022874B8046894617F0B0FE40B900229C
:101BF000844B4046494617F0C7FE002800F0CA80D3
:101C000006A9002341F8143D002200232046C6E91E
:101C10000223FEF717FE78A3D3E90023D6E90201D9
:101C200017F04CFD8046894614F048F8C6E90C01CF
:101C30004046494614F018F9C6E90E0105F1CC00FA
:101C400010F06CF98DF80C0005F1CD0010F066F97C
:101C50008DF80D0005F1CE0010F060F98DF80E0042
:101C600005F1CF0010F05AF98DF80F00039817F026
:101C7000A7FB0022644B8046894617F071FE38B9F5
:101C80000022624B4046494617F074FE00287ED081
:101C900006A90023307841F8103D1B27CC240022F0
:101CA000002307FB0040C6E90423FEF7CBFD05F146
:101CB000D00010F033F98DF80C0005F1D10010F0D0
:101CC0002DF98DF80D00BDF80C2002F1C8039BB270
:101CD00042F208018B4260D8328305F1D20010F045
:101CE0001DF917F0BFFF4A4918F0C8F8494917F025
:101CF00007FF4949F062044618F0AAF9002835D1D7
:101D000005F1D30406F11A08E23506F11907204659
:101D100010F004F9013407F8010F18B3A542F6D109
:101D200032783E4903A818F0F1FF03A819F008FA29
:101D3000421C0F2A05463AD92FA3D3E90023D6E93E
:101D4000020117F0BBFC04460D4613F0B7FFC6E9CD
:101D50000C012046294614F087F8C6E90E0107B0A9
:101D6000BDE8F083B37E002BDAD0E5E720462949B1
:101D700018F08CF90028C3D032780023F3621B20BE
:101D8000D22300FB0230782110F0E2F8B8E7C6E970
:101D900004898CE7C6E9028950E73278D023002114
:101DA0001B2000FB02303183FEF730FD95E703A9CD
:101DB00040460FF099FF96F8009009EB490909EBAE
:101DC000C90909F1D30900240EE010F0A7F818F8AA
:101DD000045085422946384601D010F0B9F84046F3
:101DE00019F0AEF90134054609EB0407A54238465F
:101DF000EBDAA1E7AFF3008000000020DCA54C4047
:101E0000008056C000805640008076C0008076403A
:101E10000000204100004041000040C10C050200CC
:101E2000437810B504780BB144F0020483780BB109
:101E300044F004040D2010F071F8844205D02146CE
:101E40000D20BDE8104010F083B810BDFFFFFFFF6C
:101E500010B5044608462378022B1AD0032B07D06E
:101E6000012B00D010BD6068BDE810400EF000BE30
:101E700017F084FA10A3D3E9002317F01FFC17F022
:101E8000CBFD4FF07A5281B2E068BDE810400FF010
:101E900083BD17F073FA08A3D3E9002317F00EFCF3
:101EA00017F0BAFD4FF07A5281B2A068BDE8104039
:101EB0000FF0D0BDAFF30080CD3B7F669EA0F63F14
:101EC00010B50446084617F069FA0B4602464FF073
:101ED0008041002014F0ECF817F076FD2378022BF7
:101EE00010D0032B08D0012B00D010BD0146606834
:101EF000BDE810400EF052BF81B2E068BDE810406E
:101F00000FF0ACBD81B2A068BDE810400FF0A6BDD7
:101F1000F8B5002010F002F8431EDBB2032B7C4B17
:101F200000F2D5800128187000F0D3800428794988
:101F3000794B4FF0000014BF0322012208701A7081
:101F40001D200FF0EBFF17F091FE744917F0E2FE31
:101F500017F036FA0022002304460D4617F0ECFC79
:101F600040B900226E4B2046294617F00DFD00288F
:101F700000F0B6806B4B6C4D00241E211D20C3E980
:101F800000450FF0E5FF21200FF0C8FF674BA0F1DF
:101F9000800222201A600FF0C1FF654B18603420C8
:101FA0000FF0BCFF803817F061FE624917F0B2FEF7
:101FB000614917F063FF0021044618F05DF800281E
:101FC00000F096804FF07C51204617F09BFD18F0F2
:101FD0007DF880EAE073A3EBE073B42B574BCCBFE2
:101FE0003C2218604FF03500C8BF1A600FF096FF12
:101FF000803817F03BFE4F4917F08CFE4E4917F022
:102000003DFF0021044618F037F8002878D04FF043
:102010007C51204617F076FD18F058F880EAE073FE
:10202000A3EBE073B42B464BCCBF3C2218604FF0BF
:102030003600C8BF1A600FF071FF17F09FF9002239
:10204000404B17F03BFB00223F4B04460D4617F078
:102050007DFC38B900223D4B2046294617F094FC00
:10206000002841D03A4B39490020C3E90001394EDC
:1020700039493A4D3A4FF06A3A4C00220023C7E9F9
:102080000423C1E90423C5E90A2317F087F9364B75
:10209000C4E90601D86A17F081F9D6E90823C5E931
:1020A00006010920C4E90A230FF038FF2F4B02284C
:1020B00094BF024600222C201A700FF02FFF2C4BE9
:1020C000186030200FF02AFF2A4B1860F8BD01225B
:1020D0001A701049104B0220032208701A702FE763
:1020E000104BC3E900454EE7194BC3E90045BEE775
:1020F0004FF07C51204617F003FD17F0E7FF68E72B
:102100004FF07C51204617F0FBFC17F0DFFF85E70E
:10211000B887FF1F2498FF1F4D99FF1FCDCCCC3DE2
:10212000000039407087FF1F000008402893FF1F00
:102130003498FF1F0000704200007041BC97FF1FE1
:102140002098FF1F0000244000002240000028408B
:10215000C097FF1F4098FF1F9095FF1F8893FF1F98
:102160007095FF1F4093FF1F8098FF1F3096FF1F41
:10217000D495FF1F1494FF1F2DE9F04FA04CA14DE3
:1021800093B00023002705930493039302930193D4
:1021900000931A46194680462F7020460CF04EFFD9
:1021A0004FF4AC7084F821710FF0B8FE012800F0F4
:1021B0009580954B1B78033B012B40F2F680934CA6
:1021C000934DD4E90C01D4E90E232D78CDE90C010F
:1021D000CDE90E23002D3FD0E568A6688D4B304633
:1021E0002946002217F0D0FB002835D0304629467A
:1021F0000022002317F0C8FB002800F0D3803246ED
:102200002B4612AF67E90223824B0022CDE900235F
:1022100038460022804B0DF071FB00220023D4E9E8
:10222000020117F093FB002840F0B780109A119B31
:10223000104619466EA3D3E9002317F03FFA04466F
:102240000D4613F03BFDCDE90C012046294613F065
:102250000BFECDE90E0100E010AFDFF8C8916F4929
:1022600001974FF000080EAE0CAD0AAC42464B464B
:1022700000200396029500940DF04AFCDDE910233E
:10228000DDE90A01CDE90423CDE902010022634B17
:102290005B48CDE900890CF0AFFF42464B4656A1A2
:1022A000D1E90001039602958DE890000DF030FC15
:1022B000DDE91023DDE90A01CDE90423CDE90201BE
:1022C000CDE900894E484CA3D3E900230CF094FFDC
:1022D0004B480CF0DFFF13B0BDE8F08FB8F1000FF2
:1022E00055D1064610A94FF49A70FEF7D7F810A9F9
:1022F0004FF49C70109FFEF7D1F8109A099210A924
:102300004FF49E70FEF7CAF810A94FF4A070DDF8E4
:102310004080FEF7C3F8109B079310A94FF4A270FA
:10232000FEF7BCF810A94FF4A470DDF84090FEF75A
:10233000B5F810A94FF4A670DDF840A0FEF7AEF88E
:1023400010A94FF4A870DDF840B0FEF7A7F8109B75
:10235000089310A94FF4AA70FEF7A0F8079B1098F5
:102360000093089B0493099A0590434639462046FA
:10237000CDF80CB0CDF808A0CDF804900CF05EFEBE
:1023800020460CF093FE2E7013B0BDE8F08F394656
:102390004FF4AC700FF0DCFD0BE7119B109A03F1CA
:1023A000004345E705F1004529E71D4F1448002487
:1023B0000025002622462B46CDE90445CDE90045FF
:1023C000CDE902670CF018FF14490020CDE90401A3
:1023D000CDE90001CDE9026722462B4608480CF002
:1023E0000BFF07480CF056FF75E700BFAFF3008006
:1023F00000000020DCA54C400000000000E0704020
:102400002094FF1FD995FF1FB887FF1F5899FF1F02
:102410002493FF1F0000244000908F40008056400E
:10242000008066400080464038B51F4B1B78DA1E9E
:10243000012A22D91D4A012BD2E902451C4B14BFA7
:102440000021D96A1960002200232046294617F08E
:102450007DFA184BDA6A20BB1A6020462946002311
:10246000002217F091FA4FF0010300B9034683F000
:102470000103114ADBB2137038BD0C4BD3E902459E
:10248000002200232046294617F060FA084B30B995
:10249000084A1860D36A136020462946DFE7986A25
:1024A000F6E75242D8E700BFB887FF1F5899FF1FD1
:1024B0004098FF1F8098FF1F7896FF1F30B56E2051
:1024C00083B00FF02BFD8DF806006F200FF026FD76
:1024D0007C4B8DF80700BDF806201A6064200022AE
:1024E000DA600FF01BFD8DF8060065200FF016FD79
:1024F000754C8DF80700BDF80630236068200FF09A
:102500000DFD8DF8060069200FF008FD8DF807001D
:10251000BDF8063063606A200FF000FD431EDBB299
:10252000072B00F2C28020726B200FF0F7FC031C17
:1025300018BF01236C2063720FF0F0FC00B200EBB7
:10254000800000EB80008000A0F1C80140F6282246
:1025500091425D4B00F2A18018616D200FF0DEFC0E
:1025600000B200EB800000EB80008000A0F1C80208
:1025700040F628239A4200F28880E06070200FF035
:10258000CDFC031C18BF01237C20A3720FF0C6FCF6
:102590008DF806007D200FF0C1FC4C4B8DF8070034
:1025A000BDF806201A6072200022DA600FF0B6FC37
:1025B0008DF8060073200FF0B1FC454C8DF8070034
:1025C000BDF80630236076200FF0A8FC8DF80600D9
:1025D00077200FF0A3FC8DF80700BDF8063063608C
:1025E00078200FF09BFC431EDBB2072B41D82072F2
:1025F00079200FF093FC031C18BF01237A2063722B
:102600000FF08CFC00B200EB800000EB800080003B
:10261000A0F1C80140F6282291422D4B21D8186123
:102620007B200FF07BFC00B200EB800000EB800011
:102630008000A0F1C80240F628239A4209D8E06041
:102640007E200FF06BFC003018BF0120A07203B099
:1026500030BD4FF47A730A217B20E3600FF078FCE1
:10266000EEE74FF47A720A217A201A610FF070FCBB
:10267000D6E70425782025720FF050FCA842B7D089
:10268000294678200FF064FCB2E74FF47A730A21F0
:102690006D20E3600FF05CFC70E74FF47A720A2162
:1026A0006C201A610FF054FC57E704256A2025724C
:1026B0000FF034FCA8423FF437AF29466A200FF0F0
:1026C00047FC31E71899FF1FCC97FF1F3099FF1F78
:1026D000F097FF1F08B56E200FF020FC18B1002105
:1026E0006E200FF035FC6F200FF018FC18B10021A0
:1026F0006F200FF02DFC64200FF010FC082803D091
:10270000082164200FF024FC65200FF007FC072847
:1027100003D0072165200FF01BFC68200FF0FEFBA3
:10272000C82803D0C82168200FF012FC69200FF0E0
:10273000F5FB18B1002169200FF00AFC04216A2082
:102740000FF006FC00216B200FF002FC0A216D2027
:102750000FF0FEFB0A216C200FF0FAFB7020002125
:102760000FF0F6FB7C200FF0D9FB18B100217C2084
:102770000FF0EEFB7D200FF0D1FB18B100217D2082
:102780000FF0E6FB72200FF0C9FB082803D00821E8
:1027900072200FF0DDFB73200FF0C0FB072803D081
:1027A000072173200FF0D4FB76200FF0B7FBC82869
:1027B00003D0C82176200FF0CBFB77200FF0AEFBC3
:1027C00018B1002177200FF0C3FB042178200FF00F
:1027D000BFFB002179200FF0BBFB0A217B200FF00B
:1027E000B7FB0A217A200FF0B3FB00217E20BDE861
:1027F00008400FF0ADBB00BF2DE9F043144683B095
:102800001D4688BB1E4E336A0193019B01981D4AE9
:10281000002BD8BF4042966B16F0C0FD8046304674
:10282000894616F0BBFD02460B4606460F4620467B
:10283000294616F019FE04460D4602460B46304660
:10284000394617F08DF808B934463D462B462246E6
:102850004046494617F07AF84FF0010300B90346A5
:10286000D8B203B0BDE8F08372B6054ED6E90601D2
:1028700017F0AAF83369C01A306262B6C3E700BF26
:102880004093FF1F4098FF1F2DE9F043144683B08B
:102890001D4688BB1E4E336A0193019B01981D4A59
:1028A000002BD8BF4042966B16F078FD804630462C
:1028B000894616F073FD02460B4606460F46204633
:1028C000294616F0D1FD04460D4602460B46304619
:1028D000394617F045F808B934463D462B4622469E
:1028E0004046494617F032F84FF0010300B903465D
:1028F000D8B203B0BDE8F08372B6054ED6E9060142
:1029000017F062F83369C01A306262B6C3E700BFDD
:102910008893FF1F8098FF1F604A13682DE9F04FCE
:10292000013313605E4B1B788DB0002B00F0E2800A
:102930005C4B5D4D5D4CDFF8B4B1DFF878A10093DE
:10294000DBE90067DFF8A8E1DFF860B1D5E90C89C1
:102950003246D4E90C013B46DEE90001D4E90C0122
:1029600017F008F808B1DBE90C67C4E90C67009BB5
:102970004C4AD4E90C451B7A23B14D4B0121D2E9D5
:10298000048919709AF808304A4A23B14A4B012148
:10299000D2E904451970494B1B781BB1404B1B7899
:1029A000002B46D0464E4046D6E90023494616F055
:1029B000C3FFC8B972B60022424B4046494616F0E2
:1029C00053FD0022404B16F04FFD00223F4B16F006
:1029D0004BFD00223E4B16F093FB17F01DF83D4BCC
:1029E000186062B6C6E900893B4E2046D6E900234E
:1029F000294616F0A1FFC8B972B60022314B204615
:102A0000294616F031FD00222F4B16F02DFD002235
:102A10002E4B16F029FD00222D4B16F071FB16F0FF
:102A2000FBFF2E4B186062B6C6E900450DB0BDE84D
:102A3000F08F009B1B7AA3B91D4E33788BB1284BC6
:102A40001B7803F0FF0763B972B60022204B012008
:102A5000FFF7D2FE002840F0A082224BD3E9008984
:102A600062B69AF80830002B9CD1134E3378002BB5
:102A700098D01D4B1B7803F0FF07002B92D172B644
:102A80000022134B0120FFF7FFFE002840F0878251
:102A9000144BD3E9004562B684E700BF5897FF1F87
:102AA000F095FF1F1899FF1F4093FF1F8893FF1F8A
:102AB000C897FF1F3099FF1FC997FF1F1598FF1F69
:102AC0000099FF1F0000B03F000042400000E03FBF
:102AD0000000F03F7887FF1F0899FF1FBC87FF1F8A
:102AE0007095FF1F9899FF1F9095FF1F2887FF1F64
:102AF000B895FF1F72B6A64DA64CD5E9060116F093
:102B000063FF2B69C01A2862D4E9060116F05CFF46
:102B10002369C01A206262B69F4B00932F6A1B7A0A
:102B2000002B00F088809D4B9D4EDFF898B20193FA
:102B3000D5E90E01D6E9002316F0E4FA21F00046AB
:102B400031460022974BDFF88092074616F01CFFB3
:102B5000002800F0E7813A463346D9E9000116F033
:102B6000ADFD06460F46DFF864823046D8E9002303
:102B7000394616F0E1FE18B9C5E90C67C8E90067E7
:102B800072B6D5E9060116F01FFF2B69C01A28623C
:102B9000D4E9060116F018FF2369C01A206262B654
:102BA000236A0793079BDFF828A2079E002B9AF859
:102BB0000830D8BF764233B9DFF8F08198F800309A
:102BC000002B40F00981784B0293029BD4E90E015F
:102BD000D3E9002316F096FA21F000463146002290
:102BE000704B074616F0D0FE002800F092813A465E
:102BF0003346D9E9000116F061FD06460F46DFF8BD
:102C0000D4813046D8E90023394616F095FE18B92C
:102C1000C4E90C67C8E90067019B1B78002B7FF4AF
:102C20008FAE624B1B7803F0FF02002B7FF488AE5F
:102C30005F4B1A7084E6594B01931B78002B00F010
:102C4000A881019B564ED3E90623104623F000418C
:102C50000022584B16F07AFE002840F06C81564B4B
:102C60001B78002B40F0C981384616F097FBD5E958
:102C7000028921F0004102460B4616F043FA424613
:102C80004B4616F0F1FB13F08BFB0022002380462D
:102C9000894616F051FEDFF82CB1002800F098812B
:102CA000DBE90089454B3E4F40464946D3E90423C2
:102CB00016F0DAFB32A3D3E9002316F0FFFC02463C
:102CC0000B4631A1D1E9000116F0F8FCC6E900017C
:102CD000DFF8E0904FF00008D6E9000142464B468D
:102CE00016F034FE08B1C7E90089019B1B78622BFE
:102CF0007FF41EAF2B6A0893089B08982F4A002B7D
:102D0000D8BF4042976B16F049FB8046384689464B
:102D100016F044FB02460B464046494616F016FEA6
:102D200000283FF405AF019F0021002200233970E5
:102D3000C7E90623C6E90023236A0993099B09987A
:102D40001F4A8B42D8BF4042976B16F027FB804644
:102D50003846894616F022FB02460B464046494655
:102D600016F0F4FD00283FF4E3AE134B1B78002B64
:102D70007FF4DEAEFDF798FDDAE600BFAFF300802A
:102D80000000000080842E41000000000020AC40C4
:102D90004093FF1F8893FF1F1899FF1F7095FF1F17
:102DA000E095FF1F0000E03FE895FF1F9095FF1F93
:102DB000EC93FF1F00001040F298FF1F4098FF1F88
:102DC0008098FF1F2887FF1FF895FF1F3898FF1F67
:102DD0003099FF1F3896FF1FD8E90623104623F0CD
:102DE00000410022A44B16F0B1FDA44B0293002831
:102DF00040F0B980A24B1B78002B40F00181304697
:102E000016F0CCFAD4E9026721F0004E7346714601
:102E1000024616F077F932463B4616F025FB13F0D2
:102E2000BFFA0022002306460F4616F085FD002853
:102E300000F0B780DBE90023CDE90423914B8F4EEE
:102E4000D3E90423DDE9040116F00EFB84A3D3E9E2
:102E5000002316F033FC02460B4683A1D1E90001A2
:102E600016F02CFC029BC3E900010022D3E900010B
:102E7000814B16F06BFD18B17F4B0022C6E9002391
:102E800098F80030622B7FF4A0AE236A0A930A9B65
:102E90000A987C4A002BD8BF4042966B16F07EFA07
:102EA000CDE90401304616F079FA02460B46DDE919
:102EB000040116F04BFD00283FF487AE002188F88E
:102EC0000010029900220023C8E90623C1E900236B
:102ED0002B6A0B930B9B0B986B4A002BD8BF40427D
:102EE000966B16F05BFA07463046884616F056FA9F
:102EF00002460B463846414616F028FD00283FF4AE
:102F000064AE5F4B1B78002B7FF45FAEFDF7CCFC0B
:102F10005BE6D9E900231046194616F0F3F8064699
:102F20000F466CE6D9E900231046194616F0EAF878
:102F300006460F4617E6D6E90023104623F0004167
:102F400000224D4B16F002FD00283FF488AE019B95
:102F50001B78622B67D0019BDFF83CB1D3E90623D5
:102F6000C6E90023C1E6D3E90023104623F000415F
:102F70000022414B16F0EAFC00283FF43BAF98F8E2
:102F80000030622B3FD0D8E906230299C1E9002323
:102F900076E73E4EDFF800B1CAE5377060E537707E
:102FA00079E532463B4632A1D1E9000116F086FBB5
:102FB000DBE90023CDE9040116461F4616F0DAFCD2
:102FC00000287FF43BAF32463B46CDE9042335E78A
:102FD00042464B4626A1D1E9000116F06FFBDBE922
:102FE000002380468946CDE9022316F0C3FC002861
:102FF0007FF458AEDDE9028954E6FDF741FD33E682
:10300000FDF73EFDFBE6D4E90E23C8E906230022C6
:103010000023D8E9060116F0ADFC0022A0B11C4B3C
:10302000C8E90623AFE7D5E90E23019FC7E90623C8
:10303000D7E906010022002316F09CFC002238B1DB
:10304000134BC7E9062386E7124BC8E906239AE724
:10305000104B0199C1E906237DE700BFAFF3008063
:103060000000000080842E41000000000020AC40E1
:103070000000000080846E4100001040E895FF1FB2
:10308000F298FF1F8098FF1F4098FF1FE095FF1FD9
:103090000000F03F0000F0BF2887FF1F70B50E4D05
:1030A0000E4C0F4ED5E91001D4E91023C5E90E01ED
:1030B000C4E90E23D6E90801D5E90E2316F0D4F9A8
:1030C000084EC5E90A01D4E90E23D6E9080116F035
:1030D000CBF9C4E90A0170BD4093FF1F8893FF1F1D
:1030E0004098FF1F8098FF1F2349F8B50022234B0B
:1030F000D1E9000116F0B8F902460B461CA1D1E94E
:10310000000116F0DBFA04460D4672B61C4BD3E9FB
:1031100000231046194615F0F5FF1A4BD3E9042396
:1031200006460F4616F0A0F902460B4620462946F1
:1031300016F0C4FA22462B4616F096F9124A134BA3
:10314000C2E90201D3E904233046394616F08CF96E
:1031500002460B462046294616F0B0FA2B46224678
:1031600016F082F90A4BC3E9020162B6F8BD00BF4E
:103170000000000080842E412887FF1F0000B03F20
:103180007087FF1F4098FF1F4093FF1F8098FF1F0D
:103190008893FF1F2DE9F047041E43DB042CA8BFD2
:1031A0000424214B214D21B303EBC403D3E9006771
:1031B000DFF890A01E4BE4B2C5E90067CAE90067DA
:1031C0001C7072B61B491C4E1C4CD5E90023D1E97A
:1031D000080116F049F91A4DC6E90401DAE900239D
:1031E000D5E9080116F040F9C4E9040162B6BDE86A
:1031F000F08703EBC403D3E90067D5E900893046C3
:10320000394642464B4616F097FBDFF838A00028B7
:10321000D0D040464946DAE9002316F08DFB00285D
:10322000C8D0E4E70024BCE78087FF1F5095FF1F4C
:10323000C187FF1F4098FF1F7095FF1F9095FF1FCC
:103240008098FF1F5895FF1F2DE9F8432E4A2F4BFA
:10325000D2E90489D3E9044506460F4622462B46A7
:103260004046494616F072FB08B144464D4620469A
:1032700029460022264B16F0F7F821A3D3E90023B4
:1032800016F01CFA02460B460020224916F016FAE8
:1032900032463B468046894616F010FA00221E4B05
:1032A00004460D4616F066FB08B91B4D00241B4F63
:1032B0001B4E22462B46C7E900454046494616F0BC
:1032C000FDF904460D46D6E90623C6E9084516F081
:1032D00047FB38B1134B002240211920C6E90623D1
:1032E0000EF036FE104B01211878FFF753FFFFF761
:1032F000FBFE20462946BDE8F88300BFAFF30080FF
:103300000000000080842E414098FF1F8098FF1F1E
:103310000000B03F00006E40000074402887FF1F8F
:103320008087FF1F00005040C187FF1FF0B51A20A3
:1033300083B00EF0F3FD8DF804001B200EF0EEFDBF
:103340008DF80500BDF8040016F028F804460D4677
:10335000FFF77AFF02460B4606460F4620462946EF
:1033600015F0CEFE05460C462846214600220023D5
:1033700016F00AFB38B32846214600224FF080435E
:1033800016F002FB08B903B0F0BD3946304616F01E
:103390001BFB01461A20CCB201910EF0BFFD844206
:1033A00003D021461A200EF0D3FD1B200EF0B6FDEF
:1033B0009DF805408442E6D021461B2003B0BDE8BD
:1033C000F0400EF0C5BD04F10044D4E7012870B50B
:1033D00014461D461AD0022800D070BD124E104669
:1033E0001946D6E9002316F0A7FA0028F5D1C6E958
:1033F000004572B60D490E4CD6E90023D1E908010B
:1034000016F032F8C4E9040162B670BD0949D1E989
:10341000000116F091FA0028DFD120462946BDE8C8
:103420007040FDF76FB900BF5895FF1F8098FF1FD0
:103430009095FF1F5095FF1F2DE9F843184B194C2D
:10344000194DD3E90067D4E9008930463946424630
:103450004B4616F071FA30B140464946D5E9002393
:1034600016F06AFAC8B9C4E90067C5E9006772B620
:103470000E490F4F0F4ED4E90023D1E9080115F092
:10348000F3FF0D4CC7E90401D5E90023D4E9080195
:1034900015F0EAFFC6E9040162B6BDE8F88300BF93
:1034A0008087FF1F5095FF1F5895FF1F4098FF1FF3
:1034B0007095FF1F9095FF1F8098FF1F2DE9F04723
:1034C000604B1B788AB053B95F4B5B783F2B00F0A1
:1034D0009E805E4E302333800AB0BDE8F087002323
:1034E0003A22049303930593069307930893ADF848
:1034F0002430029210F0A6F901E010F0DBF910F090
:10350000C5F90028F9DC02AD284617F019FE4E4C2B
:103510002844214617F020FC02224D49471B0EF09B
:10352000E3FB6378213B5D2B6DD8DFE803F02F6C64
:103530006C2F6C6C6C6C6C6C2F6C2F6C6C6969698B
:103540006969696969696C6C6C6C6C6C3B6C6C6CFE
:10355000696C6C6C2F6C696C6C6C3B6C692F2F6C9C
:103560002F6C6C3B696C6C6C6C6C6C6C6C6C6C6C0C
:10357000696C6C6C2F6C696C6C6C696C696C6C69D7
:103580002F6C6C6C6C3B6C6C6C6C6C3B791C2846C7
:1035900010F0C8F810F056F92C4B00221A700AB03F
:1035A000BDE8F0874FF000092A4C284E791C2846C8
:1035B00010F0B8F810F046F9236800930027009D3A
:1035C000B046BA4623680193019B5B1B272B81D829
:1035D00010F05CF90028F5DD10F06CF9C0B223287A
:1035E0001ED00137322F88F800003FF473AF08F87F
:1035F00001AFB9F1000FE5D031283FF46DAF69E7B5
:103600004FF00109D0E7114B30221A8064E7124BCA
:103610000E4A1B6813801B0C93700AB0BDE8F0873C
:10362000B9F1000F08D0312F88F800003FF452AFF5
:10363000002388F801304DE7F319F05583F8019025
:103640004AE700BF2C93FF1F4496FF1FC098FF1F3F
:1036500018050200C499FF1F14050200124B93F8CD
:103660004820D2B110B411485C6D026883B041F2B9
:1036700087310092009A121B8A4210D893F83820A2
:103680006AB102680192586C019B1B1A8B428CBF75
:103690000020012003B010BC7047002070470020BC
:1036A00003B010BC704700BF8096FF1FC499FF1F76
:1036B000114B1A78D2B110B410485C6B026883B019
:1036C00041F287310092009A121B8A4210D893F877
:1036D00078206AB102680192D86F019B1B1A8B4255
:1036E0008CBF0020012003B010BC70470020704741
:1036F000002003B010BC70478096FF1FC499FF1FC5
:1037000010B5FFF7ABFF0446FFF7D2FF2040C0B271
:1037100010BD00BF2DE9F04F2D4E2E4D33682968A6
:103720008DB041F288320193019B5B1A934204D819
:10373000294B18780DB0BDE8F08F284C94E80F00A5
:1037400004AF103487E80F0094E80F0008AC84E859
:103750000F0038460CF07AFE804638460CF086FEA4
:10376000834638460CF096FE824620460CF09EFEBC
:10377000814620460CF0A6FE074620460CF0B8FE17
:103780000CAB08F14E0803F8280D18468DF80DB063
:103790008DF80E808DF80CA08DF80A908DF80970C8
:1037A0000CF0F4FF04460EF09BFE041B33680293FA
:1037B000002CB8BF64420A49074A029B0861042CE6
:1037C000CCBF0020012010702B600DB0BDE8F08F41
:1037D000C499FF1F6496FF1F5499FF1FB896FF1FDF
:1037E0005897FF1FFFFFFFFF2DE9F04F424D434C5D
:1037F0002B68216893B041F288320293029B5B1AD6
:10380000934204D83E4B187813B0BDE8F08F3D4F7B
:103810003D4ED7F880B00FCF0DF1100EAEE80F007F
:103820000FCFAEE80F000FCFAEE80F0097E8030010
:103830008EE8030004A8D6E904890CF0EBFD0246EB
:103840000B464046494615F05DFC0BF087FFD6E974
:103850000223824604A80F46CDE900230CF0BEFDEA
:1038600023A3D3E9002380468946504627F0004130
:1038700016F06CF8B6F9186060B342464B46DDE9C5
:10388000000115F03DFC21F00043194618A3D3E9CF
:10389000002316F05BF8E8B1304615F07FFD0646D0
:1038A00058460F4616F0E2F9184916F0E7FA15F0F7
:1038B00087FD02460B463046394615F021FC21F0C3
:1038C000004319460022124B16F040F84FF0010356
:1038D00048B1D8B22B680393039A094B2260187041
:1038E00013B0BDE8F08F0346F3E700BFAFF30080ED
:1038F00000000040E17A843FC499FF1FD093FF1F6E
:103900006096FF1F8096FF1F5899FF1F0000C84256
:103910000000594010B51C4B5B782B2B02D02D2B8F
:1039200000D010BD194C2068FF2811DDFF202D2B81
:10393000206013D02B2B1ED01E28DCBF1F20206040
:10394000014606200EF0E6FD114B00221A7010BD54
:103950001E28DCBF1F2020602D2BEBD116F086F92E
:103960000C4916F08BFA16F0B1FB2060FF28E3DD5E
:10397000FF202060E4E716F079F9064916F0CAF94D
:1039800016F0A4FB2060F1E74496FF1FC487FF1FD9
:10399000C098FF1F3333B33F0E4B5B78ABB90E4A71
:1039A000127810B502F0FF010C4C52B921700B488F
:1039B00017F0C6FB022220440949BDE810400EF072
:1039C00093B97F2263702270F1E7044B30221A8092
:1039D000704700BF4496FF1FF095FF1FC098FF1F60
:1039E000180502001D4B58783038232831D8DFE8FD
:1039F00000F01313131313303030303030303030C8
:103A00003030303030123030302430303030301EF2
:103A100030303030302A0120114B1B7833B9114B34
:103A20001B7803F0FF010BB9FFF7B4BB70470C4BD9
:103A30001B780220002BF9D1F1E7094B1B780020FD
:103A4000002BF3D1EBE7064B1B780320002BEDD1C5
:103A5000E5E7054B30221A80704700BF4496FF1FF0
:103A6000F095FF1FEC93FF1FC098FF1F30B585B086
:103A700004AC64E90423CDE9020122469DF820004C
:103A80000D4B099D0A9C02A90CF026F90B49DDE9B2
:103A90000223D1E9040115F0E7FC15F095FF084970
:103AA0002860DDE90023D1E9040115F0DDFC15F003
:103AB0008BFF206005B030BD6099FF1F4098FF1F4D
:103AC0008098FF1FF0B58BB00AAC0026002764E990
:103AD000026705ADCDE90223CDE90001224606A922
:103AE0009DF840701248002604AC05960BF038FC97
:103AF000DDE90823DDE90601009702950194FFF74F
:103B0000B5FF72B60B4D0C4C049A059B2A612361DC
:103B1000286915F043FCC5E90601206915F03EFC53
:103B2000C4E9060162B6054B01201E700BB0F0BD62
:103B30002094FF1F4093FF1F8893FF1FC887FF1F1C
:103B4000F0B58BB00AAC0026002764E902670B4D84
:103B5000119E6F78129D029406AC019400979DF817
:103B60004040039604950BF0A3FFDDE90823DDE94F
:103B700006010094FFF7A6FF0BB0F0BD2493FF1FD2
:103B8000604B1B78002B33D15F4B1B78002B2FD160
:103B90002DE9F04F5D4C6378413BDBB2142B8BB0C9
:103BA00041D85B4A22FA03F3DA073CD572B6594E84
:103BB000336962B6584DEA6A51428B4236DA4FF0A9
:103BC0000208564B1A7812B100219046197063789A
:103BD000413B142B19D8DFE803F00C1818181818FB
:103BE000181818181818BD1818181818BD1830000B
:103BF00070474B4B4B49CDF80080D3E90023D1E906
:103C00000001FFF75FFF6378413BDBB2142B0AD85A
:103C1000454A22FA03F3DB0705D5444A444B92E8B0
:103C20000300186019710BB0BDE8F08F9342CCBF50
:103C30004FF002084FF00108C3E70E200EF06EF9B6
:103C40008DF820000F200EF069F98DF8210010206A
:103C50000EF064F98DF8220011200EF05FF98DF856
:103C600023000898334E344D15F0AAFBC6E9000135
:103C700012200EF053F98DF8200013200EF04EF9AB
:103C80008DF8210014200EF049F98DF8220015203E
:103C90000EF044F98DF82300089815F091FBC5E962
:103CA000000172B6254B186862B6254B984205DDB7
:103CB000A0F50300A0F556409842F9DC15F0D6FFB8
:103CC000204916F0DBF8204916F024F815F078FBAF
:103CD00000221E4B15F0C8FBD6E9002315F010FAA0
:103CE0000BF008FDCDF80080D5E90067184B029372
:103CF000A3F1080201923B463246FFF721FF6378A9
:103D0000413B82E7A897FF1FF095FF1F4496FF1FD6
:103D1000011014008893FF1F8098FF1F0096FF1F5B
:103D20001898FF1F9897FF1F011010001C05020034
:103D3000C098FF1F6895FF1FA097FF1F5897FF1F90
:103D400000D6830000D6034B0000C04100002E4087
:103D50009099FF1F674F3B78002B00F0978072B659
:103D6000654B186862B6654B984205DDA0F5030007
:103D7000A0F556409842F9DC15F078FF6049DFF86D
:103D800098A116F07BF85F4915F0C4FF15F018FBF9
:103D900000225D4B15F068FB5C4BD3E9002315F066
:103DA000AFF90BF0A7FCDFF87CE1594BDFF878C1E5
:103DB000CDF810E0AEF1080ED3E900239CF801C065
:103DC000CDF80CE00DF1200ECDF808E00DF1180E45
:103DD000CDF800C0CDF804E00BF06AFE9AF820316F
:103DE000BBB9DDE90601DDE9082372B6D6F810E0BB
:103DF00062B6D5F82CC0CCF10008C64577DBE645A5
:103E0000CCBF4FF0020E4FF0010ECDF800E0FFF7EF
:103E100059FE72B6DFF814B1DBF8100015F0BEFAE7
:103E20003C4BD3E9042315F049FC804630698946B0
:103E300015F0B4FAD5E9042315F040FC62B6CDE9DB
:103E40000401DDE90801DDE90623CDE90001CDE942
:103E5000028931480BF0D0F99AF82131002B3FF458
:103E6000D2AE2E4B01221A7072B6DBF8100015F09C
:103E700095FACBE906012A4B186915F08FFA284B01
:103E8000C3E9060162B600233B70BCE672B61A4B6A
:103E9000186862B6194B984205DDA0F50300A0F53D
:103EA00056409842F9DC15F0E1FE15491D4D15F01C
:103EB000E5FF144915F02EFF15F082FA0022124B8F
:103EC00015F0D2FA114BD3E9002315F019F90BF0D4
:103ED00011FC0F4BCDF80080A5F10806D3E90023B3
:103EE00002950196FFF72CFE6378413B8DE64FF07B
:103EF000020E8AE7D895FF1F5897FF1F00D6830050
:103F000000D6034B0000C04100002E406895FF1F03
:103F1000A097FF1F4098FF1F2094FF1FD995FF1FF8
:103F20008893FF1F9099FF1F2493FF1F4093FF1F4B
:103F3000F0B5044685B00D4672B6114B186915F000
:103F40002DFA104BD3E9042315F0B8FB0E4B0646AF
:103F500018690F4615F022FA0C4BD3E9042315F02B
:103F6000ADFB02460B4662B60948CDE90223CDE916
:103F700000672A4621460BF07FFA012005B0F0BD0C
:103F80004093FF1F4098FF1F8893FF1F8098FF1FDB
:103F90002094FF1F2DE9F04488B008AD00260027CB
:103FA00065E9026704460E4604A829469A46174664
:103FB0009DF83850FFF7BCFF1E4B5B78002B2FD0CD
:103FC000DDE90623DDE904018DE8D0040BF05CFE99
:103FD00015BB72B6184B186862B6184B984205DDCF
:103FE000A0F50300A0F556409842F9DC15F03EFE1E
:103FF000134915F043FF134915F08CFE15F0E0F955
:104000000022114B15F030FAD4E9002315F078F8AE
:104010000BF0A4FBC4E90001012008B0BDE8F08466
:10402000DDE90623DDE904018DE8D0040BF070FD25
:10403000CEE700BF2493FF1F5897FF1F00D68300D1
:1040400000D6034B0000C04100002E40FFFFFFFFE1
:104050002DE9F041B54CA378413B94B0312B3DD8CC
:10406000DFE813F042003C003C00F0003C003C0064
:104070003C003C0024013C003C007E01B4013C00BB
:104080003C0014023C003F023C00CE023C003C00DD
:104090003C003C003C003C003C003C003C003C0040
:1040A0003C003C003C003C003C003C003C003C0030
:1040B0003C003C003C003C003C003C003C003C0020
:1040C0003C003C003C003200E378702B00F012878B
:1040D000742B00F00987672B00F03C84944B30224E
:1040E0001A8014B0BDE8F081924A12780023079339
:1040F000089309930A930B930C930D930E931093CB
:10410000002A40F0D186E278A2F130034A2BE5D8AC
:1041100001A151F823F000BFFF4C0000FB4C000050
:10412000154D0000E54C0000254D0000214D00001C
:104130001D4D0000194D0000114D0000DD40000034
:10414000DD400000DD400000DD400000DD400000FB
:10415000DD400000DD400000DD400000DD400000EB
:10416000DD400000DD400000DD400000DD400000DB
:10417000DD400000DD400000DD400000DD400000CB
:10418000DD400000DD400000DD400000DD400000BB
:10419000DD400000DD400000DD400000DD400000AB
:1041A000DD400000DD400000DD400000DD4000009B
:1041B000DD400000DD400000DD400000DD4000008B
:1041C000DD400000DD400000DD400000DD4000007B
:1041D000DD400000DD400000DD400000AB4C000091
:1041E000DD400000034D0000DD400000DD40000028
:1041F000DD400000DD400000DD400000DD4000004B
:10420000DD400000DD400000DD400000DD4000003A
:10421000DD400000DD400000DD400000DD4000002A
:10422000DD400000DD400000DD400000DD4000001A
:10423000DD400000AB4C0000DD400000DD40000030
:10424000AB4C0000E378423B152B3FF647AF01A291
:1042500052F823F025490000DD400000DD40000059
:10426000DD400000DD400000DD400000DD400000DA
:10427000DD400000DD400000DD400000DD400000CA
:10428000DD400000DD400000DD4000003B49000053
:10429000DD4000000D490000DD400000DD40000071
:1042A000DD400000DD400000E1480000224B2021FD
:1042B00003F1320203F8011F9A42FBD11F4A204C3E
:1042C0002049214B1278214826780978204D1B7807
:1042D000174C0078755DA570183201EB420230333F
:1042E0002270637008B14823E3701A4B1A4A1B7896
:1042F00012780F4930332371002A00F0A281402345
:104300004B71164B1A78154B012A00F084811A78EC
:10431000022A00F080811A78032A00F031831B788A
:10432000042B04BF2D23A37177E100BF4496FF1F28
:10433000C098FF1FD995FF1FBF98FF1FF095FF1F63
:10434000A897FF1F1598FF1F1099FF1FC887FF1F11
:1043500064050200C187FF1FB897FF1FEC93FF1F82
:10436000E378413B162B3FF6B9AE01A252F823F099
:1043700087490000354A0000314A0000394A0000F0
:10438000F5490000DD400000DD400000214A00004A
:10439000DD400000DD400000DD400000DD400000A9
:1043A000DD400000DD400000114A0000DD4000005B
:1043B000DD400000DD400000DD400000DD40000089
:1043C000C1490000DD4000009B490000E378423B0A
:1043D0002B2B3FF683AE01A252F823F0194B0000BD
:1043E000FD4A0000DD400000DD400000DD4000002F
:1043F000E54A0000DD400000C14A0000DD40000049
:10440000DD400000714C0000354C0000DD40000034
:10441000DD400000DD400000DD400000174C0000E2
:10442000F94B0000DD400000DD400000DD400000F1
:10443000DD400000DD400000DD400000DD40000008
:10444000DD400000DD400000DD400000DD400000F8
:10445000DD400000DD400000DD400000DD400000E8
:104460008D4C0000DD400000DD400000DD4000001C
:10447000DD400000DD400000DD400000DD400000C8
:10448000DD400000DD400000534C0000E378312B9C
:1044900000F00285322B7FF424AE72B6A54B18696A
:1044A00014F07CFFA44BD3E9042315F007F914AAF8
:1044B00062E9020162B6A14BA14C1B780093012373
:1044C000114620461A460AF02BFA002800F0128303
:1044D000204616F035FE022220449A490DF004FCD5
:1044E000FFE5E378303B422B3FF6F8AD01A252F8EE
:1044F00023F000BFDD4B0000DD4B0000DD4B000072
:10450000DD4B0000DD400000DD400000DD4000002C
:10451000DD400000DD400000DD400000DD40000027
:10452000DD400000DD400000DD400000DD40000017
:10453000DD400000DD400000C54B0000B74B00002F
:10454000DD400000A34B0000DD400000DD40000026
:10455000DD400000DD400000DD400000DD400000E7
:10456000DD400000DD400000DD400000DD400000D7
:10457000DD400000DD400000DD400000DD400000C7
:10458000DD400000DD400000DD400000DD400000B7
:10459000DD4000009F4B0000DD400000DD400000DA
:1045A000DD400000DD400000DD400000DD40000097
:1045B000DD400000DD400000DD400000DD40000087
:1045C000DD4000008D4B00007D4B00006D4B000076
:1045D000DD4000005B4B0000DD400000DD400000DE
:1045E000DD400000DD400000DD400000DD40000057
:1045F000DD400000DD400000DD400000354B0000E4
:10460000E378303B032B3FF66CADDFE813F031016C
:1046100008010001B1002A23A3714B4B1A78652AC7
:1046200017D01A782B2A14D01A78772A00F09F8195
:104630001A782D2A00F09B811B78622B0BD1E37135
:1046400009E0424B1A78002A3FF45CAE47224A71D7
:1046500058E63E23E3713E4B1A786E2A0FD01A7843
:104660002B2A0CD01A78732A00F084811A782D2A0C
:1046700000F080811B78622B03D1237201E05E235E
:104680002372344B2B4A5B78002B50D15378002B8C
:104690004DD1314B2A4D1B78D91E30200129A072F3
:1046A00040F219842D49097859B12D4880780028A5
:1046B00000F02E843320A872022902D1A17A0131A0
:1046C000A17228491E48097800290CBF30213121E8
:1046D000012BE17200F0FC83022B00F01184042B0B
:1046E00000F04B81032B0CBF41235523037372B69B
:1046F000126962B6104BDB6A59428A42C0F2B88333
:104700009A4200F3B58345236373174B1B78002B44
:1047100040F0B1834123154AA3731378232130332A
:104720000022E3732174627414B0BDE8F081662343
:104730006372AEE78893FF1F8098FF1F4187FF1FBA
:10474000C098FF1F180502007095FF1FEC93FF1F14
:104750009095FF1F4093FF1FB887FF1F3096FF1FE4
:104760002493FF1FD995FF1FC087FF1FC295FF1F0E
:1047700072B6B24B186862B6B14B984205DDA0F52F
:104780000300A0F556409842F9DC15F06FFAAD49E8
:10479000AD4DAE4C15F072FBAD4915F0BBFA14F0FF
:1047A0000FFE2B680C930C9B22689B1A632BCDE9A0
:1047B0000E0100F2C383A74BA74CD3E90023D4E931
:1047C0000045CDE91023CDE9124514F099FC0022F3
:1047D000A24B04460D4615F0B9F8002800F0A4835A
:1047E0002046294600229E4B14F08CFCCDE90E0198
:1047F0009C4C012220460EA909F036FF00287FF4C8
:1048000067AE994B1B6823801B0CA37069E40DF005
:1048100067FE96490246934816F078FA61E40DF077
:104820005FFE864C20610BF0A1FF064620690BF06D
:104830008FFF074620690BF07DFF804620690BF053
:104840004FFF20690BF05AFF2069894CF51784FB54
:104850000634C5EB6415642404FB15640BF05CFF9F
:104860008449009443463A467E4816F04FFA38E4AD
:104870000DF036FE714C7B4D20610BF031FF074689
:1048800020690BF03BFF15F0F1F97B4915F0F6FAC2
:104890000646384615F0EAF90146304615F032F979
:1048A000064620690BF038FF15F0E0F9734915F062
:1048B000E5FA314615F026F914F082FD0B46024662
:1048C0002146E1E906232846012209F0CDFE2846CB
:1048D00016F036FC0222284469490DF005FA00E47E
:1048E0002479002C40F00581664D674AEE686749DF
:1048F0005C48642303FB06F382FB0362DB17C3EB14
:10490000223216F003FAEC60FFF7EBBB2379303B61
:10491000042B3FF6E3ABDFE813F07B02720269027F
:10492000300227022379303B032B3FF6D7ABDFE879
:1049300013F013020B020302FB012379303B052B1A
:104940003FF6CCABDFE813F091028C0289028302C0
:1049500080026F024E4B5B78002B00F0D7814D4BED
:10496000404A1B6813801B0C9370FFF7BABB3C23B3
:10497000E37170E65F23237283E66B230373B6E66D
:104980002B23A37149E62420FBF778FD0246424918
:10499000344816F0BBF9FFF7A4BB404B1868002859
:1049A0002CDB15F063F94FF07C5115F0ABF815F0E6
:1049B0008DFB02463A492B4816F0A8F9FFF791BB48
:1049C0003849394B0022D1E9000114F04DFD002295
:1049D000002304460D4614F0CDFF002800F0D982D4
:1049E0000022324B2046294614F08CFB14F0ECFFD9
:1049F0000246DFE72E4B18680028D2DA15F036F9A8
:104A00004FF07C5115F07CF815F060FB0246D1E7C1
:104A1000284B29491A68134816F078F9FFF761BB4B
:104A2000264B25491A680F4816F070F9FFF759BB55
:104A30002820A9E72620A7E72A20A5E75897FF1FE7
:104A400000D6830000D6034BC499FF1F5099FF1F67
:104A50000000C0413093FF1FB097FF1F000028C027
:104A600000003840C098FF1F140502005C050200DA
:104A70001F85EB514C0502000000704200006145AB
:104A800018050200DC93FF1F8D512C693C050200C4
:104A90002493FF1F28050200300502002098FF1F05
:104AA00034050200C097FF1F000024400000E03FD3
:104AB000BC97FF1F3498FF1F440502002893FF1F77
:104AC0002379442B00F0A382522B12D1B24B1A7DD2
:104AD000012A00F0A1820022B049B14816F016F96F
:104AE000FFF7FFBA2379442B00F0A582522B00F088
:104AF0005A82AB4C30232380FFF7F3BA2379442B3F
:104B000000F0F882522BF4D1A64BA449DA68A448ED
:104B100016F0FCF8FFF7E5BA2379442B00F0F28297
:104B2000522BE6D1A04BA1491A689D4816F0EEF829
:104B3000FFF7D7BA9E499F4B0022D1E9000114F03C
:104B4000DFFA01F10043194691A3D3E9002314F0E1
:104B50008BFC14F039FF02462CE795498CA3D3E96E
:104B60000023D1E9000114F07FFCF2E7924B934956
:104B70001A688B4816F0CAF8FFF7B3BA904B8F4902
:104B80001A68874816F0C2F8FFF7ABBA8D4980A3C0
:104B9000D3E90023D1E9000114F066FCD9E71A201B
:104BA000F2E61C200DF0BAF9804902467C4816F066
:104BB000ADF8FFF796BA10228049794816F0A6F8AA
:104BC000FFF78FBA804B764CD3E9000114F044FF15
:104BD0002346012202210DF06DFA79E47B4A704CE4
:104BE00002EBC303D3E9000114F036FF022223468F
:104BF00011460DF05FFA6BE42379442B00F02B8211
:104C0000522B7FF476AF674B64495A68644816F0BC
:104C10007DF8FFF766BA2379442B00F05B82522BB4
:104C20007FF467AF5F4B5D495A7A5D4816F06EF8C6
:104C3000FFF757BA2379442B00F01582522B7FF4EB
:104C400058AF584B55491A7A554816F05FF8FFF798
:104C500048BA2379442B00F04582522B7FF449AFA8
:104C6000504B4E499A7A4E4816F050F8FFF739BA31
:104C70002379442B00F0D581522B7FF43AAF494B76
:104C80001A7D012A00F0D281002280E62379442B8C
:104C900000F0D981522B7FF42CAF424B3F491A6967
:104CA0003F4816F033F8FFF71CBA772A00F09B81D3
:104CB0007A2A00F08081464B4648612AD3E90223D4
:104CC00000F09381022100910AF026FC14AA62E907
:104CD00002010123114600930022314809F020FE11
:104CE000FFF7FCB90A9814F06BFB02460B462C4800
:104CF000394916F00BF8FFF7F4B90898F3E707986D
:104D0000F1E7364B1B78002B7FF429AE344B27E6B6
:104D10001098E8E70998E6E70E98E4E70D98E2E7CF
:104D20000C98E0E70B98DEE72E4B2049DA681C4828
:104D300015F0ECFFFFF7D5B91B4B1C49DA68184892
:104D400015F0E4FFFFF7CDB9264B18491A7A14483D
:104D500015F0DCFFFFF7C5B9134B14491A7A104858
:104D600015F0D4FFFFF7BDB91F4B1B490C48D3E921
:104D70000A2315F0CBFFFFF7B4B91B4B16490848BF
:104D8000D3E90E2315F0C2FFFFF7ABB9AFF30080F4
:104D9000000000000088C340F097FF1F6C05020070
:104DA000C098FF1FCC97FF1F1899FF1F3005020006
:104DB0003887FF1F0000F03F1494FF1F34050200E6
:104DC000D495FF1FF898FF1F7087FF1F8087FF1F74
:104DD0005899FF1F2094FF1F240502004895FF1FCC
:104DE0002C0502003099FF1F4093FF1FA24BA349DF
:104DF000A348D3E9102315F089FFFFF772B9A14B3F
:104E00009E499F48D3E9102315F080FFFFF769B949
:104E10009D4B186814F02AFF9C4915F02FF89C4907
:104E200014F078FFF0E572B6934CD4E9060114F063
:104E3000CBFD2369C01A206262B69649226A904867
:104E400015F064FFFFF74DB972B68E4CEDE772B600
:104E5000894BD3E9060162B67BE672B6894BF8E767
:104E600072B6854B1A6962B6A4E572B6854BF9E74E
:104E70005723637349E4FEF743FC002851D0FEF743
:104E800049FC00280CBF03250725FEF7ADFC0028D0
:104E90003AD105F141033EE472B67A4B186914F039
:104EA0007DFA7D4BFFF7FFBA0DA80CA90BAA0AAB40
:104EB00010AE0EAD039002910192009305960495F9
:104EC00009AB08AA07A975480AF07EF8FFF71BB9D5
:104ED000452303730BE47249897800290CBF322102
:104EE0003421A172FFF7EDBB6D4B9B78002B7FF453
:104EF00036AD0BE76A4B1B78002B3FF407AF2EE56E
:104F00004B230373FFF7F3BB45F00803413302E47F
:104F10006448007800283FF4D4AB3120A872FFF732
:104F2000CBBB4223FFF7F7BB00225F4B204629464D
:104F300014F02AFD20BBCDE90E4559E45B4B5C4FD4
:104F40005C4E0021A3F10802009110A812A9FFF7FE
:104F500021F80022584BDDE9100114F0AFFB2D6859
:104F60000D9502460B46DDE912010D9D2560C6E94F
:104F70000001CDE91023C7E90023DDE90E0124E497
:104F80002046294600224D4B14F0BAF8CDE90E0117
:104F90002EE400224A4B2046294614F0B1F814F0C2
:104FA00013FD024606E5474B47491A68344815F099
:104FB000ADFEFFF796B80022444B0092D3E90223DE
:104FC00036480AF0A9FA14AA62E90201012311463F
:104FD000009300222A4809F0A3FC00283FF47EA891
:104FE000274CFFF775BA0222E6E7012400940AF085
:104FF00093FA14AA62E902012346114600940022A2
:105000001F4809F08DFC0028EAD1FFF767B82D4B47
:105010001A7D012A7FF45FAD98690CF071F80246A1
:105020005AE52B4B1A7D012A7FF42EAE98690CF0BD
:1050300059F80246ABE4264B23491A68104815F08C
:1050400065FEFFF74EB8224B1F491A690C4815F050
:105050005DFEFFF746B81E4B1B495A68084815F01D
:1050600055FEFFF73EB81A4B17491A7A044815F057
:105070004DFEFFF736B800BF8893FF1F24050200DE
:10508000C098FF1F4093FF1FD493FF1F55555047F3
:1050900000606A46340502004098FF1F2094FF1FFD
:1050A0002493FF1F4895FF1F000028409099FF1F81
:1050B0003093FF1FB097FF1F00002E4000003840C4
:1050C0000000E03FCC97FF1F6C0502005899FF1FBE
:1050D000F097FF1F0F4B10495A7A104815F016FE33
:1050E000FEF7FFBF0B4B0C499A7A0C4815F00EFEE9
:1050F000FEF7F7BF074B0849DA68084815F006FEC7
:10510000FEF7EFBF064B07491A68044815F0FEFD8D
:10511000FEF7E7BFF097FF1F6C050200C098FF1F66
:105120003099FF1F300502002DE9F047A24C62784C
:10513000A2F141038AB0332B00F29082DFE813F032
:1051400021018E02EE00C9008E028E02BC008E028A
:105150008E028E028E02340080008000800080006B
:105160008E02C9002A0210028E02E3018E02E001C3
:105170008E0273028E028E028E028E028E028E02CA
:1051800034008E02DC01CE01AE019B01B601940118
:105190008E028E028E028E027E01780171018E02D5
:1051A0008E025C018E025502844C854D94F800807D
:1051B000844F012323700DF093F9834B83490646F6
:1051C000D86A14F0A7FD14F081FF331A18462B613A
:1051D0000BF086FA814628690BF090FA14F046FD30
:1051E0007B4914F04BFE0646484614F03FFD01464D
:1051F000304614F087FC064628690BF08DFA14F04F
:1052000035FD724914F03AFE314614F07BFC14F07F
:10521000D7F802460B462946E1E9082338462278AA
:1052200009F022FA002800F01682384615F088FFAF
:105230000222384467490CF057FD84F8008045E0AD
:10524000A2F14D0404EB440808EBC808DFF87491A0
:1052500008F1D30A554608F1E2084E464F46284663
:105260000CF05CFE013507F8010B002800F0868287
:10527000A845F4D122465849524815F047FD5148F7
:1052800015F05EFF0E28034610DC002409E019F833
:10529000011B0692FCF76AFC4A4815F051FF0134E5
:1052A0000346A3420AEB040206A8F0DAF018022231
:1052B00048490CF019FD09E0434BD86A14F080F816
:1052C00002460B463F48454915F020FD0AB0BDE8AF
:1052D000F087434F434D3B680293029B29685B1A5A
:1052E000632B00F254824049404BD1E90045D3E999
:1052F0000001CDE90445CDE90601442A2F4B314E8A
:1053000000F064821A78304604A909F0ADF900284B
:1053100047D1302333800AB0BDE8F0870DF0E0F8C4
:10532000294B2A49264C0546D86A14F0F3FC14F0A0
:10533000CDFE2B1A184623610BF018FA0646206999
:105340000BF006FA074620690BF0F4F98046206955
:105350000BF0C6F920690BF0D1F92069244CF51740
:1053600084FB0634C5EB6415642404FB15640BF060
:10537000D3F92049009443463A46124815F0C6FC3A
:10538000A4E706A904A8FEF7D3FD0C4B0D4E1B782D
:10539000009306A930460123002209F0C1FA002833
:1053A000B7D0304615F0CCFE0222304409490CF04B
:1053B0009BFC0AB0BDE8F0874496FF1F4187FF1FA2
:1053C0005897FF1FC098FF1F5899FF1F00006145A5
:1053D00000007042180502000C050200780502006A
:1053E000C499FF1F6896FF1F7096FF1F2896FF1F26
:1053F0001F85EB514C050200A14BA24ED3E90001E1
:105400000022A14B14F05AF90AAB63E906019F4A46
:1054100019461278304609F027F900283FF479AF91
:10542000BFE79B4B9B491A68964815F06FFC4DE708
:10543000994A9A49934815F069FC47E772B6984B28
:105440001A6962B6974BDB6A59428A42C0F27D8183
:105450009A4200F37A81944B8A4A1B681380452153
:105460001B0C9370117031E7904B91491A68854875
:1054700015F04CFC2AE78F4BD3E9000114F0ECFA4D
:10548000002206AB11460CF015FE06A97D4815F06A
:1054900063FC022288490CF027FC17E7874B8849F8
:1054A000B3F91820774815F031FC0FE7A578754E51
:1054B000764C84492778A5F16605B5FA85F56D091E
:1054C0000123009530461A46257009F029FA002874
:1054D00040F09F80302333802770F7E66B4B694E96
:1054E0001B780093304601230022774909F018FA0F
:1054F00000283FF40EAF54E7624B744A1A60E5E6A9
:10550000FEF7A6FDE2E6E378714A002B40F06A81DF
:105510009378423B202B00F21481DFE813F00B015B
:1055200012010401120112011201120112011201F1
:10553000120112011201FD001201F5001201120107
:105540001201ED00120112011201120112011201E9
:105550001201120112011201120112011201A30023
:105560005C4B1B78002B00F0F9805B4B1B78002B09
:1055700040F0F480594940A3D3E90023D1E9000168
:1055800013F072FFCDE9040114F066FA06AB0522B0
:10559000002178E73D4C01232678237072B6504BEA
:1055A000186862B64F4B984205DDA0F50300A0F5E0
:1055B00056409842F9DC14F059FB4B49314D14F038
:1055C0005DFC4A4914F0A6FB13F0FAFE0AAB63E94E
:1055D000060122781946284609F046F8002840F0CE
:1055E000C38030232B80267070E6A578254E274C8B
:1055F0003F492778A5F16605B5FA85F56D0900954F
:10560000304601230022257009F08AF900283FF472
:1056100061AF304615F094FD0222304426490CF06B
:1056200063FB277052E606A904A8FEF781FCDDE9BA
:1056300004010AF0C3F8154B124E1B780093CDE914
:105640000401002304A93046012209F069F9002869
:105650003FF45FAEA5E630233B80EEE5094B3022F8
:105660001A8033E6074823490222064615F04EFB0E
:10567000044897E6AFF30080000000E006154E40B6
:105680006895FF1FC098FF1F00002E404187FF1F35
:105690003498FF1F880502007299FF1F84050200DD
:1056A0008893FF1F8098FF1FC00502002893FF1FEB
:1056B00044050200A887FF1F180502005899FF1F24
:1056C000700502006899FF1FA097FF1F3234230066
:1056D0004496FF1F1598FF1FF095FF1F3887FF1F87
:1056E0005897FF1F00D6830000D6034B0000C0412F
:1056F0006099FF1FBC0502003E4B3F4E93E8070038
:10570000334603C31A70B3E73C4B3B4E93E80700A4
:10571000334603C31A80ABE7394B374E93E8030097
:105720003060B180A4E7374B334E93E8070086E83A
:1057300007009DE730483449F022064615F0E6FAA6
:1057400096E72D4E3023338092E7304B2A4A1B6870
:10575000138057211B0C93701170B7E500220023B2
:10576000CDE90423002011E7284615F0E9FC0222C8
:10577000284427490CF0B8FA2670A7E53378002BA7
:105780003FF478AD1C4815F0DBFC03468EE5214B59
:10579000214E0021A3F10802009104A806A9FEF7FA
:1057A000F9FB00221D4BDDE9040113F087FF3B6884
:1057B0000393DDE906891A4B6278C3E90089039BEC
:1057C0002B60CDE90401C6E9000196E51B78009342
:1057D00030460123002206A909F0A2F800283FF470
:1057E00098ADDEE50F4B044A1B6813801B0C9370C9
:1057F0006CE500BFB0050200C098FF1FA4050200C1
:105800009C05020090050200BC050200C0050200D4
:10581000180502009099FF1F7096FF1F00002E4090
:105820002896FF1F14050200F0B5044685B00D460A
:1058300072B6104A104BD2E90601D3E9042313F0E3
:105840003DFF0E4A0E4B06460F46D2E90601D3E94C
:10585000042313F033FF02460B4662B60948CDE934
:105860000223CDE900672A46214609F005FE012002
:1058700005B0F0BD4093FF1F4098FF1F8893FF1FA6
:105880008098FF1F2094FF1F2DE9F04488B008ADD9
:105890000026002765E9026704460E4604A829464B
:1058A0009A4617469DF83850FFF7BEFF1E4B5B78AF
:1058B000002B2FD0DDE90623DDE904018DE8D004BB
:1058C0000AF0E2F915BB72B6184B186862B6184BAD
:1058D000984205DDA0F50300A0F556409842F9DC9A
:1058E00014F0C4F9134914F0C9FA134914F012FA68
:1058F00013F066FD0022114B13F0B6FDD4E900232E
:1059000013F0FEFB09F02AFFC4E90001012008B0F2
:10591000BDE8F084DDE90623DDE904018DE8D0046B
:105920000AF0F6F8CEE700BF2493FF1F5897FF1F39
:1059300000D6830000D6034B0000C04100002E407B
:105940002DE9F04FA64B9BB01878002200230021D0
:105950000B910D91CDE91023CDE91223CDE914234C
:10596000CDE91823002800F02C8172B6DFF8B4B21C
:10597000DBF8103062B69B4AD26A5142994240F33A
:105980001A81022309939849984B0022D1E900011A
:1059900013F06AFD0022964B13F066FD8EA3D3E947
:1059A000002313F08BFECDE9060192498F4B0022B4
:1059B000D1E9000113F058FD87A3D3E9002313F0C8
:1059C0007DFE8D4B1B7880468946002B00F02C8194
:1059D0008A4B01210091A3F1080214A912A8FFF734
:1059E00053FF42464B46DDE9140113F089FBDDE924
:1059F000062304460D46DDE9120113F081FBDFF8B2
:105A0000FCA17F4B18AF93F802E0CDF800E016AE92
:105A10002246AAF108042B46039402970196CDF87A
:105A200010A00AF045F8DDE91823DDE91601CDE9FB
:105A30000223CDE9000110AA0EA9724809F090FCDA
:105A4000099C00940AAD0CACDDE90E01DDE91023E0
:105A500002940195FEF70AF8DDE914234046494611
:105A600013F050FBDDE9122380468946DDE906018B
:105A700013F048FB624BAAF108029B780093039253
:105A80004B46029701964246CDF810A00AF010F856
:105A9000DDE91867DDE91689CDE9026710AA0EA9CC
:105AA000CDE90089574809F05BFC0BAF099C0094D5
:105AB0000DAEDDE91023DDE90E0102960197FDF739
:105AC000D5FF394628460AF03BF913F067FC4E4BE8
:105AD000D3E9042313F0F2FD05E0404649460022D5
