:1000000000800020BD0100004D24010005240100F6
:100010000524010005240100052401000524010038
:100020000524010005240100052401004D240100E0
:100030004D24010005240100B9550100BD55010002
:100040004D2401004D2401004D2401004D240100E8
:100050004D2401004D2401004D2401004D240100D8
:100060004D2401004D2401004D2401004D240100C8
:100070004D2401004D2401004D2401004D240100B8
:100080004D2401004D2401004D2401004D240100A8
:100090004D2401004D2401004D2401004D24010098
:1000A0004D2401004D2401004D2401004D24010088
:1000B0004D2401004D2401004D2401004D24010078
:1000C0004D2401004D2401004D2401004D24010068
:1000D0004D2401004D2401004D2401004D24010058
:1000E0004D2401004D2401004D2401004D24010048
:1000F0004D240100193501004D240100593E010035
:100100004D2401006D4501004D2401004D240100E6
:100110004D2401004D2401004D2401004D24010017
:100120004D2401004D2401004D2401004D24010007
:100130004D2401004D2401004D2401004D240100F7
:100140004D2401004D2401004D2401004D240100E7
:10015000995A0100AD5A0100C15A0100D55A010057
:100160004D240100614801004D2401004D2401008F
:100170004D2401004D2401004D2401004D240100B7
:100180004D2401004D2401004D2401004D240100A7
:100190004D2401004D2401004D2401004D24010097
:1001A0004D2401004D2401004D2401004D24010087
:1001B0004D2401004D2401004D240100564B4CF20A
:1001C000205210B51A804DF628121A8000BF00BFC9
:1001D00012F040F9514B4FF010621A60504A9A6089
:1001E000504ADA60504A136813F4807304D14F49BF
:1001F0000B604FF4A85313604D4B1A78110703D5C9
:100200001A7842F008021A704A4B4B492A221A7097
:100210004A4A4B4B8B4204D252F8040F43F8040B6A
:10022000F8E7484B484900228B4202D243F8042B9E
:10023000FAE74649464A002352F8230041F82300D2
:1002400001336F2BF8D1434B434A802103F8011B44
:100250009342FBD1414B3D4A1A60414B8A221A70AE
:10026000A3F5805324225A70A0221A709A7992071B
:10027000FCD59A79D406FCD43A4A937903F00C035E
:10028000082B384BF9D105221A7143225A719A79F9
:100290009006FCD5334A9179324B4906FBD5324A58
:1002A0004FF0817111600521516020221A709A79F6
:1002B00002F00C020C2AFAD12C4B2D4A1A602D4B5D
:1002C0002D4A1A6000225A60072243F8042C2B4A58
:1002D000C3F80C2D62B612F059FB144B1B68DA07F9
:1002E00005D5274812F03EFB264B274A1A60274BBC
:1002F0001B785B0609D5234C234B22689A4204D114
:100300001F4812F02FFB0023236012F0A9F81AF007
:100310008FF915F0EBFBFEE70E200540308004401E
:10032000823F04000100002B10D0034014D0034092
:1003300002D0074000E007402893FF1FB8150200D5
:100340002087FF1F2893FF1FEC9EFF1F0082FF1FC7
:100350000000000000E400E05FE400E008ED00E0E1
:1003600000500640004006404480044004800440A1
:10037000C010050014E000E03F190100000020203B
:100380008A6CB0631CE00340A5C3945A00F0074098
:10039000FFFFFFFFFFFFFFFFFFFFFFFFFFFFFFFF6D
:1003A000FFFFFFFFFFFFFFFFFFFFFFFFFFFFFFFF5D
:1003B000FFFFFFFFFFFFFFFFFFFFFFFFFFFFFFFF4D
:1003C000FFFFFFFFFFFFFFFFFFFFFFFFFFFFFFFF3D
:1003D000FFFFFFFFFFFFFFFFFFFFFFFFFFFFFFFF2D
:1003E000FFFFFFFFFFFFFFFFFFFFFFFFFFFFFFFF1D
:1003F000FFFFFFFFFFFFFFFFFFFFFFFFFFFFFFFF0D
:10040000FFFFFFFFFFFFFFFFFFFFFFFFDEF9FFFF23
:1004100010B5054C237833B9044B13B10448AFF33E
:1004200000800123237010BD2893FF1F00000000EF
:10043000B4150200084B10B51BB108490848AFF3CA
:1004400000800848036803B910BD074B002BFBD0A0
:10045000BDE81040184700BF000000002C93FF1FAC
:10046000B41502002893FF1F0000000012F074BAB8
:1004700010B5044615F0EEFA204610BD10B582B056
:10048000044611F07DFF8DF80600601C11F078FF26
:100490008DF80700BDF8060002B010BD38B50C4657
:1004A000054611F06DFF2070681C11F069FF607047
:1004B000A81C11F065FFA070E81C11F061FFE0704E
:1004C00038BD00BF3C4A70B502233C4D13602A780A
:1004D000002A3BD03A4E0023337072B6394CD4E92F
:1004E000060119F0BDFC2369C01A206262B6236AB6
:1004F000354A002B36D0236A34493248C97B002B59
:10050000D4BF0023012384F8283000292ED0304B9B
:1005100090F828101B7899422ED02E4B012119609B
:1005200094F82830274903F0FF00002B2ED0D06824
:100530005268254B904233DADA6801210A44DA60C6
:1005400019720123337000232B7070BD1C4A12787E
:100550000AB1214A13600123204A2B70204B1268F4
:100560001A6070BD137A002BC5D1ECE7184B90F8D8
:1005700028101B789942D0D01A4B0121196094F8A9
:100580002830104903F0FF00002BD0D1D2680E4B69
:10059000002A0BDDDA680121013ADA601972D0E72E
:1005A00000221A720B6901330B61CAE718720B69DA
:1005B000013B0B61C5E700BF88F00F402487FF1F98
:1005C0006996FF1F8893FF1F209BFF1F5098FF1FF6
:1005D000E896FF1FC8F00F4084F00F406087FF1FB0
:1005E00010710340C4F00F403B4A70B520233B4DCF
:1005F00013602A78002A3AD0394E0023337072B63D
:10060000384CD4E9060119F02BFC2369C01A20628A
:1006100062B6236A344A002B35D0236A3349314805
:10062000C97B002BD4BF0023012384F82830002984
:100630002DD090F82830002B2DD02D4B4FF40051A9
:10064000196094F82830274903F0FF00002B2DD0C3
:10065000D0685268244B904232DADA6801210A44A9
:10066000DA6019720123337000232B7070BD1C4AAD
:1006700012780AB11F4A136001231F4A2B701F4BC7
:1006800012681A6070BD137A002BC6D1ECE790F89F
:100690002830002BD1D01A4B4FF40051196094F838
:1006A0002830104903F0FF00002BD1D1D2680E4B47
:1006B000002A0BDDDA680121013ADA601972D1E70C
:1006C00000221A720B6901330B61CBE718720B69B8
:1006D000013B0B61C6E700BFC8F00F404087FF1F1A
:1006E000C096FF1FF893FF1F389BFF1F8898FF1FBE
:1006F00004F00F40C4F00F406487FF1F20710340D7
:1007000008F00F402DE9F043147A83B034B1D2E9F8
:1007100004670A9D0124C3E900672C70274C2478E4
:10072000002C3ED0264C2478002C3AD1127A002A94
:1007300037D10A9A1278002A33D0027C002A30D1AD
:100740001D460C4672B6D1E9060119F089FB2369F2
:10075000C01A206262B6236A0193019B002B2ADD36
:10076000019819F067F88046206E894619F062F802
:10077000D4E9162319F0C4F80022124B06460F469E
:1007800019F044FB08B90F4F002632463B4640465D
:10079000494619F027FB38B172B60A9A0023137044
:1007A00062B603B0BDE8F08372B6D4E91023C5E9A0
:1007B000002362B6F5E701984042D2E7C198FF1FD7
:1007C0009896FF1F0000F03F2DE9F043054683B0E7
:1007D0000C4672B6D1E9060119F042FB2369C01A32
:1007E000206262B6D4E91223D4E91A0119F0B2F9F1
:1007F00002460B4619F084F819F032FB19F01AF88A
:10080000D4E9028906460F460022174B4046494666
:1008100019F076F80B4602463946304619F09AF937
:1008200019F01EFB236A0193019B002B019BD8BF8B
:100830005B4298420BDA236A002BB8BF404272B683
:100840002369184418F0F6FFC4E9060162B62B7C50
:10085000022B04BF01232B742B7CFE2B04BFFF2330
:100860002B7403B0BDE8F083000010402DE9F84F71
:100870005E4E5F4D5F4C604F2D7896F800E0267815
:100880003C78002D08BFBEF1000F0CBF01250025EC
:10089000F6B224B13C78042C01D0BDE8F88FAE420A
:1008A000FBD21D4616468A460446194610460023CA
:1008B000002219F08DFA00284ED13B78042B04D089
:1008C0004E4B4F4A197811701870237C5BB2002B85
:1008D00075DDD4E90289002200234046494619F01B
:1008E00095FA4FF0010B00284CD05FFA8BFB237C6C
:1008F00073B1002330462946002219F091FA4FF0D7
:10090000010300B9034683F00103DBB29B451AD013
:10091000304629460022002319F082FA002856D0DA
:100920003046294642464B4619F052FA60B304233A
:100930003B7002232374334A00214FF0FF331170C0
:100940002360BDE8F88F00224FF0804340464946BF
:1009500019F066FA0028DBD0237C022B02D0237C1E
:10096000FE2B9AD151462046BDE8F84FFFF72CBF29
:10097000002200234046494619F03EFA4FF0010B91
:100980000028B2D18346B0E7AA4632465346C4E9AE
:10099000022372B6216AD4E90223D1E9000118F0DA
:1009A000AFFFC4E9060162B629460425304600229D
:1009B00000233D7019F034FA0028BAD113E0237CEB
:1009C0001B06D4E90289D3D44FF0010B8FE705F160
:1009D000004A3046514642464B4619F0F9F9002884
:1009E000D3D004233B70FE232374A4E73896FF1F63
:1009F0001898FF1F9896FF1FB094FF1FC198FF1F04
:100A0000E996FF1FE887FF1F30B583B0CDB2019193
:100A1000044611F0B5FC854203D02946204611F06A
:100A2000C9FC0134204611F0ABFC9DF8055085420D
:100A300003D02946204611F0BDFC03B030BD00BFF5
:100A4000F8B50D460E78044611F09AFC864203D0A4
:100A50003146204611F0AEFC661C304611F090FC89
:100A60006F78874203D03946304611F0A3FCA61CAC
:100A7000304611F085FCAF78874203D039463046C6
:100A800011F098FC0334204611F07AFCED78854291
:100A900005D029462046BDE8F84011F08BBCF8BDD2
:100AA0002DE9F0473F4B404E404D82B000220124DB
:100AB0000A201A7034702C7012F020F9204611F0C0
:100AC0005FFC8DF80400022011F05AFC8DF805003F
:100AD000032011F055FC8DF80600042011F050FCA5
:100AE0008DF80700052011F04BFCDDF804A08DF80F
:100AF0000400062011F044FC8DF80500072011F0D9
:100B00003FFC8DF80600082011F03AFC284B8DF8C8
:100B10000700587B019F18F07DFE02460B4600201F
:100B20004FF0804115F010FD80468946504618F080
:100B300081FE42464B4618F0E3FE19F091F91D4B39
:100B40008246587B18F066FE02460B4600204FF0A6
:100B5000804115F0F9FC80468946384618F06AFE57
:100B600042464B4618F0CCFE19F07AF9074672B6A9
:100B70005046C6F810A018F05DFEC6E906013846DA
:100B80002F6118F057FEC5E9060162B60A4A0B4B01
:100B90001278A2420CBF0222002220461A7002B034
:100BA000BDE8F087E887FF1F8893FF1FF893FF1FBA
:100BB0005098FF1F8898FF1F9887FF1FF899FF1F05
:100BC00038B5434C434A94F8243060690025013B12
:100BD0001570032B12D8DFE803F06302536818F096
:100BE00019FE39A3D3E9002318F0B4FF19F060F916
:100BF0004FF07A5281B2E06A11F05EF9364C94F807
:100C000024306069013B032B5DD8DFE803F0241337
:100C1000022A18F0FFFD2CA3D3E9002318F09AFF55
:100C200019F046F94FF07A5281B2206BBDE8384096
:100C300010F0B2BF18F0EEFD23A3D3E9002318F0A3
:100C400089FF19F035F94FF07A5281B2E06ABDE8B8
:100C5000384011F031B90146A06ABDE838400FF0C4
:100C6000ABBF18F0D7FD18A3D3E9002318F072FF2B
:100C700019F01EF981B2606BBDE8384011F04AB836
:100C800018F0C8FD10A3D3E9002318F063FF19F092
:100C90000FF94FF07A5281B2206B10F07DFFADE773
:100CA0000146A06A0FF088FFA8E718F0B3FD06A37D
:100CB000D3E9002318F04EFF19F0FAF881B2606B07
:100CC00011F028F89AE738BDCD3B7F669EA0F63F2D
:100CD0005098FF1F029BFF1F8898FF1FFFFFFFFF19
:100CE00038B5434C434A94F82430E0690125013B70
:100CF0001570032B12D8DFE803F06302536818F075
:100D000089FD39A3D3E9002318F024FF19F0D0F8A6
:100D10004FF07A5281B2E06A11F0CEF8364C94F876
:100D20002430E069013B032B5DD8DFE803F0241396
:100D3000022A18F06FFD2CA3D3E9002318F00AFF54
:100D400019F0B6F84FF07A5281B2206BBDE8384006
:100D500010F022BF18F05EFD23A3D3E9002318F0A2
:100D6000F9FE19F0A5F84FF07A5281B2E06ABDE8B9
:100D7000384011F0A1B80146A06ABDE838400FF034
:100D80001BBF18F047FD18A3D3E9002318F0E2FEBB
:100D900019F08EF881B2606BBDE8384010F0BABF30
:100DA00018F038FD10A3D3E9002318F0D3FE19F092
:100DB0007FF84FF07A5281B2206B10F0EDFEADE774
:100DC0000146A06A0FF0F8FEA8E718F023FD06A37D
:100DD000D3E9002318F0BEFE19F06AF881B2606B07
:100DE00010F098FF9AE738BDCD3B7F669EA0F63F96
:100DF0005098FF1F029BFF1F8898FF1FF8B52B4CD0
:100E00002B4D2C492C4E2D48DFF8D8E02C4F0123D8
:100E100084F8283085F82830D5E90E23C5E9122357
:100E2000D4E90E23C4E9122300220023C1E90023E0
:100E30002449C6E90023C0E9002300260A20CEE9A0
:100E400000233E700E7011F09BFA18B131460A2053
:100E500011F0B0FA1C481D4B1D491E4A46685868DF
:100E600000230B740B6013744B606E61136053604E
:100E7000606172B6686918F0DDFCC5E906016B694E
:100E80002B61606918F0D6FCC4E90601636923612F
:100E900062B6114B1B7833B1104A114B002101206F
:100EA00011701870F8BDFFF71BFFF5E7F893FF1FEF
:100EB0008893FF1F3096FF1F109BFF1F0898FF1F8E
:100EC0003896FF1F1898FF1F289AFF1F709AFF1F60
:100ED0007894FF1F4096FF1F029BFF1FC198FF1FC2
:100EE000E887FF1F1098FF1F2DE9F04F8FB00EAF5E
:100EF000DDE91C451A9E07F8086DC0E90C45189EEF
:100F000003904E318DF835203846199A8DF83120EE
:100F10008DF834308DF836108DF832600FF0DEFC2D
:100F2000D94904461E9819F041F919F01BFB0444F5
:100F3000204611F017FD20460FF000FE11F00CFDC9
:100F400004460FF0BBFC064620460FF0A9FC054600
:100F500020460FF097FC6B1E012B98BF06F1FF3661
:100F60008246304698BF0C3519F0CCF8C749834605
:100F700019F0D0F918F070FC15F03AF9804689465E
:100F80005846C34919F0C6F918F066FC15F030F957
:100F900006460F465846BF4919F008F918F05CFCA0
:100FA00015F026F9CDE90001284619F0ABF84FF00D
:100FB0007E5118F0F3FFB84919F0F8F818F04CFC1E
:100FC00015F016F94246CDE904014B4600204FF0DA
:100FD000804118F0E1FA32463B4618F0DFFADDE9CD
:100FE000002318F0DBFADDE9042318F0D7FA0646EF
:100FF00050460F4618F01EFC02460B463046394656
:1010000018F0CCFA8CA3D3E9002318F0C7FA824673
:1010100020468B460FF00CFC064620460FF016FCCF
:1010200019F070F89D4919F075F90546304619F028
:1010300069F80146284618F0B1FF054620460FF032
:1010400013FC19F05FF8904919F064F9294618F07B
:10105000A5FF18F001FC0022CDE90001904B50469D
:10106000594618F09BFA15F0C3F875A3D3E900238D
:1010700004460D4618F0D4FE68B373A3D3E90023E9
:101080002046294618F088FA71A3D3E9002318F006
:1010900061FD18F0E5FE18F0CDFB002206460F4674
:1010A000804B2046294618F079FA32463B4618F024
:1010B00075FA002204460D467B4B3046394618F03F
:1010C0001FFC15F095F802460B462046294618F0FD
:1010D00063FA04460D46204629465FA3D3E9002360
:1010E00018F05CFA5EA3D3E9002304460D4618F01D
:1010F00053FA5DA3D3E9002318F02CFD15F078F81E
:1011000059A3D3E90023CDE9040118F0F9FB15F048
:101110006FF802460B462046294618F03DFA54A3C4
:10112000D3E900238046894618F014FD15F060F8D5
:101130004FA3D3E9002304460D4618F0E1FB15F058
:1011400057F8002206460F4600234046494618F04D
:1011500025FA32463B4618F01FFA15F049F818F008
:101160007FFE00220646514B2046294618F03AFEE3
:10117000002800F0608200224A4B2046294618F0E1
:101180000BFA15F035F818F06BFE0446204618F0FF
:10119000B9FF4749054619F0C5F9002840F05782C4
:1011A00035A3D3E90023DDE9040118F0F5F915F0C2
:1011B0001FF818F055FE0746631E012B05D804F1F1
:1011C0000C0018F09FFF013F0546384618F09AFFC3
:1011D0002E49044619F09EF818F03EFB15F008F869
:1011E000CDE9040120462A4919F094F818F034FB9F
:1011F00014F0FEFFCDE906012046264918F0D6FF7F
:1012000018F02AFB14F0F4FFCDE9080128464FF04E
:101210007E5118F0C3FE204918F0C8FF18F01CFBDF
:1012200014F0E6FF16A3D3E90023CDE90A015046E6
:1012300059463FE0AFF3008000000080A2423A41EF
:10124000000000008C8A414100000040D07D3C41FC
:101250000000000088D5E1400000000000D0974069
:101260000000006066865E400000000000D476400A
:1012700000000020A0993E4000000000006BB2403A
:10128000000000802CB44241000061450000C842CB
:101290000000C84300A0B64301CDF44100007042F5
:1012A0000000E03F0000F03F0000D03F00002B4076
:1012B0000000204018F070F9002204460D46C04B93
:1012C000DDE9000118F046FC02460B46204629469F
:1012D00018F064F99AA3D3E9002382468B4618F0EC
:1012E00039FCDDE904238046894600204FF0804127
:1012F00018F052F9DDE9062318F050F9DDE908236A
:1013000018F04CF9DDE90A2318F048F90446304694
:101310000D4618F08FFA02460B462046294618F073
:101320003DF989A3D3E9002318F038F988A3D3E95C
:10133000002318F031F988A3D3E9002318F0E0FA6C
:1013400087A3D3E9002318F029F905E020462946B0
:1013500000229B4B18F020F90022994B04460D46C1
:1013600018F054FD0028F1D1002200232046294620
:1013700018F038FD68B1204629460022904B18F03D
:101380000DF90022002304460D4618F02BFD00281D
:10139000F1D175A3D3E90023DDE9000118F0B0FA1B
:1013A00022462B4618F0FAF871A3D3E9002304462D
:1013B0000D464046494618F0A3FA42464B4618F0FF
:1013C0009FFA22462B4618F0E9F805E02046294608
:1013D00000227B4B18F0E0F80022794B04460D46C2
:1013E00018F014FD0028F1D10022002320462946E0
:1013F00018F0F8FC68B1204629460022704B18F01E
:10140000CDF80022002304460D4618F0EBFC00281E
:10141000F1D159A3D3E900235046594618F070FA88
:1014200002460B4656A1D1E9000118F0B5F856A3C3
:10143000D3E9002318F08EFB14F062FF54A3D3E924
:10144000002306460F465046594618F059FA52A353
:10145000D3E9002318F0A2F802460B4618F09EF8D4
:1014600049A3D3E9002318F075FB14F049FF4CA3FE
:10147000D3E90023804689465046594618F040FA81
:1014800002460B4648A1D1E9000118F085F83EA3B9
:10149000D3E9002318F05EFB14F05CFE44A3D3E90B
:1014A000002382468B463046394618F029FA42A37B
:1014B000D3E9002306460F464046494618F020FA75
:1014C00002460B463046394618F066F852465B46EF
:1014D00018F016FA22462B4618F060F805E0204670
:1014E00029460022364B18F057F80022344B0446A8
:1014F0000D4618F08BFC0028F1D100220023204675
:10150000294618F06FFC68B12046294600222C4B72
:1015100018F044F80022002304460D4618F062FC3F
:101520000028F1D10399274B0022D1E90C0118F0D2
:1015300011FB02460B462046294649E0AFF30080E6
:1015400000000000A0D5E14000000080A2423A4126
:10155000000000802CB44241000000E05BD2B03FAC
:10156000000000801CCA1A40000000E0360BF03F6B
:10157000000000605243FB3E00000060C91CAB3F0E
:10158000000000608F425F4000000020DCA54C405E
:10159000000000E0718AEF3F000000208587714065
:1015A000000000A0F2D79A3E00000000767037409D
:1015B000000000A0EEE734BF00000080732AF93E6F
:1015C0000000384000002E402B4B204629460022C8
:1015D00017F0E2FF0022284B04460D4618F016FCD7
:1015E0000028F1D1002200232046294618F0FAFBFA
:1015F00068B12046294600221F4B17F0CFFF00227A
:10160000002304460D4618F0EDFB0028F1D12046DA
:1016100029460022184B18F09DFA13A3D3E90023A2
:1016200018F06EF918F01CFC72B6039B186062B6D5
:101630000FB0BDE8F08F0022104B2046294617F06E
:10164000ABFF14F0D5FD18F00BFC04469EE508A393
:10165000D3E90023DDE9040117F09EFF14F0C8FD73
:1016600018F0FEFB0746A7E500000000C07A6041C5
:1016700000000000006CB2400000384000002A402A
:101680002DE9F04F8DB0039011F066F904460FF08C
:1016900015F9064620460FF003F9054620460FF0DF
:1016A000F1F86B1E012B98BF06F1FF3682463046DB
:1016B00098BF0C3518F026FDD749834618F02AFE4E
:1016C00018F0CAF814F094FD804689465846D3496C
:1016D00018F020FE18F0C0F814F08AFD06460F46F8
:1016E0005846CF4918F062FD18F0B6F814F080FDA6
:1016F000CDE90001284618F005FD4FF07E5118F0A5
:101700004DFCC84918F052FD18F0A6F814F070FD11
:101710004246CDE904014B4600204FF0804117F0CE
:101720003BFF32463B4617F039FFDDE9002317F057
:1017300035FFDDE9042317F031FF064650460F461A
:1017400018F078F802460B463046394617F026FF67
:101750009BA3D3E9002317F021FF824620468B4646
:101760000FF066F8064620460FF070F818F0CAFC35
:10177000AD4918F0CFFD0546304618F0C3FC0146D0
:10178000284618F00BFC054620460FF06DF818F0BF
:10179000B9FCA64918F0BEFD294618F0FFFB18F069
:1017A0005BF80022CDE90001A14B5046594617F0E5
:1017B000F5FE14F01DFD84A3D3E9002304460D4675
:1017C00018F02EFB68B382A3D3E9002320462946F4
:1017D00017F0E2FE80A3D3E9002318F0BBF918F05C
:1017E0003FFB18F027F8002206460F46914B204693
:1017F000294617F0D3FE32463B4617F0CFFE0022B3
:1018000004460D468C4B3046394618F079F814F0F2
:10181000EFFC02460B462046294617F0BDFE044663
:101820000D46204629466EA3D3E9002317F0B6FEE5
:101830006DA3D3E9002304460D4617F0ADFE6CA35B
:10184000D3E9002318F086F914F0D2FC68A3D3E999
:101850000023CDE9040118F053F814F0C9FC024646
:101860000B462046294617F097FE63A3D3E90023D1
:101870008046894618F06EF914F0BAFC5EA3D3E9ED
:10188000002304460D4618F03BF814F0B1FC00228A
:1018900006460F4600234046494617F07FFE324673
:1018A0003B4617F079FE14F0A3FC18F0D9FA002299
:1018B0008046624B2046294618F094FA002800F032
:1018C000208200225B4B2046294617F065FE14F06B
:1018D0008FFC18F0C5FA0446204618F013FC58494E
:1018E000054618F01FFE002840F0178244A3D3E9F4
:1018F0000023DDE9040117F04FFE14F079FC18F025
:10190000AFFA0646631E012B05D804F10C0018F04F
:10191000F9FB013E0546304618F0F4FB3E4904460B
:1019200018F0F8FC17F098FF14F062FCCDE9040100
:1019300020463A4918F0EEFC17F08EFF14F058FCE0
:10194000CDE906012046364918F030FC17F084FF37
:1019500014F04EFCCDE9080128464FF07E5118F0F6
:101960001DFB304918F022FC17F076FF14F040FC04
:1019700025A3D3E90023CDE90A015046594617F0C3
:101980000BFE002204460D462E4BDDE9000118F047
:10199000E1F802460B462046294617F0FFFD1CA33E
:1019A000D3E9002382468B4618F0D4F8DDE90423FE
:1019B00006460F4600204FF0804145E0AFF300801F
:1019C00000000080A2423A41000000008C8A4141A0
:1019D00000000040D07D3C410000000088D5E1407F
:1019E0000000000000D097400000006066865E4066
:1019F0000000000000D4764000000020A0993E4086
:101A000000000000006BB240000000802CB4424196
:101A100000000000A0D5E1400000C8420000C8431B
:101A200000A0B64301CDF4410000704200006145C2
:101A30000000E03F0000F03F0000D03F00002B40DE
:101A4000000020400000384017F0A6FDDDE9062325
:101A500017F0A4FDDDE9082317F0A0FDDDE90A2356
:101A600017F09CFD044640460D4617F0E3FE024683
:101A70000B462046294617F091FDAFA3D3E900237A
:101A800017F08CFDAEA3D3E9002317F085FDAEA3BC
:101A9000D3E9002317F034FFADA3D3E9002317F0F7
:101AA0007DFD05E0204629460022C54B17F074FD58
:101AB0000022C34B04460D4618F0A8F90028F1D1C6
:101AC000002200232046294618F08CF968B12046F0
:101AD00029460022BA4B17F061FD0022002304467C
:101AE0000D4618F07FF90028F1D19BA3D3E900231C
:101AF000DDE9000117F004FF22462B4617F04EFDEA
:101B000097A3D3E9002304460D463046394617F023
:101B1000F7FE32463B4617F0F3FE22462B4617F0FF
:101B20003DFD05E0204629460022A54B17F034FD77
:101B30000022A34B04460D4618F068F90028F1D1A5
:101B4000002200232046294618F04CF968B12046AF
:101B5000294600229A4B17F021FD0022002304465B
:101B60000D4618F03FF90028F1D17FA3D3E90023F7
:101B70005046594617F0C4FE02460B467CA1D1E9F7
:101B8000000117F009FD7CA3D3E9002317F0E2FF61
:101B900014F0B6FB7AA3D3E9002306460F4650465D
:101BA000594617F0ADFE78A3D3E9002317F0F6FCF1
:101BB00002460B4617F0F2FC6FA3D3E9002317F09F
:101BC000C9FF14F09DFB72A3D3E900238046894628
:101BD0005046594617F094FE02460B466EA1D1E9D5
:101BE000000117F0D9FC64A3D3E9002317F0B2FF7A
:101BF00014F0B0FA6AA3D3E9002382468B4630463C
:101C0000394617F07DFE68A3D3E9002306460F4648
:101C10004046494617F074FE02460B4630463946A8
:101C200017F0BAFC52465B4617F06AFE22462B4676
:101C300017F0B4FC05E0204629460022604B17F05F
:101C4000ABFC00225E4B04460D4618F0DFF800287E
:101C5000F1D1002200232046294618F0C3F868B1CC
:101C6000204629460022564B17F098FC00220023FC
:101C700004460D4618F0B6F80028F1D10399514BEF
:101C80000022D1E90C0117F065FF02460B46204601
:101C9000294603E04A4B20462946002217F07CFCE7
:101CA0000022474B04460D4618F0B0F80028F1D149
:101CB000002200232046294618F094F868B12046F7
:101CC000294600223E4B17F069FC002200230446FF
:101CD0000D4618F087F80028F1D120462946002249
:101CE000374B17F037FF32A3D3E9002317F008FE74
:101CF00018F0B6F872B6039B186062B60DB0BDE876
:101D0000F08F0022304B2046294617F045FC14F096
:101D10006FFA18F0A5F80446DEE527A3D3E90023FF
:101D2000DDE9040117F038FC14F062FA18F098F8B5
:101D30000646E7E5AFF3008000000080A2423A418A
:101D4000000000802CB44241000000E05BD2B03FB4
:101D5000000000801CCA1A40000000E0360BF03F73
:101D6000000000605243FB3E00000060C91CAB3F16
:101D7000000000608F425F4000000020DCA54C4066
:101D8000000000E0718AEF3F00000020858771406D
:101D9000000000A0F2D79A3E0000000076703740A5
:101DA000000000A0EEE734BF00000080732AF93E77
:101DB00000000000C07A604100000000006CB240EA
:101DC0000000384000002E4000002A4070B5056831
:101DD000044628460E4610F0D3FA864203D0314618
:101DE000284610F0E7FA204670BD00BFFFFFFFFF56
:101DF000032900D970472DE9F04301EB410505EBBC
:101E0000C50505F1C80487B001700646204610F0EC
:101E1000B7FA8DF80C0005F1C90010F0B1FA8DF891
:101E20000D0005F1CA0010F0ABFA8DF80E0005F1B7
:101E3000CB0010F0A5FA8DF80F00039817F00CFDF9
:101E40000022914B8046894617F0CCFF40B9002212
:101E50008E4B4046494617F0E3FF002800F0CA8049
:101E600006A9002341F8143D002200232046C6E9BC
:101E70000223FEF7E5FD82A3D3E90023D6E90201A0
:101E800017F068FE8046894614F064F9C6E90C0133
:101E90004046494614F034FAC6E90E0105F1CC007B
:101EA00010F06EFA8DF80C0005F1CD0010F068FA14
:101EB0008DF80D0005F1CE0010F062FA8DF80E00DD
:101EC00005F1CF0010F05CFA8DF80F00039817F0C1
:101ED000C3FC00226E4B8046894617F08DFF38B94F
:101EE00000226C4B4046494617F090FF00287ED0F8
:101EF00006A90023307841F8103D1B27CC2400228E
:101F0000002307FB0040C6E90423FEF799FD05F115
:101F1000D00010F035FA8DF80C0005F1D10010F06A
:101F20002FFA8DF80D00BDF80C2002F1C8039BB20A
:101F300042F208018B4260D8328305F1D20010F0E2
:101F40001FFA18F0DBF8544918F0E4F9534918F077
:101F500023F85349F062044618F0C6FA002835D138
:101F600005F1D30406F11A08E23506F119072046F7
:101F700010F006FA013407F8010F18B3A542F6D1A4
:101F80003278484903A819F00DF903A819F038FB75
:101F9000421C0F2A05464ED939A3D3E90023D6E9BE
:101FA000020117F0D7FD04460D4614F0D3F8C6E938
:101FB0000C012046294614F0A3F9C6E90E0107B02A
:101FC000BDE8F083B37E002BDAD0E5E72046334945
:101FD00018F0A8FA0028C3D032780023F3621B203F
:101FE000D22300FB0230782110F0E4F9B8E7C6E90B
:101FF00004898CE7C6E9028950E7347804EB44048D
:1020000004EBC40404F1D0074FF000083846A6F8EA
:10201000188010F0B5F918B14146384610F0CAF9E9
:10202000D134204610F0ACF9002886D0204600219B
:1020300010F0C0F981E703A9404610F087F896F840
:10204000009009EB490909EBC90909F1D3090024FA
:102050000EE010F095F918F80450854229463846EC
:1020600001D010F0A7F9404619F0CAFA013405462C
:1020700009EB0407A5423846EBDA8DE7AFF30080A1
:1020800000000020DCA54C40008056C00080564077
:10209000008076C000807640000020410000404172
:1020A000000040C1CC090200437810B504780BB1A0
:1020B00044F0020483780BB144F004040D2010F0C6
:1020C0005FF9844205D021460D20BDE8104010F094
:1020D00071B910BDFFFFFFFF0378013B10B5044647
:1020E000032B3CD8DFE803F02614022B084617F038
:1020F00091FB1BA3D3E9002317F02CFD17F0D8FEAA
:102100004FF07A5281B2E068BDE810400FF044BD54
:10211000084617F07FFB12A3D3E9002317F01AFD3E
:1021200017F0C6FE4FF07A5281B2A068BDE81040A9
:102130000FF0C2BE4068BDE810400EF03DBD08463D
:1021400017F068FB06A3D3E9002317F003FD17F08F
:10215000AFFE81B22069BDE810400FF0DBBD10BDBD
:10216000CD3B7F669EA0F63F10B50446084617F0AB
:1021700061FB0B4602464FF08041002014F0E4F969
:1021800017F06EFE2378013B032B1BD8DFE803F02A
:102190000E08021481B2E068BDE810400FF090BE56
:1021A00081B2A068BDE810400FF08ABE01466068A9
:1021B000BDE810400EF096BE81B22069BDE8104027
:1021C0000FF0ECBD10BD00BF70B5002010F0D8F8C6
:1021D000431EDBB2032B00F2E080834B834A18706E
:1021E00001284FF00003137000F0E18002288049BD
:1021F00002D0042800F0F2807E4B002003220870F9
:102200001A701D2010F0BCF817F07CFF7A4917F007
:10221000CDFF17F021FB0022002304460D4617F0E6
:10222000D7FD002840F0AF800022744B204629469D
:1022300017F0F6FD002840F0A680714BC3E9004579
:10224000212010F09DF86F4BA0F1800222201A602F
:1022500010F096F86C4B1860342010F091F880382C
:1022600017F050FF694917F0A1FF694918F052F8BB
:102270000021044618F04CF9002800F0A7804FF028
:102280007C51204617F08AFE18F06CF980EAE07362
:10229000A3EBE073B42B5F4BCCBF3C2218604FF034
:1022A0003500C8BF1A6010F06BF8803817F02AFFAD
:1022B000564917F07BFF564918F02CF800210446C8
:1022C00018F026F9002879D04FF07C51204617F0FD
:1022D00065FE18F047F980EAE073A3EBE073B42BD6
:1022E0004D4BCCBF3C2218604FF03600C8BF1A607F
:1022F00010F046F817F08EFA0022484B17F02AFC2F
:102300000022474B04460D4617F06CFD002834D1DF
:102310000022444B2046294617F082FD00282CD18C
:10232000414BC3E90045414E414D706B414C002289
:102330000023C5E90C2317F07DFA3F4BC4E90601E1
:10234000586B17F077FAD6E90A23C5E90601092088
:10235000C4E90C2310F014F8384B022894BF02464D
:1023600000222C201A7010F00BF8354B186030202A
:1023700010F006F8334B186070BD2B4B2949002034
:10238000C3E90001CFE71E4B2F4D00241E211D2065
:10239000C3E9004510F00EF852E70121002010F0CB
:1023A00009F81149114B0120002208701A701049D8
:1023B000104B0220032208701A7022E74FF07C5164
:1023C000204617F0E9FD18F0CDF884E74FF07C5176
:1023D000204617F0E1FD18F0C5F857E7054A0B70E5
:1023E000012313700DE700BF9887FF1F209AFF1F7E
:1023F000F899FF1F649BFF1FCDCCCC3D00003940F6
:102400005087FF1F5493FF1F1C9AFF1F000070424C
:10241000000070412C98FF1FF099FF1F000024401E
:1024200000002240000028403098FF1F289AFF1F1C
:10243000F893FF1F8893FF1F709AFF1FD096FF1F0E
:102440008896FF1FD894FF1F00000840FFFFFFFF82
:102450002DE9F04FA04CA14D93B000230027059328
:10246000049303930293019300931A4619468046FE
:102470002F7020460CF08EFE4FF4AC7084F8217162
:102480000FF07EFF012800F09580954B1B78033BF1
:10249000012B40F2F680934C934DD4E90C01D4E922
:1024A0000E232D78CDE90C01CDE90E23002D3FD070
:1024B000E568A6688D4B30462946002217F0B0FC2F
:1024C000002835D0304629460022002317F0A8FC0A
:1024D000002800F0D38032462B4612AF67E9022372
:1024E000824B0022CDE9002338460022804B0DF0BC
:1024F000B5FA00220023D4E9020117F073FC00288A
:1025000040F0B780109A119B104619466EA3D3E98C
:10251000002317F01FFB04460D4613F01BFECDE908
:102520000C012046294613F0EBFECDE90E0100E038
:1025300010AFDFF8C8916F4901974FF000080EAE59
:102540000CAD0AAC42464B4600200396029500941F
:102550000DF08EFBDDE91023DDE90A01CDE904234E
:10256000CDE902010022634B5B48CDE900890CF004
:10257000EFFE42464B4656A1D1E900010396029573
:102580008DE890000DF074FBDDE91023DDE90A0110
:10259000CDE90423CDE90201CDE900894E484CA3E1
:1025A000D3E900230CF0D4FE4B480CF01FFF13B00E
:1025B000BDE8F08FB8F1000F55D1064610A94FF4D1
:1025C0009A70FDF76BFF10A94FF49C70109FFDF7F8
:1025D00065FF109A099210A94FF49E70FDF75EFFF7
:1025E00010A94FF4A070DDF84080FDF757FF109B55
:1025F000079310A94FF4A270FDF750FF10A94FF4F4
:10260000A470DDF84090FDF749FF10A94FF4A670C3
:10261000DDF840A0FDF742FF10A94FF4A870DDF8E7
:1026200040B0FDF73BFF109B089310A94FF4AA7030
:10263000FDF734FF079B10980093089B0493099AB9
:102640000590434639462046CDF80CB0CDF808A099
:10265000CDF804900CF09EFD20460CF0D3FD2E70BA
:1026600013B0BDE8F08F39464FF4AC700FF0A2FE06
:102670000BE7119B109A03F1004345E705F1004574
:1026800029E71D4F144800240025002622462B462A
:10269000CDE90445CDE90045CDE902670CF058FECF
:1026A00014490020CDE90401CDE90001CDE902671C
:1026B00022462B4608480CF04BFE07480CF096FECD
:1026C00075E700BFAFF3008000000020DCA54C40A0
:1026D0000000000000E07040E094FF1F8D96FF1F97
:1026E0009887FF1F709BFF1F5093FF1F000024401F
:1026F00000908F4000805640008066400080464039
:1027000038B51F4B1B78DA1E012A22D91D4A012B2E
:10271000D2E902451C4B14BF0021596B19600022FD
:1027200000232046294617F05DFB184B5A6B20BB4F
:102730001A60204629460023002217F071FB4FF053
:10274000010300B9034683F00103114ADBB21370A1
:1027500038BD0C4BD3E90245002200232046294610
:1027600017F040FB084B30B9084A1860536B1360F0
:1027700020462946DFE7186BF6E75242D8E700BF4C
:102780009887FF1F709BFF1F289AFF1F709AFF1FDB
:10279000E896FF1F30B56E2083B00FF0F1FD8DF885
:1027A00006006F200FF0ECFD884B8DF80700BDF898
:1027B00006201A6000257C20DD600FF0E1FD8DF819
:1027C00006007D200FF0DCFD814B8DF80700BDF881
:1027D00006201A606420DD600FF0D2FD8DF806003F
:1027E00065200FF0CDFD7B4C8DF80700BDF806305D
:1027F0002360682025710FF0C3FD8DF80600692065
:102800000FF0BEFD8DF80700BDF80630A3606A200A
:1028100025730FF0B5FD431EDBB2072B00F2C88015
:10282000607300256B20A5730FF0AAFD431B18BF32
:1028300001236C20E37325740FF0A2FD00B200EBBE
:10284000800000EB80008000A0F1C80140F6282243
:102850009142604B00F2A480D86100236D2084F87F
:1028600020300FF08DFD00B200EB800000EB800007
:102870008000A0F1C80140F628229142554B00F299
:10288000878058610025702025760FF079FD431B65
:1028900018BF012372206374A5740FF071FD8DF8C9
:1028A000060073200FF06CFD4B4C8DF80700BDF84F
:1028B00006302360762025710FF062FD8DF806004A
:1028C00077200FF05DFD8DF80700BDF80630A3609E
:1028D000782025730FF054FD431EDBB2072B4BD835
:1028E000607300257920A5730FF04AFD431B18BFC4
:1028F00001237A20E37325740FF042FD00B200EB50
:10290000800000EB80008000A0F1C80140F6282282
:102910009142314B28D8D86100237B2084F82030A5
:102920000FF02EFD00B200EB800000EB8000800075
:10293000A0F1C80240F628239A42274D0CD86861BE
:1029400000257E2025760FF01BFD401B18BF0120BF
:10295000A574607403B030BD4FF47A730A217B20F4
:102960006B610FF027FDEBE74FF47A720A217A20B2
:10297000DA610FF01FFDCFE70425782065730FF0B3
:10298000FFFCA842ADD0294678200FF013FDA8E740
:102990004FF47A720A216D205A610FF00BFD71E736
:1029A0004FF47A720A216C20DA610FF003FD54E7CC
:1029B00004256A2065730FF0E3FCA8423FF431AFB1
:1029C00029466A200FF0F6FC2BE700BF209BFF1F73
:1029D000389BFF1F5098FF1F8898FF1F08B56E2077
:1029E0000FF0CEFC18B100216E200FF0E3FC6F2039
:1029F0000FF0C6FC18B100216F200FF0DBFC642043
:102A00000FF0BEFC082803D0082164200FF0D2FC90
:102A100065200FF0B5FC072803D0072165200FF0D3
:102A2000C9FC68200FF0ACFCC82803D0C82168207E
:102A30000FF0C0FC69200FF0A3FC18B10021692041
:102A40000FF0B8FC04216A200FF0B4FC00216B20C9
:102A50000FF0B0FC0A216D200FF0ACFC0A216C20B5
:102A60000FF0A8FC702000210FF0A4FC7C200FF0D8
:102A700087FC18B100217C200FF09CFC7D200FF01A
:102A80007FFC18B100217D200FF094FC72200FF024
:102A900077FC082803D0082172200FF08BFC7320EC
:102AA0000FF06EFC072803D0072173200FF082FC83
:102AB00076200FF065FCC82803D0C82176200FF0DF
:102AC00079FC77200FF05CFC18B1002177200FF023
:102AD00071FC042178200FF06DFC002179200FF0AB
:102AE00069FC0A217B200FF065FC0A217A200FF097
:102AF00061FC00217E20BDE808400FF05BBC00BFF8
:102B000010B572B6094CD4E9060117F0A9F923698A
:102B1000C01A206262B672B6054CD4E9060117F0FD
:102B20009FF92369C01A206262B610BD8893FF1F07
:102B3000F893FF1FFFFFFFFF2DE9F04F164687B008
:102B4000994682460C46119DFFF7DAFF337A1BB98E
:102B50009AF81030002B34D1D5E90001D4E91423C0
:102B600016F01CFD024621F00043CDE90423DDE907
:102B70000467002200233046394617F029F900285F
:102B800040F0118132463B46D4E90E0116F0E2FFD7
:102B900006460F4602460B46DDE9140117F040F9E0
:102BA000002800F0E58032463B46DDE9120117F0CF
:102BB00023F9002800F0D980C4E9126707B0BDE806
:102BC000F08FDFF8E882DAE90267D8E900233046BF
:102BD0003946CDE9002317F005F9002840F0CB80F5
:102BE000AF4B1B78002B40F005819AF81030DFF8CE
:102BF000C4B2190654BFAB4BAB4B0022CBE9002348
:102C00009AF81030FF2B00F0D5809AF81030012B85
:102C100000F0D080D4E902231046194616F0BEFC1D
:102C2000DBE900679CA3D3E9002316F069FE324676
:102C30003B4616F065FED5E90067D9E9002316F09A
:102C400089FF32463B4616F0A9FCC5E90001D5E9EB
:102C500000010022002317F0C5F8002840F0D080C2
:102C6000D5E90023D8E9000117F0D0F88F4B0028F0
:102C70000CBF28461846D0E90023C5E900239AF87E
:102C800010305BB2002B40F3F180DAE90267D5E93E
:102C9000000132463B4617F0C3F808B9D5E9006792
:102CA000C5E900679AF81030FF2B04D09AF810306D
:102CB000012B7FF451AF236A0393039B002B40F356
:102CC0009680039816F0B6FD8046206E894616F071
:102CD000B1FDD4E9162316F013FE0022714B06460F
:102CE0000F4617F093F8002800F0878032463B46E5
:102CF0004046494617F076F800283FF42DAF0022F1
:102D0000002100238AF81010C5E90023109B1B6ADC
:102D10000293029B02988B42D8BF404216F08AFD74
:102D2000109B0646186E0F4616F084FD109BD3E9E3
:102D3000162316F0E5FD00225A4B8046894617F00F
:102D400065F8002800F0A28042464B4630463946DE
:102D500017F048F800283FF4FFAE514B1B78002BCA
:102D60007FF4FAAEFDF7BCFFF6E6DDE9126723E774
:102D7000DDE9146717E7D5E90001024621F00043B9
:102D8000DDE9000117F04CF800283FF429AF9AF86C
:102D900010305BB2002B83DC9AF81030180652D446
:102DA000002600277CE7DDE91423C4E9122307B0DD
:102DB000BDE8F08F206A16F03DFDD4E9026721F0EE
:102DC0000043194600223A4B16F09AFD32463B4624
:102DD00016F096FD13F030FDDBE9002316F090FDB0
:102DE000D9E9002316F0B6FEC5E900012FE70398E4
:102DF000404267E7FDF7E4FEF7E60026294F75E756
:102E0000D8F80430D8F8006003F100473046D5E91F
:102E10000023394616F0E6FF90B1C5E900679AF83D
:102E200010305BB2002B12DDDAE90267D5E9000150
:102E300032463B4616F0E0FF00287FF431AF2DE725
:102E4000D5E90067E9E707F100431F4628E79AF84C
:102E500010301A064FF000064FF00007E6D5DAF8FA
:102E60000C30DAF8086003F10047DFE79AF8103019
:102E70001B064FF000064FF000077FF508AFDAF8A9
:102E80000C30DAF8086003F1004700E74FF0000863
:102E9000DFF8109058E700BF00000040E17A843F5F
:102EA000029BFF1F0000F03F0000F0BFE087FF1F04
:102EB000000010407096FF1F4E4A4F4913682DE9DD
:102EC000F043013313600B788BB0002B5CD04B4C7C
:102ED0004B4D4C4AD4E912010AAB4B4C63E9020159
:102EE00000924649494A4A48FDF70CFCDDE90801D1
:102EF000D4E9002316F06CFFB8B9DDE9080172B619
:102F00000022444B16F0FCFC0022434B16F0F8FC68
:102F10000022424B16F040FB16F0CAFF404B1860EF
:102F200062B6DDE90823C4E90023D5E912010AAB42
:102F30003C4A3D4C63E90401009231493B4A3C481C
:102F4000FDF7E0FBDDE90601D4E9002316F040FFC0
:102F5000B8B9DDE9060172B600222E4B16F0D0FC9E
:102F600000222D4B16F0CCFC00222C4B16F014FB4B
:102F700016F09EFF2F4B186062B6DDE90623C4E908
:102F800000230BB0BDE8F0832B4A2C492C4B019158
:102F9000D2E90001D3E90023184C1D4E184D0095CD
:102FA000CDE90401CDE9022321463046254B174ADD
:102FB0001F4FFFF7C1FD244B24490094D1E90001C4
:102FC000D3E90089224A0192CDE90201214B174A37
:102FD000CDE9048929463846FFF7AEFD337C002B46
:102FE0007FF477AF3B7C5BB2002B7FF472AF1A4A61
:102FF00013706EE7C897FF1F9896FF1F8893FF1FF7
:10300000F893FF1F7494FF1F009AFF1F209BFF1F60
:103010007894FF1F000042400000E03F0000F03FB6
:103020006087FF1F2896FF1F089AFF1F389BFF1F0E
:103030004096FF1F6487FF1FC887FF1F4893FF1F2D
:103040003087FF1F489AFF1FD087FF1F3887FF1F59
:10305000589BFF1F909AFF1FB094FF1F70B50E4D35
:103060000E4C0F4ED5E91601D4E91623C5E914011B
:10307000C4E91423D6E90A01D5E9142316F040FC6B
:10308000084EC5E90C01D4E91423D6E90A0116F06B
:1030900037FCC4E90C0170BD8893FF1FF893FF1F34
:1030A000289AFF1F709AFF1F2DE9F843264B24A191
:1030B000D1E90001D3E9002316F04CFD234B06466D
:1030C0000F46D3E900231EA1D1E9000116F042FD0D
:1030D00004460D4672B61E491E4B0022D1E900017E
:1030E00016F00EFC1C4BD3E904238046894616F0EB
:1030F00007FC02460B463046394616F02BFD324699
:103100003B4616F0FDFB154A154BC2E90201D3E917
:1031100004234046494616F0F3FB02460B46204680
:10312000294616F017FD2B46224616F0E9FB0D4BFB
:10313000C3E9020162B6BDE8F88300BFAFF30080C7
:103140000000000080842E413087FF1F3887FF1F5A
:103150005087FF1F00001040289AFF1F8893FF1F11
:10316000709AFF1FF893FF1F0028F8B53BDB042877
:103170003DDD4FF0040E70461E4B1F4DDFF880C042
:1031800003EBC004D4E90067D5E902233046394691
:103190008CF800E016F01CFEA8B1184C32463B46F5
:1031A000D4E9020116F014FE60B9C4E9026772B6F0
:1031B000216AD4E90223D1E9000116F0A1FBC4E998
:1031C000060162B6F8BDC5E9026772B6296AD5E99B
:1031D0000223D1E9000116F093FBC5E9060162B6AE
:1031E000D4E90067D9E74FF0000E7046C4E75FFAF4
:1031F00080FEC1E76887FF1F7894FF1F4096FF1F7E
:10320000D887FF1F032B2DE9F04702D0384C2478D4
:103210003CBB384C384D394E24782D783778B4FA89
:1032200084F46409EDB21FBBAC421FD9D0E9028916
:1032300015460F4604469A4600220023404649465A
:1032400016F0C6FDC8B1237CBBB172B6237C022B3D
:1032500044D0237CFE2B04BFFF23237462B6BDE859
:10326000F087254A254B12781A78A2BBBDE8F08773
:103270003778BB42D8D0BDE8F087227C237CB3B13D
:10328000B5EBD21F13D04046494600224FF0804391
:1032900016F0C6FD58B1237C022B02D0237CFE2BF6
:1032A000E4D139462046BDE8F047FDF78DBABAF1C2
:1032B000020F19D0124B1878FFF756FF86F800A0BE
:1032C0007DB1FE2323740F4A00214FF0FF331170AC
:1032D0002360BDE8F0871B78BDE8F08701232374E5
:1032E000B7E702232374EEE70020FFF73DFFE5E791
:1032F0003896FF1F1898FF1F9896FF1FB094FF1F66
:10330000D887FF1FE887FF1F2DE9F04F624B87B07A
:10331000D3E9082382468B465DA1D1E9000116F06E
:1033200019FC5E4BCDE90001D3E9082358A1D1E98E
:10333000000116F00FFC5246CDE902015B46DDE9C3
:10334000000116F007FC0022554B06460F4616F00A
:103350005DFD08B9524F0026DFF8549152465B4696
:10336000DDE90201C9E9006716F0F4FB00224C4BCD
:1033700004460D4616F04AFD08B9494D0024DFF811
:10338000348132463B46DDE90001C8E9004516F0CC
:10339000E1FB22462B4606460F46DDE9020116F008
:1033A000D9FB04460D4602460B463046394616F018
:1033B00019FD08B134463D4622462B465046594633
:1033C00016F0EAF807460E4638463146002200233A
:1033D00016F026FD002855D03846314600224FF021
:1033E000804316F01DFD002830D122462B46DDE932
:1033F000000116F0AFFB22462B46C9E90001DDE9CA
:10340000020116F0A7FB274EC8E90001D6E9062302
:1034100020462946C6E9084516F0EEFC68B10022B0
:10342000214B2046294616F06BFAC6E9060116F034
:103430003FFDC1B219200EF0BDFF1C4B1878FFF7FD
:1034400093FE07B0BDE8F04FFFF72EBE2946204699
:1034500016F006FD01461A20CEB205910EF090FF3F
:10346000864203D031461A200EF0A4FF1B200EF036
:1034700087FF9DF815608642B7D031461B200EF0BD
:1034800099FFB2E706F10046A6E700BFAFF3008060
:103490000000000080842E41289AFF1F709AFF1FB1
:1034A000000030406887FF1F0000E03FD887FF1F03
:1034B0003087FF1F3887FF1F00B51A2083B00EF03A
:1034C0005FFF8DF806001B200EF05AFF8DF80700F5
:1034D000BDF8060016F0AEF903B05DF804EBFFF797
:1034E00013BF00BF2DE9F047604B1B788AB053B97A
:1034F0005F4B5B783F2B00F09E805E4E3023338025
:103500000AB0BDE8F08700233A22049303930593A1
:10351000069307930893ADF82430029210F0D8FB7D
:1035200001E010F00DFC10F0F7FB0028F9DC02AD13
:10353000284618F065F84E4C2844214617F058FEEE
:1035400002224D49471B0EF001FE6378213B5D2BA3
:103550006DD8DFE803F02F6C6C2F6C6C6C6C6C6CAE
:103560002F6C2F6C6C6969696969696969696C6C30
:103570006C6C6C6C3B6C6C6C696C6C6C2F6C696CFF
:103580006C6C3B6C692F2F6C2F6C6C3B696C6C6C9A
:103590006C6C6C6C6C6C6C6C696C6C6C2F6C696CAE
:1035A0006C6C696C696C6C692F6C6C6C6C3B6C6CD2
:1035B0006C6C6C3B791C284610F0FAFA10F088FB12
:1035C0002C4B00221A700AB0BDE8F0874FF00009BA
:1035D0002A4C284E791C284610F0EAFA10F078FBA5
:1035E000236800930027009DB046BA4623680193E4
:1035F000019B5B1B272B81D810F08EFB0028F5DD8B
:1036000010F09EFBC0B223281ED00137322F88F85D
:1036100000003FF473AF08F801AFB9F1000FE5D037
:1036200031283FF46DAF69E74FF00109D0E7114B46
:1036300030221A8064E7124B0E4A1B6813801B0C61
:1036400093700AB0BDE8F087B9F1000F08D0312FB0
:1036500088F800003FF452AF002388F801304DE7AE
:10366000F319F05583F801904AE700BF7493FF1FE8
:103670005893FF1FD09AFF1FD8090200D49BFF1F49
:10368000D4090200124B93F84820D2B110B411486B
:103690005C6D026883B041F287310092009A121B80
:1036A0008A4210D893F838206AB102680192586CA7
:1036B000019B1B1A8B428CBF0020012003B010BC61
:1036C000704700207047002003B010BC704700BF57
:1036D000EC96FF1FD49BFF1F114B1A78D2B110B488
:1036E00010485C6B026883B041F287310092009A07
:1036F000121B8A4210D893F878206AB102680192AE
:10370000D86F019B1B1A8B428CBF0020012003B095
:1037100010BC704700207047002003B010BC7047F9
:10372000EC96FF1FD49BFF1F10B5FFF7ABFF0446BD
:10373000FFF7D2FF2040C0B210BD00BF2DE9F04F0F
:103740002D4E2E4D336829688DB041F28832019399
:10375000019B5B1A934204D8294B18780DB0BDE841
:10376000F08F284C94E80F0004AF103487E80F0066
:1037700094E80F0008AC84E80F0038460CF00EFF08
:10378000804638460CF01AFF834638460CF02AFF74
:10379000824620460CF032FF814620460CF03AFF6C
:1037A000074620460CF04CFF0CAB08F14E0803F81E
:1037B000280D18468DF80DB08DF80E808DF80CA0F0
:1037C0008DF80A908DF809700DF088F804460FF016
:1037D000C3F8041B33680293002CB8BF64420A4943
:1037E000074A029B0861042CCCBF00200120107006
:1037F0002B600DB0BDE8F08FD49BFF1FD496FF1F48
:103800006C9BFF1F2497FF1FC897FF1F2DE9F047F0
:10381000B1F1000A3EDD044600EBCA0580460026F1
:103820000027F8E802233046394615F0B7FEA845D0
:1038300006460F46F5D1504615F0FCFF02460B46F2
:103840003046394616F086F900268046894600271C
:1038500042464B46F4E8020115F09EFE02460B4636
:1038600016F04EF802460B463046394615F096FEE5
:10387000A54206460F46EBD10AF1FF3015F0DAFFFC
:1038800002460B463046394616F064F9BDE8F0476B
:1038900012F0D2BF00260027EEE700BFFFFFFFFFB8
:1038A0002DE9F04FA64BDFF8C4A21B68DAF8001030
:1038B00099B041F288320893089B5B1A934204D86E
:1038C000A04B187819B0BDE8F08F9F4B9F49D3F8F3
:1038D0008020D1F800B000929E46BEE80F000DF1A6
:1038E000280CACE80F00BEE80F00ACE80F00BEE803
:1038F0000F00ACE80F009EE80300954E954D964CE6
:10390000964F0AAB8CE803001846D6E904890CF000
:1039100029FE02460B464046494615F03FFE0BF095
:1039200099FF21F00043194681A3D3E9002315F044
:10393000E7FF05EBCB0B0AABCBE900011846834B45
:10394000D6E90289D3F800B00CF0F0FD02460B4630
:103950004046494615F020FE21F00043194676A363
:10396000D3E9002315F0CCFF04EBCB0B774BCBE96D
:103970000001B6F91800D3F800B015F05BFF8046DF
:103980000098894616F0BEFB754916F0C3FC15F089
:1039900063FF02460B464046494615F0FDFD4FEADF
:1039A000CB0807EB080321F0004247F83B00032156
:1039B00028465A60FFF72AFFCDE90001204603217F
:1039C000FFF724FFCDE9020138460321FFF71EFF70
:1039D0004544D5E90056CDE904010022614BDDE9FB
:1039E0000001CDE9065615F08BFF00224FF0804311
:1039F00005460E4616F00AFA002800F0928033467B
:103A00002A46DDE9060116F0EDF94FF0010600281F
:103A100000F085804444D4E900450022514BDDE9A3
:103A20000201CDE9064515F06BFF00224FF08043FF
:103A300004460D46F6B216F0E9F900286BD022468E
:103A40002B46DDE9060116F0CDF94FF00104002800
:103A50005FD0B844D8E900780022424BDDE9040188
:103A6000CDE9067815F04CFF00223F4B8046894691
:103A7000E4B216F0CBF9002846D0DDE900010022BF
:103A80004FF0804316F0AEF94FF00107002839D00F
:103A9000DDE9020100224FF0804316F0A3F94FF058
:103AA000010568B3304BDDE90401002216F09AF9F4
:103AB0003D404FF0010308B32B401E404046DDE976
:103AC0000623494616F0ACF934404FF0010398B193
:103AD0001C4A04EA03000BF101031070032B1B4A7C
:103AE00008BF00231360164B1B680993099BCAF893
:103AF000003019B0BDE8F08F0346E9E70346DBE785
:103B00000546CFE70746C3E74FF00008DFF85890B7
:103B1000B3E704469DE700244FF080458FE7064653
:103B200078E700254FF0804669E700BFAFF30080DB
:103B3000000000000020AC40000000000098AC40F5
:103B4000D49BFF1FD296FF1FEC96FF1F7896FF1F96
:103B5000709BFF1F3898FF1FB89AFF1F1096FF1F1A
:103B60000000C84200001440000034406894FF1F69
:103B700010B51C4B5B782B2B02D02D2B00D010BD29
:103B8000194C2068FF2811DDFF202D2B206013D059
:103B90002B2B1ED01E28DCBF1F20206001460620D4
:103BA0000EF070FF114B00221A7010BD1E28DCBFF2
:103BB0001F2020602D2BEBD116F0A4FA0C4916F033
:103BC000A9FB16F0CFFC2060FF28E3DDFF2020607A
:103BD000E4E716F097FA064916F0E8FA16F0C2FC88
:103BE0002060F1E75893FF1FDC87FF1FD09AFF1F6B
:103BF0003333B33F0E4B5B78ABB90E4A127810B536
:103C000002F0FF010C4C52B921700B4817F0F8FC80
:103C1000022220440949BDE810400EF097BA7F22E5
:103C200063702270F1E7044B30221A80704700BFA6
:103C30005893FF1F9896FF1FD09AFF1FD8090200C4
:103C40001C4B5878303823282FD8DFE800F01313A6
:103C50001313132E2E2E2E2E2E2E2E2E2E2E2E2ED5
:103C60002E122E2E2E222E2E2E2E2E1C2E2E2E2EAE
:103C70002E280120104B1B7823B9104B1B780BB951
:103C8000FFF772BA70470C4B1B780220002BF9D15A
:103C9000F3E7094B1B780020002BF3D1EDE7064B2F
:103CA0001B780320002BEDD1E7E7054B30221A806B
:103CB000704700BF5893FF1F9896FF1FB094FF1FD7
:103CC000D09AFF1F30B585B004AC64E90423CDE978
:103CD000020122469DF820000D4B099D0A9C02A975
:103CE0000CF0AAF80B49DDE90223D1E9040115F033
:103CF00007FE16F0B5F808492860DDE90023D1E990
:103D0000040115F0FDFD16F0ABF8206005B030BDE4
:103D1000789BFF1F289AFF1F709AFF1FFFFFFFFF6E
:103D20002DE9F04F95B0DFF84882209C94F800E030
:103D3000D1E9004512AF10AEA8F10809D0E90001A1
:103D400093469A46CDF800E022464FF0000E2B46EF
:103D5000CDF81080CDF80C90029701960024002534
:103D6000CDF824E0CDF82CE0CDE90E45CDE91245A3
:103D70000BF04EFFDDE91223DDE91001CDE902234E
:103D8000CDE900010EAA0CA971480BF095FB1F9C10
:103D90002478009408AD0AACDDE90E23DDE90C01BE
:103DA00002940195FFF78EFFDAE90023CDE906239F
:103DB000209B93F800E0DBE90001DDE90623CDF864
:103DC00000E0CDF80C90CDF81080029701960BF032
:103DD0001FFFDDE91267DDE91089CDE902670EAA50
:103DE0000CA9CDE900895A480BF066FB1F9E367876
:103DF000009609AF0BAEDDE90E23DDE90C0102965A
:103E00000197FFF75FFF394628460CF049F815F097
:103E100011FD504BD3E9042315F09CFE05E040460C
:103E2000494600224C4B15F0B9FB00224B4B804613
:103E3000894615F0D7FF0028F1D10022484B4046B3
:103E4000494615F0E3FF68B1404649460022424B1F
:103E500015F0A2FB0022424B8046894615F0D6FFA2
:103E60000028F1D1314620460CF01EF815F0E2FC96
:103E70003C4BD3E9042315F06DFE05E020462946AE
:103E80000022354B15F08AFB0022344B04460D46C8
:103E900015F0A8FF0028F1D10022314B2046294619
:103EA00015F0B4FF68B12046294600222A4B15F0D0
:103EB00073FB00222A4B04460D4615F0A7FF00288D
:103EC000F1D11E99284BD1E90001002215F018FD0F
:103ED00002460B461CA1D1E9000115F03BFE002271
:103EE00006460F46214B4046494615F009FD02465D
:103EF0000B463046394615F003FD219BC3E900010E
:103F00001E99194BD1E90001002215F0F9FC024677
:103F10000B460DA1D1E9000115F01CFE002206465A
:103F20000F46124B2046294615F0EAFC02460B4686
:103F30003046394615F0E4FC229BC3E9000115B078
:103F4000BDE8F08FAFF30080000000000020AC401F
:103F5000E094FF1F289AFF1F00807640008066C013
:103F600000806640709AFF1F00002E400000E03F76
:103F7000A89BFF1FF0B58BB00AAC0026002764E9B0
:103F8000026705ADCDE90223CDE90001224606A96D
:103F90009DF840701248002604AC05960BF08CFA90
:103FA000DDE90823DDE90601009702950194FFF79A
:103FB00089FE72B60B4D0C4C049A059B2A61236155
:103FC000286915F037FCC5E90601206915F032FCB7
:103FD000C4E9060162B6054B01201E700BB0F0BDAE
:103FE000E094FF1F8893FF1FF893FF1FE887FF1FD0
:103FF000F0B58BB00AAC0026002764E902670B4DD0
:10400000119E6F78129D029406AC019400979DF862
:104010004040039604950BF0FBFDDDE90823DDE944
:1040200006010094FFF7A6FF0BB0F0BD5093FF1FF1
:10403000604B1B78002B33D15F4B1B78002B2FD1AB
:104040002DE9F04F5D4C6378413BDBB2142B8BB014
:1040500041D85B4A22FA03F3DA073CD572B6594ECF
:10406000336962B6584D6A6B51428B4236DA4FF073
:104070000208564B1A7812B10021904619706378E5
:10408000413B142B19D8DFE803F00C181818181846
:10409000181818181818BD1818181818BD18300056
:1040A00070474B4B4B49CDF80080D3E90023D1E951
:1040B0000001FFF75FFF6378413BDBB2142B0AD8A6
:1040C000454A22FA03F3DB0705D5444A444B92E8FC
:1040D0000300186019710BB0BDE8F08F9342CCBF9C
:1040E0004FF002084FF00108C3E70E200EF048F928
:1040F0008DF820000F200EF043F98DF821001020DC
:104100000EF03EF98DF8220011200EF039F98DF8ED
:1041100023000898334E344D15F09EFBC6E900018C
:1041200012200EF02DF98DF8200013200EF028F942
:104130008DF8210014200EF023F98DF822001520AF
:104140000EF01EF98DF82300089815F085FBC5E9DF
:10415000000172B6254B186862B6254B984205DD02
:10416000A0F50300A0F556409842F9DC15F0CAFF0F
:10417000204916F0CFF8204916F018F815F06CFB1E
:1041800000221E4B15F0BCFBD6E9002315F004FA03
:104190000BF060FBCDF80080D5E90067184B029367
:1041A000A3F1080201923B463246FFF721FF6378F4
:1041B000413B82E71898FF1F9896FF1F5893FF1FF7
:1041C00001101400F893FF1F709AFF1F9996FF1FAC
:1041D000109BFF1F0898FF1F01101000DC09020050
:1041E000D09AFF1F3096FF1F1098FF1FC897FF1F20
:1041F00000D6830000D6034B0000C04100002E40D3
:10420000A89BFF1F674F3B78002B00F0978072B68A
:10421000654B186862B6654B984205DDA0F5030052
:10422000A0F556409842F9DC15F06CFF6049DFF8C4
:1042300098A116F06FF85F4915F0B8FF15F00CFB68
:1042400000225D4B15F05CFB5C4BD3E9002315F0BD
:10425000A3F90BF0FFFADFF87CE1594BDFF878C1E6
:10426000CDF810E0AEF1080ED3E900239CF801C0B0
:10427000CDF80CE00DF1200ECDF808E00DF1180E90
:10428000CDF800C0CDF804E00BF0C2FC9AF8203164
:10429000BBB9DDE90601DDE9082372B6D6F810E006
:1042A00062B6D5F834C0CCF10008C64577DBE645E8
:1042B000CCBF4FF0020E4FF0010ECDF800E0FFF73B
:1042C00059FE72B6DFF814B1DBF8100015F0B2FA3F
:1042D0003C4BD3E9042315F03DFC80463069894608
:1042E00015F0A8FAD5E9042315F034FC62B6CDE93F
:1042F0000401DDE90801DDE90623CDE90001CDE98E
:10430000028931480BF024F89AF82131002B3FF450
:10431000D2AE2E4B01221A7072B6DBF8100015F0E7
:1043200089FACBE906012A4B186915F083FA284B64
:10433000C3E9060162B600233B70BCE672B61A4BB5
:10434000186862B6194B984205DDA0F50300A0F588
:1043500056409842F9DC15F0D5FE15491D4D15F073
:10436000D9FF144915F022FF15F076FA0022124BFE
:1043700015F0C6FA114BD3E9002315F00DF90BF037
:1043800069FA0F4BCDF80080A5F10806D3E90023A8
:1043900002950196FFF72CFE6378413B8DE64FF0C6
:1043A000020E8AE78C96FF1FC897FF1F00D6830076
:1043B00000D6034B0000C04100002E403096FF1F86
:1043C0001098FF1F289AFF1FE094FF1F8D96FF1F74
:1043D000F893FF1FA89BFF1F5093FF1F8893FF1F99
:1043E000F0B5044685B00D4672B6114B186915F04C
:1043F00021FA104BD3E9042315F0ACFB0E4B064613
:1044000018690F4615F016FA0C4BD3E9042315F082
:10441000A1FB02460B4662B60948CDE90223CDE96D
:1044200000672A4621460BF0D3F8012005B0F0BD05
:104430008893FF1F289AFF1FF893FF1F709AFF1F92
:10444000E094FF1F2DE9F04488B008AD0026002756
:1044500065E9026704460E4604A829469A461746AF
:104460009DF83850FFF7BCFF1E4B5B78002B2FD018
:10447000DDE90623DDE904018DE8D0040BF0B4FC8E
:1044800015BB72B6184B186862B6184B984205DD1A
:10449000A0F50300A0F556409842F9DC15F032FE75
:1044A000134915F037FF134915F080FE15F0D4F9C4
:1044B0000022114B15F024FAD4E9002315F06CF812
:1044C0000BF0FCF9C4E90001012008B0BDE8F0845C
:1044D000DDE90623DDE904018DE8D0040BF0C8FB1B
:1044E000CEE700BF5093FF1FC897FF1F00D6830081
:1044F00000D6034B0000C04100002E40FFFFFFFF2D
:104500002DE9F041BC4CA378413B94B0312B3DD810
:10451000DFE813F042003C003C00F0003C003C00AF
:104520003C003C0024013C003C009001C6013C00E2
:104530003C0026023C0051023C00E0023C003C00F2
:104540003C003C003C003C003C003C003C003C008B
:104550003C003C003C003C003C003C003C003C007B
:104560003C003C003C003C003C003C003C003C006B
:104570003C003C003C003200E378702B00F01987CF
:10458000742B00F01087672B00F039849B4B30228E
:104590001A8014B0BDE8F081994A1278002307937D
:1045A000089309930A930B930C930D930E93109316
:1045B000002A40F0BF86E278A2F130034A2BE5D80A
:1045C00001A151F823F000BFB7510000D351000002
:1045D000A1510000C7510000C3510000BF510000AD
:1045E000BB510000CF510000CB5100008D450000B1
:1045F0008D4500008D4500008D4500008D45000073
:104600008D4500008D4500008D4500008D45000062
:104610008D4500008D4500008D4500008D45000052
:104620008D4500008D4500008D4500008D45000042
:104630008D4500008D4500008D4500008D45000032
:104640008D4500008D4500008D4500008D45000022
:104650008D4500008D4500008D4500008D45000012
:104660008D4500008D4500008D4500008D45000002
:104670008D4500008D4500008D4500008D450000F2
:104680008D4500008D4500008D45000067510000FC
:104690008D450000595100008D4500008D450000FA
:1046A0008D4500008D4500008D4500008D450000C2
:1046B0008D4500008D4500008D4500008D450000B2
:1046C0008D4500008D4500008D4500008D450000A2
:1046D0008D4500008D4500008D4500008D45000092
:1046E0008D450000675100008D4500008D4500009C
:1046F00067510000E378423B152B3FF647AF01A21C
:1047000052F823F0E94D00008D4500008D45000072
:104710008D4500008D4500008D4500008D45000051
:104720008D4500008D4500008D4500008D45000041
:104730008D4500008D4500008D450000CF4D0000E7
:104740008D450000B94D00008D4500008D450000ED
:104750008D4500008D4500008D4D000072B6294D3D
:10476000286962B6284B5B6B5A429042C0F2BD8109
:104770009842CCBF02200120244B202103F13202B9
:1047800003F8011F9A42FBD1214C224A2249234BB4
:1047900012782778224E234C09781B783F5D3678B3
:1047A000164C183201EB4202303322706370A7704E
:1047B0000EB14823E3701C4B1C4A1B7812780F493A
:1047C00030332371002A00F0038240234B71184BD1
:1047D0001A78174B012A00F08A811A78022A00F011
:1047E00086811A78032A00F01A831B78042B04BFF1
:1047F0002D23A3717DE100BF5893FF1FD09AFF1FA7
:104800008D96FF1FF893FF1F709AFF1FCF9AFF1F0F
:104810001898FF1F9896FF1FC198FF1F189BFF1F36
:10482000E887FF1F240A0200D887FF1F2898FF1F70
:10483000B094FF1FE378413B162B3FF6A7AE01A2D1
:1048400052F823F0D34E0000CF4E0000D74E0000A8
:104850007F4E0000A34E00008D4500008D450000F6
:10486000934E00008D4500008D4500008D450000F1
:104870008D4500008D4500008D450000BF4E0000B5
:104880008D4500008D4500008D4500008D450000E0
:104890008D4500004B4E00008D450000254E000068
:1048A000E378423B2B2B3FF671AE01A252F823F086
:1048B000914F0000C54F00008D4500008D45000060
:1048C0008D450000A94F00008D45000031510000CA
:1048D0008D4500008D450000F5500000135100008B
:1048E0008D4500008D4500008D4500008D45000080
:1048F000B9500000D75000008D4500008D450000E4
:104900008D4500008D4500008D4500008D4500005F
:104910008D4500008D4500008D4500008D4500004F
:104920008D4500008D4500008D4500008D4500003F
:104930008D4500009B5000008D4500008D45000016
:104940008D4500008D4500008D4500008D4500001F
:104950008D4500008D4500008D4500007F50000012
:10496000E378312B00F0DE84322B7FF412AE72B686
:104970009B4B186914F05EFF9A4BD3E9042315F0A2
:10498000E9F814AA62E9020162B6974B974C1B78CA
:1049900000930123114620461A460AF06DF80028BC
:1049A00000F0FE82204616F02BFE022220449049A1
:1049B0000DF0CCFBEDE5E378303B422B3FF6E6AD66
:1049C00001A252F823F000BF035000000350000082
:1049D00003500000035000008D4500008D4500008D
:1049E0008D4500008D4500008D4500008D4500007F
:1049F0008D4500008D4500008D4500008D4500006F
:104A00008D4500008D4500008D4500002D500000B3
:104A10001F5000008D4500006B5000008D450000C8
:104A20008D4500008D4500008D4500008D4500003E
:104A30008D4500008D4500008D4500008D4500002E
:104A40008D4500008D4500008D4500008D4500001E
:104A50008D4500008D4500008D4500008D4500000E
:104A60008D4500008D450000675000008D45000019
:104A70008D4500008D4500008D4500008D450000EE
:104A80008D4500008D4500008D4500008D450000DE
:104A90008D4500008D450000555000004550000038
:104AA000F34F00008D450000E14F00008D450000F0
:104AB0008D4500008D4500008D4500008D450000AE
:104AC0008D4500008D4500008D4500008D4500009E
:104AD000614F0000E378303B032B3FF65AADDFE82F
:104AE00013F0F4002C01EC009D00022044E62A2380
:104AF000A371404B1A7C022A00F03E841A7CFE2AE5
:104B000000F05D841A7CFF2A00F086811B7C012B5B
:104B100000F08281384B02281A7C00F01F84022AA0
:104B200000F026841A7CFE2A00F01E841A7CFF2ADC
:104B300000F035841B7C012B00F031842F4B5B7817
:104B40000BB96B780BB1662363722D4B274D1B7825
:104B5000DA1E3021012AA17240F21884294A127803
:104B60004AB129498978002900F036843321A97295
:104B7000022A00F04C84254A1C491278002A0CBFF6
:104B800030223122012BE27200F0FD83022B00F073
:104B90001A84042B00F02984032B0CBF41235523D6
:104BA0000B73012800F0EC8357236373184B1B78B9
:104BB000002B40F0A6834123164AA37313782321C8
:104BC00030330022E3732174627414B0BDE8F081C5
:104BD000114B1A78002A3FF4FBAD47224A71F7E5E2
:104BE000F893FF1F709AFF1F4187FF1FD09AFF1F86
:104BF000D80902007894FF1F4096FF1F8893FF1F7B
:104C00009887FF1FD096FF1F5093FF1F8D96FF1FA1
:104C1000C487FF1F3896FF1FB094FF1F72B6AF4BBB
:104C2000186862B6AE4B984205DDA0F50300A0F50A
:104C300056409842F9DC15F065FAAA49AA4DAB4CEA
:104C400015F068FBAA4915F0B1FA14F005FE2B68BF
:104C50000C930C9B22689B1A632BCDE90E0100F28A
:104C6000DB83A44BA44CD3E90023D4E90045CDE970
:104C70001023CDE9124514F08FFC00229F4B04460F
:104C80000D4615F0AFF8002800F0B68320462946FF
:104C900000229B4B14F082FCCDE90E01994C0122BD
:104CA00020460EA909F08CFD00287FF47BAE964BC0
:104CB0001B6823801B0CA3706BE40DF04DFE934921
:104CC0000246904816F06EFA63E40DF045FE834C00
:104CD0008C4D20610BF0ACFD074620690BF0B6FD52
:104CE00015F010FA8A4915F015FB0646384615F0FE
:104CF00009FA0146304615F051F9064620690BF0D5
:104D0000B3FD15F0FFF9834915F004FB314615F0AA
:104D100045F914F0A1FD0B4602462146E1E90623C0
:104D20002846012209F04CFD284616F069FC0222B3
:104D3000284479490DF00AFA2BE40DF00DFE674C7A
:104D400020610BF0BBFD064620690BF0A9FD07466C
:104D500020690BF097FD804620690BF069FD206902
:104D60000BF074FD20696D4CF51784FB0634C5EB20
:104D70006415642404FB15640BF076FD6849009407
:104D800043463A465F4816F00DFA02E42479002CB7
:104D900040F00581634D644AEE68644959486423D4
:104DA00003FB06F382FB0362DB17C3EB223216F030
:104DB000F9F9EC60FFF7EDBB2379313B032B3FF6AC
:104DC000E5ABDFE813F023021A021102080223798F
:104DD000303B052B3FF6DAABDFE813F07C027702BD
:104DE00074026E0290027F022379303B032B3FF660
:104DF000CDABDFE813F059025102490241024C4B9E
:104E00005B78002B00F0AD814A4B3E4A1B68138053
:104E10001B0C9370FFF7BDBB6223E3717AE62B2373
:104E2000A37166E6444B186800283EDB15F06AF96A
:104E30004FF07C5115F0B2F815F094FB02463F4953
:104E4000304816F0AFF9FFF7A4BB3D493D4B0022B7
:104E5000D1E9000114F054FD0022002304460D4660
:104E600014F0D4FF002800F002830022364B2046C5
:104E7000294614F093FB14F0F3FF0246DFE72A20E3
:104E8000FBF7FCFA024631491E4816F08BF9FFF792
:104E900080BB2F4B2F491A681A4816F083F9FFF789
:104EA00078BB2D4B18680028C0DA15F02BF94FF0AD
:104EB0007C5115F071F815F055FB0246BFE7274B02
:104EC00024491A680F4816F06DF9FFF762BB2620D7
:104ED000D6E72420D4E72820D2E700BFC897FF1FD9
:104EE00000D6830000D6034BD49BFF1F689BFF1F97
:104EF0000000C0417893FF1F2098FF1F000028C0CA
:104F000000003840D09AFF1FD40902001C0A02009A
:104F10000000704200006145D80902001F85EB5176
:104F20000C0A0200A094FF1F8D512C69FC0902009D
:104F30005093FF1FE8090200F099FF1FF4090200D7
:104F40003098FF1F000024400000E03FF0090200FD
:104F50005493FF1F040A02002C98FF1F1C9AFF1F86
:104F6000B149B24B0022D1E9000114F015FB01F167
:104F700000431946AAA3D3E9002314F0C1FC14F09E
:104F80006FFFAB490246AB4816F00CF9FFF701BBC7
:104F90002379442B00F0EA82522B00F07282A54C58
:104FA00030232380FFF7F5BA2379442B00F00683E2
:104FB000522BF4D1A04BA1491A689E4816F0F2F882
:104FC000FFF7E7BA2379442B00F0D882522BE6D1C1
:104FD000994B9A495A69974816F0E4F8FFF7D9BAFD
:104FE00091498FA3D3E90023D1E9000114F088FC93
:104FF000C5E7934B8E491A688E4816F0D3F8FFF731
:10500000C8BA904A8B4C02EBC303D3E9000114F0F9
:105010006FFF0222234611460DF088FAC2E41022E7
:105020008349844816F0BEF8FFF7B3BA864B814C2B
:10503000D3E9000114F05CFF2346012202210DF0A8
:1050400075FAAFE4814B7A491A687A4816F0AAF8E3
:10505000FFF79FBA7E4972A3D3E90023D1E900018B
:1050600014F04EFC8BE71A200AE71C200DF088F99B
:10507000784902466F4816F095F8FFF78ABA237907
:10508000442B00F0A382522B89D16B4B6B495A7C85
:10509000684816F087F8FFF77CBA2379442B00F0B4
:1050A0008582522B7FF47BAF634B6449DA69614898
:1050B00016F078F8FFF76DBA2379442B00F08E8252
:1050C000522B7FF46CAF5C4B5C49DA7B594816F08D
:1050D00069F8FFF75EBA2379442B00F05782522B10
:1050E0007FF45DAF544B55499A68524816F05AF810
:1050F000FFF74FBA2379442B00F00282522B7FF442
:105100004EAF4D4B93F82420012A00F0FF8100227E
:10511000B9E62379442B00F04182522B7FF43FAF54
:10512000454B46495A7B434816F03CF8FFF731BAE5
:105130002379442B00F0D981522B7FF430AF464BBA
:1051400093F82420012A00F0D68100223B493948F7
:1051500016F028F8FFF71DBA404B1B78002B7FF4A0
:1051600053AE3F4B51E6772A00F0AB817A2A00F02C
:1051700090813C4B3C48612AD3E9022300F0A38193
:10518000022100910AF074FA14AA62E902010123D3
:10519000114600930022274809F06EFCFFF7F6B98C
:1051A000099814F059FB02460B4622482F4915F086
:1051B000F9FFFFF7EEB90798F3E70D98F1E70C98C0
:1051C000EFE70B98EDE70A98EBE71098E9E70E9800
:1051D000E7E70898E5E7264B24491648D3E90C236E
:1051E00015F0E0FFFFF7D5B9214B20491148D3E96D
:1051F000142315F0D7FFFFF7CCB91E4B1B490D4800
:10520000D3E9162315F0CEFFFFF7C3B9184B1749A2
:105210000848D3E9162315F0C5FFFFF7BAB900BF58
:10522000000000000088C3402887FF1F0000F03FF7
:10523000F4090200D09AFF1F5098FF1F2C0A0200A9
:10524000D894FF1F6887FF1F5087FF1F8896FF1F96
:10525000089BFF1FF00902008898FF1F0896FF1F98
:10526000EC090200709BFF1FE094FF1FE40902009D
:105270008893FF1FF893FF1FA74BA849DA68A84837
:1052800015F090FFFFF785B9A64BA449DA68A4484A
:1052900015F088FFFFF77DB99F4BA0491A7AA04807
:1052A00015F080FFFFF775B99E4B9C491A7A9C4810
:1052B00015F078FFFFF76DB972B69B4BD3E9060185
:1052C00062B65CE672B6994BF8E772B6964B1A690D
:1052D00062B6B4E572B6954BF9E772B6924CD4E972
:1052E000060114F0BDFD2369C01A206262B6904920
:1052F000226A8B4815F056FFFFF74BB972B68B4CFC
:10530000EDE7FEF711FA002873D0FEF717FA002830
:105310000CBF03250725FEF7C3FA002857D105F176
:10532000410349E472B6814B186914F083FA814B4A
:10533000FFF723BB0DA80CA90BAA0AAB10AE0EAD4C
:1053400003900291019200930596049509AB08AA77
:1053500007A9794809F0E4FEFFF72DB9FE2A07D026
:105360001A7C022A7FF4E2AB5F232372FFF7E6BBCD
:105370005E232372FFF7E2BB3E23E371FFF7CABB54
:105380004523637312E445230B730AE46B4A927856
:10539000002A0CBF32223422A272FFF7ECBB622338
:1053A0002372FFF7CBBB654B9B78002B7FF42CADB2
:1053B000D7E6624B1B78002B3FF4D3AE24E53C23A9
:1053C000E371FFF7A7BB4B230B73FFF7EABB45F075
:1053D00008034133FFF7F0BB5949097800293FF42E
:1053E000CAAB3121A972FFF7C3BB6B230B73FFF765
:1053F000D8BB4223FFF7E0BB0022524B2046294690
:1054000014F00EFD002829D1CDE90E4546E4A27A1C
:105410000132A272FFF7AFBB4B4B4C4F4C4E0021F9
:10542000A3F10802009110A812A9FFF70BF80022BF
:10543000484BDDE9100114F08DFB2D680D950246F7
:105440000B46DDE912010D9D2560C6E90001CDE99D
:105450001023C7E90023DDE90E010CE420462946AC
:1054600000223D4B14F098F8CDE90E0116E400221D
:105470003A4B2046294614F08FF814F0F1FC02460E
:10548000DDE4284B25491A68254815F08BFEFFF707
:1054900080B80022324B0092D3E9022326480AF05A
:1054A000E7F814AA62E902010123114600930022E1
:1054B0001B4809F0E1FA00283FF468A8184CFFF7F0
:1054C00071BA0222E6E7012400940AF0D1F814AA86
:1054D00062E902012346114600940022104809F0B7
:1054E000CBFA0028EAD1FFF751B81E4B93F82420DD
:1054F000012A7FF42AAE986A0BF0A6FE024625E642
:10550000194B93F82420012A7FF401AE986A0BF01E
:105510008DFE0246B7E400BF389BFF1FF009020072
:10552000D09AFF1F209BFF1FF893FF1F8893FF1F38
:10553000F4090200289AFF1FE094FF1F5093FF1FF9
:105540000896FF1F00002840A89BFF1F7893FF1FAD
:105550002098FF1F00002E40000038400000E03F70
:10556000709BFF1F5098FF1F8898FF1F1F4B2049FB
:105570001A68204815F016FEFFF70BB81E4B1F499E
:105580005A691C4815F00EFEFFF703B81A4B1B4969
:105590009A68184815F006FEFEF7FBBF164B174930
:1055A0005A7B144815F0FEFDFEF7F3BF124B13496A
:1055B000DA69104815F0F6FDFEF7EBBF0E4B0F4908
:1055C0001A680C4815F0EEFDFEF7E3BF0A4B0B49D5
:1055D0005A7C084815F0E6FDFEF7DBBF064B07498D
:1055E000DA7B044815F0DEFDFEF7D3BF389BFF1FC2
:1055F000F0090200D09AFF1F8898FF1F2C0A0200B2
:105600002DE9F047A54C6278A2F141038AB0332B13
:1056100000F2E482DFE813F02601E202F300CE009C
:10562000E202E202C100E202E202E202E20234002D
:105630008000800080008000E202CE003E02240252
:10564000E202E901E202E601E2028702E202E2028C
:10565000E202E202E202E2023400E202E201D401EA
:10566000B401A101BC019A01E202E202E202E202FB
:1056700084017E017701E202E2026201E202690234
:10568000874C884D94F80080874F012323700DF0DC
:1056900063F9864B86490646D86A14F087FD14F0F4
:1056A00061FF331A18462B610BF0C2F88146286956
:1056B0000BF0CCF814F026FD7E4914F02BFE0646C4
:1056C000484614F01FFD0146304614F067FC0646BC
:1056D00028690BF0C9F814F015FD754914F01AFE8D
:1056E000314614F05BFC14F0B7F802460B4629462D
:1056F000E1E908233846227809F062F8002800F032
:105700002A82384615F07CFF022238446A490CF0A0
:105710001DFD84F800804AE0A2F14D0404EB44082A
:1057200008EBC808DFF8809108F1D30A554608F164
:10573000E2084E464F4628460CF022FE013507F897
:10574000010B002800F09A82A845F4D122465B495B
:10575000554815F027FD544815F052FF0E28034612
:1057600015DC00240EE00CF00BFE19F8017B8742DB
:105770003946284601D00CF01DFE4B4815F040FF7D
:10578000013403460AEB0405A3422846EBDAF0187D
:10579000022249490CF0DAFC09E0444BD86A14F0C3
:1057A0005BF802460B464048454915F0FBFC0AB041
:1057B000BDE8F087434F444D3B680293029B296844
:1057C0005B1A632B00F263824049414BD1E90045EB
:1057D000D3E90001CDE90445CDE90601442A304B67
:1057E000314E00F073821A78304604A908F0E8FFC1
:1057F000002847D1302333800AB0BDE8F0870DF090
:10580000ABF82A4B2A49274C0546D86A14F0CEFC3F
:1058100014F0A8FE2B1A184623610BF04FF8064629
:1058200020690BF03DF8074620690BF02BF8804605
:1058300020690AF0FDFF20690BF008F82069254C6B
:10584000F51784FB0634C5EB6415642404FB15646A
:105850000BF00AF82049009443463A46124815F0E6
:10586000A1FCA4E706A904A8FEF7BAFD0C4B0E4E56
:105870001B78009306A930460123002209F0FCF8AA
:105880000028B7D0304615F0BBFE022230440A494A
:105890000CF05CFC0AB0BDE8F08700BF5893FF1F16
:1058A0004187FF1FC897FF1FD09AFF1F709BFF1FE4
:1058B0000000614500007042D8090200CC090200D6
:1058C000380A0200D49BFF1FD896FF1FE096FF1FE7
:1058D000C896FF1F1F85EB510C0A0200A24BA34E76
:1058E000D3E900010022A24B14F034F90AAB63E9BA
:1058F0000601A04A19461278304608F061FF0028D8
:105900003FF478AFBEE79C4B9C491A68974815F066
:1059100049FC4CE79A4A9B49944815F043FC46E7FA
:1059200072B6994B1A6962B6984B5B6B59428A42C0
:10593000C0F28B819A4200F38881954B8B4A1B6899
:10594000138045211B0C9370117030E7914B9249E5
:105950001A68864815F026FC29E7904BD3E9000128
:1059600014F0C6FA002206AB11460CF0DFFD06A9C2
:105970007E4815F03DFC022289490CF0E7FB16E752
:10598000884B8949B3F91820784815F00BFC0EE7CD
:10599000A578764E774C85492778A5F16605B5FA46
:1059A00085F56D090123009530461A46257009F0EA
:1059B00063F8002840F0AD80302333802770F6E68E
:1059C0006C4B6A4E1B7800933046012300227849C5
:1059D00009F052F800283FF40DAF53E7634B754AC6
:1059E0001A60E4E6FEF78CFDE1E6E378724A002BEC
:1059F00040F078819378423B2E2B00F22281DFE841
:105A000013F01901200112012001200120012001C1
:105A100020012001200120012001090120010101B4
:105A2000200120012001F900200120012001200196
:105A3000200120012001200120012001200120015E
:105A40002001F1002001200120012001200120017E
:105A5000200120012001200120012001200110014E
:105A6000564B1B78002B00F0F980554B1B78002B10
:105A700040F0F48053493AA3D3E90023D1E900016F
:105A800013F03EFFCDE9040114F032FA06AB052213
:105A900000216AE7374C01232678237072B64A4BFF
:105AA000186862B6494B984205DDA0F50300A0F5E1
:105AB00056409842F9DC14F025FB45492B4D14F073
:105AC00029FC444914F072FB13F0C6FE0AAB63E9EB
:105AD000060122781946284608F072FE002840F098
