:1000000000800020BD010000B54801006D480100DE
:100010006D4801006D4801006D4801006D48010008
:100020006D4801006D4801006D480100B5480100B0
:10003000B54801006D480100197A01001D7A0100E0
:10004000B5480100B5480100B5480100B5480100B8
:10005000B5480100B5480100B5480100B5480100A8
:10006000B5480100B5480100B5480100B548010098
:10007000B5480100B5480100B5480100B548010088
:10008000B5480100B5480100B5480100B548010078
:10009000B5480100B5480100B5480100B548010068
:1000A000B5480100B5480100B5480100B548010058
:1000B000B5480100B5480100B5480100B548010048
:1000C000B5480100B5480100B5480100B548010038
:1000D000B5480100B5480100B5480100B548010028
:1000E000B5480100B5480100B5480100B548010018
:1000F000B548010079590100B5480100B962010015
:10010000B5480100CD690100B5480100B5480100BE
:10011000B5480100B5480100B5480100B5480100E7
:10012000B5480100B5480100B5480100B5480100D7
:10013000B5480100B5480100B5480100B5480100C7
:10014000B5480100B5480100B5480100B5480100B7
:10015000F97E01000D7F0100217F0100357F010044
:10016000B5480100C16C0100B5480100B548010067
:10017000B5480100B5480100B5480100B548010087
:10018000B5480100B5480100B5480100B548010077
:10019000B5480100B5480100B5480100B548010067
:1001A000B5480100B5480100B5480100B548010057
:1001B000B5480100B5480100B5480100564B4CF266
:1001C000205210B51A804DF628121A8000BF00BFC9
:1001D00014F074FB514B4FF010621A60504A9A6051
:1001E000504ADA60504A136813F4807304D14F49BF
:1001F0000B604FF4A85313604D4B1A78110703D5C9
:100200001A7842F008021A704A4B4B492A221A7097
:100210004A4A4B4B8B4204D252F8040F43F8040B6A
:10022000F8E7484B484900228B4202D243F8042B9E
:10023000FAE74649464A002352F8230041F82300D2
:1002400001336F2BF8D1434B434A802103F8011B44
:100250009342FBD1414B3D4A1A60414B8A221A70AE
:10026000A3F5805324225A70A0221A709A7992071B
:10027000FCD59A79D406FCD43A4A937903F00C035E
:10028000082B384BF9D103221A7140225A719A79FE
:100290009006FCD5334A9179324B4906FBD5324A58
:1002A000324911600221516020221A709A7902F0BD
:1002B0000C020C2AFAD12E4B2E4A1A602E4B2F4AD2
:1002C0001A6000225A60072243F8042C2C4AC3F813
:1002D0000C2D62B614F08EFD144B1B68DA0705D5A1
:1002E000284814F073FD284B284A1A60284B1B78C5
:1002F0005B0609D5244C254B22689A4204D121483B
:1003000014F064FD0023236014F0DEFA1CF0C0FB3F
:1003100017F01CFEFEE700BF0E20054030800440B1
:10032000823F04000100002B10D0034014D0034092
:1003300002D0074000E007401893FF1FD83A0200A0
:100340002087FF1F1893FF1F249FFF1F0082FF1F9E
:100350000000000000E400E05FE400E008ED00E0E1
:100360000050064000400640448004400000030165
:1003700004800440C010050014E000E0FF76010096
:100380000000202085EBE7631CE00340A5C3945ADE
:1003900000F00740FFFFFFFFFFFFFFFFFFFFFFFF32
:1003A000FFFFFFFFFFFFFFFFFFFFFFFFFFFFFFFF5D
:1003B000FFFFFFFFFFFFFFFFFFFFFFFFFFFFFFFF4D
:1003C000FFFFFFFFFFFFFFFFFFFFFFFFFFFFFFFF3D
:1003D000FFFFFFFFFFFFFFFFFFFFFFFFFFFFFFFF2D
:1003E000FFFFFFFFFFFFFFFFFFFFFFFFFFFFFFFF1D
:1003F000FFFFFFFFFFFFFFFFFFFFFFFFFFFFFFFF0D
:10040000FFFFFFFFFFFFFFFFFFFFFFFFDEF9FFFF23
:1004100010B5054C237833B9044B13B10448AFF33E
:1004200000800123237010BD1893FF1F00000000FF
:10043000D43A0200084B10B51BB108490848AFF385
:1004400000800848036803B910BD074B002BFBD0A0
:10045000BDE81040184700BF000000001C93FF1FBC
:10046000D43A02001893FF1F0000000014F0A8BC4B
:1004700010B5044617F01EFD204610BD10B582B021
:10048000044614F0B1F98DF80600601C14F0ACF9C4
:100490008DF80700BDF8060002B010BD38B50C4657
:1004A000054614F0A1F92070681C14F09DF96070E5
:1004B000A81C14F099F9A070E81C14F095F9E070EC
:1004C00038BD00BF394A70B50223394D13602A7810
:1004D000002A39D0374E0023337072B6364CD4E937
:1004E00006011BF0EDFE2369C01A206262B6236A82
:1004F000324A002B30D0236A31492F48C97B002B68
:10050000D4BF0023012384F8283049B32D4B90F841
:1005100028101B78994229D02B4B0121196094F89F
:100520002830254903F0FF0053B3D0685268234BAD
:1005300090422FDADA6801210A44DA601972012345
:10054000337000232B7070BD1A4A12780AB11F4A0B
:10055000136001232B7070BD137A002BCBD1F0E711
:10056000184B90F828101B789942D5D0184B0121D0
:10057000196094F82830104903F0FF00002BD4D103
:10058000D2680E4B002A0BDDDA680121013ADA60ED
:100590001972D4E700221A720B6901330B61CEE79E
:1005A00018720B69013B0B61C9E700BF88F00F406F
:1005B0002487FF1FA994FF1FD094FF1F409BFF1F9C
:1005C0003897FF1FAC95FF1FC8F00F4084F00F4015
:1005D000C4F00F40374A70B52023374D13602A7896
:1005E000002A37D0354E0023337072B6344CD4E92C
:1005F00006011BF065FE2369C01A206262B6236AF9
:10060000304A002B2ED0236A2F492D48C97B002B5E
:10061000D4BF0023012384F8283039B390F8283060
:1006200043B32A4B4FF40051196094F82830244901
:1006300003F0FF004BB3D0685268224B90422EDA91
:10064000DA6801210A44DA60197201233370002349
:100650002B7070BD194A12780AB11D4A136001232C
:100660002B7070BD137A002BCDD1F0E790F82830B5
:10067000002BD6D0174B4FF40051196094F8283056
:100680000F4903F0FF00002BD5D1D2680D4B002A93
:100690000BDDDA680121013ADA601972D5E7002230
:1006A0001A720B6901330B61CFE718720B69013BBA
:1006B0000B61CAE7C8F00F404887FF1F7895FF1FFE
:1006C0006893FF1F589BFF1F7097FF1F04F00F4098
:1006D000C4F00F4008F00F402DE9F043147A83B0C6
:1006E00034B1D2E904670A9D0124C3E900672C7084
:1006F000274C2478002C3ED0264C2478002C3AD16C
:10070000127A002A37D10A9A1278002A33D0027C52
:10071000002A30D11D460C4672B6D1E906011BF005
:10072000CFFD2369C01A206262B6236A0193019B40
:10073000002B2ADD01981BF0ADFA8046A06E894699
:100740001BF0A8FAD4E918231BF00AFB0022124B75
:1007500006460F461BF08AFD08B90F4F00263246A9
:100760003B46404649461BF06DFD38B172B60A9AC9
:100770000023137062B603B0BDE8F08372B6D4E90B
:100780001223C5E9002362B6F5E701984042D2E79B
:10079000D098FF1F5095FF1F0000F03F037C022BF5
:1007A00004BF01230374037CFE2B04BFFF230374E7
:1007B000704700BF014B30221A807047F49AFF1F28
:1007C00010B4064B064A1878C8246F21002304FB96
:1007D0000010194610BC137014F020B88095FF1F4C
:1007E000F09AFF1F10B5084B084A18786E210023B5
:1007F000C82404FB00101946137014F00FF8044BC2
:1008000001221A7010BD00BF8095FF1F1897FF1FAF
:10081000D098FF1F2DE9F0475D4C5E4D5E495F4E5D
:100820002D7894F800E009783478002D08BFBEF1E7
:10083000000F0CBF01250025C9B224B13478042C67
:1008400001D0BDE8F0878D42FBD91D46174604460E
:1008500019461046002300221BF0EAFC00284ED166
:100860003378042B04D04E4B4E4A1978117018700F
:10087000237C5BB2002B74DDD4E9028900220023C3
:10088000404649461BF0F2FC4FF0010A00284BD0CD
:100890005FFA8AFA237C73B1002338462946002286
:1008A0001BF0EEFC4FF0010300B9034683F0010397
:1008B000DBB29A451AD038462946002200231BF0A5
:1008C000DFFC002855D03846294642464B461BF0EF
:1008D000AFFC58B30423337002232374324A00213F
:1008E0004FF0FF3311702360BDE8F08700224FF016
:1008F0008043404649461BF0C3FC0028DBD0237CE4
:10090000022B02D0237CFE2B9BD12046BDE8F04772
:10091000FFF744BF00220023404649461BF09CFCE1
:100920004FF0010A0028B3D18246B1E7AA463A4601
:100930005346C4E9022372B6216AD4E90223D1E9FD
:1009400000011BF00DFAC4E9060162B62946042530
:1009500038460022002335701BF092FC0028BBD1E2
:1009600013E0237C1B06D4E90289D3D44FF0010A9B
:1009700090E705F1004A3846514642464B461BF087
:1009800057FC0028D3D004233370FE232374A5E73B
:10099000B894FF1F1897FF1F5095FF1FEE93FF1F7E
:1009A000D098FF1FAD95FF1FD887FF1F30B583B0CC
:1009B000CDB20191044613F017FF854203D02946BA
:1009C000204613F02BFF0134204613F00DFF9DF855
:1009D0000550854203D02946204613F01FFF03B07F
:1009E00030BD00BFF8B50D460E78044613F0FCFE8E
:1009F000864203D03146204613F010FF661C304675
:100A000013F0F2FE6F78874203D03946304613F078
:100A100005FFA61C304613F0E7FEAF78874203D0EF
:100A20003946304613F0FAFE0334204613F0DCFE5C
:100A3000ED78854205D029462046BDE8F84013F000
:100A4000EDBEF8BD2DE9F047474B484F484E82B008
:100A5000002201250A201A703D70357014F080FBC9
:100A6000444B1C7804EB840404EB8404E40004F19C
:100A7000650013F0B9FE8DF8040004F1660013F070
:100A8000B3FE8DF8050004F1670013F0ADFE8DF89C
:100A9000060004F1680013F0A7FE8DF8070004F1CA
:100AA000690013F0A1FEDDF804A08DF8040004F144
:100AB0006A0013F099FE8DF8050004F16B0013F045
:100AC00093FE8DF8060004F16C0013F08DFE2A4BA6
:100AD0008DF80700587B019C1BF0CCF802460B46B2
:100AE00000204FF0804117F05FFF80468946504656
:100AF0001BF0D0F842464B461BF032F91BF0E0FBEE
:100B00001E4B8246587B1BF0B5F802460B46002070
:100B10004FF0804117F048FF8046894620461BF081
:100B2000B9F842464B461BF01BF91BF0C9FB0446C3
:100B300072B65046C7F810A01BF0ACF8C7E9060122
:100B4000204634611BF0A6F8C6E9060162B60C4ADD
:100B50000C4B1278AA420CBF0222002228461A70BF
:100B600002B0BDE8F08700BFD887FF1FD094FF1FF9
:100B70006893FF1F8095FF1F3897FF1F7097FF1F17
:100B8000B887FF1F089AFF1F10B54B4C4B4994F8CC
:100B90002430013BDAB20120032A08702DD84849DD
:100BA000E06951F82220904228BF1046032B10D84C
:100BB000DFE803F068025A6D1BF05CF83CA3D3E950
:100BC00000231BF0F7F91BF0A3FB81B2E06A13F0DE
:100BD00051FB3C4C94F82430013BDAB2032A0ED886
:100BE0003749E06951F82220904228BF1046032B74
:100BF0005BD8DFE803F02415062A0020D6E70020A2
:100C0000F5E71BF037F82AA3D3E900231BF0D2F94C
:100C10001BF07EFB81B2206BBDE8104012F000BFDC
:100C20001BF028F822A3D3E900231BF0C3F91BF023
:100C30006FFB81B2E06ABDE8104013F01BBB0146B8
:100C4000A06ABDE8104011F0FFBE1BF013F818A316
:100C5000D3E900231BF0AEF91BF05AFB81B2606BA5
:100C6000BDE8104012F0E6BF1BF004F810A3D3E972
:100C700000231BF09FF91BF04BFB81B2206B12F09D
:100C8000CFFEA6E70146A06A11F0DEFEA1E71AF04A
:100C9000F1FF07A3D3E900231BF08CF91BF038FB0D
:100CA00081B2606B12F0C6FF93E710BDAFF3008016
:100CB000CD3B7F669EA0F63F3897FF1F279BFF1F07
:100CC0000C2E02007097FF1FF8B52F4B2F4C304DA4
:100CD0001E783049DFF8E8C0DFF8E8E0012384F847
:100CE000283085F82830D5E90E23C5E91423D4E946
:100CF0000E23C8276E2017FB0606274FC4E91423CE
:100D000000230022C1E90023C7E900232349CCE9DD
:100D10000023CEE90023224B002730460F701F70BE
:100D200013F062FD18B13946304613F077FD1D48C7
:100D30001D4B1E491E4A4668586800230B740B6001
:100D400013744B606E6113605360606172B66869C2
:100D50001AF0A0FFC5E906016B692B6160691AF002
:100D600099FFC4E906016369236162B6114B1B78E0
:100D700033B1114A114B0021012011701870F8BDD8
:100D8000FFF702FFF5E700BF8095FF1F6893FF1F85
:100D9000D094FF1F5094FF1F0897FF1FB894FF1FA8
:100DA0001897FF1FC096FF1F909AFF1F5894FF1FB0
:100DB0008094FF1F279BFF1FD098FF1FD887FF1F1E
:100DC0001097FF1F309BFF1F10B5494C494994F8FD
:100DD0002430013BDAB20020032A087006D84649C5
:100DE000606951F82220904228BF1046032B10D88A
:100DF000DFE803F06602586B1AF03CFF3AA3D3E930
:100E000000231BF0D7F81BF083FA81B2E06A13F0DD
:100E100031FA3A4C94F82430013BDAB2032A0CD868
:100E20003549606951F82220904228BF1046032BB3
:100E300059D8DFE803F0221304280020F7E71AF05E
:100E400019FF29A3D3E900231BF0B4F81BF060FAC3
:100E500081B2206BBDE8104012F0E2BD1AF00AFF2B
:100E600021A3D3E900231BF0A5F81BF051FA81B2AE
:100E7000E06ABDE8104013F0FDB90146A06ABDE884
:100E8000104011F0E1BD1AF0F5FE17A3D3E90023DD
:100E90001BF090F81BF03CFA81B2606BBDE810408B
:100EA00012F0C8BE1AF0E6FE0FA3D3E900231BF030
:100EB00081F81BF02DFA81B2206B12F0B1FDA8E78A
:100EC0000146A06A11F0C0FDA3E71AF0D3FE06A305
:100ED000D3E900231BF06EF81BF01AFA81B2606BA5
:100EE00012F0A8FE95E710BDCD3B7F669EA0F63FB1
:100EF0003897FF1F279BFF1F0C2E02007097FF1FC4
:100F00002DE9F047D1E910678AB0CDE90467127A7C
:100F1000139D0C4622B99846037C8246002B34D19F
:100F2000D5E90001D4E916231AF068FD024621F044
:100F30000043CDE90623DDE90667002200233046A1
:100F400039461BF075F9002840F0638132463B4674
:100F5000D4E90E011BF02EF806460F4602460B465A
:100F6000DDE916011BF08CF9002800F035813246CE
:100F70003B46DDE914011BF06FF9002800F02981E0
:100F8000C4E914670AB0BDE8F087D0E90267DDE97B
:100F90000423304639461BF055F9002840F01F81E4
:100FA000A14B1B78002B40F0BA819AF81030DFF883
:100FB000849219064CBF9D4B9D4B0022C9E900232A
:100FC0009AF81030FF2B00F037819AF81030012B7F
:100FD00000F03281D4E90223104619461AF00EFDC2
:100FE000D9E900678EA3D3E900231AF0B9FE32468F
:100FF0003B461AF0B5FED5E90067D8E900231AF0A0
:10100000D9FF32463B461AF0F9FCC5E90001D5E9A3
:101010000001002200231BF015F9002840F0858113
:10102000DDE90401D5E900231BF020F9002800F0D8
:10103000748104ABD3E90023C5E900239AF810308A
:101040005BB2002B40F3B981DAE90267D5E9000110
:1010500032463B461BF014F908B9D5E90067C5E9EB
:1010600000679AF81030FF2B04D09AF81030012B4B
:101070007FF456AFD5E90023CDE90823DDE9080167
:10108000002200231BF0FCF8002800F00A81DDE9B3
:101090000823DDE904011BF0D5F8002800F00781E2
:1010A00072B6D4E906011BF00BF92369C01A20625D
:1010B00062B6D4E91423D4E91C011AF07BFF02467E
:1010C0000B461AF04DFED4E9028906460F46424609
:1010D0004B46404649461AF091FC0B4602463946BB
:1010E00030461AF067FF1BF0EBF8236A002B064628
:1010F000C0F2118172B6206930441AF0CBFDC4E908
:101100000601266262B6236A0293029B0298002BB4
:10111000D8BF40421AF0BEFD8046A06E89461AF044
:10112000B9FDD4E918231AF01BFE0022404B0646F5
:101130000F461BF09BF8002800F0F48032463B4637
:10114000404649461BF07EF800283FF4E9AE0021F6
:10115000002200238AF81010C5E9002372B6129B02
:10116000D3E906011BF0ACF8129B1B69C01A129B55
:10117000186262B6129B1B6A0193019B0198002BB7
:10118000D8BF40421AF086FD129B0646986E0F4665
:101190001AF080FD129BD3E918231AF0E1FD00221A
:1011A000234B804689461BF061F8002800F015812A
:1011B00042464B46304639461BF044F800283FF47F
:1011C000AFAE194B1B78002B7FF4AAAEFFF7DCFC07
:1011D000A6E6DDE91467D3E6DDE91667C7E6D5E9DB
:1011E0000023104623F00041DDE904231BF02AF818
:1011F00000283FF4D5AE9AF810305BB2002B3FF7D1
:101200002EAF9AF81030180600F1D3800026002780
:1012100025E7DDE91623C4E914230AB0BDE8F08709
:1012200000000040E17A843F279BFF1F0000F0BFD1
:101230000000F03FB094FF1FD4E902231046194686
:101240001AF0DCFBD9E9006767A3D3E900231AF0A1
:1012500087FD32463B461AF083FDD8E900231AF099
:10126000A9FED5E9006702460B46304639461AF01A
:10127000C3FBC5E900010022D9E900015C4B1AF06B
:10128000D7FF002870D0D5E90001DDE904231AF06A
:10129000EDFF00287CD104ABD3E90023C5E900238E
:1012A000B5E6DDE90801024601F10043F1E672B658
:1012B000D4E906011BF004F82369C01A206262B663
:1012C000D4E91423D4E91C011AF074FE02460B463B
:1012D000D4E902891AF044FD424606460F464B46C1
:1012E000404649461AF08AFB0B46024639463046CC
:1012F0001AF060FE1AF0E4FF236A0393039B002BAD
:10130000039BD8BF5B4298420646BFF6FCAE236AF9
:10131000002BBFF6EFAE7642ECE62B468AE6FFF7EF
:1013200053FD42E60026324F08E7DDE9042303F1CE
:101330000047164610463946D5E900231AF082FFC9
:1013400018B3C5E900679AF810305BB2002B21DDB5
:10135000DAE90267D5E9000132463B461AF07CFF24
:1013600000287FF47CAE78E6DDE9042303F1004732
:10137000164610463946D5E900231AF081FF08B118
:10138000D5E90067C5E9006741E6D5E90067D8E718
:101390002B4681E79AF810301A064FF000064FF0FE
:1013A0000007D7D5DAF80C30DAF8086003F1004707
:1013B000D0E707F100431F4651E69AF810301B06AC
:1013C0004FF000064FF000077FF540AEDAF80C3022
:1013D000DAF8086003F1004738E64FF00008DFF85C
:1013E0001090E5E6AFF3008000000040E17A843F12
:1013F0000000F03F5E4A5F4913682DE9F043013376
:1014000013600B788BB0002B70D05B4C5B4D5C4A4B
:10141000D4E914010AAB5B4C63E90201009256491E
:10142000594A5A48FFF758F9DDE90801D4E9002381
:101430001AF0FEFE08BB0022554BDDE908011AF048
:101440008FFC1AF085FF002106461BF087FA80B951
:10145000504930461BF096FA58B94F4930461BF0B8
:10146000D5F84FF07C511AF0C7FF1BF0D1FA2328B2
:1014700072D8DDE90823C4E90023D5E914010AABD9
:10148000464A474C63E9040100923C49454A4648B4
:10149000FFF722F9DDE90601D4E900231AF0C8FEBE
:1014A00008BB00223A4BDDE906011AF059FC1AF09C
:1014B0004FFF002105461BF051FA80B935492846F7
:1014C0001BF060FA58B9344928461BF09FF84FF0DA
:1014D0007C511AF091FF1BF09BFA232842D8DDE9DA
:1014E0000623C4E900230BB0BDE8F0832F4A30493E
:1014F000304B0191D2E90001D3E900231E4C234E69
:101500001E4D0095CDE90401CDE902232146304668
:10151000294B1D4A244FFFF7F3FC284B2849009420
:10152000D1E90001D3E90089264A0192CDE90201FF
:10153000254B1C4ACDE9048929463846FFF7E0FCD3
:10154000337C002B7FF463AF3B7C5BB2002B7FF4DA
:101550005EAF1E4A13705AE71D4B1B68002B88D0E4
:10156000186086E71B4B1B68002BB8D01860B6E7E5
:101570008896FF1F5095FF1FD094FF1F6893FF1F91
:10158000EC93FF1F109AFF1F409BFF1F5894FF1FF3
:101590000000E03FABAAAA4C000040424994FF1F64
:1015A000189AFF1F589BFF1F8094FF1FC087FF1FC3
:1015B0003893FF1F3887FF1FE096FF1FC887FF1F64
:1015C0004087FF1F909BFF1FB09AFF1FEE93FF1FE6
:1015D0005893FF1F6093FF1F2DE9F04F8FB00EAFA0
:1015E000DDE91C451A9E07F8086DC0E90C45189EF8
:1015F00003904E318DF835203846199A8DF83120F8
:101600008DF834308DF836108DF8326011F0AEF868
:10161000D94904461E981AF0F9FF1BF0D3F9044487
:10162000204613F0D3FB204611F0D0F913F0C8FB8D
:10163000044611F08BF80646204611F079F805466D
:10164000204611F067F86B1E012B98BF06F1FF369C
:101650008246304698BF0C351AF084FFC74983464E
:101660001BF088F81AF028FB16F0F2FF8046894636
:101670005846C3491BF07EF81AF01EFB16F0E8FF2F
:1016800006460F465846BF491AF0C0FF1AF014FB31
:1016900016F0DEFFCDE9000128461AF063FF4FF097
:1016A0007E511AF0ABFEB8491AF0B0FF1AF004FBF5
:1016B00016F0CEFF4246CDE904014B4600204FF024
:1016C00080411AF099F932463B461AF097F9DDE964
:1016D00000231AF093F9DDE904231AF08FF9064686
:1016E00050460F461AF0D6FA02460B4630463946A7
:1016F0001AF084F98CA3D3E900231AF07FF982460B
:1017000020468B4610F0DCFF0646204610F0E6FF30
:101710001AF028FF9D491BF02DF8054630461AF0B7
:1017200021FF014628461AF069FE0546204610F0C2
:10173000E3FF1AF017FF90491BF01CF829461AF036
:101740005DFE1AF0B9FA0022CDE90001904B504637
:1017500059461AF053F916F07BFF75A3D3E900231D
:1017600004460D461AF08CFD68B373A3D3E9002339
:10177000204629461AF040F971A3D3E900231AF054
:1017800019FC1AF09DFD1AF085FA002206460F4654
:10179000804B204629461AF031F932463B461AF072
:1017A0002DF9002204460D467B4B304639461AF08F
:1017B000D7FA16F04DFF02460B46204629461AF08E
:1017C0001BF904460D46204629465FA3D3E90023B2
:1017D0001AF014F95EA3D3E9002304460D461AF06B
:1017E0000BF95DA3D3E900231AF0E4FB16F030FFF8
:1017F00059A3D3E90023CDE904011AF0B1FA16F098
:1018000027FF02460B46204629461AF0F5F854A356
:10181000D3E90023804689461AF0CCFB16F018FF66
:101820004FA3D3E9002304460D461AF099FA16F0A7
:101830000FFF002206460F460023404649461AF095
:10184000DDF832463B461AF0D7F816F001FF1AF0E1
:1018500037FD00220646514B204629461AF0F2FC7D
:10186000002800F0608200224A4B204629461AF0E8
:10187000C3F816F0EDFE1AF023FD044620461AF0D8
:1018800071FE474905461BF07DF8002840F057825D
:1018900035A3D3E90023DDE904011AF0ADF816F011
:1018A000D7FE1AF00DFD0746631E012B05D804F183
:1018B0000C001AF057FE013F054638461AF052FE5A
:1018C0002E4904461AF056FF1AF0F6F916F0C0FE3B
:1018D000CDE9040120462A491AF04CFF1AF0ECF930
:1018E00016F0B6FECDE90601204626491AF08EFE16
:1018F0001AF0E2F916F0ACFECDE9080128464FF0E7
:101900007E511AF07BFD20491AF080FE1AF0D4F9BE
:1019100016F09EFE16A3D3E90023CDE90A01504636
:1019200059463FE0AFF3008000000080A2423A41F8
:10193000000000008C8A414100000040D07D3C4105
:101940000000000088D5E1400000000000D0974072
:101950000000006066865E400000000000D4764013
:1019600000000020A0993E4000000000006BB24043
:10197000000000802CB44241000061450000C842D4
:101980000000C84300A0B64301CDF44100007042FE
:101990000000E03F0000F03F0000D03F00002B407F
:1019A000000020401AF028F8002204460D46C04BE3
:1019B000DDE900011AF0FEFA02460B4620462946F0
:1019C0001AF01CF89AA3D3E9002382468B461AF03A
:1019D000F1FADDE904238046894600204FF080417A
:1019E0001AF00AF8DDE906231AF008F8DDE9082301
:1019F0001AF004F8DDE90A231AF000F8044630462C
:101A00000D461AF047F902460B462046294619F0C2
:101A1000F5FF89A3D3E9002319F0F0FF88A3D3E9E8
:101A2000002319F0E9FF88A3D3E900231AF098F9FD
:101A300087A3D3E9002319F0E1FF05E020462946FA
:101A400000229B4B19F0D8FF0022994B04460D460B
:101A50001AF00CFC0028F1D1002200232046294670
:101A60001AF0F0FB68B1204629460022904B19F08D
:101A7000C5FF0022002304460D461AF0E3FB0028B0
:101A8000F1D175A3D3E90023DDE900011AF068F96B
:101A900022462B4619F0B2FF71A3D3E90023044676
:101AA0000D46404649461AF05BF942464B461AF04D
:101AB00057F922462B4619F0A1FF05E0204629469A
:101AC00000227B4B19F098FF0022794B04460D460B
:101AD0001AF0CCFB0028F1D1002200232046294631
:101AE0001AF0B0FB68B1204629460022704B19F06D
:101AF00085FF0022002304460D461AF0A3FB0028B0
:101B0000F1D159A3D3E90023504659461AF028F9D8
:101B100002460B4656A1D1E9000119F06DFF56A30C
:101B2000D3E900231AF046FA16F01AFE54A3D3E9BB
:101B3000002306460F46504659461AF011F952A3A3
:101B4000D3E9002319F05AFF02460B4619F056FF5D
:101B500049A3D3E900231AF02DFA16F001FE4CA395
:101B6000D3E9002380468946504659461AF0F8F8D2
:101B700002460B4648A1D1E9000119F03DFF3EA302
:101B8000D3E900231AF016FA16F014FD44A3D3E9A2
:101B9000002382468B46304639461AF0E1F842A3CC
:101BA000D3E9002306460F46404649461AF0D8F8C6
:101BB00002460B463046394619F01EFF52465B4638
:101BC0001AF0CEF822462B4619F018FF05E0204601
:101BD00029460022364B19F00FFF0022344B0446F1
:101BE0000D461AF043FB0028F1D1002200232046C5
:101BF00029461AF027FB68B12046294600222C4BC3
:101C000019F0FCFE0022002304460D461AF01AFBD0
:101C10000028F1D10399274B0022D1E90C011AF0D9
:101C2000C9F902460B462046294649E0AFF3008039
:101C300000000000A0D5E14000000080A2423A412F
:101C4000000000802CB44241000000E05BD2B03FB5
:101C5000000000801CCA1A40000000E0360BF03F74
:101C6000000000605243FB3E00000060C91CAB3F17
:101C7000000000608F425F4000000020DCA54C4067
:101C8000000000E0718AEF3F00000020858771406E
:101C9000000000A0F2D79A3E0000000076703740A6
:101CA000000000A0EEE734BF00000080732AF93E78
:101CB0000000384000002E402B4B204629460022D1
:101CC00019F09AFE0022284B04460D461AF0CEFA6F
:101CD0000028F1D100220023204629461AF0B2FA4A
:101CE00068B12046294600221F4B19F087FE0022CA
:101CF000002304460D461AF0A5FA0028F1D120462B
:101D000029460022184B1AF055F913A3D3E90023F2
:101D10001AF026F81AF0D4FA72B6039B186062B66D
:101D20000FB0BDE8F08F0022104B2046294619F075
:101D300063FE16F08DFC1AF0C3FA04469EE508A374
:101D4000D3E90023DDE9040119F056FE16F080FC0A
:101D50001AF0B6FA0746A7E500000000C07A604115
:101D600000000000006CB2400000384000002A4033
:101D70002DE9F04F8DB0039013F022F8044610F0D7
:101D8000E5FC0646204610F0D3FC0546204610F040
:101D9000C1FC6B1E012B98BF06F1FF368246304610
:101DA00098BF0C351AF0DEFBD74983461AF0E2FCE7
:101DB00019F082FF16F04CFC804689465846D349FC
:101DC0001AF0D8FC19F078FF16F042FC06460F46D0
:101DD0005846CF491AF01AFC19F06EFF16F038FC7D
:101DE000CDE9000128461AF0BDFB4FF07E511AF0F4
:101DF00005FBC8491AF00AFC19F05EFF16F028FC32
:101E00004246CDE904014B4600204FF0804119F0D5
:101E1000F3FD32463B4619F0F1FDDDE9002319F0F0
:101E2000EDFDDDE9042319F0E9FD064650460F46B5
:101E300019F030FF02460B463046394619F0DEFDF8
:101E40009BA3D3E9002319F0D9FD824620468B4697
:101E500010F036FC0646204610F040FC1AF082FBDB
:101E6000AD491AF087FC054630461AF07BFB014667
:101E700028461AF0C3FA0546204610F03DFC1AF039
:101E800071FBA6491AF076FC29461AF0B7FA19F048
:101E900013FF0022CDE90001A14B5046594619F02D
:101EA000ADFD16F0D5FB84A3D3E9002304460D460F
:101EB0001AF0E6F968B382A3D3E900232046294645
:101EC00019F09AFD80A3D3E900231AF073F81AF0F1
:101ED000F7F919F0DFFE002206460F46914B204627
:101EE000294619F08BFD32463B4619F087FD00224A
:101EF00004460D468C4B3046394619F031FF16F03A
:101F0000A7FB02460B462046294619F075FD0446FC
:101F10000D46204629466EA3D3E9002319F06EFD35
:101F20006DA3D3E9002304460D4619F065FD6CA3AB
:101F3000D3E900231AF03EF816F08AFB68A3D3E930
:101F40000023CDE9040119F00BFF16F081FB0246D6
:101F50000B462046294619F04FFD63A3D3E9002321
:101F6000804689461AF026F816F072FB5EA3D3E984
:101F7000002304460D4619F0F3FE16F069FB00221B
:101F800006460F4600234046494619F037FD3246C3
:101F90003B4619F031FD16F05BFB1AF091F9002277
:101FA0008046624B204629461AF04CF9002800F082
:101FB000208200225B4B2046294619F01DFD16F0B9
:101FC00047FB1AF07DF9044620461AF0CBFA58492F
:101FD00005461AF0D7FC002840F0178244A3D3E945
:101FE0000023DDE9040119F007FD16F031FB1AF0BA
:101FF00067F90646631E012B05D804F10C001AF0A0
:10200000B1FA013E054630461AF0ACFA3E490446A4
:102010001AF0B0FB19F050FE16F01AFBCDE90401DE
:1020200020463A491AF0A6FB19F046FE16F010FBBE
:10203000CDE90601204636491AF0E8FA19F03CFECF
:1020400016F006FBCDE9080128464FF07E511AF044
:10205000D5F930491AF0DAFA19F02EFE16F0F8FA2E
:1020600025A3D3E90023CDE90A015046594619F0CA
:10207000C3FC002204460D462E4BDDE9000119F099
:1020800099FF02460B462046294619F0B7FC1CA3CF
:10209000D3E9002382468B4619F08CFFDDE9042347
:1020A00006460F4600204FF0804145E0AFF3008028
:1020B00000000080A2423A41000000008C8A4141A9
:1020C00000000040D07D3C410000000088D5E14088
:1020D0000000000000D097400000006066865E406F
:1020E0000000000000D4764000000020A0993E408F
:1020F00000000000006BB240000000802CB44241A0
:1021000000000000A0D5E1400000C8420000C84324
:1021100000A0B64301CDF4410000704200006145CB
:102120000000E03F0000F03F0000D03F00002B40E7
:10213000000020400000384019F05EFCDDE9062375
:1021400019F05CFCDDE9082319F058FCDDE90A23ED
:1021500019F054FC044640460D4619F09BFD02461A
:102160000B462046294619F049FCAFA3D3E90023CA
:1021700019F044FCAEA3D3E9002319F03DFCAEA353
:10218000D3E9002319F0ECFDADA3D3E9002319F046
:1021900035FC05E0204629460022C54B19F02CFCF1
:1021A0000022C34B04460D461AF060F80028F1D116
:1021B00000220023204629461AF044F868B1204640
:1021C00029460022BA4B19F019FC002200230446CC
:1021D0000D461AF037F80028F1D19BA3D3E900236C
:1021E000DDE9000119F0BCFD22462B4619F006FC82
:1021F00097A3D3E9002304460D463046394619F02B
:10220000AFFD32463B4619F0ABFD22462B4619F096
:10221000F5FB05E0204629460022A54B19F0ECFB12
:102220000022A34B04460D461AF020F80028F1D1F5
:1022300000220023204629461AF004F868B12046FF
:10224000294600229A4B19F0D9FB002200230446AC
:102250000D4619F0F7FF0028F1D17FA3D3E9002341
:102260005046594619F07CFD02460B467CA1D1E947
:10227000000119F0C1FB7CA3D3E9002319F09AFEF9
:1022800016F06EFA7AA3D3E9002306460F465046AD
:10229000594619F065FD78A3D3E9002319F0AEFB88
:1022A00002460B4619F0AAFB6FA3D3E9002319F0ED
:1022B00081FE16F055FA72A3D3E9002380468946C1
:1022C0005046594619F04CFD02460B466EA1D1E925
:1022D000000119F091FB64A3D3E9002319F06AFE11
:1022E00016F068F96AA3D3E9002382468B4630468C
:1022F000394619F035FD68A3D3E9002306460F4699
:102300004046494619F02CFD02460B4630463946F8
:1023100019F072FB52465B4619F022FD22462B460D
:1023200019F06CFB05E0204629460022604B19F0AD
:1023300063FB00225E4B04460D4619F097FF002810
:10234000F1D1002200232046294619F07BFF68B115
:10235000204629460022564B19F050FB002200234C
:1023600004460D4619F06EFF0028F1D10399514B38
:102370000022D1E90C0119F01DFE02460B46204651
:10238000294603E04A4B20462946002219F034FB37
:102390000022474B04460D4619F068FF0028F1D192
:1023A000002200232046294619F04CFF68B1204640
:1023B000294600223E4B19F021FB0022002304464F
:1023C0000D4619F03FFF0028F1D120462946002292
:1023D000374B19F0EFFD32A3D3E9002319F0C0FC0D
:1023E00019F06EFF72B6039B186062B60DB0BDE8BF
:1023F000F08F0022304B2046294619F0FDFA16F0E6
:1024000027F919F05DFF0446DEE527A3D3E9002391
:10241000DDE9040119F0F0FA16F01AF919F050FF8D
:102420000646E7E5AFF3008000000080A2423A4193
:10243000000000802CB44241000000E05BD2B03FBD
:10244000000000801CCA1A40000000E0360BF03F7C
:10245000000000605243FB3E00000060C91CAB3F1F
:10246000000000608F425F4000000020DCA54C406F
:10247000000000E0718AEF3F000000208587714076
:10248000000000A0F2D79A3E0000000076703740AE
:10249000000000A0EEE734BF00000080732AF93E80
:1024A00000000000C07A604100000000006CB240F3
:1024B0000000384000002E4000002A4070B505683A
:1024C000044628460E4612F08FF9864203D0314664
:1024D000284612F0A3F9204670BD00BFFFFFFFFFA2
:1024E000032900D970472DE9F04301EB410505EBC5
:1024F000C50505F10A0487B001700646204612F0B2
:1025000073F98DF80C0005F10B0012F06DF98DF8E0
:102510000D0005F10C0012F067F98DF80E0005F1C1
:102520000D0012F061F98DF80F00039819F0C4FB4B
:102530000022874B8046894619F084FE40B900226C
:10254000844B4046494619F09BFE002800F0CA80A3
:1025500006A9002341F8143D002200232046C6E9C5
:102560000223FEF73FFA78A3D3E90023D6E902015C
:1025700019F020FD8046894616F01CF8C6E90C01CA
:102580004046494616F0ECF8C6E90E0105F10E008A
:1025900012F02AF98DF80C0005F10F0012F024F961
:1025A0008DF80D0005F1100012F01EF98DF80E00E7
:1025B00005F1110012F018F98DF80F00039819F0C9
:1025C0007BFB0022644B8046894619F045FE38B9F2
:1025D0000022624B4046494619F048FE00287ED052
:1025E00006A90023307841F8103D1B270E24002255
:1025F000002307FB0040C6E90423FEF7F3F905F1C9
:10260000120012F0F1F88DF80C0005F1130012F031
:10261000EBF88DF80D00BDF80C2002F1C8039BB259
:1026200042F208018B4260D8328305F1140012F0A7
:10263000DBF819F093FF4A491AF09CF8494919F060
:10264000DBFE4949F06204461AF07EF9002835D1D4
:1026500005F1150406F11A08243506F1190720467C
:1026600012F0C2F8013407F8010F18B3A542F6D1F1
:1026700032783E4903A81AF0C5FF03A81BF0E0F921
:10268000421C0F2A05463AD92FA3D3E90023D6E9E5
:10269000020119F08FFC04460D4615F08BFFC6E9C8
:1026A0000C012046294616F05BF8C6E90E0107B07A
:1026B000BDE8F083B37E002BDAD0E5E72046294958
:1026C0001AF060F90028C3D032780023F3621B208F
:1026D000142300FB0230782112F0A0F8B8E7C6E915
:1026E00004898CE7C6E9028950E732781223002179
:1026F0001B2000FB02303183FEF758F995E703A950
:10270000404611F057FF96F8009009EB490909EB94
:10271000C90909F1150900240EE012F065F818F84E
:10272000045085422946384601D012F077F84046D9
:102730001BF086F90134054609EB0407A54238462B
:10274000EBDAA1E7AFF3008000000020DCA54C40ED
:10275000008056C000805640008076C000807640E1
:102760000000204100004041000040C11C2E02003A
:102770002DE9F04F044687B000264FF000084FF0D7
:102780000009F1B26C4B21701A78C820702300FB4D
:10279000023012F043F8257805EB450505EBC50539
:1027A00005F10A0AC4E90289504612F01DF818B171
:1027B0005046002112F032F805F10B0A504612F093
:1027C00013F818B15046002112F028F805F10C0A50
:1027D000504612F009F818B15046002112F01EF8C8
:1027E0000D35284612F000F818B12846002112F0E5
:1027F00015F84FA3D3E90023D4E9020119F0DAFB5D
:1028000082468B4615F0D6FEC4E90C015046594667
:1028100015F0A6FF257805EB450505EBC50505F187
:102820000E0AC4E90E01C4E90489504611F0DCFF28
:1028300018B15046002111F0F1FF05F10F0A504682
:1028400011F0D2FF18B15046002111F0E7FF05F159
:10285000100A504611F0C8FF18B15046002111F07F
:10286000DDFF1135284611F0BFFF18B128460021C1
:1028700011F0D4FF207800EB400000EBC00505F11B
:10288000120A4FF0000B5046A4F818B011F0ACFF3C
:1028900018B15946504611F0C1FF1335284611F0C2
:1028A000A3FF18B12846002111F0B8FF20780023BB
:1028B000E3621B25142305FB0030782111F0AEFFE5
:1028C00032461E4903A81AF09DFE03A81BF0B8F873
:1028D000421C0F2A06D90136022E7FF452AF07B0F0
:1028E000BDE8F08F04F11A0B019003A9584611F0CE
:1028F00061FE94F800A0152215FB0A230093002521
:10290000019B0EE011F070FF1BF805A082455146B7
:10291000384601D011F082FF58461BF091F801357E
:102920000346009AAB4202EB05073846EADAD2E7E3
:1029300000000020DCA54C408095FF1F1C2E0200EB
:1029400038B5437805780BB145F0020583780BB1B3
:1029500045F00405084B1C787122C82313FB04249E
:10296000204611F041FF854205D029462046BDE8AA
:10297000384011F053BF38BD8095FF1FFFFFFFFFA8
:102980000378013BDAB2032A10B504460CD8244878
:1029900050F82220914228BF11460846032B38D810
:1029A000DFE803F0221304280020F7E719F062F9AA
:1029B00019A3D3E9002319F0FDFA19F0A9FC81B29B
:1029C000E068BDE8104011F02BB819F053F912A3DC
:1029D000D3E9002319F0EEFA19F09AFC81B2A0684D
:1029E000BDE8104011F046BC01466068BDE81040EB
:1029F00010F02AB819F03EF907A3D3E9002319F023
:102A0000D9FA19F085FC81B22069BDE8104011F0B7
:102A100011B910BDAFF30080CD3B7F669EA0F63F9D
:102A20000C2E020010B50446084619F033F90B4687
:102A300002464FF08041002015F0B6FF19F040FC2F
:102A40002378013B032B1BD8DFE803F00E080214A8
:102A500081B2E068BDE8104011F066BC81B2A068A8
:102A6000BDE8104011F060BC01466068BDE8104050
:102A700010F080B981B22069BDE8104011F01EB994
:102A800010BD00BF10B4036841681A780C78417A11
:102A9000037A0C4202EA03021AD0837A03F003039A
:102AA0000AB143F0040343F008039A10013B827219
:102AB0000D2B0BD8DFE803F01E0719070A141E1EA2
:102AC000140A0719071EC368013BC36010BC704796
:102AD000837A03F00303002AE7D043F00403E4E71A
:102AE000C36810BC023BC3607047C36810BC0233AC
:102AF000C3607047C36810BC0133C360704700BF38
:102B000038B5C369002B4BD01A7C012A11D972B693
:102B1000DA68044662B6104619F0BCF8D4E900231E
:102B200019F048FA627A03460AB101F100411846E9
:102B300038BD72B693E81400117825785C7A1A7A59
:102B4000254201EA02012ED09A7A02F0030209B16D
:102B500042F0040242F008029110013A99720D2AE3
:102B6000D6D801A151F822F0CF2B0000C72B0000CE
:102B7000BF2B0000C72B0000112B0000B72B00005B
:102B8000CF2B0000CF2B0000B72B0000112B000033
:102B9000C72B0000BF2B0000C72B0000CF2B00006D
:102BA0001946184638BD9A7A02F003020029D3D09C
:102BB00042F00402D0E7DA68023ADA60A9E7DA689C
:102BC0000232DA60A5E7DA68013ADA60A1E7DA688A
:102BD0000132DA609DE700BF08B512F043FC13F044
:102BE0007DF813F061FD4FF47A7012F0B9FA14F029
:102BF00065F800BF10B572B6094CD4E9060119F0AA
:102C00005FFB2369C01A206262B672B6054CD4E934
:102C1000060119F055FB2369C01A206262B610BD87
:102C2000D094FF1F6893FF1F70B50E4D0E4C0F4ED2
:102C3000D5E91801D4E91823C5E91601C4E916231A
:102C4000D6E90A01D5E9162319F08AF8084EC5E934
:102C50000C01D4E91623D6E90A0119F081F8C4E978
:102C60000C0170BDD094FF1F6893FF1FC096FF1F1B
:102C7000909AFF1FFFFFFFFF2DE9F843264B24A189
:102C8000D1E90001D3E9002319F094F9234B06465A
:102C90000F46D3E900231EA1D1E9000119F08AF9FA
:102CA00004460D4672B61E491E4B0022D1E90001B2
:102CB00019F056F81C4BD3E904238046894619F0D5
:102CC0004FF802460B463046394619F073F9324642
:102CD0003B4619F045F8154A154BC2E90201D3E904
:102CE00004234046494619F03BF802460B4620466D
:102CF000294619F05FF92B46224619F031F80D4BA1
:102D0000C3E9020162B6BDE8F88300BFAFF30080FB
:102D10000000000080842E413887FF1F4087FF1F7E
:102D20003087FF1F00001040C096FF1FD094FF1F88
:102D3000909AFF1F6893FF1F0028F8B53BDB04281B
:102D40003DDD4FF0040E70461E4B1F4DDFF880C076
:102D500003EBC004D4E90067D5E9022330463946C5
:102D60008CF800E019F064FAA8B1184C32463B46E2
:102D7000D4E9020119F05CFA60B9C4E9026772B6DD
:102D8000216AD4E90223D1E9000118F0E9FFC4E97E
:102D9000060162B6F8BDC5E9026772B6296AD5E9CF
:102DA0000223D1E9000118F0DBFFC5E9060162B694
:102DB000D4E90067D9E74FF0000E7046C4E75FFA28
:102DC00080FEC1E78087FF1F5894FF1F8094FF1F7C
:102DD000D087FF1F032A2DE9F84302D0364B1B781A
:102DE00033BB364B364C374D1B7824782E78B3FAEC
:102DF00083F35B09E4B216BBA3421ED9D0E9028972
:102E00000E4604461746002300224046494619F064
:102E10000FFAC8B1237CBBB172B6237C022B41D020
:102E2000237CFE2B04BFFF23237462B6BDE8F88326
:102E3000234A244B12781A788ABBBDE8F8832E788F
:102E4000B242D9D0BDE8F883227C237CABB1B6EB8B
:102E5000D21F12D04046494600224FF0804319F05D
:102E60000FFA50B1237C022B02D0237CFE2BE4D13D
:102E70002046BDE8F843FDF791BC022F18D0124B55
:102E80001878FFF759FF2F707EB1FE2323740F4A85
:102E900000214FF0FF3311702360BDE8F8831B78E9
:102EA000BDE8F88301232374BAE702232374EEE715
:102EB0000020FFF741FFE6E7B894FF1F1897FF1FB8
:102EC0005095FF1FEE93FF1FD087FF1FD887FF1F6E
:102ED0002DE9F04F684B87B0D3E9082382468B4633
:102EE00063A1D1E9000119F065F8644BCDE9000157
:102EF000D3E908235EA1D1E9000119F05BF852463D
:102F0000CDE902015B46DDE9000119F053F800222A
:102F10005B4B06460F4619F0A9F908B9584F002631
:102F2000DFF8709152465B46DDE90201C9E90067AE
:102F300019F040F80022524B04460D4619F096F95C
:102F400008B94F4D0024DFF8508132463B46DDE999
:102F50000001C8E9004519F02DF822462B46064627
:102F60000F46DDE9020119F025F804460D46024638
:102F70000B463046394619F065F908B134463D46EE
:102F800022462B465046594618F036FD07460E4657
:102F9000384631460022002319F072F9002863D028
:102FA0003846314600224FF0804319F069F9002875
:102FB00035D122462B46DDE9000118F0FBFF224601
:102FC0002B46C9E90001DDE9020118F0F3FF2D4E9F
:102FD000C8E90001D6E9062320462946C6E9084586
:102FE00019F03AF990B100222046274B294618F0F3
:102FF000B7FE264BC6E906011C7819F089F9C822EC
:103000007D23C1B202FB043011F008FC204B18787C
:10301000FFF792FE07B0BDE8F04FFFF72DBE1B4B48
:103020001E78294606EB8606204619F049F906EB7C
:1030300086063601E23601463046CFB2059111F0E0
:10304000D3FB874203D03946304611F0E7FB013607
:10305000304611F0C9FB9DF815708742A9D039465A
:10306000304611F0DBFBA4E706F1004698E700BF0D
:103070000000000080842E41C096FF1F909AFF1F21
:10308000000028408087FF1F0000E03F8095FF1F61
:10309000D087FF1F3887FF1F4087FF1F10B50E4BDB
:1030A0001C7804EB840404EB8404E40082B004F193
:1030B0007E0011F099FB8DF8060004F17F0011F0FD
:1030C00093FB8DF80700BDF8060018F0E3FD02B091
:1030D000BDE81040FFF7FCBE8095FF1F2DE9F047CB
:1030E000604B1B788AB053B95F4B5B783F2B00F085
:1030F0009E805E4E302333800AB0BDE8F087002307
:103100003A22049303930593069307930893ADF82B
:103110002430029213F00CF801E013F041F813F0A0
:103120002BF80028F9DC02AD28461AF089FC4E4C39
:10313000284421461AF08CFA02224D49471B11F00F
:1031400039FA6378213B5D2B6DD8DFE803F02F6CF3
:103150006C2F6C6C6C6C6C6C2F6C2F6C6C6969696F
:103160006969696969696C6C6C6C6C6C3B6C6C6CE2
:10317000696C6C6C2F6C696C6C6C3B6C692F2F6C80
:103180002F6C6C3B696C6C6C6C6C6C6C6C6C6C6CF0
:10319000696C6C6C2F6C696C6C6C696C696C6C69BB
:1031A0002F6C6C6C6C3B6C6C6C6C6C3B791C2846AB
:1031B00012F02EFF12F0BCFF2C4B00221A700AB046
:1031C000BDE8F0874FF000092A4C284E791C2846AC
:1031D00012F01EFF12F0ACFF236800930027009D41
:1031E000B046BA4623680193019B5B1B272B81D80D
:1031F00012F0C2FF0028F5DD12F0D2FFC0B2232882
:103200001ED00137322F88F800003FF473AF08F862
:1032100001AFB9F1000FE5D031283FF46DAF69E798
:103220004FF00109D0E7114B30221A8064E7124BAE
:103230000E4A1B6813801B0C93700AB0BDE8F08720
:10324000B9F1000F08D0312F88F800003FF452AFD9
:10325000002388F801304DE7F319F05583F8019009
:103260004AE700BF4893FF1F8495FF1FF49AFF1F92
:10327000282E02000C9CFF1F242E020030B50446AD
:1032800083B0D0E900010EF04BFA0E4B0E4D1B78C7
:1032900000930122C4E900010023214628460DF0D5
:1032A000D7FA50B128461AF0CBFB0849022228442D
:1032B00003B0BDE8304011F07DB903B0BDE8304047
:1032C000FDF778BA4987FF1FF49AFF1F282E0200E6
:1032D00010B50E4B0E4C1B7882B001460093204671
:1032E000012300220DF0B4FA50B120461AF0A8FBD9
:1032F00008490222204402B0BDE8104011F05AB93A
:1033000002B0BDE81040FDF755BA00BF4987FF1F66
:10331000F49AFF1F282E020010B50B4B0B4C1A78A5
:10332000014620460DF038F948B120461AF088FBD6
:10333000022220440649BDE8104011F03BB9BDE827
:103340001040FDF737BA00BF4987FF1FF49AFF1FEF
:10335000282E0200124B93F84820D2B110B4114825
:103360005C6D026883B041F287310092009A121BB3
:103370008A4210D893F838206AB102680192586CDA
:10338000019B1B1A8B428CBF0020012003B010BC94
:10339000704700207047002003B010BC704700BF8A
:1033A000B095FF1F0C9CFF1F114B1A78D2B110B4BF
:1033B00010485C6B026883B041F287310092009A3A
:1033C000121B8A4210D893F878206AB102680192E1
:1033D000D86F019B1B1A8B428CBF0020012003B0C9
:1033E00010BC704700207047002003B010BC70472D
:1033F000B095FF1F0C9CFF1F10B5FFF7ABFF0446F5
:10340000FFF7D2FF2040C0B210BD00BF2DE9F04F42
:103410002D4E2E4D336829688DB041F288320193CC
:10342000019B5B1A934204D8294B18780DB0BDE874
:10343000F08F284C94E80F0004AF103487E80F0099
:1034400094E80F0008AC84E80F0038460EF0EEFF59
:10345000804638460EF0FAFF834638460FF00AF8E9
:10346000824620460FF012F8814620460FF01AF8E7
:10347000074620460FF02CF80CAB08F14E0803F875
:10348000280D18468DF80DB08DF80E808DF80CA023
:103490008DF80A908DF809700FF068F9044611F064
:1034A0008FFC041B33680293002CB8BF64420A49A6
:1034B000074A029B0861042CCCBF00200120107039
:1034C0002B600DB0BDE8F08F0C9CFF1FA495FF1F73
:1034D000A49BFF1FE895FF1F8896FF1F2DE9F0476B
:1034E000B1F1000A3EDD044600EBCA058046002625
:1034F0000027F8E802233046394618F07FFAA8453D
:1035000006460F46F5D1504618F0C4FB02460B465E
:103510003046394618F04EFD002680468946002781
:1035200042464B46F4E8020118F066FA02460B46A2
:1035300018F016FC02460B463046394618F05EFA83
:10354000A54206460F46EBD10AF1FF3018F0A2FB68
:1035500002460B463046394618F02CFDBDE8F047D0
:1035600015F09ABB00260027EEE700BFFFFFFFFF24
:103570002DE9F04FA64BDFF8C4A21B68DAF8001063
:1035800099B041F288320893089B5B1A934204D8A1
:10359000A04B187819B0BDE8F08F9F4B9F49D3F826
:1035A0008020D1F800B000929E46BEE80F000DF1D9
:1035B000280CACE80F00BEE80F00ACE80F00BEE836
:1035C0000F00ACE80F009EE80300954E954D964C19
:1035D000964F0AAB8CE803001846D6E904890EF032
:1035E00009FF02460B464046494618F007FA0EF01E
:1035F00033F821F00043194681A3D3E9002318F0E2
:10360000AFFB05EBCB0B0AABCBE900011846834BB4
:10361000D6E90289D3F800B00EF0D0FE02460B4680
:103620004046494618F0E8F921F00043194676A3D0
:10363000D3E9002318F094FB04EBCB0B774BCBE9D9
:103640000001B6F91800D3F800B018F023FB80464B
:103650000098894618F086FF754919F08BF818F024
:103660002BFB02460B464046494618F0C5F94FEA87
:10367000CB0807EB080321F0004247F83B00032189
:1036800028465A60FFF72AFFCDE9000120460321B2
:10369000FFF724FFCDE9020138460321FFF71EFFA3
:1036A0004544D5E90056CDE904010022614BDDE92E
:1036B0000001CDE9065618F053FB00224FF080437D
:1036C00005460E4618F0D2FD002800F092803346E1
:1036D0002A46DDE9060118F0B5FD4FF00106002885
:1036E00000F085804444D4E900450022514BDDE9D7
:1036F0000201CDE9064518F033FB00224FF080436C
:1037000004460D46F6B218F0B1FD00286BD02246F3
:103710002B46DDE9060118F095FD4FF00104002865
:103720005FD0B844D8E900780022424BDDE90401BB
:10373000CDE9067818F014FB00223F4B80468946FD
:10374000E4B218F093FD002846D0DDE90001002224
:103750004FF0804318F076FD4FF00107002839D074
:10376000DDE9020100224FF0804318F06BFD4FF0BD
:10377000010568B3304BDDE90401002218F062FD59
:103780003D404FF0010308B32B401E404046DDE9A9
:103790000623494618F074FD34404FF0010398B1F8
:1037A0001C4A04EA03000BF101031070032B1B4AAF
:1037B00008BF00231360164B1B680993099BCAF8C6
:1037C000003019B0BDE8F08F0346E9E70346DBE7B8
:1037D0000546CFE70746C3E74FF00008DFF85890EB
:1037E000B3E704469DE700244FF080458FE7064687
:1037F00078E700254FF0804669E700BFAFF300800F
:10380000000000000020AC40000000000098AC4028
:103810000C9CFF1FA095FF1FB095FF1F7C95FF1FFD
:10382000A89BFF1F709BFF1FD89AFF1F2094FF1FAC
:103830000000C8420000144000003440E093FF1F25
:1038400010B51C4B5B782B2B02D02D2B00D010BD5C
:10385000194C2068FF2811DDFF202D2B206013D08C
:103860002B2B1ED01E28DCBF1F2020600146062007
:1038700011F03CFB114B00221A7010BD1E28DCBF5A
:103880001F2020602D2BEBD118F06CFE0C4918F096
:1038900071FF19F097F82060FF28E3DDFF2020601A
:1038A000E4E718F05FFE064918F0B0FE19F08AF858
:1038B0002060F1E78495FF1FD487FF1FF49AFF1F54
:1038C0003333B33F0D4B5B78ABB90D4A127810B56B
:1038D00002F0FF010B4C52B921700A481AF0B0F8FF
:1038E000022220440849BDE8104010F063BE7F2248
:1038F00063702270F1E7FCF75DBF00BF8495FF1F86
:103900005095FF1FF49AFF1F282E02001C4B587879
:10391000303823282FD8DFE800F013131313132EA9
:103920002E2E2E2E2E2E2E2E2E2E2E2E2E122E2ED3
:103930002E222E2E2E2E2E1C2E2E2E2E2E28012006
:10394000104B1B7823B9104B1B780BB9FFF7F4B958
:1039500070470C4B1B780220002BF9D1F3E7094B81
:103960001B780020002BF3D1EDE7064B1B780320DA
:10397000002BEDD1E7E7054B30221A80704700BFDE
:103980008495FF1F5095FF1FEE93FF1FF49AFF1FB2
:103990002DE9F041164F1749C0EB00131F440246B2
:1039A000384619F02FFE38461AF04AF80E281CDC6B
:1039B000114A92F80080F121C822034612FB081830
:1039C00000240DE010F010FF3E5D8642314628468F
:1039D00001D010F023FF38461AF032F801340346C4
:1039E00008EB0405A3422846ECDABDE8F08100BFED
:1039F000289AFF1F2C2E02008095FF1FFFFFFFFF5C
:103A00002DE9F04FB24DB34EB34C93B000234FF0BD
:103A100000080593049303930293019300931A46BD
:103A20001946814686F8008028460DF09FFA2378D3
:103A300085F8218103EB830303EB83034FEAC30A79
:103A40000AF5947B584610F0CFFE012800F09580CF
:103A5000A24B1B78033B012B40F20F81A04CA14DE0
:103A6000D4E90C01D4E90E232D78CDE90C01CDE980
:103A70000E23002D3FD0E568A6689B4B30462946B3
:103A8000002218F0FDFB002835D0304629460022E0
:103A9000002318F0F5FB002800F0EC8032462B469E
:103AA00012AF67E90223904B0022CDE9002338468C
:103AB00000228E4B0DF0D6FE00220023D4E9020135
:103AC00018F0C0FB002840F0D080109A119B1046DF
:103AD00019467BA3D3E9002318F06CFA04460D467F
:103AE00014F068FDCDE90C012046294614F038FE9B
:103AF000CDE90E0100E010AFDFF8FC917C490197A1
:103B00004FF000080EAE0CAD0AAC42464B4600200A
:103B10000396029500940DF0AFFFDDE91023DDE977
:103B20000A01CDE90423CDE902010022704B684867
:103B3000CDE900890DF0F8FA42464B4662A1D1E981
:103B40000001039602958DE890000DF095FFDDE9E8
:103B50001023DDE90A01CDE90423CDE90201CDE915
:103B600000895B4858A3D3E900230DF0DDFA5848DB
:103B70000DF028FB13B0BDE8F08FB9F1000F6FD145
:103B8000074610A90AF58270FCF788FC2078DDF85A
:103B900040904FF0C8084FF4847308FB003010A920
:103BA000FCF77CFC109B207807934FF4867308FB8E
:103BB000003010A9FCF772FC2078109906914FF4A0
:103BC000887308FB003010A9FCF768FC2078DDF84A
:103BD00040A04FF48A7308FB003010A9FCF75EFC8C
:103BE0002078DDF840B04FF48C7308FB003010A94A
:103BF000FCF754FC2078109B09934FF48E7208FB5D
:103C0000002010A9FCF74AFC2078109A08924FF483
:103C1000907108FB001010A9FCF740FC94F800E03C
:103C2000109C4FF4927008FB0E0010A9FCF736FCB4
:103C30001098089A099B03920293079A069B059095
:103C4000494628460494CDF804B0CDF800A00DF004
:103C50008DF928460DF0C2F9377013B0BDE8F08F2A
:103C60004146584610F0DAFDF2E6119B109A03F136
:103C700000432CE705F1004510E71E4F14480024CF
:103C80000025002622462B46CDE90445CDE9004516
:103C9000CDE902670DF048FA15490020CDE904018D
:103CA000CDE90001CDE9026722462B4608480DF018
:103CB0003BFA07480DF086FA5CE700BFAFF30080DF
:103CC00000000020DCA54C400000000000E0704037
:103CD000A897FF1FCE94FF1F8095FF1FB887FF1F77
:103CE000A89BFF1F4093FF1F0000244000908F40BF
:103CF00000805640008066400080464038B51F4B2B
:103D00001B78DA1E012A22D91D4A012BD2E902456D
:103D10001C4B14BF0021596B196000220023204660
:103D2000294618F08FFA184B5A6B20BB1A602046B0
:103D300029460023002218F0A3FA4FF0010300B92E
:103D4000034683F00103114ADBB2137038BD0C4BFC
:103D5000D3E90245002200232046294618F072FAD2
:103D6000084B30B9084A1860536B13602046294647
:103D7000DFE7186BF6E75242D8E700BFB887FF1FAE
:103D8000A89BFF1FC096FF1F909AFF1FAC95FF1FB7
:103D90002DE9F8435D4F5E4E3C7804EB840404EB60
:103DA0008404E40004F1D008404610F01DFD96F8AC
:103DB0002450013DEDB2032D98BF564B00B200EBED
:103DC000800000EB800098BF53F825304FEA800058
:103DD00088BF00239842F06100F28580C72840F236
:103DE000828004F1D1094FF00008484686F820800F
:103DF00010F0FAFC032D98BF464B00B200EB800098
:103E000000EB800098BF53F825304FEA800088BF50
:103E100043469842706158D8C72856D94FF00008D9
:103E200086F8188004F1DE093B4E484610F0DCFCB1
:103E300096F82450013DEDB2032D98BF354B00B2EA
:103E400000EB800000EB800098BF53F825304FEA6C
:103E5000800088BF43469842F06124D8C72822D901
:103E6000DF340027204686F8207010F0BDFC032DBB
:103E700098BF284B00B200EB800000EB800098BF99
:103E800053F825708000B842706101D8C72806D861
:103E90004FF47A7320460A21736110F0BFFC0023AF
:103EA0003376BDE8F8834FF47A7348460A21F3610C
:103EB00010F0B4FC3C7896F8245004EB840404EB36
:103EC0008404013DE400EDB2CAE74FF47A7348463A
:103ED0000A21736110F0A2FC3C7804EB840404EB2B
:103EE0008404E4009AE74FF47A7340460A21F361B0
:103EF00010F094FC3C7896F8245004EB840404EB16
:103F00008404013DE400EDB26BE700BF8095FF1F24
:103F10003897FF1F0C2E02007097FF1F2DE9F0410C
:103F2000674F684D3C7804EB840404EB8404E400A0
:103F300082B004F1D20010F057FC8DF8060004F1B5
:103F4000D30010F051FC604B8DF80700BDF806203F
:103F50001A60002604F1E000DE6010F045FC8DF8E8
:103F6000060004F1E10010F03FFC584B8DF807000B
:103F7000BDF806201A6004F1C800DE6010F034FCC1
:103F80008DF8060004F1C90010F02EFC8DF8070032
:103F9000BDF806302B6004F1CC002E7110F024FC2B
:103FA0008DF8060004F1CD0010F01EFC04F1CE08DF
:103FB0008DF80700BDF80630AB6040462E7310F058
:103FC00013FC431EDBB2072B68D86873002604F18C
:103FD000CF00AE7310F008FC831B18BF012304F15F
:103FE000D400EB732E7410F0FFFB831B18BF01236A
:103FF00004F1D6006B74AE7410F0F6FB8DF8060079
:1040000004F1D70010F0F0FB314D8DF80700BDF83A
:1040100006302B6004F1DA002E7110F0E5FB8DF80C
:10402000060004F1DB0010F0DFFB04F1DC088DF882
:104030000700BDF80630AB6040462E7310F0D4FB8D
:10404000431EDBB2072B17D86873002604F1DD008E
:10405000AE7310F0C9FB831B18BF012304F1E2000B
:10406000EB732E7410F0C0FB801B18BF0120687426
:10407000AE7402B0BDE8F081042640466E7310F0C5
:10408000B3FBB042E1D03146404610F0C7FB3C786C
:1040900004EB840404EB8404E400D6E704264046E1
:1040A0006E7310F0A1FBB04290D03146404610F044
:1040B000B5FB3C7804EB840404EB8404E40085E75E
:1040C0008095FF1F3897FF1F409BFF1F589BFF1FC6
:1040D0007097FF1F70B5734C257805EB850505EBD0
:1040E0008505ED0005F1D206304610F07DFB18B1D4
:1040F0003046002110F092FBD335284610F074FBB7
:1041000018B12846002110F089FB257805EB8505BC
:1041100005EB8505ED0005F1C806304610F064FB9F
:10412000082803D03046082110F078FBC93528460E
:1041300010F05AFB072803D02846072110F06EFB29
:10414000257805EB850505EB8505ED0005F1CC0629
:10415000304610F049FBC82803D03046C82110F083
:104160005DFBCD35284610F03FFB18B128460021F5
:1041700010F054FB2078C825CE2305FB0030042125
:1041800010F04CFB2078CF2305FB0030002110F00D
:1041900045FB2078D12305FB00300A2110F03EFBBF
:1041A0002078D02305FB00300A2110F037FB20785F
:1041B000D42305FB0030002110F030FB257805EBFF
:1041C000850505EB8505ED0005F1E006304610F0AC
:1041D0000BFB18B13046002110F020FBE1352846DA
:1041E00010F002FB18B12846002110F017FB2578CB
:1041F00005EB850505EB8505ED0005F1D606304696
:1042000010F0F2FA082803D03046082110F006FB1F
:10421000D735284610F0E8FA072803D028460721AA
:1042200010F0FCFA257805EB850505EB8505ED001A
:1042300005F1DA06304610F0D7FAC82803D0304628
:10424000C82110F0EBFADB35284610F0CDFA18B192
:104250002846002110F0E2FA2078C825DC2305FB6F
:104260000030042110F0DAFA2078DD2305FB00305D
:10427000002110F0D3FA2078DF2305FB00300A215B
:1042800010F0CCFA2078DE2305FB00300A2110F074
:10429000C5FA2078E22305FB00300021BDE870401C
:1042A00010F0BCBA8095FF1FF0B59C4C9C4E207856
:1042B00085B0FFF76DFB2078C825642305FB00302F
:1042C000012110F0ABFA2078964A852305FB0030D7
:1042D00076215B236FF009071760336010F09EFAB8
:1042E00020783178862305FB003010F097FA20788B
:1042F000982305FB0030002110F090FA20789923D4
:1043000005FB0030002110F089FA20789A2305FB84
:1043100000302D2110F082FA257805EB850505EB9C
:104320008505ED0005F18806304610F05DFA10288D
:1043300003D03046102110F071FA8935284610F06C
:1043400053FA0E2803D028460E2110F067FA25787C
:1043500005EB850505EB8505ED0005F18A06304680
:1043600010F042FA102803D03046102110F056FA0F
:104370008B35284610F038FA0E2803D028460E2137
:1043800010F04CFA257805EB850505EB8505ED0069
:1043900005F18C06304610F027FA102803D030467D
:1043A000102110F03BFA8D35284610F01DFA0E282A
:1043B00003D028460E2110F031FA257805EB85054B
:1043C00005EB8505ED0005F18E06304610F00CFA80
:1043D000102803D03046102110F020FA8F352846DF
:1043E00010F002FA0E2803D028460E2110F016FA1B
:1043F0002078C8256F2305FB0030002110F00EFA4D
:1044000020789C2305FB0030002110F007FA20786B
:104410006E2305FB0030002110F000FA20787A238B
:1044200005FB0030642110F0F9F920787B2305FBAF
:104430000030042110F0F2F920787C2305FB0030D5
:10444000102110F0EBF920787D2305FB003040218E
:1044500010F0E4F9257805EB850505EB8505ED0001
:1044600005F17E06304610F0BFF9582803D03046DB
:10447000582110F0D3F97F35284610F0B5F90228FD
:1044800003D02846022110F0C9F92078C8258123DD
:1044900005FB00300A2110F0C1F904A9224B207855
:1044A00041F8043DBC2305FB0030FCF79BFA207863
:1044B0004FF4947305FB0030002110F0AFF9207821
:1044C0006D2305FB0030002110F0A8F904A9207825
:1044D0000026902305FB003041F8086DFCF782FAB6
:1044E00004A9207841F80C6D942305FB0030FCF7FB
:1044F00079FAFFF7EFFD21780C4B712215FB0125AE
:1045000028461E705E709E7010F06EF918B131462C
:10451000284610F083F905B0F0BD00BF8095FF1F5D
:10452000489AFF1F4493FF1F5979F3004093FF1FE0
:104530002DE9F04F002087B010F056F98DF80C00EF
:10454000012010F051F98DF80D00022010F04CF907
:104550008DF80E00032010F047F98DF80F00039B33
:10456000022B00F0EF80002420460021013410F0DF
:1045700055F9B4F5006FF7D1894CDFF830A200256A
:104580004FF000084FF000099AF80010EBB27022CB
:10459000C82000FB01201946237010F03FF926784F
:1045A00006EB460606EBC60606F10A073846C4E9DE
:1045B000028910F019F918B13846002110F02EF9CF
:1045C00006F10B07384610F00FF918B138460021F4
:1045D00010F024F906F10C07384610F005F918B16F
:1045E0003846002110F01AF90D36304610F0FCF86C
:1045F00018B13046002110F011F967A3D3E9002368
:10460000D4E9020117F0D6FC06460F4613F0D2FF9C
:10461000C4E90C013046394614F0A2F8267806EBBE
:10462000460606EBC60606F10E07C4E90E01C4E90C
:104630000489384610F0D8F818B13846002110F037
:10464000EDF806F10F07384610F0CEF818B13846ED
:10465000002110F0E3F806F11007384610F0C4F816
:1046600018B13846002110F0D9F81136304610F054
:10467000BBF818B13046002110F0D0F8237803EBD6
:10468000430303EBC30606F112074FF0000B384655
:10469000A4F818B010F0A8F818B15946384610F030
:1046A000BDF81336304610F09FF818B1304600219F
:1046B00010F0B4F82078DFF8E8B00023E3621B269E
:1046C000142306FB0030782110F0A8F82A4635495B
:1046D00003A818F097FF03A819F0B2F9421C0F2A9B
:1046E00033D90135022D7FF44FAF00248AF8004002
:1046F000FFF7DAFD01238AF80030FFF7D5FD2046E9
:104700008AF8004010F070F8022803D029462046AD
:1047100010F084F8012010F067F818B10021012092
:1047200010F07CF8022010F05FF818B10021022090
:1047300010F074F8032010F057F818B1002103208E
:1047400010F06CF807B0BDE8F08F5F46009003A949
:104750000BF11A000FF02EFF17F819BB152216FBEC
:104760000B2301930026009B0FE017F8011F009117
:1047700010F03AF800998142584601D010F04EF8F6
:10478000094819F05DF901360346019AB34202EB7C
:10479000060B5846E9DAA4E700000020DCA54C40EF
:1047A000A89BFF1F1C2E0200C29BFF1F8095FF1FAE
:1047B0002DE9F0475C4E5D4D347804EB840404EB46
:1047C0008404E40082B004F1F00010F00DF8584BBE
:1047D00004F1E6071870384610F006F88DF804006A
:1047E00004F1E70010F000F88DF8050004F1E8008E
:1047F0000FF0FAFF8DF8060004F1E9000FF0F4FF66
:104800008DF80700019817F0ADFE4A4917F0FEFE3B
:1048100017F052FA8046894600220023C5E9008934
:1048200017F01AFD002866D1404649463CA3D3E95B
:10483000002317F025FD00285DD1002704F1EA00D0
:104840002F720FF0D1FF04F1EB0AC31B18BF012335
:1048500050466B72AF720FF0C7FF8DF8040004F181
:10486000EC000FF0C1FF8DF8050004F1ED000FF032
:10487000BBFF8DF8060004F1EE000FF0B5FF8DF8D8
:10488000070001982C4D17F06DFE2A4917F0BEFE67
:1048900017F012FA8046894600220023C5E90089F4
:1048A00017F0DAFC38B9404649461DA3D3E9002386
:1048B00017F0E6FC88B102A940F2DC5341F8043D50
:1048C0005046FCF78FF834781C4B002204EB84042C
:1048D000C5E9002304EB8404E40004F1EF000024A4
:1048E0002C720FF081FF001B18BF01206872AC72A0
:1048F00002B0BDE8F08702A940F2DC5341F8083D60
:104900003846FCF76FF834780C4B04EB8404002233
:1049100004EB8404C5E90023E4008EE7AFF30080D4
:10492000000000000020AC408095FF1F509AFF1F40
:104930004894FF1F0AD7233C709AFF1F00002E40A7
:1049400030B585B004AC64E90423CDE90201224608
:104950009DF820000D4B099D0A9C02A90DF0B4F9A9
:104960000B49DDE90223D1E9040117F0F9F917F049
:10497000A7FC08492860DDE90023D1E9040117F00C
:10498000EFF917F09DFC206005B030BDB09BFF1F14
:10499000C096FF1F909AFF1F2DE9F04F95B0DFF8EA
:1049A0004882209C94F800E0D1E9004512AF10AE97
:1049B000A8F10809D0E9000193469A46CDF800E035
:1049C00022464FF0000E2B46CDF81080CDF80C900B
:1049D0000297019600240025CDF824E0CDF82CE0C4
:1049E000CDE90E45CDE912450DF016F8DDE91223AB
:1049F000DDE91001CDE90223CDE900010EAA0CA9E1
:104A000071480CF045FC1F9C2478009408AD0AAC5A
:104A1000DDE90E23DDE90C0102940195FFF790FF1B
:104A2000DAE90023CDE90623209B93F800E0DBE9D7
:104A30000001DDE90623CDF800E0CDF80C90CDF8BB
:104A40001080029701960CF0E7FFDDE91267DDE9BF
:104A50001089CDE902670EAA0CA9CDE900895A4850
:104A60000CF016FC1F9E3678009609AF0BAEDDE900
:104A70000E23DDE90C0102960197FFF761FF39462D
:104A800028460DF055F917F005F9504BD3E90423EA
:104A900017F090FA05E04046494600224C4B16F0CC
:104AA000ADFF00224B4B8046894617F0CBFB002818
:104AB000F1D10022484B4046494617F0D7FB68B178
:104AC000404649460022424B16F096FF0022424BD8
:104AD0008046894617F0CAFB0028F1D131462046AE
:104AE0000DF02AF917F0D6F83C4BD3E9042317F060
:104AF00061FA05E0204629460022354B16F07EFF7C
:104B00000022344B04460D4617F09CFB0028F1D1DF
:104B10000022314B2046294617F0A8FB68B12046F9
:104B2000294600222A4B16F067FF00222A4B044632
:104B30000D4617F09BFB0028F1D11E99284BD1E9B7
:104B40000001002217F00CF902460B461CA1D1E926
:104B5000000117F02FFA002206460F46214B40466F
:104B6000494617F0FDF802460B463046394617F025
:104B7000F7F8219BC3E900011E99194BD1E9000107
:104B8000002217F0EDF802460B460DA1D1E9000115
:104B900017F010FA002206460F46124B204629460F
:104BA00017F0DEF802460B463046394617F0D8F8C3
:104BB000229BC3E9000115B0BDE8F08FAFF3008080
:104BC000000000000020AC40A897FF1FC096FF1F08
:104BD00000807640008066C000806640909AFF1F8B
:104BE00000002E400000E03FE09BFF1FF0B58BB0BF
:104BF0000AAC0026002764E9026704ADCDE9022370
:104C0000CDE90001224606A99DF840701248002413
:104C100005AE05940CF03CFBDDE90823DDE9060157
:104C2000009702960195FFF78BFE72B60B4F0C4D65
:104C30000498059E38612E6117F02CF8C7E906012B
:104C4000304617F027F8C5E9060162B6054B01208A
:104C50001C700BB0F0BD00BFA897FF1FD094FF1FC2
:104C60006893FF1FD887FF1FF0B58BB00AAC0026F2
:104C7000002764E902670B4D119E6F78129D029424
:104C800006AC019400979DF84040039604950CF003
:104C9000C3FEDDE90823DDE906010094FFF7A6FF66
:104CA0000BB0F0BD4093FF1F624B1B78002B33D13C
:104CB000614B1B78002B2FD12DE9F04F5F4E73789D
:104CC000413BDBB2142B8BB037D85D4A22FA03F399
:104CD000DB0732D572B65B4C236962B65A4D6A6BFC
:104CE00051428B422CDA4FF00208584B1A7812B11D
:104CF0000021904619707378413B142B1DD8DFE8D2
:104D000003F00C1C1C1C1C1C1C1C1C1C1C1CC11C93
:104D10001C1C1C1CC11C260070474D4B4D49CDF876
:104D20000080D3E90023D1E90001FFF75FFF4A4A81
:104D30004A4B92E80300186019710BB0BDE8F08F80
:104D40009342CCBF4FF002084FF00108CDE7444B2F
:104D5000444E1C78444D04EB840404EB8404E400CA
:104D600004F172000FF040FD8DF8200004F1730093
:104D70000FF03AFD8DF8210004F174000FF034FDBE
:104D80008DF8220004F175000FF02EFD8DF8230040
:104D9000089816F091FFC6E9000104F176000FF0C3
:104DA00023FD8DF8200004F177000FF01DFD8DF834
:104DB000210004F178000FF017FD8DF8220004F1B6
:104DC00079000FF011FD8DF82300089816F074FF9C
:104DD000C5E9000172B6254B186862B6244B9842AB
:104DE00005DDA0F50300A0F556409842F9DC17F068
:104DF000B9FB204917F0BEFC1F4917F007FC16F05D
:104E00005BFF00221D4B16F0ABFFD6E9002316F026
:104E1000F3FD0CF021FCCDF80080D5E90045184BDE
:104E20000293A3F1080201922B462246FFF71CFFD2
:104E30007DE700BF1897FF1F5095FF1F8495FF1F48
:104E4000011014006893FF1F909AFF1F5195FF1FD8
:104E5000309BFF1F0897FF1F382E0200F49AFF1F98
:104E60008095FF1F5094FF1F1097FF1F8896FF1F0C
:104E700000D6830000D6034B0000C04100002E4046
:104E8000E09BFF1F684F3B78002B00F09B8072B6C1
:104E9000664B186862B6664B984205DDA0F50300C4
:104EA000A0F556409842F9DC17F05CFB6149DFF849
:104EB0009CA117F05FFC604917F0A8FB16F0FCFE00
:104EC00000225E4B16F04CFF5D4BD3E9002316F039
:104ED00093FD0CF0C1FBDFF880E15A4BDFF87CC199
:104EE000CDF810E0AEF1080ED3E900239CF801C024
:104EF000CDF80CE00DF1200ECDF808E00DF1180E04
:104F0000CDF800C0CDF804E00CF086FD9AF8203111
:104F1000BBB9DDE90601DDE9082372B6D4F810E07B
:104F200062B6D5F834C0CCF10008C64579DBE64559
:104F3000CCBF4FF0020E4FF0010ECDF800E0FFF7AE
:104F400055FE72B6DFF818B1DBF8100016F0A2FEBD
:104F50003D4BD3E9042317F02DF88046206989469C
:104F600016F098FED5E9042317F024F862B6DDE9BF
:104F70000845CDE90401DDE90623CDE90289CDE943
:104F8000004532480CF0D0F89AF821319BB1304BF3
:104F900001221A7072B6DBF8100016F07BFECBE926
:104FA00006012C4B186916F075FE2A4BC3E9060161
:104FB00062B600233B7073784D2B3FF4B8AE0BB054
:104FC000BDE8F08F72B6194B186862B6184B98425C
:104FD00005DDA0F50300A0F556409842F9DC17F076
:104FE000C1FA14491C4C17F0C5FB134917F00EFB0E
:104FF00016F062FE0022114B16F0B2FE104BD3E900
:10500000002316F0F9FC0CF027FB0E4BCDF80080C6
:10501000A4F10805D3E9002302940195FFF724FECB
:10502000C9E74FF0020E88E7CD94FF1F8896FF1F57
:1050300000D6830000D6034B0000C04100002E4084
:105040005094FF1F1097FF1FC096FF1FA897FF1FC8
:10505000CE94FF1F6893FF1FE09BFF1F4093FF1F2D
:10506000D094FF1FF0B5044685B00D4672B6114BC3
:10507000186916F00FFE104BD3E9042316F09AFFBF
:105080000E4B064618690F4616F004FE0C4BD3E98A
:10509000042316F08FFF02460B4662B60948CDE99D
:1050A0000223CDE900672A4621460CF07DF9012054
:1050B00005B0F0BDD094FF1FC096FF1F6893FF1F7F
:1050C000909AFF1FA897FF1F2DE9F04488B008AD04
:1050D0000026002765E9026704460E4604A8294613
:1050E0009A4617469DF83850FFF7BCFF1E4B5B7879
:1050F000002B2FD0DDE90623DDE904018DE8D00483
:105100000CF076FD15BB72B6184B186862B6184BDA
:10511000984205DDA0F50300A0F556409842F9DC61
:1051200017F020FA134917F025FB134917F06EFA10
:1051300016F0C2FD0022114B16F012FED4E9002336
:1051400016F05AFC0CF0BCFAC4E90001012008B0CA
:10515000BDE8F084DDE90623DDE904018DE8D00433
:105160000CF08AFCCEE700BF4093FF1F8896FF1F1C
:1051700000D6830000D6034B0000C04100002E4043
:105180002DE9F041634CA378413B94B0312B00F200
:10519000F182DFE813F04000EF02EF02A200C50049
:1051A000EF02EF02EF020F01C701EF02E101FF0181
:1051B000EF0232027102EF029B02EF02E502EF0200
:1051C000EF02EF02EF02EF02EF02EF02EF02EF0257
:1051D000EF02EF02EF02EF02EF02EF02EF02EF0247
:1051E000EF02EF02EF02EF02EF02EF02EF02EF0237
:1051F000EF02EF02EF02EF023200E378702B01F0D2
:105200002C80742B00F0C182672B01F0A780424BE9
:1052100030221A80B1E2414A1278002307930893A2
:1052200009930A930B930C930D930E931093002AFA
:1052300041F04580E278A2F130034A2B00F27987F1
:10524000DFE813F090060907FE06F306E806DD0620
:10525000D2061407C7067707770777077707770718
:10526000770777077707770777077707770777074E
:10527000770777077707770777077707770777073E
:10528000770777077707770777077707770777072E
:10529000770777077707770777077707770777071E
:1052A000770777077707A70677079A0677077707BD
:1052B00077077707770777077707770777077707FE
:1052C00077077707770777077707770777077707EE
:1052D0007707A70677077707A706E378423B152BE2
:1052E00000F21484DFE813F07C03120412041204A9
:1052F00012041204120412041204120412041204FE
:10530000120412046F031204640312041204120440
:10531000120450038495FF1FF49AFF1FCE94FF1FC1
:10532000E278A2F13103412B00F2AB86DFE813F003
:10533000B503B503A906A906A906A906A906A906E3
:10534000A906A906A906A906A906A906A906A906E5
:10535000A803A906A906D403A906A906A906A906B1
:10536000A906A906A906A906A906A9068103930309
:10537000A906D403A906A906A906A906A906A9068D
:10538000A906A803A906A906A906A906A906A906A9
:10539000A906A906A906A906A906A906A906A90695
:1053A000A906A906A906A906A906A906A906A90685
:1053B000A906880372B6994D286962B6984B5B6B53
:1053C0005A42904280F2DC810220964B202103F168
:1053D000320203F8011F9A42FBD1934C934A94493D
:1053E000944B12782778944E944C09781B783F5D43
:1053F0003678934C183201EB4202303322706370DE
:10540000A7700EB14823E3708E4B8F4A1B78127839
:105410008B4930332371002A00F0168740234B71EB
:105420008A4B1A78894B012A00F0EE861A78022AF4
:1054300000F0EA861A78032A00F0B0871B78042B64
:1054400004BF2D23A371824B1A7C022A00F04B87E4
:105450001A7CFE2A00F088871A7CFF2A00F06A87EF
:105460001B7C012B00F066877A4B02281A7C00F027
:105470004287022A00F03B871A7CFE2A00F041870F
:105480001A7CFF2A00F052871B7C012B00F04E870C
:10549000714B5B780BB96B780BB1662363726F4B02
:1054A000674D1B78DA1E3021012AA17240F2358740
:1054B0006B4A12784AB16B498978002900F06187FC
:1054C0003321A972022A00F08B87674A5C4912785F
:1054D000002A0CBF30223122012BE27200F0198722
:1054E000022B00F04587042B00F05487032B0CBFE0
:1054F000412355230B73012800F00787572363735B
:105500005A4B1B78002B40F06B864123584AA373FB
:1055100013784120303323210022E3732074617417
:10552000A2742AE1E378532B00F00887542B00F093
:105530003881502B40F02181444B1A78012A00F029
:1055400035811B78022B00F031814A4B3C4A1B68A5
:1055500013801B0C937010E1E378413B162B00F293
:105560009585DFE813F065031D030F0386037303BE
:10557000930593059403930593059305930593056C
:105580009305080393059305930593059305EA0294
:105590009305D702E378423B2B2B00F2C585DFE869
:1055A00013F07D035904C305C305C3054B04C305AC
:1055B0003804C305C30525049904C305C305C30501
:1055C000C3058B04D304C305C305C305C305C305C5
:1055D000C305C305C305C305C305C305C305C3058B
:1055E000C305C3056704C305C305C305C305C305D8
:1055F000C305C305C305C3058B03E378413B082BF3
:1056000000F2BB80DFE813F00A020402FE01B900D9
:10561000B900B900B900B900F70100BF6893FF1FD6
:10562000909AFF1FF39AFF1F1897FF1F5095FF1FB7
:10563000D098FF1F389BFF1FD887FF1F842E0200C2
:10564000F49AFF1FD087FF1F2897FF1FEE93FF1FBD
:105650005894FF1F8094FF1FD094FF1FB887FF1F2F
:105660008195FF1F4093FF1FCE94FF1FB987FF1F37
:10567000B894FF1F242E0200E378312B00F0FA8546
:10568000322B7AD172B68D4B186916F003FB8C4B16
:10569000D3E9042316F08EFC14AA62E9020162B673
:1056A000884B894C1B7800930123114620461A46EB
:1056B0000BF0CEF8002800F0CB81204618F0C0F99E
:1056C0000222204481490EF075FF56E0E378303B1A
:1056D000422B00F22485DFE813F0D903D903D90364
:1056E000D9032205220522052205220522052205CD
:1056F00022052205220522052205220539031D0364
:1057000022050F0322052205220522052205220576
:105710002205220522052205220522052205220551
:10572000220522052205220522056B0322052205FA
:105730002205220522052205220522052205220531
:1057400022055B0354034D0322057903220522053C
:105750002205220522052205220522052205FD0239
:10576000E378303B032B08D8DFE813F0D6007E0047
:1057700076002700544B30221A8014B0BDE8F08127
:105780009842CCBF022001201FE6514B9B78002B92
:1057900000F068854F4B4C4A1B6813801B0C9370BC
:1057A000EBE74D4B1B78002B3FF4CFAE4B4B464AFB
:1057B0001B6813801B0C9370DFE772B6484B1868A8
:1057C00062B6484B984205DDA0F50300A0F55640AF
:1057D0009842F9DC16F0C6FE4349444D444C16F09D
:1057E000C9FF444916F012FF16F066FA2B680C93B5
:1057F0000C9B22689B1A632BCDE90E0100F2F58504
:105800003D4B3E4CD3E90023D4E90045CDE91023BC
:10581000CDE9124516F0F0F80022394B04460D464A
:1058200016F010FD002800F0C08520462946002211
:10583000344B16F0E3F8CDE90E01234C012220464B
:105840000EA90AF0A9FE002840F0BB852E4B1B686C
:1058500023801B0CA37090E70FF0B2FA2B4902468D
:10586000194817F0CFFE88E70FF0AAFA1C4C206108
:105870000CF06CFF064620690CF05AFF07462069C1
:105880000CF048FF804620690CF01AFF20690CF0EC
:1058900025FF20691E4CF51784FB0634C5EB641503
:1058A000642404FB15640CF027FF1A490094434656
:1058B0003A46054817F0A6FE5FE700BF6893FF1F52
:1058C000909AFF1F4987FF1FF49AFF1F282E02009E
:1058D0004093FF1F442E0200D098FF1F8C2E020021
:1058E0008896FF1F00D6830000D6034B0C9CFF1F39
:1058F000A09BFF1F0000C0415093FF1F2097FF1F78
:10590000000028C000003840242E0200502E020063
:105910001F85EB51742E02000FF052FAA74CA84DD0
:1059200020610CF0CDFE074620690CF0D7FE16F082
:1059300019FEA44916F01EFF0646384616F012FE60
:105940000146304616F05AFD064620690CF0D4FE9A
:1059500016F008FE9C4916F00DFF314616F04EFD7C
:1059600016F0AAF90B4602462146E1E9062328462D
:1059700001220AF011FE284618F062F8022228449B
:1059800092490EF017FEF8E62479002C5FD1904D75
:10599000904AEE6890498A48642303FB06F382FB31
:1059A0000362DB17C3EB223217F02CFEEC60E4E657
:1059B0002379313B032B00F25285DFE813F0870394
:1059C0007E0375036C032379303B052B00F254856D
:1059D000DFE813F0FC03F203E403D603C503B403CA
:1059E0002379303B032B00F23585DFE813F0900379
:1059F000880380037803794B79491A78704817F047
:105A000001FEBAE6774A78496D4817F0FBFDB4E627
:105A1000764A75496A4817F0F5FDAEE66F4B734A52
:105A20001B7871496648C3EB03131A4417F0EAFD6B
:105A3000A3E66F4B6F491A78614817F0E3FD9CE6C7
:105A40002379442B00F0C985522B00F00D855C4C66
:105A50003023238091E62379442B00F0AE85522B2E
:105A6000F5D16549654B0022D1E9000116F078F9BE
:105A700016F04EFC62490246514817F0C3FD7CE621
:105A800012AD294610A8FFF7EDFAE378412B00F09C
:105A9000A28410A8FDF7F2FB6FE6312A0CBF56482E
:105AA0005848474CFDF72CF802460B4614A961E90B
:105AB0000223554B1B780093012320461A460AF017
:105AC000C7FE0028C4D0204617F0BAFF02222044A7
:105AD0003E490EF06FFD50E64C4B12AD0026A3F18F
