:1000000000800020BD010000913F0100493F010038
:10001000493F0100493F0100493F0100493F0100BC
:10002000493F0100493F0100493F0100913F010064
:10003000913F0100493F0100016A0100056A01008A
:10004000913F0100913F0100913F0100913F01006C
:10005000913F0100913F0100913F0100913F01005C
:10006000913F0100913F0100913F0100913F01004C
:10007000913F0100913F0100913F0100913F01003C
:10008000913F0100913F0100913F0100913F01002C
:10009000913F0100913F0100913F0100913F01001C
:1000A000913F0100913F0100913F0100913F01000C
:1000B000913F0100913F0100913F0100913F0100FC
:1000C000913F0100913F0100913F0100913F0100EC
:1000D000913F0100913F0100913F0100913F0100DC
:1000E000913F0100913F0100913F0100913F0100CC
:1000F000913F0100594E0100913F010099570100C5
:10010000913F0100095A0100913F0100913F010018
:10011000913F0100913F0100913F0100913F01009B
:10012000913F0100913F0100913F0100913F01008B
:10013000913F0100913F0100913F0100913F01007B
:10014000913F0100913F0100913F0100913F01006B
:10015000716D0100856D0100996D0100AD6D0100AB
:10016000913F0100A95C0100913F0100913F010016
:10017000913F0100913F0100913F0100913F01003B
:10018000913F0100913F0100913F0100913F01002B
:10019000913F0100913F0100913F0100913F01001B
:1001A000913F0100913F0100913F0100913F01000B
:1001B000913F0100913F0100913F0100564B4CF2ED
:1001C000205210B51A804DF628121A8000BF00BFC9
:1001D00013F0E2FE514B4FF010621A60504A9A60E1
:1001E000504ADA60504A136813F4807304D14F49BF
:1001F0000B604FF4A85313604D4B1A78110703D5C9
:100200001A7842F008021A704A4B4B492A221A7097
:100210004A4A4B4B8B4204D252F8040F43F8040B6A
:10022000F8E7484B484900228B4202D243F8042B9E
:10023000FAE74649464A002352F8230041F82300D2
:1002400001336F2BF8D1434B434A802103F8011B44
:100250009342FBD1414B3D4A1A60414B8A221A70AE
:10026000A3F5805324225A70A0221A709A7992071B
:10027000FCD59A79D406FCD43A4A937903F00C035E
:10028000082B384BF9D103221A7140225A719A79FE
:100290009006FCD5334A9179324B4906FBD5324A58
:1002A000324911600221516020221A709A7902F0BD
:1002B0000C020C2AFAD12E4B2E4A1A602E4B2F4AD2
:1002C0001A6000225A60072243F8042C2C4AC3F813
:1002D0000C2D62B614F0FCF8144B1B68DA0705D538
:1002E000284814F0E1F8284B284A1A60284B1B785C
:1002F0005B0609D5244C254B22689A4204D121483B
:1003000014F0D2F80023236013F04CFE1BF0D8FA4F
:1003100016F058FDFEE700BF0E2005403080044077
:10032000823F04000100002B10D0034014D0034092
:1003300002D0074000E00740F092FF1F982402001F
:100340002087FF1FF092FF1F349FFF1F0082FF1FB7
:100350000000000000E400E05FE400E008ED00E0E1
:100360000050064000400640448004400000030165
:1003700004800440C010050014E000E0FF76010096
:1003800000002020507329641CE00340A5C3945A48
:1003900000F00740FFFFFFFFFFFFFFFFFFFFFFFF32
:1003A000FFFFFFFFFFFFFFFFFFFFFFFFFFFFFFFF5D
:1003B000FFFFFFFFFFFFFFFFFFFFFFFFFFFFFFFF4D
:1003C000FFFFFFFFFFFFFFFFFFFFFFFFFFFFFFFF3D
:1003D000FFFFFFFFFFFFFFFFFFFFFFFFFFFFFFFF2D
:1003E000FFFFFFFFFFFFFFFFFFFFFFFFFFFFFFFF1D
:1003F000FFFFFFFFFFFFFFFFFFFFFFFFFFFFFFFF0D
:10040000FFFFFFFFFFFFFFFFFFFFFFFFDEF9FFFF23
:1004100010B5054C237833B9044B13B10448AFF33E
:1004200000800123237010BDF092FF1F0000000028
:1004300094240200084B10B51BB108490848AFF3DB
:1004400000800848036803B910BD074B002BFBD0A0
:10045000BDE81040184700BF00000000F492FF1FE5
:1004600094240200F092FF1F0000000014F016B860
:1004700010B5044616F05AFC204610BD10B582B0E7
:10048000044613F01FFD8DF80600601C13F01AFDE2
:100490008DF80700BDF8060002B010BD38B50C4657
:1004A000054613F00FFD2070681C13F00BFD607003
:1004B000A81C13F007FDA070E81C13F003FDE0700A
:1004C00038BD00BF3B4A70B501233B4D13602A780D
:1004D000002A3CD0394E0023337072B6384CD4E930
:1004E00006011AF009FE2369C01A206262B6236A67
:1004F000344A002B33D0236A33493148C97B002B5F
:10050000D4BF0023012384F8283000292BD12F4B9E
:1005100090F828101B7899422BD02D4B4FF4805126
:10052000196094F82830264903F0FF00002B2BD0E7
:10053000D0685268234B904230DADA6801210A44CD
:10054000DA6019720123337000232B7070BD1B4ACF
:1005500012780AB11F4A136001232B7070BD137A01
:10056000002BC8D1F0E7194B90F828101B7899425E
:10057000D3D0194B4FF48051196094F828301049AA
:1005800003F0FF00002BD3D1D2680E4B002A0BDD05
:10059000DA680121013ADA601972D3E700221A728F
:1005A0000B6901330B61CDE718720B69013B0B61DD
:1005B000C8E700BFC8F00F402487FF1F5894FF1FF3
:1005C0000096FF1F509BFF1F7098FF1FDC96FF1FB8
:1005D00008F00F40C4F00F4004F00F40364A70B5E9
:1005E0001023364D13602A78002A36D0344E00236B
:1005F000337072B6334CD4E906011AF07DFD2369DD
:10060000C01A206262B6236A2F4A002B2DD0236ABB
:100610002E492C48C97B002BD4BF0023012384F82A
:10062000283031BB90F828303BB3294B04211960A6
:1006300094F82830234903F0FF0043B3D068526890
:10064000214B90422DDADA6801210A44DA601972EE
:100650000123337000232B7070BD194A12780AB140
:100660001B4A136001232B7070BD137A002BCED16F
:10067000F0E790F82830002BD7D00F4B04211960F9
:1006800094F828300F4903F0FF00002BD6D1D26830
:100690000D4B002A0BDDDA680121013ADA6019728C
:1006A000D6E700221A720B6901330B61D0E718728A
:1006B0000B69013B0B61CBE7C8F00F404887FF1F78
:1006C000A896FF1F4093FF1F689BFF1FA898FF1F5E
:1006D000C4F00F402DE9F043147A83B034B1D2E96D
:1006E00004670A9D0124C3E900672C70274C247815
:1006F000002C3ED0264C2478002C3AD1127A002AC5
:1007000037D10A9A1278002A33D0027C002A30D1DD
:100710001D460C4672B6D1E906011AF0EDFC2369BC
:10072000C01A206262B6236A0193019B002B2ADD66
:1007300001981AF0CBF98046A06E89461AF0C6F9E6
:10074000D4E918231AF028FA0022124B06460F4665
:100750001AF0A8FC08B90F4F002632463B46404627
:1007600049461AF08BFC38B172B60A9A002313700E
:1007700062B603B0BDE8F08372B6D4E91223C5E9CE
:10078000002362B6F5E701984042D2E7E198FF1FE7
:100790006298FF1F0000F03F037C022B04BF01237F
:1007A0000374037CFE2B04BFFF230374704700BF58
:1007B000014B31221A807047009BFF1F10B4064B7B
:1007C000064A1878C8246F21002304FB001019463C
:1007D00010BC137013F090BBB096FF1FD095FF1F95
:1007E00010B5084B084A18786E210023C82404FB72
:1007F00000101946137013F07FFB044B01221A708E
:1008000010BD00BFB096FF1F5098FF1FE198FF1F5B
:100810002DE9F0475D4C5E4D5E495F4E2D7894F8B2
:1008200000E009783478002D08BFBEF1000F0CBF3E
:1008300001250025C9B224B13478042C01D0BDE8CB
:10084000F0878D42FBD91D461746044619461046CF
:10085000002300221AF008FC00284ED13378042B24
:1008600004D04E4B4E4A197811701870237C5BB23D
:10087000002B74DDD4E9028900220023404649465A
:100880001AF010FC4FF0010A00284BD05FFA8AFAE8
:10089000237C73B100233846294600221AF00CFC51
:1008A0004FF0010300B9034683F00103DBB29A4520
:1008B0001AD038462946002200231AF0FDFB0028F2
:1008C00055D03846294642464B461AF0CDFB58B320
:1008D0000423337002232374324A00214FF0FF3384
:1008E00011702360BDE8F08700224FF0804340463E
:1008F00049461AF0E1FB0028DBD0237C022B02D012
:10090000237CFE2B9BD12046BDE8F047FFF744BF78
:1009100000220023404649461AF0BAFB4FF0010A74
:100920000028B3D18246B1E7AA463A465346C4E905
:10093000022372B6216AD4E90223D1E900011AF038
:100940002BF9C4E9060162B629460425384600227F
:10095000002335701AF0B0FB0028BBD113E0237CD4
:100960001B06D4E90289D3D44FF0010A90E705F1C0
:10097000004A3846514642464B461AF075FB00285D
:10098000D3D004233370FE232374A5E79895FF1F6B
:100990005098FF1F6298FF1FDC93FF1FE198FF1F15
:1009A000DD96FF1FD187FF1F30B583B0CDB2019117
:1009B000044613F087FA854203D02946204613F0F7
:1009C0009BFA0134204613F07DFA9DF805508542CC
:1009D00003D02946204613F08FFA03B030BD00BF84
:1009E000F8B50D460E78044613F06CFA864203D033
:1009F0003146204613F080FA661C304613F062FA46
:100A00006F78874203D03946304613F075FAA61C3A
:100A1000304613F057FAAF78874203D03946304654
:100A200013F06AFA0334204613F04CFAED7885424D
:100A300005D029462046BDE8F84013F05DBAF8BD60
:100A40002DE9F047474B484F484E82B00022012520
:100A50000A201A703D70357013F0F2FD444B1C787B
:100A600004EB840404EB8404E40004F1650013F057
:100A700029FA8DF8040004F1660013F023FA8DF8CA
:100A8000050004F1670013F01DFA8DF8060004F16B
:100A9000680013F017FA8DF8070004F1690013F0ED
:100AA00011FADDF804A08DF8040004F16A0013F0D7
:100AB00009FA8DF8050004F16B0013F003FA8DF8C4
:100AC000060004F16C0013F0FDF92A4B8DF80700C5
:100AD000587B019C19F0EAFF02460B4600204FF0BC
:100AE000804116F07DFE80468946504619F0EEFFA3
:100AF00042464B461AF050F81AF0FEFA1E4B824658
:100B0000587B19F0D3FF02460B4600204FF080417E
:100B100016F066FE80468946204619F0D7FF424609
:100B20004B461AF039F81AF0E7FA044672B6504606
:100B3000C7F810A019F0CAFFC7E9060120463461C2
:100B400019F0C4FFC6E9060162B60C4A0C4B1278D4
:100B5000AA420CBF0222002228461A7002B0BDE849
:100B6000F08700BFD187FF1F0096FF1F4093FF1F34
:100B7000B096FF1F7098FF1FA898FF1FB887FF1F30
:100B8000189AFF1FFFFFFFFF10B54B4C4B4994F81D
:100B90002430013BDAB20120032A08702DD84849DD
:100BA000E06951F82220904228BF1046032B10D84C
:100BB000DFE803F068025A6D19F078FF3CA3D3E92F
:100BC00000231AF013F91AF0BFFA81B2E06A12F0AA
:100BD0008DFE3C4C94F82430013BDAB2032A0ED847
:100BE0003749E06951F82220904228BF1046032B74
:100BF0005BD8DFE803F02415062A0020D6E70020A2
:100C0000F5E719F053FF2AA3D3E900231AF0EEF811
:100C10001AF09AFA81B2206BBDE8104012F0ECBCD9
:100C200019F044FF22A3D3E900231AF0DFF81AF0E9
:100C30008BFA81B2E06ABDE8104012F057BE01465F
:100C4000A06ABDE8104011F083BD19F02FFF18A372
:100C5000D3E900231AF0CAF81AF076FA81B2606B71
:100C6000BDE8104012F0CABD19F020FF10A3D3E96F
:100C700000231AF0BBF81AF067FA81B2206B12F069
:100C8000BBFCA6E70146A06A11F062FDA1E719F0DE
:100C90000DFF07A3D3E900231AF0A8F81AF054FABD
:100CA00081B2606B12F0AAFD93E710BDAFF3008034
:100CB000CD3B7F669EA0F63F7098FF1F329BFF1FC3
:100CC0008C190200A898FF1FF8B52F4B2F4C304D00
:100CD0001E783049DFF8E8C0DFF8E8E0012384F847
:100CE000283085F82830D5E90E23C5E91423D4E946
:100CF0000E23C8276E2017FB0606274FC4E91423CE
:100D000000230022C1E90023C7E900232349CCE9DD
:100D10000023CEE90023224B002730460F701F70BE
:100D200013F0D0F818B13946304613F0E5F81D48F5
:100D30001D4B1E491E4A4668586800230B740B6001
:100D400013744B606E6113605360606172B66869C2
:100D500019F0BCFEC5E906016B692B61606919F0E9
:100D6000B5FEC4E906016369236162B6114B1B78C5
:100D700033B1114A114B0021012011701870F8BDD8
:100D8000FFF702FFF5E700BFB096FF1F4093FF1F7C
:100D90000096FF1F9095FF1F4098FF1F9895FF1F1B
:100DA0005098FF1FF097FF1FA09AFF1F1094FF1F7E
:100DB000A095FF1F329BFF1FE198FF1FD187FF1FE8
:100DC0004898FF1F409BFF1F10B5494C494994F8B4
:100DD0002430013BDAB20020032A087006D84649C5
:100DE000606951F82220904228BF1046032B10D88A
:100DF000DFE803F06602586B19F058FE3AA3D3E916
:100E0000002319F0F3FF1AF09FF981B2E06A12F0A3
:100E10006DFD3A4C94F82430013BDAB2032A0CD829
:100E20003549606951F82220904228BF1046032BB3
:100E300059D8DFE803F0221304280020F7E719F05F
:100E400035FE29A3D3E9002319F0D0FF1AF07CF96D
:100E500081B2206BBDE8104012F0CEBB19F026FE27
:100E600021A3D3E9002319F0C1FF1AF06DF981B273
:100E7000E06ABDE8104012F039BD0146A06ABDE845
:100E8000104011F065BC19F011FE17A3D3E900233F
:100E900019F0ACFF1AF058F981B2606BBDE8104050
:100EA00012F0ACBC19F002FE0FA3D3E9002319F035
:100EB0009DFF1AF049F981B2206B12F09DFBA8E763
:100EC0000146A06A11F044FCA3E719F0EFFD06A368
:100ED000D3E9002319F08AFF1AF036F981B2606B6A
:100EE00012F08CFC95E710BDCD3B7F669EA0F63FCF
:100EF0007098FF1F329BFF1F8C190200A898FF1FDC
:100F00002DE9F047D1E910678AB0CDE90467127A7C
:100F1000139D0C4622B99846037C8246002B34D19F
:100F2000D5E90001D4E9162319F084FC024621F02A
:100F30000043CDE90623DDE90667002200233046A1
:100F400039461AF091F8002840F0638132463B465A
:100F5000D4E90E0119F04AFF06460F4602460B4639
:100F6000DDE916011AF0A8F8002800F035813246B4
:100F70003B46DDE914011AF08BF8002800F02981C6
:100F8000C4E914670AB0BDE8F087D0E90267DDE97B
:100F90000423304639461AF071F8002840F01F81CA
:100FA000A14B1B78002B40F0BA819AF81030DFF883
:100FB000849219064CBF9D4B9D4B0022C9E900232A
:100FC0009AF81030FF2B00F037819AF81030012B7F
:100FD00000F03281D4E902231046194619F02AFCA8
:100FE000D9E900678EA3D3E9002319F0D5FD324675
:100FF0003B4619F0D1FDD5E90067D8E9002319F087
:10100000F5FE32463B4619F015FCC5E90001D5E96D
:101010000001002200231AF031F8002840F08581F9
:10102000DDE90401D5E900231AF03CF8002800F0BE
:10103000748104ABD3E90023C5E900239AF810308A
:101040005BB2002B40F3B981DAE90267D5E9000110
:1010500032463B461AF030F808B9D5E90067C5E9D1
:1010600000679AF81030FF2B04D09AF81030012B4B
:101070007FF456AFD5E90023CDE90823DDE9080167
:10108000002200231AF018F8002800F00A81DDE998
:101090000823DDE9040119F0F1FF002800F00781C1
:1010A00072B6D4E906011AF027F82369C01A206243
:1010B00062B6D4E91423D4E91C0119F097FE024664
:1010C0000B4619F069FDD4E9028906460F464246EF
:1010D0004B464046494619F0ADFB0B4602463946A1
:1010E000304619F083FE1AF007F8236A002B0646F3
:1010F000C0F2118172B62069304419F0E7FCC4E9EE
:101100000601266262B6236A0293029B0298002BB4
:10111000D8BF404219F0DAFC8046A06E894619F02B
:10112000D5FCD4E9182319F037FD0022404B0646C0
:101130000F4619F0B7FF002800F0F48032463B4616
:101140004046494619F09AFF00283FF4E9AE0021D5
:10115000002200238AF81010C5E9002372B6129B02
:10116000D3E9060119F0C8FF129B1B69C01A129B34
:10117000186262B6129B1B6A0193019B0198002BB7
:10118000D8BF404219F0A2FC129B0646986E0F464B
:1011900019F09CFC129BD3E9182319F0FDFC0022E6
:1011A000234B8046894619F07DFF002800F0158109
:1011B00042464B463046394619F060FF00283FF45E
:1011C000AFAE194B1B78002B7FF4AAAEFFF7DCFC07
:1011D000A6E6DDE91467D3E6DDE91667C7E6D5E9DB
:1011E0000023104623F00041DDE9042319F046FFF7
:1011F00000283FF4D5AE9AF810305BB2002B3FF7D1
:101200002EAF9AF81030180600F1D3800026002780
:1012100025E7DDE91623C4E914230AB0BDE8F08709
:1012200000000040E17A843F329BFF1F0000F0BFC6
:101230000000F03FD895FF1FD4E90223104619465D
:1012400019F0F8FAD9E9006767A3D3E9002319F088
:10125000A3FC32463B4619F09FFCD8E9002319F065
:10126000C5FDD5E9006702460B463046394619F000
:10127000DFFAC5E900010022D9E900015C4B19F051
:10128000F3FE002870D0D5E90001DDE9042319F050
:1012900009FF00287CD104ABD3E90023C5E9002372
:1012A000B5E6DDE90801024601F10043F1E672B658
:1012B000D4E9060119F020FF2369C01A206262B642
:1012C000D4E91423D4E91C0119F090FD02460B4621
:1012D000D4E9028919F060FC424606460F464B46A7
:1012E0004046494619F0A6FA0B46024639463046B2
:1012F00019F07CFD19F000FF236A0393039B002B78
:10130000039BD8BF5B4298420646BFF6FCAE236AF9
:10131000002BBFF6EFAE7642ECE62B468AE6FFF7EF
:1013200053FD42E60026324F08E7DDE9042303F1CE
:101330000047164610463946D5E9002319F09EFEAF
:1013400018B3C5E900679AF810305BB2002B21DDB5
:10135000DAE90267D5E9000132463B4619F098FE0A
:1013600000287FF47CAE78E6DDE9042303F1004732
:10137000164610463946D5E9002319F09DFE08B1FE
:10138000D5E90067C5E9006741E6D5E90067D8E718
:101390002B4681E79AF810301A064FF000064FF0FE
:1013A0000007D7D5DAF80C30DAF8086003F1004707
:1013B000D0E707F100431F4651E69AF810301B06AC
:1013C0004FF000064FF000077FF540AEDAF80C3022
:1013D000DAF8086003F1004738E64FF00008DFF85C
:1013E0001090E5E6AFF3008000000040E17A843F12
:1013F0000000F03F5E4A5F4913682DE9F043013376
:1014000013600B788BB0002B70D05B4C5B4D5C4A4B
:10141000D4E914010AAB5B4C63E90201009256491E
:10142000594A5A48FFF756F9DDE90801D4E9002383
:1014300019F01AFE08BB0022554BDDE9080119F02E
:10144000ABFB19F0A1FE002106461AF0A3F980B902
:10145000504930461AF0B2F958B94F49304619F0A0
:10146000F1FF4FF07C5119F0E3FE1AF0EDF923285B
:1014700072D8DDE90823C4E90023D5E914010AABD9
:10148000464A474C63E9040100923C49454A4648B4
:10149000FFF720F9DDE90601D4E9002319F0E4FDA6
:1014A00008BB00223A4BDDE9060119F075FB19F083
:1014B0006BFE002105461AF06DF980B935492846C2
:1014C0001AF07CF958B93449284619F0BBFF4FF09F
:1014D0007C5119F0ADFE1AF0B7F9232842D8DDE9A6
:1014E0000623C4E900230BB0BDE8F0832F4A30493E
:1014F000304B0191D2E90001D3E900231E4C234E69
:101500001E4D0095CDE90401CDE902232146304668
:10151000294B1D4A244FFFF7F3FC284B2849009420
:10152000D1E90001D3E90089264A0192CDE90201FF
:10153000254B1C4ACDE9048929463846FFF7E0FCD3
:10154000337C002B7FF463AF3B7C5BB2002B7FF4DA
:101550005EAF1E4A13705AE71D4B1B68002B88D0E4
:10156000186086E71B4B1B68002BB8D01860B6E7E5
:10157000B897FF1F6298FF1F0096FF1F4093FF1F41
:10158000C893FF1F209AFF1F509BFF1F1094FF1F3F
:101590000000E03FABAAAA4C000040428895FF1F24
:1015A000289AFF1F689BFF1FA095FF1FC087FF1F82
:1015B0001093FF1F3887FF1F1098FF1FC887FF1F5A
:1015C0004087FF1FA09BFF1FC09AFF1FDC93FF1FD8
:1015D0003093FF1F3893FF1F2DE9F04F8FB00EAFF0
:1015E000DDE91C451A9E07F8086DC0E90C45189EF8
:1015F00003904E318DF835203846199A8DF83120F8
:101600008DF834308DF836108DF8326010F00CFD06
:10161000D94904461E9819F015FF1AF0EFF8044452
:10162000204612F041FF204610F02EFE12F036FF49
:10163000044610F0E9FC0646204610F0D7FC0546AB
:10164000204610F0C5FC6B1E012B98BF06F1FF363B
:101650008246304698BF0C3519F0A0FEC749834634
:1016600019F0A4FF19F044FA15F00EFF80468946E0
:101670005846C34919F09AFF19F03AFA15F004FFD9
:1016800006460F465846BF4919F0DCFE19F030FAFD
:1016900015F0FAFECDE90001284619F07FFE4FF063
:1016A0007E5119F0C7FDB84919F0CCFE19F020FAA7
:1016B00015F0EAFE4246CDE904014B4600204FF00A
:1016C000804119F0B5F832463B4619F0B3F8DDE930
:1016D000002319F0AFF8DDE9042319F0ABF8064652
:1016E00050460F4619F0F2F902460B46304639468D
:1016F00019F0A0F88CA3D3E9002319F09BF88246D7
:1017000020468B4610F03AFC0646204610F044FC7A
:1017100019F044FE9D4919F049FF0546304619F07D
:101720003DFE0146284619F085FD0546204610F08D
:1017300041FC19F033FE904919F038FF294619F0A1
:1017400079FD19F0D5F90022CDE90001904B504602
:10175000594619F06FF815F097FE75A3D3E90023E9
:1017600004460D4619F0A8FC68B373A3D3E900231F
:101770002046294619F05CF871A3D3E9002319F03B
:1017800035FB19F0B9FC19F0A1F9002206460F4605
:10179000804B2046294619F04DF832463B4619F059
:1017A00049F8002204460D467B4B3046394619F075
:1017B000F3F915F069FE02460B462046294619F05A
:1017C00037F804460D46204629465FA3D3E9002397
:1017D00019F030F85EA3D3E9002304460D4619F052
:1017E00027F85DA3D3E9002319F000FB15F04CFEA8
:1017F00059A3D3E90023CDE9040119F0CDF915F07F
:1018000043FE02460B462046294619F011F854A320
:10181000D3E900238046894619F0E8FA15F034FE32
:101820004FA3D3E9002304460D4619F0B5F915F08E
:101830002BFE002206460F4600234046494618F07C
:10184000F9FF32463B4618F0F3FF15F01DFE19F084
:1018500053FC00220646514B2046294619F00EFC47
:10186000002800F0608200224A4B2046294618F0EA
:10187000DFFF15F009FE19F03FFC0446204619F081
:101880008DFD4749054619F099FF002840F0578221
:1018900035A3D3E90023DDE9040118F0C9FF15F0F1
:1018A000F3FD19F029FC0746631E012B05D804F14E
:1018B0000C0019F073FD013F0546384619F06EFD26
:1018C0002E49044619F072FE19F012F915F0DCFDEC
:1018D000CDE9040120462A4919F068FE19F008F9FB
:1018E00015F0D2FDCDE906012046264919F0AAFDE2
:1018F00019F0FEF815F0C8FDCDE9080128464FF0B3
:101900007E5119F097FC204919F09CFD19F0F0F870
:1019100015F0BAFD16A3D3E90023CDE90A0150461C
:1019200059463FE0AFF3008000000080A2423A41F8
:10193000000000008C8A414100000040D07D3C4105
:101940000000000088D5E1400000000000D0974072
:101950000000006066865E400000000000D4764013
:1019600000000020A0993E4000000000006BB24043
:10197000000000802CB44241000061450000C842D4
:101980000000C84300A0B64301CDF44100007042FE
:101990000000E03F0000F03F0000D03F00002B407F
:1019A0000000204018F044FF002204460D46C04BC2
:1019B000DDE9000119F01AFA02460B4620462946D5
:1019C00018F038FF9AA3D3E9002382468B4619F01A
:1019D0000DFADDE904238046894600204FF080415E
:1019E00018F026FFDDE9062318F024FFDDE90823BF
:1019F00018F020FFDDE90A2318F01CFF04463046EA
:101A00000D4619F063F802460B462046294618F0A9
:101A100011FF89A3D3E9002318F00CFF88A3D3E9B1
:101A2000002318F005FF88A3D3E9002319F0B4F8C8
:101A300087A3D3E9002318F0FDFE05E020462946E0
:101A400000229B4B18F0F4FE0022994B04460D46F1
:101A500019F028FB0028F1D1002200232046294656
:101A600019F00CFB68B1204629460022904B18F073
:101A7000E1FE0022002304460D4619F0FFFA00287B
:101A8000F1D175A3D3E90023DDE9000119F084F851
:101A900022462B4618F0CEFE71A3D3E9002304465C
:101AA0000D464046494619F077F842464B4619F034
:101AB00073F822462B4618F0BDFE05E02046294665
:101AC00000227B4B18F0B4FE0022794B04460D46F1
:101AD00019F0E8FA0028F1D1002200232046294617
:101AE00019F0CCFA68B1204629460022704B18F054
:101AF000A1FE0022002304460D4619F0BFFA00287B
:101B0000F1D159A3D3E900235046594619F044F8BE
:101B100002460B4656A1D1E9000118F089FE56A3F2
:101B2000D3E9002319F062F915F036FD54A3D3E987
:101B3000002306460F465046594619F02DF852A389
:101B4000D3E9002318F076FE02460B4618F072FE29
:101B500049A3D3E9002319F049F915F01DFD4CA361
:101B6000D3E90023804689465046594619F014F8B7
:101B700002460B4648A1D1E9000118F059FE3EA3E8
:101B8000D3E9002319F032F915F030FC44A3D3E96E
:101B9000002382468B463046394618F0FDFF42A3AB
:101BA000D3E9002306460F464046494618F0F4FFA5
:101BB00002460B463046394618F03AFE52465B461E
:101BC00018F0EAFF22462B4618F034FE05E02046C6
:101BD00029460022364B18F02BFE0022344B0446D7
:101BE0000D4619F05FFA0028F1D1002200232046AB
:101BF000294619F043FA68B12046294600222C4BA9
:101C000018F018FE0022002304460D4619F036FA9B
:101C10000028F1D10399274B0022D1E90C0119F0DA
:101C2000E5F802460B462046294649E0AFF300801E
:101C300000000000A0D5E14000000080A2423A412F
:101C4000000000802CB44241000000E05BD2B03FB5
:101C5000000000801CCA1A40000000E0360BF03F74
:101C6000000000605243FB3E00000060C91CAB3F17
:101C7000000000608F425F4000000020DCA54C4067
:101C8000000000E0718AEF3F00000020858771406E
:101C9000000000A0F2D79A3E0000000076703740A6
:101CA000000000A0EEE734BF00000080732AF93E78
:101CB0000000384000002E402B4B204629460022D1
:101CC00018F0B6FD0022284B04460D4619F0EAF93B
:101CD0000028F1D1002200232046294619F0CEF930
:101CE00068B12046294600221F4B18F0A3FD0022B0
:101CF000002304460D4619F0C1F90028F1D1204611
:101D000029460022184B19F071F813A3D3E90023D8
:101D100018F042FF19F0F0F972B6039B186062B632
:101D20000FB0BDE8F08F0022104B2046294618F076
:101D30007FFD15F0A9FB19F0DFF904469EE508A325
:101D4000D3E90023DDE9040118F072FD15F09CFBD6
:101D500019F0D2F90746A7E500000000C07A6041FB
:101D600000000000006CB2400000384000002A4033
:101D70002DE9F04F8DB0039012F090FB044610F067
:101D800043F90646204610F031F90546204610F08A
:101D90001FF96B1E012B98BF06F1FF3682463046B5
:101DA00098BF0C3519F0FAFAD749834619F0FEFBB3
:101DB00018F09EFE15F068FB804689465846D349C8
:101DC00019F0F4FB18F094FE15F05EFB06460F4682
:101DD0005846CF4919F036FB18F08AFE15F054FB2F
:101DE000CDE90001284619F0D9FA4FF07E5119F0DB
:101DF00021FAC84919F026FB18F07AFE15F044FBC9
:101E00004246CDE904014B4600204FF0804118F0D6
:101E10000FFD32463B4618F00DFDDDE9002318F0BA
:101E200009FDDDE9042318F005FD064650460F467E
:101E300018F04CFE02460B463046394618F0FAFCC4
:101E40009BA3D3E9002318F0F5FC824620468B467D
:101E500010F094F80646204610F09EF819F09EFA0D
:101E6000AD4919F0A3FB0546304619F097FA014633
:101E7000284619F0DFF90546204610F09BF819F0C6
:101E80008DFAA64919F092FB294619F0D3F918F0FA
:101E90002FFE0022CDE90001A14B5046594618F013
:101EA000C9FC15F0F1FA84A3D3E9002304460D46DA
:101EB00019F002F968B382A3D3E90023204629462A
:101EC00018F0B6FC80A3D3E9002318F08FFF19F0B7
:101ED00013F918F0FBFD002206460F46914B2046F1
:101EE000294618F0A7FC32463B4618F0A3FC002216
:101EF00004460D468C4B3046394618F04DFE15F021
:101F0000C3FA02460B462046294618F091FC0446C7
:101F10000D46204629466EA3D3E9002318F08AFC1B
:101F20006DA3D3E9002304460D4618F081FC6CA391
:101F3000D3E9002318F05AFF15F0A6FA68A3D3E9F5
:101F40000023CDE9040118F027FE15F09DFA0246A2
:101F50000B462046294618F06BFC63A3D3E9002307
:101F60008046894618F042FF15F08EFA5EA3D3E949
:101F7000002304460D4618F00FFE15F085FA0022E6
:101F800006460F4600234046494618F053FC3246A9
:101F90003B4618F04DFC15F077FA19F0ADF8002229
:101FA0008046624B2046294619F068F8002800F068
:101FB000208200225B4B2046294618F039FC15F0A0
:101FC00063FA19F099F80446204619F0E7F95849E0
:101FD000054619F0F3FB002840F0178244A3D3E92B
:101FE0000023DDE9040118F023FC15F04DFA19F087
:101FF00083F80646631E012B05D804F10C0019F086
:10200000CDF9013E0546304619F0C8F93E4904466F
:1020100019F0CCFA18F06CFD15F036FACDE9040190
:1020200020463A4919F0C2FA18F062FD15F02CFA70
:10203000CDE906012046364919F004FA18F058FD9A
:1020400015F022FACDE9080128464FF07E5119F02B
:10205000F1F8304919F0F6F918F04AFD15F014FAC4
:1020600025A3D3E90023CDE90A015046594618F0CB
:10207000DFFB002204460D462E4BDDE9000118F07F
:10208000B5FE02460B462046294618F0D3FB1CA39A
:10209000D3E9002382468B4618F0A8FEDDE904232D
:1020A00006460F4600204FF0804145E0AFF3008028
:1020B00000000080A2423A41000000008C8A4141A9
:1020C00000000040D07D3C410000000088D5E14088
:1020D0000000000000D097400000006066865E406F
:1020E0000000000000D4764000000020A0993E408F
:1020F00000000000006BB240000000802CB44241A0
:1021000000000000A0D5E1400000C8420000C84324
:1021100000A0B64301CDF4410000704200006145CB
:102120000000E03F0000F03F0000D03F00002B40E7
:10213000000020400000384018F07AFBDDE906235B
:1021400018F078FBDDE9082318F074FBDDE90A23B9
:1021500018F070FB044640460D4618F0B7FC0246E6
:102160000B462046294618F065FBAFA3D3E90023B0
:1021700018F060FBAEA3D3E9002318F059FBAEA31F
:10218000D3E9002318F008FDADA3D3E9002318F02C
:1021900051FB05E0204629460022C54B18F048FBBC
:1021A0000022C34B04460D4618F07CFF0028F1D1F5
:1021B000002200232046294618F060FF68B120461F
:1021C00029460022BA4B18F035FB002200230446B2
:1021D0000D4618F053FF0028F1D19BA3D3E900234B
:1021E000DDE9000118F0D8FC22462B4618F022FB4E
:1021F00097A3D3E9002304460D463046394618F02C
:10220000CBFC32463B4618F0C7FC22462B4618F062
:1022100011FB05E0204629460022A54B18F008FBDB
:102220000022A34B04460D4618F03CFF0028F1D1D4
:10223000002200232046294618F020FF68B12046DE
:10224000294600229A4B18F0F5FA00220023044692
:102250000D4618F013FF0028F1D17FA3D3E9002326
:102260005046594618F098FC02460B467CA1D1E92D
:10227000000118F0DDFA7CA3D3E9002318F0B6FDC5
:1022800015F08AF97AA3D3E9002306460F46504693
:10229000594618F081FC78A3D3E9002318F0CAFA54
:1022A00002460B4618F0C6FA6FA3D3E9002318F0D4
:1022B0009DFD15F071F972A3D3E90023804689468C
:1022C0005046594618F068FC02460B466EA1D1E90B
:1022D000000118F0ADFA64A3D3E9002318F086FDDD
:1022E00015F084F86AA3D3E9002382468B46304672
:1022F000394618F051FC68A3D3E9002306460F467F
:102300004046494618F048FC02460B4630463946DE
:1023100018F08EFA52465B4618F03EFC22462B46D9
:1023200018F088FA05E0204629460022604B18F094
:102330007FFA00225E4B04460D4618F0B3FE0028DB
:10234000F1D1002200232046294618F097FE68B1FB
:10235000204629460022564B18F06CFA0022002332
:1023600004460D4618F08AFE0028F1D10399514B1E
:102370000022D1E90C0118F039FD02460B46204637
:10238000294603E04A4B20462946002218F050FA1D
:102390000022474B04460D4618F084FE0028F1D178
:1023A000002200232046294618F068FE68B1204626
:1023B000294600223E4B18F03DFA00220023044635
:1023C0000D4618F05BFE0028F1D120462946002278
:1023D000374B18F00BFD32A3D3E9002318F0DCFBD8
:1023E00018F08AFE72B6039B186062B60DB0BDE8A5
:1023F000F08F0022304B2046294618F019FA15F0CC
:1024000043F818F079FE0446DEE527A3D3E900235C
:10241000DDE9040118F00CFA15F036F818F06CFE3E
:102420000646E7E5AFF3008000000080A2423A4193
:10243000000000802CB44241000000E05BD2B03FBD
:10244000000000801CCA1A40000000E0360BF03F7C
:10245000000000605243FB3E00000060C91CAB3F1F
:10246000000000608F425F4000000020DCA54C406F
:10247000000000E0718AEF3F000000208587714076
:10248000000000A0F2D79A3E0000000076703740AE
:10249000000000A0EEE734BF00000080732AF93E80
:1024A00000000000C07A604100000000006CB240F3
:1024B0000000384000002E4000002A40FFFFFFFFD0
:1024C0002DE9F04F89B011F0E9FF04460FF09CFDB3
:1024D000064620460FF08AFD054620460FF078FD9F
:1024E0006B1E012B98BF06F1FF368246304698BF1F
:1024F0000C3518F053FFD849834619F057F818F0F7
:10250000F7FA14F0C1FF804689465846D34919F0BE
:102510004DF818F0EDFA14F0B7FF06460F4658468E
:10252000CF4918F08FFF18F0E3FA14F0ADFFCDE9B2
:102530000001284618F032FF4FF07E5118F07AFE65
:10254000C84918F07FFF18F0D3FA14F09DFF4246F7
:10255000CDE902014B4600204FF0804118F068F9A8
:1025600032463B4618F066F9DDE9002318F062F9BF
:10257000DDE9022318F05EF9064650460F4618F0D2
:10258000A5FA02460B463046394618F053F99CA38B
:10259000D3E9002318F04EF9824620468B460FF00F
:1025A000EDFC064620460FF0F7FC18F0F7FEAE49AA
:1025B00018F0FCFF0546304618F0F0FE01462846AC
:1025C00018F038FE054620460FF0F4FC18F0E6FE41
:1025D000A64918F0EBFF294618F02CFE18F088FAEF
:1025E0000022CDE90001A24B5046594618F022F9CD
:1025F00014F04AFF84A3D3E9002304460D4618F0E3
:102600005BFD68B382A3D3E900232046294618F076
:102610000FF981A3D3E9002318F0E8FB18F06CFD53
:1026200018F054FA002206460F46924B20462946DF
:1026300018F000F932463B4618F0FCF80022044638
:102640000D468D4B3046394618F0A6FA14F01CFFA3
:1026500002460B462046294618F0EAF804460D4685
:10266000204629466EA3D3E9002318F0E3F86EA3B1
:10267000D3E9002304460D4618F0DAF86CA3D3E939
:10268000002318F0B3FB14F0FFFE69A3D3E9002385
:10269000CDE9020118F080FA14F0F6FE02460B466E
:1026A0002046294618F0C4F863A3D3E900238046E6
:1026B000894618F09BFB14F0E7FE5FA3D3E90023E3
:1026C00004460D4618F068FA14F0DEFE00220646B5
:1026D0000F4600234046494618F0ACF832463B46C8
:1026E00018F0A6F814F0D0FE18F006FD002280467F
:1026F000624B2046294618F0C1FC002800F0E18119
:1027000000225C4B2046294618F092F814F0BCFEDB
:1027100018F0F2FC0446204618F040FE58490546E1
:1027200019F04CF8002840F0D88145A3D3E90023E4
:10273000DDE9020118F07CF814F0A6FE18F0DCFCCC
:102740000646631E012B05D804F10C0018F026FE86
:10275000013E0546304618F021FE3F49044618F078
:1027600025FF18F0C5F914F08FFE06460F462046E7
:102770003A4918F01BFF18F0BBF914F085FECDE9BB
:1027800002012046364918F05DFE18F0B1F914F048
:102790007BFECDE9040128464FF07E5118F04AFD3A
:1027A000304918F04FFE18F0A3F914F06DFE26A37F
:1027B000D3E90023CDE906015046594618F038F810
:1027C000002204460D462F4BDDE9000118F00EFBF8
:1027D00002460B462046294618F02CF81CA3D3E9E4
:1027E000002382468B4618F001FB32463B460446E6
:1027F0000D4600204FF0804118F01AF844E000BF69
:1028000000000080A2423A41000000008C8A414151
:1028100000000040D07D3C410000000088D5E14030
:102820000000000000D097400000006066865E4017
:102830000000000000D4764000000020A0993E4037
:1028400000000000006BB240000000802CB4424148
:1028500000000000A0D5E1400000C8420000C843CD
:1028600000A0B64301CDF441000070420000614574
:102870000000E03F0000F03F0000D03F00002B4090
:102880000000204000003840DDE9022317F0D2FFAD
:10289000DDE9042317F0CEFFDDE9062317F0CAFFB8
:1028A000064640460F4618F011F902460B463046E0
:1028B000394617F0BFFF90A3D3E9002317F0BAFF02
:1028C0008FA3D3E9002317F0B3FF8FA3D3E900232D
:1028D00018F062F98EA3D3E9002317F0ABFF05E0EF
:1028E000304639460022A44B17F0A2FF0022A24B2B
:1028F00006460F4618F0D6FB0028F1D1002200232F
:102900003046394618F0BAFB68B1304639460022E5
:10291000994B17F08FFF0022002306460F4618F050
:10292000ADFB0028F1D17CA3D3E90023DDE9000150
:1029300018F032F932463B4617F07CFF78A3D3E912
:10294000002306460F462046294618F025F9224660
:102950002B4618F021F932463B4617F06BFF05E095
:10296000204629460022844B17F062FF0022824B4A
:1029700004460D4618F096FB0028F1D100220023F2
:102980002046294618F07AFB68B1204629460022E5
:10299000794B17F04FFF0022002304460D4618F034
:1029A0006DFB0028F1D160A3D3E9002350465946BE
:1029B00018F0F2F802460B465DA1D1E9000117F0CC
:1029C00037FF5DA3D3E9002318F010FA14F0E4FDFB
:1029D0005BA3D3E9002306460F465046594618F03C
:1029E000DBF859A3D3E9002317F024FF02460B4676
:1029F00017F020FF50A3D3E9002318F0F7F914F0E3
:102A0000CBFD53A3D3E9002380468946504659465F
:102A100018F0C2F802460B464FA1D1E9000117F0A9
:102A200007FF45A3D3E9002318F0E0F914F0DEFC1A
:102A30004BA3D3E9002382468B463046394618F033
:102A4000ABF849A3D3E9002306460F464046494662
:102A500018F0A2F802460B463046394617F0E8FE59
:102A600052465B4618F098F822462B4617F0E2FED5
:102A700005E02046294600223F4B17F0D9FE0022F0
:102A80003D4B04460D4618F00DFB0028F1D1002205
:102A900000232046294618F0F1FA68B1204629465D
:102AA0000022354B17F0C6FE0022002304460D46D7
:102AB00018F0E4FA0028F1D12046294609B0BDE813
:102AC000F08F00222D4B2046294617F0B1FE14F05E
:102AD000DBFC18F011FB04461DE625A3D3E9002317
:102AE000DDE9020117F0A4FE14F0CEFC18F004FB9F
:102AF000064626E6AFF3008000000080A2423A417D
:102B0000000000802CB44241000000E05BD2B03FE6
:102B1000000000801CCA1A40000000E0360BF03FA5
:102B2000000000605243FB3E00000060C91CAB3F48
:102B3000000000608F425F4000000020DCA54C4098
:102B4000000000E0718AEF3F00000020858771409F
:102B5000000000A0F2D79A3E0000000076703740D7
:102B6000000000A0EEE734BF00000080732AF93EA9
:102B700000000000006CB2400000384000002A4015
:102B800070B50568044628460E4611F09BF986424A
:102B900003D03146284611F0AFF9204670BD00BF82
:102BA000032900D970472DE9F04301EB410505EBFE
:102BB000C50505F10A0487B001700646204611F0EC
:102BC00081F98DF80C0005F10B0011F07BF98DF8FF
:102BD0000D0005F10C0011F075F98DF80E0005F1EE
:102BE0000D0011F06FF98DF80F00039817F080FFBA
:102BF0000022874B8046894618F040FA40B90022EF
:102C0000844B4046494618F057FA002800F0CA8025
:102C100006A9002341F8143D002200232046C6E9FE
:102C20000223FDF7DDFE78A3D3E90023D6E90201F4
:102C300018F0DCF88046894614F0D8FBC6E90C0190
:102C40004046494614F0A8FCC6E90E0105F10E0005
:102C500011F038F98DF80C0005F10F0011F032F980
:102C60008DF80D0005F1100011F02CF98DF80E0013
:102C700005F1110011F026F98DF80F00039817F0F7
:102C800037FF0022644B8046894618F001FA38B9B4
:102C90000022624B4046494618F004FA00287ED0D4
:102CA00006A90023307841F8103D1B270E2400228E
:102CB000002307FB0040C6E90423FDF791FE05F160
:102CC000120011F0FFF88DF80C0005F1130011F05F
:102CD000F9F88DF80D00BDF80C2002F1C8039BB285
:102CE00042F208018B4260D8328305F1140011F0E2
:102CF000E9F818F04FFB4A4918F058FC494918F018
:102D000097FA4949F062044618F03AFD002835D197
:102D100005F1150406F11A08243506F119072046B5
:102D200011F0D0F8013407F8010F18B3A542F6D11D
:102D300032783E4903A819F07DFB03A819F040FC46
:102D4000421C0F2A05463AD92FA3D3E90023D6E91E
:102D5000020118F04BF804460D4614F047FBC6E993
:102D60000C012046294614F017FCC6E90E0107B0F5
:102D7000BDE8F083B37E002BDAD0E5E72046294991
:102D800018F01CFD0028C3D032780023F3621B200A
:102D9000142300FB0230782111F0AEF8B8E7C6E941
:102DA00004898CE7C6E9028950E7327812230021B2
:102DB0001B2000FB02303183FDF7F6FD95E703A9E8
:102DC000404610F065FF96F8009009EB490909EBC1
:102DD000C90909F1150900240EE011F073F818F87B
:102DE000045085422946384601D011F085F8404606
:102DF00019F0E6FB0134054609EB0407A542384605
:102E0000EBDAA1E7AFF3008000000020DCA54C4026
:102E1000008056C000805640008076C0008076401A
:102E20000000204100004041000040C19C19020008
:102E30002DE9F04F044687B000264FF000084FF010
:102E40000009F1B26C4B21701A78C820702300FB86
:102E5000023011F051F8257805EB450505EBC50565
:102E600005F10A0AC4E90289504611F02BF818B19D
:102E70005046002111F040F805F10B0A504611F0C0
:102E800021F818B15046002111F036F805F10C0A6E
:102E9000504611F017F818B15046002111F02CF8E7
:102EA0000D35284611F00EF818B12846002111F012
:102EB00023F84FA3D3E90023D4E9020117F096FFCA
:102EC00082468B4614F092FAC4E90C0150465946EA
:102ED00014F062FB257805EB450505EBC50505F10A
:102EE0000E0AC4E90E01C4E90489504610F0EAFF55
:102EF00018B15046002110F0FFFF05F10F0A5046AF
:102F000010F0E0FF18B15046002110F0F5FF05F178
:102F1000100A504610F0D6FF18B15046002110F0AC
:102F2000EBFF1135284610F0CDFF18B128460021DF
:102F300010F0E2FF207800EB400000EBC00505F147
:102F4000120A4FF0000B5046A4F818B010F0BAFF68
:102F500018B15946504610F0CFFF1335284610F0EF
:102F6000B1FF18B12846002110F0C6FF20780023D9
:102F7000E3621B25142305FB0030782110F0BCFF11
:102F800032461E4903A819F055FA03A819F018FB98
:102F9000421C0F2A06D90136022E7FF452AF07B029
:102FA000BDE8F08F04F11A0B019003A9584610F008
:102FB0006FFE94F800A0152215FB0A23009300254C
:102FC000019B0EE010F07EFF1BF805A082455146E4
:102FD000384601D010F090FF584619F0F1FA01354B
:102FE0000346009AAB4202EB05073846EADAD2E71D
:102FF00000000020DCA54C40B096FF1F9C19020089
:1030000038B5437805780BB145F0020583780BB1EC
:1030100045F00405084B1C787122C82313FB0424D7
:10302000204610F04FFF854205D029462046BDE8D6
:10303000384010F061BF38BDB096FF1FFFFFFFFFA3
:103040000378013BDAB2032A10B504460CD82448B1
:1030500050F82220914228BF11460846032B38D849
:10306000DFE803F0221304280020F7E717F01EFD25
:1030700019A3D3E9002317F0B9FE18F065F881B25F
:10308000E068BDE8104010F0B7BA17F00FFD12A3CA
:10309000D3E9002317F0AAFE18F056F881B2A06811
:1030A000BDE8104010F022BC01466068BDE8104049
:1030B0000FF04EBB17F0FAFC07A3D3E9002317F07B
:1030C00095FE18F041F881B22069BDE8104010F07B
:1030D00095BB10BDAFF30080CD3B7F669EA0F63F51
:1030E0008C19020010B50446084617F0EFFC0B4699
:1030F00002464FF08041002014F072FB17F0FCFFF5
:103100002378013B032B1BD8DFE803F00E080214E1
:1031100081B2E068BDE8104010F042BC81B2A06806
:10312000BDE8104010F03CBC01466068BDE81040AE
:103130000FF0A4BC81B22069BDE8104010F0A2BB22
:1031400010BD00BF10B4036841681A780C78417A4A
:10315000037A0C4202EA03021AD0837A03F00303D3
:103160000AB143F0040343F008039A10013B827252
:103170000D2B0BD8DFE803F01E0719070A141E1EDB
:10318000140A0719071EC368013BC36010BC7047CF
:10319000837A03F00303002AE7D043F00403E4E753
:1031A000C36810BC023BC3607047C36810BC0233E5
:1031B000C3607047C36810BC0133C360704700BF71
:1031C00038B5C469C4B1237C012B05460FD972B64A
:1031D000E06862B617F07AFCD5E9002317F006FE26
:1031E0006B7A04460BB101F10041204638BD72B63E
:1031F0002046FFF7A7FFEBE72146204638BD00BF7A
:1032000008B511F09FFB11F0D9FF12F0AFFB4FF49E
:103210007A7011F015FA024B024A1A6008BD00BF1D
:103220000CED00E00400FA0510B572B6094CD4E9C3
:10323000060117F061FF2369C01A206262B672B6F8
:10324000054CD4E9060117F057FF2369C01A206224
:1032500062B610BD0096FF1F4093FF1F70B50E4D64
:103260000E4C0F4ED5E91801D4E91823C5E9160113
:10327000C4E91623D6E90A01D5E9162317F08CFC18
:10328000084EC5E90C01D4E91623D6E90A0117F066
:1032900083FCC4E90C0170BD0096FF1F4093FF1F23
:1032A000F097FF1FA09AFF1F2DE9F843264B24A19A
:1032B000D1E90001D3E9002317F098FD234B06461E
:1032C0000F46D3E900231EA1D1E9000117F08EFDBE
:1032D00004460D4672B61E491E4B0022D1E900017C
:1032E00017F05AFC1C4BD3E904238046894617F09B
:1032F00053FC02460B463046394617F077FD3246FE
:103300003B4617F049FC154A154BC2E90201D3E9C7
:1033100004234046494617F03FFC02460B46204630
:10332000294617F063FD2B46224617F035FC0D4B5E
:10333000C3E9020162B6BDE8F88300BFAFF30080C5
:103340000000000080842E413887FF1F4087FF1F48
:103350003087FF1F00001040F097FF1F0096FF1FEF
:10336000A09AFF1F4093FF1F0028F8B52CDB04280C
:10337000A8BF04201D4A1378984216D01C4C1D4D3E
:1033800004EBC004D4E90067C3B213703046394679
:10339000D5E9022317F068FEC0B1174C32463B4610
:1033A000D4E9020117F060FE00B1F8BDC4E902677C
:1033B00072B6216AD4E90223D1E9000117F0ECFBCF
:1033C000C4E9060162B6F8BD0020D3E7C5E902678B
:1033D00072B6296AD5E90223D1E9000117F0DCFBB6
:1033E000C5E9060162B6D4E90067D6E7D087FF1FBA
:1033F0008887FF1F1094FF1FA095FF1F032A2DE948
:10340000F84302D0384B1B7833BB384B384C394D1E
:103410001B7824782E78B3FA83F35B09E4B216BBE9
:10342000A3421ED9D0E902890E460446174600235E
:1034300000224046494617F017FEC8B1237CBBB1B5
:1034400072B6237C022B47D0237CFE2B04BFFF23C4
:10345000237462B6BDE8F883254A264B12781A78A1
:10346000A2BBBDE8F8832E78B242D9D0BDE8F8837C
:10347000227C237CABB1B6EBD21F12D0404649462A
:1034800000224FF0804317F017FE50B1237C022B2F
:1034900002D0237CFE2BE4D12046BDE8F843FDF7A3
:1034A0007BB9022F1BD0032F0CBF134B134B187883
:1034B000FFF75AFF2F7066B902232374104A0021C8
:1034C0004FF0FF3311702360BDE8F8831B78BDE82F
:1034D000F883FE232374F1E701232374B4E700206B
:1034E000FFF742FFE6E700BF9895FF1F5098FF1FC8
:1034F0006298FF1FDC93FF1FF89BFF1FD087FF1F01
:10350000D187FF1FFFFFFFFF2DE9F04F6A4B87B008
:10351000D3E9082382468B4665A1D1E9000117F063
:1035200065FC664BCDE90001D3E9082360A1D1E930
:10353000000117F05BFC5246CDE902015B46DDE974
:10354000000117F053FC00225D4B06460F4617F0B2
:10355000A9FD08B95A4F0026DFF8789152465B461C
:10356000DDE90201C9E9006717F040FC0022544B75
:1035700004460D4617F096FD08B9514D0024DFF8BA
:10358000588132463B46DDE90001C8E9004517F0A5
:103590002DFC22462B4606460F46DDE9020117F0B8
:1035A00025FC04460D4602460B463046394617F0C8
:1035B00065FD08B134463D4622462B4650465946E5
:1035C00017F036F907460E463846314600220023EA
:1035D00017F072FD002865D03846314600224FF0C2
:1035E000804317F069FD002835D122462B46DDE9DE
:1035F000000117F0FBFB22462B46C9E90001DDE97B
:10360000020117F0F3FB2F4EC8E90001D6E90623AB
:1036100020462946C6E9084517F03AFD90B1002238
:103620002046294B294617F0B7FA284BC6E9060170
:103630001C7817F089FDC8227D23C1B202FB04303B
:1036400010F05AFC224B1878FFF78EFE07B0BDE849
:10365000F04FFFF729BE1D4B1E78294606EB860664
:10366000204617F049FD06EB8606F60006F17E07B8
:10367000014638465FFA81FA059110F023FC824535
:1036800003D05146384610F037FC7F36304610F0F4
:1036900019FC9DF815708742A7D03946304610F0C6
:1036A0002BFCA2E706F1004696E700BFAFF30080CF
:1036B0000000000080842E41F097FF1FA09AFF1F9A
:1036C000000028408887FF1F0000E03FB096FF1FE2
:1036D000D087FF1F3887FF1F4087FF1F10B50E4B95
:1036E0001C7804EB840404EB8404E40082B004F14D
:1036F0007E0010F0E7FB8DF8060004F17F0010F06B
:10370000E1FB8DF80700BDF8060017F0DFF902B005
:10371000BDE81040FFF7F8BEB096FF1F18B9034B85
:1037200030221A807047FDF743B800BF009BFF1F8F
:10373000564B1B783BB9564A52783F2A00F093808B
:10374000544A137070472DE9F04188B000233A22A3
:10375000029301930393049305930693ADF81C30F1
:10376000009211F055FF01E011F08AFF11F074FF93
:103770000028F9DC684618F023FF454D68442946C7
:1037800018F07EFE6C4602224349071B10F080FAB7
:103790006B78213B5D2B36D8DFE803F02F35352FD2
:1037A0003535353535352F352F35356363636363EF
:1037B000636363633535353535353B3535356335CD
:1037C00035352F35633535353B35632F2F352F355F
:1037D000353B633535353535353535353535633537
:1037E00035352F35633535356335633535632F35DD
:1037F0003535353B35353535353B791C684611F067
:1038000077FE11F005FF234B00221A7008B0BDE8C7
:10381000F0810026791C2046DFF8788011F068FEE0
:10382000002511F0F5FE1420444610F009FF2F4644
:1038300006E00135322D20700FD004F8017F16BB51
:1038400011F00AFF002808DD11F01AFFC0B223288A
:10385000EFD196B1312D20700CD13023A8F8003073
:10386000D4E70126D6E70D4B0A4A1B6813801B0CD0
:103870009370704700236370EFE708EB050308F8C7
:1038800005005E70C2E73128C0D0E6E72093FF1F35
:10389000B496FF1F009BFF1FAC190200A81902007D
:1038A00030B5054683B0D0E900010DF081FE0B4B29
:1038B0000B4C1B7800930122C5E900010023294627
:1038C00020460CF00DFF204618F07AFE0549022232
:1038D000204403B0BDE8304010F0DAB94987FF1F3B
:1038E000009BFF1FAC19020010B50B4B0B4C1B7853
:1038F00082B0014600930022012320460CF0F0FE26
:10390000204618F05DFE06490222204402B0BDE8C0
:10391000104010F0BDB900BF4987FF1F009BFF1F7B
:10392000AC19020010B5084B084C1A780146204625
:103930000CF07AFD204618F043FE02222044044990
:10394000BDE8104010F0A4B94987FF1F009BFF1F7E
:10395000AC190200124B93F84820D2B110B41148B0
:103960005C6D026883B041F287310092009A121BAD
:103970008A4210D893F838206AB102680192586CD4
:10398000019B1B1A8B428CBF0020012003B010BC8E
:10399000704700207047002003B010BC704700BF84
:1039A000E096FF1F1C9CFF1F114B1A78D2B110B478
:1039B00010485C6B026883B041F287310092009A34
:1039C000121B8A4210D893F878206AB102680192DB
:1039D000D86F019B1B1A8B428CBF0020012003B0C3
:1039E00010BC704700207047002003B010BC704727
:1039F000E096FF1F1C9CFF1F10B5FFF7ABFF0446AE
:103A0000FFF7D2FF2040C0B210BD00BF154B93F8A6
:103A100098200AB300B5144AD3F89C00126883B00A
:103A200041F287310192019A121A8A4218D8002273
:103A3000D3F8A00083F8992017F0B0FC0B4917F0D9
:103A4000B5FD4FF0804117F09BFE4FF0010328B108
:103A5000D8B203B05DF804FB002070470346F7E7D7
:103A60000020F6E7E096FF1F1C9CFF1F0000C842E5
:103A70002DE9F04F2D4E2E4D336829688DB041F25F
:103A800088320193019B5B1A934204D8294B187822
:103A90000DB0BDE8F08F284C94E80F0004AF10344F
:103AA00087E80F0094E80F0008AC84E80F00384660
:103AB0000EF01AF9804638460EF026F9834638464D
:103AC0000EF036F9824620460EF03EF98146204639
:103AD0000EF046F9074620460EF058F90CAB08F1F7
:103AE0004E0803F8280D18468DF80DB08DF80E809D
:103AF0008DF80CA08DF80A908DF809700EF094FAEC
:103B0000044610F0CBFC041B33680293002CB8BFB2
:103B100064420A49074A029B0861042CCCBF00207A
:103B2000012010702B600DB0BDE8F08F1C9CFF1FB2
:103B3000D496FF1FB49BFF1F1897FF1FB897FF1F56
:103B40002DE9F047B1F1000A3EDD044600EBCA055D
:103B5000804600260027F8E802233046394616F052
:103B600069FEA84506460F46F5D1504616F0AEFF51
:103B700002460B463046394617F038F90026804693
:103B80008946002742464B46F4E8020116F050FEF3
:103B900002460B4617F000F802460B4630463946FF
:103BA00016F048FEA54206460F46EBD10AF1FF305B
:103BB00016F08CFF02460B463046394617F016F9D0
:103BC000BDE8F04713F084BF00260027EEE700BFF2
:103BD0002DE9F04FA44BDFF8BCA21B68DAF8001007
:103BE00099B041F288320893089B5B1A934204D83B
:103BF0009E4B187819B0BDE8F08F9D4B9D49D3F8C6
:103C00008020D1F800B000929E46BEE80F000DF172
:103C1000280CACE80F00BEE80F00ACE80F00BEE8CF
:103C20000F00ACE80F009EE80300934E934D944CB8
:103C3000944F0AAB8CE803001846D6E904890EF0CD
:103C400037F802460B464046494616F0F3FD0DF0A4
:103C50004BFC21F00043194681A3D3E9002316F061
:103C60009BFF05EBCB0B0AABCBE900011846814B60
:103C7000D6E90289D3F800B00DF0FEFF02460B46EC
:103C80004046494616F0D4FD21F00043194674A37E
:103C9000D3E9002316F080FF04EBCB0B754BCBE987
:103CA0000001B6F91800D3F800B016F00FFF8046F7
:103CB0000098894617F072FB734917F077FC16F0ED
:103CC00017FF02460B464046494616F0B1FD4FEA43
:103CD000CB0807EB080321F0004247F83B00032123
:103CE00028465A60FFF72CFFCDE90001204603214A
:103CF000FFF726FFCDE9020138460321FFF720FF39
:103D00004544D5E90056CDE9040100225F4BDDE9C9
:103D10000001CDE9065616F03FFF00224FF0804328
:103D200005460E4617F0BEF9002800F09280334693
:103D30002A46DDE9060117F0A1F94FF00106002837
:103D400000F085804444D4E9004500224F4BDDE972
:103D50000201CDE9064516F01FFF00224FF0804317
:103D600004460D46F6B217F09DF900286BD02246A6
:103D70002B46DDE9060117F081F94FF00104002818
:103D80005FD0B844D8E900780022404BDDE9040157
:103D9000CDE9067816F000FF00223D4B80468946AB
:103DA000E4B217F07FF9002846D0DDE900010022D7
:103DB0004FF0804317F062F94FF00107002839D027
:103DC000DDE9020100224FF0804317F057F94FF070
:103DD000010568B32E4BDDE90401002217F04EF90E
:103DE0003D404FF0010308B32B401E404046DDE943
:103DF0000623494617F060F934404FF0010398B1AB
:103E00001A4A04EA03000BF101031070032B194A4C
:103E100008BF00231360144B1B680993099BCAF861
:103E2000003019B0BDE8F08F0346E9E70346DBE751
:103E30000546CFE70746C3E74FF00008DFF850908C
:103E4000B3E704469DE700244FF080458FE7064620
:103E500078E700254FF0804669E700BFAFF30080A8
:103E6000000000000020AC401C9CFF1FD096FF1FEC
:103E7000E096FF1FAC96FF1FB89BFF1F809BFF1FA4
:103E8000E89AFF1F4094FF1F0000C8420000144042
:103E900000003440B893FF1F0E4B5B78ABB90E4A5D
:103EA000127810B502F0FF010C4C52B921700B488A
:103EB00018F086FB022220440949BDE810400FF0AB
:103EC000E7BE7F2263702270F1E7044B30221A8034
:103ED000704700BFB496FF1F6298FF1F009BFF1F33
:103EE000AC1902001E4B5B78303B232B33D8DFE844
:103EF00003F01313131313323232323232323232AE
:103F000032323232321232323226323232323220CF
:103F100032323232322C0123124A127842B9124A1A
:103F200012782AB9114ADBB213701078FFF71CBA65
:103F300070470C4A12780223002AF9D1EFE7094AA8
:103F400012780023002AF3D1E9E7064A1278032306
:103F5000002AEDD1E3E7064B00221A70704700BF3C
:103F6000B496FF1F6298FF1FDC93FF1FF89BFF1F93
:103F7000009BFF1F2DE9F041164F1749C0EB0013BE
:103F80001F440246384618F055FA384618F018FB18
:103F90000E281CDC114A92F80080F121C822034649
:103FA00012FB081800240DE00FF08CFF3E5D8642E6
:103FB0003146284601D00FF09FFF384618F000FB2D
:103FC0000134034608EB0405A3422846ECDABDE8B9
:103FD000F08100BF389AFF1FB0190200B096FF1F92
:103FE0002DE9F04FB04DB14EB14C93B000234FF0DE
:103FF00000080593049303930293019300931A46D8
:104000001946814686F8008028460CF0F7FE237892
:1040100085F8218103EB830303EB83034FEAC30A93
:104020000AF5947B58460FF04DFF012800F095806B
:10403000A04B1B78033B012B40F203819E4C9F4D0C
:10404000D4E90C01D4E90E232D78CDE90C01CDE99A
:104050000E23002D41D110AFDFF8749201974FF07D
:1040600000080EAE0CAD0AAC42464B4603960295D4
:104070000094002092490DF047FCDDE91023DDE9B2
:104080000A01CDE90423CDE90201CDE9008900222E
:104090008B4B85480CF090FF42464B4603960295A9
:1040A0008DE890007CA1D1E900010DF02DFCDDE947
:1040B0000A01DDE91023CDE90201CDE90423CDE9B0
:1040C000008975A3D3E9002377480CF075FF764883
:1040D0000CF0C0FF13B0BDE8F08FE568A668794B1F
:1040E00030462946002216F0E7FF0028B3D03046BC
:1040F00029460022002316F0DFFF002800F004818B
:1041000032462B4612AF67E902236E4B0022CDE9FF
:104110000023384600226C4B0DF0ECFA00220023FD
:10412000D4E9020116F0AAFF002840F0E880109AB6
:10413000119B104619465AA3D3E9002316F056FEE8
:1041400004460D4613F052F9CDE90C0120462946EC
:1041500013F022FACDE90E017EE7B9F1000F40F02D
:10416000B980074610A90AF58270FCF797F9207804
:10417000DDF840904FF0C8084FF4847308FB00301E
:1041800010A9FCF78BF9109B207807934FF48673E6
:1041900008FB003010A9FCF781F9207810990691EE
:1041A0004FF4887308FB003010A9FCF777F92078EA
:1041B000DDF840A04FF48A7308FB003010A9FCF72B
:1041C0006DF92078DDF840B04FF48C7308FB0030B7
:1041D00010A9FCF763F92078109B09934FF48E72B5
:1041E00008FB002010A9FCF759F92078109A0892D2
:1041F0004FF4907108FB001010A9FCF74FF994F8E8
:1042000000E0109C4FF4927008FB0E0010A9FCF720
:1042100045F91098089A099B03920293079A069B06
:104220000590494628460494CDF804B0CDF800A086
:104230000CF0E4FD28460CF019FE377013B0BDE811
:10424000F08F1D4B00240025D3E9020122462B46A6
:1042500016F032FF002842D01C4F13480026CDE94B
:104260000445CDE90045CDE9026722462B460CF016
:10427000A3FECDE9026712490020CDE90401CDE992
:10428000000122462B4608480CF096FE06480CF02A
:10429000E1FE13B0BDE8F08F0000000000E07040C8
:1042A00000000020DCA54C406094FF1FFA95FF1F22
:1042B000B096FF1FB887FF1FB89BFF1F1893FF1F03
:1042C000008056400000244000908F4000806640EF
:1042D00000804640414658460FF00EFEA8E60C48C6
:1042E000CDE90445CDE90245CDE9004522462B46FE
:1042F0000CF062FE00200749CDE90245BDE7119BA5
:10430000109A03F1004314E705F10045F8E600BFF9
:104310006094FF1F0080564038B51A4B1B78DA1E98
:10432000012A24D9184A012BD2E90245174B14BFA0
:104330000021596B1960002200232046294616F0FF
:104340009DFE134B5A6B80B91A6020462946002304
:10435000002216F0B1FE4FF0010300B9034683F0CE
:1043600001030C4ADBB2137038BD5242ECE7084B34
:104370000649586B044A186000230B60D2E9020119
:10438000E5E700BFB887FF1FB89BFF1FF097FF1F2F
:10439000A09AFF1FDC96FF1F2DE9F8435D4F5E4E8C
:1043A0003C7804EB840404EB8404E40004F1D008BA
:1043B00040460FF087FD96F82450013DEDB2032DE5
:1043C00098BF564B00B200EB800000EB800098BF16
:1043D00053F825304FEA800088BF00239842F061EF
:1043E00000F28580C72840F2828004F1D1094FF0A5
:1043F0000008484686F820800FF064FD032D98BF22
:10440000464B00B200EB800000EB800098BF53F8F1
:1044100025304FEA800088BF43469842706158D8E3
:10442000C72856D94FF0000886F8188004F1DE0935
:104430003B4E48460FF046FD96F82450013DEDB244
:10444000032D98BF354B00B200EB800000EB8000DD
:1044500098BF53F825304FEA800088BF4346984202
:10446000F06124D8C72822D9DF340027204686F8F7
:1044700020700FF027FD032D98BF284B00B200EBF2
:10448000800000EB800098BF53F825708000B84290
:10449000706101D8C72806D84FF47A7320460A21E4
:1044A00073610FF029FD00233376BDE8F8834FF4E4
:1044B0007A7348460A21F3610FF01EFD3C7896F8A6
:1044C000245004EB840404EB8404013DE400EDB2C9
:1044D000CAE74FF47A7348460A2173610FF00CFD66
:1044E0003C7804EB840404EB8404E4009AE74FF482
:1044F0007A7340460A21F3610FF0FEFC3C7896F88F
:10450000245004EB840404EB8404013DE400EDB288
:104510006BE700BFB096FF1F7098FF1F8C19020059
:10452000A898FF1F2DE9F041674F684D3C7804EBD8
:10453000840404EB8404E40082B004F1D2000FF0A0
:10454000C1FC8DF8060004F1D3000FF0BBFC604BFA
:104550008DF80700BDF806201A60002604F1E0007F
:10456000DE600FF0AFFC8DF8060004F1E1000FF003
:10457000A9FC584B8DF80700BDF806201A6004F11D
:10458000C800DE600FF09EFC8DF8060004F1C90043
:104590000FF098FC8DF80700BDF806302B6004F191
:1045A000CC002E710FF08EFC8DF8060004F1CD00CA
:1045B0000FF088FC04F1CE088DF80700BDF8063036
:1045C000AB6040462E730FF07DFC431EDBB2072B21
:1045D00068D86873002604F1CF00AE730FF072FC48
:1045E000831B18BF012304F1D400EB732E740FF06A
:1045F00069FC831B18BF012304F1D6006B74AE74F1
:104600000FF060FC8DF8060004F1D7000FF05AFCA3
:10461000314D8DF80700BDF806302B6004F1DA004B
:104620002E710FF04FFC8DF8060004F1DB000FF047
:1046300049FC04F1DC088DF80700BDF80630AB60DA
:1046400040462E730FF03EFC431EDBB2072B17D8FB
:104650006873002604F1DD00AE730FF033FC831B9A
:1046600018BF012304F1E200EB732E740FF02AFC53
:10467000801B18BF01206874AE7402B0BDE8F081E1
:10468000042640466E730FF01DFCB042E1D0314667
:1046900040460FF031FC3C7804EB840404EB8404C6
:1046A000E400D6E7042640466E730FF00BFCB042E0
:1046B00090D0314640460FF01FFC3C7804EB840458
:1046C00004EB8404E40085E7B096FF1F7098FF1F99
:1046D000509BFF1F689BFF1FA898FF1F70B5734C6E
:1046E000257805EB850505EB8505ED0005F1D2067E
:1046F00030460FF0E7FB18B1304600210FF0FCFB0D
:10470000D33528460FF0DEFB18B1284600210FF004
:10471000F3FB257805EB850505EB8505ED0005F137
:10472000C80630460FF0CEFB082803D030460821DB
:104730000FF0E2FBC93528460FF0C4FB072803D071
:10474000284607210FF0D8FB257805EB850505EBFA
:104750008505ED0005F1CC0630460FF0B3FBC82807
:1047600003D03046C8210FF0C7FBCD3528460FF0E7
:10477000A9FB18B1284600210FF0BEFB2078C82500
:10478000CE2305FB003004210FF0B6FB2078CF23A9
:1047900005FB003000210FF0AFFB2078D12305FB93
:1047A00000300A210FF0A8FB2078D02305FB003051
:1047B0000A210FF0A1FB2078D42305FB0030002153
:1047C0000FF09AFB257805EB850505EB8505ED00D7
:1047D00005F1E00630460FF075FB18B130460021B8
:1047E0000FF08AFBE13528460FF06CFB18B1284624
:1047F00000210FF081FB257805EB850505EB85058C
:10480000ED0005F1D60630460FF05CFB082803D01A
:10481000304608210FF070FBD73528460FF052FBC9
:10482000072803D0284607210FF066FB257805EB03
:10483000850505EB8505ED0005F1DA0630460FF03C
:1048400041FBC82803D03046C8210FF055FBDB35AB
:1048500028460FF037FB18B1284600210FF04CFB1B
:104860002078C825DC2305FB003004210FF044FB31
:104870002078DD2305FB003000210FF03DFB207880
:10488000DF2305FB00300A210FF036FB2078DE2302
:1048900005FB00300A210FF02FFB2078E22305FBF7
:1048A00000300021BDE870400FF026BBB096FF1F1E
:1048B000F0B5A34CA34E207885B0FFF75BFB2078C2
:1048C000C825642305FB003001210FF015FB20787B
:1048D0009D4A852305FB003076215B236FF0090795
:1048E000176033600FF008FB20783178862305FBD2
:1048F00000300FF001FB2078982305FB00300021E9
:104900000FF0FAFA2078992305FB003000210FF010
:10491000F3FA20789A2305FB00302D210FF0ECFAF2
:1049200020789B2305FB0030B5210FF0E5FA2578B0
:1049300005EB850505EB8505ED0005F1880630469C
:104940000FF0C0FA102803D0304610210FF0D4FA2F
:10495000893528460FF0B6FA0E2803D028460E21D6
:104960000FF0CAFA257805EB850505EB8505ED0006
:1049700005F18A0630460FF0A5FA102803D030461C
:1049800010210FF0B9FA8B3528460FF09BFA0E284C
:1049900003D028460E210FF0AFFA257805EB8505E8
:1049A00005EB8505ED0005F18C0630460FF08AFA1F
:1049B000102803D0304610210FF09EFA8D3528467E
:1049C0000FF080FA0E2803D028460E210FF094FA3B
:1049D000257805EB850505EB8505ED0005F18E06CF
:1049E00030460FF06FFA102803D0304610210FF038
:1049F00083FA8F3528460FF065FA0E2803D0284633
:104A00000E210FF079FA2078C8256F2305FB0030BE
:104A100000210FF071FA20789C2305FB0030002163
:104A20000FF06AFA20786E2305FB003000210FF0AA
:104A300063FA20787A2305FB003064210FF05CFADA
:104A400020787B2305FB003004210FF055FA2078F5
:104A50007C2305FB003010210FF04EFA20787D23D7
:104A600005FB003040210FF047FA2078802305FB3A
:104A7000003003210FF040FA257805EB850505EBA2
:104A80008505ED0005F17E0630460FF01BFA58282B
:104A900003D0304658210FF02FFA7F3528460FF00B
:104AA00011FA022803D0284602210FF025FA2078B7
:104AB000C825812305FB00300A210FF01DFA04A947
:104AC000224B207841F8043DBC2305FB0030FBF766
:104AD00087FF20784FF4947305FB003000210FF01E
:104AE0000BFA20786D2305FB003000210FF004FA4B
:104AF00004A920780026902305FB003041F8086DBA
:104B0000FBF76EFF04A9207841F80C6D942305FB98
:104B10000030FBF765FFFFF7E1FD21780C4B7122B8
:104B200015FB012528461E705E709E700FF0CAF9B5
:104B300018B1314628460FF0DFF905B0F0BD00BFCF
:104B4000B096FF1F589AFF1F1C93FF1F5979F3005F
:104B50001893FF1FFFFFFFFF2DE9F04F002087B0E4
:104B60000FF0B0F98DF80C0001200FF0ABF98DF8C3
:104B70000D0002200FF0A6F98DF80E0003200FF0B3
:104B8000A1F98DF80F00039A914B9A4200F0F18041
:104B900000242046002101340FF0AEF9B4F5006F77
:104BA000F7D18C4CDFF838A200254FF000084FF009
:104BB00000099AF80010EBB27022C82000FB012017
:104BC000194623700FF098F9267806EB460606EB97
:104BD000C60606F10A073846C4E902890FF072F9E1
:104BE00018B1384600210FF087F906F10B07384657
:104BF0000FF068F918B1384600210FF07DF906F181
:104C00000C0738460FF05EF918B1384600210FF056
:104C100073F90D3630460FF055F918B130460021C2
:104C20000FF06AF968A3D3E90023D4E9020116F072
:104C3000DDF806460F4612F0D9FBC4E90C013046F8
:104C4000394612F0A9FC267806EB460606EBC606A6
:104C500006F10E07C4E90E01C4E9048938460FF0D5
:104C600031F918B1384600210FF046F906F10F0767
:104C700038460FF027F918B1384600210FF03CF9FB
:104C800006F1100738460FF01DF918B1384600211B
:104C90000FF032F9113630460FF014F918B13046E2
:104CA00000210FF029F9237803EB430303EBC3063C
:104CB00006F112074FF0000B3846A4F818B00FF0B9
:104CC00001F918B1594638460FF016F91336304637
:104CD0000FF0F8F818B1304600210FF00DF92078E8
:104CE000DFF8F0B00023E3621B26142306FB00303C
:104CF00078210FF001F92A46374903A817F09AFBEB
:104D000003A817F05DFC421C0F2A35D90135022D8E
:104D10007FF44FAF00248AF80040FFF7C9FD01235C
:104D20008AF80030FFF7C4FD20468AF800400FF0F3
:104D3000C9F86A2803D020466A210FF0DDF8012067
:104D40000FF0C0F8542803D0542101200FF0D4F8FC
:104D500002200FF0B7F8022803D0022108460FF016
:104D6000CBF803200FF0AEF818B1002103200FF0AC
:104D7000C3F807B0BDE8F08F5F46009003A90BF1C0
:104D80001A000EF085FF17F819BB152216FB0B232E
:104D900001930026009B0FE017F8011F00910FF010
:104DA00091F800998142584601D00FF0A5F80B48C0
:104DB00017F006FC01360346019AB34202EB060BDC
:104DC0005846E9DAA2E700BF00000020DCA54C400D
:104DD0006A540200B89BFF1F9C190200D29BFF1F60
:104DE000B096FF1FFFFFFFFF2DE9F0475C4E5D4DC2
:104DF000347804EB840404EB8404E40082B004F10E
:104E0000F0000FF05FF8584B04F1E60718703846D1
:104E10000FF058F88DF8040004F1E7000FF052F895
:104E20008DF8050004F1E8000FF04CF88DF806004D
:104E300004F1E9000FF046F88DF80700019816F02C
:104E4000ADFA4A4916F0FEFA15F052FE8046894640
:104E500000220023C5E9008916F01AF9002866D15E
:104E6000404649463CA3D3E9002316F025F9002823
:104E70005DD1002704F1EA002F720FF023F804F14E
:104E8000EB0AC31B18BF012350466B72AF720FF0C1
:104E900019F88DF8040004F1EC000FF013F88DF808
:104EA000050004F1ED000FF00DF88DF8060004F197
:104EB000EE000FF007F88DF8070001982C4D16F062
:104EC0006DFA2A4916F0BEFA15F012FE80468946A0
:104ED00000220023C5E9008916F0DAF838B9404607
:104EE00049461DA3D3E9002316F0E6F888B102A9CC
:104EF00040F2DC5341F8043D5046FBF771FD347835
:104F00001C4B002204EB8404C5E9002304EB840459
:104F1000E40004F1EF0000242C720EF0D3FF001B1C
:104F200018BF01206872AC7202B0BDE8F08702A918
:104F300040F2DC5341F8083D3846FBF751FD347828
:104F40000C4B04EB8404002204EB8404C5E9002329
:104F5000E4008EE7AFF30080000000000020AC40CA
:104F6000B096FF1F609AFF1F3898FF1F0AD7233C97
:104F7000809AFF1F00002E4030B585B004AC64E974
:104F80000423CDE9020122469DF820000D4B099D26
:104F90000A9C02A90CF0E0FD0B49DDE90223D1E9EE
:104FA000040115F0F9FD16F0A7F808492860DDE9BD
:104FB0000023D1E9040115F0EFFD16F09DF8206003
:104FC00005B030BDC09BFF1FF097FF1FA09AFF1FC9
:104FD0002DE9F04F95B0DFF84882209C94F800E06E
:104FE000D1E9004512AF10AEA8F10809D0E90001DF
:104FF00093469A46CDF800E022464FF0000E2B462D
:10500000CDF81080CDF80C90029701960024002571
:10501000CDF824E0CDF82CE0CDE90E45CDE91245E0
:105020000CF042FCDDE91223DDE91001CDE9022399
:10503000CDE900010EAA0CA971480CF071F81F9C73
:105040002478009408AD0AACDDE90E23DDE90C01FB
:1050500002940195FFF790FFDAE90023CDE90623DA
:10506000209B93F800E0DBE90001DDE90623CDF8A1
:1050700000E0CDF80C90CDF81080029701960CF06E
:1050800013FCDDE91267DDE91089CDE902670EAA9C
:105090000CA9CDE900895A480CF042F81F9E3678D9
:1050A000009609AF0BAEDDE90E23DDE90C01029697
:1050B0000197FFF761FF394628460CF081FD15F096
:1050C00005FD504BD3E9042315F090FE05E0404662
:1050D000494600224C4B15F0ADFB00224B4B80465D
:1050E000894615F0CBFF0028F1D10022484B4046FD
:1050F000494615F0D7FF68B1404649460022424B69
:1051000015F096FB0022424B8046894615F0CAFFF7
:105110000028F1D1314620460CF056FD15F0D6FCA2
:105120003C4BD3E9042315F061FE05E020462946F7
:105130000022354B15F07EFB0022344B04460D4611
:1051400015F09CFF0028F1D10022314B2046294662
:1051500015F0A8FF68B12046294600222A4B15F019
:1051600067FB00222A4B04460D4615F09BFF0028E2
:10517000F1D11E99284BD1E90001002215F00CFD58
:1051800002460B461CA1D1E9000115F02FFE0022BA
:1051900006460F46214B4046494615F0FDFC0246A7
:1051A0000B463046394615F0F7FC219BC3E9000158
:1051B0001E99194BD1E90001002215F0EDFC0246C1
:1051C0000B460DA1D1E9000115F010FE00220646A4
:1051D0000F46124B2046294615F0DEFC02460B46D0
:1051E0003046394615F0D8FC229BC3E9000115B0C2
:1051F000BDE8F08FAFF30080000000000020AC405D
:105200006094FF1FF097FF1F00807640008066C00B
:1052100000806640A09AFF1F00002E400000E03F83
:10522000F09BFF1FF0B58BB00AAC0026002764E9A5
:10523000026704ADCDE90223CDE90001224606A9AB
:105240009DF840701248002405AE05940BF068FFED
:10525000DDE90823DDE90601009702960195FFF7D5
:105260008BFE72B60B4F0C4D0498059E38612E6173
:1052700015F02CFCC7E90601304615F027FCC5E9FE
:10528000060162B6054B01201C700BB0F0BD00BFDB
:105290006094FF1F0096FF1F4093FF1FD187FF1FE1
:1052A000F0B58BB00AAC0026002764E902670B4D0D
:1052B000119E6F78129D029406AC019400979DF8A0
:1052C0004040039604950CF0EFFADDE90823DDE990
:1052D00006010094FFF7A6FF0BB0F0BD1893FF1F67
:1052E000624B1B78002B33D1614B1B78002B2FD1E5
:1052F0002DE9F04F5F4E7378413BDBB2142B8BB03E
:1053000037D85D4A22FA03F3DB0732D572B65B4C1D
:10531000236962B65A4D6A6B51428B422CDA4FF0C8
:105320000208584B1A7812B1002190461970737810
:10533000413B142B1DD8DFE803F00C1C1C1C1C1C6B
:105340001C1C1C1C1C1CC11C1C1C1C1CC11C260065
:1053500070474D4B4D49CDF80080D3E90023D1E98A
:105360000001FFF75FFF4A4A4A4B92E803001860CA
:1053700019710BB0BDE8F08F9342CCBF4FF002081B
:105380004FF00108CDE7444B444E1C78444D04EBEC
:10539000840404EB8404E40004F172000EF092FD36
:1053A0008DF8200004F173000EF08CFD8DF82100C3
:1053B00004F174000EF086FD8DF8220004F17500F2
:1053C0000EF080FD8DF82300089815F091FBC6E9DA
:1053D000000104F176000EF075FD8DF8200004F157
:1053E00077000EF06FFD8DF8210004F178000EF0CB
:1053F00069FD8DF8220004F179000EF063FD8DF84F
:105400002300089815F074FBC5E9000172B6254B1E
:10541000186862B6244B984205DDA0F50300A0F59C
:1054200056409842F9DC15F0B9FF204916F0BEF855
:105430001F4916F007F815F05BFB00221D4B15F015
:10544000ABFBD6E9002315F0F3F90CF04DF8CDF8DD
:105450000080D5E90045184B0293A3F108020192A0
:105460002B462246FFF71CFF7DE700BF5098FF1F29
:105470006298FF1FB496FF1F011014004093FF1F96
:10548000A09AFF1F8096FF1F409BFF1F4098FF1FA1
:10549000BC190200009BFF1FB096FF1F9095FF1FD5
:1054A0004898FF1FB897FF1F00D6830000D6034B14
:1054B0000000C04100002E40F09BFF1F684F3B786A
:1054C000002B00F09B8072B6664B186862B6664B84
:1054D000984205DDA0F50300A0F556409842F9DC9E
:1054E00015F05CFF6149DFF89CA116F05FF8604998
:1054F00015F0A8FF15F0FCFA00225E4B15F04CFBEE
:105500005D4BD3E9002315F093F90BF0EDFFDFF8C5
:1055100080E15A4BDFF87CC1CDF810E0AEF1080E07
:10552000D3E900239CF801C0CDF80CE00DF1200E6A
:10553000CDF808E00DF1180ECDF800C0CDF804E06C
:105540000CF0B2F99AF82031BBB9DDE90601DDE9CA
:10555000082372B6D4F810E062B6D5F834C0CCF1A6
:105560000008C64579DBE645CCBF4FF0020E4FF090
:10557000010ECDF800E0FFF755FE72B6DFF818B166
:10558000DBF8100015F0A2FA3D4BD3E9042315F027
:105590002DFC80462069894615F098FAD5E9042348
:1055A00015F024FC62B6DDE90845CDE90401DDE92A
:1055B0000623CDE90289CDE9004532480BF0FCFC19
:1055C0009AF821319BB1304B01221A7072B6DBF888
:1055D000100015F07BFACBE906012C4B186915F089
:1055E00075FA2A4BC3E9060162B600233B70737853
:1055F0004D2B3FF4B8AE0BB0BDE8F08F72B6194B2F
:10560000186862B6184B984205DDA0F50300A0F5B6
:1056100056409842F9DC15F0C1FE14491C4C15F0B7
:10562000C5FF134915F00EFF15F062FA0022114B69
:1056300015F0B2FA104BD3E9002315F0F9F80BF08E
:1056400053FF0E4BCDF80080A4F10805D3E90023E9
:1056500002940195FFF724FEC9E74FF0020E88E798
:10566000F995FF1FB897FF1F00D6830000D6034BA4
:105670000000C04100002E409095FF1F4898FF1F7A
:10568000F097FF1F6094FF1FFA95FF1F4093FF1FC5
:10569000F09BFF1F1893FF1F0096FF1FF0B50446F5
:1056A00085B00D4672B6114B186915F00FFA104B04
:1056B000D3E9042315F09AFB0E4B064618690F46F2
:1056C00015F004FA0C4BD3E9042315F08FFB0246C6
:1056D0000B4662B60948CDE90223CDE900672A46A8
:1056E00021460BF0A9FD012005B0F0BD0096FF1F7B
:1056F000F097FF1F4093FF1FA09AFF1F6094FF1FAA
:105700002DE9F04488B008AD0026002765E902675E
:1057100004460E4604A829469A4617469DF8385076
:10572000FFF7BCFF1E4B5B78002B2FD0DDE9062373
:10573000DDE904018DE8D0040CF0A2F915BB72B6C6
:10574000184B186862B6184B984205DDA0F50300A7
:10575000A0F556409842F9DC15F020FE134915F0EB
:1057600025FF134915F06EFE15F0C2F90022114B0A
:1057700015F012FAD4E9002315F05AF80BF0E8FE00
:10578000C4E90001012008B0BDE8F084DDE906238A
:10579000DDE904018DE8D0040CF0B6F8CEE700BFD7
:1057A0001893FF1FB897FF1F00D6830000D6034B46
:1057B0000000C04100002E402DE9F041634CA37869
:1057C000413B94B0312B00F2EA82DFE813F0400055
:1057D000E802E802A200C500E802E802E8020F01C0
:1057E000C701E802E001FE01E80231026D02E802B1
:1057F0009402E802DE02E802E802E802E802E802B7
:10580000E802E802E802E802E802E802E802E80248
:10581000E802E802E802E802E802E802E802E80238
:10582000E802E802E802E802E802E802E802E80228
:105830003200E378702B01F05F80742B00F0BE82A1
:10584000672B01F0C780424B23221A80AAE2414A0B
:10585000127800230793089309930A930B930C93F0
:105860000D930E931093002A41F07580E278A2F117
:1058700030034A2B00F29A87DFE813F0C506BA0618
:105880000907FE063507F3061F0714072A079807BE
:105890009807980798079807980798079807980710
:1058A0009807980798079807980798079807980700
:1058B00098079807980798079807980798079807F0
:1058C00098079807980798079807980798079807E0
:1058D0009807980798079807980798079807DD068C
:1058E0009807D00698079807980798079807980789
:1058F00098079807980798079807980798079807B0
:1059000098079807980798079807DD06980798075B
:10591000DD06E378423B152B00F23084DFE813F01C
:1059200068032E042E042E042E042E042E042E04AE
:105930002E042E042E042E042E042E045B032E04AB
:1059400050032E042E042E042E043B03B496FF1F96
:10595000009BFF1FFA95FF1FE278A2F13103412B54
:1059600000F2CC86DFE813F0A703A703CA06CA0635
:10597000CA06CA06CA06CA06CA06CA06CA06CA06A7
:10598000CA06CA06CA06CA06F003CA06CA06D6036B
:10599000CA06CA06CA06CA06CA06CA06CA06CA0687
:1059A000CA06CA06CF03C403CA06D603CA06CA0675
:1059B000CA06CA06CA06CA06CA06F003CA06CA0644
:1059C000CA06CA06CA06CA06CA06CA06CA06CA0657
:1059D000CA06CA06CA06CA06CA06CA06CA06CA0647
:1059E000CA06CA06CA06CA06CA06FD0372B6984D9A
:1059F000286962B6974B5B6B5A42904280F2D58120
:105A00000220954B202103F1320203F8011F9A4234
:105A1000FBD1924C924A9349934B12782778934E3C
:105A2000934C09781B783F5D3678924C183201EB25
:105A30004202303322706370A7700EB14823E370C6
:105A40008D4B8E4A1B7812788A4930332371002A95
:105A500000F0458740234B71894B1A78884B012A07
:105A600000F046871A78022A00F042871A78032A43
:105A700000F0D0871B78042B04BF2D23A371814B2A
:105A80001A7C022A00F083871A7CFE2A00F0AC8779
:105A90001A7CFF2A00F09A871B7C012B00F0968766
:105AA000794B02281A7C00F07A87022A00F073876B
:105AB0001A7CFE2A00F079871A7CFF2A00F0828780
:105AC0001B7C012B00F07E87704B5B780BB96B78E9
:105AD0000BB1662363726E4B664D1B78DA1E302164
