:1000000000800020BD010000554A01000D4A01009A
:100010000D4A01000D4A01000D4A01000D4A010080
:100020000D4A01000D4A01000D4A0100554A010028
:10003000554A01000D4A0100C5740100C974010050
:10004000554A0100554A0100554A0100554A010030
:10005000554A0100554A0100554A0100554A010020
:10006000554A0100554A0100554A0100554A010010
:10007000554A0100554A0100554A0100554A010000
:10008000554A0100554A0100554A0100554A0100F0
:10009000554A0100554A0100554A0100554A0100E0
:1000A000554A0100554A0100554A0100554A0100D0
:1000B000554A0100554A0100554A0100554A0100C0
:1000C000554A0100554A0100554A0100554A0100B0
:1000D000554A0100554A0100554A0100554A0100A0
:1000E000554A0100554A0100554A0100554A010090
:1000F000554A01001D590100554A01005D62010089
:10010000554A0100CD640100554A0100554A0100DD
:10011000554A0100554A0100554A0100554A01005F
:10012000554A0100554A0100554A0100554A01004F
:10013000554A0100554A0100554A0100554A01003F
:10014000554A0100554A0100554A0100554A01002F
:1001500035780100497801005D780100717801006F
:10016000554A01006D670100554A0100554A0100DA
:10017000554A0100554A0100554A0100554A0100FF
:10018000554A0100554A0100554A0100554A0100EF
:10019000554A0100554A0100554A0100554A0100DF
:1001A000554A0100554A0100554A0100554A0100CF
:1001B000554A0100554A0100554A0100564B4CF280
:1001C000205210B51A804DF628121A8000BF00BFC9
:1001D00014F044FC514B4FF010621A60504A9A6080
:1001E000504ADA60504A136813F4807304D14F49BF
:1001F0000B604FF4A85313604D4B1A78110703D5C9
:100200001A7842F008021A704A4B4B492A221A7097
:100210004A4A4B4B8B4204D252F8040F43F8040B6A
:10022000F8E7484B484900228B4202D243F8042B9E
:10023000FAE74649464A002352F8230041F82300D2
:1002400001336F2BF8D1434B434A802103F8011B44
:100250009342FBD1414B3D4A1A60414B8A221A70AE
:10026000A3F5805324225A70A0221A709A7992071B
:10027000FCD59A79D406FCD43A4A937903F00C035E
:10028000082B384BF9D103221A7140225A719A79FE
:100290009006FCD5334A9179324B4906FBD5324A58
:1002A000324911600221516020221A709A7902F0BD
:1002B0000C020C2AFAD12E4B2E4A1A602E4B2F4AD2
:1002C0001A6000225A60072243F8042C2C4AC3F813
:1002D0000C2D62B614F05EFE144B1B68DA0705D5D0
:1002E000284814F043FE284B284A1A60284B1B78F4
:1002F0005B0609D5244C254B22689A4204D121483B
:1003000014F034FE0023236014F0AEFB1BF090FDCC
:1003100017F0BAFAFEE700BF0E2005403080044017
:10032000823F04000100002B10D0034014D0034092
:1003300002D0074000E007400893FF1F302A020068
:100340002087FF1F0893FF1F1C9FFF1F0082FF1FB6
:100350000000000000E400E05FE400E008ED00E0E1
:100360000050064000400640448004400000030165
:1003700004800440C010050014E000E0FF76010096
:1003800000002020ABBB75641CE00340A5C3945A59
:1003900000F00740FFFFFFFFFFFFFFFFFFFFFFFF32
:1003A000FFFFFFFFFFFFFFFFFFFFFFFFFFFFFFFF5D
:1003B000FFFFFFFFFFFFFFFFFFFFFFFFFFFFFFFF4D
:1003C000FFFFFFFFFFFFFFFFFFFFFFFFFFFFFFFF3D
:1003D000FFFFFFFFFFFFFFFFFFFFFFFFFFFFFFFF2D
:1003E000FFFFFFFFFFFFFFFFFFFFFFFFFFFFFFFF1D
:1003F000FFFFFFFFFFFFFFFFFFFFFFFFFFFFFFFF0D
:10040000FFFFFFFFFFFFFFFFFFFFFFFFDEF9FFFF23
:1004100010B5054C237833B9044B13B10448AFF33E
:1004200000800123237010BD0893FF1F000000000F
:100430002C2A0200084B10B51BB108490848AFF33D
:1004400000800848036803B910BD074B002BFBD0A0
:10045000BDE81040184700BF000000000C93FF1FCC
:100460002C2A02000893FF1F0000000014F078BD42
:1004700010B5044617F0BCF9204610BD10B582B087
:10048000044614F081FA8DF80600601C14F07CFA22
:100490008DF80700BDF8060002B010BD38B50C4657
:1004A000054614F071FA2070681C14F06DFA607043
:1004B000A81C14F069FAA070E81C14F065FAE0704A
:1004C00038BD00BF3B4A70B501233B4D13602A780D
:1004D000002A3CD0394E0023337072B6384CD4E930
:1004E00006011BF0C1F82369C01A206262B6236AB4
:1004F000344A002B33D0236A33493148C97B002B5F
:10050000D4BF0023012384F8283000292BD12F4B9E
:1005100090F828101B7899422BD02D4B4FF4805126
:10052000196094F82830264903F0FF00002B2BD0E7
:10053000D0685268234B904230DADA6801210A44CD
:10054000DA6019720123337000232B7070BD1B4ACF
:1005500012780AB11F4A136001232B7070BD137A01
:10056000002BC8D1F0E7194B90F828101B7899425E
:10057000D3D0194B4FF48051196094F828301049AA
:1005800003F0FF00002BD3D1D2680E4B002A0BDD05
:10059000DA680121013ADA601972D3E700221A728F
:1005A0000B6901330B61CDE718720B69013B0B61DD
:1005B000C8E700BFC8F00F402487FF1FA195FF1FA9
:1005C000D895FF1F489BFF1F6098FF1FD496FF1F01
:1005D00008F00F40C4F00F4004F00F40364A70B5E9
:1005E0001023364D13602A78002A36D0344E00236B
:1005F000337072B6334CD4E906011BF035F8236929
:10060000C01A206262B6236A2F4A002B2DD0236ABB
:100610002E492C48C97B002BD4BF0023012384F82A
:10062000283031BB90F828303BB3294B04211960A6
:1006300094F82830234903F0FF0043B3D068526890
:10064000214B90422DDADA6801210A44DA601972EE
:100650000123337000232B7070BD194A12780AB140
:100660001B4A136001232B7070BD137A002BCED16F
:10067000F0E790F82830002BD7D00F4B04211960F9
:1006800094F828300F4903F0FF00002BD6D1D26830
:100690000D4B002A0BDDDA680121013ADA6019728C
:1006A000D6E700221A720B6901330B61D0E718728A
:1006B0000B69013B0B61CBE7C8F00F405087FF1F70
:1006C000999BFF1F4093FF1F609BFF1F9898FF1F80
:1006D000C4F00F402DE9F043147A83B034B1D2E96D
:1006E00004670A9D0124C3E900672C70274C247815
:1006F000002C3ED0264C2478002C3AD1127A002AC5
:1007000037D10A9A1278002A33D0027C002A30D1DD
:100710001D460C4672B6D1E906011AF0A5FF236901
:10072000C01A206262B6236A0193019B002B2ADD66
:1007300001981AF083FC8046A06E89461AF07EFC70
:10074000D4E918231AF0E0FC0022124B06460F46AB
:100750001AF060FF08B90F4F002632463B4640466C
:1007600049461AF043FF38B172B60A9A0023137053
:1007700062B603B0BDE8F08372B6D4E91223C5E9CE
:10078000002362B6F5E701984042D2E7D198FF1FF7
:100790005896FF1F0000F03F037C022B04BF01238B
:1007A0000374037CFE2B04BFFF230374704700BF58
:1007B000014B31221A807047F89AFF1F10B4064B84
:1007C000064A1878C8246F21002304FB001019463C
:1007D00010BC137014F0F2B88496FF1FA895FF1F89
:1007E00010B5084B084A18786E210023C82404FB72
:1007F00000101946137014F0E1F8044B01221A702E
:1008000010BD00BF8496FF1F5098FF1FD198FF1F97
:100810002DE9F0475D4C5E4D5E495F4E2D7894F8B2
:1008200000E009783478002D08BFBEF1000F0CBF3E
:1008300001250025C9B224B13478042C01D0BDE8CB
:10084000F0878D42FBD91D461746044619461046CF
:10085000002300221AF0C0FE00284ED13378042B6A
:1008600004D04E4B4E4A197811701870237C5BB23D
:10087000002B74DDD4E9028900220023404649465A
:100880001AF0C8FE4FF0010A00284BD05FFA8AFA2E
:10089000237C73B100233846294600221AF0C4FE97
:1008A0004FF0010300B9034683F00103DBB29A4520
:1008B0001AD038462946002200231AF0B5FE002837
:1008C00055D03846294642464B461AF085FE58B365
:1008D0000423337002232374324A00214FF0FF3384
:1008E00011702360BDE8F08700224FF0804340463E
:1008F00049461AF099FE0028DBD0237C022B02D057
:10090000237CFE2B9BD12046BDE8F047FFF744BF78
:1009100000220023404649461AF072FE4FF0010AB9
:100920000028B3D18246B1E7AA463A465346C4E905
:10093000022372B6216AD4E90223D1E900011AF038
:10094000E3FBC4E9060162B62946042538460022C5
:10095000002335701AF068FE0028BBD113E0237C19
:100960001B06D4E90289D3D44FF0010A90E705F1C0
:10097000004A3846514642464B461AF02DFE0028A2
:10098000D3D004233370FE232374A5E77095FF1F93
:100990005098FF1F5896FF1FC693FF1FD198FF1F47
:1009A000D596FF1FE887FF1F30B583B0CDB2019108
:1009B000044613F0E9FF854203D02946204613F090
:1009C000FDFF0134204613F0DFFF9DF805508542FE
:1009D00003D02946204613F0F1FF03B030BD00BF1D
:1009E000F8B50D460E78044613F0CEFF864203D0CC
:1009F0003146204613F0E2FF661C304613F0C4FF78
:100A00006F78874203D03946304613F0D7FFA61CD3
:100A1000304613F0B9FFAF78874203D039463046ED
:100A200013F0CCFF0334204613F0AEFFED7885427F
:100A300005D029462046BDE8F84013F0BFBFF8BDF9
:100A40002DE9F047474B484F484E82B00022012520
:100A50000A201A703D70357014F054FB444B1C781A
:100A600004EB840404EB8404E40004F1650013F057
:100A70008BFF8DF8040004F1660013F085FF8DF8FC
:100A8000050004F1670013F07FFF8DF8060004F104
:100A9000680013F079FF8DF8070004F1690013F086
:100AA00073FFDDF804A08DF8040004F16A0013F070
:100AB0006BFF8DF8050004F16B0013F065FF8DF8F6
:100AC000060004F16C0013F05FFF2A4B8DF807005D
:100AD000587B019C1AF0A2FA02460B4600204FF008
:100AE000804117F0E5F98046894650461AF0A6FA8B
:100AF00042464B461AF008FB1AF0B6FD1E4B8246E2
:100B0000587B1AF08BFA02460B4600204FF08041CA
:100B100017F0CEF98046894620461AF08FFA4246F1
:100B20004B461AF0F1FA1AF09FFD044672B6504691
:100B3000C7F810A01AF082FAC7E90601204634610E
:100B40001AF07CFAC6E9060162B60C4A0C4B127820
:100B5000AA420CBF0222002228461A7002B0BDE849
:100B6000F08700BFE887FF1FD895FF1F4093FF1F46
:100B70008496FF1F6098FF1F9898FF1FC087FF1F74
:100B8000089AFF1FFFFFFFFF10B54B4C4B4994F82D
:100B90002430013BDAB20120032A08702DD84849DD
:100BA000E06951F82220904228BF1046032B10D84C
:100BB000DFE803F068025A6D1AF030FA3CA3D3E97B
:100BC00000231AF0CBFB1AF077FD81B2E06A13F034
:100BD000A9F93C4C94F82430013BDAB2032A0ED830
:100BE0003749E06951F82220904228BF1046032B74
:100BF0005BD8DFE803F02415062A0020D6E70020A2
:100C0000F5E71AF00BFA2AA3D3E900231AF0A6FBA2
:100C10001AF052FD81B2206BBDE8104013F008B805
:100C20001AF0FCF922A3D3E900231AF097FB1AF07B
:100C300043FD81B2E06ABDE8104013F073B901468C
:100C4000A06ABDE8104012F09FB81AF0E7F918A3A7
:100C5000D3E900231AF082FB1AF02EFD81B2606BFB
:100C6000BDE8104013F0E6B81AF0D8F910A3D3E9A4
:100C700000231AF073FB1AF01FFD81B2206B12F0F3
:100C8000D7FFA6E70146A06A12F07EF8A1E71AF0A6
:100C9000C5F907A3D3E900231AF060FB1AF00CFD95
:100CA00081B2606B13F0C6F893E710BDAFF300801C
:100CB000CD3B7F669EA0F63F6098FF1FD093FF1F3D
:100CC000D41F02009898FF1FF8B52F4B2F4C304DC2
:100CD0001E783049DFF8E8C0DFF8E8E0012384F847
:100CE000283085F82830D5E90E23C5E91423D4E946
:100CF0000E23C8276E2017FB0606274FC4E91423CE
:100D000000230022C1E90023C7E900232349CCE9DD
:100D10000023CEE90023224B002730460F701F70BE
:100D200013F032FE18B13946304613F047FE1D4825
:100D30001D4B1E491E4A4668586800230B740B6001
:100D400013744B606E6113605360606172B66869C2
:100D50001AF074F9C5E906016B692B6160691AF034
:100D60006DF9C4E906016369236162B6114B1B7812
:100D700033B1114A114B0021012011701870F8BDD8
:100D8000FFF702FFF5E700BF8496FF1F4093FF1FA8
:100D9000D895FF1F6895FF1F4098FF1F7095FF1F94
:100DA0005098FF1FE897FF1F909AFF1FE093FF1FC7
:100DB0007895FF1FD093FF1FD198FF1FE887FF1F73
:100DC0004898FF1F389BFF1F10B5494C494994F8BC
:100DD0002430013BDAB20020032A087006D84649C5
:100DE000606951F82220904228BF1046032B10D88A
:100DF000DFE803F06602586B1AF010F93AA3D3E962
:100E000000231AF0ABFA1AF057FC81B2E06A13F033
:100E100089F83A4C94F82430013BDAB2032A0CD812
:100E20003549606951F82220904228BF1046032BB3
:100E300059D8DFE803F0221304280020F7E71AF05E
:100E4000EDF829A3D3E900231AF088FA1AF034FC4C
:100E500081B2206BBDE8104012F0EABE1AF0DEF855
:100E600021A3D3E900231AF079FA1AF025FC81B204
:100E7000E06ABDE8104013F055B80146A06ABDE82D
:100E8000104011F081BF1AF0C9F817A3D3E900236D
:100E90001AF064FA1AF010FC81B2606BBDE81040E1
:100EA00012F0C8BF1AF0BAF80FA3D3E900231AF062
:100EB00055FA1AF001FC81B2206B12F0B9FEA8E7D6
:100EC0000146A06A11F060FFA3E71AF0A7F806A395
:100ED000D3E900231AF042FA1AF0EEFB81B2606BFC
:100EE00012F0A8FF95E710BDCD3B7F669EA0F63FB0
:100EF0006098FF1FD093FF1FD41F02009898FF1F18
:100F00002DE9F047D1E910678AB0CDE90467127A7C
:100F1000139D0C4622B99846037C8246002B34D19F
:100F2000D5E90001D4E9162319F03CFF024621F06F
:100F30000043CDE90623DDE90667002200233046A1
:100F400039461AF049FB002840F0638132463B469F
:100F5000D4E90E011AF002FA06460F4602460B4685
:100F6000DDE916011AF060FB002800F035813246F9
:100F70003B46DDE914011AF043FB002800F029810B
:100F8000C4E914670AB0BDE8F087D0E90267DDE97B
:100F90000423304639461AF029FB002840F01F810F
:100FA000A14B1B78002B40F0BA819AF81030DFF883
:100FB000849219064CBF9D4B9D4B0022C9E900232A
:100FC0009AF81030FF2B00F037819AF81030012B7F
:100FD00000F03281D4E902231046194619F0E2FEEE
:100FE000D9E900678EA3D3E900231AF08DF83246C1
:100FF0003B461AF089F8D5E90067D8E900231AF0D2
:10100000ADF932463B4619F0CDFEC5E90001D5E900
:101010000001002200231AF0E9FA002840F085813F
:10102000DDE90401D5E900231AF0F4FA002800F004
:10103000748104ABD3E90023C5E900239AF810308A
:101040005BB2002B40F3B981DAE90267D5E9000110
:1010500032463B461AF0E8FA08B9D5E90067C5E917
:1010600000679AF81030FF2B04D09AF81030012B4B
:101070007FF456AFD5E90023CDE90823DDE9080167
:10108000002200231AF0D0FA002800F00A81DDE9DE
:101090000823DDE904011AF0A9FA002800F007810D
:1010A00072B6D4E906011AF0DFFA2369C01A206289
:1010B00062B6D4E91423D4E91C011AF04FF90246B0
:1010C0000B461AF021F8D4E9028906460F4642463B
:1010D0004B464046494619F065FE0B4602463946E6
:1010E00030461AF03BF91AF0BFFA236A002B064685
:1010F000C0F2118172B62069304419F09FFFC4E933
:101100000601266262B6236A0293029B0298002BB4
:10111000D8BF404219F092FF8046A06E894619F070
:101120008DFFD4E9182319F0EFFF0022404B06464B
:101130000F461AF06FFA002800F0F48032463B4662
:10114000404649461AF052FA00283FF4E9AE002121
:10115000002200238AF81010C5E9002372B6129B02
:10116000D3E906011AF080FA129B1B69C01A129B80
:10117000186262B6129B1B6A0193019B0198002BB7
:10118000D8BF404219F05AFF129B0646986E0F4690
:1011900019F054FF129BD3E9182319F0B5FF002270
:1011A000234B804689461AF035FA002800F0158155
:1011B00042464B46304639461AF018FA00283FF4AA
:1011C000AFAE194B1B78002B7FF4AAAEFFF7DCFC07
:1011D000A6E6DDE91467D3E6DDE91667C7E6D5E9DB
:1011E0000023104623F00041DDE904231AF0FEF944
:1011F00000283FF4D5AE9AF810305BB2002B3FF7D1
:101200002EAF9AF81030180600F1D3800026002780
:1012100025E7DDE91623C4E914230AB0BDE8F08709
:1012200000000040E17A843FD093FF1F0000F0BF30
:101230000000F03FB095FF1FD4E902231046194685
:1012400019F0B0FDD9E9006767A3D3E9002319F0CD
:101250005BFF32463B4619F057FFD8E900231AF0EE
:101260007DF8D5E9006702460B463046394619F04D
:1012700097FDC5E900010022D9E900015C4B1AF095
:10128000ABF9002870D0D5E90001DDE904231AF09C
:10129000C1F900287CD104ABD3E90023C5E90023C0
:1012A000B5E6DDE90801024601F10043F1E672B658
:1012B000D4E906011AF0D8F92369C01A206262B68F
:1012C000D4E91423D4E91C011AF048F802460B466D
:1012D000D4E9028919F018FF424606460F464B46EC
:1012E0004046494619F05EFD0B46024639463046F7
:1012F0001AF034F81AF0B8F9236A0393039B002B11
:10130000039BD8BF5B4298420646BFF6FCAE236AF9
:10131000002BBFF6EFAE7642ECE62B468AE6FFF7EF
:1013200053FD42E60026324F08E7DDE9042303F1CE
:101330000047164610463946D5E900231AF056F9FB
:1013400018B3C5E900679AF810305BB2002B21DDB5
:10135000DAE90267D5E9000132463B461AF050F956
:1013600000287FF47CAE78E6DDE9042303F1004732
:10137000164610463946D5E900231AF055F908B14A
:10138000D5E90067C5E9006741E6D5E90067D8E718
:101390002B4681E79AF810301A064FF000064FF0FE
:1013A0000007D7D5DAF80C30DAF8086003F1004707
:1013B000D0E707F100431F4651E69AF810301B06AC
:1013C0004FF000064FF000077FF540AEDAF80C3022
:1013D000DAF8086003F1004738E64FF00008DFF85C
:1013E0001090E5E6AFF3008000000040E17A843F12
:1013F0000000F03F5E4A5F4913682DE9F043013376
:1014000013600B788BB0002B70D05B4C5B4D5C4A4B
:10141000D4E914010AAB5B4C63E90201009256491E
:10142000594A5A48FFF756F9DDE90801D4E9002383
:101430001AF0D2F808BB0022554BDDE9080119F07B
:1014400063FE1AF059F9002106461AF05BFC80B9D8
:10145000504930461AF06AFC58B94F4930461AF0E4
:10146000A9FA4FF07C511AF09BF91AF0A5FC232839
:1014700072D8DDE90823C4E90023D5E914010AABD9
:10148000464A474C63E9040100923C49454A4648B4
:10149000FFF720F9DDE90601D4E900231AF09CF8F2
:1014A00008BB00223A4BDDE9060119F02DFE1AF0C7
:1014B00023F9002105461AF025FC80B93549284654
:1014C0001AF034FC58B9344928461AF073FA4FF030
:1014D0007C511AF065F91AF06FFC232842D8DDE937
:1014E0000623C4E900230BB0BDE8F0832F4A30493E
:1014F000304B0191D2E90001D3E900231E4C234E69
:101500001E4D0095CDE90401CDE902232146304668
:10151000294B1D4A244FFFF7F3FC284B2849009420
:10152000D1E90001D3E90089264A0192CDE90201FF
:10153000254B1C4ACDE9048929463846FFF7E0FCD3
:10154000337C002B7FF463AF3B7C5BB2002B7FF4DA
:101550005EAF1E4A13705AE71D4B1B68002B88D0E4
:10156000186086E71B4B1B68002BB8D01860B6E7E5
:10157000B097FF1F5896FF1FD895FF1F4093FF1F7E
:10158000C493FF1F109AFF1F489BFF1FE093FF1F8C
:101590000000E03FABAAAA4C000040426095FF1F4C
:1015A000189AFF1F609BFF1F7895FF1FC887FF1FBA
:1015B000C895FF1F4087FF1F0898FF1FD087FF1F98
:1015C0004887FF1FC893FF1FB09AFF1FC693FF1FD6
:1015D0003093FF1F3893FF1F2DE9F04F8FB00EAFF0
:1015E000DDE91C451A9E07F8086DC0E90C45189EF8
:1015F00003904E318DF835203846199A8DF83120F8
:101600008DF834308DF836108DF8326011F028F8EE
:10161000D94904461E981AF0CDF91AF0A7FB0444E4
:10162000204613F0A3FC204611F04AF913F098FC71
:10163000044611F005F80646204610F0F3FF054673
:10164000204610F0E1FF6B1E012B98BF06F1FF361C
:101650008246304698BF0C351AF058F9C749834680
:101660001AF05CFA19F0FCFC16F0CEFA80468946B6
:101670005846C3491AF052FA19F0F2FC16F0C4FAAF
:1016800006460F465846BF491AF094F919F0E8FC8F
:1016900016F0BAFACDE9000128461AF037F94FF0F2
:1016A0007E511AF07FF8B8491AF084F919F0D8FC85
:1016B00016F0AAFA4246CDE904014B4600204FF04D
:1016C000804119F06DFB32463B4619F06BFBDDE9BA
:1016D000002319F067FBDDE9042319F063FB0646DC
:1016E00050460F4619F0AAFC02460B4630463946D2
:1016F00019F058FB8CA3D3E9002319F053FB824661
:1017000020468B4610F056FF0646204610F060FF3C
:101710001AF0FCF89D491AF001FA054630461AF015
:10172000F5F8014628461AF03DF80546204610F027
:101730005DFF1AF0EBF890491AF0F0F929461AF01B
:1017400031F819F08DFC0022CDE90001904B504694
:10175000594619F027FB16F057FA75A3D3E9002371
:1017600004460D4619F060FF68B373A3D3E9002364
:101770002046294619F014FB71A3D3E9002319F080
:10178000EDFD19F071FF19F059FC002206460F46D5
:10179000804B2046294619F005FB32463B4619F09E
:1017A00001FB002204460D467B4B3046394619F0BA
:1017B000ABFC16F029FA02460B462046294619F0E2
:1017C000EFFA04460D46204629465FA3D3E90023DD
:1017D00019F0E8FA5EA3D3E9002304460D4619F098
:1017E000DFFA5DA3D3E9002319F0B8FD16F00CFA77
:1017F00059A3D3E90023CDE9040119F085FC16F0C3
:1018000003FA02460B462046294619F0C9FA54A3AA
:10181000D3E900238046894619F0A0FD16F0F4F9BB
:101820004FA3D3E9002304460D4619F06DFC16F0D2
:10183000EBF9002206460F4600234046494619F0C0
:10184000B1FA32463B4619F0ABFA16F0DDF919F061
:101850000BFF00220646514B2046294619F0C6FED2
:10186000002800F0608200224A4B2046294619F0E9
:1018700097FA16F0C9F919F0F7FE044620461AF057
:1018800045F8474905461AF051FA002840F05782BA
:1018900035A3D3E90023DDE9040119F081FA16F03C
:1018A000B3F919F0E1FE0746631E012B05D804F1D8
:1018B0000C001AF02BF8013F054638461AF026F8BE
:1018C0002E4904461AF02AF919F0CAFB16F09CF9C1
:1018D000CDE9040120462A491AF020F919F0C0FB8D
:1018E00016F092F9CDE90601204626491AF062F871
:1018F00019F0B6FB16F088F9CDE9080128464FF03B
:101900007E5119F04FFF20491AF054F819F0A8FB46
:1019100016F07AF916A3D3E90023CDE90A0150465F
:1019200059463FE0AFF3008000000080A2423A41F8
:10193000000000008C8A414100000040D07D3C4105
:101940000000000088D5E1400000000000D0974072
:101950000000006066865E400000000000D4764013
:1019600000000020A0993E4000000000006BB24043
:10197000000000802CB44241000061450000C842D4
:101980000000C84300A0B64301CDF44100007042FE
:101990000000E03F0000F03F0000D03F00002B407F
:1019A0000000204019F0FCF9002204460D46C04B0F
:1019B000DDE9000119F0D2FC02460B46204629461B
:1019C00019F0F0F99AA3D3E9002382468B4619F067
:1019D000C5FCDDE904238046894600204FF08041A4
:1019E00019F0DEF9DDE9062319F0DCF9DDE9082359
:1019F00019F0D8F9DDE90A2319F0D4F90446304684
:101A00000D4619F01BFB02460B462046294619F0ED
:101A1000C9F989A3D3E9002319F0C4F988A3D3E94C
:101A2000002319F0BDF988A3D3E9002319F06CFB5A
:101A300087A3D3E9002319F0B5F905E0204629462C
:101A400000229B4B19F0ACF90022994B04460D463D
:101A500019F0E0FD0028F1D100220023204629469C
:101A600019F0C4FD68B1204629460022904B19F0B8
:101A700099F90022002304460D4619F0B7FD00280D
:101A8000F1D175A3D3E90023DDE9000119F03CFB96
:101A900022462B4619F086F971A3D3E900230446A8
:101AA0000D464046494619F02FFB42464B4619F079
:101AB0002BFB22462B4619F075F905E020462946F6
:101AC00000227B4B19F06CF90022794B04460D463D
:101AD00019F0A0FD0028F1D100220023204629465C
:101AE00019F084FD68B1204629460022704B19F098
:101AF00059F90022002304460D4619F077FD00280D
:101B0000F1D159A3D3E900235046594619F0FCFA04
:101B100002460B4656A1D1E9000119F041F956A33E
:101B2000D3E9002319F01AFC16F0F6F854A3D3E910
:101B3000002306460F465046594619F0E5FA52A3CF
:101B4000D3E9002319F02EF902460B4619F02AF9C1
:101B500049A3D3E9002319F001FC16F0DDF84CA3EA
:101B6000D3E90023804689465046594619F0CCFAFD
:101B700002460B4648A1D1E9000119F011F93EA334
:101B8000D3E9002319F0EAFB15F0F2FF44A3D3E9EF
:101B9000002382468B463046394619F0B5FA42A3F7
:101BA000D3E9002306460F464046494619F0ACFAF1
:101BB00002460B463046394619F0F2F852465B466B
:101BC00019F0A2FA22462B4619F0ECF805E020465F
:101BD00029460022364B19F0E3F80022344B044624
:101BE0000D4619F017FD0028F1D1002200232046F0
:101BF000294619F0FBFC68B12046294600222C4BEF
:101C000019F0D0F80022002304460D4619F0EEFC2E
:101C10000028F1D10399274B0022D1E90C0119F0DA
:101C20009DFB02460B462046294649E0AFF3008063
:101C300000000000A0D5E14000000080A2423A412F
:101C4000000000802CB44241000000E05BD2B03FB5
:101C5000000000801CCA1A40000000E0360BF03F74
:101C6000000000605243FB3E00000060C91CAB3F17
:101C7000000000608F425F4000000020DCA54C4067
:101C8000000000E0718AEF3F00000020858771406E
:101C9000000000A0F2D79A3E0000000076703740A6
:101CA000000000A0EEE734BF00000080732AF93E78
:101CB0000000384000002E402B4B204629460022D1
:101CC00019F06EF80022284B04460D4619F0A2FCCC
:101CD0000028F1D1002200232046294619F086FC75
:101CE00068B12046294600221F4B19F05BF80022FC
:101CF000002304460D4619F079FC0028F1D1204656
:101D000029460022184B19F029FB13A3D3E900231D
:101D100019F0FAF919F0A8FC72B6039B186062B6C4
:101D20000FB0BDE8F08F0022104B2046294619F075
:101D300037F815F069FF19F097FC04469EE508A3F3
:101D4000D3E90023DDE9040119F02AF815F05CFF5E
:101D500019F08AFC0746A7E500000000C07A604140
:101D600000000000006CB2400000384000002A4033
:101D70002DE9F04F8DB0039013F0F2F8044610F007
:101D80005FFC0646204610F04DFC0546204610F04C
:101D90003BFC6B1E012B98BF06F1FF368246304696
:101DA00098BF0C3519F0B2FDD749834619F0B6FE3D
:101DB00019F056F915F028FF804689465846D34950
:101DC00019F0ACFE19F04CF915F01EFF06460F464F
:101DD0005846CF4919F0EEFD19F042F915F014FFFD
:101DE000CDE90001284619F091FD4FF07E5119F020
:101DF000D9FCC84919F0DEFD19F032F915F004FFDD
:101E00004246CDE904014B4600204FF0804118F0D6
:101E1000C7FF32463B4618F0C5FFDDE9002318F046
:101E2000C1FFDDE9042318F0BDFF064650460F460A
:101E300019F004F902460B463046394618F0B2FF55
:101E40009BA3D3E9002318F0ADFF824620468B46C2
:101E500010F0B0FB0646204610F0BAFB19F056FD14
:101E6000AD4919F05BFE0546304619F04FFD0146BD
:101E7000284619F097FC0546204610F0B7FB19F0EC
:101E800045FDA64919F04AFE294619F08BFC19F0C8
:101E9000E7F80022CDE90001A14B5046594618F061
:101EA00081FF15F0B1FE84A3D3E9002304460D465B
:101EB00019F0BAFB68B382A3D3E900232046294670
:101EC00018F06EFF80A3D3E9002319F047FA19F048
:101ED000CBFB19F0B3F8002206460F46914B204683
:101EE000294618F05FFF32463B4618F05BFF0022A0
:101EF00004460D468C4B3046394619F005F915F06D
:101F000083FE02460B462046294618F049FF044648
:101F10000D46204629466EA3D3E9002318F042FF60
:101F20006DA3D3E9002304460D4618F039FF6CA3D6
:101F3000D3E9002319F012FA15F066FE68A3D3E97D
:101F40000023CDE9040119F0DFF815F05DFE02462B
:101F50000B462046294618F023FF63A3D3E900234C
:101F60008046894619F0FAF915F04EFE5EA3D3E9D2
:101F7000002304460D4619F0C7F815F045FE00226F
:101F800006460F4600234046494618F00BFF3246EE
:101F90003B4618F005FF15F037FE19F065FB0022EF
:101FA0008046624B2046294619F020FB002800F0AD
:101FB000208200225B4B2046294618F0F1FE15F0E6
:101FC00023FE19F051FB0446204619F09FFC5849A6
:101FD000054619F0ABFE002840F0178244A3D3E970
:101FE0000023DDE9040118F0DBFE15F00DFE19F009
:101FF0003BFB0646631E012B05D804F10C0019F0CB
:1020000085FC013E0546304619F080FC3E490446F9
:1020100019F084FD19F024F815F0F6FDCDE904015E
:1020200020463A4919F07AFD19F01AF815F0ECFD3E
:10203000CDE906012046364919F0BCFC19F010F82C
:1020400015F0E2FDCDE9080128464FF07E5119F068
:10205000A9FB304919F0AEFC19F002F815F0D4FDD7
:1020600025A3D3E90023CDE90A015046594618F0CB
:1020700097FE002204460D462E4BDDE9000119F0C3
:102080006DF902460B462046294618F08BFE1CA32C
:10209000D3E9002382468B4619F060F9DDE9042379
:1020A00006460F4600204FF0804145E0AFF3008028
:1020B00000000080A2423A41000000008C8A4141A9
:1020C00000000040D07D3C410000000088D5E14088
:1020D0000000000000D097400000006066865E406F
:1020E0000000000000D4764000000020A0993E408F
:1020F00000000000006BB240000000802CB44241A0
:1021000000000000A0D5E1400000C8420000C84324
:1021100000A0B64301CDF4410000704200006145CB
:102120000000E03F0000F03F0000D03F00002B40E7
:10213000000020400000384018F032FEDDE90623A0
:1021400018F030FEDDE9082318F02CFEDDE90A2343
:1021500018F028FE044640460D4618F06FFF024670
:102160000B462046294618F01DFEAFA3D3E90023F5
:1021700018F018FEAEA3D3E9002318F011FEAEA3A9
:10218000D3E9002318F0C0FFADA3D3E9002318F072
:1021900009FE05E0204629460022C54B18F000FE46
:1021A0000022C34B04460D4619F034FA0028F1D141
:1021B000002200232046294619F018FA68B120466B
:1021C00029460022BA4B18F0EDFD002200230446F8
:1021D0000D4619F00BFA0028F1D19BA3D3E9002397
:1021E000DDE9000118F090FF22462B4618F0DAFDD9
:1021F00097A3D3E9002304460D463046394618F02C
:1022000083FF32463B4618F07FFF22462B4618F0EC
:10221000C9FD05E0204629460022A54B18F0C0FD67
:102220000022A34B04460D4619F0F4F90028F1D121
:10223000002200232046294619F0D8F968B120462B
:10224000294600229A4B18F0ADFD002200230446D7
:102250000D4619F0CBF90028F1D17FA3D3E9002373
:102260005046594618F050FF02460B467CA1D1E972
:10227000000118F095FD7CA3D3E9002319F06EF856
:1022800015F04AFD7AA3D3E9002306460F465046CF
:10229000594618F039FF78A3D3E9002318F082FDDE
:1022A00002460B4618F07EFD6FA3D3E9002319F018
:1022B00055F815F031FD72A3D3E900238046894615
:1022C0005046594618F020FF02460B466EA1D1E950
:1022D000000118F065FD64A3D3E9002319F03EF86E
:1022E00015F046FC6AA3D3E9002382468B463046AC
:1022F000394618F009FF68A3D3E9002306460F46C4
:102300004046494618F000FF02460B463046394623
:1023100018F046FD52465B4618F0F6FE22462B4664
:1023200018F040FD05E0204629460022604B18F0D9
:1023300037FD00225E4B04460D4619F06BF900286C
:10234000F1D1002200232046294619F04FF968B147
:10235000204629460022564B18F024FD0022002377
:1023600004460D4619F042F90028F1D10399514B6A
:102370000022D1E90C0118F0F1FF02460B4620467D
:10238000294603E04A4B20462946002218F008FD62
:102390000022474B04460D4619F03CF90028F1D1C4
:1023A000002200232046294619F020F968B1204672
:1023B000294600223E4B18F0F5FC0022002304467B
:1023C0000D4619F013F90028F1D1204629460022C4
:1023D000374B18F0C3FF32A3D3E9002318F094FE63
:1023E00019F042F972B6039B186062B60DB0BDE8F1
:1023F000F08F0022304B2046294618F0D1FC15F012
:1024000003FC19F031F90446DEE527A3D3E90023E4
:10241000DDE9040118F0C4FC15F0F6FB19F024F90D
:102420000646E7E5AFF3008000000080A2423A4193
:10243000000000802CB44241000000E05BD2B03FBD
:10244000000000801CCA1A40000000E0360BF03F7C
:10245000000000605243FB3E00000060C91CAB3F1F
:10246000000000608F425F4000000020DCA54C406F
:10247000000000E0718AEF3F000000208587714076
:10248000000000A0F2D79A3E0000000076703740AE
:10249000000000A0EEE734BF00000080732AF93E80
:1024A00000000000C07A604100000000006CB240F3
:1024B0000000384000002E4000002A4070B505683A
:1024C000044628460E4612F05FFA864203D0314693
:1024D000284612F073FA204670BD00BFFFFFFFFFD1
:1024E000032900D970472DE9F04301EB410505EBC5
:1024F000C50505F10A0487B001700646204612F0B2
:1025000043FA8DF80C0005F10B0012F03DFA8DF83E
:102510000D0005F10C0012F037FA8DF80E0005F1F0
:102520000D0012F031FA8DF80F00039818F098FDA5
:102530000022874B8046894619F058F840B900229E
:10254000844B4046494619F06FF8002800F0CA80D5
:1025500006A9002341F8143D002200232046C6E9C5
:102560000223FEF73DFA78A3D3E90023D6E902015E
:1025700018F0F4FE8046894615F0FAFAC6E90C0117
:102580004046494615F0C8FBC6E90E0105F10E00AC
:1025900012F0FAF98DF80C0005F10F0012F0F4F9C1
:1025A0008DF80D0005F1100012F0EEF98DF80E0017
:1025B00005F1110012F0E8F98DF80F00039818F0FA
:1025C0004FFD0022644B8046894619F019F838B94E
:1025D0000022624B4046494619F01CF800287ED084
:1025E00006A90023307841F8103D1B270E24002255
:1025F000002307FB0040C6E90423FEF7F1F905F1CB
:10260000120012F0C1F98DF80C0005F1130012F060
:10261000BBF98DF80D00BDF80C2002F1C8039BB288
:1026200042F208018B4260D8328305F1140012F0A7
:10263000ABF919F067F94A4919F070FA494919F0EC
:10264000AFF84949F062044619F052FB002835D131
:1026500005F1150406F11A08243506F1190720467C
:1026600012F092F9013407F8010F18B3A542F6D120
:1026700032783E4903A81AF095F903A81AF040FAF7
:10268000421C0F2A05463AD92FA3D3E90023D6E9E5
:10269000020118F063FE04460D4615F069FAC6E91A
:1026A0000C012046294615F037FBC6E90E0107B09C
:1026B000BDE8F083B37E002BDAD0E5E72046294958
:1026C00019F034FB0028C3D032780023F3621B20BA
:1026D000142300FB0230782112F070F9B8E7C6E944
:1026E00004898CE7C6E9028950E732781223002179
:1026F0001B2000FB02303183FEF756F995E703A952
:10270000404612F027F896F8009009EB490909EBCA
:10271000C90909F1150900240EE012F035F918F87D
:10272000045085422946384601D012F047F9404608
:102730001AF0E6F90134054609EB0407A5423846CC
:10274000EBDAA1E7AFF3008000000020DCA54C40ED
:10275000008056C000805640008076C000807640E1
:102760000000204100004041000040C1E81E02007E
:1027700038B5437805780BB145F0020583780BB185
:1027800045F00405084B1C787122C82313FB042470
:10279000204612F0F9F8854205D029462046BDE8CA
:1027A000384012F00BB938BD8496FF1FFFFFFFFFC2
:1027B0000378013BDAB2032A10B504460CD824484A
:1027C00050F82220914228BF11460846032B38D8E2
:1027D000DFE803F0221304280020F7E718F01EFCBE
:1027E00019A3D3E9002318F0B9FD18F065FF81B2F1
:1027F000E068BDE8104011F01BBA18F00FFC12A3FE
:10280000D3E9002318F0AAFD18F056FF81B2A068A2
:10281000BDE8104011F086BB01466068BDE810407D
:1028200010F0B2BA18F0FAFB07A3D3E9002318F0AE
:1028300095FD18F041FF81B22069BDE8104011F00C
:10284000F9BA10BDAFF30080CD3B7F669EA0F63F86
:10285000D41F020010B50446084618F0EFFB0B46E3
:1028600002464FF08041002015F022FB18F0FCFEDC
:102870002378013B032B1BD8DFE803F00E0802147A
:1028800081B2E068BDE8104011F0A6BB81B2A0683B
:10289000BDE8104011F0A0BB01466068BDE81040E3
:1028A00010F008BC81B22069BDE8104011F006BBF1
:1028B00010BD00BF10B4036841681A780C78417AE3
:1028C000037A0C4202EA03021AD0837A03F003036C
:1028D0000AB143F0040343F008039A10013B8272EB
:1028E0000D2B0BD8DFE803F01E0719070A141E1E74
:1028F000140A0719071EC368013BC36010BC704768
:10290000837A03F00303002AE7D043F00403E4E7EB
:10291000C36810BC023BC3607047C36810BC02337D
:10292000C3607047C36810BC0133C360704700BF09
:1029300038B5C369002B4BD01A7C012A11D972B665
:10294000DA68044662B6104618F078FBD4E9002332
:1029500018F004FD627A03460AB101F100411846FD
:1029600038BD72B693E81400117825785C7A1A7A2B
:10297000254201EA02012ED09A7A02F0030209B13F
:1029800042F0040242F008029110013A99720D2AB5
:10299000D6D801A151F822F0FF290000F729000044
:1029A000EF290000F729000041290000E729000075
:1029B000FF290000FF290000E7290000412900004D
:1029C000F7290000EF290000F7290000FF29000087
:1029D0001946184638BD9A7A02F003020029D3D06E
:1029E00042F00402D0E7DA68023ADA60A9E7DA686E
:1029F0000232DA60A5E7DA68013ADA60A1E7DA685C
:102A00000132DA609DE700BF08B512F0FDFC13F05B
:102A100037F913F00DFD4FF47A7012F073FB024B8F
:102A2000024A1A6008BD00BF0CED00E00400FA0580
:102A300010B572B6094CD4E9060118F015FE2369E9
:102A4000C01A206262B672B6054CD4E9060118F0CD
:102A50000BFE2369C01A206262B610BDD895FF1F15
:102A60004093FF1F70B50E4D0E4C0F4ED5E9180167
:102A7000D4E91823C5E91601C4E91623D6E90A01E9
:102A8000D5E9162318F040FB084EC5E90C01D4E93E
:102A90001623D6E90A0118F037FBC4E90C0170BD12
:102AA000D895FF1F4093FF1FE897FF1F909AFF1FC5
:102AB0002DE9F843264B24A1D1E90001D3E90023F5
:102AC00018F04CFC234B06460F46D3E900231EA109
:102AD000D1E9000118F042FC04460D4672B61E49C9
:102AE0001E4B0022D1E9000118F00EFB1C4BD3E96C
:102AF00004238046894618F007FB02460B46304601
:102B0000394618F02BFC32463B4618F0FDFA154AC0
:102B1000154BC2E90201D3E904234046494618F0A7
:102B2000F3FA02460B462046294618F017FC2B46BE
:102B3000224618F0E9FA0D4BC3E9020162B6BDE87E
:102B4000F88300BFAFF300800000000080842E41B6
:102B50004087FF1F4887FF1F3887FF1F0000104076
:102B6000E897FF1FD895FF1F909AFF1F4093FF1F04
:102B70000028F8B52FDB0428A8BF04201F4A1378CB
:102B8000984225D01E4C1F4D04EBC004D4E90067C9
:102B9000C3B2137030463946D5E9022318F01CFD44
:102BA000D8B1194C32463B46D4E9020118F014FD65
:102BB00000B1F8BDC4E9026772B6216AD4E9022304
:102BC000D1E9000118F0A0FAC4E9060162B6F8BD27
:102BD0000029D7D1F8BD0020D0E7C5E9026772B659
:102BE000296AD5E90223D1E9000118F08DFAC5E977
:102BF000060162B6D4E90067D3E700BFD887FF1F9C
:102C00009087FF1FE093FF1F7895FF1F032A2DE990
:102C1000F84302D0394B1B7833BB394B394C3A4D12
:102C20001B7824782E78B3FA83F35B09E4B21EBBD9
:102C3000A3421FD9D0E902890E4604461746002355
:102C400000224046494618F0C7FCD0B1237CC3B1EE
:102C500072B6237C022B49D0237CFE2B04BFFF23BA
:102C6000237462B6BDE8F883264A274B12781A7897
:102C7000002A35D1BDE8F8832E78B242D8D0BDE81D
:102C8000F883227C237CABB1B6EBD21F12D0404636
:102C9000494600224FF0804318F0C6FC50B1237C17
:102CA000022B02D0237CFE2BE4D12046BDE8F84362
:102CB000FDF772BD022F1CD0032F0CBF134B144B1A
:102CC00000211878FFF754FF2F7066B90223237490
:102CD000104A00214FF0FF3311702360BDE8F883E4
:102CE0001B78BDE8F883FE232374F1E701232374E6
:102CF000B2E700210846FFF73BFFE5E77095FF1FAD
:102D00005098FF1F5896FF1FC693FF1FE09BFF1FA1
:102D1000D887FF1FE887FF1F2DE9F04F6A4B87B068
:102D2000D3E9082382468B4665A1D1E9000118F05A
:102D300015FB664BCDE90001D3E9082360A1D1E979
:102D4000000118F00BFB5246CDE902015B46DDE9BC
:102D5000000118F003FB00225D4B06460F4618F0F9
:102D600059FC08B95A4F0026DFF8789152465B4665
:102D7000DDE90201C9E9006718F0F0FA0022544BBE
:102D800004460D4618F046FC08B9514D0024DFF802
:102D9000588132463B46DDE90001C8E9004518F09C
:102DA000DDFA22462B4606460F46DDE9020118F001
:102DB000D5FA04460D4602460B463046394618F011
:102DC00015FC08B134463D4622462B46504659462E
:102DD00017F0E6FF07460E4638463146002200232C
:102DE00018F022FC002866D03846314600224FF009
:102DF000804318F019FC002836D122462B46DDE925
:102E0000000118F0ABFA22462B46C9E90001DDE9C2
:102E1000020118F0A3FA2F4EC8E90001D6E90623F3
:102E200020462946C6E9084518F0EAFB90B1002281
:102E30002046294B294618F067F9284BC6E90601B8
:102E40001C7818F039FCC8227D23C1B202FB043083
:102E500011F0B4FD224B01211878FFF789FE07B06D
:102E6000BDE8F04FFFF724BE1C4B1E78294606EB49
:102E70008606204618F0F8FB06EB8606F60006F1FB
:102E80007E07014638465FFA81FA059111F07CFD14
:102E9000824503D05146384611F090FD7F363046CA
:102EA00011F072FD9DF815708742A6D03946304664
:102EB00011F084FDA1E706F1004695E7AFF300802D
:102EC0000000000080842E41E897FF1F909AFF1FAA
:102ED000000028409087FF1F0000E03F8496FF1FFE
:102EE000D887FF1F4087FF1F4887FF1F10B50E4B75
:102EF0001C7804EB840404EB8404E40082B004F145
:102F00007E0011F041FD8DF8060004F17F0011F004
:102F10003BFD8DF80700BDF8060018F08FF802B0F1
:102F2000BDE81040FFF7F8BE8496FF1F18B9034BA9
:102F300030221A807047FDF73BBC00BFF89AFF1F94
:102F4000564B1B783BB9564A52783F2A00F0938083
:102F5000544A137070472DE9F04188B000233A229B
:102F6000029301930393049305930693ADF81C30E9
:102F7000009213F0AFF801E013F0E4F813F0CEF88C
:102F80000028F9DC684619F0BBFD454D6844294628
:102F900019F02EFD6C4602224349071B11F0DAFBA3
:102FA0006B78213B5D2B36D8DFE803F02F35352FCA
:102FB0003535353535352F352F35356363636363E7
:102FC000636363633535353535353B3535356335C5
:102FD00035352F35633535353B35632F2F352F3557
:102FE000353B63353535353535353535353563352F
:102FF00035352F35633535356335633535632F35D5
:103000003535353B35353535353B791C684612F05D
:10301000D1FF13F05FF8234B00221A7008B0BDE80F
:10302000F0810026791C2046DFF8788012F0C2FF7C
:10303000002513F04FF81420444612F063F82F4691
:1030400006E00135322D20700FD004F8017F16BB49
:1030500013F064F8002808DD13F074F8C0B22328D8
:10306000EFD196B1312D20700CD13023A8F800306B
:10307000D4E70126D6E70D4B0A4A1B6813801B0CC8
:103080009370704700236370EFE708EB050308F8BF
:1030900005005E70C2E73128C0D0E6E72C93FF1F21
:1030A0008896FF1FF89AFF1FF81E0200F41E020008
:1030B00030B5054683B0D0E900010FF015F80B4B91
:1030C0000B4C1B7800930122C5E90001002329461F
:1030D00020460EF035F8204619F012FD054902226F
:1030E000204403B0BDE8304011F034BB5187FF1FCE
:1030F000F89AFF1FF81E020010B50B4B0B4C1B7803
:1031000082B0014600930022012320460EF018F8F9
:10311000204619F0F5FC06490222204402B0BDE821
:10312000104011F017BB00BF5187FF1FF89AFF1F17
:10313000F81E020010B5084B084C1A7801462046CC
:103140000DF0A2FE204619F0DBFC022220440449C7
:10315000BDE8104011F0FEBA5187FF1FF89AFF1F1B
:10316000F81E0200124B93F84820D2B110B4114857
:103170005C6D026883B041F287310092009A121BA5
:103180008A4210D893F838206AB102680192586CCC
:10319000019B1B1A8B428CBF0020012003B010BC86
:1031A000704700207047002003B010BC704700BF7C
:1031B000D896FF1F049CFF1F114B1A78D2B110B490
:1031C00010485C6B026883B041F287310092009A2C
:1031D000121B8A4210D893F878206AB102680192D3
:1031E000D86F019B1B1A8B428CBF0020012003B0BB
:1031F00010BC704700207047002003B010BC70471F
:10320000D896FF1F049CFF1F10B5FFF7ABFF0446C5
:10321000FFF7D2FF2040C0B210BD00BF154B93F89E
:1032200098200AB300B5144AD3F89C00126883B002
:1032300041F287310192019A121A8A4218D800226B
:10324000D3F8A00083F8992018F060FB0B4918F020
:1032500065FC4FF0804118F04BFD4FF0010328B1A1
:10326000D8B203B05DF804FB002070470346F7E7CF
:103270000020F6E7D896FF1F049CFF1F0000C842FD
:103280002DE9F04F2D4E2E4D336829688DB041F257
:1032900088320193019B5B1A934204D8294B18781A
:1032A0000DB0BDE8F08F284C94E80F0004AF103447
:1032B00087E80F0094E80F0008AC84E80F00384658
:1032C0000FF02EF8804638460FF03AF8834638461D
:1032D0000FF04AF8824620460FF052F88146204609
:1032E0000FF05AF8074620460FF06CF80CAB08F1C7
:1032F0004E0803F8280D18468DF80DB08DF80E8095
:103300008DF80CA08DF80A908DF809700FF0A8F9CF
:10331000044611F025FE041B33680293002CB8BF4D
:1033200064420A49074A029B0861042CCCBF002072
:10333000012010702B600DB0BDE8F08F049CFF1FC2
:10334000A896FF1F9A9BFF1F1097FF1FB097FF1FA4
:103350002DE9F047B1F1000A3EDD044600EBCA0555
:10336000804600260027F8E802233046394617F049
:1033700019FDA84506460F46F5D1504617F05EFEEA
:1033800002460B463046394617F0E8FF00268046D5
:103390008946002742464B46F4E8020117F000FD3B
:1033A00002460B4617F0B0FE02460B463046394641
:1033B00017F0F8FCA54206460F46EBD10AF1FF30A4
:1033C00017F03CFE02460B463046394617F0C6FF62
:1033D000BDE8F04714F0E4BE00260027EEE700BF8A
:1033E0002DE9F04FA44BDFF8BCA21B68DAF80010FF
:1033F00099B041F288320893089B5B1A934204D833
:103400009E4B187819B0BDE8F08F9D4B9D49D3F8BD
:103410008020D1F800B000929E46BEE80F000DF16A
:10342000280CACE80F00BEE80F00ACE80F00BEE8C7
:103430000F00ACE80F009EE80300934E934D944CB0
:10344000944F0AAB8CE803001846D6E904890EF0C5
:103450004BFF02460B464046494617F0A3FC0EF0D0
:10346000DFFD21F00043194681A3D3E9002317F0C3
:103470004BFE05EBCB0B0AABCBE900011846814BA9
:10348000D6E90289D3F800B00EF012FF02460B46CF
:103490004046494617F084FC21F00043194674A3C6
:1034A000D3E9002317F030FE04EBCB0B754BCBE9CF
:1034B0000001B6F91800D3F800B017F0BFFD804640
:1034C0000098894618F022FA734918F027FB17F084
:1034D000C7FD02460B464046494617F061FC4FEADD
:1034E000CB0807EB080321F0004247F83B0003211B
:1034F00028465A60FFF72CFFCDE900012046032142
:10350000FFF726FFCDE9020138460321FFF720FF30
:103510004544D5E90056CDE9040100225F4BDDE9C1
:103520000001CDE9065617F0EFFD00224FF0804371
:1035300005460E4618F06EF8002800F092803346DB
:103540002A46DDE9060118F051F84FF0010600287F
:1035500000F085804444D4E9004500224F4BDDE96A
:103560000201CDE9064517F0CFFD00224FF0804360
:1035700004460D46F6B218F04DF800286BD02246EE
:103580002B46DDE9060118F031F84FF00104002860
:103590005FD0B844D8E900780022404BDDE904014F
:1035A000CDE9067817F0B0FD00223D4B80468946F4
:1035B000E4B218F02FF8002846D0DDE9000100221F
:1035C0004FF0804318F012F84FF00107002839D06F
:1035D000DDE9020100224FF0804318F007F84FF0B8
:1035E000010568B32E4BDDE90401002217F0FEFF50
:1035F0003D404FF0010308B32B401E404046DDE93B
:103600000623494618F010F834404FF0010398B1F2
:103610001A4A04EA03000BF101031070032B194A44
:1036200008BF00231360144B1B680993099BCAF859
:10363000003019B0BDE8F08F0346E9E70346DBE749
:103640000546CFE70746C3E74FF00008DFF8509084
:10365000B3E704469DE700244FF080458FE7064618
:1036600078E700254FF0804669E700BFAFF30080A0
:10367000000000000020AC40049CFF1FA496FF1F28
:10368000D896FF1F8096FF1FA09BFF1F789BFF1FF0
:10369000E09AFF1F1094FF1F0000C8420000144072
:1036A00000003440B893FF1F0E4B5B78ABB90E4A55
:1036B000127810B502F0FF010C4C52B921700B4882
:1036C00019F01EFA022220440949BDE8104011F009
:1036D00041B87F2263702270F1E7044B30221A80D8
:1036E000704700BF8896FF1F5896FF1FF89AFF1F6C
:1036F000F81E02001F4B5B78303B232B35D8DFE8E8
:1037000003F0131313131334343434343434343493
:1037100034343434341234343428343434343422A9
:1037200034343434342E0123134A127852B9134AF4
:10373000127802F0FF012AB9114ADBB21370107837
:10374000FFF716BA70470C4A12780223002AF9D103
:10375000EDE7094A12780023002AF3D1E7E7064A89
:1037600012780323002AEDD1E1E7064B00221A70FC
:10377000704700BF8896FF1F5896FF1FC693FF1F14
:10378000E09BFF1FF89AFF1F2DE9F041164F1749E4
:10379000C0EB00131F440246384619F003F93846BF
:1037A00019F0AEF90E281CDC114A92F80080F121C4
:1037B000C822034612FB081800240DE011F0E4F8BB
:1037C0003E5D86423146284601D011F0F7F8384672
:1037D00019F096F90134034608EB0405A342284684
:1037E000ECDABDE8F08100BF289AFF1FFC1E020042
:1037F0008496FF1FFFFFFFFF2DE9F04F964D974E78
:10380000974CDFB000234FF0000805930493039317
:103810000293019300931A461946814686F8008068
:1038200028460DF089FD237885F8218103EB830379
:1038300003EB83034FEAC30A0AF5947B584611F061
:10384000A3F8012800F01A81864B1B78033B012B5B
:1038500040F28881844F854CD7F80C80D7F80890C7
:1038600073A3D3E900234846414617F04DFC0B46AD
:103870000D46217802465EAC064664E954230029D1
:103880003DD0484641460022002317F0CDFE0028D7
:1038900000F0B281484641460022754B17F0C4FE45
:1038A00068B3304629460022002317F0BDFE0028E9
:1038B00000F09F816F4B7049D3E90023D1E90001EB
:1038C000CDE90E23CDE910010EAB0FCB8DE80F0033
:1038D00001230DF1300E8DF83030B046A9469EE838
:1038E0000C002046C4E900890EF082FA0022002371
:1038F000D7E9020117F07AFE002840F05F814EA759
:10390000D7E900674EA3D3E900230025CDE90223C0
:10391000CDE90067049542A80022002310F0A4FD21
:10392000D4E9002342A912A810F0B6FD12A810F0A5
:1039300059FD804612A8894610F058FD42A3D3E9EC
:10394000002317F02FFACDE90089CDE9020100220A
:1039500000231EA810F034FE3DA3D3E90023CDE9D7
:103960000067CDE90223049550A80022002310F03F
:103970007BFDD4E9002350A92AA810F08DFD2AA8C8
:1039800010F030FD04462AA80D4610F02FFD2EA39E
:10399000D3E9002317F006FA00220023CDE9004501
:1039A000CDE9020136A810F00BFE42A810F004FE8B
:1039B000044642A80D4610F0FBFD80461EA889462D
:1039C00010F078FE06461EA80F4610F06FFE224645
:1039D0002B46CDE90089CDE90401CDE902671E48F7
:1039E0000DF046FD50A810F0E7FD044650A80D4626
:1039F00010F0DEFD804636A8894610F05BFE0646D4
:103A000036A80F4610F052FE2246CDE904012B469F
:103A1000CDE90089CDE902670F480DF029FD0E4878
:103A20000DF07CFD5FB0BDE8F08F00BFAFF300800C
:103A3000000000A046DF913F00000060FB21E93F4D
:103A400000000060FB21F93F00000060FB210940FD
:103A5000000000807CD912403894FF1FD095FF1FD2
:103A60008496FF1FC087FF1FA09BFF1F2493FF1F8B
:103A7000000024403087FF1FE087FF1FB9F1000FCF
:103A800040F0A180074650A90AF58270FCF706FDB8
:103A90002078DDF840914FF0C8084FF4847308FB9C
:103AA000003050A9FCF7FAFC509B207807934FF4A4
:103AB000867308FB003050A9FCF7F0FC2078509981
:103AC00006914FF4887308FB003050A9FCF7E6FC20
:103AD0002078DDF840A14FF48A7308FB003050A92C
:103AE000FCF7DCFC2078DDF840B14FF48C7308FB68
:103AF000003050A9FCF7D2FC2078509B09934FF47A
:103B00008E7208FB002050A9FCF7C8FC2078509A60
:103B100008924FF4907108FB001050A9FCF7BEFC0E
:103B200094F800E0509C4FF4927008FB0E0050A9EE
:103B3000FCF7B4FC5098089A099B03920293079AE9
:103B4000069B0590494628460494CDF804B0CDF86C
:103B500000A00DF0F1FB28460DF026FC37705FB099
:103B6000BDE8F08F2A4B00240025D3E9020122464C
:103B70002B4617F059FD58B321A7D7E90067254810
:103B8000CDE90445CDE90045CDE9026722462B4643
:103B90000DF06EFC1CA1D1E90001CDE90267CDE971
:103BA0000401CDE9000122462B461A480DF060FCC5
:103BB00018480DF0B3FC5FB0BDE8F08F636803F107
:103BC000004363609BE64146584610F0F7FE3BE633
:103BD0001048CDE90445CDE90245CDE9004522462E
:103BE0002B460DF045FC08A1D1E90001CDE90245C5
:103BF000D5E705F100455DE608F100484AE600BF5B
:103C000000000060FB21094000000060FB21F93F3B
:103C1000A09BFF1F3894FF1FF8B52A4B1B78DA1EB4
:103C2000012A32D9012B284B27D02849284A196468
:103C3000002119605A64274BD3E902450022002372
:103C40002046294617F0D2FC234B00282FD1596B70
:103C5000224E234A1960204629461E645A640023D6
:103C6000002217F0E1FC4FF0010300B9034683F096
:103C700001031C4ADBB21370F8BD5A6B1A481B498A
:103C8000186452421A605964D5E7134B0E4A5D6BB3
:103C900010490F48164F154E0C4C1D6000255064FE
:103CA0001F645E6415601464D1E90201D7E75A6BA2
:103CB0000D490E4E19645242204629461A605E6430
:103CC000CDE700BFC087FF1FE897FF1F000034C388
:103CD00000003443A09BFF1F909AFF1F0000B4C256
:103CE00000008743D496FF1F000087C30000B44242
:103CF0000000A0C12DE9F8435D4F5E4E3C7804EB17
:103D0000840404EB8404E40004F1D008404610F07D
:103D10003BFE96F82450013DEDB2032D98BF564B63
:103D200000B200EB800000EB800098BF53F8253014
:103D30004FEA800088BF00239842F06100F285803E
:103D4000C72840F2828004F1D1094FF000084846AC
:103D500086F8208010F018FE032D98BF464B00B265
:103D600000EB800000EB800098BF53F825304FEA4D
:103D7000800088BF43469842706158D8C72856D9FA
:103D80004FF0000886F8188004F1DE093B4E4846E3
:103D900010F0FAFD96F82450013DEDB2032D98BFC6
:103DA000354B00B200EB800000EB800098BF53F869
:103DB00025304FEA800088BF43469842F06124D8FE
:103DC000C72822D9DF340027204686F8207010F05B
:103DD000DBFD032D98BF284B00B200EB800000EB09
:103DE000800098BF53F825708000B842706101D8F8
:103DF000C72806D84FF47A7320460A21736110F061
:103E0000DDFD00233376BDE8F8834FF47A7348462E
:103E10000A21F36110F0D2FD3C7896F8245004EBAF
:103E2000840404EB8404013DE400EDB2CAE74FF4DE
:103E30007A7348460A21736110F0C0FD3C7804EBA8
:103E4000840404EB8404E4009AE74FF47A73404658
:103E50000A21F36110F0B2FD3C7896F8245004EB8F
:103E6000840404EB8404013DE400EDB26BE700BF81
:103E70008496FF1F6098FF1FD41F02009898FF1FB1
:103E80002DE9F041724F734D3C7804EB840404EB50
:103E90008404E40082B004F1D20010F075FD8DF8C6
:103EA000040004F1D30010F06FFD6B4B8DF805009A
:103EB000BDF804201A60002604F1E000DE6010F076
:103EC00063FD8DF8040004F1E10010F05DFD634B2B
:103ED0008DF80500BDF804201A6004F1C800DE600A
:103EE00010F052FD8DF8040004F1C90010F04CFDF3
:103EF0008DF8050004F1CA0010F046FD8DF80600AB
:103F000004F1CB0010F040FD8DF80700019B2B6001
:103F100004F1CC002E7110F037FD8DF8040004F18F
:103F2000CD0010F031FD04F1CE088DF80500BDF88C
:103F30000430AB6040462E7310F026FD431EDBB20A
:103F4000072B73D86873002604F1CF00AE7310F00E
:103F50001BFD831B18BF012304F1D400EB732E74E7
:103F600010F012FD831B18BF012304F1D6006B74FF
:103F7000AE7410F009FD8DF8040004F1D70010F0C4
:103F800003FD8DF8050004F1D80010F0FDFC8DF85C
:103F9000060004F1D90010F0F7FC314D8DF8070050
:103FA000019B2B6004F1DA002E7110F0EDFC8DF80E
:103FB000040004F1DB0010F0E7FC04F1DC088DF8EC
:103FC0000500BDF80430AB6040462E7310F0DCFCF9
:103FD000431EDBB2072B17D86873002604F1DD00FF
:103FE000AE7310F0D1FC831B18BF012304F1E20073
:103FF000EB732E7410F0C8FC801B18BF012068748E
:10400000AE7402B0BDE8F081042640466E7310F035
:10401000BBFCB042E1D03146404610F0CFFC3C78CA
:1040200004EB840404EB8404E400D6E70426404651
:104030006E7310F0A9FCB04285D03146404610F0B6
:10404000BDFC3C7804EB840404EB8404E4007AE7D0
:104050008496FF1F6098FF1F489BFF1F609BFF1FF8
:104060009898FF1F70B5734C257805EB850505EB17
:104070008505ED0005F1D206304610F085FC18B13B
:104080003046002110F09AFCD335284610F07CFC15
:1040900018B12846002110F091FC257805EB850524
:1040A00005EB8505ED0005F1C806304610F06CFC07
:1040B000082803D03046082110F080FCC935284676
:1040C00010F062FC072803D02846072110F076FC88
:1040D000257805EB850505EB8505ED0005F1CC069A
:1040E000304610F051FCC82803D03046C82110F0EB
:1040F00065FCCD35284610F047FC18B12846002154
:1041000010F05CFC2078C825CE2305FB003004218C
:1041100010F054FC2078CF2305FB0030002110F074
:104120004DFC2078D12305FB00300A2110F046FC1D
:104130002078D02305FB00300A2110F03FFC2078C6
:10414000D42305FB0030002110F038FC257805EB66
:10415000850505EB8505ED0005F1E006304610F01C
:1041600013FC18B13046002110F028FCE135284638
:1041700010F00AFC18B12846002110F01FFC257829
:1041800005EB850505EB8505ED0005F1D606304606
:1041900010F0FAFB082803D03046082110F00EFC7E
:1041A000D735284610F0F0FB072803D02846072112
:1041B00010F004FC257805EB850505EB8505ED0081
:1041C00005F1DA06304610F0DFFBC82803D0304690
:1041D000C82110F0F3FBDB35284610F0D5FB18B1F1
:1041E0002846002110F0EAFB2078C825DC2305FBD7
:1041F0000030042110F0E2FB2078DD2305FB0030C5
:10420000002110F0DBFB2078DF2305FB00300A21C2
:1042100010F0D4FB2078DE2305FB00300A2110F0DB
:10422000CDFB2078E22305FB00300021BDE8704083
:1042300010F0C4BB8496FF1FF0B5A34CA34E2078AA
:1042400085B0FFF7A1FA2078C825642305FB00306C
:10425000012110F0B3FB20789D4A852305FB003037
:1042600076215B236FF009071760336010F0A6FB1F
:1042700020783178862305FB003010F09FFB2078F2
:10428000982305FB0030002110F098FB207899233B
:1042900005FB0030002110F091FB20789A2305FBEC
:1042A00000302D2110F08AFB20789B2305FB003085
:1042B000B52110F083FB257805EB850505EB850519
:1042C000ED0005F18806304610F05EFB102803D0A3
:1042D0003046102110F072FB8935284610F054FB4F
:1042E0000E2803D028460E2110F068FB257805EB38
:1042F000850505EB8505ED0005F18A06304610F0D1
:1043000043FB102803D03046102110F057FB8B35AB
:10431000284610F039FB0E2803D028460E2110F055
:104320004DFB257805EB850505EB8505ED0005F1D1
:104330008C06304610F028FB102803D030461021A0
:1043400010F03CFB8D35284610F01EFB0E2803D0E4
:1043500028460E2110F032FB257805EB850505EB8C
:104360008505ED0005F18E06304610F00DFB102896
:1043700003D03046102110F021FB8F35284610F075
:1043800003FB0E2803D028460E2110F017FB2078DF
:10439000C8256F2305FB0030002110F00FFB2078AB
:1043A0009C2305FB0030002110F008FB20786E23D1
:1043B00005FB0030002110F001FB20787A2305FB7B
:1043C0000030642110F0FAFA20787B2305FB0030DE
:1043D000042110F0F3FA20787C2305FB0030102133
:1043E00010F0ECFA20787D2305FB0030402110F01E
:1043F000E5FA2078802305FB0030032110F0DEFA77
:10440000257805EB850505EB8505ED0005F17E06B4
:10441000304610F0B9FA582803D03046582110F031
:10442000CDFA7F35284610F0AFFA022803D028468F
:10443000022110F0C3FA2078C825812305FB003043
:104440000A2110F0BBFA04A9224B207841F8043D60
:10445000BC2305FB0030FCF7C3FA20784FF49473BB
:1044600005FB0030002110F0A9FA20786D2305FB30
:104470000030002110F0A2FA04A920780026902331
:1044800005FB003041F8086DFCF7AAFA04A9207872
:1044900041F80C6D942305FB0030FCF7A1FAFFF7FF
:1044A000E1FD21780C4B712215FB012528461E7079
:1044B0005E709E7010F068FA18B13146284610F010
:1044C0007DFA05B0F0BD00BF8496FF1F489AFF1F1C
:1044D0002893FF1F5979F3002493FF1FFFFFFFFF6D
:1044E0002DE9F04F002087B010F04EFA8DF80C0047
:1044F000012010F049FA8DF80D00022010F044FA66
:104500008DF80E00032010F03FFA8DF80F00039A8B
:10451000914B9A4200F0F1800024204600210134A2
:1045200010F04CFAB4F5006FF7D18C4CDFF838A2DC
:1045300000254FF000084FF000099AF80010EBB288
:104540007022C82000FB01201946237010F036FAB3
:10455000267806EB460606EBC60606F10A0738463D
:10456000C4E9028910F010FA18B13846002110F0A1
:1045700025FA06F10B07384610F006FA18B138464E
:10458000002110F01BFA06F10C07384610F0FCF978
:1045900018B13846002110F011FA0D36304610F0EF
:1045A000F3F918B13046002110F008FA68A3D3E9F6
:1045B0000023D4E9020116F0D1FE06460F4613F09F
:1045C000D7FAC4E90C013046394613F0A5FB26782A
:1045D00006EB460606EBC60606F10E07C4E90E0119
:1045E000C4E90489384610F0CFF918B138460021E3
:1045F00010F0E4F906F10F07384610F0C5F918B1CC
:104600003846002110F0DAF906F11007384610F0AC
:10461000BBF918B13846002110F0D0F911363046F8
:1046200010F0B2F918B13046002110F0C7F9237824
:1046300003EB430303EBC30606F112074FF0000B35
:104640003846A4F818B010F09FF918B1594638460A
:1046500010F0B4F91336304610F096F918B1304620
:10466000002110F0ABF92078DFF8F0B00023E3620E
:104670001B26142306FB0030782110F09FF92A46F0
:10468000374903A818F08EF903A818F039FA421C2C
:104690000F2A35D90135022D7FF44FAF00248AF857
:1046A0000040FFF7C9FD01238AF80030FFF7C4FD81
:1046B00020468AF8004010F067F96A2803D02046A7
:1046C0006A2110F07BF9012010F05EF9542803D024
:1046D0005421012010F072F9022010F055F902283F
:1046E00003D00221084610F069F9032010F04CF9BC
:1046F00018B10021032010F061F907B0BDE8F08F78
:104700005F46009003A90BF11A0010F023F817F888
:1047100019BB152216FB0B2301930026009B0FE00B
:1047200017F8011F009110F02FF9009981425846A7
:1047300001D010F043F90B4818F0E2F901360346B6
:10474000019AB34202EB060B5846E9DAA2E700BF32
:1047500000000020DCA54C406A540200A09BFF1F13
:10476000E81E0200BA9BFF1F8496FF1FFFFFFFFF9A
:104770002DE9F0475C4E5D4D347804EB840404EB86
:104780008404E40082B004F1F00010F0FDF8584B0E
:1047900004F1E6071870384610F0F6F88DF80400BA
:1047A00004F1E70010F0F0F88DF8050004F1E800DE
:1047B00010F0EAF88DF8060004F1E90010F0E4F8D2
:1047C0008DF80700019817F0A1F84A4917F0F2F8A0
:1047D00016F046FC8046894600220023C5E9008980
:1047E00016F00EFF002866D1404649463CA3D3E9A7
:1047F000002316F019FF00285DD1002704F1EA001C
:104800002F7210F0C1F804F1EB0AC31B18BF01238B
:1048100050466B72AF7210F0B7F88DF8040004F1D7
:10482000EC0010F0B1F88DF8050004F1ED0010F087
:10483000ABF88DF8060004F1EE0010F0A5F88DF845
:10484000070001982C4D17F061F82A4917F0B2F8CB
:1048500016F006FC8046894600220023C5E900893F
:1048600016F0CEFE38B9404649461DA3D3E90023D1
:1048700016F0DAFE88B102A940F2DC5341F8043D9B
:104880005046FCF7ADF834781C4B002204EB84044E
:10489000C5E9002304EB8404E40004F1EF000024E4
:1048A0002C7210F071F8001B18BF01206872AC72F6
:1048B00002B0BDE8F08702A940F2DC5341F8083DA0
:1048C0003846FCF78DF834780C4B04EB8404002256
:1048D00004EB8404C5E90023E4008EE7AFF3008015
:1048E000000000000020AC408496FF1F509AFF1F7C
:1048F0003898FF1F0AD7233C709AFF1F00002E40F4
:10490000F0B587B006AC64E90423DDE90E679DF8D5
:1049100030E0114B109DCDE904012246704604A9F8
:10492000CDE90067119C0DF025FC0C49DDE904235D
:10493000D1E9040116F0E8FB16F096FE084928605C
:10494000DDE90223D1E9040116F0DEFB16F08CFE4E
:10495000206007B0F0BD00BFA89BFF1FE897FF1FB6
:10496000909AFF1FFFFFFFFF2DE9F04FB1B0AC4E53
:10497000AC4CDFF8D4C20993AB4D94F802E0089236
:104980000023129307468A460F93D6E9020111933A
:10499000139300244FF0000B9BA3D3E90023CDE930
:1049A00016BCCDE914458DF848E016F0ADFB0DF1CD
:1049B000480804460D46B8E80F00DFF89092CDF89D
:1049C0001890EE46AEE80F0098E8030022468EE805
:1049D00003002B46394618A80FF0E2FC18A80FF088
:1049E00069FE044618A80D460FF060FE88A3D3E9BF
:1049F000002316F089FB86A3D3E90023CDE90A0141
:104A00002046294616F080FBCDE90C0187490EAD02
:104A10000868049510AC059416F010FB099B1B78F0
:104A20000093CDE90201DDE90A23DDE90C01FFF77E
:104A300067FFD6E9020174A3D3E9002316F064FBF3
:104A40000DF1480E06460F46BEE80F00EE46CDF8C3
:104A50001890AEE80F0098E8030032468EE8030095
:104A60003B46514624A80FF09BFC24A80FF022FEE1
:104A7000064624A80F460FF019FE65A3D3E90023CC
:104A800016F042FB62A3D3E90023804689463046F4
:104A9000394616F039FB654A06460DF13C0B1068A5
:104AA000CDF810B00DF1440A0F46CDF814A016F061
:104AB000C5FA099B1B78009342464B46CDE902019B
:104AC00030463946FFF71CFF594628460DF094FB47
:104AD00016F0B4FA554BD3E9042316F03FFC05E079
:104AE000304639460022524B16F05CF90022514BF9
:104AF00006460F4616F07AFD0028F1D100224E4BF3
:104B00003046394616F086FD68B1304639460022F7
:104B1000474B16F045F90022474B06460F4616F064
:104B200079FD0028F1D1514620460DF069FB16F0C1
:104B300085FA424BD3E9042316F010FC05E0204629
:104B4000294600223A4B16F02DF90022394B044633
:104B50000D4616F04BFD0028F1D10022364B2046C1
:104B6000294616F057FD68B1204629460022304BF1
:104B700016F016F90022304B04460D4616F04AFD99
:104B80000028F1D108992E4BD1E90001002216F03E
:104B9000BBFA02460B4620A1D1E9000116F0DEFB6C
:104BA000002280468946274B3046394616F0ACFA3B
:104BB00002460B464046494616F0A6FA3B9BC3E91F
:104BC000000108991E4BD1E90001002216F09CFA61
:104BD00002460B4610A1D1E9000116F0BFFB0022EE
:104BE00006460F46174B2046294616F08DFA024618
:104BF0000B463046394616F087FA3C9BC3E9000164
:104C000031B0BDE8F08F00BF000000A046DF913F4B
:104C100000000020DCA54C40000000000020AC405B
:104C2000A09BFF1F2493FF1F00002440E897FF1F55
:104C300000807640008066C000806640909AFF1F2A
:104C400000002E400000E03F004059408094FF1FCC
:104C50002DE9F04F89B008AC00258146884644F81C
:104C6000045D0FF027FD064648460F460FF01EFD77
:104C70001BA3D3E9002316F047FA19A3D3E90023B5
:104C800082468B463046394616F03EFA164B05945E
:104C90000646186806AB0F46049316F0CFF9CDF818
:104CA0000080CDE9020152465B4630463946FFF7A7
:104CB00027FE72B60D4F0E4C0698079E386126618E
:104CC00016F0BCF9C7E90601304616F0B7F9C4E999
:104CD000060162B6074B01201D7009B0BDE8F08FD8
:104CE00000000020DCA54C40E897FF1FD895FF1F6F
:104CF0004093FF1FE887FF1F2DE9F047144D154C27
:104D00006D78154E9AB086468DF82050D4E900454E
:104D1000CDE90A45069608AD8A46904699460F4C5D
:104D20000FCDD4E900676C46CDE90C670FC495E858
:104D30000300424684E803004B4671460EA80FF07C
:104D40002FFB51460EA8FFF783FF1AB0BDE8F0878E
:104D50002493FF1F3087FF1F8094FF1FE087FF1FF2
:104D600010B58CB00C46054A014668460FF0E4FBCE
:104D700021466846FFF76CFF0CB010BD8094FF1F02
:104D800030B5044685B072B6174A184B10691D69D4
:104D900062B616F053F9164BD3E9042316F0DEFA87
:104DA0000FA3D3E9002316F0AFF9CDE9020128469D
:104DB00016F044F90F4BD3E9042316F0CFFA08A3F9
:104DC000D3E9002316F0A0F90022CDE90001002369
:104DD00020460FF0F5FB204605B030BDAFF3008054
:104DE000000000A046DF913FD895FF1F4093FF1FB2
:104DF000E897FF1F909AFF1F2DE9F04FB5B072B6EC
:104E0000DFF8ACB1DBF8104062B65B4F7B6B5A4207
:104E1000944245DB9C42CCBF02240124574B1A78B4
:104E200012B1002114461970DFF888A19AF80130F8
:104E3000413B142B31D8DFE803F00B3030303030F9
:104E4000303030303030C13030303030C13035006B
:104E50004B4B0125D3E9000145A3D3E90023049579
:104E600016F052F9CDE90201464D41A3D3E90023E2
:104E7000D5E9000116F048F90022CDE90001002330
:104E800026A80FF0F1FA214626A8FFF769FF3E4A4F
:104E90003E4B92E803001860197135B0BDE8F08F01
:104EA0000224BBE7DFF81091394F99F80000394D23
:104EB00072234FF0C80826AE08FB00303146FBF7DE
:104EC000EDFA269816F0CCF899F80030C7E9000101
:104ED000762008FB03003146FBF7E0FA269816F02F
:104EE000BFF8C5E9000172B62B4B186862B62B4BB0
:104EF000984205DDA0F50300A0F556409842F9DC84
:104F000016F004FD264916F009FE264916F052FD5A
:104F100016F0A6F80022244B16F0F6F8D7E9002385
:104F200015F03EFF0DF07CF811A3D3E9002316F035
:104F3000EBF8CDE902010EA3D3E90023D5E9000186
:104F400016F0E2F80022CDE90001002330460FF010
:104F5000BBF9164906A3D3E90023D1E9020116F0F3
:104F6000D3F802460B4630462146FFF7C5FE8EE7D2
:104F7000000000A046DF913F909AFF1F5996FF1F47
:104F80004098FF1F389BFF1F081F0200F89AFF1F61
:104F90006895FF1F4898FF1FB097FF1F00D683003A
:104FA00000D6034B0000C04100002E40A09BFF1F15
:104FB0004093FF1F8896FF1F8496FF1FDFF84C82E7
:104FC00098F80030002B00F0B08072B6824B186861
:104FD00062B6824B984205DDA0F50300A0F556406D
:104FE0009842F9DC16F092FC7D497E4CDFF8109275
:104FF00016F094FD7C4916F0DDFC16F031F8002225
:105000007A4B16F081F87A4BD3E9002315F0C8FEED
:105010000DF006F86EA3D3E9002316F075F8CDE97C
:1050200002016BA3D3E90023D4E9000116F06CF868
:105030000022CDE9000100230EA80FF045F96D49CB
:1050400063A3D3E90023D1E9020116F05DF86A4BAE
:10505000DFF8BCE1D3E90023CDE906016749CDE9DA
:105060000A234B788DF8203008AE0FCEDEE90045DC
:10507000EE46CDE90C45AEE80F0096E8030026AEFB
:10508000DDE906238EE803000EA930460FF030F963
:1050900099F8203163B972B6DBF8103062B6796BDB
:1050A0004A42934280F28F8002213046FFF758FE39
:1050B0001AA8FFF765FE30460FF07EFA0446304628
:1050C0000D460FF075FA02460B461AA8CDE90623E5
:1050D0000FF0F0FA06461AA80F460FF0E7FADDE9DE
:1050E0000623CDE90401CDE90023CDE902672B4673
:1050F000224643480CF0BCF999F82131002B5AD0D4
:1051000072B6404C206915F099FFC4E90601DBF83E
:10511000100015F093FFCBE9060162B63A4B00216F
:10512000012288F800101A7045E072B62A4B186800
:1051300062B62A4B984205DDA0F50300A0F5564063
:105140009842F9DC16F0E2FB2549264D16F0E6FC04
:10515000254916F02FFC15F083FF0022234B15F094
:10516000D3FF234BD3E9002315F01AFE0CF058FFB0
:1051700017A3D3E9002315F0C7FFCDE9020114A35B
:10518000D3E90023D5E9000115F0BEFF0022CDE9E7
:105190000001002326A80FF097F816490CA3D3E9C5
:1051A0000023D1E9020115F0AFFF02460B4626A805
:1051B0002146FFF7A1FD9AF801304D2B3FF467AE71
:1051C00035B0BDE8F08F8B42CCBF022101216CE7E6
:1051D000000000A046DF913FB097FF1F00D683007C
:1051E00000D6034B4898FF1F0000C04100002E402E
:1051F0006895FF1FA09BFF1F3087FF1F2493FF1F91
:105200003894FF1FD895FF1FD095FF1FC195FF1F32
:10521000E087FF1F0A4B1B7803B17047094B1B78CF
:10522000002BFAD1084B5B78413BDBB2142BF4D84E
:10523000064A22FA03F3DB07EFD5FFF7DDBD00BF17
:105240005098FF1F5896FF1F8896FF1F01101400EB
:105250002DE9F0419AB080460EA816461F46FFF78A
:105260008FFD104A104B52788DF82020D3E900238F
:10527000CDE90A2308AD0FCDCDE906670B4CD4E983
:1052800000676C46CDE90C670FC495E80300084A37
:1052900084E8030040460EA90FF0ECF940461AB02E
:1052A000BDE8F0812493FF1F3087FF1FE087FF1FB9
:1052B0003894FF1F70B50E4D98B006460CA8FFF746
:1052C0005FFD0FCD06AC0FC495E8030006AD84E882
:1052D00003000FCD6C460FC495E80300054A84E82F
:1052E000030030460CA90FF07FF9304618B070BDAE
:1052F000D01E02003894FF1F2DE9F0417C4CA378AA
:10530000413B9EB0312B00F2D082DFE813F0400029
:10531000CE02CE028A00A700CE02CE02CE02F70055
:10532000AF01CE02C801E601CE0219025502CE023B
:105330007C02CE02C602CE02CE02CE02CE02CE0247
:10534000CE02CE02CE02CE02CE02CE02CE02CE02DD
:10535000CE02CE02CE02CE02CE02CE02CE02CE02CD
:10536000CE02CE02CE02CE02CE02CE02CE02CE02BD
:105370003200E378702B01F05980742B00F0A48286
:10538000672B01F0C1805B4B23221A8090E25A4ABE
:105390001278002306930793089309930A930B93BB
:1053A0000C930E931093002A41F06F80E378303B0A
:1053B000332B00F29387DFE813F0B106FB05A60656
:1053C0009B065D06530649063F0635069107910781
:1053D000910791079107910791079107910791070D
:1053E00091079107910791079107910791079107FD
:1053F00091079107910791079107910791079107ED
:1054000091079107910791079107910791079107DC
:1054100091079107910791079107910791079107CC
:105420002906E378423B152B00F24B84DFE813F0AA
:10543000320349044904490449044904490449041C
:105440004904490449044904490449043D03490401
:10545000FD024904490449044904E802E278A2F142
:105460003103412B00F2E786DFE813F0A903A9031B
:10547000E506E506E506E506E506E506E506E506D4
:10548000E506E506E506E506E506E5068403E50628
:10549000E506ED03E506E506E506E506E506E506AF
:1054A000E506E506E506E506E603D103E506ED03B8
:1054B000E506E506E506E506E506E506E5068403F8
:1054C000E506E506E506E506E506E506E506E50684
:1054D000E506E506E506E506E506E506E506E50674
:1054E000E506E506E506E506E506E506E506C60386
:1054F0008896FF1FF89AFF1FD095FF1F72B6984D30
:10550000286962B6974B5B6B5A42904280F2D38116
:105510000220954B202103F1320203F8011F9A4229
:10552000FBD1924C924A9349934B12782778934E31
:10553000934C09781B783F5D3678924C183201EB1A
:105540004202303322706370A7700EB14823E370BB
:105550008D4B8E4A1B7812788A4930332371002A8A
:1055600000F05B8740234B71894B1A78884B012AE6
:1055700000F04F871A78022A00F04B871A78032A26
:1055800000F0E2871B78042B04BF2D23A371814B0D
:105590001A7C022A00F0A3871A7CFE2A00F0BA8740
:1055A0001A7CFF2A00F0AC871B7C012B00F0A88737
:1055B000794B02281A7C00F08887022A00F0818744
:1055C0001A7CFE2A00F087871A7CFF2A00F0948755
:1055D0001B7C012B00F09087704B5B780BB96B78CC
:1055E0000BB1662363726E4B664D1B78DA1E302159
:1055F000012AA17240F277876A4A12784AB16A4951
:105600008978002900F093873321A972022A00F0DB
:10561000A287664A5B491278002A0CBF30223122E9
:10562000012BE27200F04987022B00F07787042BF0
:1056300000F08687032B0CBF412355230B730128F1
:1056400000F0378757236373594B1B78002B40F0CA
:10565000C7864123574AA37313784120303323214F
:105660000022E37320746174A27421E1E378433B68
:10567000112B00F21D81DFE813F076021B011B01E4
:105680001B011B011B011B011B011B011B015F02F5
:105690001B011B016E021B011B014D024302E3783B
:1056A000413B162B00F21F86DFE813F01D030F03AA
:1056B000D303C503B2031D061D06AB031D061D065D
:1056C0001D061D061D061D06E1031D061D061D0601
:1056D000A4031D0686031D062B03E378423B2B2BF8
:1056E00000F2F785DFE813F007042804F505F50557
:1056F000F505E603F5051504F505F505F403D803EE
:10570000F505F505F505F505CA036E04F505F5057E
:10571000F505F505F505F505F505F505F505F505B9
:10572000F505F505F505F505F5055604F505F50549
:10573000F505F505F505F505F505F505F505480447
:10574000E378413B082B00F2B380DFE813F0CE0191
:10575000C801C201B100B100B100B100B100BB018C
:105760004093FF1F909AFF1FF79AFF1F5098FF1F4B
:105770005896FF1FD198FF1F409BFF1FE887FF1F10
:105780005C1F0200F89AFF1FE09BFF1F5298FF1F4B
:10579000C693FF1FE093FF1F7895FF1FD895FF1F4B
:1057A000C087FF1F8596FF1F2493FF1FD095FF1F03
:1057B000C187FF1F7095FF1FE378312B00F04386F0
:1057C000322B7DD172B6A24B186915F037FCA14B74
:1057D000D3E9042315F0C2FD1EAA62E9100162B6E6
:1057E0009D4B9E4C1B7800930123114620461A4680
:1057F0000BF0A6FC204617F083F9022220449849BA
:105800000EF0A8FF54E0E378303B422B00F25C85B9
:10581000DFE813F0E603E603E603E6035A055A055C
:105820005A055A055A055A055A055A055A055A0580
:105830005A055A055A05FC04DF045A05D0045A05D6
:105840005A055A055A055A055A055A055A055A0560
:105850005A055A055A055A055A055A055A055A0550
:105860005A055A05C1045A055A055A055A055A05DA
:105870005A055A055A055A055A055A05B004A8048E
:10588000A0045A058F045A055A055A055A055A05A7
:105890005A055A055A055A05A003E378303B032BF5
:1058A00006D8DFE803F0754C441D6C4B23221A80A8
:1058B0001EB0BDE8F0819842CCBF0220012028E64E
:1058C000664B23221A80F3E7664B9B78002B00F08F
:1058D000B285654B614A1B6813801B0C9370E7E728
:1058E000624B5E4CD3E9020155A3D3E9002315F0C6
:1058F0000BFC02460B4610A8FFF7AAFC10A80EF0FE
:1059000075FD51A3D3E9002315F0FEFB1EAB63E93F
:1059100010010122194620460BF0B6FA204617F076
:10592000EFF8022220444E490EF014FFC0E70FF0BA
:1059300017FB4F490246494817F034F8B8E70FF013
:105940000FFB4C4C20610CF07BFE064620690CF0EE
:1059500069FE074620690CF057FE804620690CF06E
:1059600029FE20690CF034FE2069434CF51784FBB6
:105970000634C5EB6415642404FB15640CF036FE94
:105980003E49009443463A46344817F00BF88FE7F7
:105990000FF0E6FA374C314D20610CF00BFE074654
:1059A00020690CF015FE15F0B1FF354916F0B6F878
:1059B0000646384615F0AAFF0146304615F0F2FEBD
:1059C000064620690CF012FE15F0A0FF2D4916F0D6
:1059D000A5F8314615F0E6FE15F042FB0B460246EF
:1059E0002146E1E90623284601220BF04DFA28461C
:1059F00017F086F80222284419490EF0ABFE57E74B
:105A00002479002C40F0FF801F4D204AEE68204989
:105A10001248642303FB06F382FB0362DB17C3EB2C
:105A2000223216F0BFFFEC6042E72379313B032BB3
:105A300000F2BF85DFE813F03F0436042D040C04A8
:105A4000000000A046DF913F000000A0C88E0E407D
:105A50004093FF1F909AFF1F5187FF1FF89AFF1F67
:105A6000F81E02002493FF1F141F0200A09BFF1FBB
:105A7000201F0200B097FF1F1F85EB514C1F020033
:105A800000007042000061452894FF1F8D512C6971
:105A9000341F02002379303B032B00F28585DFE8B9
:105AA00013F0F003E803E003CF032379303B052B29
:105AB00000F29185DFE813F064045A044C043E04BC
:105AC0002D041C04A04BA1491A78A14816F06AFFC6
:105AD000EEE6A04AA0499E4816F064FFE8E69F4A19
