:1000000000800020BD010000414A0000F9490000C5
:10001000F9490000F9490000F9490000F9490000D8
:10002000F9490000F9490000F9490000414A00007F
:10003000414A0000F949000071680000756900003C
:10004000414A0000414A0000414A0000414A000084
:10005000414A0000414A0000414A0000414A000074
:10006000414A0000414A0000414A0000414A000064
:10007000414A0000414A0000414A0000414A000054
:10008000414A0000414A0000414A0000414A000044
:10009000414A0000414A0000414A0000414A000034
:1000A000414A0000414A0000414A0000414A000024
:1000B000414A0000414A0000414A0000414A000014
:1000C000414A0000414A0000414A0000414A000004
:1000D000414A0000414A0000414A0000414A0000F4
:1000E000414A0000414A0000414A0000414A0000E4
:1000F000414A0000894E0000414A0000E1550000DD
:10010000414A00000D700000414A0000414A0000D1
:10011000414A0000414A0000414A0000414A0000B3
:10012000414A0000414A0000414A0000414A0000A3
:10013000414A0000414A000009400000414A0000D5
:10014000414A0000414A0000414A0000414A000083
:10015000AD6B0000C16B0000D56B0000E96B0000C7
:10016000414A0000A5580000414A0000414A0000F1
:10017000414A0000414A0000414A0000414A000053
:10018000414A0000414A0000414A0000414A000043
:10019000414A0000414A0000414A0000414A000033
:1001A000414A0000414A0000414A0000414A000023
:1001B000414A0000414A0000414A0000564B4CF2BF
:1001C000205210B51A804DF628121A8000BF00BFC9
:1001D00004F03AFC514B4FF010621A60504A9A609A
:1001E000504ADA60504A136813F4807304D14F49BF
:1001F0000B604FF4A85313604D4B1A78110703D5C9
:100200001A7842F008021A704A4B4B492A221A7097
:100210004A4A4B4B8B4204D252F8040F43F8040B6A
:10022000F8E7484B484900228B4202D243F8042B9E
:10023000FAE74649464A002352F8230041F82300D2
:1002400001336F2BF8D1434B434A802103F8011B44
:100250009342FBD1414B3D4A1A60414B8A221A70AE
:10026000A3F5805324225A70A0221A709A7992071B
:10027000FCD59A79D406FCD43A4A937903F00C035E
:10028000082B384BF9D105221A7143225A719A79F9
:100290009006FCD5334A9179324B4906FBD5324A58
:1002A0004FF0817111600521516020221A709A79F6
:1002B00002F00C020C2AFAD12C4B2D4A1A602D4B5D
:1002C0002D4A1A6000225A60072243F8042C2B4A58
:1002D000C3F80C2D62B604F0F5FC144B1B68DA076A
:1002E00005D5274804F04CFC264B274A1A60274BBB
:1002F0001B785B0609D5234C234B22689A4204D114
:100300001F4804F03DFC0023236009F0D9F804F0F5
:10031000A1FB06F073FCFEE70E2005403080044090
:10032000823F04000100002B10D0034014D0034092
:1003300002D0074000E00740F091FF1F00E00000FE
:100340002087FF1FF091FF1FB097FF1F0082FF1F44
:100350000000000000E400E05FE400E008ED00E0E1
:1003600000500640004006404480044004800440A1
:10037000C010050014E000E03F190100000020203B
:100380005C16AF5C1CE00340A5C3945A00F0074024
:10039000FFFFFFFFFFFFFFFFFFFFFFFFFFFFFFFF6D
:1003A000FFFFFFFFFFFFFFFFFFFFFFFFFFFFFFFF5D
:1003B000FFFFFFFFFFFFFFFFFFFFFFFFFFFFFFFF4D
:1003C000FFFFFFFFFFFFFFFFFFFFFFFFFFFFFFFF3D
:1003D000FFFFFFFFFFFFFFFFFFFFFFFFFFFFFFFF2D
:1003E000FFFFFFFFFFFFFFFFFFFFFFFFFFFFFFFF1D
:1003F000FFFFFFFFFFFFFFFFFFFFFFFFFFFFFFFF0D
:10040000FFFFFFFFFFFFFFFFFFFFFFFFDEF9FFFF23
:1004100010B5054C237833B9044B13B10448AFF33E
:1004200000800123237010BDF091FF1F0000000029
:10043000FCDF0000084B10B51BB108490848AFF3BA
:1004400000800848036803B910BD074B002BFBD0A0
:10045000BDE81040184700BF00000000F491FF1FE6
:10046000FCDF0000F091FF1F0000000000690B6935
:100470009842D4BF00200120704700BF80698B697B
:100480000028B8BF4042002BB8BF5B429842D4BF9F
:1004900000200120704700BFF0B586460120DEF83D
:1004A0005470DEF82C303A6A106079683A680A4471
:1004B0007A600EF12C0493B15A69002A08DB1A6A9B
:1004C00010605E6819683D695A6931445960521B71
:1004D00019690A445A6154F8043F002BECD1DEF844
:1004E0002430154ADEF81840DEF86400002111605F
:1004F000DB00516803F1804303F5603321440D2490
:1005000019611460DA68502122F08002DA60D96043
:1005100000B1F0BD7A68FB689A4200D0F0BDDEF809
:100520000820DEF85810936823F002039360002936
:10053000F4D0BDE8F040084700800340836A00F132
:10054000280233B10120596A52F8043F0860002B99
:10055000F9D1704710B5044606F006FB204610BDE1
:1005600030B5144B1C7883B00CB103B030BD2146BC
:100570001148124D04F064F921460F4804F096F931
:10058000294604460195009008F000FF30B10C495F
:10059000204608F00FFF10B9094C00E02C46094B2B
:1005A000094A1B6801930199084B11601C6003B054
:1005B00030BD00BF1C92FF1F1094FF1FF3FFC74206
:1005C000F3FFC7C2B494FF1F0C92FF1F2487FF1FC5
:1005D000D0B5174B174C1B681B794FF47A7101FB90
:1005E00003F1204603F0ECFB134B1B68586808F03E
:1005F00063F8124B1B68064618790F4608F05CF842
:1006000002460B4600204FF0804106F0B9FD02463D
:100610000B463046394608F0C5F808F073FB014632
:10062000204603F0D9FB064B01221A70D0BD00BF53
:10063000B092FF1F8C93FF1F3894FF1F7494FF1F0D
:10064000B892FF1FF0B503792B3B0246442B29D803
:10065000DFE803F02328232828282828282828280A
:10066000282828282828282828282828282828280A
:10067000282823282828282823282D2828282828FF
:1006800028282828282828282828282828282828EA
:10069000282823282828282823002C498B689B6891
:1006A0009B0731D492F8290080F00100F0BD284B5F
:1006B0009B689B68980702D5264B00211960234B45
:1006C0009968896889071AD5234E3578BDB95C6D5C
:1006D000596F6768D86FD4F800E0C3F88050C91B21
:1006E0000029B8BF49426768DD67884228BF0846CD
:1006F000014401250EFB007099673570E06000230E
:1007000082F829300120F0BD134F3D78002DC9D16A
:100710004E6D4B6F7068CC6FD6F804E0D6F800C011
:10072000C1F880501B1A002BB8BF5B429C4228BF07
:100730001C46181901230CFB04E48867CD673B7045
:10074000F460184682F82950F0BD00BF2092FF1FC8
:100750000893FF1FB492FF1F1492FF1F036A8B427E
:1007600023D0C369994200D070478369002BFBD026
:1007700010B472B60F4AC369846900211160DB00AE
:10078000516803F1804303F5603321440D2419615E
:100790001460DA68502122F08002DA60D96062B613
:1007A000006910BC03685B681847006903689B68B0
:1007B000184700BF008003402DE9F041436F046FEC
:1007C000456DA3426A6808D0D0F88020002A1344FF
:1007D00061DD9C42A8BF1C464467AB68A3423DD084
:1007E000002C2B68B4BF4FF0FF3201229A4215D083
:1007F00000F12401012608E013685B42012B13601D
:100800000BBF926AD36A13601E6051F8042F002A4E
:10081000F2D1C36E03EB4303DB002ED184EAE4760E
:10082000A6EBE476E6B183689A6812F00207804688
:1008300035D01A682A498A4228D959682948B0FB14
:10084000F6F6521A96423CD3B21A00270120032131
:100850009F60D8601A6099601E60AC60BDE8F0814E
:10086000214B8168214880221A608B6823F00203A3
:100870008B600260AC60BDE8F081013BFDD184EA91
:10088000E476A6EBE476002EEAD0CCE7154AB2FB7C
:10089000F6F61E60EEE79C42B8BF1C469CE7406936
:1008A00003681B689847D8F80830D8F854509F6000
:1008B00001220321DA600B4AB2FBF6F61E60996052
:1008C000D8E7D8F8140000210268996001250321B7
:1008D000DD6012681E6099609047D8F85450C9E7EF
:1008E0007F32020000512502C4F00F40C8F00F40D3
:1008F00083689A68920700D47047416D426F70B563
:1009000004464868E16F121A002AB8BF52428A4270
:1009100041D3D4F880108A422FD3A36FD4F8840037
:10092000591E8A423EBF023B9A1A4243D4F88C00B9
:1009300028BF0022104408F033FB06F099FD08F0B0
:1009400063FD0546A368E5B19A6812F002062ED051
:100950001A6825498A4225D959682448B0FBF5F51B
:10096000521A954232D3AA1A0024012003219C6016
:10097000D8601A6099601D6070BDD4F88850002D51
:10098000E2D11B4A1B48802111609A6822F00202C2
:100990009A60016070BDD4F88400D4F88C3000FBFC
:1009A0000230C8E7114AB2FBF5F51D6070BD606901
:1009B00003681B689847A3680C4A9E6001200321C6
:1009C000D860B2FBF5F51D60996070BD6069026882
:1009D0000026012403219E601268DC601D6099607E
:1009E000BDE87040104700BF7F3202000051250271
:1009F000C4F00F40C8F00F402DE9F043414B1B6895
:100A000083B0D3B9404C636D5B6872B6A06F08F0D9
:100A1000CBFA002108F01CFB08F0F6FC636F20679E
:100A20009842E36FD8BF5B42C4F8803062B6374B60
:100A300000221A6003B0BDE8F083354B334D1B68CC
:100A40000193019B2A689B1A0A2BF3D9314A324B36
:100A500010685B68C01A07F03FFE304B1B68064603
:100A6000586800EB800040000F4607F025FE2C4B35
:100A70001B6880461879894607F01EFE02460B4621
:100A800000204FF0804106F07BFB02460B464046BB
:100A9000494607F087FE02460B460020214907F031
:100AA000ABFF32463B4607F07DFE08F073F94FF08E
:100AB0007E51064608F06AFCD8B94FF07E56124CBB
:100AC000636D5B6872B6A06F08F06EFA314608F08D
:100AD000BFFA08F099FC636F20679842E36FD8BFB4
:100AE0005B42C4F8803062B600232B6003B0BDE8DF
:100AF000F0830D49304608F067FC0028DFD10A4E2C
:100B0000DDE700BFB492FF1F0893FF1FD492FF1FC1
:100B1000B494FF1F1892FF1F8C93FF1F0493FF1FB5
:100B20007494FF1F00002440000080BF70B50025B2
:100B3000044680F829500126206803681B699847FD
:100B400000281FDD206803685B69984794F82A3005
:100B5000C0B24BB93A28EFD1E36A84F82A60E218B0
:100B600001339071E362E7E7E36AE218232803F1B7
:100B7000010390710AD01E2BE362DDD184F82A5064
:100B8000E562D9E794F8290038B970BD0023012245
:100B900084F8292084F82A30E362A01D09F070FA55
:100BA000012804D9E28844F23A639A4203D0002033
:100BB00084F8290070BD237A237103280AD9637A47
:100BC0006371202B0BD0002384F82830012084F897
:100BD000290070BD0023637184F82830F6E70123F3
:100BE00084F8283004F10A0008F05AFC6062EDE74E
:100BF00038B5044609B19A420CD220680C49036802
:100C000001225B689847002520680368DB689847E5
:100C1000284638BD049B9A42EFD80068059B0549D9
:100C20001A60036801225B6898470125ECE700BF62
:100C30007CD8000084D8000070B51B491B4A1C4BAF
:100C40001C4D0C681C4912681B682D6826790C68BD
:100C50001A4952686D685B68B3FBF2F394B0B5FB58
:100C6000F2F2049626790C681549039626790C68E9
:100C70001449029664680968019449680091044621
:100C8000114907A809F0D6F9256807A809F0F8F96D
:100C90002B68024607A95B682846984720680368C6
:100CA000DB68984714B070BDCC92FF1F7C94FF1F87
:100CB0003C94FF1F1092FF1FC493FF1FB092FF1FB1
:100CC0003894FF1F0493FF1F0CD8000030B5124961
:100CD000124B134A0C6813491B681268247909687F
:100CE0001B79127991B001944968009104460E492C
:100CF00003A809F09FF9256803A809F0C1F92B683A
:100D0000024603A95B682846984720680368DB68A9
:100D1000984711B030BD00BF7894FF1F7494FF1F37
:100D20000093FF1F7C94FF1F34D800002DE9F84F7B
:100D30009DF83010DDF82890DDF82CA00546164609
:100D40001F4671B1002200233046394607F0B0FF3C
:100D5000002800F0A28028685349036801225B68DC
:100D600098473946304607F0CDFF80EAE07BABEB91
:100D7000E07B584607F0B0FC09F1FF3806464046D4
:100D80000F4607F0A9FC06F0F3F907F0BBFFB9F135
:100D9000010F044625DD07F09FFC02460B46304656
:100DA000394607F071FFE0B1DFF80C910AE007F077
:100DB00093FC02460B463046394607F065FF80B18A
:100DC00008F1FF3828683949036801225B689847B1
:100DD00089FB0423E417C4EBA304B8F1010F2046F8
:100DE000E5D15946286805F063FFBAF1000F52DDDE
:100DF00028682F49036801225B689847504607F02E
:100E00006BFC06F0B5F93246804689463B463046D3
:100E1000394607F013FB42464B4607F0C3FC07F088
:100E200071FF0AF1FF388146404607F055FC06F095
:100E30009FF907F067FFBAF1010F044625D007F0CC
:100E40004BFC02460B463046394607F01DFFE0B129
:100E5000DFF864A00AE007F03FFC02460B4630468C
:100E6000394607F011FF80B108F1FF3828680F49B3
:100E7000036801225B6898478AFB0423E417C4EBEC
:100E8000A304B8F1010F2046E5D149462868BDE822
:100E9000F84F05F00DBFBDE8F88F286805490368D5
:100EA00001225B6898475CE748D800007CD80000C6
:100EB00000D800004CD8000067666666F0B5424E68
:100EC000424D33686A685B68B2FBF3F20446B2F5E0
:100ED000803F00683E4924BFC3EB03436B60036857
:100EE00085B001225B689847336868685B68B0FB2F
:100EF000F3F007F0E1FB0025052602460B462046ED
:100F0000029501950096FFF711FF206831490368AB
:100F100001225B689847304B9B689B6813F0020F77
:100F20002E4B9B6802D19A68920749D52C4A1D68BE
:100F30001368187907F0C0FB02460B4600204FF0FB
:100F4000804106F01DF906460F462648B0FBF5F035
:100F500007F0C2FB32463B4607F04EFD07F0D2FEDB
:100F60000028B8BF404207F0A7FB02460B4600210D
:100F700003250291019100952046FFF7D7FE2068D6
:100F80001449036801225B689847174B186807F0FB
:100F9000B5FB0125022602460B4620460295019626
:100FA0000096FFF7C3FE2068104903682A465B6875
:100FB000984720680368DB6805B0BDE8F040184733
:100FC00000220023D3E700BF7C94FF1F8C93FF1FF8
:100FD00050D8000054D800002092FF1F0893FF1F34
:100FE0007494FF1F005125022487FF1F44D800007E
:100FF000F0B589B00B7A0024069406460594CDF826
:101000001B40002B48D00A460D4652F8080F254FCA
:1010100051683F6805AB03C31089917A6A681880EC
:10102000AC74997053687D68B3FBF5F5B5F5803FF6
:1010300030680AD303681C495B680222984730680D
:101040000368DB68984709B0F0BD036817495B681F
:1010500001229847284607F02FFB052502460B463C
:101060000294019430460095FFF760FE3068104905
:10107000036801225B689847346805A809F000F806
:101080002368024605A95B682046984730680949ED
:10109000036801225B68D1E7006803490368022204
:1010A0005B68CBE77C94FF1F58D800005CD8000039
:1010B00054D8000044D8000070B5044600681849B0
:1010C0000368184D5B680222984720681649036838
:1010D00011225B6898472068036829465B680122F3
:1010E000984720681149036805225B689847206883
:1010F000036829465B680122984720680C49036809
:1011000005225B68984720680A49036801225B68EA
:10111000984720680368BDE87040DB68184700BF47
:1011200060D8000054D8000064D8000078D80000CF
:1011300080D8000044D8000038B503794D2B044610
:101140007ED00AD9782B5DD07E2B72D0562B62D000
:1011500094F8290080F0010038BD3F2B62D0482B65
:10116000F6D1FFF7A9FF25683C492B680A225B6886
:1011700028469847284605F04BFD256838492B68D6
:1011800008225B6828469847284605F041FD2568F7
:1011900034492B6839225B6828469847284605F071
:1011A00037FD256830492B6858225B6828469847E8
:1011B000284605F02DFD25682C492B682A225B68FE
:1011C00028469847284605F023FD256828492B68BE
:1011D0000A225B6828469847284605F019FD2568CD
:1011E00024492B684E225B6828469847284605F01C
:1011F0000FFD20680368DB689847002384F82930D6
:10120000012038BD4379303B092B20D9002384F8D5
:101210002930012038BDFFF74FFF002384F8293023
:10122000012038BDFFF74AFE002384F82930012051
:1012300038BDFFF701FD002384F82930012038BDB7
:10124000FFF744FD002384F82930012038BD0A4A05
:1012500052F82310FFF7CCFED8E700BF88D8000073
:1012600094D80000A0D80000DCD8000038D90000D5
:1012700064D9000070D90000D892FF1F08B5097822
:1012800083798B420BD8C3798B4208D303798B4285
:1012900007D00171006803F087FB012008BD002022
:1012A00008BD012008BD00BF30B5054683B0D9B1E7
:1012B00002A9184601F8012DFFF7E0FF044628684F
:1012C0005CB903680A495B6801229847286803688B
:1012D000DB689847204603B030BD036805495B686A
:1012E000012298470124F1E70C460068E9E700BFB6
:1012F0007CD8000084D8000010B50446006803F0D4
:1013000039FBA379984204D3E379984201D820713C
:1013100010BD611D2046BDE81040FFF7AFBF00BF04
:101320000B68C268934218D30269934215D8426889
:10133000934214D070B582B002AD046845F8043D04
:101340004360261D204615F8011B013403F02CFBD9
:10135000B442F7D1012002B070BD002070470120D7
:10136000704700BF30B583B005460192C9B1184639
:1013700001A9FFF7D5FF044628685CB903680A494C
:101380005B680122984728680368DB689847204615
:1013900003B030BD036805495B680122984701240A
:1013A000F1E70C460068E9E77CD8000084D800002B
:1013B000F8B50446064654F8045B00F108072D1BF7
:1013C000281903F0D7FA04F8010BBC42F8D173686E
:1013D000F268934202D33269934205D939463046C6
:1013E000BDE8F840FFF79CBFF8BD00BF0B68C268BE
:1013F000934218D30269934215D84268934214D09D
:1014000070B582B002AD046845F8043D4360261D06
:10141000204615F8011B013403F0C6FAB442F7D197
:10142000012002B070BD002070470120704700BF4E
:1014300030B583B005460192C9B1184601A9FFF73E
:10144000D5FF044628685CB903680A495B68012235
:10145000984728680368DB689847204603B030BD8A
:10146000036805495B68012298470124F1E70C46AF
:101470000068E9E77CD8000084D80000F8B504468D
:10148000064654F8045B00F108072D1B281903F0E9
:1014900071FA04F8010BBC42F8D17368F268934208
:1014A00002D33269934205D939463046BDE8F84047
:1014B000FFF79CBFF8BD00BFF8B507460025856063
:1014C000FD601420C7F80F500E4605F09FFB3268F0
:1014D0000C4B8560C560026003610446FFF7CEFFD8
:1014E00036687C603D46341D45F8074B0F36204674
:1014F00003F040FA0134B44205F8010FF7D1384641
:10150000F8BD00BF009435772DE9F8430024074665
:1015100091464E1EC51DA0460CE0B8F1000F18BF45
:10152000002105F8011F38682044013403F03CFA1B
:101530000A2C0CD016F8011F232904D00029ECD165
:101540004FF00108EDE74FF001080021E9E73868A6
:101550000021B9740A3003F027FA49467868FFF78A
:1015600045FF0120BDE8F8832DE9F04383B0002654
:101570001420019605F04AFB019B0360012510220F
:101580004FF4007382600361C5600446FFF710FFEB
:10159000019BDFF8FC91DFF8FC81C9F800400433BF
:1015A0000820019305F032FB019B036032230A22DD
:1015B0004371A0238271C3710446FFF79DFE019B16
:1015C000684A2B4408201460019305F01FFB019B1F
:1015D000036004230222437107238271C37104460E
:1015E000FFF78AFE019B604A2B4408201460019398
:1015F00005F00CFB019B467186710360C5710746BF
:10160000FFF77AFED9F80030019A5B685749C3EBBF
:10161000034444452A444FF0140028BF44460F6059
:10162000019205F0F3FA019B04618660C6600360D5
:101630000746FFF723FFD9F80030019A5B684C4951
:101640004C4C0F60C3EB0343984502F104024FF08A
:10165000140028BF9846019205F0D8FA019AC0F804
:1016600010804FF6FF73C660026083600746FFF785
:1016700005FF019B404A043314201760019305F0D5
:10168000C5FA1427019B036040F2E7388760C0F871
:101690001080C5600646FFF78BFE019B374A043376
:1016A00038461660019305F0B1FA019BC0F810802E
:1016B00087600360C5600646FFF77AFE019B304AEB
:1016C000043308201660019305F0A0FA4FF01E09BC
:1016D000019B03604FF06308857180F8059080F8E6
:1016E00007800646FFF708FE019B264A2B44082088
:1016F0001660019305F08AFA019B036080F805905B
:10170000857180F807800646FFF7F6FD019B1E4AAB
:101710002B4408201660019305F078FA019B0360C2
:1017200080F80590857180F807800746FFF7E4FD93
:10173000019B164A02AE2B4446F8043D176004F1A3
:101740002807142005F062FA31460546FFF7B4FE7B
:10175000019B44F8045B0F33BC420193F1D103B009
:10176000BDE8F0837894FF1F7494FF1F0093FF1F60
:101770001092FF1FD892FF1F3C94FF1F0493FF1F7E
:101780003894FF1FB092FF1FC493FF1FCC92FF1F1E
:101790007C94FF1F0094357738B504460D46407899
:1017A000012103F013FA2A46A1786078BDE8384099
:1017B00003F012BA70B500210646407803F006FA2D
:1017C00000252C46707803F0F3F9A840012104436A
:1017D000B0780D4403F0E6F90021B07803F0E2F9A7
:1017E000082DE4B2EED1204670BD00BF2DE9F041D6
:1017F000077806460D46807800219046602403F065
:10180000D1F93846012103F0CDF92346013BFDD142
:10181000690061F07F01304601F0FE01FFF7BCFF77
:1018200041463046FFF7B8FF3846002103F0BAF9C9
:10183000013CFDD1BDE8F081002A2CDD2DE9F0410D
:1018400090F800801F2A0D4606464FF00001807870
:101850001746A8BF1F2703F0A5F94046012103F052
:10186000A1F96023013BFDD1FE213046FFF794FF33
:10187000013D0024013415F8011F3046FFF78CFFAD
:10188000A742F7DC4046002103F08CF96023013BBE
:10189000FDD1BDE8F08170470A4B0B4A5B681168C7
:1018A0008B4200D1704700B50849136085B00868C5
:1018B00001930C2201A902930393FFF7BDFF05B02A
:1018C0005DF804FB8C93FF1FD092FF1F2C94FF1F29
:1018D000002A2CDD2DE9F04190F800801F2A0D46EA
:1018E00006464FF0000180781746A8BF1F2703F077
:1018F00059F94046012103F055F96023013BFDD120
:10190000FF213046FFF748FF013D00243046FFF736
:1019100051FF0134A74205F8010FF7DC40460021D2
:1019200003F040F96023013BFDD1BDE8F081704731
:1019300070B51C4D286888B0F0B100220721FFF770
:1019400055FF1F2228686946FFF7C2FF9DE80C007B
:101950009A4209D0144A154B126852685A60144AC8
:101960005B68136008B070BD124B1B685B689A42DD
:10197000F0D80E4B5A60F2E7032005F047F9042334
:101980000446032218460226012162702370A670C5
:1019900003F01CF93046012103F018F92C602046B1
:1019A000CBE700BF2C94FF1F1092FF1F8C93FF1FEB
:1019B0001892FF1F3C94FF1F38B504460C49A268DB
:1019C0000C489368206023F0020304F10C05936037
:1019D0002846616005F0C8F8206A02F0FFFA606AE4
:1019E00002F0FCFA284605F0BFF8204638BD00BFDB
:1019F000BCD70000C8D7000010B5034B03600446F5
:101A0000FFF7DAFF204610BDF0D7000010B5034BFA
:101A100003600446FFF7D0FF204610BDDCD700006E
:101A2000884231D02DE9F04700F1040841451646BF
:101A30008A46814617D0D9F80010D8F80000B04780
:101A400098B9D8F80050444601E0236863602746FF
:101A5000284654F8041DB0470028F6D13D6008F12F
:101A60000408C245E7D1BDE8F087C9EB0802930836
:101A7000D8F8004005D0C2F104004044494608F0BF
:101A800021F8C9F80040EAE7704700BF2DE9F843A4
:101A90000B1A432B1CDD00F14008894641461746CE
:101AA000FFF7BEFFC14515D0D8F80050444601E00D
:101AB000236863602646284654F8041DB84700286A
:101AC000F6D108F10408C1453560EDD1BDE8F883D1
:101AD000FFF7A6FFBDE8F8832DE9F04F561E06EB91
:101AE000D67683B07610B142019288460546994673
:101AF0000C9F5CDA8A4600E0DA460AF101034FEAFD
:101B0000430B0BF18041013955F8330055F8211092
:101B100005EBC304B84718B10BF1FF3B05EB8B0491
:101B2000236845F82A30B345E6DB019BDA0707D482
:101B3000019BA3F1020A0AEBDA7ABBEB6A0F06D02B
:101B4000C34514DCC4F8009003B0BDE8F08F0BF17E
:101B5000010B4FEA4B0B0BF18043013B0BF1FF3BB9
:101B600055F823302360C34505EB8B04EADD0BF108
:101B7000FF3606EBD6767610494655F82600B8476C
:101B8000731E03EBD37305EB86045B1030B905EBD2
:101B90008B04C4F8009003B0BDE8F08F55F8262000
:101BA00045F82B20B045CDDAB3461E46E4E7019B4D
:101BB000DB0700EB8104C5D48B46B9E72DE9F04F74
:101BC0000C1A432C85B040F389800546894692461D
:101BD0001E46002A61D0031D0393E410686855F87F
:101BE0002410B0470AF1FF3A59F8041C002834D0F9
:101BF00055F82400B047002837D02B6855F824202A
:101C00002A6045F8243068682968039FCB46B846A7
:101C1000B04780B9ABF1040421682868A346043CAE
:101C2000B0470028F8D15F4509D23A68DBF80010C8
:101C30003960CBF8002057F8040F2968E7E74946D8
:101C40003346524638467C1BFFF7B8FF432C45DD30
:101C5000BAF1000F22D0B946BFE76868B04798B123
:101C600095E8030029606860CFE759F8041C6868AC
:101C7000B0470028F4D02B6859F8042C2A6049F8A2
:101C8000043C68682968C0E759F8041C55F824002A
:101C9000B0472B680028B1D0EEE78846A410A71EF5
:101CA0007F1005EB870900E0013F59F804390096E1
:101CB000224639462846FFF70FFF002FF4D158F887
:101CC000043D2A680096C5EB0804C8F800200021EE
:101CD000A2102846FFF700FF072CF0DC05B0BDE896
:101CE000F08F00BF2DE9F0478B0000F12807FC18AA
:101CF000A74205460E4600F0A2809A10B2FA82F280
:101D0000C2F11F028A4B520021463846FFF756FFA8
:101D1000874A21463846FFF7B9FEAB6A6B65012E4C
:101D200040F30281D3F810E03846012250F8041F36
:101D30000B690132CEEB430396424B61F6DCA742BE
:101D400000F0C980D5F828C005F12C03DCF8181084
:101D50001A460DE01068806981EAE17680EAE07752
:101D6000A6EBE176A7EBE0770432B742B8BF0146B5
:101D70009442EFD181EAE176A6EBE176DCF81C0033
:101D800006E01A68D269904203F1040328BF1046A6
:101D90009C42F6D10446BEF1000F00D00EB9BDE85A
:101DA000F0872B6828461B6898476B6D5F68DB6877
:101DB0006F67DF1B002FB8BF7F424FEA4408AF6751
:101DC000C5F88860C5F88C40C5F88480304607F0B7
:101DD000E7F8014607F03CF98146404607F0E0F895
:101DE0000146484607F0E8F94FF07C5107F026F825
:101DF00007F030FB7B08984228BF18463F1AC5F809
:101E00008070E86700285BD13EB3AB689A6812F037
:101E1000020474D01A6847498A426BD95868464907
:101E2000B1FBF6F1121A914257D38A1A0026012407
:101E300003209E60DC601A609860196017E0836A76
:101E4000436501293FF76EAFD3F810E09969DC696B
:101E500081EAE176A6EBE1769DE7384AAB6838483F
:101E6000802111609A6822F002029A600160286A5B
:101E7000696A0126002203248842DE609A609C6021
:101E80004CD0EB69002B8AD072B62E492B6AE869D8
:101E90000A60DB004A6803F1804303F560330244C3
:101EA0000D201A610860DA68502122F08002DA60A1
:101EB000D96062B668690368BDE8F0475B68184797
:101EC000204607F06DF805F0D3FA07F09DFA0646B4
:101ED000002EC2D099E7AB6AB8E7686902680027AC
:101EE000012603249F601268DE6019609C609047A1
:101EF000AB68BCE71049B1FBF6F11960B7E7686958
:101F000003681B689847AB680B499C60012003225B
:101F1000D860B1FBF6F119609A60A8E768690368B8
:101F2000BDE8F0479B681847D3F810E00AE700BF08
:101F30006D0400007F32020000512502C4F00F4002
:101F4000C8F00F4000800340F8B5104B1B78012B00
:101F5000044601D0FEF73CFB0D4E0E4B00252146FA
:101F600030461D7001F05CFF0B4B1A6E1D6602F1CE
:101F70000A0702F10B04012243F8276018461146B4
:101F800043F82450FFF7AEFEF8BD00BFB892FF1F24
:101F90008C93FF1F1492FF1F2092FF1FFFFFFFFF74
:101FA00030B50379213B85B00446522B00F2728193
:101FB000DFE813F05C0070017001530070017001E4
:101FC0007001700170017001700170017001700189
:101FD0007001660079007E008E0090009A009C00DF
:101FE0009E00B200700170017001700170017001FB
:101FF0007001700170017001700170017001700159
:10200000BE007001700170017001700170017001FB
:102010007001D20070017001DB007001700170016D
:102020007001700170017001700170017001700128
:102030007001700170017001F90070017001700190
:1020400015017001700170017001700132017001A1
:1020500070017001700170015601002420460021BA
:10206000013402F0A1FCB4F5006FF7D102F09AFE42
:1020700003F032F84FF47A7002F0D4FD03F010FC54
:102080009F4B406A1A689F4B52681B6894F828104F
:1020900000FB02F22046FFF7CBF9002384F8293039
:1020A000012005B030BD964B406A1A68964BEBE7AD
:1020B000964B626A1B6894F828102046FFF752F985
:1020C000934A00230120137084F8293005B030BDF5
:1020D000904BEEE7904B94F824201B6894F828105E
:1020E0002046FFF7E1F8EBE78C4BF4E78C4BF2E787
:1020F0008C4D426A2B6890F82810FFF7D5F82B68B2
:1021000089481979003118BF012101F047FE0023E9
:1021100084F829300120C4E7794B426A1B6890F8A3
:102120002810FFF71FF9002384F829300120B8E7B1
:1021300090F8283053B1724B734A1B681268586884
:10214000636A526803FB00F0904262D900230120C9
:1021500084F8293005B030BD6A4A6B4B12681B68A1
:1021600050685B689842F1D853E0654B664A1B683B
:1021700010685B68626A94F8281003AD01954068A6
:10218000009002FB03F220460023FEF731FD0028F9
:10219000DCD0664B644A1B7803995160002BD5D183
:1021A000FFF77AFBD2E7624D426A2B6890F828105D
:1021B000FFF77AF80028C9D02B685E4D1B792A7882
:1021C00003EB8303022A4FEA430078D0032A66D048
:1021D000012ABBD10146686801F0DAFBB6E7437912
:1021E000303BDAB2092AB1D8012101FA02F240F2F9
:1021F000EF3111400029A9D04F4A52F823301A7A02
:10220000002AA3D040495A680B6850685B6898421E
:102210009CD8FFF799FE99E7484D426A2B6890F8E1
:102220002810FFF741F8002890D02B68187906F0A5
:1022300053FA02460B4600204FF0804104F0A0FF05
:1022400006F060FD3B4B1A78022A01464CD0032A67
:1022500045D0012A7FF47AAF586801F0B7FC75E7E2
:102260004579303D092D3FF671AF0B3007F018F975
:10227000234A31491268034651F8250051686362C8
:1022800004AA03FB01F342F8043D04F11101FFF736
:102290003BF95BE790F8290080F0010001E706F0C8
:1022A0000BFA15A3D3E9002306F0A6FB06F052FDB6
:1022B0004FF07A5281B2E86801F0CEF946E706F0B5
:1022C000FBF90DA3D3E9002306F096FB06F042FDCF
:1022D0004FF07A5281B2A86801F018FA36E781B25D
:1022E000D86801F017FA31E781B2986801F012FA64
:1022F0002CE700BFAFF30080CD3B7F669EA0F63F8A
:102300007C94FF1F1092FF1F3C94FF1F0493FF1F3C
:10231000B892FF1F3894FF1FB092FF1FC493FF1F96
:10232000CC92FF1F0093FF1F8C93FF1F1C92FF1F77
:102330007894FF1FBC92FF1FD892FF1F7494FF1F59
:102340002DE9F04700F128064FEA810806EB080561
:10235000AE4204468946174610D04FEAA802B2FAA8
:1023600082F2C2F11F025200294630464C4BFFF761
:1023700025FC4B4A29463046FFF788FBD4F828E075
:10238000C4F854E0DEF818C0BCF1000F60D08CEA4D
:10239000EC730022A3EBEC73B9F1010FCEF8082027
:1023A000CEF8103011DD08F12408A044304650F872
:1023B000042F9369002BB8BF5B421361DEF8101045
:1023C0004045C1EB43035361F1D1AE425FD0DEF82B
:1023D0001C2004F12C0306E01968C9698A4203F144
:1023E000040328BF0A469D42F6D12E49A36EDEF8AB
:1023F0000400C4F878C0A1FB0303A1FB02129B09EF
:10240000920903FB02F20023E267636772B6A06FD2
:1024100006F0CAFD394606F01BFE06F0F5FF636FB5
:1024200020679842E36FD8BF5B42C4F8803062B641
:102430001D4BA168256A606A1C4E80221A608B6859
:10244000854223F002038B60326023D0E3690BB92D
:10245000BDE8F08772B6164A236AE0690021116070
:10246000DB00516803F1804303F5603301440D2024
:1024700019611060DA68502122F08002DA60D960B8
:1024800062B660690368BDE8F0475B681847A36AF5
:10249000DA69AAE760690368BDE8F0479B681847F6
:1024A0007D040000D34D6210C4F00F40C8F00F400F
:1024B00000800340F8B5204B204D1B681B794FF47A
:1024C0007A7101FB03F1284601F07AFC1C4B1B6872
:1024D000586806F0F1F81B4B1B68064618790F4642
:1024E00006F0EAF802460B4600204FF0804104F067
:1024F00047FE02460B463046394606F053F906F0D1
:1025000001FC0146284601F067FC0F4B196E01F1F2
:102510000A0701F10B04002643F827504FF07E52C2
:1025200018461E6643F824600121FFF709FF074B98
:1025300002221A70F8BD00BFC493FF1F8C93FF1FC7
:102540000493FF1F7494FF1F0893FF1FB892FF1F8F
:10255000F8B50379492B044660D030D9692B1AD0DD
:102560006F2B18D04F2B25D13A4B1B780022022B12
:1025700080F8292001D0FFF79DFF374B20681D68A8
:10258000364A036836496D68156001220A605B6847
:10259000344998470AE02068314A036831495D6848
:1025A0000023136084F829300122A84720680368BB
:1025B000DB68984794F8290080F00100F8BD2B2BC8
:1025C00016D02D2BF6D1234B1B780022022B80F83E
:1025D00029203AD0FFF76EFF94F8290080F001001F
:1025E0001F491E4B4FF0FF3400220C601A60F8BDEB
:1025F000184B1B780022022B80F8292027D0FFF7E8
:1026000059FF94F8290080F00100134B134A196810
:10261000134B4968116001221A60F8BD0D4B1B78FD
:102620000022022B80F8292001D0FFF743FF206809
:102630000B4E0368094A5B680A494FF0FF370025D3
:102640001560376001229847B0E70120C8E70120F4
:10265000DBE700BFB892FF1F3C94FF1F1892FF1FDB
:10266000B492FF1F84D8000070B50546FEF75EFAED
:1026700040B195F8294044B91A4B9B689A689B6809
:102680009A0720D50024204670BD2846FDF7DAFFC2
:102690000028F8D195F82930002BEDD02846FEF718
:1026A0004BFD0028EFD10F4EB3689A689107E6D42E
:1026B00095F82920002AE2D02846FFF749FF002894
:1026C000E1D1B368DBE7084B9B689B689B07D9D4D3
:1026D00095F82930002BD5D02846BDE87040FFF78B
:1026E0005FBC00BF2092FF1F0893FF1F08B5124B6D
:1026F0009B689B689B0705D4104B9B689B6813F0F5
:10270000020309D00E4B01221A70FEF775F90D482D
:10271000FFF7AAFF58B108BD094A1370FFF7BCF8CC
:10272000FEF76AF90748FFF79FFF0028F3D1064834
:10273000BDE80840FFF798BF2092FF1F0893FF1FD6
:102740001C92FF1FDC93FF1F4094FF1FFFFFFFFF42
:102750002DE9F84301210A2002F038FA01210A206C
:1027600002F020FA944B954E1B68954C187906F0B0
:102770001BFC944906F06CFC06F06CFE33680225E5
:10278000804638201F79257004F040FA8E4A0A21CD
:10279000814600F07BFC01210720C4F8089002F07C
:1027A00015FA0121072002F0FDF90121062002F0AF
:1027B0000DFA0121052002F009FA01210A2002F098
:1027C00005FA0021062002F0EDF90021052002F0B3
:1027D000E9F901210A2002F0E5F97C4801F094F8BA
:1027E00029460C2002F0F2F9A06800F08BFEA068E8
:1027F00003680121DB6A9847A068FF2100F0C8FF49
:10280000A068042100F024FBA06803680021DB69B4
:102810009847A068036829465B699847A06801212A
:1028200000F048FBA068012100F0ACFBA06801218A
:1028300000F0BAFBA068B42100F084FBA06801217D
:1028400000F090FB2378AB4200F09E80032B00F059
:102850008A80012B78D0384605F03EFF02460B46B1
:1028600000204FF0804104F08BFC06F04BFA2378F7
:10287000534A022B72D0032B6BD0012B5FD0002167
:10288000072002F08FF9524B524D1B68524C58688A
:1028900005F012FF336880461879894605F00CFF71
:1028A00002460B4600204FF0804104F069FC0246CE
:1028B0000B464046494605F075FF06F023FA0146EF
:1028C000284601F089FA454B1B681B794FF47A7151
:1028D00001FB03F1284601F073FA414B1B6819799B
:1028E000003118BF0121284601F058FA236E03F188
:1028F0000A070B33002644F827504FF07E5244F865
:102900002360204601212666FFF71AFD636D5B6890
:1029100072B6A06F06F048FB002106F099FB06F0A6
:1029200073FD636F20679842E36FD8BF5B42C4F8C2
:10293000803062B62B4B02221A70BDE8F883014644
:10294000506801F043F99AE74146606801F020F8C9
:1029500081E781B2D06800F0DDFE90E781B2906837
:1029600000F0D8FE8BE7404605F0A6FE10A3D3E9A1
:10297000002306F041F806F0EDF94FF07A5281B2EB
:10298000E06800F069FE66E7404605F095FE08A3A2
:10299000D3E9002306F030F806F0DCF94FF07A5264
:1029A00081B2A06800F0B2FE55E700BFAFF300802F
:1029B000CD3B7F669EA0F63F7894FF1F7494FF1F67
:1029C000BC92FF1F00002041EC51B83D2C87FF1F37
:1029D0000493FF1F8C93FF1F0893FF1FC493FF1FD7
:1029E0000093FF1FB892FF1F30B5012183B0212053
:1029F00002F0ECF814240121212002F0D3F80A207F
:102A000002F010F90021212002F0CCF8322002F06F
:102A100009F9013CEFD10121052002F0D7F801218D
:102A2000062002F0D3F82146062002F0BBF821462A
:102A3000052002F0B7F81A2002F006FC21461F20FC
:102A400002F0C8FB40F60B2002F0A4FA0A21264847
:102A5000264D04F035F9FEF787FD254801F056FDB7
:102A60000C21234801F078FE2146214801F0E8FEC0
:102A700021461F4801F01AFF29460446019500909F
:102A800006F084FC68B31B49204606F093FC00B9AD
:102A9000184C194B16481C60002101F07DFE174BA5
:102AA0001968FF221A7121B1154B16480B441B11EE
:102AB0001A54154A1549114804F00CF8FFF748FE5E
:102AC000FEF736FF0121212002F06CF84FF4FA7076
:102AD00002F0A8F80021212003B0BDE8304002F048
:102AE00061B82C46D5E700BF7087FF1FF3FFC742D0
:102AF0001094FF1FF3FFC7C22487FF1F3094FF1FEE
:102B0000008FFCBF44E400E0FF94BA0A61050000B6
:102B10002DE9F04F062287B0604C6148DFF8B8A17C
:102B2000604F614D052101F009F9604B6461002699
:102B300004F104094FF0800884E80804A660E66008
:102B400084F81080484601F035FA2062484601F0CA
:102B500031FA4FF001096062A66584F85C60266670
:102B6000C4F8649001F0FAF9616904F1080001F019
:102B7000BBF90623A361019341F2F9534FF0050B12
:102B8000E3614B4A4B4984F85C0041F28833226090
:102B9000A3663A46C4F86CB020462667666606F01F
:102BA00079FC424BAE602C1D85E80804EE6085F888
:102BB000108020466D6101F0FDF92862204601F089
:102BC000F9F9AE65686285F85C602E66C5F86490B8
:102BD00001F0C4F96969DFF804A1374C05F1080078
:102BE00001F082F9019BAB6141F2F953EB6141F2D3
:102BF0008833DFF8ECE085F85C003A46AB66C5F850
:102C00006CB028462D49C5F800E0C5F8649006F080
:102C100041FCDAF800300593294B059A1A602046EA
:102C2000092101F013FA21462648274D274CDFF8E9
:102C3000B49001F089FBDAF800300393DDF80CB0B2
:102C4000DAF800300493224BDDF810C0DFF898E08A
:102C50002049C3F830C03A4628465E6283F82860AF
:102C600083F8296083F82A60DE62C3F800E085F803
:102C700004802E60C4F830B0666284F8286084F85E
:102C8000296084F82A60E662C4F8009006F002FC2D
:102C900001F028FE07B0BDE8F08F00BF2092FF1FB3
:102CA0008C93FF1F2087FF1F0893FF1FC8D70000CA
:102CB000DCD700000D1A0000C893FF1FF9190000AF
:102CC0000C92FF1F1094FF1F3094FF1F4094FF1FB2
:102CD000DC93FF1F55050000BCD70000B494FF1F14
:102CE000F0D700009087FF1F7087FF1F90F8252006
:102CF00010B461F30612046880F825202468D0F827
:102D0000252023466C2110BC184700BF70B490F8F2
:102D1000252090F82650046801F0010625F00705EB
:102D200002F07F02C1F3420142EAC612294380F851
:102D3000261080F825202468D0F8252023466C2111
:102D400070BC184770B490F8262090F8275004689B
:102D500001F0010625F0010502F07F02C1F34001F8
:102D600042EAC612294380F8271080F826202468FA
:102D7000D0F8252023466C2170BC184790F82720F6
:102D800010B461F34102046880F827202468D0F869
:102D9000252023466C2110BC184700BF90F828203E
:102DA00010B461F30302046880F828202468D0F886
:102DB000252023466C2110BC184700BF036810B5BE
:102DC0006C215B6804469847C4F8250094F82500F8
:102DD000C0F3021010BD00BF036810B56C215B6822
:102DE00004469847C4F82500606AC0F3C33010BD9C
:102DF000036810B56C215B6804469847C4F8250049
:102E0000E08CC0F3C11010BD036810B56C215B6885
:102E100004469847C4F8250094F82700C0F3400002
:102E200010BD00BF036810B56C215B68044698476D
:102E3000C4F8250094F8280000F00F0010BD00BF72
:102E40000A460168C0F825200B686C21184700BFAE
:102E500090F8252010B461F30302046880F825205F
:102E60002468D0F8252023466C2110BC184700BFE9
:102E7000838D418530B423F4FF73C1F3084223F0FE
:102E800001031343056883852B6821F07E4230BC23
:102E90006D21184703686F215B681847426910B4B9
:102EA00061F3192204684261236810BCC1F3110266
:102EB00000211847427D61F38202427510B44269D5
:102EC0000468C2F31122236810BC0021184700BF18
:102ED000426810B461F3130204684260236810BCB6
:102EE000C1F3130210211847027961F30402027141
:102EF00010B442680468C2F31302236810BC1021A6
:102F0000184700BF427961F30402427110B442686D
:102F10000468C2F31302236810BC1021184700BFD5
:102F200030B490F830200568C18522F03F04C1F329
:102F30000542224380F830202B68C1F3150230BCD3
:102F40007021184780F82E1090F83010C28D10B400
:102F5000046801F03F0342EA03427021236810BC79
:102F6000184700BF80F82F1090F83010C28D10B4B1
:102F7000046801F03F0342EA03427021236810BC59
:102F8000184700BF30B490F830300568C28D61F347
:102F9000010380F8303003F03F0342EA034270211E
:102FA0002B6830BC184700BF30B490F8303005684B
:102FB000C28D61F3820380F8303003F03F0342EAB0
:102FC000034270212B6830BC184700BF2DE9F8433D
:102FD00005460E46174607244FF000081FE013F081
:102FE000010F4FF00101287808BF394601F0DAFDE2
:102FF0000121287901F0D6FDA87801F0D9FD003033
:1030000018BF012000FA09F040EA08005FFA80F8D2
:103010000021013C287901F0C5FD631C20D0C4F1DA
:10302000070946FA09F346FA04F1002FD7D011F048
:10303000010328784FF0010108BF194601F0B2FDE5
:103040000121287901F0AEFDA87801F0B1FD003032
:1030500018BF0120A04040EA08005FFA80F8D7E7D7
:103060004046BDE8F88300BF70B501220D46090A4D
:103070000646FFF7ABFFE9B2044601223046FFF7F0
:10308000A5FF40EA042080B270BD00BFF0B5857A8C
:10309000224EC26025F00F058572054600244FF0D0
:1030A0007C57076184808471C471048145F8156B75
:1030B000A0F81540AC70028C877E467F90F82450B3
:1030C000048322F4FF7222F001020284828DC4760E
:1030D00022F4FF7227F00F0726F00F0625F07F0578
:1030E00022F001020477C4834484C0F82540877627
:1030F000467780F8245080F829404485C48582852D
:1031000080F8304090F83120418664F3010200F1EC
:10311000040E80F831204463F0BD00BFC8D9000020
:10312000F8B5436B04460D46002B42D0002190F8C1
:10313000320001F037FD01222946606BFFF746FFA0
:103140000021606BFFF790FF0021606BFFF78CFFA1
:10315000012194F8320001F025FD002194F832009D
:1031600001F020FD29460122606BFFF72FFF0122AD
:1031700020750021606BFFF729FF01220502002165
:10318000606BFFF723FF012205430021606BFFF70F
:103190001DFF2D02054301220021606BFFF716FF82
:1031A0002D02054394F83200012101F0FBFC284672
:1031B000F8BD634A63481768634E02E0172908D0D8
:1031C0000B4630F8022F96FBF2F2974203F1010111
:1031D000F4D35E4A5E4E52F82320F17A22F4704313
:1031E000120943F0785302F470621343E9B172B6E6
:1031F000F27AD707114606D55648F1680768394074
:10320000B16101601146900706D5534832690768DD
:10321000F17A3A40F26102604A0705D54F49726976
:103220000868024032620A6062B63268D168994228
:1032300007D04B4810604B49D36043F08040106189
:103240001160002194F8320001F0ACFC32684FF0BC
:103250000043D3625563D36A002BFCDA4FF0004180
:103260004FF08053906BD1625363D36A002BFCDA2A
:103270004FF000414FF08053906BD1625363D36A9B
:10328000002BFCDA012194F83200936B01F08AFCE8
:10329000002194F8320001F085FC33684FF00042C1
:1032A000DA625D63DA6A002AFCDA9A6B22754FF003
:1032B00000410022D9625A63DA6A002AFCDA9D6B67
:1032C0004FF000402D020022D86205F47F415A637E
:1032D000DA6A002AFCDA9D6BEDB20D4300224FF052
:1032E0000041D96228025A63DA6A002AFCDA9D6B2F
:1032F000EDB2054300224FF00040D86229025A6324
:10330000DA6A002AFCDA9D6BF37A1148EDB20D43BC
:103310001A46002B3FF446AFDF0703D5124A8169F6
:1033200011601A46990703D5104BF169F27A1960BA
:1033300053077FF537AF0E4B326A1A6032E700BF92
:103340002887FF1FFAD90000005125022CDA00005F
:103350002C87FF1F80E100E084E100E088E100E0CD
:1033600001403F0000003F8000E100E004E100E098
:1033700008E100E0F8B5436B0446154641F08007CC
:10338000CBB1002190F8320001F00CFC394601224B
:10339000606BFFF71BFE290C2075606BFFF764FE66
:1033A000A9B2606BFFF760FE94F832000121BDE81E
:1033B000F84001F0F7BB464A4648D2F800E0464ED6
:1033C00002E0172908D00B4630F8022F96FBF2F2E4
:1033D000964503F10101F4D3404A414E52F82320AF
:1033E000F17A22F47043120943F0785302F47062C8
:1033F000134319B372B6F27AD007114609D5DFF834
:10340000FCE0F068DEF800100140B161CEF8001079
:103410001146900709D5DFF8E8E03069DEF80020B2
:10342000F17A0240F261CEF800204A0705D52D4915
:1034300072690868024032620A6062B63268D16816
:10344000994207D0284810602849D36043F0804053
:1034500010611160002194F8320001F0A3FB336881
:103460004FF00042DA625F63DA6A002AFCDA996B95
:1034700021752A0C42F080524FF00041D9625A6304
:10348000DA6A002AFCDAADB245F080554FF000420E
:10349000996BDA625D63DA6A002AFCDAF27A9B6B76
:1034A0000F491346002A3FF47FAFD00703D5104BD6
:1034B000896919601346920703D50E4AF169F37AB8
:1034C00011605B077FF570AF0B4B326A1A606BE7D8
:1034D0002887FF1FFAD90000005125022CDA0000CE
:1034E0002C87FF1F88E100E001403F0000003F8083
:1034F00000E100E004E100E008E100E080E100E03C
:1035000084E100E010B541690446C1F31121FFF7E1
:10351000C5FC61682046C1F31301FFF7D9FCE179CE
:10352000204600F035F9A1682046C1F3130100F0F0
:1035300035F9A26923682046C2F313021B681421DF
:103540009847A38B2168E27EC3F30B0342EA032270
:1035500020460B6815219847238C2168E28BC3F322
:10356000080342EA034220460B682D21984794F84D
:1035700024302168628C03F07F0342EA0342204634
:103580000B6833219847D4F825102046FFF758FCE4
:10359000A38D618DC3F3080341EA03412046FFF781
:1035A00067FC94F83030E18D03F03F0341EA0341BA
:1035B0002046FFF7B5FC94F831202368204602F03E
:1035C00003021B687221BDE81040184770B505461C
:1035D00040F2865095F8423000FB01F0002B14BFFA
:1035E0001C464FF4807405F0DBFC18490646E86879
:1035F00005F02EFD0146304605F02AFD05F02AFFB4
:10360000134BB0FBF4F0A3FB0030000A114B400356
:10361000A3FB0030800C05F0C3FC4FF07E5105F099
:103620000DFC05F017FFC1B204462846FFF76AFCFF
:10363000204605F0B5FC296905F00AFD05F00AFFF2
:10364000C1B22846BDE87040FFF74EBC00007A4486
:10365000FD33A6C983DE1B430261FFF7B7BF00BF7E
:1036600070B50446084605F09FFC234905F0F0FCC0
:10367000224905F0A1FD22490646E06805F0E0FB7D
:10368000314605F0E5FC1F4905F096FD4FF07E51EF
:1036900005F0D4FB05F0DEFEC5B20F2D236815D969
:1036A00000219B682046984729462046FFF72AFCC0
:1036B000284605F079FC216905F0CAFC05F0CAFE30
:1036C000C1B22046BDE87040FFF70EBC9B680121E7
:1036D000204698470A49E06805F0B2FB314605F0FC
:1036E000B7FC094905F068FD4FF07E5105F0A6FBD7
:1036F00005F0B0FEC5B2D7E7D504354200007A44E4
:103700000AD7A33C6666A63EEC51383E0261FFF73D
:10371000A7BF00BF10292ED00BD940292FD020D908
:10372000802915D0B1F5807F2DD1036800215B6A17
:10373000184702291BD00FD9042905D0082923D105
:10374000036805215B6A1847036806215B6A18470E
:10375000036801215B6A1847C1B9036808215B6AE5
:103760001847202911D1036803215B6A18470368B1
:1037700007215B6A1847036804215B6A18470368DE
:1037800002215B6A1847704770477047704700BF57
:103790000A460168C2710B681121184730B4827A59
:1037A0000568018122F00F04C1F3034222438272B3
:1037B0002B68C1F3130230BC1321184710B4047FE7
:1037C0004160022CC26002D010BC02F0EFBF8368DF
:1037D00010BC1847F0B4464B464A186BDC6A0179B6
:1037E0001170454922790A709A6A00790870002A96
:1037F00046D05968C9688A423ED82168CC8B2404D7
:1038000002F1FF3065D4C0F30E00C883C88B80B2CC
:10381000C882196B0968C88B000452D4C2F30E0029
:10382000C883C88B002480B212F1FF32C88218BF4F
:1038300001229C62D96A2E4809680D6800F12404AF
:10384000A54236D00068C46814F0804F0C680D683B
:1038500015BF248824780235013544F000440D60FA
:103860004463196B254B09791970214912B1CA6A51
:1038700012791A70F0BC7047521A9A620122D9E785
:10388000586B196805681E4C0A63CC62CC682D68B9
:103890001C4E24F080440327B542CC6083F8257089
:1038A0001FD1037F4260022BC2601ED0F0BC02F029
:1038B0007DBF016890F82400CC6840F00040486368
:1038C000CFE7CC8BC2F3080004F47E442043C883C6
:1038D000A7E7CC8BC0F3080004F47E442043C883E0
:1038E00094E72B461146F0BC18478368F0BC184794
:1038F0002C87FF1F1F8000401C8000401B80004061
:1039000000000FFFBD37000090E80C00F0B41C6809
:1039100059682568164F174E29432160164D1749DF
:103920001760D66015611160417A154A5C180A313A
:1039300094F8244053F8215002EBC40149680D600B
:10394000017A5C1803EB8101247ECD6902EBC4018E
:1039500049680D60817A581803EB810390F83000B4
:10396000596B02EBC002F0BC53681960704700BF8E
:1039700001401F00011000380110007800001F8076
:1039800048DB000043680CCB11680B4313607047A1
:103990002DE9F843036B0446406923F0400588464F
:1039A00004F08AFE064640460F4604F085FE0246B5
:1039B0000B463046394604F0F5FE00227E4B04F0FB
:1039C000F1FE79A3D3E9002306460F4605F014F86B
:1039D00000227A4B04F032FD05F0BCF9C0B20F288A
:1039E0000ED92563E36A94F83B2023F01F031F28B8
:1039F00094BF034343F01F03E3629AB9BDE8F88321
:103A000045F040032363304669A3D3E900233946D8
:103A100004F0F2FF0022694B04F010FD05F09AF962
:103A2000C0B2DFE76649674A0B68D4F8309043F4C8
:103A300080530B60D368580100F19A80D66816F065
:103A4000007640F0AB80F7B20C215F48FFF79AFF99
:103A50005D4D94F83800002101F0A4F82B684FF078
:103A60000041C9F30742D9625A63DA6A002AFCDAD4
:103A7000986B4FF000414FEA0028C9F30722D96242
:103A800008F47F405A63DA6A002AFCDA996B5FFA1D
:103A900081F848EA00085FFA89F24FF00040D862E6
:103AA0004FEA08215A63DA6A002AFCDA9B6B94F821
:103AB00038005FFA83F848EA0108012101F072F842
:103AC0000C2E4FEA181803D039463F48FFF75AFF2B
:103AD0003B49C4F834800B683A4AD4F82C8043F44C
:103AE00080530B60D36859014BD5D3689B0158BFF5
:103AF00008264AD50C273E46002194F8380001F0EC
:103B000051F82B684FF00041C8F30742D9625A635D
:103B1000DA6A002AFCDA9D6B4FF000412D02C8F3EF
:103B20000722D96205F47F405A63DA6A002AFCDA78
:103B30009D6BEDB205435FFA88F24FF00040D8620A
:103B400029025A63DA6A002AFCDA9D6B94F838007D
:103B5000EDB20D43012101F025F80C2E4FEA1515A9
:103B600003D039461848FFF70DFF6563BDE8F883B9
:103B7000D3689A0158BF08267FF565AF0C273E46EB
:103B800066E7D66816F0007605D1F7B20C210E482C
:103B9000FFF7F8FEB0E704273E46F7E704273E4666
:103BA00052E700BFAFF3008000000000C0EB1241FD
:103BB0000000000040240441000040400000E03FBD
:103BC0003C80044000C002402C87FF1FF8B5026A09
:103BD000554BFF2903EA02030446036217DD4FF445
:103BE0008072C263002594F83B201D432562CAB948
:103BF000E568E36B2069A1694C4A03FB05F300FB10
:103C000003F3B2FBF3F31944A360E161F8BD7F292C
:103C100055DD8022C263012594F83B201D432562B7
:103C2000002AE5D04249434A0B6843F480530B60B5
:103C3000D36859014BD4D66816F000766DD1F7B22F
:103C40000C213D48FFF79EFE002194F8380000F05B
:103C5000A9FF394B1B684FF000412A0CD9625A6307
:103C6000DA6A002AFCDA996B4FF0004E0902C5F3BC
:103C70000722C3F82CE001F47F405A63DA6A002A75
:103C8000FCDA996BC9B2EDB201434FF00042DA623F
:103C900009025D63DA6A002AFCDA9D6B94F8380049
:103CA000EDB20D43012100F07DFF0C2E4FEA1515FA
:103CB00003D039462048FFF765FE656398E73F2942
:103CC0000DDC1F290FDD2022C26303258BE7D3689B
:103CD0009B0158BF0826B2D50C273E46B4E74022C8
:103CE000C26302257FE70F2905DC072909DD0822C9
:103CF000C263052577E7102243F40073C2630425ED
:103D000071E7032903DD0422C26306256BE701295D
:103D100006DD0222C263072565E704273E468FE7DA
:103D20000122C26308255EE7F0FF0F0000879303BE
:103D30003C80044000C002402C87FF1FF8B5164BA2
:103D400053F83160044606F1800506F5807025625F
:103D5000606253F8323062634FF0000C03F180026E
:103D60004FF4487E012503F5807340F6C4172163A4
:103D7000C4F804C0C4F818E0C8B2E7612946C6F820
:103D80000051A262E36200F021FF94F8340029465A
:103D900000F01CFF2046F8BD48DB0000426B074BDB
:103DA00053F8323003F1800203F5807311B9826257
:103DB000C36270478362C262704700BF48DB000085
:103DC000034A044B914288BF1946C161704700BF46
:103DD0001FA1070020A10700002930B40BDB826A75
:103DE0000123036013600A4A0A4B9142C8BF194677
:103DF000816130BC7047084BC26A4FF0FF35012427
:103E0000994205601460EEDA0449816130BC704764
:103E1000DF930400E0930400216CFBFF206CFBFFA8
:103E20004368C91A10B40DD4826A01230360136079
:103E3000436810BC81EAE172A2EBE1721944C160EF
:103E400002617047C36A4FF0FF34012204601A60B8
:103E5000EEE700BF704700BF024B186803681B689D
:103E6000184700BF8094FF1F024B586803681B6807
:103E7000184700BF8094FF1F024B986803681B68B7
:103E8000184700BF8094FF1F024BD86803681B6867
:103E9000184700BF8094FF1F4268BAB10D4B13440E
:103EA0001B114433DBB2443B032B0FD8DFE803F094
:103EB0000B080502084B03607047084B036070470E
:103EC000074B03607047074B036070470023036094
:103ED000704700BF008FFCBF30710340207103406A
:103EE0001071034000710340F8B5061D04460F46EB
:103EF0003046144A144902F0EDFD054608B928463B
:103F0000F8BD2046FFF7C8FF2168104B104A6068D3
:103F10000B441B11202142F82370217220B10B4A5F
:103F20000C4F02441211D1550B49064A51F8231087
:103F3000304602F0CFFD2268936823F002039360BD
:103F40002846F8BD00512502553E0000008FFCBFF9
:103F50008094FF1F44E400E000DB000030B4134C09
:103F600022780ABB124B4FF6FF711A60102099603D
:103F7000D30003F1804303F560330132D96821F0A7
:103F80008001D960D968082A21F04001D960D86041
:103F9000EED102F1E0220648FC320D254FF08041BF
:103FA000012305601160237030BC7047B094FF1F7F
:103FB00000800340074A002352F8041F21B1013357
:103FC000082BF9D118467047034A42F823001846D7
:103FD000704700BF8C94FF1F9094FF1F072810D8D4
:103FE00010B472B6C30003F1804303F56033054992
:103FF000DA68002422F04002DA6041F8204062B61C
:1040000010BC70479094FF1F70B50F4D002402E064
:104010000134082C16D0E30003F1804303F560332C
:10402000DA6802F0C002C02AF2D155F82400DA683A
:10403000016822F040020E68DA6021460134B04780
:10404000082CE8D170BD00BF9094FF1F38B50D4615
:1040500004460021284600F0B9FD0123084A2370D8
:1040600052F835206260234600222274A2746274E2
:1040700003F80F2F083403F8012DA342FBD138BDFC
:1040800048DB0000426872B6002382F8803262B6D4
:104090007C20302102E010F0FF0024D00B46013BD1
:1040A000FDD192F800320138002BF4D072B6012312
:1040B00082F8003182F8803262B64FF43453013B0B
:1040C000FDD172B600214FF4D26382F88012013B19
:1040D000FDD192F80002B0FA80F0400962B642F2D7
:1040E0007063013BFDD17047CA07436810D472B6B4
:1040F000012183F800114FF4C36283F88012013A62
:10410000FDD183F8801062B67823013BFDD1704762
:1041100072B6012183F80011F02283F88012013A6F
:10412000FDD183F8801062B64FF4A563013BFDD149
:10413000704700BF436872B6012183F8801248229D
:1041400083F80011013AFDD10021F02283F880129A
:10415000013AFDD193F80002C0B262B64FF49F63FA
:10416000013BFDD1704700BF2DE9F04106460F46E7
:10417000904608250124274214BF01210021304622
:10418000FFF7B2FF6400013DE4B2F4D1B8F1000FD3
:1041900008D172B6736883F880827368012283F84D
:1041A000002162B6BDE8F081F8B507460824002674
:1041B00001253846FFF7BEFF6B0000B12E43013CDE
:1041C000DDB2F6D13046F8BD70B500220D4655215E
:1041D0000646FFF7C9FF6C1E073514F8011F0022C1
:1041E0003046FFF7C1FFAC42F7D170BD0346002255
:1041F00002748274427403F80F2F083003F8012D03
:104200008342FBD1704700BF2DE9F047857C04460F
:104210002DB1002020746074A074BDE8F087894639
:104220001646FFF72FFF0028F3D0002E66D02A464F
:10423000F0212046FFF798FF01254FF000082E4699
:10424000C24619E0874229D004EB08031A7A22EA11
:1042500005021A72394620466D00FFF745FF013608
:1042600015F0FF05F6B204D108F101085FFA88F8ED
:104270000125B8F1070F28D82046FFF75BFF074656
:104280002046FFF757FF012FDCD101281DD004EB9A
:1042900008031A7A2A431A720127DBE7237C9E421D
:1042A0000DD204EB08031A7A154214BF0127002728
:1042B000002FEED1082E00D86674B246C6E70CBFB8
:1042C0000127002704EB0803F2E7402EA1D984F868
:1042D00010A0BAF1000F17D0227A002A99D004F169
:1042E000080309F1FF390F3401E013F8012F09F831
:1042F000012F9C42F9D10120BDE8F0873246EC2124
:104300002046FFF731FF97E70123A374E4E700BFDE
:10431000A9B130B44D1EEDB20A4C0544421E002036
:1043200012F8013F584000F00F0304EB1010E15C5D
:10433000037C954281EA0300F2D130BC7047084605
:10434000704700BF10DB000030B4002201240925B3
:1043500045708470C4708160027142710270826124
:1043600030BC70472DE9F041074680688846154605
:10437000FFF73CFF002401224146B868FFF744FFE5
:10438000E3B2064628B19D4207D00134E3B29D4214
:10439000F1D200263046BDE8F08107214046FFF704
:1043A000B7FF98F807308342EFD1F3E770B50546C1
:1043B00080680C461646FFF765FE00B970BD2146C1
:1043C000A868FFF701FF0022BE21A868FFF7CCFE16
:1043D000741E0836A868FFF7E7FE04F8010FB44220
:1043E000F8D1A868FFF74EFEA0F10100B0FA80F006
:1043F000400970BD10B51446FFF7D8FF40B1082141
:104400002046FFF785FF237A181AB0FA80F040099A
:1044100010BD00BF00B585B001AAFFF7EBFF48B1A2
:104420009DF808303F2B0CD00FD95F2B05D07F2B88
:1044300011D10C2005B05DF804FB0B2005B05DF830
:1044400004FB0A2005B05DF804FB1F2B03D10920F3
:1044500005B05DF804FB002005B05DF804FB00BF6B
:1044600070B504460D4680681646FFF70BFE2946D8
:10447000A068FFF7A9FEA06800224E21FFF774FE96
:10448000B178A0680022FFF76FFEF178A0680022E3
:10449000FFF76AFE2B78102B04D03179A068002238
:1044A000FFF762FEA068FFF7EDFD2946A068FFF761
:1044B0008BFE2278A0684821FFF756FE142000F0FA
:1044C000B1FB237813B10A2000F0ACFBA068BDE873
:1044D0007040FFF7D7BD00BF38B504460D46806871
:1044E000FFF7D0FD2946A068FFF76EFE0022B42139
:1044F000A068FFF739FEA068FFF71CFE0546A0681C
:10450000FFF7C0FDB5FA85F0400938BD30B5044667
:1045100083B08068FFF76AFE002323716371012571
:1045200006E06846FFF7F4FE9DF80730834209D0A5
:1045300069460122A068FFF767FE07210028F0D135
:1045400003B030BD2378002B00F08A809DF8003046
:10455000102B6946204677D0FFF75CFF61782279FF
:104560009DF80030884238BF08460132103B607029
:104570002271322BDCD801A252F823F059460000F8
:104580003145000031450000314500003145000053
:104590003145000031450000314500003145000043
:1045A0003145000031450000314500003145000033
:1045B0003145000031450000314500003145000023
:1045C00031450000594600003145000031450000EA
:1045D00031450000314500003145000059460000DA
:1045E00031450000314500003145000031450000F3
:1045F00031450000314500003145000031450000E3
:1046000031450000314500003145000031450000D2
:1046100031450000314500003145000031450000C2
:104620003145000031450000594600003145000089
:1046300031450000314500003145000031450000A2
:104640003145000059460000627823790C2A38BFB2
:104650000C2201336270237163790133637167E760
:1046600069462046FFF738FF00283FF46FAF2570FA
:104670006CE700BF2DE9F041082A1E4686B00446CB
:104680000F460B7811DD0C2AA8BF0C22102B154603
:104690004ED039462046FFF7BDFEA84209D14FF063
:1046A0000108404606B0BDE8F081102B4FF0090527
:1046B000EFD103AA39462046FFF79CFE804600282A
:1046C000EFD03B78102BEAD00B2D3CD00C2D31D005
:1046D0000A2D3CD01F238DF8103003AA39462046FE
:1046E000FFF7BEFE6378AB4228D3002ED7D1AB4292
:1046F000D5D923796570002BD3D035460BE0FFF771
:1047000089FE62782379904205F1010538BF104691
:10471000AB426070C5DD01A9EAB22046FFF722FE78
:104720009DF80430102B01A92046E8D10C20E8E7C1
:104730000C20B2E77F238DF81030CEE7404665703D
:1047400006B0BDE8F0815F238DF81030C5E73F2348
:104750008DF81030C1E700BF08291ADD0C29A8BF69
:104760000C2103794170B3B130B5044683B0002504
:10477000EAB269462046FFF7F5FD012362786946F3
:104780002046FFF777FF23790135AB42F0DC03B019
:1047900030BD0921E5E77047817070470939C9B21A
:1047A000F0B502299CBF114B33F91150C37883B087
:1047B000044688BF40F2EE2593B1037883B90C4ECE
:1047C00033680093009FA068FFF7B4FC01280AD06B
:1047D00033680193019B5B1BBB42F4D303B0F0BD74
:1047E000284600F01FFA03B0F0BD00BF30DB000028
:1047F000B494FF1F70B50B78102B0D46044606D0FD
:10480000FFF708FE064618B90546284670BD0C2677
:10481000A068FFF737FC2946A068FFF7D5FC22788F
:10482000A0684421FFF7A0FCA57815B9012528460A
:1048300070BD20463146FFF7B1FF284670BD00BF6E
:1048400010B582B00A4604466946FFF78BFD6946FB
:104850002046FFF7CFFF02B010BD00BF10B584B0F7
:1048600001AA0C46FFF7C6FDE0B19DF804009DF8D3
:1048700005202378C00040EAC220102B00B201D0EE
:1048800004B010BD9DF80B209DF80A30C000D31A6B
:1048900020F07F00DB0193FBF2F3103B184400B2E1
:1048A00004B010BD0048EBE780E4FFFF10B582B014
:1048B0000A4669460446FFF755FD10B9084802B09C
:1048C00010BD69462046FFF7C9FF10F5DC5FF5DD36
:1048D00004F06AFB4FF0705104F0BAFB02B010BD57
:1048E0000000FEC2F0B51B4B1B4E596818689A6851
:1048F000DB6885B06C460FC4337899071DD5174A1D
:10490000174C1378174913F0700318BF1370164A29
:10491000164B8027177000263320032226706D4621
:1049200008701A7072B6043C45F001052046A8478D
:1049300062B6237813F0700309D10D4B064901E0EC
:10494000013B02D00A78D207FAD505B0F0BD23703A
:1049500005B0F0BD38DB000001000240000002405D
:10496000040002400B000240070002400A0002401F
:10497000410D0300B0F5006F0AD210B5094B1B784A
:10498000DB07044606D504F1A0500078C0B210BD84
:1049900000207047FFF7A6FF04F1A0500078C0B2D6
:1049A00010BD00BF01000240B0F5006F17D238B54E
:1049B0000F4B1B78DA070D46044611D504F1A050C1
:1049C0000378AB420AD00B4A137813F0700318BF78
:1049D0001370074A05701378DB07FCD538BD7047A4
:1049E000FFF780FF04F1A0500378AB42EBD1F5E76D
:1049F000010002400000024008B5104C08E02368A6
:104A000059050DD423681A050FD42368DB0411D48B
:104A100023685803F3D500F045FF23685905F1D505
:104A200000F032FA23681A05EFD500F0D9FD2368AB
:104A3000DB04EDD502F0EAFAEAE700BF3480044077
:104A400008B5FFF7D9FF00BF014B10221A8070474D
:104A500000200540704700BF094908B50B6830B118
:104A60006A461844A2F58052904202D20860184665
:104A700008BD04F01FFD0C2303604FF0FF3008BD9C
:104A80006487FF1FFEE700BFEFF3138070B9EFF3F9
:104A900010836BB9EFF305825AB94FF48070EFF3CE
:104AA00011832BB1984228BF184670474FF0FF3052
:104AB00070470F2A01D81846F1E7014BD05CEEE7AA
:104AC000F0E300E010B40F4B53F8302092F880422E
:104AD0002CB1012369B182F8803010BC704703EB20
:104AE000C0035B681A6841B922F002021A6010BC68
:104AF000704782F8003110BC704742F003021A6020
:104B000010BC704748DB00001C4A02EBC0030129BF
:104B10005B6811D004291BD052F83000002280F8C5
:104B2000802229B1022920D0032922D01A6070479F
:104B30004FF480721A60704752F830004FF4A2723E
:104B400080F880121A601A6822F020021A607047FA
:104B500052F830104FF4A272012081F880021A60DE
:104B60001A6842F020021A60704740F203121A607D
:104B700070474FF481721A60704700BF48DB000035
:104B800030B4054B054D064C002210211A602A60F6
:104B90002060196030BC704714D0034004D003403B
:104BA00000D00340212801D8FFF78CBF704700BF19
:104BB000212806D8044B53F8303093F80002C0B2D5
:104BC00070470020704700BF48DB0000212801D853
:104BD000FFF79ABF704700BF2DE9F04107460E4628
:104BE00090460825012405E0212E0CD96400013DE2
:104BF000E4B214D0212FF7D808EA04013846FFF7B1
:104C000061FF212EF2D801213046FFF75BFF002122
:104C10003046FFF757FF6400013DE4B2EAD1BDE83A
:104C2000F08100BF2DE9F843054672B6214F224BB3
:104C3000224A1B683C68126862B6520102D5322BC8
:104C400088BF0134A5B3C3F58C331D4EDFF86890DF
:104C5000DFF8688003F23F134FF47A72A6FB031368
:104C600002FB04F404EB131472B6D9F800103A688E
:104C7000D8F800E062B6C1F58C3303F23F13A6FB0F
:104C800003031EF0806FC4EB13134FF47A7002D04D
:104C9000322988BF013200FB0233B3F57A7F04D397
:104CA000013D05D004F57A74DEE702F021F8DBE778
:104CB000BDE8F883B494FF1F18E000E004ED00E0C5
:104CC000398EE338F8B52D4B2D49DFF8D0E0DFF809
:104CD000D0C02C4E2C4D2D4C2D4A2E4F4FF40000A1
:104CE00018604FF0807018604FF0007018604FF03F
:104CF000806018604FF00060186000200860282372
:104D000048F6FF71CCF80010CEF800303360136025
:104D10002B6023603B60B3629362092245F8242C28
:104D2000C4F8D80F05F57F65C7F8D41F07F5FF272E
:104D300007F5FA67C6F8F83F2B6006F5FF26C4F8BA
:104D4000D42F05F5FD2504F5FF24386006F2F4762E
:104D50001148316005F5FF6504F5FD642B602360A3
:104D6000026002F0ADF81920FFF75CFF01F002FBD2
:104D700040F21310BDE8F840FFF754BF08E100E02F
:104D80000480034014800340248003402C800340AF
:104D90001C8003403480034000800B400C800340A3
:104DA00008800340234B1B685B0541D510B5224C9E
:104DB000237823B101F09CFF2378002BFAD11F4800
:104DC0001F4A204B4FF4005400210460D1701B781F
:104DD000FBB1152B03D11C4B40F203121A601B4B85
:104DE0001B7803F07F03012B1DD0052B03D1184B3B
:104DF00040F203121A60174A114B174817491268FC
:104E00001C79DB79002303700B700AB10123137046
:104E100010BD134B40F203121A600C4B1B7803F0C9
:104E20007F03012BE1D10F4B40F203121A60E2E73E
:104E3000704700BF348004404495FF1F84E100E0C8
:104E400000A006400095FF1F18C004406887FF1FA0
:104E50001CC00440B894FF1FBC94FF1FBD94FF1FEB
:104E600040A0044044A00440054A064B10781B783B
:104E7000C0B2DBB2984238BF4030C01A704700BFA2
:104E8000BC94FF1FBD94FF1FF0B4384B1A7912F089
:104E9000300F2CD072B6997D01F0FF0200293DD071
:104EA00062B6334F334938780D78334E1C46C0B262
:104EB000EDB2431C402BE17928BF0023AB4202F145
:104EC000FF32C9B21CBFF154184612F0FF02F0D1F4
:104ED0002A4B1B68C2B23A704BB1A84236BFC5F12B
:104EE0004005401B40192728C4BF01221A701F49E2
:104EF000CA78D2B2150616D452060DD51B4B1B79B3
:104F00005B0609D51E4B1F491B6800220A7003B1BE
:104F10001A70164B3C22DA70F0BC70474022D979E7
:104F20005A7462B6E3E70B791C06E5D5164B174EAB
:104F30001C783378E4B2DBB29C420ED0144D01E011
:104F4000A3420AD00133402B28BF00230879E85C34
:104F5000C0B2C871087D0728F2D9DBB203493370AB
:104F60000B79180644BF7C23CB70C5E700A0064030
:104F7000BC94FF1FBD94FF1F0495FF1FB894FF1F33
:104F80004895FF1F4495FF1F4C95FF1F4595FF1F38
:104F9000C094FF1F2B4A2C491368F0B543F40063FB
:104FA00013600A78294F2A4E2A4D2B4C2B49002397
:104FB000092A3B7033702B7023700B703DD01A2A76
:104FC00021D0274B1B780A2B25D01F2B30D01F2830
:104FD00027D8002002460125224B234C1A70234972
:104FE0005D7004224FF0020E88273C2640259872FF
:104FF0009A704FF4004083F813E05A751F74DE7006
:1050000025700860F0BD1A4B40F213321A60144B41
:105010001B780A2BD9D1174B4FF451721F281A60F5
:10502000D7D9C0F34432C0F3471500F01F00D3E7CF
:10503000114B4FF451721A60C9E7104B40F2133212
:105040001A60BEE7348004406987FF1FC095FF1FC8
:105050005595FF1FC895FF1FC195FF1F5495FF1F52
:105060006A87FF1F00B006402FE400E004E100E083
:1050700004D0044010B0044000D004400CB0044000
:10508000144B14499B7803F0EC0200F00303134324
:10509000420700F00F0248BF43F01003042A8B7050
:1050A00013D00C4B0B4A5B79C10603F0EF0348BFEA
:1050B00043F0100353719379820603F0EF03054A1E
:1050C00048BF43F01003937170478B7943F040035E
:1050D0008B71E6E700B00640234B1B681B0542D5E9
:1050E00010B5224C237823B101F002FE2378002B67
:1050F000FAD11F481F4A204B4FF40044002104609E
:10510000D1701B78092B1FD01A2B03D11B4B40F2F7
:1051100003121A601A4B1B7803F07F030A2B1DD071
:105120001F2B03D1174B40F203121A60164A114B82
:105130001648174912681C79DB79002303700B703D
:105140000AB10123137010BD124B40F203121A6012
:105150000B4B1B7803F07F030A2BE1D10E4B40F27F
:1051600003121A60E2E77047348004405495FF1F31
:1051700084E100E000B006406987FF1F04D00440CE
:105180006A87FF1F00D004405095FF1FC095FF1F86
:105190005595FF1F0CB0044010B004400A4A38B5C2
:1051A0000546137803F0FF04002BFAD101212846AD
:1051B000FFF70CFD21462846FFF7F4FC034A044B99
:1051C00052F835201A6038BD5495FF1F48DB0000A7
:1051D000C495FF1F09B140F08000174A1378984228
:1051E00016D010B4154C246824050FD503F07F03A6
:1051F0000A2B1CD01F2B11D0002900F07F0114BFF7
:10520000602344230A290DD01F2902D0107010BC3E
:1052100070470B4943F440730B60F7E7084B0024D9
:105220001C60E9E7074943F440730B60EEE7054B68
:1052300000241C60E0E700BF6A87FF1F3480044041
:1052400000D0044010B00440124B1A7882420CD0B7
:1052500011490968090507D5092A16D01A2A0AD062
:1052600009280DD01A2801D0187070470B4A40F257
:1052700013311160F8E7094A002109281160F1D1C2
:10528000074A40F213311160EEE7054A0021116030
:10529000E6E700BF6987FF1F3480044004D0044064
:1052A0000CB004400D4B1B6813F4006305D021289B
:1052B00005D90B4B00201860704718467047094B02
:1052C00010B5074C53F8303023600121FFF77EFC06
:1052D000236800221A70012010BD00BF34800440F2
:1052E0005095FF1F48DB00000C4B1B6813F4006354
:1052F00006D0172806D00A4A537B03F0FE035373E7
:1053000000207047074B064A40F202311960537B78
:1053100043F0010353730120704700BF3480044001
:1053200000B0064008B004402DE9F84F234B1B683D
:105330001A053BD5224B1B680BB101221A70DFF80E
:105340009090204D99F80040DFF888801E4E01347F
:10535000272C8ABF4FF0000A5FFA84FA54460746AA
:10536000AB462B789C4216D1FFF78EFB40281FDC02
:1053700033791B06F5D59BF800300133272B86BF08
:1053800000221346DAB218F80330DBB2F3712A7048
:105390002B789C42E8D00D490B4BFFB20120BC2278
:1053A00008F80470087089F800A0DA70BDE8F88F7A
:1053B000FF28D6DD01F09CFCD3E700BF3480044019
:1053C000C495FF1FC195FF1F00B006405495FF1FF5
:1053D000C895FF1F5895FF1F2DE9F84F294B1B68F3
:1053E0001A0548D5284B1B6805460BB101221A70D7
:1053F00005EB010A554540D2DFF89C80234CDFF8CD
:105400009C90234F0AE015F8012B09F80B20214A44
:105410000123AA45137088F800602ED098F8003058
:10542000227803F1010BBBF1270F86BF0026B3469C
:105430005FFA8BF69345E6D1BC22FA7005E03A7923
:1054400013060BD422789345DDD1FFF71DFB4028CE
:10545000F5DDFF28F6DD01F04BFCF3E722780132A1
:10546000272A86BF00210A46D1B219F80220D2B2FB
:10547000FA712170E6E7BDE8F88F054BBC22DA70BF
:10548000BDE8F88F34800440C495FF1FC195FF1F0D
:1054900000B006405495FF1FC895FF1F5895FF1F89
:1054A00010B5044C237823B101F022FC2378002BA3
:1054B000FAD110BD5495FF1F064A074B1B78107890
:1054C000DBB2C0B283422CBF273000F1FF30C01ADC
:1054D000704700BFC195FF1FC895FF1F054A064BC7
:1054E00010781B78C0B2DBB2984238BF4030C01A87
:1054F000704700BFC095FF1F5595FF1F30B4154B77
:10550000154C1A782378D2B2DBB29A421ED00133FE
:105510003F2B0ED91149124B087819680023C0B2ED
:10552000237021B1D31A1A2B01DC00230B7030BC7D
:1055300070470A480A49C05C0968DDB2C0B22570EC
:105540000029F4D09A4238BF4032EBE74FF0FF30E9
:10555000EDE700BFC095FF1F5595FF1F8095FF1F0A
:105560005095FF1F084A094B12781B78DBB29A420C
:1055700007D00133402B28BF0023054AD05CC0B2BE
:1055800070474FF0FF307047C095FF1F5595FF1FC4
:105590008095FF1F0D4B1B681B0516D530B40C4BB7
:1055A0000C4CDA780C480D4902F0CB024025DA7039
:1055B0005D74DA7842F03402DA7023780268DBB284
:1055C0000B700AB10023137030BC70473480044064
:1055D00000B006405595FF1F5095FF1FC095FF1F57
:1055E000F0B4384B1A7912F0300F2CD072B6997D86
:1055F00001F0FF0200293DD062B6334F33493878BD
:105600000D78334E1C46C0B2EDB2431C402BE179FD
:1056100028BF0023AB4202F1FF32C9B21CBFF154D4
:10562000184612F0FF02F0D12A4B1B68C2B23A7042
:105630004BB1A84236BFC5F14005401B4019272891
:10564000C4BF01221A701F49CA78D2B2150616D4F7
:1056500052060DD51B4B1B795B0609D51E4B1F4906
:105660001B6800220A7003B11A70164B3C22DA70D4
:10567000F0BC70474022D9795A7462B6E3E70B79DF
:105680001C06E5D5164B174E1C783378E4B2DBB216
:105690009C420ED0144D01E0A3420AD00133282BC6
:1056A00028BF00230879E85CC0B2C871087D0728CC
:1056B000F2D9DBB2034933700B79180644BF7C235F
:1056C000CB70C5E700B00640C095FF1F5595FF1F82
:1056D0008095FF1F5095FF1FC495FF1F5495FF1F16
:1056E000C895FF1FC195FF1F5895FF1F431E032B31
:1056F00014D872B60A4951F8230068B170B4094C45
:10570000058834F81320466841F82360521B24F8BA
:10571000132062B670BC704762B6704700207047B5
:105720002496FF1F9897FF1F013803280BD872B6E5
:10573000074B53F8203043B100205B680130002B49
:10574000FBD162B67047002070471846F9E700BFEA
:105750007896FF1F30B472B62B4A13781D0706D512
:105760002A4B196A002936D0996A002941D053780A
:105770001C0706D5254B196C00293ED0996C0029D1
:1057800039D09378190705D5204B196E002936D0EA
:10579000996E89B1D3781B0707D51C4BD3F88020AD
:1057A0007AB3D3F8882011213AB162B6184B00229F
:1057B0001A7030BC00F06ABE0D21154C154D2278D0
:1057C00043F8315003EBC1030830013A58602270AE
:1057D00062B630BC704704220D4C0F4D217843F85F
:1057E000325003EBC20308304A1E5860227062B682
:1057F000EFE70521E1E70921DFE70822ECE70C22CA
:10580000EAE71022E8E700BFE4DC00000080FF1FA9
:10581000A196FF1FC800400088004000431E032BD4
:105820001DD81B4A400140F0100030B4104472B63D
:10583000184CE25C032A1BD8DFE802F002121517AD
:1058400003220D88E25410F0080F14BFC8238823E8
:1058500043EA054308310360416062B630BC7047DB
:1058600008300222EDE70522EBE708300422E8E7E2
:10587000094A52F8230038B1084A52F8230041601F
:1058800042F8231062B6E9E742F82310034AF7E72B
:105890000080FF1FB096FF1F7896FF1F8896FF1F9E
:1058A00000BE70472DE9F04FDFF80CB3DFF80CA312
:1058B00087B044E0AB4F4FEA930807EBC809013EBD
:1058C000D9F8042003F00803F6B2A2F1080003F0AF
:1058D000FF04002B40F0028157F838301B0C99B2BE
:1058E00022F8081C002B00F0F0809F4B22F8064C99
:1058F00042F8044C53F82620002A00F0C5829B4D44
:1059000055F8263058609A4C45F8260034F8163081
:10591000194424F8161000F099FD002800F0AD821B
:10592000944A954B19F0080F00F1080018BF134670
:10593000C9F8040047F8383008238BF800309BF88A
:105940000040E4B261071AD58C4B1B78A3B18C4997
:105950000A7802F0FF0322B1013BDBB20B7003B9FE
:1059600000BE88490A7802F0FF032AB1013BDBB28E
:105970000B70002B00F0578204238BF8003004F0EA
:10598000080303F0FF02002B00F0CC809AF80030EF
:10599000DBB21E098ED19C08DFF8C89159F834207B
:1059A00009EBC401C2F38302013A49680C2A00F2F0
:1059B0008880DFE802F07C7C86868686868647863D
:1059C000868607000868704D4A68704F704E2860E0
:1059D00081B240F28160674B6A604FF0010E002295
:1059E000814249F834303A60C9F81020C9F81820CB
:1059F00086F800E05B4C00F2E380B1F5D06F80F0F8
:105A00004683B1F5817F00F0FC8200F28D8280290F
:105A100000F07783822940F0FA82A98801F07F01A3
:105A2000042900F2F4825B485B4C89000844227030
:105A300062700278930740F1588484F800E04FF0D8
:105A4000020E42E3514F3A6832B3544B504E544920
:105A5000188834780D784028864645F0020828BF1B
:105A60004FF0400E002C84F001043470CEEB0000A7
:105A70000CBF8824C82409EBC80680B285F0010554
:105A800044EA0E447260188049F8384072440D7040
:105A9000002800F045813A603B4B1A88B2F5A06FB0
:105AA0000FD100219A7859703E4B1A7009E0364A9E
:105AB000108842F22102904200F037812D4A49F8C5
:105AC0003420394A0123137036E72A4A2A4B19F049
:105AD000080F18BF134647F838302DE700F0D6FC02
