:1000000000800020BD010000E94B0000A14B000072
:10001000A14B0000A14B0000A14B0000A14B000030
:10002000A14B0000A14B0000A14B0000E94B0000D8
:10003000E94B0000A14B0000156A0000196B00009D
:10004000E94B0000E94B0000E94B0000E94B0000E0
:10005000E94B0000E94B0000E94B0000E94B0000D0
:10006000E94B0000E94B0000E94B0000E94B0000C0
:10007000E94B0000E94B0000E94B0000E94B0000B0
:10008000E94B0000E94B0000E94B0000E94B0000A0
:10009000E94B0000E94B0000E94B0000E94B000090
:1000A000E94B0000E94B0000E94B0000E94B000080
:1000B000E94B0000E94B0000E94B0000E94B000070
:1000C000E94B0000E94B0000E94B0000E94B000060
:1000D000E94B0000E94B0000E94B0000E94B000050
:1000E000E94B0000E94B0000E94B0000E94B000040
:1000F000E94B000031500000E94B00008957000037
:10010000E94B0000B5710000E94B0000E94B00002D
:10011000E94B0000E94B0000E94B0000E94B00000F
:10012000E94B0000E94B0000E94B0000E94B0000FF
:10013000E94B0000E94B0000494A0000E94B000090
:10014000E94B0000E94B0000E94B0000E94B0000DF
:10015000516D0000656D0000796D00008D6D00002F
:10016000E94B00004D5A0000E94B0000E94B00004C
:10017000E94B0000E94B0000E94B0000E94B0000AF
:10018000E94B0000E94B0000E94B0000E94B00009F
:10019000E94B0000E94B0000E94B0000E94B00008F
:1001A000E94B0000E94B0000E94B0000E94B00007F
:1001B000E94B0000E94B0000E94B0000564B4CF2C4
:1001C000205210B51A804DF628121A8000BF00BFC9
:1001D00004F00EFD514B4FF010621A60504A9A60C5
:1001E000504ADA60504A136813F4807304D14F49BF
:1001F0000B604FF4A85313604D4B1A78110703D5C9
:100200001A7842F008021A704A4B4B492A221A7097
:100210004A4A4B4B8B4204D252F8040F43F8040B6A
:10022000F8E7484B484900228B4202D243F8042B9E
:10023000FAE74649464A002352F8230041F82300D2
:1002400001336F2BF8D1434B434A802103F8011B44
:100250009342FBD1414B3D4A1A60414B8A221A70AE
:10026000A3F5805324225A70A0221A709A7992071B
:10027000FCD59A79D406FCD43A4A937903F00C035E
:10028000082B384BF9D105221A7143225A719A79F9
:100290009006FCD5334A9179324B4906FBD5324A58
:1002A0004FF0817111600521516020221A709A79F6
:1002B00002F00C020C2AFAD12C4B2D4A1A602D4B5D
:1002C0002D4A1A6000225A60072243F8042C2B4A58
:1002D000C3F80C2D62B604F0C9FD144B1B68DA0795
:1002E00005D5274804F020FD264B274A1A60274BE6
:1002F0001B785B0609D5234C234B22689A4204D114
:100300001F4804F011FD0023236009F0ADF904F04B
:1003100075FC06F09FFDFEE70E200540308004408E
:10032000823F04000100002B10D0034014D0034092
:1003300002D0074000E00740F091FF1FD8E1000025
:100340002087FF1FF091FF1FB497FF1F0082FF1F40
:100350000000000000E400E05FE400E008ED00E0E1
:1003600000500640004006404480044004800440A1
:10037000C010050014E000E03F190100000020203B
:100380007660135F1CE00340A5C3945A00F0074059
:10039000FFFFFFFFFFFFFFFFFFFFFFFFFFFFFFFF6D
:1003A000FFFFFFFFFFFFFFFFFFFFFFFFFFFFFFFF5D
:1003B000FFFFFFFFFFFFFFFFFFFFFFFFFFFFFFFF4D
:1003C000FFFFFFFFFFFFFFFFFFFFFFFFFFFFFFFF3D
:1003D000FFFFFFFFFFFFFFFFFFFFFFFFFFFFFFFF2D
:1003E000FFFFFFFFFFFFFFFFFFFFFFFFFFFFFFFF1D
:1003F000FFFFFFFFFFFFFFFFFFFFFFFFFFFFFFFF0D
:10040000FFFFFFFFFFFFFFFFFFFFFFFFDEF9FFFF23
:1004100010B5054C237833B9044B13B10448AFF33E
:1004200000800123237010BDF091FF1F0000000029
:10043000D4E10000084B10B51BB108490848AFF3E0
:1004400000800848036803B910BD074B002BFBD0A0
:10045000BDE81040184700BF00000000F491FF1FE6
:10046000D4E10000F091FF1F0000000000690B695B
:100470009842D4BF00200120704700BF80698B697B
:100480000028B8BF4042002BB8BF5B429842D4BF9F
:1004900000200120704700BFF0B586460120DEF83D
:1004A0005470DEF82C303A6A106079683A680A4471
:1004B0007A600EF12C0493B15A69002A08DB1A6A9B
:1004C00010605E6819683D695A6931445960521B71
:1004D00019690A445A6154F8043F002BECD1DEF844
:1004E0002430154ADEF81840DEF86400002111605F
:1004F000DB00516803F1804303F5603321440D2490
:1005000019611460DA68502122F08002DA60D96043
:1005100000B1F0BD7A68FB689A4200D0F0BDDEF809
:100520000820DEF85810936823F002039360002936
:10053000F4D0BDE8F040084700800340836A00F132
:10054000280233B10120596A52F8043F0860002B99
:10055000F9D1704710B5044606F0D8FB204610BD0F
:1005600030B5144B1C7883B00CB103B030BD2146BC
:100570001148124D02F04AFE21460F4802F07CFE5F
:10058000294604460195009008F0D4FF30B10C498B
:10059000204608F0E3FF10B9094C00E02C46094B57
:1005A000094A1B6801930199084B11601C6003B054
:1005B00030BD00BF2092FF1FEC93FF1FF3FFC74227
:1005C000F3FFC7C2B894FF1F0C92FF1F2487FF1FC1
:1005D000D0B5174B174C1B681B794FF47A7101FB90
:1005E00003F1204604F00CF9134B1B68586808F01F
:1005F00037F9124B1B68064618790F4608F030F998
:1006000002460B4600204FF0804106F08DFE024668
:100610000B463046394608F099F908F047FC014688
:10062000204604F0F9F8064B01221A70D0BD00BF35
:10063000B092FF1F6893FF1F1094FF1F7494FF1F59
:10064000B892FF1F036A8B4223D0C369994200D03E
:1006500070478369002BFBD010B472B60F4AC36990
:10066000846900211160DB00516803F1804303F5C8
:10067000603321440D2419611460DA68502122F09E
:100680008002DA60D96062B6006910BC03685B68FA
:100690001847006903689B68184700BF0080034043
:1006A0002DE9F041066F476F456D044631463846E7
:1006B0006B6808F035FF002846D0304608F078FF18
:1006C0000646AB68B3423DD0002E2B68B4BF4FF056
:1006D000FF3201229A4215D004F12401012008E0E2
:1006E00013685B42012B13600BBF926AD36A1360DD
:1006F000186051F8042F002AF2D1E36E03EB430394
:10070000DB0040D186EAE677A7EBE677002F32D010
:10071000A3689A6812F002084AD01A6833498A42DC
:1007200041D959683248B0FBF7F7521A974250D373
:10073000BA1A0024012003219C60D8601A609960D5
:100740001F60AE60BDE8F081D4F884803846414631
:1007500008F04AFC00210746404608F009FF3946E8
:10076000D0B1304608F004FFD8B93046606708F0D1
:100770001FFF0646A5E7A268936823F00203936073
:10078000AE60BDE8F081013BFDD186EAE677A7EBDC
:10079000E677002FEFD0BBE7304608F0CBFE00280D
:1007A000E3D03846E2E7124AB2FBF7F71F60E7E70B
:1007B000606903681B689847A368656DC3F8088083
:1007C00001220321DA600A4AB2FBF7F71F60996041
:1007D000D6E7606900210268996001250321DD6088
:1007E00012681F6099609047656DC9E77F3202000B
:1007F00000512502826893689B0700D47047416DC1
:10080000036F70B504464868A16F1B1A002BB8BF70
:100810005B428B423DD3E16F8B4231D3616F8B42A0
:1008200032D24A1E9342D4F880003EBF0239CB1A1E
:100830004343D4F8880028BF0023184408F084FC00
:1008400006F0EAFE08F0B4FE0546A268E5B193683A
:1008500013F0020629D0136822498B4220D951682F
:100860002148B0FBF5F55B1A9D422DD3EB1A00240D
:10087000012003219460D06013609160156070BD09
:10088000D4F88450002DE2D1936823F002039360E2
:1008900070BDD4F88000D4F8882000FB0320CDE799
:1008A000114BB3FBF5F5156070BD606903681B68FB
:1008B0009847A3680C4A9E6001200321D860B2FBD0
:1008C000F5F51D60996070BD60690368002601241C
:1008D000032196601B68D46015609160BDE870408C
:1008E000184700BF7F320200005125022DE9F04376
:1008F000424B1B6883B0D3B9414C636D5B6872B6E1
:100900000021A06F08F078FC616F206708F030FECE
:10091000002863D1D4F8803003F10043C4F8843058
:1009200062B6384B00221A6003B0BDE8F083364B44
:10093000344D1B680193019B2A689B1A0A2BF3D93B
:10094000324A334B10685B68C01A07F099FF314B8D
:100950001B680646586800EB800040000F4607F011
:100960007FFF2D4B1B6880461879894607F078FF7A
:1009700002460B4600204FF0804106F0D5FC0246AF
:100980000B464046494607F0E1FF02460B46002071
:10099000224908F005F932463B4607F0D7FF08F038
:1009A000CDFA4FF07E51064608F0C4FDF0B94FF085
:1009B0007E5672B6124C3046A16F08F01DFC616F76
:1009C000206708F0D5FD60B1D4F88030C4F88430D9
:1009D00062B600232B6003B0BDE8F083D4F880300A
:1009E0009CE7D4F8803003F10043EFE70C49304630
:1009F00008F0BEFD0028DCD1094EDAE7B492FF1FF3
:100A0000E092FF1FD492FF1FB894FF1F1494FF1FA2
:100A10006893FF1FDC92FF1F7494FF1F00002440A7
:100A2000000080BF70B50025044680F829500126DB
:100A3000206803681B69984700281FDD2068036849
:100A40005B69984794F82A30C0B24BB93A28EFD185
:100A5000E36A84F82A60E21801339071E362E7E701
:100A6000E36AE218232803F1010390710AD01E2BD8
:100A7000E362DDD184F82A50E562D9E794F82900D1
:100A800038B970BD0023012284F8292084F82A3067
:100A9000E362A01D09F0D4FB012804D9E28844F2E6
:100AA0003A639A4203D0002084F8290070BD237A6B
:100AB000237103280AD9637A63712C2B0BD000238E
:100AC00084F82830012084F8290070BD0023637168
:100AD00084F82830F6E7012384F8283004F10A006E
:100AE00008F0B2FD6062EDE738B5044609B19A42FC
:100AF0000CD220680C49036801225B6898470025E6
:100B000020680368DB689847284638BD049B9A42F2
:100B1000EFD80068059B05491A60036801225B68ED
:100B200098470125ECE700BF50DA0000DCD900004F
:100B300070B51B491B4A1C4B1C4D0C681C491268A4
:100B40001B682D6826790C681A4952686D685B68C5
:100B5000B3FBF2F394B0B5FBF2F2049626790C687D
:100B60001549039626790C68144902966468096849
:100B70000194496800910446114907A809F036FB21
:100B8000256807A809F05CFB2B68024607A95B688B
:100B90002846984720680368DB68984714B070BD02
:100BA000CC92FF1F7C94FF1F0894FF1F1C92FF1F15
:100BB000A093FF1FB092FF1F1094FF1FDC92FF1F36
:100BC000E0D9000030B51249124B134A0C681349A2
:100BD0001B681268247909681B79127991B0019415
:100BE0004968009104460E4903A809F0FFFA2568F8
:100BF00003A809F025FB2B68024603A95B68284679
:100C0000984720680368DB68984711B030BD00BF83
:100C10007894FF1F7494FF1FD892FF1F7C94FF1FCE
:100C200008DA00002DE9F84F9DF83010DDF8289023
:100C3000DDF82CA0054616461F4671B100220023A0
:100C40003046394608F008F9002800F0A2802868EC
:100C50005349036801225B6898473946304608F0DB
:100C600025F980EAE07BABEBE07B584607F008FE15
:100C700009F1FF38064640460F4607F001FE06F030
:100C80004BFB08F013F9B9F1010F044625DD07F01D
:100C9000F7FD02460B463046394608F0C9F8E0B188
:100CA000DFF80C910AE007F0EBFD02460B463046F8
:100CB000394608F0BDF880B108F1FF382868394995
:100CC000036801225B68984789FB0423E417C4EB9F
:100CD000A304B8F1010F2046E5D15946286806F073
:100CE000AFF8BAF1000F52DD28682F4903680122DE
:100CF0005B689847504607F0C3FD06F00DFB32468F
:100D0000804689463B463046394607F06BFC4246F2
:100D10004B4607F01BFE08F0C9F80AF1FF38814680
:100D2000404607F0ADFD06F0F7FA08F0BFF8BAF15B
:100D3000010F044625D007F0A3FD02460B463046BE
:100D4000394608F075F8E0B1DFF864A00AE007F072
:100D500097FD02460B463046394608F069F880B1E7
:100D600008F1FF3828680F49036801225B6898473B
:100D70008AFB0423E417C4EBA304B8F1010F204657
:100D8000E5D149462868BDE8F84F06F059B8BDE8F6
:100D9000F88F28680549036801225B6898475CE77B
:100DA0001CDA000050DA0000D8D9000020DA000078
:100DB00067666666F0B5424E424D33686A685B68A6
:100DC000B2FBF3F20446B2F5803F00683E4924BF0F
:100DD000C3EB03436B60036885B001225B689847EF
:100DE000336868685B68B0FBF3F007F039FD0025F5
:100DF000052602460B462046029501950096FFF710
:100E000011FF20683149036801225B689847304B25
:100E10009B689B6813F0020F2E4B9B6802D19A6867
:100E2000920749D52C4A1D681368187907F018FDF8
:100E300002460B4600204FF0804106F075FA064648
:100E40000F462648B0FBF5F007F01AFD32463B4648
:100E500007F0A6FE08F02AF80028B8BF404207F0C5
:100E6000FFFC02460B4600210325029101910095EB
:100E70002046FFF7D7FE20681449036801225B680B
:100E80009847174B186807F00DFD0125022602460A
:100E90000B462046029501960096FFF7C3FE206898
:100EA000104903682A465B68984720680368DB6836
:100EB00005B0BDE8F040184700220023D3E700BF8B
:100EC0007C94FF1F6893FF1F24DA000028DA0000DB
:100ED0002492FF1FE092FF1F7494FF1F0051250210
:100EE0002487FF1F18DA0000F0B589B00B7A0024C0
:100EF000069406460594CDF81B40002B48D00A46C0
:100F00000D4652F8080F254F51683F6805AB03C3E3
:100F10001089917A6A681880AC74997053687D68FA
:100F2000B3FBF5F5B5F5803F30680AD303681C497B
:100F30005B680222984730680368DB68984709B00D
:100F4000F0BD036817495B6801229847284607F0FF
:100F500087FC052502460B46029401943046009515
:100F6000FFF760FE30681049036801225B6898470C
:100F7000346805A809F064F92368024605A95B688E
:100F80002046984730680949036801225B68D1E729
:100F900000680349036802225B68CBE77C94FF1F6B
:100FA0002CDA000030DA000028DA000018DA00003D
:100FB00070B50446006818490368184D5B68022242
:100FC000984720681649036811225B689847206893
:100FD000036829465B680122984720681149036825
:100FE00005225B6898472068036829465B680122F0
:100FF000984720680C49036805225B689847206879
:101000000A49036801225B68984720680368BDE8C5
:101010007040DB68184700BF34DA000028DA0000AF
:1010200038DA00004CDA000054DA000018DA000068
:1010300038B503794D2B04467ED00AD9782B5DD084
:101040007E2B72D0562B62D094F8290080F00100DC
:1010500038BD3F2B62D0482BF6D1FFF7A9FF25689A
:101060003C492B680A225B6828469847284605F0C9
:1010700097FE256838492B6808225B682846984700
:10108000284605F08DFE256834492B6839225B68B7
:1010900028469847284605F083FE256830492B6886
:1010A00058225B6828469847284605F079FE25684F
:1010B0002C492B682A225B6828469847284605F069
:1010C0006FFE256828492B680A225B6828469847E6
:1010D000284605F065FE256824492B684E225B688A
:1010E00028469847284605F05BFE20680368DB68C1
:1010F0009847002384F82930012038BD4379303BDC
:10110000092B20D9002384F82930012038BDFFF7AE
:101110004FFF002384F82930012038BDFFF74AFE35
:10112000002384F82930012038BDFFF701FD00239A
:1011300084F82930012038BDFFF744FD002384F8EE
:101140002930012038BD0A4A52F82310FFF7CCFE9F
:10115000D8E700BF5CDA000068DA000074DA00004B
:10116000B0DA00000CDB000038DB000044DB0000DC
:101170001894FF1F08B5097883798B420BD8C3797F
:101180008B4208D303798B4207D00171006803F0CA
:10119000DFFC012008BD002008BD012008BD00BF04
:1011A00030B5054683B0D9B102A9184601F8012D22
:1011B000FFF7E0FF044628685CB903680A495B68EA
:1011C0000122984728680368DB689847204603B0E7
:1011D00030BD036805495B68012298470124F1E7A7
:1011E0000C460068E9E700BF50DA0000DCD90000D7
:1011F00010B50446006803F091FCA379984204D32B
:10120000E379984201D8207110BD611D2046BDE8E8
:101210001040FFF7AFBF00BF0B68C268934218D3FE
:101220000269934215D84268934214D070B582B0D7
:1012300002AD046845F8043D4360261D204615F8BC
:10124000011B013403F084FCB442F7D1012002B049
:1012500070BD002070470120704700BF30B583B0DB
:1012600005460192C9B1184601A9FFF7D5FF04460A
:1012700028685CB903680A495B68012298472868B6
:101280000368DB689847204603B030BD0368054912
:101290005B68012298470124F1E70C460068E9E702
:1012A00050DA0000DCD90000F8B50446064654F8D0
:1012B000045B00F108072D1B281903F02FFC04F82C
:1012C000010BBC42F8D17368F268934202D33269D1
:1012D000934205D939463046BDE8F840FFF79CBF38
:1012E000F8BD00BF0B68C268934218D302699342ED
:1012F00015D84268934214D070B582B002AD04682C
:1013000045F8043D4360261D204615F8011B0134B5
:1013100003F01EFCB442F7D1012002B070BD0020E2
:1013200070470120704700BF30B583B00546019279
:10133000C9B1184601A9FFF7D5FF044628685CB972
:1013400003680A495B680122984728680368DB68DC
:101350009847204603B030BD036805495B68012209
:1013600098470124F1E70C460068E9E750DA0000ED
:10137000DCD90000F8B50446064654F8045B00F1D9
:1013800008072D1B281903F0C9FB04F8010BBC4208
:10139000F8D17368F268934202D33269934205D957
:1013A00039463046BDE8F840FFF79CBFF8BD00BFA6
:1013B000F8B5074600258560FD601420C7F80F507A
:1013C0000E4605F04FFD32680C4B8560C56002602B
:1013D00003610446FFF7CEFF36687C603D46341D4E
:1013E00045F8074B0F36204603F098FB0134B44212
:1013F00005F8010FF7D13846F8BD00BF00943577E6
:101400002DE9F8430024074691464E1EC51DA0460F
:101410000CE0B8F1000F18BF002105F8011F386873
:101420002044013403F094FB0A2C0CD016F8011F61
:10143000232904D00029ECD14FF00108EDE74FF04B
:1014400001080021E9E738680021B9740A3003F087
:101450007FFB49467868FFF745FF0120BDE8F88328
:101460002DE9F04383B000261420019605F0FAFC24
:10147000019B0360012510224FF400738260036119
:10148000C5600446FFF710FF019BDFF8FC91DFF811
:10149000FC81C9F8004004330820019305F0E2FC08
:1014A000019B036032230A224371A0238271C3711E
:1014B0000446FFF79DFE019B684A2B4408201460F8
:1014C000019305F0CFFC019B0360042302224371CA
:1014D00007238271C3710446FFF78AFE019B604AAD
:1014E0002B4408201460019305F0BCFC019B46715D
:1014F00086710360C5710746FFF77AFED9F80030A0
:10150000019A5B685749C3EB034444452A444FF0B2
:10151000140028BF44460F60019205F0A3FC019B14
:1015200004618660C66003600746FFF723FFD9F8B1
:101530000030019A5B684C494C4C0F60C3EB03438D
:10154000984502F104024FF0140028BF984601921A
:1015500005F088FC019AC0F810804FF6FF73C66052
:10156000026083600746FFF705FF019B404A043392
:1015700014201760019305F075FC1427019B03608C
:1015800040F2E7388760C0F81080C5600646FFF774
:101590008BFE019B374A043338461660019305F0F1
:1015A00061FC019BC0F8108087600360C56006463F
:1015B000FFF77AFE019B304A04330820166001933E
:1015C00005F050FC4FF01E09019B03604FF06308CB
:1015D000857180F8059080F807800646FFF708FEC1
:1015E000019B264A2B4408201660019305F03AFC23
:1015F000019B036080F80590857180F8078006469E
:10160000FFF7F6FD019B1E4A2B440820166001934C
:1016100005F028FC019B036080F80590857180F837
:1016200007800746FFF7E4FD019B164A02AE2B44F4
:1016300046F8043D176004F12807142005F012FC59
:1016400031460546FFF7B4FE019B44F8045B0F33B7
:10165000BC420193F1D103B0BDE8F0837894FF1F41
:101660007494FF1FD892FF1F1C92FF1F1894FF1F36
:101670000894FF1FDC92FF1F1094FF1FB092FF1F02
:10168000A093FF1FCC92FF1F7C94FF1F009435771F
:1016900038B504460D464078012103F06BFB2A461D
:1016A000A1786078BDE8384003F06ABB70B50021CE
:1016B0000646407803F05EFB00252C46707803F068
:1016C0004BFBA84001210443B0780D4403F03EFBDE
:1016D0000021B07803F03AFB082DE4B2EED12046A9
:1016E00070BD00BF2DE9F041077806460D468078B1
:1016F00000219046602403F029FB3846012103F0C5
:1017000025FB2346013BFDD1690061F07F01304696
:1017100001F0FE01FFF7BCFF41463046FFF7B8FF7E
:101720003846002103F012FB013CFDD1BDE8F081F9
:10173000002A2CDD2DE9F04190F800801F2A0D468B
:1017400006464FF0000180781746A8BF1F2703F018
:10175000FDFA4046012103F0F9FA6023013BFDD177
:10176000FE213046FFF794FF013D0024013415F8B7
:10177000011F3046FFF78CFFA742F7DC40460021EF
:1017800003F0E4FA6023013BFDD1BDE8F08170472E
:101790000A4B0B4A5B6811688B4200D1704700B559
:1017A0000849136085B0086801930C2201A90293CF
:1017B0000393FFF7BDFF05B05DF804FB6893FF1FBF
:1017C000D092FF1F0C94FF1F002A2CDD2DE9F04161
:1017D00090F800801F2A0D4606464FF000018078E1
:1017E0001746A8BF1F2703F0B1FA4046012103F0B6
:1017F000ADFA6023013BFDD1FF213046FFF748FFE2
:10180000013D00243046FFF751FF0134A74205F89F
:10181000010FF7DC4046002103F098FA6023013BFA
:10182000FDD1BDE8F081704770B51C4D286888B0C7
:10183000F0B100220721FFF755FF1F2228686946F3
:10184000FFF7C2FF9DE80C009A4209D0144A154BDD
:10185000126852685A60144A5B68136008B070BD21
:10186000124B1B685B689A42F0D80E4B5A60F2E745
:10187000032005F0F7FA0423044603221846022643
:10188000012162702370A67003F074FA30460121C2
:1018900003F070FA2C602046CBE700BF0C94FF1FCA
:1018A0001C92FF1F6893FF1F1494FF1F0894FF1FD3
:1018B000416D036F826F10B44C681B1B002BB8BFC7
:1018C0005B42934210D3C46FA34208D3426FD21A33
:1018D0004B68086810BC00FB0232CA6070471344B2
:1018E00000244367C467F3E700225C00C267826795
:1018F00044671A46ECE700BF70B503792B3B0546F9
:10190000442B29D8DFE803F0232823282828282877
:101910002828282828282828282828282828282847
:1019200028282828282823282828282823282D283C
:101930002828282828282828282828282828282827
:10194000282828282828232828282828230017483A
:1019500083689B689B071DD495F8290080F00100DF
:1019600070BD134B9B689B68990702D5114B0022F1
:101970001A600E4883689B689A0706D50E4B1A7842
:101980001AB901221A70FFF793FF002385F8293056
:10199000012070BD084B1E78002EDDD101241C7083
:1019A000FFF786FF204685F8296070BD2492FF1F4F
:1019B000E092FF1FB492FF1F1892FF1F38B590F8F6
:1019C0005C300D4A0260044623B18268936823F0BC
:1019D00002039360094B636004F10C05284605F08F
:1019E00095F9206A03F01AF8606A03F017F82846A0
:1019F00005F08CF9204638BD88D900007CD900005C
:101A000010B5034B03600446FFF7D8FF204610BD16
:101A1000C0D9000010B5054B03600446FFF7CEFFA8
:101A20002046882105F020FA204610BDC0D90000CC
:101A300010B5034B03600446FFF7C0FF204610BDFE
:101A4000A4D9000010B5054B03600446FFF7B6FFAC
:101A500020468C2105F008FA204610BDA4D90000CC
:101A600010B50446FFF7AAFF2046702105F0FCF9E7
:101A7000204610BD884231D02DE9F04700F104081E
:101A8000414516468A46814617D0D9F80010D8F845
:101A90000000B04798B9D8F80050444601E02368E8
:101AA00063602746284654F8041DB0470028F6D145
:101AB0003D6008F10408C245E7D1BDE8F087C9EBF5
:101AC00008029308D8F8004005D0C2F10400404451
:101AD000494608F0D3F8C9F80040EAE7704700BF6C
:101AE0002DE9F8430B1A432B1CDD00F14008894611
:101AF00041461746FFF7BEFFC14515D0D8F8005044
:101B0000444601E0236863602646284654F8041DD5
:101B1000B8470028F6D108F10408C1453560EDD179
:101B2000BDE8F883FFF7A6FFBDE8F8832DE9F04F85
:101B3000561E06EBD67683B07610B14201928846E7
:101B4000054699460C9F5CDA8A4600E0DA460AF1BF
:101B500001034FEA430B0BF18041013955F8330083
:101B600055F8211005EBC304B84718B10BF1FF3B42
:101B700005EB8B04236845F82A30B345E6DB019B6F
:101B8000DA0707D4019BA3F1020A0AEBDA7ABBEB6E
:101B90006A0F06D0C34514DCC4F8009003B0BDE85A
:101BA000F08F0BF1010B4FEA4B0B0BF18043013B24
:101BB0000BF1FF3B55F823302360C34505EB8B0445
:101BC000EADD0BF1FF3606EBD6767610494655F87E
:101BD0002600B847731E03EBD37305EB86045B1036
:101BE00030B905EB8B04C4F8009003B0BDE8F08F6A
:101BF00055F8262045F82B20B045CDDAB3461E46D1
:101C0000E4E7019BDB0700EB8104C5D48B46B9E711
:101C10002DE9F04F0C1A432C85B040F3898005461E
:101C2000894692461E46002A61D0031D0393E410A4
:101C3000686855F82410B0470AF1FF3A59F8041CB7
:101C4000002834D055F82400B047002837D02B683E
:101C500055F824202A6045F8243068682968039FD5
:101C6000CB46B846B04780B9ABF104042168286878
:101C7000A346043CB0470028F8D15F4509D23A6832
:101C8000DBF800103960CBF8002057F8040F296802
:101C9000E7E749463346524638467C1BFFF7B8FF14
:101CA000432C45DDBAF1000F22D0B946BFE7686882
:101CB000B04798B195E8030029606860CFE759F80C
:101CC000041C6868B0470028F4D02B6859F8042C2D
:101CD0002A6049F8043C68682968C0E759F8041C80
:101CE00055F82400B0472B680028B1D0EEE78846AD
:101CF000A410A71E7F1005EB870900E0013F59F8EB
:101D000004390096224639462846FFF70FFF002F78
:101D1000F4D158F8043D2A680096C5EB0804C8F8C9
:101D200000200021A2102846FFF700FF072CF0DC5E
:101D300005B0BDE8F08F00BF2DE9F04700F128069F
:101D40004FEA810806EB0805AE420446894617466D
:101D500010D04FEAA802B2FA82F2C2F11F0252007A
:101D600029463046504BFFF753FF4F4A294630462D
:101D7000FFF7B6FED4F828C0C4F854C0DCF8180049
:101D8000002866D080EAE0730022A3EBE073B9F18B
:101D9000010FCCF80820CCF8103011DD08F1240830
:101DA000A044B6465EF8042F9369002BB8BF5B428F
:101DB0001361DCF81010C645C1EB43035361F1D148
:101DC000AE4268D0DCF81C2004F12C0306E0196850
:101DD000C9698A4203F1040328BF0A469D42F6D12D
:101DE0001546DCF80430A66E07F0B2F9A067284665
:101DF00007F0AAF90546304607F0A6F9014628463D
:101E000007F0FAF9294907F0ABFA0023E0676367A6
:101E100072B6E36FC4F8803062B672B6A16F38460E
:101E200007F0EAF9616F206707F0A2FB98B9D4F8D0
:101E3000803003F10043C4F8843062B6A268206A9F
:101E40009368616A23F002038842936026D0E369B5
:101E500023B9BDE8F087D4F88030ECE772B6144AB5
:101E6000236AE06900211160DB00516803F18043BF
:101E700003F5603301440D2019611060DA685021C8
:101E800022F08002DA60D96062B660690368BDE85A
:101E9000F0475B681847A36ADD69A2E760690368D9
:101EA000BDE8F0479B6818477D0400000024744992
:101EB00000800340F8B5204B204D1B681B794FF480
:101EC0007A7101FB03F1284602F09AFC1C4B1B6857
:101ED000586806F0C5FC1B4B1B68064618790F4670
:101EE00006F0BEFC02460B4600204FF0804105F094
:101EF0001BFA02460B463046394606F027FD06F02F
:101F0000D5FF0146284602F087FC0F4B196E01F100
:101F10000A0701F10B04002643F827504FF07E52C8
:101F200018461E6643F824600121FFF705FF074BA2
:101F300002221A70F8BD00BFA093FF1F6893FF1F15
:101F4000DC92FF1F7494FF1FE092FF1FB892FF1FE7
:101F5000F8B50379492B044660D030D9692B1AD0E3
:101F60006F2B18D04F2B25D13A4B1B780022022B18
:101F700080F8292001D0FFF79DFF374B20681D68AE
:101F8000364A036836496D68156001220A605B684D
:101F9000344998470AE02068314A036831495D684E
:101FA0000023136084F829300122A84720680368C1
:101FB000DB68984794F8290080F00100F8BD2B2BCE
:101FC00016D02D2BF6D1234B1B780022022B80F844
:101FD00029203AD0FFF76EFF94F8290080F0010025
:101FE0001F491E4B4FF0FF3400220C601A60F8BDF1
:101FF000184B1B780022022B80F8292027D0FFF7EE
:1020000059FF94F8290080F00100134B134A196816
:10201000134B4968116001221A60F8BD0D4B1B7803
:102020000022022B80F8292001D0FFF743FF20680F
:102030000B4E0368094A5B680A494FF0FF370025D9
:102040001560376001229847B0E70120C8E70120FA
:10205000DBE700BFB892FF1F0894FF1F1494FF1F17
:10206000B492FF1FDCD900002DE9F84301210A20BA
:1020700002F080FE01210A2002F068FE984B994E82
:102080001B68994C187907F063F8984907F0B4F881
:1020900007F0B4FA33680225804640201F79257086
:1020A00004F0E0FE924A4FF0FF330A21814601F02E
:1020B0001DFC01210720C4F8089002F05BFE0121FD
:1020C000072002F043FE0121062002F053FE012109
:1020D000052002F04FFE01210A2002F04BFE0021F4
:1020E000062002F033FE0021052002F02FFE012120
:1020F0000A2002F02BFE7F4802F010F929460C203E
:1021000002F038FEA06801F0F3FEA06802F042F889
:10211000A06803680121DB6A9847A068FF2102F0EC
:1021200041F8A068042101F0EDFAA06803680021DD
:10213000DB699847A068036829465B699847A068EF
:10214000002101F015FBA068962101F05DFBA0685D
:10215000012101F069FBA0680F2101F04BFBA06891
:102160004FF4FA7102F024F82378AB4200F0988023
:10217000032B00F08480012B79D0384606F080FBD9
:1021800002460B4600204FF0804105F0CDF806F0E6
:102190008DFE2378544A022B00F09880032B00F028
:1021A0009080012B5ED00021072002F0CFFD524B22
:1021B000524D1B68524C586806F052FB33688046FB
:1021C0001879894606F04CFB02460B4600204FF07A
:1021D000804105F0A9F802460B464046494606F004
:1021E000B5FB06F063FE0146284602F015FB454BA1
:1021F0001B681B794FF47A7101FB03F1284602F04A
:10220000FFFA414B1B681979003118BF012128469C
:1022100002F0E4FA236E03F10A070B33002644F8B8
:1022200027504FF07E5220460121266644F8236055
:10223000FFF782FD72B60021A06F06F0DDFF0346B6
:1022400001462367606F07F075F9A8B9D4F88030AC
:1022500003F10043C4F8843062B62C4B02221A709A
:10226000BDE8F8830146506802F0BCF99BE741469F
:10227000606802F099F880E7D4F88030EAE74046D9
:1022800006F0EEFA14A3D3E9002306F089FC06F069
:1022900035FE4FF07A5281B2E06801F0DBFE6CE768
:1022A000404606F0DDFA0CA3D3E9002306F078FCE3
:1022B00006F024FE4FF07A5281B2A06801F028FFA8
:1022C0005BE781B2D06801F027FF6CE781B29068CC
:1022D00001F022FF67E700BFCD3B7F669EA0F63F7F
:1022E0007894FF1F7494FF1FBC92FF1F00002041D1
:1022F000EC51B83D2C87FF1FDC92FF1F6893FF1F36
:10230000E092FF1FA093FF1FD892FF1FB892FF1FFC
:1023100030B5012183B0212002F02CFD14240121CD
:10232000212002F013FD0A2002F050FD002121209F
:1023300002F00CFD322002F049FD013CEFD10121F9
:10234000052002F017FD0121062002F013FD2146B1
:10235000062002F0FBFC2146052002F0F7FC0121DB
:10236000212002F0F3FC1A2003F042F821461F203E
:1023700003F004F840F60B2002F0E0FE0A212248A8
:10238000224D04F065FDFFF76BF8214800F0A4FD35
:102390000C211F4800F0C6FE21461D4800F036FF04
:1023A00021461B4800F068FF29460446019500902D
:1023B00007F0C0F828B31749204607F0CFF800B956
:1023C000144C154B12481C60002100F0CBFE134B3F
:1023D0001968FF221A7121B1114B12480B441B11CD
:1023E0001A54114A11490D4804F046FCFFF73CFE0F
:1023F000FFF71AFA0021212003B0BDE8304002F0B7
:10240000A5BC2C46DDE700BF7087FF1FF3FFC74266
:10241000EC93FF1FF3FFC7C22487FF1F1092FF1F1B
:10242000008FFCBF44E400E0FF94BA0A610500009D
:102430002DE9F0478B0000F12807FC18A74205465C
:102440000E4600F09E809A10B2FA82F2C2F11F028C
:102450005200854B21463846FFF7DAFB824A214677
:102460003846FFF73DFBD5F828E0C5F854E0012ECB
:1024700040F3F680DEF81000BC4601225CF8041F31
:102480000B690132C0EB430396424B61F6DCA74275
:1024900000F0BD80D5F8288005F12C03D8F818107D
:1024A0001A460DE01668B66981EAE17786EAE67CAD
:1024B000A7EBE177ACEBE67C0432BC45B8BF314614
:1024C0009442EFD181EAE176A6EBE176D8F81C20C0
:1024D00006E01968C9698A4203F1040328BF0A4665
:1024E0009C42F6D1144600B10EB9BDE8F087DEF883
:1024F0000470DEF80C302F67DF1B002FB8BF7F425F
:102500004FEA44086F67C5F88460C5F88840C5F88D
:102510008080304606F018FE014606F06DFE8146CA
:10252000404606F011FE0146484606F019FF4FF0FE
:102530007C5106F057FD07F061F87B08984228BFF0
:1025400018463F1AEF67A867002857D1AB689A680A
:1025500046B312F002046ED01A6844498A4265D923
:1025600058684349B1FBF6F1121A914251D38A1AC5
:102570000026012403209E60DC601A6098601960C8
:1025800013E0D0F828E0C0F854E001293FF772AF1B
:10259000DEF8100073469969DC6981EAE176A6EB02
:1025A000E176A0E722F002029A60286A696A0126B1
:1025B000002203248842DE609A609C604AD0EB6966
:1025C000002B92D072B62B492B6AE8690A60DB00B7
:1025D0004A6803F1804303F5603302440D201A6119
:1025E0000860DA68502122F08002DA60D96062B6B1
:1025F00068690368BDE8F0475B681847204606F045
:10260000A3FD05F009F806F0D3FF06469EE7AB6A86
:10261000C1E7686902680027012603249F601268E9
:10262000DE6019609C609047AB68BEE71049B1FB63
:10263000F6F11960B9E7686903681B689847AB68E9
:102640000B499C6001200322D860B1FBF6F11960B0
:102650009A60AAE768690368BDE8F0479B68184775
:10266000DEF8100016E700BF6D0400007F320200A4
:102670000051250200800340F8B5104B1B78012B58
:10268000044601D0FDF7A4FF0D4E0E4B0025214658
:1026900030461D7002F0E4F80B4B1A6E1D6602F115
:1026A0000A0702F10B04012243F82760184611467D
:1026B00043F82450FFF7BCFEF8BD00BFB892FF1FDF
:1026C0006893FF1F1892FF1F2492FF1FFFFFFFFF59
:1026D00030B50379213B85B00446522B00F2688166
:1026E000DFE813F05C0066016601530066016601D5
:1026F00066016601660166016601660166016601A2
:102700006601660079007E008E0090009A009C00B1
:102710009E00B200660166016601660166016601FF
:102720006601660166016601660166016601660171
:10273000BE0066016601660166016601660166010A
:102740006601D20066016601DB0066016601660172
:102750006601660166016601660166016601660141
:102760006601660166016601F9006601660166019F
:1027700015016601660166016601660129016601AF
:1027800066016601660166014C01002420460021B5
:10279000013402F0DDF9B4F5006FF7D102F0D6FB99
:1027A00002F06EFD4FF47A7002F010FB03F04CF96A
:1027B000994B406A1A68994B52681B6894F8281024
:1027C00000FB02F22046FEF7AFFD002384F829301B
:1027D000012005B030BD904B406A1A68904BEBE782
:1027E000904B626A1B6894F828102046FEF736FD6D
:1027F0008D4A00230120137084F8293005B030BDC4
:102800008A4BEEE78A4B94F824201B6894F8281032
:102810002046FEF7C5FCEBE7864BF4E7864BF2E774
:10282000864D426A2B6890F82810FEF7B9FC2B6899
:1028300083481979003118BF012101F0CFFF00232F
:1028400084F829300120C4E7734B426A1B6890F872
:102850002810FEF703FD002384F829300120B8E793
:1028600090F8283053B16C4B6D4A1B681268586859
:10287000636A526803FB00F0904259D9002301209B
:1028800084F8293005B030BD644A654B12681B6876
:1028900050685B689842F1D84AE05F4B604A1B6819
:1028A00010685B68626A94F8281003AD019540686F
:1028B000009002FB03F220460023FEF715F90028E2
:1028C000DCD0604B5E4A1B7803995160002BD5D158
:1028D000FEF75EFFD2E75C4D426A2B6890F8281045
:1028E000FEF75EFC0028C9D02B68584D1B792A786A
:1028F00003EB8303022A4FEA43006ED0032A5CD025
:10290000012ABBD10146686801F04EFDB6E7437964
:10291000303B092BB2D84E4A52F823301A7A002A9B
:10292000ACD03F495A680B6850685B689842A5D89C
:10293000FFF7A2FEA2E7474D426A2B6890F82810E5
:10294000FEF72EFC002899D02B68187905F098FF27
:1029500002460B4600204FF0804104F0E5FC06F0F3
:10296000A5FA3A4B1A78022A01464BD0032A44D0E2
:10297000012A83D1586801F035FE7FE74579303D63
:10298000092D3FF67BAF0B3006F05EFE224A304940
:102990001268034651F825005168636204AA03FBDC
:1029A00001F342F8043D04F11101FEF729FD65E74A
:1029B00090F8290080F001000BE705F051FF14A307
:1029C000D3E9002306F0ECF806F098FA4FF07A52BB
:1029D00081B2E86801F03EFB50E705F041FF0CA32F
:1029E000D3E9002306F0DCF806F088FA4FF07A52BB
:1029F00081B2A86801F08CFB40E781B2D86801F091
:102A00008BFB3BE781B2986801F086FB36E700BF9D
:102A1000CD3B7F669EA0F63F7C94FF1F1C92FF1F5C
:102A20000894FF1FDC92FF1FB892FF1F1094FF1F36
:102A3000B092FF1FA093FF1FCC92FF1FD892FF1FE1
:102A40006893FF1F2092FF1F7894FF1FBC92FF1F07
:102A50001894FF1F7494FF1F70B50546FDF7E2FF41
:102A600040B195F8294044B91A4B9B689A689B6815
:102A70009A0720D50024204670BD2846FEF73CFF6B
:102A80000028F8D195F82930002BEDD02846FEF724
:102A9000CFFA0028EFD10F4EB3689A689107E6D4B9
:102AA00095F82920002AE2D02846FFF751FA00289D
:102AB000E1D1B368DBE7084B9B689B689B07D9D4DF
:102AC00095F82930002BD5D02846BDE87040FFF797
:102AD000FFBD00BF2492FF1FE092FF1F08B5124BFD
:102AE0009B689B689B0705D4104B9B689B6813F001
:102AF000020309D00E4B01221A70FDF7F7FE0D48B4
:102B0000FFF7AAFF58B108BD094A1370FEF740FE4F
:102B1000FDF7ECFE0748FFF79FFF0028F3D10648BA
:102B2000BDE80840FFF798BF2492FF1FE092FF1F07
:102B30002092FF1FB893FF1F4094FF1F2DE9F04F15
:102B4000062287B05F4D6048DFF8B4A15F4F604C4C
:102B5000052101F00FFE5F4B6D61002605F10409B0
:102B60004FF0800885E80804AE60EE6085F81080BC
:102B7000484601F03FFF2862484601F03BFF4FF016
:102B800001096862AE6585F85C602E66C5F86490E0
:102B900001F004FF696905F1080001F0C5FE062394
:102BA000AB61019341F2F9534FF0050BEB614A4AD7
:102BB0004A4985F85C0041F288332A60AB663A46A0
:102BC000C5F86CB028466E6606F038FD414BA6602D
:102BD000251D84E80804E66084F8108028466461B6
:102BE00001F008FF2062284601F004FFA66560623C
:102BF00084F85C602666C4F8649001F0CFFE6169D9
:102C0000DFF800A1364D04F1080001F08DFE019BB4
:102C1000A36141F2F953E36141F28833DFF8E8E060
:102C200084F85C003A46A366C4F86CB020462D498F
:102C3000C4F800E0C4F8649006F000FDDAF8003053
:102C40000593294B059A1A602846092100F030FBAC
:102C500029462648264D274CDFF8B09000F05AF858
:102C6000DAF800300393DDF80CB0DAF800300493A2
:102C7000214BDDF810C0DFF898E02049C3F830C0E0
:102C80003A4628465E6283F8286083F8296083F814
:102C90002A60DE62C3F800E085F804802E60C4F884
:102CA00030B0666284F8286084F8296084F82A606D
:102CB000E662C4F8009006F0C1FC01F0E7FE07B040
:102CC000BDE8F08F2492FF1F6893FF1F2087FF1F2E
:102CD000E092FF1F88D90000A4D90000311A00003B
:102CE000A493FF1F011A00000C92FF1FEC93FF1F1B
:102CF0001092FF1F4094FF1FB893FF1F550500005F
:102D00007CD90000B894FF1FC0D900009087FF1F36
:102D10007087FF1F30B4002201240925457084709C
:102D2000C4708160027142710270826130BC704770
:102D30002DE9F041074680688846154600F088FB7B
:102D4000002401224146B86800F090FBE3B2064639
:102D500028B19D4207D00134E3B29D42F1D2002652
:102D60003046BDE8F0810721404600F003FC98F8AA
:102D700007308342EFD1F3E770B5054680680C4613
:102D8000164600F0B1FA00B970BD2146A86800F0FF
:102D90004DFB0022BE21A86800F018FB741E083607
:102DA000A86800F033FB04F8010FB442F8D1A8681A
:102DB00000F09AFAA0F10100B0FA80F0400970BD6D
:102DC00010B51446FFF7D8FF40B10821204600F0A7
:102DD000D1FB237A181AB0FA80F0400910BD00BF69
:102DE00000B585B001AAFFF7EBFF48B19DF80830A8
:102DF0003F2B0CD00FD95F2B05D07F2B11D10C208E
:102E000005B05DF804FB0B2005B05DF804FB0A205B
:102E100005B05DF804FB1F2B03D1092005B05DF858
:102E200004FB002005B05DF804FB00BF70B504464C
:102E30000D468068164600F057FA2946A06800F053
:102E4000F5FAA06800224E2100F0C0FAB178A0681F
:102E5000002200F0BBFAF178A068002200F0B6FA78
:102E60002B78102B04D03179A068002200F0AEFA44
:102E7000A06800F039FA2946A06800F0D7FA227855
:102E8000A068482100F0A2FA142001F09FFF2378E7
:102E900013B10A2001F09AFFA068BDE8704000F06D
:102EA00023BA00BF38B504460D46806800F01CFA0E
:102EB0002946A06800F0BAFA0022B421A06800F008
:102EC00085FAA06800F068FA0546A06800F00CFAE0
:102ED000B5FA85F0400938BD30B5044683B0806846
:102EE00000F0B6FA002323716371012506E06846FD
:102EF00000F040FB9DF80730834209D0694601226B
:102F0000A06800F0B3FA07210028F0D103B030BD6B
:102F10002378002B00F08A809DF80030102B694642
:102F2000204677D0FFF75CFF617822799DF800306A
:102F3000884238BF08460132103B60702271322B44
:102F4000DCD801A252F823F025300000FD2E00004D
:102F5000FD2E0000FD2E0000FD2E0000FD2E0000C5
:102F6000FD2E0000FD2E0000FD2E0000FD2E0000B5
:102F7000FD2E0000FD2E0000FD2E0000FD2E0000A5
:102F8000FD2E0000FD2E0000FD2E0000FD2E000095
:102F900025300000FD2E0000FD2E0000FD2E00005B
:102FA000FD2E0000FD2E000025300000FD2E00004B
:102FB000FD2E0000FD2E0000FD2E0000FD2E000065
:102FC000FD2E0000FD2E0000FD2E0000FD2E000055
:102FD000FD2E0000FD2E0000FD2E0000FD2E000045
:102FE000FD2E0000FD2E0000FD2E0000FD2E000035
:102FF000FD2E000025300000FD2E0000FD2E0000FB
:10300000FD2E0000FD2E0000FD2E0000FD2E000014
:1030100025300000627823790C2A38BF0C22013356
:103020006270237163790133637167E769462046F3
:10303000FFF738FF00283FF46FAF25706CE700BF43
:103040002DE9F041082A1E4686B004460F460B784B
:1030500011DD0C2AA8BF0C22102B15464ED0394684
:103060002046FFF7BDFEA84209D14FF001084046B7
:1030700006B0BDE8F081102B4FF00905EFD103AA8F
:1030800039462046FFF79CFE80460028EFD03B786B
:10309000102BEAD00B2D3CD00C2D31D00A2D3CD07A
:1030A0001F238DF8103003AA39462046FFF7BEFED5
:1030B0006378AB4228D3002ED7D1AB42D5D9237940
:1030C0006570002BD3D035460BE0FFF789FE6278A0
:1030D0002379904205F1010538BF1046AB4260707C
:1030E000C5DD01A9EAB22046FFF722FE9DF80430B3
:1030F000102B01A92046E8D10C20E8E70C20B2E70C
:103100007F238DF81030CEE74046657006B0BDE8ED
:10311000F0815F238DF81030C5E73F238DF8103024
:10312000C1E700BF08291ADD0C29A8BF0C210379CB
:103130004170B3B130B5044683B00025EAB26946A8
:103140002046FFF7F5FD0123627869462046FFF728
:1031500077FF23790135AB42F0DC03B030BD0921A4
:10316000E5E77047817070470939C9B2F0B50229A7
:103170009CBF114B33F91150C37883B0044688BF0C
:1031800040F2EE2593B1037883B90C4E3368009377
:10319000009FA06800F000F901280AD0336801936D
:1031A000019B5B1BBB42F4D303B0F0BD284601F08A
:1031B0000DFE03B0F0BD00BF94DB0000B894FF1F0C
:1031C00070B50B78102B0D46044606D0FFF708FEAD
:1031D000064618B90546284670BD0C26A06800F0C2
:1031E00083F82946A06800F021F92278A0684421DC
:1031F00000F0ECF8A57815B90125284670BD2046E9
:103200003146FFF7B1FF284670BD00BF10B582B050
:103210000A4604466946FFF78BFD69462046FFF7DC
:10322000CFFF02B010BD00BF10B584B001AA0C469C
:10323000FFF7C6FDE0B19DF804009DF80520237856
:10324000C00040EAC220102B00B201D004B010BD73
:103250009DF80B209DF80A30C000D31A20F07F00A3
:10326000DB0193FBF2F3103B184400B204B010BD35
:103270000048EBE780E4FFFF10B582B00A466946DC
:103280000446FFF755FD10B9084802B010BD694665
:103290002046FFF7C9FF10F5DC5FF5DD05F058FFAC
:1032A0004FF0705105F0A8FF02B010BD0000FEC243
:1032B00038B50D4604460021284601F05BFD012388
:1032C000084A237052F83520626023460022227497
:1032D000A274627403F80F2F083403F8012DA3427F
:1032E000FBD138BD1CDD0000426872B6002382F8B5
:1032F000803262B67C20302102E010F0FF0024D042
:103300000B46013BFDD192F800320138002BF4D07E
:1033100072B6012382F8003182F8803262B64FF42F
:103320003453013BFDD172B600214FF4D26382F8D1
:103330008012013BFDD192F80002B0FA80F0400902
:1033400062B642F27063013BFDD17047CA07436821
:1033500010D472B6012183F800114FF4C36283F8D0
:103360008012013AFDD183F8801062B67823013BC8
:10337000FDD1704772B6012183F80011F02283F865
:103380008012013AFDD183F8801062B64FF4A56334
:10339000013BFDD1704700BF436872B6012183F83D
:1033A0008012482283F80011013AFDD10021F02259
:1033B00083F88012013AFDD193F80002C0B262B6E0
:1033C0004FF49F63013BFDD1704700BF2DE9F041F1
:1033D00006460F46904608250124274214BF0121C6
:1033E00000213046FFF7B2FF6400013DE4B2F4D1A2
:1033F000B8F1000F08D172B6736883F880827368E1
:10340000012283F8002162B6BDE8F081F8B50746D5
:103410000824002601253846FFF7BEFF6B0000B1E7
:103420002E43013CDDB2F6D13046F8BD70B5002226
:103430000D4655210646FFF7C9FF6C1E073514F8E7
:10344000011F00223046FFF7C1FFAC42F7D170BD2B
:103450000346002202748274427403F80F2F08306E
:1034600003F8012D8342FBD1704700BF2DE9F047DF
:10347000857C04462DB1002020746074A074BDE8E2
:10348000F08789461646FFF72FFF0028F3D0002E5D
:1034900066D02A46F0212046FFF798FF01254FF01D
:1034A00000082E46C24619E0874229D004EB0803E3
:1034B0001A7A22EA05021A72394620466D00FFF791
:1034C00045FF013615F0FF05F6B204D108F10108F9
:1034D0005FFA88F80125B8F1070F28D82046FFF7D2
:1034E0005BFF07462046FFF757FF012FDCD101287D
:1034F0001DD004EB08031A7A2A431A720127DBE76E
:10350000237C9E420DD204EB08031A7A154214BFA5
:1035100001270027002FEED1082E00D86674B2468E
:10352000C6E70CBF0127002704EB0803F2E7402E93
:10353000A1D984F810A0BAF1000F17D0227A002A7E
:1035400099D004F1080309F1FF390F3401E013F8B1
:10355000012F09F8012F9C42F9D10120BDE8F08725
:103560003246EC212046FFF731FF97E70123A37491
:10357000E4E700BFA9B130B44D1EEDB20A4C0544DA
:10358000421E002012F8013F584000F00F0304EBE8
:103590001010E15C037C954281EA0300F2D130BC5B
:1035A00070470846704700BF9CDB000090F825205C
:1035B00010B461F30612046880F825202468D0F85E
:1035C000252023466C2110BC184700BF70B490F82A
:1035D000252090F82650046801F0010625F0070523
:1035E00002F07F02C1F3420142EAC612294380F889
:1035F000261080F825202468D0F8252023466C2149
:1036000070BC184770B490F8262090F827500468D2
:1036100001F0010625F0010502F07F02C1F340012F
:1036200042EAC612294380F8271080F82620246831
:10363000D0F8252023466C2170BC184790F827202D
:1036400010B461F34102046880F827202468D0F8A0
:10365000252023466C2110BC184700BF90F8282075
:1036600010B461F30302046880F828202468D0F8BD
:10367000252023466C2110BC184700BF00B5036805
:1036800083B06C215B689847C0F3021003B05DF80B
:1036900004FB00BF00B5036883B06C215B689847EA
:1036A000C0F3C31003B05DF804FB00BF00B50368AE
:1036B00083B06C215B689847C0F3C13003B05DF8FC
:1036C00004FB00BF00B5036883B06C215B689847BA
:1036D000C0F3404003B05DF804FB00BF00B50368D1
:1036E00083B06C215B689847C0F3036003B05DF85A
:1036F00004FB00BF0A460168C0F825200B686C2156
:10370000184700BF90F8252010B461F30302046845
:1037100080F825202468D0F8252023466C2110BC91
:10372000184700BF70B490F82C2090F82840066825
:1037300022F00105C1F3006244EA01242A438462B5
:1037400080F82C20336821F07E4270BC6D21184730
:1037500003686F215B681847426910B461F319224E
:1037600004684261236810BCC1F3110200211847AC
:10377000427D61F38202427510B442690468C2F36B
:103780001122236810BC0021184700BF426810B402
:1037900061F3130204684260236810BCC1F3130292
:1037A00010211847027961F30402027110B44268D3
:1037B0000468C2F31302236810BC1021184700BF2D
:1037C000427961F30402427110B442680468C2F3A2
:1037D0001302236810BC1021184700BF026B10B4FD
:1037E00061F3150204680263236810BCC1F315027B
:1037F0007021184780F83110026B0368C2F315027C
:103800001B687021184700BF90F8322061F3010255
:1038100080F8322010B4026B0468C2F315022368EA
:1038200010BC7021184700BF90F8322061F382026B
:1038300080F8322010B4026B0468C2F315022368CA
:1038400010BC7021184700BF2DE9F04106460F4615
:103850000079002101F07AFA07254FF0000847FAB5
:1038600005F111F0010330784FF0010108BF19464E
:1038700001F06CFA0121307901F068FAB07801F0BA
:103880006BFA003018BF0120A84040EA080400216C
:10389000307964B201F05AFA013D5FFA84F8DED162
:1038A000FB074CBF01212946307801F04FFA012176
:1038B000307901F04BFAB07801F04EFA00280CBFD5
:1038C000204644F00100C0B2BDE8F08170B50D465D
:1038D000090A0646FFF7B8FFE9B204463046FFF78B
:1038E000B3FF40EA042080B270BD00BFF0B5857A16
:1038F0002A4FC260064600244FF07C5E25F00F057B
:10390000857284808471C4710481C0F810E046F827
:10391000157B90F82450A0F81540B470028C877E77
:10392000467F048325F07F0522F4FF7280F824503F
:1039300022F0010290F82C50028490F82420426278
:1039400027F00F07E2B226F00F0625F001054677B3
:10395000826280F82C50C4760477C4834484A0F833
:103960002D40877680F82F40048690F8332080F829
:10397000324064F3010280F83320026B084E094D97
:10398000818666F31502026395F9002084639A42EA
:10399000B8BF2B7080F83C30F0BD00BFC4DB000026
:1039A000800405008094FF1FF8B5836B05460E4622
:1039B000002B6BD0002190F8340001F0C7F931469C
:1039C000A86BFFF741FF0021A86BFFF77FFF0021E5
:1039D000A86BFFF77BFF95F93C30012B4FF00104FA
:1039E00011DD0021A86BFFF771FF0021A86BFFF725
:1039F0006DFF0021A86BFFF727FF013495F93C30DC
:103A000064B2A342EDDC012195F83400A84F01F027
:103A10009DF9002195F8340001F098F997F90030EC
:103A2000A34211DD0021A86BFFF750FF0021A86B16
:103A3000FFF74CFF0021A86BFFF706FF013497F951
:103A4000003064B2A342EDDC3146A86BFFF7FCFE08
:103A500000212875A86BFFF7F7FE00210402A86B70
:103A6000FFF7F2FE00210443A86BFFF7EDFE2402EE
:103A700004430021A86BFFF7E7FE2402044395F8F6
:103A80003400012101F062F92046F8BD894A8A48D4
:103A900017688A4C02E0172908D00B4630F8022F2D
:103AA00094FBF2F2974203F10101F4D3844A854F6B
:103AB00052F82330F97A23F470421B0942F078520D
:103AC00003F470631343C1B172B6FA7AD407114696
:103AD00006D57D48F96804682140B9610160114646
:103AE000900706D579483A690468F97A2240FA6164
:103AF00002604A0700F1D48062B63A68D168994200
:103B000007D0734810607349D36043F08040106160
:103B10001160002195F8340001F018F93B684FF06E
:103B20000042DA625E63DA6A002AFCDA4FF0004192
:103B30004FF08052986BD9625A63DA6A002AFCDA35
:103B40004FF000414FF08052986BD9625A63DA6AA5
:103B5000002AFCDA95F93C20996B012A4FF0010408
:103B60001FDD4FF000414FF080504FF0000ED96242
:103B70005863DA6A002AFCDA9A6BD9625863DA6A07
:103B8000002AFCDA9A6BD962C3F834E0DA6A002AB8
:103B9000FCDA013495F93C20D3F838C064B2A24273
:103BA000E5DC012195F8340001F0D0F8002195F80A
:103BB000340001F0CBF83E4B93F900E03B687445CC
:103BC0001CDA4FF000414FF080504FF0000CD962EA
:103BD0005863DA6A002AFCDA9A6BD9625863DA6AA7
:103BE000002AFCDA9A6BD962C3F834C0DA6A002A78
:103BF000FCDA013464B2A6459A6BE8D14FF000427A
:103C0000DA625E63DA6A002AFCDA9A6B2A754FF090
:103C100000410022D9625A63DA6A002AFCDA996B01
:103C20004FF0004009020022D86201F47F415A633C
:103C3000DA6A002AFCDA9A6BD2B211434FF00040E4
:103C40000022D86209025A63DA6A002AFCDA9A6B07
:103C5000D2B211434FF000400022D86209025A63E9
:103C6000DA6A002AFCDA9C6BFB7A1648E4B20C4351
:103C70001A46002B3FF403AFDE0703D5164A8169CD
:103C800011601A46990706D453077FF5F8AE134B17
:103C90003A6A1A60F3E6124BF969FA7A1960F3E7A7
:103CA00010497A69086802403A620A6024E700BF56
:103CB0008094FF1F2887FF1FF6DB000000512502BC
:103CC00028DC00002C87FF1F80E100E084E100E099
:103CD00001403F0000003F8000E100E008E100E01B
:103CE00004E100E088E100E0F8B5836B0446154686
:103CF00041F080077BB3002190F8340001F026F8F2
:103D00003946A06BFFF7A0FD290C2075A06BFFF7CB
:103D1000DDFDA9B2A06BFFF7D9FD94F93C30012B72
:103D200012DD01250021A06BFFF7D0FD0021A06B63
:103D3000FFF7CCFD0021A06BFFF786FD013594F95C
:103D40003C306DB2AB42EDDC94F834000121BDE8AB
:103D5000F84000F0FBBF594A5948D2F800E0594EEC
:103D600002E0172908D00B4630F8022F96FBF2F23A
:103D7000964503F10101F4D3534A544E52F82330CF
:103D8000F17A1A0923F4704302F4706243F0785315
:103D90001343E9B172B6F27AD007114609D5DFF8BC
:103DA00048E1F068DEF800100140B161CEF8001083
:103DB0001146900709D5DFF834E13069DEF80020BC
:103DC000F17A0240F261CEF800204A076ED462B662
:103DD0003268D168994207D03D4810603D49D360B0
:103DE00043F0804010611160002194F8340000F02D
:103DF000ADFF33684FF00042DA625F63DA6A002A8F
:103E0000FCDA996B21752A0C42F080524FF0004188
:103E1000D9625A63DA6A002AFCDAAAB242F0805206
:103E20004FF00041986BD9625A63DA6A002AFCDAD3
:103E300094F93C20996B012A1EDD01214FF00040CE
:103E40004FF080550027D8625D63DA6A002AFCDAF9
:103E50009A6BD8625D63DA6A002AFCDA9A6BD862E0
:103E60005F63DA6A002AFCDA013194F93C20D3F866
:103E700038E049B28A42E6DCF37A14491A46002B4C
:103E80003FF462AFD80703D5134A896911601A4617
:103E9000990706D453077FF557AF104B326A1A6063
:103EA00052E70F4BF169F27A1960F3E70D49726935
:103EB0000868024032620A6089E700BF2887FF1F56
:103EC000F6DB00000051250228DC00002C87FF1FD4
:103ED00001403F0000003F8000E100E008E100E019
:103EE00004E100E088E100E080E100E084E100E03E
:103EF00010B541690446C1F31121FFF72DFC61683B
:103F00002046C1F31301FFF741FCE179204600F0A0
:103F100049F9A1682046C1F3130100F049F9A269EB
:103F200023682046C2F313021B6814219847A38B11
:103F30002168E27EC3F30B0342EA032220460B68AA
:103F400015219847238C2168E28BC3F3080342EACA
:103F5000034220460B682D21984794F824302168AD
:103F6000628C03F07F0342EA034220460B68332150
:103F70009847D4F825102046FFF7BCFB94F82C3066
:103F8000A16A03F001031B0643EA11212046FFF753
:103F9000C9FBE26A2368120A1B6820466E21984713
:103FA000216B2046C1F31501FFF718FC94F833206C
:103FB0002368204602F003021B687221BDE810400E
:103FC000184700BF38B50C4605462049C06805F0C3
:103FD00013F905F013FB42F6415380B203FB00F1E5
:103FE000090A1B4B01FB04F11F2000FB0332B1FB4C
:103FF000F2F2FF2A02F1FF3408D87F2A9CBF00F1B9
:10400000FF30C0B27E2CF0D9D3B201E000231A46B3
:104010001F28296885F8433028BF1F200B680446F5
:104020000B212846984721462846FFF7C9FB204622
:1040300005F08EF8296905F0DFF805F0DFFAC1B266
:104040002846BDE83840FFF7ADBB00BF00FF7F4703
:10405000FE4401000261FFF7B5BF00BF70B5044622
:10406000084605F075F8254905F0C6F8244905F01D
:1040700077F924490646E06804F0B6FF314605F0BA
:10408000BBF8214905F06CF94FF07E5104F0AAFF0E
:1040900005F0B4FAC5B20F2D236829D89B68012119
:1040A000204698471749E06804F09EFF314605F026
:1040B000A3F8164905F054F94FF07E5104F092FF31
:1040C00005F09CFAC5B21F2D28BF1F2529462046A2
:1040D000FFF776FB284605F03BF8216905F08CF8E0
:1040E00005F08CFAC1B22046BDE87040FFF75ABB1C
:1040F00000219B6820469847E5E700BFD50435427C
:1041000000007A440AD7A33C6666A63EEC51383ECE
:104110000261FFF7A3BF00BF10292ED00BD94029A1
:104120002FD020D9802915D0B1F5807F2DD10368FB
:1041300000215B6A184702291BD00FD9042905D03A
:10414000082923D1036805215B6A18470368062103
:104150005B6A1847036801215B6A1847C1B90368A5
:1041600008215B6A1847202911D1036803215B6A83
:104170001847036807215B6A1847036804215B6AD4
:104180001847036802215B6A1847704770477047F9
:10419000704700BF08B5036801215B68984700F0CD
:1041A000010008BD0A460168C2710B681121184759
:1041B00030B4827A0568018122F00F04C1F3034212
:1041C000224382722B68C1F3130230BC13211847BB
:1041D00010B4047F4160022CC26002D010BC02F017
:1041E000B7BB836810BC1847F0B4464B464A186BFF
:1041F000DC6A01791170454922790A709A6A00795E
:104200000870002A46D05968C9688A423ED8216899
:10421000CC8B240402F1FF3065D4C0F30E00C883B8
:10422000C88B80B2C882196B0968C88B000452D44D
:10423000C2F30E00C883C88B002480B212F1FF3293
:10424000C88218BF01229C62D96A2E4809680D688D
:1042500000F12404A54236D00068C46814F0804FF1
:104260000C680D6815BF248824780235013544F0A8
:1042700000440D604463196B254B0979197021497D
:1042800012B1CA6A12791A70F0BC7047521A9A6257
:104290000122D9E7586B196805681E4C0A63CC6285
:1042A000CC682D681C4E24F080440327B542CC60B6
:1042B00083F825701FD1037F4260022BC2601ED09D
:1042C000F0BC02F045BB016890F82400CC6840F0D7
:1042D00000404863CFE7CC8BC2F3080004F47E446F
:1042E0002043C883A7E7CC8BC0F3080004F47E44C6
:1042F0002043C88394E72B461146F0BC18478368D7
:10430000F0BC18472C87FF1F1F8000401C80004016
:104310001B80004000000FFFD141000090E80C001E
:10432000F0B41C6859682568164F174E2943216060
:10433000164D17491760D66015611160417A154A0C
:104340005C180A3194F8244053F8215002EBC40160
:1043500049680D60017A5C1803EB8101247ECD6908
:1043600002EBC40149680D60817A581803EB8103A0
:1043700090F83000596B02EBC002F0BC5368196032
:10438000704700BF01401F00011000380110007885
:1043900000001F801CDD000043680CCB11680B433C
:1043A00013607047FFFFFFFF2DE9F843036B0446DE
:1043B000406923F04005884604F052FA064640461C
:1043C0000F4604F04DFA02460B463046394604F0DB
:1043D000BDFA00227E4B04F0B9FA79A3D3E9002399
:1043E00006460F4604F0DCFB00227A4B04F0FAF894
:1043F00004F084FDC0B20F280ED92563E36A94F857
:104400003B2023F01F031F2894BF034343F01F03E7
:10441000E3629AB9BDE8F88345F040032363304670
:1044200069A3D3E90023394604F0BAFB0022694BA3
:1044300004F0D8F804F062FDC0B2DFE76649674ACD
:104440000B68D4F8309043F480530B60D368580164
:1044500000F19A80D66816F0007640F0AB80F7B293
:104460000C215F48FFF798FF5D4D94F8380000215C
:1044700000F06CFC2B684FF00041C9F30742D96291
:104480005A63DA6A002AFCDA986B4FF000414FEA6F
:104490000028C9F30722D96208F47F405A63DA6A18
:1044A000002AFCDA996B5FFA81F848EA00085FFAA3
:1044B00089F24FF00040D8624FEA08215A63DA6A65
:1044C000002AFCDA9B6B94F838005FFA83F848EA1C
:1044D0000108012100F03AFC0C2E4FEA181803D015
:1044E00039463F48FFF758FF3B49C4F834800B6812
:1044F0003A4AD4F82C8043F480530B60D3685901B6
:104500004BD5D3689B0158BF08264AD50C273E4699
:10451000002194F8380000F019FC2B684FF000419E
:10452000C8F30742D9625A63DA6A002AFCDA9D6B43
:104530004FF000412D02C8F30722D96205F47F40F5
:104540005A63DA6A002AFCDA9D6BEDB205435FFA22
:1045500088F24FF00040D86229025A63DA6A002AD2
:10456000FCDA9D6B94F83800EDB20D43012100F0A8
:10457000EDFB0C2E4FEA151503D039461848FFF70E
:104580000BFF6563BDE8F883D3689A0158BF08261E
:104590007FF565AF0C273E4666E7D66816F00076D5
:1045A00005D1F7B20C210E48FFF7F6FEB0E704275D
:1045B0003E46F7E704273E4652E700BFAFF30080D0
:1045C00000000000C0EB1241000000004024044144
:1045D000000040400000E03F3C80044000C002403A
:1045E0002C87FF1FF8B504465C4B006AFF2903EADD
:1045F0000003236219DD5A4A4FF480730240E363DB
:10460000002594F83B1015432562D9B9E568E36BA2
:104610002069A169534A03FB05F300FB03F3B2FBD6
:10462000F3F31944A360E161F8BD7F2957DD4C4ADB
:1046300094F83B100240012580231543E363256273
:104640000029E3D04849494A0B6843F480530B6082
:10465000D36859014DD4D66816F0007675D1F7B2FB
:104660000C214348FFF798FE002194F8380000F031
:104670006DFB3F4B1B684FF000412A0CD9625A6317
:10468000DA6A002AFCDA996B4FF0004E0902C5F392
:104690000722C3F82CE001F47F405A63DA6A002A4B
:1046A000FCDA996BC9B20143EAB24FF00040D8621C
:1046B00009025A63DA6A002AFCDA9D6B94F8380022
:1046C000EDB20D43012100F041FB0C2E4FEA151510
:1046D00003D039462648FFF75FFE656396E73F291A
:1046E0000FDC1F2913DD1E4A20230240E36303254C
:1046F00087E7D3689B0158BF0826B0D50C273E46F4
:10470000B2E7174A40230240E363022579E70F2905
:1047100007DC0729124A0ADD08230240E363052566
:104720006FE7102143F40072E163042569E7032970
:1047300004DD04230240E363062562E7012907DD67
:1047400002230240E36307255BE704273E4687E731
:1047500001230240E363082553E700BFF0FF0F0089
:10476000F0FD0F00008793033C80044000C002402E
:104770002C87FF1FF8B5184B53F83160044606F13B
:10478000800506F580702562606253F8323021633F
:10479000012562634FF0000C03F1800E03F5807772
:1047A0004FF44872C8B240F6C411C4F804C0C6F849
:1047B0000051C4F828E0E1612560E7622946C3F8AA
:1047C0008050A26100F0D6FA94F83400294600F037
:1047D000D1FA2046F8BD00BF1CDD0000426B074B3C
:1047E00053F8323003F1800203F5807311B982620D
:1047F000C36270478362C262704700BF1CDD000065
:10480000034A044B914288BF1946C161704700BFFB
:104810001FA1070020A10700002930B40BDB826A2A
:104820000123036013600A4A0A4B9142C8BF19462C
:10483000816130BC7047084BC26A4FF0FF350124DC
:10484000994205601460EEDA0449816130BC70471A
:10485000DF930400E0930400216CFBFF206CFBFF5E
:104860004368C91A10B40DD4826A0123036013602F
:10487000436810BC81EAE172A2EBE1721944C160A5
:1048800002617047C36A4FF0FF34012204601A606E
:10489000EEE700BF704700BF024B186803681B6853
:1048A000184700BF8494FF1F024B586803681B68B9
:1048B000184700BF8494FF1F024B986803681B6869
:1048C000184700BF8494FF1F024BD86803681B6819
:1048D000184700BF8494FF1F4268BAB10D4B1344C0
:1048E0001B114433DBB2443B032B0FD8DFE803F04A
:1048F0000B080502084B03607047084B03607047C4
:10490000074B03607047074B036070470023036049
:10491000704700BF008FFCBF30710340207103401F
:104920001071034000710340F8B5061D04460F46A0
:104930003046144A144902F09FF9054608B9284642
:10494000F8BD2046FFF7C8FF2168104B104A606889
:104950000B441B11202142F82370217220B10B4A15
:104960000C4F02441211D1550B49064A51F823103D
:10497000304602F081F92268936823F002039360C5
:104980002846F8BD0051250295480000008FFCBF65
:104990008494FF1F44E400E0FCDC000030B4134CBE
:1049A00022780ABB124B4FF6FF711A6010209960F3
:1049B000D30003F1804303F560330132D96821F05D
:1049C0008001D960D968082A21F04001D960D860F7
:1049D000EED102F1E0220648FC320D254FF0804175
:1049E000012305601160237030BC7047B494FF1F31
:1049F00000800340074A002352F8041F21B101330D
:104A0000082BF9D118467047034A42F8230018468C
:104A1000704700BF9094FF1F9494FF1F072810D881
:104A200010B472B6C30003F1804303F56033054947
:104A3000DA68002422F04002DA6041F8204062B6D1
:104A400010BC70479494FF1F70B50F4D002402E016
:104A50000134082C16D0E30003F1804303F56033E2
:104A6000DA6802F0C002C02AF2D155F82400DA68F0
:104A7000016822F040020E68DA6021460134B04736
:104A8000082CE8D170BD00BF9494FF1FF0B51B4BFC
:104A90001B4E596818689A68DB6885B06C460FC46D
:104AA000337899071DD5174A174C1378174913F017
:104AB000700318BF1370164A164B80271770002614
:104AC0003320032226706D4608701A7072B6043CBB
:104AD00045F001052046A84762B6237813F070031D
:104AE00009D10D4B064901E0013B02D00A78D207FB
:104AF000FAD505B0F0BD237005B0F0BD0CDD0000A7
:104B00000100024000000240040002400B0002408D
:104B1000070002400A000240410D0300B0F5006F9B
:104B20000AD210B5094B1B78DB07044606D504F101
:104B3000A0500078C0B210BD00207047FFF7A6FF5C
:104B400004F1A0500078C0B210BD00BF01000240C7
:104B5000B0F5006F17D238B50F4B1B78DA070D464A
:104B6000044611D504F1A0500378AB420AD00B4A99
:104B7000137813F0700318BF1370074A0570137889
:104B8000DB07FCD538BD7047FFF780FF04F1A0506C
:104B90000378AB42EBD1F5E7010002400000024090
:104BA00008B5104C08E0236859050DD423681A0590
:104BB0000FD42368DB0411D423685803F3D500F025
:104BC00045FF23685905F1D500F032FA23681A052C
:104BD000EFD500F0D9FD2368DB04EDD502F0EAFA49
:104BE000EAE700BF3480044008B5FFF7D9FF00BFF3
:104BF000014B10221A80704700200540704700BF0B
:104C0000094908B50B6830B16A461844A2F58052CC
:104C1000904202D20860184608BD04F01FFD0C2324
:104C200003604FF0FF3008BD6487FF1FFEE700BF41
:104C3000EFF3138070B9EFF310836BB9EFF30582D4
:104C40005AB94FF48070EFF311832BB1984228BF0B
:104C5000184670474FF0FF3070470F2A01D81846AA
:104C6000F1E7014BD05CEEE7F0E300E010B40F4B4E
:104C700053F8302092F880422CB1012369B182F8B8
:104C8000803010BC704703EBC0035B681A6841B901
:104C900022F002021A6010BC704782F8003110BC8A
:104CA000704742F003021A6010BC70471CDD000020
:104CB0001C4A02EBC00301295B6811D004291BD0F8
:104CC00052F83000002280F8802229B1022920D039
:104CD000032922D01A6070474FF480721A6070471F
:104CE00052F830004FF4A27280F880121A601A68ED
:104CF00022F020021A60704752F830104FF4A2726E
:104D0000012081F880021A601A6842F020021A60BD
:104D1000704740F203121A6070474FF481721A60B4
:104D2000704700BF1CDD000030B4054B054D064C3C
:104D3000002210211A602A602060196030BC704780
:104D400014D0034004D0034000D00340212801D8F0
:104D5000FFF78CBF704700BF212806D8044B53F8DB
:104D6000303093F80002C0B270470020704700BF97
:104D70001CDD0000212801D8FFF79ABF704700BF53
:104D80002DE9F04107460E4690460825012405E02E
:104D9000212E0CD96400013DE4B214D0212FF7D8A4
:104DA00008EA04013846FFF761FF212EF2D80121FD
:104DB0003046FFF75BFF00213046FFF757FF6400E6
:104DC000013DE4B2EAD1BDE8F08100BF2DE9F8432E
:104DD000054672B6214F224B224A1B683C68126876
:104DE00062B6520102D5322B88BF0134A5B3C3F598
:104DF0008C331D4EDFF86890DFF8688003F23F13B4
:104E00004FF47A72A6FB031302FB04F404EB1314B1
:104E100072B6D9F800103A68D8F800E062B6C1F569
:104E20008C3303F23F13A6FB03031EF0806FC4EB29
:104E300013134FF47A7002D0322988BF013200FB7D
:104E40000233B3F57A7F04D3013D05D004F57A74BB
:104E5000DEE702F021F8DBE7BDE8F883B894FF1F36
:104E600018E000E004ED00E0398EE338F8B52D4B92
:104E70002D49DFF8D0E0DFF8D0C02C4E2C4D2D4C62
:104E80002D4A2E4F4FF4000018604FF080701860CC
:104E90004FF0007018604FF0806018604FF00060B5
:104EA000186000200860282348F6FF71CCF8001035
:104EB000CEF80030336013602B6023603B60B36238
:104EC0009362092245F8242CC4F8D80F05F57F65B4
:104ED000C7F8D41F07F5FF2707F5FA67C6F8F83FAC
:104EE0002B6006F5FF26C4F8D42F05F5FD2504F543
:104EF000FF24386006F2F4761148316005F5FF654D
:104F000004F5FD642B602360026002F0ADF8192007
:104F1000FFF75CFF01F000FB40F21310BDE8F84022
:104F2000FFF754BF08E100E0048003401480034011
:104F3000248003402C8003401C80034034800340C5
:104F400000800B400C80034008800340234B1B680B
:104F50005B0541D510B5224C237823B101F09CFFAD
:104F60002378002BFAD11F481F4A204B4FF40054DE
:104F700000210460D1701B78FBB1152B03D11C4BB1
:104F800040F203121A601B4B1B7803F07F03012BC6
:104F90001DD0052B03D1184B40F203121A60174A9B
:104FA000114B1748174912681C79DB7900230370ED
:104FB0000B700AB10123137010BD134B40F20312A2
:104FC0001A600C4B1B7803F07F03012BE1D10F4BD0
:104FD00040F203121A60E2E7704700BF34800440D9
:104FE0004895FF1F84E100E000A006400495FF1FE4
:104FF00018C004406887FF1F1CC00440BC94FF1FFA
:10500000C094FF1FC194FF1F40A0044044A004406F
:10501000054A064B10781B78C0B2DBB2984238BF05
:105020004030C01A704700BFC094FF1FC194FF1FDB
:10503000F0B4384B1A7912F0300F2CD072B6997D3B
:1050400001F0FF0200293DD062B6334F3349387872
:105050000D78334E1C46C0B2EDB2431C402BE179B3
:1050600028BF0023AB4202F1FF32C9B21CBFF1548A
:10507000184612F0FF02F0D12A4B1B68C2B23A70F8
:105080004BB1A84236BFC5F14005401B4019272847
:10509000C4BF01221A701F49CA78D2B2150616D4AD
:1050A00052060DD51B4B1B795B0609D51E4B1F49BC
:1050B0001B6800220A7003B11A70164B3C22DA708A
:1050C000F0BC70474022D9795A7462B6E3E70B7995
:1050D0001C06E5D5164B174E1C783378E4B2DBB2CC
:1050E0009C420ED0144D01E0A3420AD00133402B64
:1050F00028BF00230879E85CC0B2C871087D072882
:10510000F2D9DBB2034933700B79180644BF7C2314
:10511000CB70C5E700A00640C094FF1FC194FF1FDD
:105120000895FF1FBC94FF1F4C95FF1F4895FF1F5C
:105130005095FF1F4995FF1FC494FF1F2B4A2C4910
:105140001368F0B543F4006313600A78294F2A4EC0
:105150002A4D2B4C2B490023092A3B7033702B70AE
:1051600023700B703DD01A2A21D0274B1B780A2BB5
:1051700025D01F2B30D01F2827D80020024601251C
:10518000224B234C1A7023495D7004224FF0020E0B
:1051900088273C26402598729A704FF4004083F887
:1051A00013E05A751F74DE7025700860F0BD1A4B4D
:1051B00040F213321A60144B1B780A2BD9D1174BCB
:1051C0004FF451721F281A60D7D9C0F34432C0F38C
:1051D000471500F01F00D3E7114B4FF451721A60CE
:1051E000C9E7104B40F213321A60BEE73480044026
:1051F0006987FF1FC495FF1F5995FF1FCC95FF1F9F
:10520000C595FF1F5895FF1F6A87FF1F00B0064016
:105210002FE400E004E100E004D0044010B00440BA
:1052200000D004400CB00440144B14499B7803F0A8
:10523000EC0200F003031343420700F00F0248BFE3
:1052400043F01003042A8B7013D00C4B0B4A5B798C
:10525000C10603F0EF0348BF43F010035371937985
:10526000820603F0EF03054A48BF43F01003937131
:1052700070478B7943F040038B71E6E700B006403E
:10528000234B1B681B0542D510B5224C237823B154
:1052900001F002FE2378002BFAD11F481F4A204B51
:1052A0004FF4004400210460D1701B78092B1FD0FB
:1052B0001A2B03D11B4B40F203121A601A4B1B78B6
:1052C00003F07F030A2B1DD01F2B03D1174B40F295
:1052D00003121A60164A114B1648174912681C79B6
:1052E000DB79002303700B700AB10123137010BD2A
:1052F000124B40F203121A600B4B1B7803F07F0332
:105300000A2BE1D10E4B40F203121A60E2E770471C
:10531000348004405895FF1F84E100E000B006404F
:105320006987FF1F04D004406A87FF1F00D0044034
:105330005495FF1FC495FF1F5995FF1F0CB00440E3
:1053400010B004400A4A38B50546137803F0FF044C
:10535000002BFAD101212846FFF70CFD21462846F3
:10536000FFF7F4FC034A044B52F835201A6038BDAD
:105370005895FF1F1CDD0000C895FF1F09B140F0C4
:105380008000174A1378984216D010B4154C246840
:1053900024050FD503F07F030A2B1CD01F2B11D03F
:1053A000002900F07F0114BF602344230A290DD097
:1053B0001F2902D0107010BC70470B4943F4407392
:1053C0000B60F7E7084B00241C60E9E7074943F44A
:1053D00040730B60EEE7054B00241C60E0E700BF64
:1053E0006A87FF1F3480044000D0044010B004409E
:1053F000124B1A7882420CD011490968090507D569
:10540000092A16D01A2A0AD009280DD01A2801D044
:10541000187070470B4A40F213311160F8E7094ADF
:10542000002109281160F1D1074A40F213311160BF
:10543000EEE7054A00211160E6E700BF6987FF1F1C
:105440003480044004D004400CB004400D4B1B6871
:1054500013F4006305D0212805D90B4B00201860F8
:10546000704718467047094B10B5074C53F8303059
:1054700023600121FFF77EFC236800221A700120BF
:1054800010BD00BF348004405495FF1F1CDD000098
:105490000C4B1B6813F4006306D0172806D00A4A89
:1054A000537B03F0FE03537300207047074B064AFB
:1054B00040F202311960537B43F001035373012022
:1054C000704700BF3480044000B0064008B004407C
:1054D0002DE9F84F234B1B681A053BD5224B1B685F
:1054E0000BB101221A70DFF89090204D99F800401E
:1054F000DFF888801E4E0134272C8ABF4FF0000A47
:105500005FFA84FA54460746AB462B789C4216D184
:10551000FFF78EFB40281FDC33791B06F5D59BF87F
:1055200000300133272B86BF00221346DAB218F869
:105530000330DBB2F3712A702B789C42E8D00D491E
:105540000B4BFFB20120BC2208F80470087089F8E8
:1055500000A0DA70BDE8F88FFF28D6DD01F09CFCD2
:10556000D3E700BF34800440C895FF1FC595FF1FD7
:1055700000B006405895FF1FCC95FF1F5C95FF1F9C
:105580002DE9F84F294B1B681A0548D5284B1B6895
:1055900005460BB101221A7005EB010A554540D2B0
:1055A000DFF89C80234CDFF89C90234F0AE015F82D
:1055B000012B09F80B20214A0123AA45137088F812
:1055C00000602ED098F80030227803F1010BBBF177
:1055D000270F86BF0026B3465FFA8BF69345E6D1C8
:1055E000BC22FA7005E03A7913060BD42278934571
:1055F000DDD1FFF71DFB4028F5DDFF28F6DD01F0CA
:105600004BFCF3E722780132272A86BF00210A46A5
:10561000D1B219F80220D2B2FA712170E6E7BDE8E2
:10562000F88F054BBC22DA70BDE8F88F3480044057
:10563000C895FF1FC595FF1F00B006405895FF1F76
:10564000CC95FF1F5C95FF1F10B5044C237823B148
:1056500001F022FC2378002BFAD110BD5895FF1FD2
:10566000064A074B1B781078DBB2C0B283422CBFCE
:10567000273000F1FF30C01A704700BFC595FF1FEB
:10568000CC95FF1F054A064B10781B78C0B2DBB2E1
:10569000984238BF4030C01A704700BFC495FF1F02
:1056A0005995FF1F30B4154B154C1A782378D2B298
:1056B000DBB29A421ED001333F2B0ED91149124B57
:1056C000087819680023C0B2237021B1D31A1A2BAD
:1056D00001DC00230B7030BC70470A480A49C05CEB
:1056E0000968DDB2C0B225700029F4D09A4238BFF3
:1056F0004032EBE74FF0FF30EDE700BFC495FF1FEE
:105700005995FF1F8495FF1F5495FF1F084A094BA9
:1057100012781B78DBB29A4207D00133402B28BFA6
:105720000023054AD05CC0B270474FF0FF3070478D
:10573000C495FF1F5995FF1F8495FF1F0D4B1B68D4
:105740001B0516D530B40C4B0C4CDA780C480D49BF
:1057500002F0CB024025DA705D74DA7842F0340250
:10576000DA7023780268DBB20B700AB10023137081
:1057700030BC70473480044000B006405995FF1F8C
:105780005495FF1FC495FF1FF0B4384B1A7912F0DF
:10579000300F2CD072B6997D01F0FF0200293DD068
:1057A00062B6334F334938780D78334E1C46C0B259
:1057B000EDB2431C402BE17928BF0023AB4202F13C
:1057C000FF32C9B21CBFF154184612F0FF02F0D1EB
:1057D0002A4B1B68C2B23A704BB1A84236BFC5F122
:1057E0004005401B40192728C4BF01221A701F49D9
:1057F000CA78D2B2150616D452060DD51B4B1B79AA
:105800005B0609D51E4B1F491B6800220A7003B1B5
:105810001A70164B3C22DA70F0BC70474022D979DE
:105820005A7462B6E3E70B791C06E5D5164B174EA2
:105830001C783378E4B2DBB29C420ED0144D01E008
:10584000A3420AD00133282B28BF00230879E85C43
:10585000C0B2C871087D0728F2D9DBB203493370A2
:105860000B79180644BF7C23CB70C5E700B0064017
:10587000C495FF1F5995FF1F8495FF1F5495FF1F67
:10588000C895FF1F5895FF1FCC95FF1FC595FF1F9B
:105890005C95FF1F431E032B14D872B60A4951F8BA
:1058A000230068B170B4094C058834F813204668A9
:1058B00041F82360521B24F8132062B670BC704775
:1058C00062B67047002070472896FF1F9C97FF1F05
:1058D000013803280BD872B6074B53F8203043B178
:1058E00000205B680130002BFBD162B670470020BE
:1058F00070471846F9E700BF7C96FF1F30B472B6B8
:105900002B4A13781D0706D52A4B196A002936D071
:10591000996A002941D053781C0706D5254B196C8C
:1059200000293ED0996C002939D09378190705D504
:10593000204B196E002936D0996E89B1D3781B0798
:1059400007D51C4BD3F880207AB3D3F888201121D7
:105950003AB162B6184B00221A7030BC00F068BE33
:105960000D21154C154D227843F8315003EBC1033E
:105970000830013A5860227062B630BC7047042289
:105980000D4C0F4D217843F8325003EBC203083021
:105990004A1E5860227062B6EFE70521E1E709214F
:1059A000DFE70822ECE70C22EAE71022E8E700BF75
:1059B000B8DE00000080FF1FA596FF1FC800400052
:1059C00088004000431E032B1DD81B4A400140F0B5
:1059D000100030B4104472B6184CE25C032A1BD895
:1059E000DFE802F00212151703220D88E25410F0CE
:1059F000080F14BFC823882343EA05430831036016
:105A0000416062B630BC704708300222EDE70522E3
:105A1000EBE708300422E8E7094A52F8230038B1DE
:105A2000084A52F82300416042F8231062B6E9E7C1
:105A300042F82310034AF7E70080FF1FB496FF1FC8
:105A40007C96FF1F8C96FF1F00BE00BF2DE9F04F14
:105A5000DFF818B3DFF818A387B044E0AE4F4FEA81
:105A6000930807EBC809013ED9F8042003F00803A6
:105A7000F6B2A2F1080003F0FF04002B40F004810D
:105A800057F838301B0C99B222F8081C002B00F094
:105A9000F280A24B22F8064C42F8044C53F8262020
:105AA000002A00F06E819E4D55F8263058609D4CBE
:105AB00045F8260034F81630194424F8161000F082
:105AC00097FD002800F05681974A984B19F0080F6F
:105AD00000F1080018BF1346C9F8040047F8383031
